001202412242024122400000013
10120241224133      29449549893                   129449549893   LUCIENE SEVERINA DA SILVA                    19800807SEVERINA SOARES SILVA                        X                                                                                                                                                                                                            00000000                                                                                                                        SEVERINA SOARES SILVA                        R LUIZ ANTONIO DE ANDRADE                         4         CASA 01                                           JARDIM TRIANON           TABOAO DA SERRA        SP067832801141382039                                                                                                                                                                                                                                                                              00000000                                                                         2014073020520426                                                                                                                                                                                                                                                                       FO0000034682SP20130207009     000000000000000000        00000000R11949480296         987356876           41382039            LUCIENELIDINHA@GMAIL.COM                                    
10120241224133      30781517869                   130781517869   DANILO DOS SANTOS FERREIRA                   19820823JULIA MARIA DOS SANTOS FERREIR               CAMPANHA                                                                                                                                                                                                     00000000                                                                                                                        JULIA MARIA DOS SANTOS FERREIR               RUA LUIS LOUZA                                    221       AP                                                OLIMPICO                 SAO CAETANO DO SUL     SP095404301199538913          NAO INFORMADO                                                                                                                                                                                                                                                       00000000                                                                         2019012520520426                                                                                                                                                                                                                                                                       MO909090SSP SP20170328016     000000000000000000        00000000R11995389133         999538913           11970170282         DANILO@STARTPREDIAL.COM.BR                                  
10120241224133      33152850808                   133152850808   VALERIA VILLA REAL                           19940225MARILDA IRENE BLANCO VILLA REA                                                                                                                                                                                                                            00000000                                                                                                                                                                     RUA ANANIAS EVANGELISTA D                         840                                                         VILA PRADO               SAO CARLOS             SP135742801634160581                                                                                                                                                                                                                                                                              00000000                                                                         2022081220520426                                                                                                                                                                                                                                                                       FS            20220608        000000000000000000        00000000R16988147398         988232421           988232421           VALERIAVREAL@ICLOUD.COM                                     
10120241224133      46122311553                   146122311553   FRANCISCO DE ASSIS SOUZA MELO                19681004LIDIA RODRIGUES DE SOUZA MELO                X                                                                                                                                                                                                            00000000                                                                                                                        LIDIA RODRIGUES DE SOUZA MELO                R TRAVESSA PASTOR RUBENS LOPES                    00646                                                       AMERICANOPOLIS           SAO PAULO              SP044090251156259907                                                                                                                                                                                                                                                                              00000000                                                                         2017092520520426        PARCELAMENTO DE FATURA PARA O CONTRATO:0004152740833536005 - PROPOSTAS SEM SEGURO:- PROPOSTAS COM SEGURO:                                                                                                                                                      MC29831003XSSP20170125016     000000000000000000        00000000R11965399369         993209530           11993209530         FRANCISCO_ASSIS.MELO@HOTMAIL.COM                            
10120241224133      69798567404                   169798567404   GEISON GOMES DA SILVA                        19731208SEVERINA ZORAIDE DA SILVA                                                                                                                                                                                                                                 00000000                                                                                                                        SEVERINA ZORAIDE DA SILVA                    DA UNIAO                                          89        CASA                                              CAIXA D AGUA             OLINDA                 PE5321012039787606                                                                                                                                                                                                                                                                                00000000                                                                         2017012620520426                                                                                                                                                                                                                                                                       MC3769712SSP  20160601071     000000000000000000        00000000R999365673           983246993           8134442058          GEISONGS73@OUTLOOK.COM                                      
10120241224133      83941770349                   183941770349   FRANCISCO EVANDRO MQ COSTA                   19810428MARIA DE FATIMA MARQUES DA COS               FABIO FERREIRA BARBOSA                                                                                                                                                                                       00000000                                                                                                                        MARIA DE FATIMA MARQUES DA COS               AVELEDO                                           501       AP1704                                            MESSEJANA                FORTALEZA              CE60871210                    MULTICOISAS                                                           GERENTE                       AV  SANTOS DUMONT                                       3060LOJA 02                                           ALDEOTA                  FORTALEZA              CE60150161                                                                         2019080620520426                                                                                                                                                                                                                                                                       MC9400243751CE20170413016     000000000000000000        00000000R85989716261         985495629           985495629           EVANDRO2384@GMAIL.COM                                       
10120241224133      31009829831                   131009829831   ALEX PRACONARO AMARAL                        19830603MARIA ELIZABETE P AMARAL                                                                                                                                                                                                                                  00000000                                                                                                                        MARIA ELIZABETE P AMARAL                     R BERTHOLDO DO CARMO                              90        QUADRA 4                                          QTA B OLINDA             BAURU                  SP170235501432377440                                                                                                                                                                                                                                                                              000000001430103955                                                               2017052220520426        PARCELAMENTO DE FATURA PARA O CONTRATO:0005363800262709002 - PROPOSTAS SEM SEGURO:- PROPOSTAS COM SEGURO:                                                                                                                                                      MC44018057SSSP20161123016     000000000000000000        00000000R14988269515         991949253           988367710           ALEXPEREIRAIMOVEIS@HOTMAIL.COM                              
10120241224133      38226387817                   138226387817   CAIO HENRIQUE RAMOS T SANTOS                 19890514ANA M RAMOS TRIGLIA                          X                                                                                                                                                                                                            00000000                                                                                                                        ANA M RAMOS TRIGLIA                          VSC DE CAIRU                                      905                                                         JARDIM PAULISTA          GUARULHOS              SP07083120                                                                                                                                                                                                                                                                                        00000000                                                                         2015021320520426        PARCELAMENTO DE FATURA PARA O CONTRATO:0004152740484135008 - PROPOSTAS SEM SEGURO:- PROPOSTAS COM SEGURO:                                                                                                                                                      MS45840715XSSP20120613001     000000000000000000        00000000R11989276355         989276355           962283968           CAIOTRIGLIA_BATERA@HOTMAIL.COM                              
10120241224133      16585869800                   116585869800   ANA PAULA DA SILVA                           19770801LAZARA DE FATIMA DA SILVA.                                                                                                                                                                                                                                00000000                                                                                                                                                                     NOVA BEIRA                                        00204     .                                                 ITAQUERA                 SAO PAULO              SP082155001132774445                                                                                                                                                                                                                                                                              000000001120746226                                                               2014073020250324                                                                                                                                                                                                                                                                       FS            20081006        000000000000000000        00000000R11973759872         969067938           969067938                                                                       
10120241224133      49391925120                   149391925120   ELANE PERES NAVES SANTOS                     19700711DIVA DE OLIVEIRA PERES                       X                                                                                                                                                                                                            00000000                                                                                                                        DIVA DE OLIVEIRA PERES                       RUA ERICK MAIA PEIXOTO                            00000     QD1AA LT10                                        ST SANTA RITA            GOIANIA                GO743705706235755098                                                                                                                                                                                                                                                                              00000000                                                                         2016081720520426                                                                                                                                                                                                                                                                       MO28404712SSGO20120515002     000000000000000000        00000000R62984922008         984922008           35755098            LORRAINECALCADOSGO@GMAIL.COM                                
10120241224133      29546271829                   129546271829   ROSELAINE DE CAMPOS MORCEIRO                 19810327CONCEICAO APARECIDA DE CAMPOS                X                                                                                                                                                                                                            00000000                                                                                                                        CONCEICAO APARECIDA DE CAMPOS                R TUPA                                            00106     .                                                 SAO BENTO                ARUJA                  SP074430101148209397                                                                                                                                                                                                                                                                              00000000                                                                         2019082620520426                                                                                                                                                                                                                                                                       FS338457434SSP20170526016     000000000000000000        00000000R11992937416         992937416           992937416           LAININHA_CAMPOS@HOTMAIL.COM                                 
10120241224133      32584887894                   132584887894   JAMILLE DA SILVA RONDINA                     19850815ROSE MARA ORTIZ DA SILVA                     X                                                                                                                                                                                                            00000000                                                                                                                        ROSE MARA ORTIZ DA SILVA                     R SEVERINO NOGUEIRA BRITO                         00026     JD GIBEON                                         TERRA PRETA              MAIRIPORA              SP07600000                                                                                                                                                                                                                                                                                        00000000                                                                         2018092420520426                                                                                                                                                                                                                                                                       FC40044785XSSP20171214051     000000000000000000        00000000R11999741885         999741885           1144864533          JAMILLERONDINA@HOTMAIL.COM                                  
10120241224133      30253753880                   130253753880   SARA REGINA DOS SANTOS                       19810610EVA MARCELINO DOS SANTOS                                                                                                                                                                                                                                  00000000                                                                                                                        EVA MARCELINO DOS SANTOS                     JUAN CABRERIZO                                    56        .                                                 CIPAVA                   OSASCO                 SP060801801143761712                                                                                                                                                                                                                                                                              000000001194896163                                                               2016081220520426                                                                                                                                                                                                                                                                       FC33835848SS  20120917037     000000000000000000        00000000R                    994896163           963254664           SARA@DEVISU.COM.BR                                          
10120241224133      67076483653                   167076483653   EDNA PEREIRA DO VALE                         19660329MARIA APARECIDA DO VALE                      X                                                                                                                                                                                                            00000000                                                                                                                        MARIA APARECIDA DO VALE                      RUA PROFESSOR TUNES                               290       .                                                 PALMEIRAS                BELO HORIZONTE         MG305754303133123052                                                                                                                                                                                                                                                                              000000003198536929                                                               2017111020520426                                                                                                                                                                                                                                                                       FC000000M418MG20140617016     000000000000000000        00000000R31999706849         999706849           3125202383          EDNAPVALE@HOTMAIL.COM                                       
10120241224133      80477178120                   180477178120   JOSE FRANCISCO DA SILVA NETO                 19761022SUELI APARECIDA W SILVA                                                                                                                                                                                                                                   00000000                                                                                                                        NAO INFORMADO                                R ALEGRIA DOS JARDINS                             00000     QD13 LT26                                         R JARDINS DO CERRADO     GOIANIA                GO74491165                                                                                          OUTROS OUTROS                                                                                                                                                                                 00000000                                                                         2020010620520426                                                                                                                                                                                                                                                                       MS3510795OUT  20191210016     000000000000000000        00000000R991298008           999619435           991987331           JFSILVA989@GMAIL.COM                                        
10120241224133      32317325819                   132317325819   ZEZINHA MARIA DE JESUS                       19470505MARIA LUZIA DE JESUS                         CAMPANHA                                                                                                                                                                                                     00000000                                                                                                                        ZEZINHA MARIA DE JESUS                       R OSCARINA MARIA DE JESUS                         5         .                                                 JARDIM VAZ DE LIMA       SAO PAULO              SP05833300                    NAO INFORMADO                                                                                                                                                                                                                                                       00000000                                                                         2018021420520426                                                                                                                                                                                                                                                                       FO909090SSP SP20171101016     000000000000000000        00000000R11977323700         977323700           977323700                                                                       
10120241224133      29695492800                   129695492800   MIGUEL ALEX MARTINS DE FARIA                 19810220CLEUSA MARTINS DE FARIA                                                                                                                                                                                                                                   00000000                                                                                                                        NAO INFORMADO                                R TEODORO SAMPAIO                                 619       .                                                 CERAMICA                 SAO CAETANO DO SUL     SP09530720                                                                                          OUTROS OUTROS                                                                                                                                                                                 00000000                                                                         2019071620520426                                                                                                                                                                                                                                                                       MS28957472OU  20190213016     000000000000000000        00000000R11993734394         989598156           989598156           DANNYPEQUENA@YAHOO.COM.BR                                   
10120241224133      34031781881                   134031781881   PATRICIA DA SILVA GOMES                      19860808TEREZA VIRRISSIMO DA SILVA GOM                                                                                                                                                                                                                            00000000                                                                                                                                                                     RUA DAS POESIAS                                   400                                                         JARDIM NOVA VIDA         COTIA                  SP06702335                                                                                                                                                                                                                                                                                        00000000                                                                         2022092620520426                                                                                                                                                                                                                                                                       FS            20210730        000000000000000000        00000000R11946165455         996165210           995058760           MANDALASOLARTESS@GMAIL.COM                                  
10120241224133      49385836404                   149385836404   JOSE POSSIDONIO FILHO                        19680320SIVERINA MARIA DE OLIVEIRA                                                                                                                                                                                                                                00000000                                                                                                                        SIVERINA MARIA DE OLIVEIRA                   SORAIA                                            117                                                         JARDIM JACIRA            ITAPECERICA DA SERRA   SP068644201146697951          POSTO DE GASOLINA BANDEIRANTES                                                                                                                                                                                                                                      00000000                                                                         2019061420520426                                                                                                                                                                                                                                                                       MC75384561SSSP20090820043     000000000000000000        00000000R                    982701509           982701509           TALITA.SALES.94@GMAIL.COM                                   
10120241224133      33977846892                   133977846892   MARILENE PARDIM FERREIRA SOUZA               19810626MARIA PARDIM FERREIRA.                                                                                                                                                                                                                                    0000000035866210                                                                                                                                                             FREI MIGUELINHO                                   141       .                                                 CENTRO                   MACAIBA                RN5928000084991617846                                                                                                                                                                                                                                                                             000000008432713278                                                               2014073020520426                                                                                                                                                                                                                                                                       FC            20080710        000000000000000000        00000000R84991297128         967878921           1141496301          MARILENEPARDIM27_@HTEMAIL.COM                               
10120241224133      29975819826                   129975819826   RODOLFO CARLOS BARBOSA SANTOS                19810606MARTA BARBOSA DOS SANTOS                                                                                                                                                                                                                                  00000000                                                                                                                                                                     RUA GERALDO NEVES SOUZA 00330                     00330                                                       CIDADE BOA VISTA         SUZANO                 SP086935201147526924                                                                                                                                                                                                                                                                              00000000                                                                         2022081120520426                                                                                                                                                                                                                                                                       MS            20210706        000000000000000000        00000000R11951452548         964288736           964288736           RDF.CARLOS10@HOTMAIL.COM                                    
10120241224133      71902830725                   171902830725   JOSE BONALDO VIEIRA FELIX                    19611212TEREZA VIEIRA FELIX                                                                                                                                                                                                                                       00000000                    ENTIADO, INDIARA                                                                                    TEREZA VIEIRA FELIX                          RUA AGUA DOCE                                     258       APTO 207                                          VILA DA PENHA            RIO DE JANEIRO         RJ21220560                                                                                                                                                                                                                                                                                        00000000                                                                         2019101720520426        PARCELAMENTO DE FATURA PARA O CONTRATO:0004152740499950003 - PROPOSTAS SEM SEGURO:- PROPOSTAS COM SEGURO:                                                                                                                                                      MC057541682I  20120808078     000000000000000000        00000000R21965654799         965654799           965654799           INDIARASILVEIRA92@GMAIL.COM                                 
10120241224133      28858257820                   128858257820   JUCILENE ANDRE GALINDO                       19630808MARIA DO CARMO ANDRE                         X                                                                                                                                                                                                            00000000                                                                                                                        MARIA DO CARMO ANDRE                         BELA VISTA                                        00016                                                       VILA ROSEIRA II          SAO PAULO              SP084660801125527102                                                                                                                                                                                                                                                                              000000001178278506          0                                                    2014121520520426                                                                                                                                                                                                                                                                       FO          SE20131015001     000000000000000000        00000000R11948039410         981360771           1360771             GE.NILSON.ANDRE@HOTMAIL.COM                                 
10120241224133      42611229791                   142611229791   ALUISIO GALDINO DA SILVA                     19520104ALSIRA SILVA DA CONCEICAO                                                                                                                                                                                                                                 00000000                                                                                                                                                                     RUA QUARTEIS                                      266       ACADEMIA                                          COMENDADOR SOARES        NOVA IGUACU            RJ262753202128810481                                                                                                                                                                                                                                                                              00000000                                                                         2022092120520426                                                                                                                                                                                                                                                                       MS            20210920        000000000000000000        00000000R21993385243         990442171           990442171           YURIGALDINO88@HOTMAIL.COM                                   
10120241224133      30972011811                   130972011811   LUCIMA TACIANA MARASATO                      19770423LUCIA BARBOSA MARASATO                                                                                                                                                                                                                                    00000000                                                                                                                        NAO INFORMADO                                R UVA NIAGARA                                     50        BL76 AP34B                                        MORADA DAS VINH          JUNDIAI                SP132146991145876653                                                                                NAO QUALIFICADOS AUXILIARES DE                                                                                                                                                                00000000                                                                         2019061720520426                                                                                                                                                                                                                                                                       FO291850467S  20180619042     000000000000000000        00000000R11989301759         973619374           973619374           LUMABORDI@HOTMAIL.COM                                       
10120241224133      29961120833                   129961120833   FERNANDA FALAVINHA                           19830726HILDA BALBINA FALAVINHA                                                                                                                                                                                                                                   00000000                                                                                                                                                                     PEDRO S NOGUEIRA                                  0000068                                                     VILA SANTA ROSA          JANDIRA                SP066043201147072524                                                                                                                                                                                                                                                                              00000000                                                                         2014073020520426                                                                                                                                                                                                                                                                       FC            20080825        000000000000000000        00000000R11982486188         982486188           11999594998         FFALAVINHA@YAHOO.COM                                        
10120241224Q33      16585869800                   1120746226                  COMERCIAL                     
10120241224Q33      28858257820                   1125527201                  RESIDENCIAL                   
10120241224Q33      28858257820                   1178278506          0       COMERCIAL                     
10120241224Q33      29449549893                   987356876                   OUTROS                        
10120241224Q33      29695492800                   989598156                   OUTROS                        
10120241224Q33      29961120833                   11999594998                 OUTROS                        
10120241224Q33      30253753880                   1194896163                  COMERCIAL                     
10120241224Q33      30253753880                   992033743                   OUTROS                        
10120241224Q33      30781517869                   999538913                   OUTROS                        
10120241224Q33      30972011811                   1145876653          0       RESIDENCIAL                   
10120241224Q33      30972011811                   11973619374         0       CELULAR                       
10120241224Q33      31009829831                   1130181961                  RESIDENCIAL                   
10120241224Q33      31009829831                   1430103955                  COMERCIAL                     
10120241224Q33      33977846892                   1141496301                  OUTROS                        
10120241224Q33      33977846892                   11958702563         0       CELULAR                       
10120241224Q33      38226387817                   962283968                   OUTROS                        
10120241224Q33      49391925120                   62984922008                 CELULAR                       
10120241224Q33      67076483653                   31998536929                 CELULAR                       
10120241224Q33      83941770349                   85982211005                 CELULAR                       
10120241224Q33      16585869800                   1129035413                  RESIDENCIAL                   
10120241224Q33      28858257820                   977547495                   OUTROS                        
10120241224Q33      28858257820                   981360771                   OUTROS                        
10120241224Q33      29449549893                   1141382039                  RESIDENCIAL                   
10120241224Q33      29695492800                   11993734394                 CELULAR                       
10120241224Q33      29961120833                   982486188                   OUTROS                        
10120241224Q33      29975819826                   11951452548         0       CELULAR                       
10120241224Q33      30253753880                   1143761712                  RESIDENCIAL                   
10120241224Q33      30253753880                   963254664                   OUTROS                        
10120241224Q33      30781517869                   11970170282                 OUTROS                        
10120241224Q33      31009829831                   1432377440                  RESIDENCIAL                   
10120241224Q33      31009829831                   991755654                   CELULAR                       
10120241224Q33      32584887894                   999741885                   OUTROS                        
10120241224Q33      33977846892                   11974837549                 CELULAR                       
10120241224Q33      33977846892                   35866210                    REFERENCIA                    
10120241224Q33      33977846892                   64996063058                 OUTROS                        
10120241224Q33      33977846892                   84991617846                 RESIDENCIAL                   
10120241224Q33      33977846892                   958702563                   OUTROS                        
10120241224Q33      42611229791                   21976191747                 CELULAR                       
10120241224Q33      42611229791                   21991564761                 CELULAR                       
10120241224Q33      46122311553                   11993209530                 OUTROS                        
10120241224Q33      49391925120                   6235755098                  RESIDENCIAL                   
10120241224Q33      80477178120                   999619435                   OUTROS                        
10120241224Q33      16585869800                   11973759872                 CELULAR                       
10120241224Q33      28858257820                   1125527102                  RESIDENCIAL                   
10120241224Q33      28858257820                   11948039410                 CELULAR                       
10120241224Q33      29695492800                   11960135822                 CELULAR                       
10120241224Q33      29975819826                   1147526924                  RESIDENCIAL                   
10120241224Q33      30972011811                   973619374                   OUTROS                        
10120241224Q33      31009829831                   991949253                   OUTROS                        
10120241224Q33      33152850808                   1634160581                  RESIDENCIAL                   
10120241224Q33      33977846892                   8432713278                  COMERCIAL                     
10120241224Q33      42611229791                   2131039277                  RESIDENCIAL                   
10120241224Q33      49391925120                   35755098                    OUTROS                        
10120241224Q33      67076483653                   3125359270                  RESIDENCIAL                   
10120241224Q33      69798567404                   987463408                   CELULAR                       
10120241224Q33      71902830725                   21965654799                 CELULAR                       
10120241224Q33      83941770349                   985495629                   OUTROS                        
10120241224Q33      28858257820                   1360771                     OUTROS                        
10120241224Q33      29449549893                   11985537877                 CELULAR                       
10120241224Q33      29449549893                   41382039                    OUTROS                        
10120241224Q33      29546271829                   11992937416                 CELULAR                       
10120241224Q33      30972011811                   11968609507                 CELULAR                       
10120241224Q33      31009829831                   1132342445                  RESIDENCIAL                   
10120241224Q33      31009829831                   988367710                   OUTROS                        
10120241224Q33      32317325819                   977323700                   OUTROS                        
10120241224Q33      42611229791                   21993385243                 CELULAR                       
10120241224Q33      46122311553                   11965399369         0       CELULAR                       
10120241224Q33      49391925120                   62981469593                 CELULAR                       
10120241224Q33      49391925120                   984922008                   OUTROS                        
10120241224Q33      67076483653                   31995519649                 OUTROS                        
10120241224Q33      69798567404                   987357370                   CELULAR                       
10120241224Q33      69798567404                   999365673                   CELULAR                       
10120241224Q33      83941770349                   85989716261                 CELULAR                       
10120241224Q33      16585869800                   969067938                   OUTROS                        
10120241224Q33      30253753880                   994896163                   OUTROS                        
10120241224Q33      30781517869                   1199538913                  RESIDENCIAL                   
10120241224Q33      30781517869                   11995389133                 CELULAR                       
10120241224Q33      32317325819                   11977323700                 CELULAR                       
10120241224Q33      32584887894                   1144864533                  OUTROS                        
10120241224Q33      32584887894                   11941577113                 CELULAR                       
10120241224Q33      33152850808                   16988147398                 CELULAR                       
10120241224Q33      33152850808                   988232421                   OUTROS                        
10120241224Q33      33977846892                   11989833366                 CELULAR                       
10120241224Q33      34031781881                   11992581807                 CELULAR                       
10120241224Q33      34031781881                   995058760                   OUTROS                        
10120241224Q33      38226387817                   11989276355                 CELULAR                       
10120241224Q33      42611229791                   2128810481                  RESIDENCIAL                   
10120241224Q33      49385836404                   982701509                   OUTROS                        
10120241224Q33      67076483653                   3125202383                  OUTROS                        
10120241224Q33      69798567404                   81987463408         0       CELULAR                       
10120241224Q33      80477178120                   991987331                   OUTROS                        
10120241224Q33      29546271829                   992937416                   OUTROS                        
10120241224Q33      31009829831                   1130103955                  RESIDENCIAL                   
10120241224Q33      31009829831                   11988086983                 CELULAR                       
10120241224Q33      31009829831                   11991174063                 CELULAR                       
10120241224Q33      32317325819                   11948538181                 CELULAR                       
10120241224Q33      32584887894                   11999741885                 CELULAR                       
10120241224Q33      32584887894                   998270288                   OUTROS                        
10120241224Q33      33977846892                   967878921                   OUTROS                        
10120241224Q33      34031781881                   996165210                   OUTROS                        
10120241224Q33      46122311553                   993209530                   OUTROS                        
10120241224Q33      67076483653                   3133123052                  RESIDENCIAL                   
10120241224Q33      67076483653                   999706849                   OUTROS                        
10120241224Q33      71902830725                   965654799                   OUTROS                        
10120241224Q33      28858257820                   11947111693                 CELULAR                       
10120241224Q33      28858257820                   78278506                    OUTROS                        
10120241224Q33      29449549893                   11959913987                 CELULAR                       
10120241224Q33      29546271829                   11974459381                 CELULAR                       
10120241224Q33      29695492800                   11970812592                 CELULAR                       
10120241224Q33      29961120833                   1147072524                  RESIDENCIAL                   
10120241224Q33      29975819826                   964288736                   OUTROS                        
10120241224Q33      31009829831                   14988269515                 CELULAR                       
10120241224Q33      31009829831                   991633228                   OUTROS                        
10120241224Q33      33977846892                   84991297128                 CELULAR                       
10120241224Q33      42611229791                   990442171                   OUTROS                        
10120241224Q33      46122311553                   1156259907          0       RESIDENCIAL                   
10120241224Q33      67076483653                   31999706849                 CELULAR                       
10120241224Q33      67076483653                   998536929                   OUTROS                        
10120241224Q33      69798567404                   39787606                    RESIDENCIAL                   
10120241224Q33      69798567404                   983246993                   OUTROS                        
10120241224Q33      69798567404                   984697395                   CELULAR                       
10120241224Q33      69798567404                   987060636                   CELULAR                       
10120241224Q33      80477178120                   991298008                   CELULAR                       
10120241224Q33      83941770349                   85981521107                 CELULAR                       
10120241224Q33      16585869800                   1132774445                  RESIDENCIAL                   
10120241224Q33      28858257820                   11947241535                 CELULAR                       
10120241224Q33      28858257820                   25527102                    OUTROS                        
10120241224Q33      29449549893                   11949480296                 CELULAR                       
10120241224Q33      29546271829                   1148209397                  RESIDENCIAL                   
10120241224Q33      29961120833                   11982486188                 CELULAR                       
10120241224Q33      30972011811                   11989301759                 CELULAR                       
10120241224Q33      31009829831                   991631712                   OUTROS                        
10120241224Q33      33977846892                   11967878921                 OUTROS                        
10120241224Q33      34031781881                   11946165455                 CELULAR                       
10120241224Q33      38226387817                   965501751                   OUTROS                        
10120241224Q33      38226387817                   989276355                   OUTROS                        
10120241224Q33      42611229791                   21990442171                 CELULAR                       
10120241224Q33      46122311553                   11956251588                 CELULAR                       
10120241224Q33      46122311553                   25846814                    OUTROS                        
10120241224Q33      49385836404                   1146697951                  RESIDENCIAL                   
10120241224Q33      67076483653                   3198536929                  COMERCIAL                     
10120241224Q33      69798567404                   8134442058                  OUTROS                        
10120241224233      29546271829                   000020000004152740871107008                                                                00002000                                             00000000PORTO SEGURO                                 000000000048662100000000000030000000201705250000000000001NUMERO DO CARTAO DO TITULAR - FINAL 7123                                                                                                                                                                                                                                                                                                                                                                                                                                                                                                                                                                    000000000000000000                                                                                                 
10120241224233      49385836404                   000010000004121770339398004                                                                00001000                                             00000000                                             000000000000362300000000000007000000200908140000000000001NUMERO DO CARTAO DO TITULAR - FINAL 8186                                                                                                                                                                                                                                                                                                                                                                                                                                                                                                                                                                    000000000000000000                                                                                                 
10120241224233      31009829831                   002010000005363800262709002                                                                00201000                                             00000000                                             000000000000018300000000000007000000201611110000000000001NUMERO DO CARTAO DO TITULAR - FINAL 9119                                                                                                                                                                                                                                                                                                                                                                                                                                                                                                                                                                    000000000000000000                                                                                                 
10120241224233      32584887894                   000010000004121771605387002                                                                00001000                                             00000000                                             000000000051725200000000000029000000201712130000000000001NUMERO DO CARTAO DO TITULAR - FINAL 7119                                                                                                                                                                                                                                                                                                                                                                                                                                                                                                                                                                    000000000000000000                                                                                                 
10120241224233      30253753880                   000010000004121770888210006                                                                00001000                                             00000000                                             000000000018460200000000000078000000201209130000000000001NUMERO DO CARTAO DO TITULAR - FINAL 0113                                                                                                                                                                                                                                                                                                                                                                                                                                                                                                                                                                    000000000000000000                                                                                                 
10120241224233      32317325819                   000010000004121771584146007                                                                00001000                                             00000000                                             000000000009180200000000000018000000201710270000000000001NUMERO DO CARTAO DO TITULAR - FINAL 6114                                                                                                                                                                                                                                                                                                                                                                                                                                                                                                                                                                    000000000000000000                                                                                                 
10120241224233      34031781881                   000010000004121773199130004                                                                00001000                                             00000001PORTO SEGURO                                 000000000003351000000000000013200000202107300000000000001NUMERO DO CARTAO DO TITULAR - FINAL 0111                                                                                                                                                                                                                                                                                                                                                                                                                                                                                                                                                                    000000000000000000                                                                                                 
10120241224233      46122311553                   000020000004152740833536005                                                                00002000                                             00000000                                             000000000020786000000000000030000000201701240000000000001NUMERO DO CARTAO DO TITULAR - FINAL 6112                                                                                                                                                                                                                                                                                                                                                                                                                                                                                                                                                                    000000000000000000                                                                                                 
10120241224233      30972011811                   000020000004152741032770007                                                                00002000                                             00000000PORTO SEGURO                                 000000000087556100000000000033000000201806150000000000001NUMERO DO CARTAO DO TITULAR - FINAL 0114                                                                                                                                                                                                                                                                                                                                                                                                                                                                                                                                                                    000000000000000000                                                                                                 
10120241224233      71902830725                   000020000004152740499950003                                                                00002000                                             00000000PORTO SEGURO                                 000000000493052500000000000134000000201208070000000000001NUMERO DO CARTAO DO TITULAR - FINAL 0144                                                                                                                                                                                                                                                                                                                                                                                                                                                                                                                                                                    000000000000000000                                                                                                 
10120241224233      80477178120                   000010000004121772111352001                                                                00001000                                             00000000PORTO SEGURO                                 000000000027747900000000000014000000201912060000000000001NUMERO DO CARTAO DO TITULAR - FINAL 2118                                                                                                                                                                                                                                                                                                                                                                                                                                                                                                                                                                    000000000000000000                                                                                                 
10120241224233      28858257820                   000010000004121770820058000                                                                00001000                                             00000000                                             000000000000000000000000000000000000201203020000000000001NUMERO DO CARTAO DO TITULAR - FINAL 8117                                                                                                                                                                                                                                                                                                                                                                                                                                                                                                                                                                    000000000000000000                                                                                                 
10120241224233      29449549893                   000010000004121770958532008                                                                00001000                                             00000000                                             000000000000000000000000000000000000201302050000000000001NUMERO DO CARTAO DO TITULAR - FINAL 2115                                                                                                                                                                                                                                                                                                                                                                                                                                                                                                                                                                    000000000000000000                                                                                                 
10120241224233      38226387817                   000020000004152740484135008                                                                00002000                                             00000000                                             000000000000000000000000000000000000201206120000000000001NUMERO DO CARTAO DO TITULAR - FINAL 5115                                                                                                                                                                                                                                                                                                                                                                                                                                                                                                                                                                    000000000000000000                                                                                                 
10120241224233      29695492800                   000020000004152741100726006                                                                00002000                                             00000000PORTO SEGURO                                 000000000044455500000000000046000000201902120000000000001NUMERO DO CARTAO DO TITULAR - FINAL 6113                                                                                                                                                                                                                                                                                                                                                                                                                                                                                                                                                                    000000000000000000                                                                                                 
10120241224233      33152850808                   000010000004121773819563006                                                                00001000                                             00000001PORTO SEGURO                                 000000000008991100000000000003000000202206080000000000001NUMERO DO CARTAO DO TITULAR - FINAL 3113                                                                                                                                                                                                                                                                                                                                                                                                                                                                                                                                                                    000000000000000000                                                                                                 
10120241224233      33977846892                   000020000004152740015630006                                                                00002000                                             00000000                                             000000000000000000000000000000000000200807080000000000001NUMERO DO CARTAO DO TITULAR - FINAL 0113                                                                                                                                                                                                                                                                                                                                                                                                                                                                                                                                                                    000000000000000000                                                                                                 
10120241224233      69798567404                   000010000004121771451206009                                                                00001000                                             00000000                                             000000000004169900000000000006500000201605170000000000001NUMERO DO CARTAO DO TITULAR - FINAL 6116                                                                                                                                                                                                                                                                                                                                                                                                                                                                                                                                                                    000000000000000000                                                                                                 
10120241224233      28858257820                   002020000005365370025935003                                                                00202000                                             00000000                                             000000000000699000000000000000000000201310120000000000001NUMERO DO CARTAO DO TITULAR - FINAL 5110                                                                                                                                                                                                                                                                                                                                                                                                                                                                                                                                                                    000000000000000000                                                                                                 
10120241224233      30781517869                   000020000004152740852101004                                                                00002000                                             00000000                                             000000000000022800000000000042000000201703240000000000001NUMERO DO CARTAO DO TITULAR - FINAL 1111                                                                                                                                                                                                                                                                                                                                                                                                                                                                                                                                                                    000000000000000000                                                                                                 
10120241224233      49391925120                   000030000004152750132115005                                                                00003000                                             00000000                                             000000000079983200000000000042000000201205110000000000001NUMERO DO CARTAO DO TITULAR - FINAL 5112                                                                                                                                                                                                                                                                                                                                                                                                                                                                                                                                                                    000000000000000000                                                                                                 
10120241224233      83941770349                   000010000004121771508842004                                                                00001000                                             00000000                                             000000000017146100000000000027000000201704050000000000001NUMERO DO CARTAO DO TITULAR - FINAL 2111                                                                                                                                                                                                                                                                                                                                                                                                                                                                                                                                                                    000000000000000000                                                                                                 
10120241224233      16585869800                   000020000004152740061208004                                                                00002000                                             00000000                                             000000000000000000000000000000000000200810020000000000001NUMERO DO CARTAO DO TITULAR - FINAL 8129                                                                                                                                                                                                                                                                                                                                                                                                                                                                                                                                                                    000000000000000000                                                                                                 
10120241224233      29961120833                   000020000004152740038133004                                                                00002000                                             00000000                                             000000000000000000000000000000000000200808210000000000001NUMERO DO CARTAO DO TITULAR - FINAL 3111                                                                                                                                                                                                                                                                                                                                                                                                                                                                                                                                                                    000000000000000000                                                                                                 
10120241224233      29975819826                   000010000004121772835647009                                                                00001000                                             00000001PORTO SEGURO                                 000000000007450800000000000010800000202107060000000000001NUMERO DO CARTAO DO TITULAR - FINAL 9133                                                                                                                                                                                                                                                                                                                                                                                                                                                                                                                                                                    000000000000000000                                                                                                 
10120241224233      67076483653                   002020000005365370045136004                                                                00202000                                             00000000                                             000000000044302400000000000060000000201406100000000000001NUMERO DO CARTAO DO TITULAR - FINAL 6111                                                                                                                                                                                                                                                                                                                                                                                                                                                                                                                                                                    000000000000000000                                                                                                 
10120241224233      42611229791                   000010000004121773376982003                                                                00001000                                             00000001PORTO SEGURO                                 000000000006418000000000000006000000202109200000000000001NUMERO DO CARTAO DO TITULAR - FINAL 2110                                                                                                                                                                                                                                                                                                                                                                                                                                                                                                                                                                    000000000000000000                                                                                                 
10120241224333      16585869800                   000020000004152740061208004           200812180000000120150806        000000000010429200000000000000000000000000000000000000000000000031287600000000000000000000   000   1                             20081218                      
10120241224333      28858257820                   000010000004121770820058000           201411170000000120150805        000000000052623000000000000000000000000000000000000000000000000052623000000000000000000000   000   1                             20141117                      
10120241224333      28858257820                   002020000005365370025935003           201412150000000120150803        000000000068581600000000000000000000000000000000000000000000000068581600000000000000000000   000   1                             20141215                      
10120241224333      29449549893                   000010000004121770958532008           201406230000000120150811        000000000043246800000000000000000000000000000000000000000000000043246800000000000000000000   000   1                             20140623                      
10120241224333      29546271829                   000020000004152740871107008           201908250000000120191013        000000000065707900000000000000000000000000000000000000000000000065707900000000000000000000   000   1                             20190825                      
10120241224333      29695492800                   000020000004152741100726006           201907150000000120190904        000000000052654700000000000000000000000000000000000000000000000052654700000000000000000000   000   1                             20190715                      
10120241224333      29961120833                   000020000004152740038133004           201305100000000120150724        000000000035217600000000000000000000000000000000000000000000000035217600000000000000000000   000   1                             20130510                      
10120241224333      29975819826                   000010000004121772835647009           202208100000000120220928        000000000015190100000000000000000000000000000000000000000000000015190100000000000000000000   000   1                             20220810                      
10120241224333      30253753880                   000010000004121770888210006           201608110000000120160927        000000000157831200000000000000000000000000000000000000000000000157831200000000000000000000   000   1                             20160811                      
10120241224333      30781517869                   000020000004152740852101004           201901250000000120190313        000000000001495600000000000000000000000000000000000000000000000001495600000000000000000000   000   1                             20190125                      
10120241224333      30972011811                   000020000004152741032770007           2019061500000001                000000000095093700000000000000000000000000000000000000000000000000000000000000000000000000   001   1                             20190615                      
10120241224333      31009829831                   002010000005363800262709002           201705210000000120170709        000000000010211900000000000000000000000000000000000000000000000010211900000000000000000000   000   1                             20170521                      
10120241224333      32317325819                   000010000004121771584146007           201802110000000120180327        000000000022313800000000000000000000000000000000000000000000000022313800000000000000000000   000   1                             20180211                      
10120241224333      32584887894                   000010000004121771605387002           201809230000000120181108        000000000057228700000000000000000000000000000000000000000000000057228700000000000000000000   000   1                             20180923                      
10120241224333      33152850808                   000010000004121773819563006           202208110000000120221003        000000000012122800000000000000000000000000000000000000000000000012122800000000000000000000   000   1                             20220811                      
10120241224333      33977846892                   000020000004152740015630006           200903300000000120150715        000000000038229200000000000000000000000000000000000000000000000038229200000000000000000000   000   1                             20090330                      
10120241224333      34031781881                   000010000004121773199130004           202209250000000120221115        000000000019456300000000000000000000000000000000000000000000000019456300000000000000000000   000   1                             20220925                      
10120241224333      38226387817                   000020000004152740484135008           201502130000000120150728        000000000207506900000000000000000000000000000000000000000000000207506900000000000000000000   000   1                             20150213                      
10120241224333      42611229791                   000010000004121773376982003           202209200000000120221110        000000000007604200000000000000000000000000000000000000000000000007604200000000000000000000   000   1                             20220920                      
10120241224333      46122311553                   000020000004152740833536005           201709230000000120170923        000000000032102700000000000000000000000000000000000000000000000032102700000000000000000000   000   1                             20170923                      
10120241224333      49385836404                   000010000004121770339398004           201906140000000120190804        000000000010502800000000000000000000000000000000000000000000000010502800000000000000000000   000   1                             20190614                      
10120241224333      49391925120                   000030000004152750132115005           201608160000000120161004        000000000103028400000000000000000000000000000000000000000000000103028400000000000000000000   000   1                             20160816                      
10120241224333      67076483653                   002020000005365370045136004           201711090000000120171226        000000000068729500000000000000000000000000000000000000000000000068729500000000000000000000   000   1                             20171109                      
10120241224333      69798567404                   000010000004121771451206009           201701250000000120170312        000000000007682300000000000000000000000000000000000000000000000007682300000000000000000000   000   1                             20170125                      
10120241224333      71902830725                   000020000004152740499950003           201910160000000120191205        000000000391389000000000000000000000000000000000000000000000000391389000000000000000000000   000   1                             20191016                      
10120241224333      80477178120                   000010000004121772111352001           202001050000000120200218        000000000010457600000000000000000000000000000000000000000000000013071900000000000000000000   000   1                             20200105                      
10120241224333      83941770349                   000010000004121771508842004           201908050000000120190922        000000000031852600000000000000000000000000000000000000000000000031852600000000000000000000   000   1                             20190805                      
10120241224533      29633094810                   20241223082334ACORDO  /AG 03/01/2025 08:23  PG 24/12/2024 08:23 (ACORDO:05017089) QTDE DE PARCELAS: 1 + 0. VALOR DA ENTRADA: 142,48. DATA DA ENTRADA: 24/12/2024. PRESTAES ENVOLVIDAS NO ACORDO: 001 DO CONTRATO 0004121770348075007. DESCONTO: 225.239,27.                        
10120241224533      32404043897                   20241223224735EMISBOL EMISSO DE BOLETO ATRAVS DE API (1 VIA) PARA O RECEBIMENTO 49895550. VENCIMENTO: 30/12/2024 VALOR: 66,62  PARCELA: 001/006 ACORDO: 05020000                                                                                                                  
10120241224533      37820269855                   20241223184154EMISBOL EMISSO DE BOLETO ATRAVS DE API (1 VIA) PARA O RECEBIMENTO 49893486. VENCIMENTO: 30/12/2024 VALOR: 66,87  PARCELA: 001/001 ACORDO: 05019770                                                                                                                  
10120241224533      32404043897                   20241223230822EMISBOL EMISSO LOCAL DE BOLETO (2 VIA) PARA O RECEBIMENTO 49895550. VENCIMENTO: 30/12/2024 VALOR: 66,62  PARCELA: 001/006 ACORDO: 05020000                                                                                                                           
10120241224533      32404043897                   20241223230817EMISBOL EMISSO DE BOLETO ATRAVS DE API (2 VIA) PARA O RECEBIMENTO 49895550. VENCIMENTO: 30/12/2024 VALOR: 66,62  PARCELA: 001/006 ACORDO: 05020000                                                                                                                  
10120241224533      37820269855                   20241223184205EMISBOL EMISSO LOCAL DE BOLETO (2 VIA) PARA O RECEBIMENTO 49893486. VENCIMENTO: 30/12/2024 VALOR: 66,87  PARCELA: 001/001 ACORDO: 05019770                                                                                                                           
10120241224533      29226525803                   20241223094049ACORDO  /AG 06/01/2025 09:40  PG 27/12/2024 09:40 (ACORDO:05017517) QTDE DE PARCELAS: 1 + 0. VALOR DA ENTRADA: 640,48. DATA DA ENTRADA: 27/12/2024. PRESTAES ENVOLVIDAS NO ACORDO: 001 DO CONTRATO 0004121770563457005. DESCONTO: 302.354,74.                        
10120241224533      32404043897                   20241223224730ACORDO  /AG 09/01/2025 22:47  PG 30/12/2024 22:47 (ACORDO:05020000) QTDE DE PARCELAS: 1 + 5. VALOR DA ENTRADA: 66,62. DATA DA ENTRADA: 30/12/2024. VALOR DAS DEMAIS PARCELAS: 66,62. PRESTAES ENVOLVIDAS NO ACORDO: 001 DO CONTRATO 0004121773315198000. DESCONTO: 1.
10120241224533      37820269855                   20241223184150ACORDO  /AG 09/01/2025 18:41  PG 30/12/2024 18:41 (ACORDO:05019770) QTDE DE PARCELAS: 1 + 0. VALOR DA ENTRADA: 66,87. DATA DA ENTRADA: 30/12/2024. PRESTAES ENVOLVIDAS NO ACORDO: 001 DO CONTRATO 0004121770080086006. DESCONTO: 158.777,49.                         
10120241224B33      16585869800                   000020000004152740061208004           % LIM PA00000000            12                              
10120241224B33      16585869800                   000020000004152740061208004           % LIM RO00000000            12                              
10120241224B33      16585869800                   000020000004152740061208004           BHV SCOR0000000000000000060012                              
10120241224B33      16585869800                   000020000004152740061208004           BLOQ1   BRANCO              12                              
10120241224B33      16585869800                   000020000004152740061208004           BLOQ2   K                   12                              
10120241224B33      16585869800                   000020000004152740061208004           CESSCARTS                   12                              
10120241224B33      16585869800                   000020000004152740061208004           CESSEFET12/12/2022          12                              
10120241224B33      16585869800                   000020000004152740061208004           CRD SCOR0000000000          12                              
10120241224B33      16585869800                   000020000004152740061208004           CS_AMIG 0                   12                              
10120241224B33      16585869800                   000020000004152740061208004           DESF    0                   12                              
10120241224B33      16585869800                   000020000004152740061208004           DIG CPF 69                  12                              
10120241224B33      16585869800                   000020000004152740061208004           DT IN RE18122008            12                              
10120241224B33      16585869800                   000020000004152740061208004           DT INIB 22/01/2009          12                              
10120241224B33      16585869800                   000020000004152740061208004           DTA CONC06/10/2008          12                              
10120241224B33      16585869800                   000020000004152740061208004           DTVENCTO1812                12                              
10120241224B33      16585869800                   000020000004152740061208004           FASE    I                   12                              
10120241224B33      16585869800                   000020000004152740061208004           FLAG TARBRANCO              12                              
10120241224B33      16585869800                   000020000004152740061208004           FPD     NAO                 12                              
10120241224B33      16585869800                   000020000004152740061208004           GR PRODU00002000            12                              
10120241224B33      16585869800                   000020000004152740061208004           MDA     2428                12                              
10120241224B33      16585869800                   000020000004152740061208004           NAT OCUP13                  12                              
10120241224B33      16585869800                   000020000004152740061208004           PCTCONTA001                 12                              
10120241224B33      16585869800                   000020000004152740061208004           PROMO   P3                  12                              
10120241224B33      16585869800                   000020000004152740061208004           QT SAQUE001                 12                              
10120241224B33      16585869800                   000020000004152740061208004           QTACORDO1                   12                              
10120241224B33      16585869800                   000020000004152740061208004           QT_QUEBR2                   12                              
10120241224B33      16585869800                   000020000004152740061208004           RDGCPF6786                  12                              
10120241224B33      16585869800                   000020000004152740061208004           RENDA   0,00                12                              
10120241224B33      16585869800                   000020000004152740061208004           RIS ESTA0003                12                              
10120241224B33      16585869800                   000020000004152740061208004           SALDO_PL1195                12                              
10120241224B33      16585869800                   000020000004152740061208004           SDTOTCTA3129                12                              
10120241224B33      16585869800                   000020000004152740061208004           SLD_BAND1363                12                              
10120241224B33      16585869800                   000020000004152740061208004           SLD_DCAP0                   12                              
10120241224B33      16585869800                   000020000004152740061208004           SLD_MASS0                   12                              
10120241224B33      16585869800                   000020000004152740061208004           SLD_OUTR571                 12                              
10120241224B33      16585869800                   000020000004152740061208004           SLD_PARC0                   12                              
10120241224B33      16585869800                   000020000004152740061208004           STA INIB7                   12                              
10120241224B33      16585869800                   000020000004152740061208004           TBNEGOC 214                 12                              
10120241224B33      16585869800                   000020000004152740061208004           TRN_INIBS                   12                              
10120241224B33      16585869800                                                         CL_SCORE4                   11                              
10120241224B33      16585869800                                                         DISTRI_XX                   11                              
10120241224B33      16585869800                                                         FASECLI L                   11                              
10120241224B33      16585869800                                                         RDG_CPF 86                  11                              
10120241224B33      16585869800                                                         RISC TOT3128,76             11                              
10120241224B33      16585869800                                                         SALD TOT3128,76             11                              
10120241224B33      16585869800                                                         VALR MIN3128,76             11                              
