001202412122024121200000106
1012024121215       032440002015                  192145400397   JOHNOSLEY CARDOSO DA SILVA                   19820219                                                                                                                                                                                                                                                                                                                                                                                                                                       R LOCALIDADE ALMESSEGAS                           SN                                                          ZONA RURAL               PAU D ARCO DO PIAUI    PI64295000                    N A                                                                   OUTRAS                        R LOCALIDADE ALMESSEGAS                                   SN                                                  ZONA RURAL               PAU D ARCO DO PIAUI    PI642950001140045215                  NPE                                          2022110520520428                                                                                                                                                                                                                                                                       MS2125334                     000000000000000000        00000000R999515119           995859083           995118360           ERISVANIA1213@GMAIL.COM                                     
1012024121215       037680000248                  115458730895   KATIA APARECIDA MALPICA                      19740125                                                                                                                                                                                                                                                                                                                                                                                                                                       R RIO GRANDE DO NORTE                             113       CASA B                                            JARDIM ENGENHO           MONTE MOR              SP13196014                                                                                          GERENTE - TODAS               R RIO GRANDE DO NORTE                                    113                                                  JARDIM ENGENHO           MONTE MOR              SP13196014                            NPE                                          2023090620520426                                                                                                                                                                                                                                                                       FS23316002                    000000000000000000        00000000R                    996470586           996050927           KATIAMALPICA25@GMAIL.COM                                    
1012024121215       032080000013                  157947490163   JACO MOREIRA DOS SANTOS                      19640824                                                                                                                                                                                                                                                                                                                                                                                                                                       AV QUADRA                                         10        QD 133                                            JARDIM LAGO AZUL         NOVO GAMA              GO72865133                                                                                          OUTRAS                        AV QUADRA                                              QD 13CASA 10                                           JARDIM LAGO AZUL         NOVO GAMA              GO72865133                            NPE                                          2023051820520319                                                                                                                                                                                                                                                                       MS1437865                     000000000000000000        00000000R61992514816         992971087           6134887227          LILIADEALMEIDASANTOSGOVEIA@GMAIL.COM                        
1012024121215       037530000081                  138883777816   VICTOR HUGO DE OLIVEIRA CONSTANTE            19960502                                                                                                                                                                                                                                                                                                                                                                                                                                       R LAURINALDO MENDES                               7                                                           JARDIM DABRIL            OSASCO                 SP06038280                                                                                          EMPRESARIO                    R LAURINALDO MENDES                                        7                                                  JARDIM DABRIL            OSASCO                 SP060382801136097489                  NPE                                          2023020820520428                                                                                                                                                                                                                                                                       MS50463213                    000000000000000000        00000000R11982358146         982358146           36097489            VICTOR.OLIVVEIRA02@GMAIL.COM                                
1012024121215       023620042937                  102969209160   WELVISMAR BRITO DE OLIVEIRA                  19910509                                                                                                                                                                                                                                                                                                                                                                                                                                       RUA BENTO GONCALVES                               953                                                         PORTO ALEGRE             SORRISO                MT78894365                                                                                          EMPRESARIO                    RUA BENTO GONCALVES                                      953                                                  PORTO ALEGRE             SORRISO                MT78894365                            NPE                                          2024051720520428                                                                                                                                                                                                                                                                       MS                            000000000000000000        00000000R66997254868         997254868           997254868           WELVISBRITO@GMAIL.COM                                       
1012024121215       029010001981                  100520230876   SILVANA APARECIDA PAPINI                     19561201                                                                                                                                                                                                                                                                                                                                                                                                                                       R RIO GRANDE DO SUL                               775                                                         VL IPIRANGA              SAO JOSE DO RIO PRETO  SP15055110                                                                                          PROFESSOR                                                                                                                                                                                                                         NPE                                          2023091920520428                                                                                                                                                                                                                                                                       FONT. 117729                  000000000000000000        00000000R17988112019         988112019           988112019           SILVANAPAPINI@HOTMAIL.COM                                   
1012024121215       049240000969                  132175981215   VIRNA LANE SOUTO PEREIRA LINS                19690719                                                                                                                                                                                                                                                                                                                                                                                                                                       AV MARIO YPIRANGA                                 2090                                                        ADRIANOPOLIS             MANAUS                 AM69057002                                                                                          OUTRAS                        AV MARIO YPIRANGA                                       2090                                                  ADRIANOPOLIS             MANAUS                 AM69057002                            NPE                                          2024070820520428                                                                                                                                                                                                                                                                       FS                            000000000000000000        00000000R                    981834779           981834779           SERGIOMLINS@HOTMAIL.COM                                     
1012024121215       032020016585                  197835595320   CAIO GUIMARAES GIRAO PIRES CHASTINET         19920919                                                                                                                                                                                                                                                                                                                                                                                                                                       R DOUTOR GILBERTO STUDART                         1020      AP 202                                            COCO                     FORTALEZA              CE60192095                                                                                          OUTRAS                        R DOUTOR GILBERTO STUDART                               1020AP 202                                            COCO                     FORTALEZA              CE60192095                            NPE                                          2023041120520428                                                                                                                                                                                                                                                                       MS9783559532                  000000000000000000        00000000R                    997992222           37992222            GIRAOIMOVEIS@BOL.COM.BR                                     
1012024121215       050200003349                  102810005494   WELLINGTON JOSE SANTANA DA SILVA             19781125                                                                                                                                                                                                                                                                                                                                                                                                                                       RUA TODOS OS SANTOS                               105       CASA                                              NOVA DESCOBERTA          ESCADA                 PE55500000                    NAO INFORMADO                                                         OUTRAS                        RUA TODOS OS SANTOS                                      105CASA                                              NOVA DESCOBERTA          ESCADA                 PE555000008135344363                  NPE                                          2022122620520319                                                                                                                                                                                                                                                                       MS0626147020                  000000000000000000        00000000R994028591           22551000            22551000            CARLOSESCADA@HOTMAIL.COM                                    
1012024121215       034960007095                  155072330397   MOISES DE FATIMA COSTA MUNIZ                 19730619                                                                                                                                                                                                                                                                                                                                                                                                                                       R NOVA GUAIANAZES                                 265                                                         GUAIANAZES               SAO PAULO              SP08473001                                                                                          OUTRAS                        R NOVA GUAIANAZES                                        265                                                  GUAIANAZES               SAO PAULO              SP08473001                            NPE                                          2024010920520428                                                                                                                                                                                                                                                                       MS37163311                    000000000000000000        00000000R11959069040         959069040           959069040           MFCMUNIZ1973@YAHOO.COM.BR                                   
1012024121215       023620033205                  122396957813   FLAVIA APARECIDA CARDOSO NAGANO              19820211                                                                                                                                                                                                                                                                                                                                                                                                                                       R MARIA LUNARDI GAGGIOLI                          222       CASA                                              JARDIM SAO PEDRO         MOGI DAS CRUZES        SP08830070                                                                                          EMPRESARIO                    R MARIA LUNARDI GAGGIOLI                                  SN                                                  JARDIM SAO PEDRO         MOGI DAS CRUZES        SP08830070                            NPE                                          2022110820520428                                                                                                                                                                                                                                                                       FS45301681                    000000000000000000        00000000R11974018066         978900224           974018066           FERNANDOTNK@GMAIL.COM                                       
1012024121215       038720004782                  148266710597   ANTONIO MIGUEL MIRANDA                       19570929                                                                                                                                                                                                                                                                                                                                                                                                                                       RUA DANIEL RICARDO DOS PASSOS                     56                                                          CENTRO                   VALENCA                BA45400000                                                                                                                        PRACA REPUBLICA                                           SNDANIEL RICARDO                                    CENTRO                   VALENCA                BA45400000                            NPE                                          2024070420520428                                                                                                                                                                                                                                                                       MO0301602000                  000000000000000000        00000000R                    988813706           988813706           ROMILSONSANTOS337@GMAIL.COM                                 
1012024121215       034430002378                  132670102840   RAFAEL RODRIGUES TEIXEIRA                    19840310                                                                                                                                                                                                                                                                                                                                                                                                                                       RUA DESEMBARGADOR LAURO MALHEIRO                  40        APT44B                                            JARDIM PAULISTANO Z      SAO PAULO              SP02814150                                                                                          GERENTE - TODAS               R DESEMBARGADOR LAURO MALHEIRO                            40                                                  JARDIM PAULISTANO ZONA NOSAO PAULO              SP028141501140045215                  NPE                                          2022110520520428                                                                                                                                                                                                                                                                       MS44296898                    000000000000000000        00000000R11983698602         984620766           1129394411          JULIAVALNALIBA@GMAIL.COM                                    
1012024121215       211900027495                  112103595700   ADRIANO JARDIM ALVES                         19831110                                                                                                                                                                                                                                                                                                                                                                                                                                       FAZENDA BOA ESPERANCA                             SN        FAZENDA                                           SAO JOAO DO SOBRADO      PINHEIROS              ES29980000                    FAZENDA BOA ESPERANCA                                                 GERENTE - TODAS               FAZEND A BOA ESPERANCA                                     0FAZENDA                                           SAO JOAO DO SOBRADO      PINHEIROS              ES299800002737651501                  NPE                                          2022112120520319                                                                                                                                                                                                                                                                       MS0726309720                  000000000000000000        00000000R27999365779         999365779           37651501            APARECIDAALVES0247@GMAIL.COM                                
1012024121215       022750002326                  108027109728   CESAR AUGUSTO MARQUES                        19781029                                                                                                                                                                                                                                                                  2730663620                                                                                                                                                           R VITORIA                                         643                                                         PRQ JACARAIPE            SERRA                  ES29175508                                                                                                                        R VITORIA                                                643                                                  PRQ JACARAIPE            SERRA                  ES29175508                            NPE                                          2022110820520428                                                                                                                                                                                                                                                                       MS1487711                     000000000000000000        00000000R27997750331         997750331           954111232           FERNANDA_CARRILHO1@HOTMAIL.COM                              
1012024121215       025490006224                  103420442491   ALBERTO CARLOS RIBEIRO DOS SANTOS            19480424                                                                                                                                                                                                                                                                                                                                                                                                                                       R PRESIDENTE WASHINGTON LUIZ                      155       APTO 203                                          ENGENHO DO MEIO          RECIFE                 PE50730620                                                                                          APOSENTADO                                                                                                                                                                                                                        NPE                                          2022110520520319                                                                                                                                                                                                                                                                       MS685842                      000000000000000000        00000000R981081215           999721215           34530052            VALKIRENEANDRADE@GMAIL.COM                                  
10120241212Q5       022750002326                  11997750331                 CELULAR                       
10120241212Q5       023620042937                  997254868                   OUTROS                        
10120241212Q5       032080000013                  1140045215                  RECADO                        
10120241212Q5       032080000013                  61995944289                 OUTROS                        
10120241212Q5       032080000013                  63999876054                 OUTROS                        
10120241212Q5       032080000013                  992632465                   OUTROS                        
10120241212Q5       032440002015                  995859083                   OUTROS                        
10120241212Q5       032440002015                  999515119                   CELULAR                       
10120241212Q5       034960007095                  1140045215                  RECADO                        
10120241212Q5       037530000081                  11941755055                 CELULAR                       
10120241212Q5       037530000081                  982358146                   OUTROS                        
10120241212Q5       038720004782                  75983178836                 RECADO                        
10120241212Q5       038720004782                  988813706                   OUTROS                        
10120241212Q5       049240000969                  1140045215                  RECADO                        
10120241212Q5       050200003349                  8135344363                  COMERCIAL                     
10120241212Q5       023620033205                  974018066                   OUTROS                        
10120241212Q5       023620033205                  978900224                   OUTROS                        
10120241212Q5       023620042937                  66997254868                 CELULAR                       
10120241212Q5       032020016585                  997992222                   OUTROS                        
10120241212Q5       032080000013                  61994172176                 OUTROS                        
10120241212Q5       034430002378                  1140045215                  COMERCIAL                     
10120241212Q5       037530000081                  11982358146                 CELULAR                       
10120241212Q5       037680000248                  996470586                   OUTROS                        
10120241212Q5       050200003349                  940767676                   OUTROS                        
10120241212Q5       050200003349                  994028591                   CELULAR                       
10120241212Q5       032020016585                  37992222                    OUTROS                        
10120241212Q5       032080000013                  61991239172                 OUTROS                        
10120241212Q5       032080000013                  992396808                   OUTROS                        
10120241212Q5       032440002015                  995284146                   OUTROS                        
10120241212Q5       034430002378                  983698602                   OUTROS                        
10120241212Q5       034960007095                  959069040                   OUTROS                        
10120241212Q5       037680000248                  996050927                   OUTROS                        
10120241212Q5       050200003349                  940807677                   OUTROS                        
10120241212Q5       050200003349                  971471010                   OUTROS                        
10120241212Q5       050200003349                  999448686                   OUTROS                        
10120241212Q5       211900027495                  27996290820         0       CELULAR                       
10120241212Q5       022750002326                  27954111232                 CELULAR                       
10120241212Q5       022750002326                  954111232                   OUTROS                        
10120241212Q5       025490006224                  81998078067                 CELULAR                       
10120241212Q5       032080000013                  61995928979                 OUTROS                        
10120241212Q5       034430002378                  984620766                   OUTROS                        
10120241212Q5       037530000081                  1136097489                  COMERCIAL                     
10120241212Q5       037530000081                  941755055                   OUTROS                        
10120241212Q5       049240000969                  92981834779                 RECADO                        
10120241212Q5       050200003349                  989265280                   OUTROS                        
10120241212Q5       022750002326                  992485751                   OUTROS                        
10120241212Q5       025490006224                  34530052                    OUTROS                        
10120241212Q5       032080000013                  61999625652                 OUTROS                        
10120241212Q5       032080000013                  992971087                   OUTROS                        
10120241212Q5       032440002015                  86995118360                 CELULAR                       
10120241212Q5       034430002378                  11983698602         0       CELULAR                       
10120241212Q5       050200003349                  22551000                    OUTROS                        
10120241212Q5       050200003349                  35344363                    OUTROS                        
10120241212Q5       050200003349                  35345937                    OUTROS                        
10120241212Q5       050200003349                  993351031                   CELULAR                       
10120241212Q5       211900027495                  27999365779         0       CELULAR                       
10120241212Q5       211900027495                  37651501                    OUTROS                        
10120241212Q5       211900027495                  996290820                   OUTROS                        
10120241212Q5       211900027495                  999365779                   OUTROS                        
10120241212Q5       022750002326                  996663620                   OUTROS                        
10120241212Q5       023620033205                  11974018066         0       CELULAR                       
10120241212Q5       025490006224                  981081215                   CELULAR                       
10120241212Q5       029010001981                  988112019                   OUTROS                        
10120241212Q5       032080000013                  6134887227                  OUTROS                        
10120241212Q5       032440002015                  86995284146                 CELULAR                       
10120241212Q5       034430002378                  1129394411                  OUTROS                        
10120241212Q5       050200003349                  81994438467         0       CELULAR                       
10120241212Q5       050200003349                  994438467                   OUTROS                        
10120241212Q5       211900027495                  2737651501                  COMERCIAL                     
10120241212Q5       022750002326                  2730663620                  REFERENCIA                    
10120241212Q5       022750002326                  27997750331                 CELULAR                       
10120241212Q5       022750002326                  997750331                   OUTROS                        
10120241212Q5       025490006224                  982991988                   OUTROS                        
10120241212Q5       025490006224                  998078067                   OUTROS                        
10120241212Q5       025490006224                  999721215                   OUTROS                        
10120241212Q5       032440002015                  1140045215                  COMERCIAL                     
10120241212Q5       034430002378                  40045215                    OUTROS                        
10120241212Q5       034960007095                  11959069040                 CELULAR                       
10120241212Q5       050200003349                  984075306                   CELULAR                       
10120241212Q5       022750002326                  27992485751         0       CELULAR                       
10120241212Q5       029010001981                  17988112019         0       CELULAR                       
10120241212Q5       032080000013                  61992514816         0       CELULAR                       
10120241212Q5       032080000013                  992514816                   OUTROS                        
10120241212Q5       032440002015                  86995859083         0       CELULAR                       
10120241212Q5       032440002015                  995118360                   OUTROS                        
10120241212Q5       037530000081                  36097489                    OUTROS                        
10120241212Q5       049240000969                  981834779                   OUTROS                        
10120241212Q5       050200003349                  972710849                   OUTROS                        
10120241212Q5       050200003349                  987659632                   CELULAR                       
1012024121225       032440002015                  PARF    032440002015                  03244   CORRESPONDENTE                                                                                    03244   CORRESPONDENTE PIAUI                         00000000009158780000000000000000000020201204048         1                                                                                                                                                                                                                                                                                                                                                                                                                                                                                                                                                                                                            000000000000015883                                                                                                 
1012024121225       038720001968                  FSEG    038720001968                  03872   NOVACAO COBRANC                                                                                   03872   NOVACAO COBRANCA CON                         00000000013329980000000000000000000020230126048         3                                                                                                                                                                                                                                                                                                                                                                                                                                                                                                                                                                                                            000000000000011000                                                                                                 
1012024121225       037680000248                  ESPF    037680000248                  03768   SUPER OMEGA VEI                                                                                   02959   ELISABETE FERNANDES                          00000000066886740000000000000000000020230705060         1                                                                                                                                                                                                                                                                                                                                                                                                                                                                                                                                                                                                            000000000000023679                                                                                                 
1012024121225       050200003349                  REFF    050200003349                  05020   CORRESPONDENTE                                                                                    05020   CORRESPONDENTE PERNA                         00000000040704810000000000000000000020220725036         1                                                                                                                                                                                                                                                                                                                                                                                                                                                                                                                                                                                                            000000000000022209                                                                                                 
1012024121225       211900027495                  PARF    211900027495                  21190   CORRESPONDENTE                                                                                    21190   CORRESPONDENTE ESPIR                         00000000005722120000000000000000000020210217048         1                                                                                                                                                                                                                                                                                                                                                                                                                                                                                                                                                                                                            000000000000017226                                                                                                 
1012024121225       003640032368                  FCDC    003640032368                  00364   REGIONAL - SAO                                                                                    00364   REGIONAL - SAO JOSE                          00000000070559660000000000000000000020230321036         3                                                                                                                                                                                                                                                                                                                                                                                                                                                                                                                                                                                                            000000000000016811                                                                                                 
1012024121225       032020016585                  FCDC    032020016585                  03202   CORRESPONDENTE                                                                                    03202   CORRESPONDENTE CEARA                         00000000207870000000000000000000000020230308048         1                                                                                                                                                                                                                                                                                                                                                                                                                                                                                                                                                                                                            000000000000017467                                                                                                 
1012024121225       049240000969                  REFF    049240000969                  04924   CORRESP. - NOVO                                                                                   04924   CORRESP. - NOVO AMAZ                         00000000066267520000000000000000000020240508012         1                                                                                                                                                                                                                                                                                                                                                                                                                                                                                                                                                                                                            000000000000027389                                                                                                 
1012024121225       211900025492                  PARF    211900025492                  21190   CORRESPONDENTE                                                                                    21190   CORRESPONDENTE ESPIR                         00000000019187240000000000000000000020201204060         3                                                                                                                                                                                                                                                                                                                                                                                                                                                                                                                                                                                                            000000000000023570                                                                                                 
1012024121225       022750002326                  CSPF    022750002326                  02275   PODIUM VEICULOS                                                                                   02334   MOTIVE ADM. E CORRET                         00000000025904570000000000000000000020210507048         1                                                                                                                                                                                                                                                                                                                                                                                                                                                                                                                                                                                                            000000000000014428                                                                                                 
1012024121225       022800013074                  PARF    022800013074                  02280   CORRESPONDENTE                                                                                    02280   CORRESPONDENTE GOIAS                         00000000010727870000000000000000000020210713048         3                                                                                                                                                                                                                                                                                                                                                                                                                                                                                                                                                                                                            000000000000013000                                                                                                 
1012024121225       032690030386                  REFF    032690030386                  03269   CORRESPONDENTE                                                                                    03269   CORRESPONDENTE MINAS                         00000000034114050000000000000000000020230706036         3                                                                                                                                                                                                                                                                                                                                                                                                                                                                                                                                                                                                            000000000000021510                                                                                                 
1012024121225       038720004782                  FSEG    038720004782                  03872   NOVACAO COBRANC                                                                                   03872   NOVACAO COBRANCA CON                         00000000064949220000000000000000000020240603036         1                                                                                                                                                                                                                                                                                                                                                                                                                                                                                                                                                                                                            000000000000013600                                                                                                 
1012024121225       029010001981                  CSPF    029010001981                  02901   FEIRAO CARRO FA                                                                                   02901   FEIRAO CARRO FACIL                           00000000065668520000000000000000000020230605060         1                                                                                                                                                                                                                                                                                                                                                                                                                                                                                                                                                                                                            000000000000020400                                                                                                 
1012024121225       023620033205                  PARF    023620033205                  02362   CORRESPONDENTE                                                                                    02362   CORRESPONDENTE - SAN                         00000000033514310000000000000000000020220808048         1                                                                                                                                                                                                                                                                                                                                                                                                                                                                                                                                                                                                            000000000000020435                                                                                                 
1012024121225       025490006224                  FCDC    025490006224                  02549   CORRESPONDENTE                                                                                    02549   CORRESPONDENTE  PERN                         00000000014370970000000000000000000020200304060         1                                                                                                                                                                                                                                                                                                                                                                                                                                                                                                                                                                                                            000000000000017812                                                                                                 
1012024121225       021130021247                  REFF    021130021247                  02113   PORTOSUL - RS                                                                                     02113   PORTOSUL - RS                                00000000037717650000000000000000000020220816036         3                                                                                                                                                                                                                                                                                                                                                                                                                                                                                                                                                                                                            000000000000021684                                                                                                 
1012024121225       037530000081                  ESPF    037530000081                  03753   R.BRAGA COMERCI                                                                                   03301   CORRESPONDENTE OSASC                         00000000045332890000000000000000000020220607048         1                                                                                                                                                                                                                                                                                                                                                                                                                                                                                                                                                                                                            000000000000023352                                                                                                 
1012024121225       032080000013                  ESPF    032080000013                  03208   SAGA RENAULT SA                                                                                   03210   SAGA CORRETORA DE SE                         00000000048441320000000000000000000020220617060         1                                                                                                                                                                                                                                                                                                                                                                                                                                                                                                                                                                                                            000000000000025278                                                                                                 
1012024121225       023620042937                  REFF    023620042937                  02362   CORRESPONDENTE                                                                                    02362   CORRESPONDENTE - SAN                         00000000042394680000000000000000000020240401036         1                                                                                                                                                                                                                                                                                                                                                                                                                                                                                                                                                                                                            000000000000053809                                                                                                 
1012024121225       033030000056                  ESPF    033030000056                  03303   ZANELI COMERCIO                                                                                   03590   REGIONAL SAO PAULO                           00000000024814360000000000000000000020220902048         3                                                                                                                                                                                                                                                                                                                                                                                                                                                                                                                                                                                                            000000000000019588                                                                                                 
1012024121225       034430002378                  FCDC    034430002378                  03443   CORRESPONDENTE                                                                                    03443   CORRESPONDENTE GUARU                         00000000014202920000000000000000000020210205048         1                                                                                                                                                                                                                                                                                                                                                                                                                                                                                                                                                                                                            000000000000022820                                                                                                 
1012024121225       034960007095                  REFF    034960007095                  03496   CORRESPONDENTE                                                                                    03496   CORRESPONDENTE PENHA                         00000000041917860000000000000000000020231107012         1                                                                                                                                                                                                                                                                                                                                                                                                                                                                                                                                                                                                            000000000000022982                                                                                                 
1012024121235       000830037271                  REFF    000830037271                  2024011600000010        20240930000000000009436100000000000000000000000000000000000000000000000000000000000000000005486400   024   7                            C20240116                      
1012024121235       002640004077                  MOTO    002640004077                  2009020800000021                000000000002533000000000000000000000000000000000000000000000000000000000000000000000000000   042   1                             20090208                      
1012024121235       002640004077                  MOTO    002640004077                  2009030800000022                000000000002533000000000000000000000000000000000000000000000000000000000000000000000000000   042   1                             20090308                      
1012024121235       002640004077                  MOTO    002640004077                  2009040800000023                000000000002533000000000000000000000000000000000000000000000000000000000000000000000000000   042   1                             20090408                      
1012024121235       002640004077                  MOTO    002640004077                  2009050800000024                000000000002533000000000000000000000000000000000000000000000000000000000000000000000000000   042   1                             20090508                      
1012024121235       002640004077                  MOTO    002640004077                  2009060800000025                000000000002533000000000000000000000000000000000000000000000000000000000000000000000000000   042   1                             20090608                      
1012024121235       002640004077                  MOTO    002640004077                  2009070800000026                000000000002533000000000000000000000000000000000000000000000000000000000000000000000000000   042   1                             20090708                      
1012024121235       002640004077                  MOTO    002640004077                  2009080800000027                000000000002533000000000000000000000000000000000000000000000000000000000000000000000000000   042   1                             20090808                      
1012024121235       002640004077                  MOTO    002640004077                  2009090800000028                000000000002533000000000000000000000000000000000000000000000000000000000000000000000000000   042   1                             20090908                      
1012024121235       002640004077                  MOTO    002640004077                  2009100800000029                000000000002533000000000000000000000000000000000000000000000000000000000000000000000000000   042   1                             20091008                      
1012024121235       002640004077                  MOTO    002640004077                  2009110800000030                000000000002533000000000000000000000000000000000000000000000000000000000000000000000000000   042   1                             20091108                      
1012024121235       002640004077                  MOTO    002640004077                  2009120800000031                000000000002533000000000000000000000000000000000000000000000000000000000000000000000000000   042   1                             20091208                      
1012024121235       002640004077                  MOTO    002640004077                  2010010800000032                000000000002533000000000000000000000000000000000000000000000000000000000000000000000000000   042   1                             20100108                      
1012024121235       002640004077                  MOTO    002640004077                  2010020800000033                000000000002533000000000000000000000000000000000000000000000000000000000000000000000000000   042   1                             20100208                      
1012024121235       002640004077                  MOTO    002640004077                  2010030800000034                000000000002533000000000000000000000000000000000000000000000000000000000000000000000000000   042   1                             20100308                      
1012024121235       002640004077                  MOTO    002640004077                  2010040800000035                000000000002533000000000000000000000000000000000000000000000000000000000000000000000000000   042   1                             20100408                      
1012024121235       002640004077                  MOTO    002640004077                  2010050800000036                000000000002533000000000000000000000000000000000000000000000000000000000000000000000000000   042   1                             20100508                      
1012024121235       002640004077                  MOTO    002640004077                  2010060800000037                000000000002533000000000000000000000000000000000000000000000000000000000000000000000000000   042   1                             20100608                      
1012024121235       002640004077                  MOTO    002640004077                  2010070800000038                000000000002533000000000000000000000000000000000000000000000000000000000000000000000000000   042   1                             20100708                      
1012024121235       002640004077                  MOTO    002640004077                  2010080800000039                000000000002533000000000000000000000000000000000000000000000000000000000000000000000000000   042   1                             20100808                      
1012024121235       002640004077                  MOTO    002640004077                  2010090800000040                000000000002533000000000000000000000000000000000000000000000000000000000000000000000000000   042   1                             20100908                      
1012024121235       002640004077                  MOTO    002640004077                  2010100800000041                000000000002533000000000000000000000000000000000000000000000000000000000000000000000000000   042   1                             20101008                      
1012024121235       002640004077                  MOTO    002640004077                  2010110800000042                000000000002533000000000000000000000000000000000000000000000000000000000000000000000000000   042   1                             20101108                      
1012024121235       021130015701                  PARF    021130015701                  2024112800000040        20241209000000000008736000000000000000000000000000000000000000000000000000000000000000000008736000   048   8                            C20241128                      
1012024121235       021130018470                  REFF    021130018470                  2023042800000012        20240401000000000021415600000000000000000000000000000000000000000000000000000000000000000005391900   048   7                            C20230428                      
1012024121235       022750002326                  CSPF    022750002326                  2024100600000041                000000000013298100000000000000000000000000000000000000000000000000000000000000000000000000   048   1                             20241006                      
1012024121235       022750002326                  CSPF    022750002326                  2024110600000042                000000000013298100000000000000000000000000000000000000000000000000000000000000000000000000   048   1                             20241106                      
1012024121235       022750002326                  CSPF    022750002326                  2024120600000043                000000000013298100000000000000000000000000000000000000000000000000000000000000000000000000   048   1                             20241206                      
1012024121235       022750002326                  CSPF    022750002326                  2025010600000044                000000000013298100000000000000000000000000000000000000000000000000000000000000000000000000   048   1                             20250106                      
1012024121235       022750002326                  CSPF    022750002326                  2025020600000045                000000000013298100000000000000000000000000000000000000000000000000000000000000000000000000   048   1                             20250206                      
1012024121235       022750002326                  CSPF    022750002326                  2025030600000046                000000000013298100000000000000000000000000000000000000000000000000000000000000000000000000   048   1                             20250306                      
1012024121235       022750002326                  CSPF    022750002326                  2025040600000047                000000000013298100000000000000000000000000000000000000000000000000000000000000000000000000   048   1                             20250406                      
1012024121235       022750002326                  CSPF    022750002326                  2025050600000048                000000000013298100000000000000000000000000000000000000000000000000000000000000000000000000   048   1                             20250506                      
1012024121235       023620033205                  PARF    023620033205                  2024100700000026                000000000012347900000000000000000000000000000000000000000000000000000000000000000000000000   048   1                             20241007                      
1012024121235       023620033205                  PARF    023620033205                  2024110700000027                000000000012347900000000000000000000000000000000000000000000000000000000000000000000000000   048   1                             20241107                      
1012024121235       023620033205                  PARF    023620033205                  2024120700000028                000000000012347900000000000000000000000000000000000000000000000000000000000000000000000000   048   1                             20241207                      
1012024121235       023620033205                  PARF    023620033205                  2025010700000029                000000000012347900000000000000000000000000000000000000000000000000000000000000000000000000   048   1                             20250107                      
1012024121235       023620033205                  PARF    023620033205                  2025020700000030                000000000012347900000000000000000000000000000000000000000000000000000000000000000000000000   048   1                             20250207                      
1012024121235       023620033205                  PARF    023620033205                  2025030700000031                000000000012347900000000000000000000000000000000000000000000000000000000000000000000000000   048   1                             20250307                      
1012024121235       023620033205                  PARF    023620033205                  2025040700000032                000000000012347900000000000000000000000000000000000000000000000000000000000000000000000000   048   1                             20250407                      
1012024121235       023620033205                  PARF    023620033205                  2025050700000033                000000000012347900000000000000000000000000000000000000000000000000000000000000000000000000   048   1                             20250507                      
1012024121235       023620033205                  PARF    023620033205                  2025060700000034                000000000012347900000000000000000000000000000000000000000000000000000000000000000000000000   048   1                             20250607                      
1012024121235       023620033205                  PARF    023620033205                  2025070700000035                000000000012347900000000000000000000000000000000000000000000000000000000000000000000000000   048   1                             20250707                      
1012024121235       023620033205                  PARF    023620033205                  2025080700000036                000000000012347900000000000000000000000000000000000000000000000000000000000000000000000000   048   1                             20250807                      
1012024121235       023620033205                  PARF    023620033205                  2025090700000037                000000000012347900000000000000000000000000000000000000000000000000000000000000000000000000   048   1                             20250907                      
1012024121235       023620033205                  PARF    023620033205                  2025100700000038                000000000012347900000000000000000000000000000000000000000000000000000000000000000000000000   048   1                             20251007                      
1012024121235       023620033205                  PARF    023620033205                  2025110700000039                000000000012347900000000000000000000000000000000000000000000000000000000000000000000000000   048   1                             20251107                      
1012024121235       023620033205                  PARF    023620033205                  2025120700000040                000000000012347900000000000000000000000000000000000000000000000000000000000000000000000000   048   1                             20251207                      
1012024121235       023620033205                  PARF    023620033205                  2026010700000041                000000000012347900000000000000000000000000000000000000000000000000000000000000000000000000   048   1                             20260107                      
1012024121235       023620033205                  PARF    023620033205                  2026020700000042                000000000012347900000000000000000000000000000000000000000000000000000000000000000000000000   048   1                             20260207                      
1012024121235       023620033205                  PARF    023620033205                  2026030700000043                000000000012347900000000000000000000000000000000000000000000000000000000000000000000000000   048   1                             20260307                      
1012024121235       023620033205                  PARF    023620033205                  2026040700000044                000000000012347900000000000000000000000000000000000000000000000000000000000000000000000000   048   1                             20260407                      
1012024121235       023620033205                  PARF    023620033205                  2026050700000045                000000000012347900000000000000000000000000000000000000000000000000000000000000000000000000   048   1                             20260507                      
1012024121235       023620033205                  PARF    023620033205                  2026060700000046                000000000012347900000000000000000000000000000000000000000000000000000000000000000000000000   048   1                             20260607                      
1012024121235       023620033205                  PARF    023620033205                  2026070700000047                000000000012347900000000000000000000000000000000000000000000000000000000000000000000000000   048   1                             20260707                      
1012024121235       023620042937                  REFF    023620042937                  2024100200000006                000000000028639700000000000000000000000000000000000000000000000000000000000000000000000000   036   1                             20241002                      
1012024121235       023620042937                  REFF    023620042937                  2024110200000007                000000000028639700000000000000000000000000000000000000000000000000000000000000000000000000   036   1                             20241102                      
1012024121235       023620042937                  REFF    023620042937                  2024120200000008                000000000028639700000000000000000000000000000000000000000000000000000000000000000000000000   036   1                             20241202                      
1012024121235       023620042937                  REFF    023620042937                  2025010200000009                000000000028639700000000000000000000000000000000000000000000000000000000000000000000000000   036   1                             20250102                      
1012024121235       023620042937                  REFF    023620042937                  2025020200000010                000000000028639700000000000000000000000000000000000000000000000000000000000000000000000000   036   1                             20250202                      
1012024121235       023620042937                  REFF    023620042937                  2025030200000011                000000000028639700000000000000000000000000000000000000000000000000000000000000000000000000   036   1                             20250302                      
1012024121235       023620042937                  REFF    023620042937                  2025040200000012                000000000028639700000000000000000000000000000000000000000000000000000000000000000000000000   036   1                             20250402                      
1012024121235       023620042937                  REFF    023620042937                  2025050200000013                000000000028639700000000000000000000000000000000000000000000000000000000000000000000000000   036   1                             20250502                      
1012024121235       023620042937                  REFF    023620042937                  2025060200000014                000000000028639700000000000000000000000000000000000000000000000000000000000000000000000000   036   1                             20250602                      
1012024121235       023620042937                  REFF    023620042937                  2025070200000015                000000000028639700000000000000000000000000000000000000000000000000000000000000000000000000   036   1                             20250702                      
1012024121235       023620042937                  REFF    023620042937                  2025080200000016                000000000028639700000000000000000000000000000000000000000000000000000000000000000000000000   036   1                             20250802                      
1012024121235       023620042937                  REFF    023620042937                  2025090200000017                000000000028639700000000000000000000000000000000000000000000000000000000000000000000000000   036   1                             20250902                      
1012024121235       023620042937                  REFF    023620042937                  2025100200000018                000000000028639700000000000000000000000000000000000000000000000000000000000000000000000000   036   1                             20251002                      
1012024121235       023620042937                  REFF    023620042937                  2025110200000019                000000000028639700000000000000000000000000000000000000000000000000000000000000000000000000   036   1                             20251102                      
1012024121235       023620042937                  REFF    023620042937                  2025120200000020                000000000028639700000000000000000000000000000000000000000000000000000000000000000000000000   036   1                             20251202                      
1012024121235       023620042937                  REFF    023620042937                  2026010200000021                000000000028639700000000000000000000000000000000000000000000000000000000000000000000000000   036   1                             20260102                      
1012024121235       023620042937                  REFF    023620042937                  2026020200000022                000000000028639700000000000000000000000000000000000000000000000000000000000000000000000000   036   1                             20260202                      
1012024121235       023620042937                  REFF    023620042937                  2026030200000023                000000000028639700000000000000000000000000000000000000000000000000000000000000000000000000   036   1                             20260302                      
1012024121235       023620042937                  REFF    023620042937                  2026040200000024                000000000028639700000000000000000000000000000000000000000000000000000000000000000000000000   036   1                             20260402                      
1012024121235       023620042937                  REFF    023620042937                  2026050200000025                000000000028639700000000000000000000000000000000000000000000000000000000000000000000000000   036   1                             20260502                      
1012024121235       023620042937                  REFF    023620042937                  2026060200000026                000000000028639700000000000000000000000000000000000000000000000000000000000000000000000000   036   1                             20260602                      
1012024121235       023620042937                  REFF    023620042937                  2026070200000027                000000000028639700000000000000000000000000000000000000000000000000000000000000000000000000   036   1                             20260702                      
1012024121235       023620042937                  REFF    023620042937                  2026080200000028                000000000028639700000000000000000000000000000000000000000000000000000000000000000000000000   036   1                             20260802                      
1012024121235       023620042937                  REFF    023620042937                  2026090200000029                000000000028639700000000000000000000000000000000000000000000000000000000000000000000000000   036   1                             20260902                      
1012024121235       023620042937                  REFF    023620042937                  2026100200000030                000000000028639700000000000000000000000000000000000000000000000000000000000000000000000000   036   1                             20261002                      
1012024121235       023620042937                  REFF    023620042937                  2026110200000031                000000000028639700000000000000000000000000000000000000000000000000000000000000000000000000   036   1                             20261102                      
1012024121235       023620042937                  REFF    023620042937                  2026120200000032                000000000028639700000000000000000000000000000000000000000000000000000000000000000000000000   036   1                             20261202                      
1012024121235       023620042937                  REFF    023620042937                  2027010200000033                000000000028639700000000000000000000000000000000000000000000000000000000000000000000000000   036   1                             20270102                      
1012024121235       023620042937                  REFF    023620042937                  2027020200000034                000000000028639700000000000000000000000000000000000000000000000000000000000000000000000000   036   1                             20270202                      
1012024121235       023620042937                  REFF    023620042937                  2027030200000035                000000000028639700000000000000000000000000000000000000000000000000000000000000000000000000   036   1                             20270302                      
1012024121235       023620042937                  REFF    023620042937                  2027040200000036                000000000028639700000000000000000000000000000000000000000000000000000000000000000000000000   036   1                             20270402                      
1012024121235       023790026620                  REFF    023790026620                  2024092900000002                000000000013619300000000000000000000000000000000000000000000000000000000000000000000000000   048   1                             20240929                      
1012024121235       023790026620                  REFF    023790026620                  2024102900000003                000000000013619300000000000000000000000000000000000000000000000000000000000000000000000000   048   1                             20241029                      
1012024121235       025490006224                  FCDC    025490006224                  2024080300000053                000000000011548200000000000000000000000000000000000000000000000000000000000000000000000000   060   1                             20240803                      
1012024121235       025490006224                  FCDC    025490006224                  2024090300000054                000000000011548200000000000000000000000000000000000000000000000000000000000000000000000000   060   1                             20240903                      
1012024121235       025490006224                  FCDC    025490006224                  2024100300000055                000000000011548200000000000000000000000000000000000000000000000000000000000000000000000000   060   1                             20241003                      
1012024121235       025490006224                  FCDC    025490006224                  2024110300000056                000000000011548200000000000000000000000000000000000000000000000000000000000000000000000000   060   1                             20241103                      
1012024121235       025490006224                  FCDC    025490006224                  2024120300000057                000000000011548200000000000000000000000000000000000000000000000000000000000000000000000000   060   1                             20241203                      
1012024121235       025490006224                  FCDC    025490006224                  2025010300000058                000000000011548200000000000000000000000000000000000000000000000000000000000000000000000000   060   1                             20250103                      
1012024121235       025490006224                  FCDC    025490006224                  2025020300000059                000000000011548200000000000000000000000000000000000000000000000000000000000000000000000000   060   1                             20250203                      
1012024121235       025490006224                  FCDC    025490006224                  2025030300000060                000000000011548200000000000000000000000000000000000000000000000000000000000000000000000000   060   1                             20250303                      
1012024121235       025850000471                  ESPF    025850000471                  2021012500000033        20231228000000000008651800000000000000000000000000000000000000000000000000000000000000000001854500   036   7                            C20210125                      
1012024121235       025950064913                  REFF    025950064913                  2024080200000022        20230710000000000006077300000000000000000000000000000000000000000000000000000000000000000002138200   048   7                            C20240802                      
1012024121235       026690000133                  UTLJ    026690000133                  2024091300000044                000000000013594200000000000000000000000000000000000000000000000000000000000000000000000000   048   1                             20240913                      
1012024121235       026690000133                  UTLJ    026690000133                  2024101300000045                000000000013594200000000000000000000000000000000000000000000000000000000000000000000000000   048   1                             20241013                      
1012024121235       026690000133                  UTLJ    026690000133                  2024111300000046                000000000013594200000000000000000000000000000000000000000000000000000000000000000000000000   048   1                             20241113                      
1012024121235       026690000133                  UTLJ    026690000133                  2024121300000047                000000000013594200000000000000000000000000000000000000000000000000000000000000000000000000   048   1                             20241213                      
1012024121235       026690000133                  UTLJ    026690000133                  2025011300000048                000000000013594200000000000000000000000000000000000000000000000000000000000000000000000000   048   1                             20250113                      
1012024121235       027120007425                  PARF    027120007425                  2023012800000032        20241129000000000008080500000000000000000000000000000000000000000000000000000000000000000000273100   048   7                            C20230128                      
1012024121235       027120020365                  PARF    027120020365                  2024030400000031        20240624000000000010531000000000000000000000000000000000000000000000000000000000000000000005873000   048   7                            C20240304                      
1012024121235       027320008129                  PARF    027320008129                  2023081100000024        20240930000000000027578600000000000000000000000000000000000000000000000000000000000000000010212200   048   7                            C20230811                      
1012024121235       029010001981                  CSPF    029010001981                  2024100500000016                000000000020817300000000000000000000000000000000000000000000000000000000000000000000000000   060   1                             20241005                      
1012024121235       029010001981                  CSPF    029010001981                  2024110500000017                000000000020817300000000000000000000000000000000000000000000000000000000000000000000000000   060   1                             20241105                      
1012024121235       029010001981                  CSPF    029010001981                  2024120500000018                000000000020817300000000000000000000000000000000000000000000000000000000000000000000000000   060   1                             20241205                      
1012024121235       029010001981                  CSPF    029010001981                  2025010500000019                000000000020817300000000000000000000000000000000000000000000000000000000000000000000000000   060   1                             20250105                      
1012024121235       029010001981                  CSPF    029010001981                  2025020500000020                000000000020817300000000000000000000000000000000000000000000000000000000000000000000000000   060   1                             20250205                      
1012024121235       029010001981                  CSPF    029010001981                  2025030500000021                000000000020817300000000000000000000000000000000000000000000000000000000000000000000000000   060   1                             20250305                      
1012024121235       029010001981                  CSPF    029010001981                  2025040500000022                000000000020817300000000000000000000000000000000000000000000000000000000000000000000000000   060   1                             20250405                      
1012024121235       029010001981                  CSPF    029010001981                  2025050500000023                000000000020817300000000000000000000000000000000000000000000000000000000000000000000000000   060   1                             20250505                      
1012024121235       029010001981                  CSPF    029010001981                  2025060500000024                000000000020817300000000000000000000000000000000000000000000000000000000000000000000000000   060   1                             20250605                      
1012024121235       029010001981                  CSPF    029010001981                  2025070500000025                000000000020817300000000000000000000000000000000000000000000000000000000000000000000000000   060   1                             20250705                      
1012024121235       029010001981                  CSPF    029010001981                  2025080500000026                000000000020817300000000000000000000000000000000000000000000000000000000000000000000000000   060   1                             20250805                      
1012024121235       029010001981                  CSPF    029010001981                  2025090500000027                000000000020817300000000000000000000000000000000000000000000000000000000000000000000000000   060   1                             20250905                      
1012024121235       029010001981                  CSPF    029010001981                  2025100500000028                000000000020817300000000000000000000000000000000000000000000000000000000000000000000000000   060   1                             20251005                      
1012024121235       029010001981                  CSPF    029010001981                  2025110500000029                000000000020817300000000000000000000000000000000000000000000000000000000000000000000000000   060   1                             20251105                      
1012024121235       029010001981                  CSPF    029010001981                  2025120500000030                000000000020817300000000000000000000000000000000000000000000000000000000000000000000000000   060   1                             20251205                      
1012024121235       029010001981                  CSPF    029010001981                  2026010500000031                000000000020817300000000000000000000000000000000000000000000000000000000000000000000000000   060   1                             20260105                      
1012024121235       029010001981                  CSPF    029010001981                  2026020500000032                000000000020817300000000000000000000000000000000000000000000000000000000000000000000000000   060   1                             20260205                      
1012024121235       029010001981                  CSPF    029010001981                  2026030500000033                000000000020817300000000000000000000000000000000000000000000000000000000000000000000000000   060   1                             20260305                      
1012024121235       029010001981                  CSPF    029010001981                  2026040500000034                000000000020817300000000000000000000000000000000000000000000000000000000000000000000000000   060   1                             20260405                      
1012024121235       029010001981                  CSPF    029010001981                  2026050500000035                000000000020817300000000000000000000000000000000000000000000000000000000000000000000000000   060   1                             20260505                      
1012024121235       029010001981                  CSPF    029010001981                  2026060500000036                000000000020817300000000000000000000000000000000000000000000000000000000000000000000000000   060   1                             20260605                      
1012024121235       029010001981                  CSPF    029010001981                  2026070500000037                000000000020817300000000000000000000000000000000000000000000000000000000000000000000000000   060   1                             20260705                      
1012024121235       029010001981                  CSPF    029010001981                  2026080500000038                000000000020817300000000000000000000000000000000000000000000000000000000000000000000000000   060   1                             20260805                      
1012024121235       029010001981                  CSPF    029010001981                  2026090500000039                000000000020817300000000000000000000000000000000000000000000000000000000000000000000000000   060   1                             20260905                      
1012024121235       029010001981                  CSPF    029010001981                  2026100500000040                000000000020817300000000000000000000000000000000000000000000000000000000000000000000000000   060   1                             20261005                      
1012024121235       029010001981                  CSPF    029010001981                  2026110500000041                000000000020817300000000000000000000000000000000000000000000000000000000000000000000000000   060   1                             20261105                      
1012024121235       029010001981                  CSPF    029010001981                  2026120500000042                000000000020817300000000000000000000000000000000000000000000000000000000000000000000000000   060   1                             20261205                      
1012024121235       029010001981                  CSPF    029010001981                  2027010500000043                000000000020817300000000000000000000000000000000000000000000000000000000000000000000000000   060   1                             20270105                      
1012024121235       029010001981                  CSPF    029010001981                  2027020500000044                000000000020817300000000000000000000000000000000000000000000000000000000000000000000000000   060   1                             20270205                      
1012024121235       029010001981                  CSPF    029010001981                  2027030500000045                000000000020817300000000000000000000000000000000000000000000000000000000000000000000000000   060   1                             20270305                      
1012024121235       029010001981                  CSPF    029010001981                  2027040500000046                000000000020817300000000000000000000000000000000000000000000000000000000000000000000000000   060   1                             20270405                      
1012024121235       029010001981                  CSPF    029010001981                  2027050500000047                000000000020817300000000000000000000000000000000000000000000000000000000000000000000000000   060   1                             20270505                      
1012024121235       029010001981                  CSPF    029010001981                  2027060500000048                000000000020817300000000000000000000000000000000000000000000000000000000000000000000000000   060   1                             20270605                      
1012024121235       029010001981                  CSPF    029010001981                  2027070500000049                000000000020817300000000000000000000000000000000000000000000000000000000000000000000000000   060   1                             20270705                      
1012024121235       029010001981                  CSPF    029010001981                  2027080500000050                000000000020817300000000000000000000000000000000000000000000000000000000000000000000000000   060   1                             20270805                      
1012024121235       029010001981                  CSPF    029010001981                  2027090500000051                000000000020817300000000000000000000000000000000000000000000000000000000000000000000000000   060   1                             20270905                      
1012024121235       029010001981                  CSPF    029010001981                  2027100500000052                000000000020817300000000000000000000000000000000000000000000000000000000000000000000000000   060   1                             20271005                      
1012024121235       029010001981                  CSPF    029010001981                  2027110500000053                000000000020817300000000000000000000000000000000000000000000000000000000000000000000000000   060   1                             20271105                      
1012024121235       029010001981                  CSPF    029010001981                  2027120500000054                000000000020817300000000000000000000000000000000000000000000000000000000000000000000000000   060   1                             20271205                      
1012024121235       029010001981                  CSPF    029010001981                  2028010500000055                000000000020817300000000000000000000000000000000000000000000000000000000000000000000000000   060   1                             20280105                      
1012024121235       029010001981                  CSPF    029010001981                  2028020500000056                000000000020817300000000000000000000000000000000000000000000000000000000000000000000000000   060   1                             20280205                      
1012024121235       029010001981                  CSPF    029010001981                  2028030500000057                000000000020817300000000000000000000000000000000000000000000000000000000000000000000000000   060   1                             20280305                      
1012024121235       029010001981                  CSPF    029010001981                  2028040500000058                000000000020817300000000000000000000000000000000000000000000000000000000000000000000000000   060   1                             20280405                      
1012024121235       029010001981                  CSPF    029010001981                  2028050500000059                000000000020817300000000000000000000000000000000000000000000000000000000000000000000000000   060   1                             20280505                      
1012024121235       029010001981                  CSPF    029010001981                  2028060500000060                000000000020817300000000000000000000000000000000000000000000000000000000000000000000000000   060   1                             20280605                      
