001202412122024121200000107
1012024121215       038710001509                  125410451821   ROSANGELA DE SOUZA MACHADO                   19740522                                                                                                                                                                                                                                                                                                                                                                                                                                       R JOSE DE OLIVEIRA COELHO                         585       AP 12                                             VILA ANDRADE             SAO PAULO              SP05727240                                                                                          EMPRESARIO                    R ROSEIRA VELHA                                           04                                                  JD PIRACUAMA             SAO PAULO              SP05763490                            NPE                                          2023080720250104                                                                                                                                                                                                                                                                       FS26498260                    000000000000000000        00000000R11947686572         947686572           947268254           ROSANGELASM053@GMAIL.COM                                    
1012024121215       050300001020                  116934206860   SOLANGE ALVES DE SOUZA                       19750107                                                                                                                                                                                                                                                                                                                                                                                                                                       R JOSE TIBURCIO DA CUNHA                          249                                                         JARDIM SUINA             TABOAO DA SERRA        SP06773360                    PREFEITURA MUNICIPAL DE SAO PA                                        GERENTE - TODAS               R VITORIANO PALHARES                                      10                                                  JARDIM AMALIA            SAO PAULO              SP05890320                            NPE                                          2023120620250104                                                                                                                                                                                                                                                                       FS257175969                   000000000000000000        00000000R947196997           947196996           947196996           PROFASOLANGEALVEZ@GMAIL.COM                                 
1012024121215       211900039512                  113371260631   CRISTIANO OLIVEIRA COIMBRA                   19950306                                                                                                                                                                                                                                                                                                                                                                                                                                       R VIRGINIO NUNES LOUREIRO                         93        CASA                                              VILA RICA                ARACRUZ                ES29194114                                                                                          OUTRAS                        R VIRGINIO NUNES LOUREIRO                                 93CASA                                              VILA RICA                ARACRUZ                ES29194114                            NPE                                          2023020720250104                                                                                                                                                                                                                                                                       MS0622954450                  000000000000000000        00000000R                                                            CRISTIANOOLIVEIRACOIMBRA@GMAIL.COM                          
1012024121215       029010003359                  102950306829   JOAO ANTONIO DE QUEIROZ                      19620109                                                                                                                                                                                                                                                                                                                                                                                                                                       R JOSE GALDINO DE LUCENA                          247                                                         CHACARA SAO JOAO         SAO PAULO              SP05110080                                                                                          OUTRAS                        R JOSE GALDINO DE LUCENA                                 247                                                  CHACARA SAO JOAO         SAO PAULO              SP05110080                            NPE                                          2024050620250104                                                                                                                                                                                                                                                                       MS14455915                    000000000000000000        00000000R                    953309362           953309362                                                                       
1012024121215       023790016357                  170313393168   YONA JOSIANE SANTANA OLIVEIRA                19771022                                                                                                                                                                                                                                                                                                                                                                                                                                       Q QUADRA                                          08        05 CJ E LT                                        SETOR SUL GAMA           BRASILIA               DF72410305                    SECRETARIA MUNICIPAL DE EDUC D                                        GERENTE - TODAS               AV QUADRA                                                 SN07 AE                                             LOTEAMENTO LUNABEL 3A    NOVO GAMA              GO72862307                            NPE                                          2022120720250104                                                                                                                                                                                                                                                                       FO1.750.887                   000000000000000000        00000000R61984428372         984428372           984428372           YONAPROFESSORA@GMAIL.COM                                    
1012024121215       005390009650                  110636084817   LUIS FERNANDES OLIVEIRA DE JESUS             19700218                                                                                                                                                                                                                                                                                                                                                                                                                                       R ASTER                                           429                                                         JARDIM SAO SEBASTIAO     HORTOLANDIA            SP13187165                    DINAMICA FITNESS                                                      GERENTE - TODAS               R ASTER                                                  429                                                  JARDIM SAO SEBASTIAO     HORTOLANDIA            SP131871651939094296                  NPE                                          2022120720250104                                                                                                                                                                                                                                                                       MS0179189270                  000000000000000000        00000000R19995932945         995932945           22183721            FACADEMIA2008@GMAIL.COM                                     
1012024121215       035160001918                  104673520386   JOSE LUIS OLIVEIRA NASCIMENTO                19890309                                                                                                                                                                                                                                                                                                                                                                                                                                       R FRANCISCO                                       242                                                         C NOVA                   SAO LUIS               MA65083424                    AMBEV S.A.                                                            GERENTE TODAS A               AV EMILIANO MACIEIRA                                      SN                                                  PEDRINHAS                SAO LUIS               MA65095603                            NPE                                          2024121120241226                                                                                                                                                                                                                                                                       MO0481530225                  000000000000000000        00000000R987151740           999694978           33136039            JLGLADIADOR310@GMAIL.COM                                    
1012024121215       022800013458                  105287888171   MARCO AURELIO DE SOUSA FILGUEIRA             19960708                                                                                                                                                                                                                                                                                                                                                                                                                                       R COPA 17                                         SN        QD 21 LT42                                        RESIDENCIAL COPACABANA   ANAPOLIS               GO75136138                    VITAL AUTO PECAS                                                      GERENTE - TODAS               AV CONTORNO                                               SNLT 17 E 18                                        PARQUE SAO JOAO          ANAPOLIS               GO751262756233456789                  NPE                                          2023030620250104                                                                                                                                                                                                                                                                       MS0714856146                  000000000000000000        00000000R62992688659         992688659           62992147804         MARCOAURELIOSOUSA697@GMAIL.COM                              
1012024121215       027320013546                  110853406863   MARCO ANTONIO DE OLIVEIRA                    19651128                                                                                                                                                                                                                                                                                                                                                                                                                                       R ADERBAL DE FIGUEIREDO                           85                                                          PRAIA DO MEIO            NATAL                  RN59010115                                                                                          GERENTE - TODAS               R ADERBAL DE FIGUEIREDO                                   85                                                  PRAIA DO MEIO            NATAL                  RN59010115                            NPE                                          2023030620250104                                                                                                                                                                                                                                                                       MS018544212                   000000000000000000        00000000R11995251609         995251609           1146360107          DIMARCOMARCO2@GMAIL.COM                                     
1012024121215       211900034049                  109145704716   LENICIO SEIDLER ROPKE                        19810515                                                                                                                                                                                                                                                                                                                                                                                                                                       CORREGO DO OURO                                   SN                                                          ZONA RURAL               SANTA MARIA DE JETIBA  ES29645000                                                                                          OUTRAS                        CORREGO DO OURO                                                                                               ZONA RURAL               SANTA MARIA DE JETIBA  ES296450002740045215                  NPE                                          2022120620250104                                                                                                                                                                                                                                                                       MS0213538579                  000000000000000000        00000000R27998524725                                                                                                             
1012024121215       027560005150                  123217006534   GILMAR RIOS DE OLIVEIRA                      19620121                                                                                                                                                                                                                                                                                                                                                                                                                                       R ERNESTO SAQUETTI                                25        CASA                                              RESIDENCIAL DOUTOR CICEROPINDAMONHANGABA        SP12444580                                                                                          APOSENTADO                                                                                                                                                                                                                        NPE                                          2022120820250111                                                                                                                                                                                                                                                                       MS620951357                   000000000000000000        00000000R12981716599         997854237           12991713506         THURMR@HOTMAIL.COM                                          
1012024121215       036280002585                  100625500806   MARIA IDALIA DE PAIVA FERREIRA               19570728                                                                                                                                                                                                                                                                                                                                                                                                                                       R ANTONIO RIBEIRO DE MORAIS                       482       41                                                VILA CARBONE             SAO PAULO              SP02751000                                                                                          APOSENTADO                                                                                                                                                                                                                        NPE                                          2023070520250104                                                                                                                                                                                                                                                                       FS0062550080                  000000000000000000        00000000R11996205574         996205574           973179279           IDALIAPAF@GMAIL.COM                                         
1012024121215       054880000333                  101416370803   DANILO DE MEDEIROS                           19661115                                                                                                                                                                                                                                                                                                                                                                                                                                       TORRES CAMARA                                     600       CASA 20                                           ALDEOTA                  FORTALEZA              CE60150060                    NENHUMA                                                               GERENTE - TODAS               TORRES CAMARA                                            600CASA 20                                           ALDEOTA                  FORTALEZA              CE60150060                            NPE                                          2024050620250104                                                                                                                                                                                                                                                                       MS183324742                   000000000000000000        00000000R                    988912817           988912817           DANILOMEDEIROS39@YAHOO.COM.BR                               
1012024121215       038840001737                  117203543838   NAORLEI RODRIGUES GARCIA                     19730202                                                                                                                                                                                                                                                                                                                                                                                                                                       R JOAO CARAZZOLLE                                 225                                                         PARQUE DAS COLINAS       VALINHOS               SP132736401938292923          FEPAR NEGOCIOS E PARTICIPACOES                                        GERENTE - TODAS               AV BRIGADEIRO FARIA LIMA                                146115 ANDA CJT 152                                   JARDIM PAULISTANO        SAO PAULO              SP01452002                            NPE                                          2023030620250104                                                                                                                                                                                                                                                                       MS231536641                   000000000000000000        00000000R19991494540         994941885           988086937           NAORLEIGARCIA@GMAIL.COM                                     
1012024121215       050210003441                  104639579896   MARCIO EVANGELISTA AMARAL                    19620917                                                                                                                                                                                                                                                                                                                                                                                                                                       R PRUDENTE DE MORAIS                              74                                                          SANTA PAULA              SAO CAETANO DO SUL     SP09541450                                                                                          GERENTE - TODAS               R PRUDENTE DE MORAIS                                      74                                                  SANTA PAULA              SAO CAETANO DO SUL     SP09541450                            NPE                                          2024080620250104                                                                                                                                                                                                                                                                       MS                            000000000000000000        00000000R                    11994692523         11979505716                                                                     
1012024121215       030120046631                  172018208772   LUIZ ALBERTO LOMBONI MACIEIRA                19620806                                                                                                                                                                                                                                                                                                                                                                                                                                       AV LUIGI GIOBBI                                   26        CASA 01                                           VL TINGUA                QUEIMADOS              RJ26383340                                                                                                                        AV LUIGI GIOBBI                                           26CASA 01                                           VL TINGUA                QUEIMADOS              RJ263833402126655881                  NPE                                          2024071520241214                                                                                                                                                                                                                                                                       MO                            000000000000000000        00000000R21964740165         995251774           964740165           LUISALLMACIEIRARJ@YAHOO.COM                                 
1012024121215       211570021980                  102213947538   LAERTE BOAVENTURA LIMA                       19860904                                                                                                                                                                                                                                                                                                                                                                                                                                       R CAPAO                                           25        CASA                                              PARQUE IPE               FEIRA DE SANTANA       BA44054177                                                                                          EMPRESARIO                                                                                                                                                                                                                        NPE                                          2023030620250104                                                                                                                                                                                                                                                                       MS0407784790                  000000000000000000        00000000R75991011331         999712356           991011331           LAERTEBOAVENTURA@HOTMAIL.COM                                
1012024121215       021130022689                  102441593005   RITCHELI MOREIRA PEREIRA                     19921002                                                                                                                                                                                                                                                                                                                                                                                                                                       AV FRANCISCO SILVEIRA BITENCOURT                  1818      APTO 404 T 8                                      SARANDI                  PORTO ALEGRE           RS91150010                                                                                          GERENTE - TODAS               AV FRANCISCO SILVEIRA BITENCOURT                        1818                                                  SARANDI                  PORTO ALEGRE           RS91150010                            NPE                                          2023110720250104                                                                                                                                                                                                                                                                       FS7088661645                  000000000000000000        00000000R51985569937         985569937           985569937           RMP_@LIVE.COM                                               
1012024121215       038720004651                  130571854877   AMARILDO JOSE DE OLIVEIRA                    19820817                                                                                                                                                                                                                                                                                                                                                                                                                                       ANTONIO LUCIO DA SILVA                            160                                                         JD DA SERRA              TIETE                  SP18530000                                                                                          APOSENTADO                                                                                                                                                                                                                        NPE                                          2024050620250104                                                                                                                                                                                                                                                                       MS0269038082                  000000000000000000        00000000R981377737           996358861           15981362386         VCO.JMA1@GMAIL.COM                                          
1012024121215       030120055844                  109849664711   NELMA DE ALMEIDA OLIVEIRA                    19790501                                                                                                                                                                                                                                                                                                                                                                                                                                       R BRAULIR DIAS GUIMARAES                          SN        LT 340 QD 16                                      CHACRINHA                JAPERI                 RJ26440515                                                                                          OUTRAS                        R BRAULIR DIAS GUIMARAES                                  SNLT 340 QD 16                                      CHACRINHA                JAPERI                 RJ26440515                            NPE                                          2023020720250104                                                                                                                                                                                                                                                                       FS130930431                   000000000000000000        00000000R21991298814         991298814           21976388051         ANDERSON.A.O.RODRIGUES@GMAIL.COM                            
1012024121215       032690032513                  108546941700   RAPHAELA RANGEL DA SILVA ARAUJO              19800724                                                                                                                                                                                                                                                                                                                                                                                                                                       RUA GUAMA                                         16        BLOCO 7 APT 104                                   BURITIS                  BELO HORIZONTE         MG34000114                    NENHUMA                                                               GERENTE - TODAS               RUA GUAMA                                                 16BLOCO 7 APT 104                                   BURITIS                  BELO HORIZONTE         MG34000114                            NPE                                          2024050620250104                                                                                                                                                                                                                                                                       MS112237573                   000000000000000000        00000000R                    998337106           998337106           RRAPHAELA@YAHOO.COM.BR                                      
1012024121215       023620033683                  108919937460   JEFFERSON DE LIMA                            19890626                                                                                                                                                                                                                                                                                                                                                                                                                                       RUA EGIDIO ANTONIO AZEVEDO                        371       CASA                                              KREQUER                  SAO JOAO BATISTA       SC88240000                                                                                          GERENTE - TODAS               RUA TIJUCAS                                              111GALPAO                                            CENTRO                   SAO JOAO BATISTA       SC882400004839393000                  NPE                                          2022121620250111                                                                                                                                                                                                                                                                       MS6952091                     000000000000000000        00000000R48999698740         999698740           988314298           JEFFERSONLIMAR89@GMAIL.COM                                  
1012024121215       026090006806                  110051206412   THIAGO CARLOS DOS SANTOS                     19901122                                                                                                                                                                                                                                                                                                                                                                                                                                       TV DO CAMPO                                       65                                                          CH? DA JAQUEIRA          MACEIO                 AL570184258221226526                                                                                GERENTE - TODAS               V SECUNDARIA 3                                           185                                                  TABULEIRO DO MARTINS     MACEIO                 AL57081586                            NPE                                          2024050620250104                                                                                                                                                                                                                                                                       MS0638384317                  000000000000000000        00000000R                    21226526            21226526            THIAGO_SANTOSCARLOS@HOTMAIL.COM                             
1012024121215       025500018420                  102203265256   MURILO DA COSTA SILVA                        19920729                                                                                                                                                                                                                                                                                                                                                                                                                                       R CASTELO BRANCO                                  2         CASA                                              AGULHA ICOARACI          BELEM                  PA66811535                                                                                          GERENTE - TODAS               R CASTELO BRANCO                                           2                                                  AGULHA ICOARACI          BELEM                  PA66811535                            NPE                                          2023020720250104                                                                                                                                                                                                                                                                       MS6.500.286                   000000000000000000        00000000R91984830805         984830805           984830805           MURILOESAMARA1992@GMAIL.COM                                 
1012024121215       038840002171                  139701617894   BRUNO LUIZ ANTONIO                           19890803                                                                                                                                                                                                                                                                                                                                                                                                                                       R PEDRO LANA                                      359       BLC 13 APTO 12                                    RECANTO CAMANDUCAIA      JAGUARIUNA             SP13915001                                                                                          OUTRAS                        R PEDRO LANA                                             359BLC 13 APTO 12                                    RECANTO CAMANDUCAIA      JAGUARIUNA             SP13915001                            NPE                                          2023060520250108                                                                                                                                                                                                                                                                       MS46307259                    000000000000000000        00000000R11994574244         998360230           974032844           BRU.ANT89@GMAIL.COM                                         
1012024121215       050210001242                  125632234827   MARIA ROSA DE SILVA CORREIA                  19610828                                                                                                                                                                                                                                                                                                                                                                                                                                       R SANTA EFIGENIA DE MINAS                         31                                                          JARDIM CUMBICA           GUARULHOS              SP07240150                                                                                          OUTRAS                        R SANTA EFIGENIA DE MINAS                                 31                                                  JARDIM CUMBICA           GUARULHOS              SP072401501140045215                  NPE                                          2022121320250115                                                                                                                                                                                                                                                                       FS18719865                    000000000000000000        00000000R11982133328         1124123536          1124123536          JULIANECUSTODIO91@GMAIL.COM                                 
1012024121215       035160001570                  102426713305   JOSEILTON RODRIGUES BEZERRA                  19881115                                                                                                                                                                                                                                                                                                                                                                                                                                       R COLOMBIA                                        66                                                          PARQUE ALVORADA          IMPERATRIZ             MA65915635                    STAMA EQUIPAMENTO INDUSTRIAIS                                         GERENTE - TODAS               R DOM CESARIO                                              7                                                  MARANHAO NOVO            IMPERATRIZ             MA65970230                            NPE                                          2022110520250104                                                                                                                                                                                                                                                                       MS2844967200                  000000000000000000        00000000R99984427791         985448541           984427791           ANACLAUDIA.ESTACIO@GMAIL.COM                                
1012024121215       211570026034                  129310016515   EDVALDO REGINALDO ALVES                      19600917                                                                                                                                                                                                                                                                                                                                                                                                                                       RUA TREZE DE MAIO                                 378                                                         OLIVEIRA                 CAPIM GROSSO           BA44695000                                                                                          EMPRESARIO                                                                                                                                                                                                                        NPE                                          2024090920250104                                                                                                                                                                                                                                                                       MS                            000000000000000000        00000000R                    991541308           991264676           SANDRORIOS7@HOTMAIL.COM                                     
1012024121215       023620031888                  110008277982   ALEF RAMOS                                   19940821                                                                                                                                                                                                                                                                                                                                                                                                                                       R ACENDINO PEDRO DA SILVA                         43                                                          BARRA DO ARIRIU          PALHOCA                SC88134468                                                                                          OUTRAS                        R ACENDINO PEDRO DA SILVA                                 43                                                  BARRA DO ARIRIU          PALHOCA                SC881344681140045215                  NPE                                          2023010620250104                                                                                                                                                                                                                                                                       MS6164712                     000000000000000000        00000000R48998680018         998680018           998478047                                                                       
1012024121215       023790025892                  102588107427   FABIO SIQUEIRA BARBOSA                       19770201                                                                                                                                                                                                                                                                                                                                                                                                                                       SQS 410 BLOCO I                                   201       ENT C APT 201                                     ASA SUL                  BRASILIA               DF70276070                                                                                          OUTRAS                        SQS 410 BLOCO I                                          201ENT C APT 201                                     ASA SUL                  BRASILIA               DF70276070                            NPE                                          2024052720241224                                                                                                                                                                                                                                                                       MS1510980                     000000000000000000        00000000R                    999245387           999245387           BIDOLA827753@GMAIL.COM                                      
1012024121215       036290008222                  104177382779   RENATA ELOY DE LIMA SEBASTIAO                19740921                                                                                                                                                                                                                                                                                                                                                                                                                                       R SEBASTIAO MONTILHA GARCIA                       261                                                         COLISEU                  LONDRINA               PR86076040                                                                                          OUTRAS                        R SEBASTIAO MONTILHA GARCIA                              261                                                  COLISEU                  LONDRINA               PR86076040                            NPE                                          2023030620250104                                                                                                                                                                                                                                                                       FS64.773.720                  000000000000000000        00000000R42988879249         988910085           988238794           RENATA.ELOY@HOTMAIL.COM                                     
1012024121215       035900016362                  106073518889   MARILU BUENO TEIXEIRA DE CARVALHO            19660612                                                                                                                                                                                                                                                                                                                                                                                                                                       AV JOSE DINI                                      325       APTO 52 B3                                        CHACARA AGRINDUS         TABOAO DA SERRA        SP06763015                    NAO INFORMADO                                                         GERENTE - TODAS               AV JOSE DINI                                             325                                                  CHACARA AGRINDUS         TABOAO DA SERRA        SP06763015                            NPE                                          2024050620250104                                                                                                                                                                                                                                                                       FS                            000000000000000000        00000000R                    987209669           954484608           DCIMALU@INCORUSP.BR                                         
1012024121215       035170003992                  117303563890   FABIANA DIB LORENZO                          19751025                                                                                                                                                                                                                                                                                                                                                                                                                                       R PROFESSOR TITO NOVAIS                           300                                                         CIDADE PATRIARCA         SAO PAULO              SP03552060                                                                                          OUTRAS                        R PROFESSOR TITO NOVAIS                                  300                                                  CIDADE PATRIARCA         SAO PAULO              SP03552060                            NPE                                          2023050820250104                                                                                                                                                                                                                                                                       FS22587826                    000000000000000000        00000000R11982442769         982442769           982442769           FABIANA00@UOL.COM.BR                                        
1012024121215       025950065234                  104373673802   APARECIDO INACIO DE MEDEIROS                 19600606                                                                                                                                                                                                                                                                                                                                                                                                                                       R JOSE LINS DO REGO                               98                                                          JARDIM TUPAN             BARUERI                SP06435300                                                                                          APOSENTADO                                                                                                                                                                                                                        NPE                                          2024050620250104                                                                                                                                                                                                                                                                       MS130130345                   000000000000000000        00000000R                    964363297           964363297           ESPIRRO06@HOTMAIL.COM                                       
1012024121215       036180005797                  191570263515   ADRIANA MARTINEZ MARTINS                     19770226                                                                                                                                                                                                                                                                                                                                                                                                                                       R RAUL LEITE                                      1470      T 1 APTO 2606                                     VILA LAURA               SALVADOR               BA40270180                                                                                          EMPRESARIO                                                                                                                                                                                                                        NPE                                          2024031520250104                                                                                                                                                                                                                                                                       FS528393383                   000000000000000000        00000000R                    999518038           40045215            MMARTINSADRI@GMAIL.COM                                      
1012024121215       211570024010                  125460781353   DORALUCIA DIAS LEAL                          19560405                                                                                                                                                                                                                                                                                                                                                                                                                                       R TONICO LEMOS                                    10                                                          ALTO MARON               VITORIA DA CONQUISTA   BA45005390                                                                                          APOSENTADO                                                                                                                                                                                                                        NPE                                          2024031520250104                                                                                                                                                                                                                                                                       FS                            000000000000000000        00000000R                    77988837375         7730827575                                                                      
1012024121215       035900017338                  100975191896   ADELMANO AMARAL PINTO                        19590830                                                                                                                                                                                                                                                                                                                                                                                                                                       R WILSON GOMES DE AZEVEDO                         237                                                         PARQUE CONTINENTAL       GUARULHOS              SP07073187                                                                                          APOSENTADO                                                                                                                                                                                                                        NPE                                          2024110520250102                                                                                                                                                                                                                                                                       MS                            000000000000000000        00000000R                    972022146           972022146                                                                       
1012024121215       026980010584                  133716363804   ELIANE BASTOS LOURENCO                       19861023                                                                                                                                                                                                                                                                                                                                                                                                                                       AV SARGENTO PESSOTO                               1359                                                        VILA CAMARGO             LIMEIRA                SP13486083                    NAO INFORMADO                                                         GERENTE - TODAS               AV SARGENTO PESSOTO                                     1359                                                  VILA CAMARGO             LIMEIRA                SP13486083                            NPE                                          2024090920250104                                                                                                                                                                                                                                                                       FS                            000000000000000000        00000000R                    988413517           19992644495         RICARDOLEITELOURENCO@YAHOO.COM.BR                           
1012024121215       050090001055                  111914237862   CLAUDIA MASELLA VELLOSO                      19690629                                                                                                                                                                                                                                                                                                                                                                                                                                       AV IMPERATRIZ LEOPOLDINA                          1110      AP 14 BL C                                        VILA LEOPOLDINA          SAO PAULO              SP05305001                    INSTITUTO IDEIA FERTIL SAUDE R                                        GERENTE - TODAS               R ARAGUARI                                               652                                                  VILA UBERABINHA          SAO PAULO              SP045140411131920901                  NPE                                          2024100820250104                                                                                                                                                                                                                                                                       FS117232221                   000000000000000000        00000000R11974752700         974752700           1129352498          CLAUVELLO@GMAIL.COM                                         
1012024121215       035900014186                  107412694812   FRANCISCO JOSE GENTILE                       19640719                                                                                                                                                                                                                                                                                                                                                                                                                                       R JOSE BENEDITO SALINAS                           110       AP 132 A                                          JARDIM ITAPEVA           SAO PAULO              SP04674200                                                                                          OUTRAS                        R JOSE BENEDITO SALINAS                                  110AP 132 A                                          JARDIM ITAPEVA           SAO PAULO              SP04674200                            NPE                                          2023080720250104                                                                                                                                                                                                                                                                       MS0741269481                  000000000000000000        00000000R                                                                                                                        
1012024121215       050060001243                  103008990177   JOANA D ARKE VIEIRA DE ANDRADE               19870621                                                                                                                                                                                                                                                                                                                                                                                                                                       QR CONJUNTO B                                     17                                                          SANTA MARIA              BRASILIA               DF72545402                    NENHUMA                                                               GERENTE - TODAS               QR  CONJUNTO B                                            17                                                  SANTA MARIA              BRASILIA               DF72545402                            NPE                                          2024031520250104                                                                                                                                                                                                                                                                       MS2476331                     000000000000000000        00000000R991902241           994354899           993272744           DARKE884@GMAIL.COM                                          
1012024121215       049230000263                  106093651428   ANA CAROLINA AMORIM SANTOS                   19860613                                                                                                                                                                                                                                                                                                                                                                                                                                       AV JUCA SAMPAIO                                   2474      BL C 202                                          BARRO DURO               MACEIO                 AL57045365                    NAO INFORMADO                                                         GERENTE - TODAS               AV JUCA SAMPAIO                                         2474                                                  BARRO DURO               MACEIO                 AL57045365                            NPE                                          2024070820250111                                                                                                                                                                                                                                                                       FS                            000000000000000000        00000000R                    82991078818         82988460918         AMORIM_ANACAROLINA@HOTMAIL.COM                              
1012024121215       035210003586                  116699953800   EMERSON MOREIRA LAMAS                        19761210                                                                                                                                                                                                                                                                  11968502967                                                                                                                                                          R IRMAOS INDIOS                                   4                                                           CJ HAB JD S BENTO        SAO PAULO              SP05885710                    EMERSON MOREIRA LAMAS                                                 CORRETOR                      R IRMAOS INDIOS                                            4                                                  CJ HAB JD S BENTO        SAO PAULO              SP05885710                            NPE                                          2023060620250104                                                                                                                                                                                                                                                                       MC27231460                    000000000000000000        00000000R11999911594         999911594           947502577                                                                       
1012024121215       050320000167                  105310291660   GUILHERME CARVALHO LEITE                     19830904                                                                                                                                                                                                                                                                                                                                                                                                                                       AV INSPETOR JONAS PEZZO COSTA                     1025                                                        VILA NOVA                ITAMONTE               MG37466000                                                                                          GERENTE - TODAS               RUA AUREO MARANHAO                                       546                                                  VILA NOVA                ITAMONTE               MG374660001140045215                  NPE                                          2022120720250104                                                                                                                                                                                                                                                                       MS0217876052                  000000000000000000        00000000R12981175130         997013481           981175130           GUI_CLEITE@YAHOO.COM.BR                                     
1012024121215       050220005193                  107031811902   GUILHERME GONCALVES FAGUNDES ZIMMERMANN      19960430                                                                                                                                                                                                                                                                                                                                                                                                                                       R ALBERTO KRAMER                                  627       CASA                                              C RASO                   CURITIBA               PR81150170                    BARIGUI VEICULOS                                                                                    R AGOSTINHO                                             3060                                                  BIGORRILHO               CURITIBA               PR80710000                            NPE                                          2023020720250104                                                                                                                                                                                                                                                                       MC125934269                   000000000000000000        00000000R41998414257         998414257           998414257           GUILHERMEFAGUNDESCONTABIL@GMAIL.COM                         
1012024121215       036280002962                  118345039812   WILLAMS SANTOS SILVA                         19770708                                                                                                                                                                                                                                                                                                                                                                                                                                       R MANOEL PEREIRA DA SILVA                         157                                                         JARDIM MUTINGA           BARUERI                SP06463160                    NAO INFORMADO                                                         GERENTE - TODAS               R MANOEL PEREIRA DA SILVA                                157                                                  JARDIM MUTINGA           BARUERI                SP06463160                            NPE                                          2023120620250104                                                                                                                                                                                                                                                                       MS28025911                    000000000000000000        00000000R                    943430346           943430346           SMALLIW-PR@HOTMAIL.COM                                      
1012024121215       038720002748                  152427323500   JOSE CANDIDO DA SILVA FILHO                  19631013                                                                                                                                                                                                                                                                                                                                                                                                                                       R SERRA NEGRA                                     331       CASA                                              PRAIA DO MORRO           GUARAPARI              ES29216560                                                                                          GERENTE - TODAS               R TOLEDO                                                  80                                                  PRAIA DO MORRO           GUARAPARI              ES29216490                            NPE                                          2023051620250104                                                                                                                                                                                                                                                                       MS2541607                     000000000000000000        00000000R27997939206         998580212           988260381           JC.MECANDIDO2@GMAIL.COM                                     
1012024121215       021130023530                  156098650004   JAIR OLIVEIRA PEREIRA                        19711004                                                                                                                                                                                                                                                                                                                                                                                                                                       R DOS CARDEAIS                                    172                                                         JARDIM ALGARVE           ALVORADA               RS94859290                    PLENOBRAS                                                             GERENTE - TODAS               R VOLUNTARIOS DA PATRIA                                 2035                                                  FLORESTA                 PORTO ALEGRE           RS90230011                            NPE                                          2023100620250104                                                                                                                                                                                                                                                                       MS3038334656                  000000000000000000        00000000R51991127326         22001489            22001489            OLIVEIRAPEREIRAJAIR@GMAIL.COM                               
1012024121215       026810013669                  146488820168   HELENA LIMA DE OLIVEIRA NETO                 19690824                                                                                                                                                                                                                                                                                                                                                                                                                                       R JOAO NEPOMUCENO                                 520                                                         PIONEIROS                CAMPO GRANDE           MS79070241                                                                                          OUTRAS                        R JOAO NEPOMUCENO                                        520                                                  PIONEIROS                CAMPO GRANDE           MS79070241                            NPE                                          2023100620250104                                                                                                                                                                                                                                                                       FS                            000000000000000000        00000000R                                                            CA.SEGUROS@OUTLOOK.COM                                      
1012024121215       032690011786                  109215231650   MATEUS SIMAO CALDAS                          19940607                                                                                                                                                                                                                                                                                                                                                                                                                                       RUA ELIAS JOSE SAYAO                              95                                                          SANTA LUZIA              PITANGUI               MG35650000                    UPA ANTONIO JOSE DOS SANTOS                                           GERENTE - TODAS               RUA PADRE JOSE LUIS                                      440                                                  SAO MARCOS               NOVA SERRANA           MG335190003732266166                  NPE                                          2022120720250104                                                                                                                                                                                                                                                                       MSMG14680077                  000000000000000000        00000000R37988038806         988038806           988038806           MATEUSMSC94@GMAIL.COM                                       
1012024121215       036100003200                  122666178854   JOSE WILSON VERISSIMO DA SILVA               19831215                                                                                                                                                                                                                                                                                                                                                                                                                                       LORETO                                            403       AP 44 A BL 70                                     JARDIM SANTO ANDRE       SANTO ANDRE            SP09132410                    NENHUMA                                                               GERENTE - TODAS               LORETO                                                   403AP A                                              JARDIM SANTO ANDRE       SANTO ANDRE            SP09132410                            NPE                                          2023030620250104                                                                                                                                                                                                                                                                       MS46965532                    000000000000000000        00000000R                                                            ESTERBRUNA@GMAIL.COM                                        
1012024121215       026980005785                  138667733822   DIEGO PELLANI DA SILVA                       19910926                                                                                                                                                                                                                                                                                                                                                                                                                                       R EDUARDO ROMERA BONILLA                          198                                                         JARDIM NILTON TORRES     SOROCABA               SP18105524                                                                                          GERENTE - TODAS               R EDUARDO ROMERA BONILLA                                 198                                                  JARDIM NILTON TORRES     SOROCABA               SP18105524                            NPE                                          2023042620250111                                                                                                                                                                                                                                                                       MS48507046                    000000000000000000        00000000R15997644973         997644973           15996377457         ALESSANDRINHALINS.D@GMAIL.COM                               
1012024121215       026210001038                  123425958836   EMERSON COUTINHO                             19911029                                                                                                                                                                                                                                                                                                                                                                                                                                       R BARAO DE JAGUARA                                380       CASA                                              MOOCA                    SAO PAULO              SP03105120                                                                                          GERENTE - TODAS               R BARAO DE JAGUARA                                       380                                                  MOOCA                    SAO PAULO              SP03105120                            NPE                                          2023091920250104                                                                                                                                                                                                                                                                       MS476736079                   000000000000000000        00000000R11981013028         981013028           930500209           EMERSON.PEDRO.DAVI@GMAIL.COM                                
1012024121215       036100003385                  133492394809   RAFAEL RAMOS DE MELO                         19620305                                                                                                                                                                                                                                                                                                                                                                                                                                       R HAITI                                           AP 04                                                       PRQ NACOES               SANTO ANDRE            SP09280390                                                                                          EMPRESARIO                                                                                                                                                                                                                        NPE                                          2023050820250110                                                                                                                                                                                                                                                                       MS14664228                    000000000000000000        00000000R11961137769         961137769           961137769           RAFAEL@NOVOCONCEITOSEGUROS.COM.BR                           
1012024121215       035210004752                  118965003822   JOSE NILTON DA SILVA                         19741118                                                                                                                                                                                                                                                                                                                                                                                                                                       R ALVARO PAES LEME                                40                                                          PARQUE RESIDENCIAL COCAIASAO PAULO              SP04849070                                                                                          OUTRAS                        R ALVARO PAES LEME                                        40                                                  PARQUE RESIDENCIAL COCAIASAO PAULO              SP04849070                            NPE                                          2023030620250104                                                                                                                                                                                                                                                                       MS2763799366                  000000000000000000        00000000R11965643346         983045667           959337154           ROSE.SHEILALIMA@GMAIL.COM                                   
1012024121215       035730005893                  104694967118   MARCO ANTONIO PERES SILVA                    20000226                                                                                                                                                                                                                                                                                                                                                                                                                                       R C 59                                            SN        QD 119 LT 07                                      ST SUDOESTE              GOIANIA                GO74305380                    LIBBS FARMACEUTICA                                                    GERENTE - TODAS               R C58                                                     SN                                                  SETOR SUDOESTE           GOIANIA                GO74305370                            NPE                                          2023091220250115                                                                                                                                                                                                                                                                       MS0469496711                  000000000000000000        00000000R996784199           996033010           996033010           MARCOANTPERES@GMAIL.COM                                     
1012024121215       004110009408                  117894544841   VITALINO APARECIDO DOS SANTOS                19750815                                                                                                                                                                                                                                                                                                                                                                                                                                       R CARLOS HUMEL GUIMARAES                          750                                                         JARDIM TAMOIO            JUNDIAI                SP13219240                                                                                          EMPRESARIO                                                                                                                                                                                                                        NPE                                          2023051220250104                                                                                                                                                                                                                                                                       MS25650228                    000000000000000000        00000000R11994406716         997204572           963927053           VITALCJR@OUTLOOK.COM                                        
1012024121215       023790015970                  107937186356   MARCOS LUAN GOMES DE SOUSA                   19960925                                                                                                                                                                                                                                                                                                                                                                                                                                       Q QNC                                             03        08 LT 04 KIT                                      TAGUATINGA NORTE TAGUATINBRASILIA               DF72115580                                                                                          OUTRAS                        Q QNC                                                     0308 LT 03                                          TAGUATINGA NORTE TAGUATINBRASILIA               DF721155801140045215                  NPE                                          2023020720250104                                                                                                                                                                                                                                                                       MO3770934                     000000000000000000        00000000R61981342979         999649546           984186530           ALBERTOBETINHO22@GMAIL.COM                                  
1012024121215       027120017047                  107128291806   SILVIA HELENA DOS SANTOS                     19690516                                                                                                                                                                                                                                                                                                                                                                                                                                       R MILTON DE ANDRADA                               140                                                         CONJUNTO RESIDENCIAL ELMASAO JOSE DOS CAMPOS    SP12234590                    INSTITUTO DAS P M DE MARIA 1                                          GERENTE - TODAS               R PARAGUASSU                                              51                                                  SANTANA                  SAO JOSE DOS CAMPOS    SP122121101239283300                  NPE                                          2023060520250102                                                                                                                                                                                                                                                                       FS20.438.859                  000000000000000000        00000000R                    982133123           982133123           SILVIA.4775@HOTMAIL.COM                                     
1012024121215       003640030174                  198537130800   LUCAS ANTONIO LEITE                          19580518                                                                                                                                                                                                                                                                                                                                                                                                                                       RUA GENEREAL W DE LIMA                            467                                                         CENTRO                   IBIUNA                 SP18150000                                                                                          OUTRAS                        RUA GENEREAL W DE LIMA                                   467                                                  CENTRO                   IBIUNA                 SP18150000                            NPE                                          2023020720250104                                                                                                                                                                                                                                                                       MS0074986648                  000000000000000000        00000000R                                                                                                                        
1012024121215       035900001748                  107427098846   EDSON SOUZA DOS SANTOS                       19660601                                                                                                                                                                                                                                                                                                                                                                                                                                       R ANTONIO LOPES DE BARROS                         792       CASA 2                                            JARDIM PERI              SAO PAULO              SP02675000                    N A                                                                   OUTRAS                        R ANTONIO LOPES DE BARROS                                792CASA 2                                            JARDIM PERI              SAO PAULO              SP02675000                            NPE                                          2024012220241221                                                                                                                                                                                                                                                                       MS196762443                   000000000000000000        00000000R                                                            PREVIVIDASEGUROS@GMAIL.COM                                  
1012024121215       038720004214                  109433276795   WILIAN PEREIRA DA SILVA                      19800606                                                                                                                                                                                                                                                                                                                                                                                                                                       RUA TAPEVI                                        SN        L24Q46 CS3                                        SAO F DE ASSIS           BELFORD ROXO           RJ26123470                    WPS CORRETORA LTDA                                                    CORRETOR                      R TAPEVI                                                  SNL24Q46CS3 PARTE                                   SAO F DE ASSIS           BELFORD ROXO           RJ26125470                            NPE                                          2024022020241219                                                                                                                                                                                                                                                                       MS1328166                     000000000000000000        00000000R                    994415952           21992018006         WILIANSEGUROS8@GMAIL.COM                                    
1012024121215       023620043770                  130601808819   ELECI CORREA GENTIL                          19790401                                                                                                                                                                                                                                                                                                                                                                                                                                       AV PRESIDENTE CASTELO BRANCO                      4460      AP41                                              AVIACAO                  PRAIA GRANDE           SP11702705                    NAO INFORMADO                                                         GERENTE - TODAS               AV PRESIDENTE CASTELO BRANCO                            4460                                                  AVIACAO                  PRAIA GRANDE           SP11702705                            NPE                                          2024080520250107                                                                                                                                                                                                                                                                       MS                            000000000000000000        00000000R996236226           991514057           991514057           ELECIKIKO@ICLOUD.COM                                        
1012024121215       027560002748                  146036095821   AUGUSTO CESAR MACHADO DE VITA                20010810                                                                                                                                                                                                                                                          00000000                                                                                                                        KELEN MARIA MACHADO                          RUA CARAMURU                                      432                                                         PEDREGULHO               GUARATINGUETA          SP125151351231081997                                                                                                              R DOUTOR JOSE FOSTER JUNIOR                              288                                                  VILA SANTA ROSA          GUARUJA                SP114313001221312400                                                               2022110720250103                                                                                                                                                                                                                                                                         56836124  SP                000000000000000000        00000000R12988655305         997543383           981724706           MICHELEGUIMARAES415@GMAIL.COM                               
1012024121215       023570001481                  100771878818   JOSE EDMILSON DE SOUZA                       19600120                                                                                                                                                                                                                                                                                                                                                                                                                                       R MARIA AMALIA LOPES AZEVEDO                      3130                                                        VILA ALBERTINA           SAO PAULO              SP02350003                                                                                          GERENTE - TODAS               R MARIA AMALIA LOPES AZEVEDO                            3130                                                  VILA ALBERTINA           SAO PAULO              SP02350003                            NPE                                          2023080720250104                                                                                                                                                                                                                                                                       MS12483126                    000000000000000000        00000000R11972769335         972769335           953382406           J.EDMILSON.SOUZA2013@BOL.COM.BR                             
