001202412142024121400000109
1012024121415       038720005144                  130455939845   EDUARDO CARDOSO                              19820827                                                                                                                                                                                                                                                                                                                                                                                                                                       R ELLEN MARGARETH KAISEN                          305                                                         PARQUE LAGOA SERENA      PORTO FERREIRA         SP13661090                                                                                          GERENTE - TODAS               R ELLEN MARGARETH KAISEN                                 305                                                  PARQUE LAGOA SERENA      PORTO FERREIRA         SP13661090                            NPE                                          2024110820250106                                                                                                                                                                                                                                                                       MS0331862168                  000000000000000000        00000000R                    974010511           974010511                                                                       
1012024121415       053160007255                  190871065991   IVENIO ALVES DOS SANTOS                      19730925                                                                                                                                                                                                                                                                                                                                                                                                                                       INAJA                                             1168      CASA 3                                            EMILIANO PERNETA         PINHAIS                PR83324225                                                                                          EMPRESARIO                    INAJA                                                   1168CASA 3                                            EMILIANO PERNETA         PINHAIS                PR83324225                            NPE                                          2024110820250106                                                                                                                                                                                                                                                                       MS                            000000000000000000        00000000R                    984552937           984552937                                                                       
1012024121415       035660019184                  112275152865   SUELY GALEGO MONTORO                         19530621                                                                                                                                                                                                                                                                                                                                                                                                                                       R DAVID BARRETO                                   70                                                          JD P DI ROMA II          SOROCABA               SP18051829                    N A                                                                   OUTRAS                        R DAVID BARRETO                                           70                                                  JD P DI ROMA II          SOROCABA               SP180518291140045215                  NPE                                          2022120820250106                                                                                                                                                                                                                                                                       FS6.003.592                   000000000000000000        00000000R15997059513         997059513           997059513           MA.SU.MONTORO@HOTMAIL.COM                                   
1012024121415       005200025526                  140147878934   PAULO GONCALVES DOS SANTOS                   19590502                                                                                                                                                                                                                                                                                                                                                                                                                                       R RUY FONSECA ITIBERE DA CUNHA                    671                                                         C INDUSTRIAL             CURITIBA               PR81170265                                                                                          APOSENTADO                                                                                                                                                                                                                        NPE                                          2022120820250106                                                                                                                                                                                                                                                                       MS300045211                   000000000000000000        00000000R41987142183         997408926           987142183                                                                       
1012024121415       003640024157                  126898992805   FABIANO SILVA ILARIO                         19780904                                                                                                                                                                                                                                                                                                                                                                                                                                       RUA ROSALINA OVIDIO DA SILVEIRA                   62        A                                                 NOVA TANABI              TANABI                 SP15170000                                                                                          OUTRAS                        RUA ROSALINA OVIDIO DA SILVEIRA                           62A                                                 NOVA TANABI              TANABI                 SP151700001140045215                  NPE                                          2022120820250106                                                                                                                                                                                                                                                                       MS32285327                    000000000000000000        00000000R17992114578         992114578           992001468           DEBORAILARIO@HOTMAIL.COM                                    
1012024121415       022800013458                  105287888171   MARCO AURELIO DE SOUSA FILGUEIRA             19960708                                                                                                                                                                                                                                                                                                                                                                                                                                       R COPA 17                                         SN        QD 21 LT42                                        RESIDENCIAL COPACABANA   ANAPOLIS               GO75136138                    VITAL AUTO PECAS                                                      GERENTE - TODAS               AV CONTORNO                                               SNLT 17 E 18                                        PARQUE SAO JOAO          ANAPOLIS               GO751262756233456789                  NPE                                          2023030620250104                                                                                                                                                                                                                                                                       MS0714856146                  000000000000000000        00000000R62992688659         992688659           62992147804         MARCOAURELIOSOUSA697@GMAIL.COM                              
1012024121415       030120086046                  112192538200   LILIA MARIA FONSECA DE AZEVEDO               19610409                                                                                                                                                                                                                                                                                                                                                                                                                                       R DOS PROVERBIOS                                  160       AP. 02 BL.4                                       SANTA CANDIDA            CURITIBA               PR82630220                                                                                          OUTRAS                        R DOS PROVERBIOS                                         160AP. 02 BL.                                        SANTA CANDIDA            CURITIBA               PR82630220                            NPE                                          2022120820250106                                                                                                                                                                                                                                                                       FS89962145                    000000000000000000        00000000R41997347818         997347818           4130779421          AZEVEDO.LILIA@HOTMAIL.COM                                   
1012024121415       211570017840                  105932320540   GESSICA CATARINA SANTANA N SANTOS            19940609                                                                                                                                                                                                                                                                                                                                                                                                                                       AV QUEIRA DEUS                                    78                                                          PORTAO                   LAURO DE FREITAS       BA42713480                    SECRETARIA MUNICIPAL DE CULTUR                                        GERENTE - TODAS               UNDEFINED UNDEFINED                                       00KM 06                                             CENTRO                   LAURO DE FREITAS       BA427039707133699210                  NPE                                          2022110520250106                                                                                                                                                                                                                                                                       FS1613445504                  000000000000000000        00000000R71991623059         33699210            33699210            KAT.GESSICA@GMAIL.COM                                       
1012024121415       026980005872                  134895498808   RENATA CASATI DE SOUSA CARVALHO              19880127                                                                                                                                                                                                                                                                                                                                                                                                                                       R CANADA                                          467       CASA                                              PARQUE DAS NACOES        AMERICANA              SP13470180                                                                                          OUTRAS                        R CANADA                                                 467CASA                                              PARQUE DAS NACOES        AMERICANA              SP134701801936452479                  NPE                                          2023010920250106                                                                                                                                                                                                                                                                       FS42542909                    000000000000000000        00000000R19992719673         992719673           992719673           RODRIGO@BIANCOSEGUROS.COM.BR                                
1012024121415       005200029874                  105111350926   MARCOS DE CARVALHO ROCHA                     19860627                                                                                                                                                                                                                                                                                                                                                                                                                                       R CASIMIRO GROCHKA                                88                                                          CONTENDA                 SAO JOSE DOS PINHAIS   PR83095800                                                                                          EMPRESARIO                                                                                                                                                                                                                        NPE                                          2024040920250106                                                                                                                                                                                                                                                                       MS80714637                    000000000000000000        00000000R41991118272         991118272           984310239           DAROCHAENGENHARIA@UOL.COM.BR                                
1012024121415       053160004873                  112195934867   ROGERIO RIBEIRO DE SANTANA                   19720130                                                                                                                                                                                                                                                                                                                                                                                                                                       R JOSE GERALDO DE OLIVEIRA COSTA                  80                                                          ESPLANADA INDEPENDENCIA  TAUBATE                SP12040672                                                                                          OUTRAS                        R JOSE GERALDO DE OLIVEIRA COSTA                          80                                                  ESPLANADA INDEPENDENCIA  TAUBATE                SP12040672                            NPE                                          2024041520250117                                                                                                                                                                                                                                                                       MS                            000000000000000000        00000000R                    996554348           996554348                                                                       
1012024121415       211570015071                  180610145568   ROGERIO SILVA CARVALHO                       19791022                                                                                                                                                                                                                                                                                                                                                                                                                                       R GERVASIO CERQUEIRA                              133       E                                                 ITACARANHA               SALVADOR               BA40713160                                                                                          OUTRAS                        R GERVASIO CERQUEIRA                                      33                                                  ITACARANHA               SALVADOR               BA40713160                            NPE                                          2023120420250102                                                                                                                                                                                                                                                                       MS0473585913                  000000000000000000        00000000R71982578700         991080289           71984770016         TECMAIS@HOTMAIL.COM                                         
1012024121415       051920001961                  101228934258   SUZICLEIA FIGUEIREDO PINHEIRO                19920912                                                                                                                                                                                                                                                                                                                                                                                                                                       RUA VINTE E SETE                                  11        QD 78 LT 11                                       DELTA PARK II            MARABA                 PA68500001                                                                                          OUTRAS                        RUA VINTE E SETE                                          11QD 78 LT 11                                       DELTA PARK II            MARABA                 PA68500001                            NPE                                          2023060920250106                                                                                                                                                                                                                                                                       FS0530369243                  000000000000000000        00000000R94992016387         992016387           94991246101         SUZY.PINHEIRO3@GMAIL.COM                                    
1012024121415       038720002047                  129105524890   DJALMA SIQUEIRA ROCHA CAMARGO                19790614                                                                                                                                                                                                                                                                                                                                                                                                                                       R WERNER GOLDBERG                                 179       AP 265 TORRE B                                    JD TUPANCI               BARUERI                SP0641402519940092016         VIDROLOGIA COMENRCIO DE VIDROS                                                                      R PARAISO                                                  6                                                  C MARCO                  BARUERI                SP06419040                            NPE                                          2024042920241227                                                                                                                                                                                                                                                                       MO30.861.289                  000000000000000000        00000000R948986485           963191701           940092016           BETAVEICULOS@YAHOO.COM.BR                                   
1012024121415       035900016689                  144828597883   GUILHERME FELLA DE LIMA                      19980302                                                                                                                                                                                                                                                                                                                                                                                                                                       R ALVARO RODRIGUES                                1018                                                        VILA CORDEIRO            SAO PAULO              SP04582002                                                                                          GERENTE - TODAS               R ALVARO RODRIGUES                                      1018                                                  VILA CORDEIRO            SAO PAULO              SP04582002                            NPE                                          2024061020250106                                                                                                                                                                                                                                                                       MS                            000000000000000000        00000000R11989430448         989430448           989430448                                                                       
1012024121415       036100004904                  136455204816   RAQUEL SOUZA FERREIRA                        19861230                                                                                                                                                                                                                                                                                                                                                                                                                                       AGOSTINHO THEODORO                                95                                                          JARDIM ZAIRA             MAUA                   SP09321012                    NENHUMA                                                               GERENTE - TODAS               AGOSTINHO THEODORO                                        95                                                  JARDIM ZAIRA             MAUA                   SP09321012                            NPE                                          2024040920250106                                                                                                                                                                                                                                                                       MS344578124                   000000000000000000        00000000R                                                                                                                        
1012024121415       059630000502                  106823261862   SILVIA DELFINO SANTIAGO SOLLER               19670506                                                                                                                                                                                                                                                                                                                                                                                                                                       AV CARLOS REINALDO MENDES                         3500                                                        A PONTE                  SOROCABA               SP18013280                    NENHUMA                                                               GERENTE - TODAS               AV CARLOS REINALDO MENDES                               3500                                                  A PONTE                  SOROCABA               SP18013280                            NPE                                          2024120920250106                                                                                                                                                                                                                                                                       MS                            000000000000000000        00000000R                                                                                                                        
1012024121415       211040047831                  133293402828   ELISANGELA APARECIDA DA SILVA                19860707                                                                                                                                                                                                                                                                                                                                                                                                                                       IZAURA AMBROZIO GONCALVES                         296                                                         BETEL                    PAULINIA               SP13148204                                                                                          EMPRESARIO                    IZAURA AMBROZIO GONCALVES                                296                                                  BETEL                    PAULINIA               SP13148204                            NPE                                          2024120920250106                                                                                                                                                                                                                                                                       MS34741927                    000000000000000000        00000000R                                                                                                                        
1012024121415       063610000093                  104971955690   LUCIANO REZENDE SILVA                        19830704                                                                                                                                                                                                                                                                                                                                                                                                                                       AV BARAO DO RIO BRANCO                            4335      201                                               CENTRO                   JUIZ DE FORA           MG36035000                    NAO INFORMADO                                                         GERENTE - TODAS               AV BARAO DO RIO BRANCO                                  4335201                                               CENTRO                   JUIZ DE FORA           MG36035000                            NPE                                          2024110820250106                                                                                                                                                                                                                                                                       MS                            000000000000000000        00000000R                    988447821           988447821                                                                       
1012024121415       021130027651                  181256108120   SIDNEI MORESCO                               19760913                                                                                                                                                                                                                                                                                                                                                                                                                                       AV NAPOLI                                         SN        QD1 A LT 0                                        RES E EXPANSAO           GOIANIA                GO74375753                                                                                                                                                                                                                                                                                                                            NPE                                          2024100820250106                                                                                                                                                                                                                                                                       MO                            000000000000000000        00000000R                                                                                                                        
1012024121415       026980008374                  122477302809   ULISSES DOS SANTOS                           19830725                                                                                                                                                                                                                                                                                                                                                                                                                                       AL ACACIAS                                        284                                                         PRQ M VASCONCELOS        SUMARE                 SP13174555                                                                                                                                                                                                                                                                                                                            NPE                                          2024100820250106                                                                                                                                                                                                                                                                       MO                            000000000000000000        00000000R                                                                                                                        
1012024121415       050770000352                  151065827334   MARIA DO SOCORRO DOS SANTOS BEZERRA          19660611                                                                                                                                                                                                                                                                                                                                                                                                                                       R GENARIO TEIXEIRA                                21                                                          ENGENHEIRO LUCIANO CAVALCFORTALEZA              CE60810370                                                                                          OUTRAS                        R GENARIO TEIXEIRA                                        21                                                  ENGENHEIRO LUCIANO CAVALCFORTALEZA              CE60810370                            NPE                                          2024091620241217                                                                                                                                                                                                                                                                       FS                            000000000000000000        00000000R                    989731479           989731479           KAROLYNESANTOSBEZERRA@GMAIL.COM                             
1012024121415       000830036022                  143572641896   BRUNA LIMA DA ROSA ISMAEL                    19970305                                                                                                                                                                                                                                                                                                                                                                                                                                       R ANTONIO GONCALVES DE SOUZA                      80        APTO 28                                           NUCLEO RESIDENCIAL PEDRO ITATIBA                SP13254205                    ROBERT JOHN VAN DIJK                                                  GERENTE - TODAS               AL DOS SOMBREIROS                                       1480                                                  CONDOMINIO QUINTA DA BAROBRAGANCA PAULISTA      SP12918028                            NPE                                          2023110820250106                                                                                                                                                                                                                                                                       FS495446543                   000000000000000000        00000000R                                                                                                                        
1012024121415       038710000006                  116861779334   FRANCISCO ROBERTO DE SOUZA VIANA             19610513                                                                                                                                                                                                                                                                                                                                                                                                                                       R ANTONIO LAFAYETE                                248                                                         PRES KENNEDY             FORTALEZA              CE60356140                                                                                                                        R ANTONIO LAFAYETE                                       248                                                  PRES KENNEDY             FORTALEZA              CE603561401140045215                  NPE                                          2022110520250106                                                                                                                                                                                                                                                                       MS920020912                   000000000000000000        00000000R85999373627         999373627           987759476           LARYOPN@GMAIL.COM                                           
1012024121415       038720003113                  107075398709   LELIO RICARDO GOMES RIBEIRO                  19751116                                                                                                                                                                                                                                                                                                                                                                                                                                       ST SHCES QUADRA                                   401       APTO                                              CRUZEIRO NOVO            BRASILIA               DF70655730                                                                                          EMPRESARIO                    Q QND                                                     1920                                                TAGUATINGA NORTE TAGUATINBRASILIA               DF72120140                            NPE                                          2023071220250106                                                                                                                                                                                                                                                                       MO100018621                   000000000000000000        00000000R61998061610         995863422           61996730749         FETHI1@NETLAND.COM.BR                                       
1012024121415       035900009271                  120456798889   SILVANO FERREIRA DOS SANTOS                  19750310                                                                                                                                                                                                                                                                                                                                                                                                                                       R BELA CINTRA                                     188       AP 62                                             CONSOLACAO               SAO PAULO              SP01415000                    INSTITUTO PRESBITERIANO MACKEN                                        GERENTE - TODAS               R ITACOLOMI                                              4127 ANDAR                                           HIGIENOPOLIS             SAO PAULO              SP01239020                            NPE                                          2024041520250117                                                                                                                                                                                                                                                                       MS284916511                   000000000000000000        00000000R                    997988100           32514720            SILVANOFERREIRADOSSANTOS@GMAIL.COM                          
1012024121415       025950032951                  126834788875   RENATA PERO TINOCO                           19770609                                                                                                                                                                                                                                                                                                                                                                                                                                       AV OURO FINO                                      131       CASA                                              BOSQUE DOS EUCALIPTOS    SAO JOSE DOS CAMPOS    SP12233400                                                                                          GERENTE - TODAS               AV OURO FINO                                             131                                                  BOSQUE DOS EUCALIPTOS    SAO JOSE DOS CAMPOS    SP122334001140045215                  NPE                                          2024100820250106                                                                                                                                                                                                                                                                       FS268761668                   000000000000000000        00000000R12981621261         981621261           981621261                                                                       
1012024121415       211040031650                  122096974844   CARMEN PATRICIA VIRGINIA ZAMBONINI           19750413                                                                                                                                                                                                                                                                                                                                                                                                                                       R PROFESSORA ZITA MAFFUD SECAF                    132                                                         JARDIM ORESTES LOPES DE CRIBEIRAO PRETO         SP14066436                                                                                          OUTRAS                        R PROFESSORA ZITA MAFFUD SECAF                           132                                                  JARDIM ORESTES LOPES DE CRIBEIRAO PRETO         SP14066436                            NPE                                          2023121120250113                                                                                                                                                                                                                                                                       FS28499506                    000000000000000000        00000000R992535603           993464036           34422545            NILTONCESARREPRES@HOTMAIL.COM                               
1012024121415       021980015012                  101503557855   TEREZINHA APARECIDA SANTANA ZANOTI           19650127                                                                                                                                                                                                                                                                                                                                                                                                                                       RUA FLAUZINA LIBERATA DE JESUS                    771                                                         JARDIM PAULISTA          ASSIS                  SP19815020                                                                                          EMPRESARIO                    RUA FLAUZINA LIBERATA DE JESUS                           771                                                  JARDIM PAULISTA          ASSIS                  SP19815020                            NPE                                          2023090820250106                                                                                                                                                                                                                                                                       MS                            000000000000000000        00000000R                                                                                                                        
1012024121415       025950034086                  193967896900   PLINIO JULIO DA SILVA JUNIOR                 19740601                                                                                                                                                                                                                                                                                                                                                                                                                                       RUA PRESIDENTE GETULIO VA                         196       SL 03                                             CENTRO                   BLUMENAU               SC89010140                                                                                          EMPRESARIO                                                                                                                                                                                                                        NPE                                          2023051520250117                                                                                                                                                                                                                                                                       MS6114424                     000000000000000000        00000000R47991889498         991889498           32345254            PJULIOSJR@GMAIL.COM                                         
1012024121415       035900005276                  134855252867   RAFAEL ANDRADE RIBEIRO                       19860606                                                                                                                                                                                                                                                                                                                                                                                                                                       AV SAO LOURENCO                                   999       CASA                                              VILA BATISTA             BRAGANCA PAULISTA      SP12908381                                                                                          OUTRAS                        AV SAO LOURENCO                                          999CASA                                              VILA BATISTA             BRAGANCA PAULISTA      SP12908381                            NPE                                          2022110520250106                                                                                                                                                                                                                                                                       MC352774095                   000000000000000000        00000000R11971475969         999762895           971475969           GABRIELLE.LUCENAMACIEL@GMAIL.COM                            
1012024121415       038720002418                  143779670100   PAULO DE OLIVEIRA JUNIOR                     19710316                                                                                                                                                                                                                                                                                                                                                                                                                                       AV SEBASTIANA SOARES FARIA                        SN        Q28 L14                                           RESIDENCIAL FIDELIS      GOIANIA                GO74372070                                                                                          OUTRAS                        AV SEBASTIANA SOARES FARIA                                SNQ28 L14                                           RESIDENCIAL FIDELIS      GOIANIA                GO74372070                            NPE                                          2023071820241218                                                                                                                                                                                                                                                                       MS1784546                     000000000000000000        00000000R62993224234         993224234           993224234           PAULOOLIVEIRAJR2@GMAIL.COM                                  
1012024121415       027120013283                  125287607873   LUIZ CARLOS CAVALHEIRO JUNIOR                19750622                                                                                                                                                                                                                                                                                                                                                                                                                                       R FRANCISCO ESCOBAR                               113                                                         PARQUE SANTO ANTONIO     TAUBATE                SP12061120                    N A                                                                   OUTRAS                        R FRANCISCO ESCOBAR                                      113                                                  PARQUE SANTO ANTONIO     TAUBATE                SP12061120                            NPE                                          2022110520250106                                                                                                                                                                                                                                                                       MS30567336                    000000000000000000        00000000R992172728           997715905           36213843            JRLUIZCARLOS2016@GMAIL.COM                                  
1012024121415       001080011746                  125173465859   MARCELO DE OLIVEIRA BERGAMASCO               19750605                                                                                                                                                                                                                                                                                                                                                                                                                                       AV DONA ENGRACIA A ROMAO                          771                                                         VILA DONA ENGRACIA AGUDO CATANDUVA              SP15802200                                                                                          OUTRAS                        AV DONA ENGRACIA A ROMAO                                 771                                                  VILA DONA ENGRACIA AGUDO CATANDUVA              SP15802200                            NPE                                          2024121320250101                                                                                                                                                                                                                                                                       MS                            000000000000000000        00000000R                                                                                                                        
1012024121415       035900018759                  126853201809   ROSINEIDE SILVA OLIVEIRA DOS SANTOS          19760201                                                                                                                                                                                                                                                                                                                                                                                                                                       R ALAN CONCEICAO DA HORA                          75                                                          SAO LUIZ POLVILHO        CAJAMAR                SP07793475                                                                                          OUTRAS                        R ALAN CONCEICAO DA HORA                                  75                                                  SAO LUIZ POLVILHO        CAJAMAR                SP07793475                            NPE                                          2024120920250106                                                                                                                                                                                                                                                                       FS                            000000000000000000        00000000R                                                                                                                        
1012024121415       048410000975                  197906166000   TATIANA CRISTINA SPAGNOLO                    19770418                                                                                                                                                                                                                                                                                                                                                                                                                                       RUA GUSTAVO BERTHIER                              260       APTO 202                                          PEDREGAL                 LAGOA VERMELHA         RS95300000                    NAO INFORMADO                                                         GERENTE - TODAS               RUA GUSTAVO BERTHIER                                     260APTO 202                                          PEDREGAL                 LAGOA VERMELHA         RS95300000                            NPE                                          2024110820250106                                                                                                                                                                                                                                                                       FS                            000000000000000000        00000000R                    997060678           997060678                                                                       
1012024121415       035900017745                  117368379821   LUIZ HENRIQUE VERRONE FEDERICO               19740109                                                                                                                                                                                                                                                                                                                                                                                                                                       R IVAN FLEURI MEIRELES                            69                                                          RETIRO MORUMBI           SAO PAULO              SP05692130                                                                                          EMPRESARIO                    R IVAN FLEURI MEIRELES                                    69                                                  RETIRO MORUMBI           SAO PAULO              SP05692130                            NPE                                          2024090920250105                                                                                                                                                                                                                                                                       MS                            000000000000000000        00000000R                                                                                                                        
1012024121415       035900007442                  103150881846   SILVIA MARIA GUARITA CORTAZZO                19610524                                                                                                                                                                                                                                                                                                                                                                                                                                       R AIMBERE                                         406       AP63                                              PERDIZES                 SAO PAULO              SP050180101140045215                                                                                OUTRAS                        R AIMBERE                                                406AP63                                              PERDIZES                 SAO PAULO              SP05018010                            NPE                                          2022110520250106                                                                                                                                                                                                                                                                       FS13598986                    000000000000000000        00000000R945060512           991788627           963494024           KALI_DOTTA@YAHOO.COM.BR                                     
1012024121415       048610000085                  162473476500   ROBERTO MACHADO DOS SANTOS                   19710831                                                                                                                                                                                                                                                                                                                                                                                                                                       PROFESSOR GERALDO RODRIGUES MONTEMOR              1360                                                        BORACEIA                 BERTIOGA               SP112711651333121322                                                                                OUTRAS                        PROFESSOR GERALDO RODRIGUES MONTEMOR                    1360                                                  BORACEIA                 BERTIOGA               SP11271165                            NPE                                          2023090820250106                                                                                                                                                                                                                                                                       MS364552906                   000000000000000000        00000000R13991241740         991241740           33121322            POSITIVO760@GMAIL.COM                                       
1012024121415       050220005536                  120259113867   ELAINE ZYCH                                  19740607                                                                                                                                                                                                                                                                                                                                                                                                                                       RUA JOSE LOUREIRO                                 347                                                         CENTRO                   CURITIBA               PR080010004133082371                                                                                                                                                                                                                                                                                                                  NPE                                          2023013020241228                                                                                                                                                                                                                                                                       FO25583312X                   000000000000000000        00000000R41999327276                                                 THAYSZYCH@YAHOO.COM.BR                                      
1012024121415       036110002026                  122370957875   FERNANDA RODRIGUES DAVITES                   19811218                                                                                                                                                                                                                                                                                                                                                                                                                                       AV PRESIDENTE KENNEDY                             3700      T04 AP204                                         BOA VISTA                SAO CAETANO DO SUL     SP09572015                    BANCO SAFRA S.A                                                       GERENTE - TODAS               AV PRESIDENTE JUSCELINO KUBITSCHEK                      1327                                                  VILA NOVA CONCEICAO      SAO PAULO              SP04543011                            NPE                                          2023020820250106                                                                                                                                                                                                                                                                       FS339320552                   000000000000000000        00000000R11939592893         960303068           939592893           FERNANDARODRIGUES2@HOTMAIL.COM                              
1012024121415       050040002725                  165569571604   PAULO SERGIO DOS SANTOS                      19690902                                                                                                                                                                                                                                                                                                                                                                                                                                       R COMENDADOR LUIZ JOSE PEREIRA DE QUEIROZ         155       APTO 72 B                                         BOTAFOGO                 CAMPINAS               SP13020080                                                                                          EMPRESARIO                    R COMENDADOR LUIZ JOSE PEREIRA DE QUEIROZ                155                                                  BOTAFOGO                 CAMPINAS               SP13020080                            NPE                                          2024011920241222                                                                                                                                                                                                                                                                       MS6556957160                  000000000000000000        00000000R                    988407022           971417821           PSSCAMPINAS@GMAIL.COM                                       
1012024121415       027320006414                  109508491469   MICHEL WAGNER BASILIO DA SILVA               19970907                                                                                                                                                                                                                                                                                                                                                                                                                                       R PRESBITERO BEVENUTO ARAUJO                      4451      A                                                 NOSSA SENHORA DE NAZARE  NATAL                  RN59060280                                                                                          OUTRAS                        R PRESBITERO BEVENUTO ARAUJO                            4451A                                                 NOSSA SENHORA DE NAZARE  NATAL                  RN590602801140045215                  NPE                                          2022120820250106                                                                                                                                                                                                                                                                       MS003280296                   000000000000000000        00000000R84987466892                                                                                                             
1012024121415       021130021463                  104903585000   GUSTAVO HENRIQUE LERMEN KONRAD               19990329                                                                                                                                                                                                                                                                                                                                                                                                                                       ESTRADA GERAL                                     SN        CASA 02                                           SAMPAINHO                SANTA CLARA DO SUL     RS959150005139728822                                                                                GERENTE - TODAS               ENT GERAL DE SAMPAINHO                                    10                                                  SAMPAINHO                SANTA CLARA DO SUL     RS959150001140045215                  NPE                                          2023020820250106                                                                                                                                                                                                                                                                       MS1114620584                  000000000000000000        00000000R51997891845         997891845           994388447           DIONATAN.SANTOS79@GMAIL.COM                                 
1012024121415       038710001765                  118270282898   DEBORA WALQUIRIA FERRO DOS SANTOS            19760215                                                                                                                                                                                                                                                                                                                                                                                                                                       R ANTONIO ARMANDO                                 145                                                         VILA BONILHA             SAO PAULO              SP02917060                                                                                          OUTRAS                        R ANTONIO ARMANDO                                        145                                                  VILA BONILHA             SAO PAULO              SP02917060                            NPE                                          2024010920250106                                                                                                                                                                                                                                                                       FS0252177335                  000000000000000000        00000000R11987463154         987463154           950652920           DEBORA.WFSS@GMAIL.COM                                       
1012024121415       029470000094                  115440679847   SERGIO TEIXEIRA                              19720806                                                                                                                                                                                                                                                                                                                                                                                                                                       AV P.L. DO BRASIL                                 4         B                                                 CENTRO                   ARUJA                  SP07400630                                                                                          GERENTE - TODAS               AV P.L. DO BRASIL                                          4                                                  CENTRO                   ARUJA                  SP07400630                            NPE                                          2023080820250106                                                                                                                                                                                                                                                                       MS25039185                    000000000000000000        00000000R11971465932         971465932           968332850           LT63862@GMAIL.COM                                           
1012024121415       038090000787                  102300529912   LUCIANE MONTEIRO AZEVEDO                     19790322                                                                                                                                                                                                                                                                                                                                                                                                                                       R MARECHAL FLORIANO PEIXOTO                       969       AP 01                                             TRIANON                  GUARAPUAVA             PR850122404236223496                                                                                GERENTE - TODAS               R MARECHAL FLORIANO PEIXOTO                              969                                                  TRIANON                  GUARAPUAVA             PR85012240                            NPE                                          2022120820250106                                                                                                                                                                                                                                                                       FS64845853                    000000000000000000        00000000R42999773381         999773381           36230500            LUMONTEIROAZEVEDO@GMAIL.COM                                 
1012024121415       211570021605                  190320093549   NERIVALDO CORDEIRO CARNEIRO                  19760615                                                                                                                                                                                                                                                                                                                                                                                                                                       PRESIDENTE COSTA E SILVA                          335       VILA REAL                                         CENTRO                   CONCEICAO DO COITE     BA48730000                    NENHUMA                                                               GERENTE - TODAS               PRESIDENTE COSTA E SILVA                                 335VILA REAL                                         CENTRO                   CONCEICAO DO COITE     BA48730000                            NPE                                          2023041120250106                                                                                                                                                                                                                                                                       MS0853503540                  000000000000000000        00000000R981808736           981235444           981083354           NERIVALDO31@YAHOO.COM.BR                                    
1012024121415       031340006421                  199167425291   EDIVALDO DA SILVA CONCEICAO                  19890402                                                                                                                                                                                                                                                                                                                                                                                                                                       FL 14 QD D LT                                     17                                                          N MARABA                 MARABA                 PA68504000                                                                                          OUTRAS                        R D                                                       17                                                  NOVA MARABA              MARABA                 PA685101071140045215                  NPE                                          2022120520250103                                                                                                                                                                                                                                                                       MS0471996509                  000000000000000000        00000000R94991186108         991186108           40045215            DIMMIS2013@HOTMAIL.COM                                      
1012024121415       050340000761                  109548290693   FRANCISCO JUNIOR GOMES                       19900415                                                                                                                                                                                                                                                                                                                                                                                                                                       R CENTO E QUARENTA E NOVE                         96        APTO 301                                          ELDORADOS                TIMOTEO                MG35181215                    NAO INFORMADO                                                         GERENTE - TODAS               R CENTO E QUARENTA E NOVE                                 96                                                  ELDORADOS                TIMOTEO                MG35181215                            NPE                                          2024021420250117                                                                                                                                                                                                                                                                       MS                            000000000000000000        00000000R                    991964290           991964290                                                                       
1012024121415       054880000266                  100567579301   DANIELLY PEREIRA DA SILVA                    19850325                                                                                                                                                                                                                                                                                                                                                                                                                                       TRINTA DE MARCO                                   192                                                         BARRA DO CEAR            FORTALEZA              CE60334120                                                                                          EMPRESARIO                    AV PRESIDENTE CASTELO BRANCO                            3295                                                  ALVARO WEYNE             FORTALEZA              CE60335015                            NPE                                          2024031420250106                                                                                                                                                                                                                                                                       FS                            000000000000000000        00000000R85996249633         996249633           996249633           DANYFHE22@HOTMAIL.COM                                       
1012024121415       053160000808                  188716210859   MARIA LUIZA DE CARVALHO BRETAS               19530629                                                                                                                                                                                                                                                                                                                                                                                                                                       AL PROF HORACIO V SANTOS                          55                                                          PARQUE DAS ALAM          GUARATINGUETA          SP125172301231255071          NAO INFORMADO                                                         OUTRAS                        AV RIO BRANCO                                           1489                                                  CAMPOS ELISEOS           SAO PAULO              SP012959051140045215                  NPE                                          2023041120250106                                                                                                                                                                                                                                                                       FS88684106SS                  000000000000000000        00000000R12991764943         991764943           31255071            LUROBRETAS@GMAIL.COM                                        
1012024121415       038870000167                  107866687846   JOSIANE APARECIDA RODRIGUES FAVARO           19680616                                                                                                                                                                                                                                                                                                                                                                                                                                       R VIOLETA NILSEN MARTINS                          82                                                          JARDIM CANAA             LIMEIRA                SP13486713                                                                                          EMPRESARIO                                                                                                                                                                                                                        NPE                                          2023010920250106                                                                                                                                                                                                                                                                       FS170700239                   000000000000000000        00000000R19996124461         996124461           996124461           JOSIANEFAVARO@GMAIL.COM                                     
1012024121415       050320002718                  109264146660   LUIZ PAULO BRAGA DE AQUINO                   19890820                                                                                                                                                                                                                                                                                                                                                                                                                                       RUA DOS PARDAIS                                   17                                                          NOSSA SENHORA DA CONCEICASAO JOAO DEL REI       MG36302555                                                                                          EMPRESARIO                    RUA DOS PARDAIS                                           17                                                  NOSSA SENHORA DA CONCEICASAO JOAO DEL REI       MG36302555                            NPE                                          2024040920250106                                                                                                                                                                                                                                                                       MS                            000000000000000000        00000000R32988261050         988261050           988261050           LUIZPAULOBRH@YAHOO.COM.BR                                   
1012024121415       050490000067                  153697570544   EDSON REIS DOS SANTOS SANTANA                19710409                                                                                                                                                                                                                                                                                                                                                                                                                                       RUA SAO LUCAS                                     90        CASA                                              AVIARIO                  FEIRA DE SANTANA       BA44100000                                                                                          OUTRAS                        RUA SAO LUCAS                                             90CASA                                              AVIARIO                  FEIRA DE SANTANA       BA44100000                            NPE                                          2023050820250106                                                                                                                                                                                                                                                                       MS410554898                   000000000000000000        00000000R                    982100114           7534885606                                                                      
1012024121415       026980003998                  107780140881   SOLANGE MARIA B SERAFIM DE ALMEIDA           19620108                                                                                                                                                                                                                                                                                                                                                                                                                                       RUA 12 A                                          2266                                                        VILA SAO MIGUEL          RIO CLARO              SP13506903                    PREFEITURA MUNICIPAL DE RIO CL                                        GERENTE - TODAS               R 3                                                      945                                                  SAUDE                    RIO CLARO              SP13500313                            NPE                                          2023041120250106                                                                                                                                                                                                                                                                       FC188981974                   000000000000000000        00000000R19997377176         1932349670          1932349670          SOLANGE.ALMEIDDDA@HOTMAIL.COM                               
1012024121415       211040035374                  104613879809   JOSE CARLOS DA SILVA GOMES                   19630831                                                                                                                                                                                                                                                                                                                                                                                                                                       R ALAGOAS                                         307                                                         AMORIM                   GUARIBA                SP14840000                                                                                          OUTRAS                        R ALAGOAS                                                307                                                  AMORIM                   GUARIBA                SP14840000                            NPE                                          2023030820250106                                                                                                                                                                                                                                                                       MS0313293683                  000000000000000000        00000000R16999628488         999628488           993117928                                                                       
1012024121415       211040047815                  138723344920   JOAO SANCHES NETO                            19570615                                                                                                                                                                                                                                                                                                                                                                                                                                       AV JINROKU KUBOTA                                 1060                                                        JARDIM DOURADOS          MARINGA                PR87040603                                                                                          APOSENTADO                                                                                                                                                                                                                        NPE                                          2024121320250113                                                                                                                                                                                                                                                                       MS                            000000000000000000        00000000R                                                                                                                        
1012024121415       053160006773                  118387899879   RICARDO GOETHE SCHMIDT FILHO                 19760106                                                                                                                                                                                                                                                                                                                                                                                                                                       R MARIA JOSE GOMES                                148                                                         RESIDENCIAL VILLAGE SANTAGUARATINGUETA          SP12513540                                                                                          EMPRESARIO                    R MARIA JOSE GOMES                                       148                                                  RESIDENCIAL VILLAGE SANTAGUARATINGUETA          SP12513540                            NPE                                          2024100820250106                                                                                                                                                                                                                                                                       MS                            000000000000000000        00000000R                    976000998           976000998           RICARDO.GOEV@HOTMAIL.COM                                    
1012024121415       026980009511                  137317743801   CAROLINE MENDES                              19900808                                                                                                                                                                                                                                                                                                                                                                                                                                       AV DAS ONDAS                                      4755      BL 6 AP 51                                        JARDIM SAO FRANCISCO     PIRACICABA             SP13403600                    NAO INFORMADO                                                         GERENTE - TODAS               AV DAS ONDAS                                            4755                                                  JARDIM SAO FRANCISCO     PIRACICABA             SP13403600                            NPE                                          2023120820250106                                                                                                                                                                                                                                                                       FS                            000000000000000000        00000000R19996978686         983280108           1934273834                                                                      
1012024121415       038720001063                  100556022157   FRANSCISCA ALVES DA CRUZ                     19700911                                                                                                                                                                                                                                                                                                                                                                                                                                       ESTRADA RURAL                                     SN        SITIO BOM JESUS                                   ZONA RURAL               NOVA LACERDA           MT78243000                    N A                                                                   GERENTE - TODAS               ESTRADA RURAL                                              0SITIO                                             ZONA RURAL               NOVA LACERDA           MT782430001140045215                  NPE                                          2024120920250106                                                                                                                                                                                                                                                                       FS13634887                    000000000000000000        00000000R65992326149         992326149           992326149                                                                       
1012024121415       021910001568                  140823057852   MICHELLY GOMES MUSCAT                        19920911                                                                                                                                                                                                                                                                                                                                                                                                                                       AV JOSE GIORGI                                    600       APTO 11 BL 9                                      GJA VIANA II             COTIA                  SP06707100                                                                                                                        AV JOSE GIORGI                                           --1                                                  GJA VIANA II             COTIA                  SP06707100                            NPE                                          2023050820250105                                                                                                                                                                                                                                                                       FO48.265.541                  000000000000000000        00000000R                    997600388           990107881           MARILEN.GOMES@ICLOUD.COM                                    
1012024121415       035160001918                  104673520386   JOSE LUIS OLIVEIRA NASCIMENTO                19890309                                                                                                                                                                                                                                                                                                                                                                                                                                       R FRANCISCO                                       242                                                         C NOVA                   SAO LUIS               MA65083424                    AMBEV S.A.                                                            GERENTE TODAS A               AV EMILIANO MACIEIRA                                      SN                                                  PEDRINHAS                SAO LUIS               MA65095603                            NPE                                          2024121320241226                                                                                                                                                                                                                                                                       MO0481530225                  000000000000000000        00000000R987151740           999694978           33136039            JLGLADIADOR310@GMAIL.COM                                    
1012024121415       053160004460                  138200212807   LUIS FELIPE CABRAL PAPARELE                  19880314                                                                                                                                                                                                                                                                                                                                                                                                                                       AV DOUTOR JOAO BATISTA SOARES DE QUEIROZ JUNIOR   235                                                         JARDIM DAS INDUSTRIAS    SAO JOSE DOS CAMPOS    SP12240000                                                                                          EMPRESARIO                                                                                                                                                                                                                        NPE                                          2023090820250106                                                                                                                                                                                                                                                                       MS440422505                   000000000000000000        00000000R12981366375         981366375           1230298822          ADMINISTRACAO@LINKCONTABILIDADE.COM.BR                      
1012024121415       036280003181                  112830202899   FLAVIO COUTINHO DE SENNA FREDERICO           19690523                                                                                                                                                                                                                                                                                                                                                                                                                                       R DAVID CANABARRO                                 103                                                         ALTO DA LAPA             SAO PAULO              SP05059060                                                                                          EMPRESARIO                    R DAVID CANABARRO                                        103                                                  ALTO DA LAPA             SAO PAULO              SP05059060                            NPE                                          2024010920250106                                                                                                                                                                                                                                                                       MS162700192                   000000000000000000        00000000R11985841533         985841533           985841533           FLAVIOFREDERICO@KINOSCOPIO.COM.BR                           
