001202412142024121400000108
1012024121415       038720001282                  120487353000175NELSON O F BARBOSA 69390525772                                                                                                                                                                                                                                                                                                                                                                                                                                                                                                                                                                                                                              25550470                                                                                                                        R ONIX                                                    SNLT 28 QD 52 CS2                                   L FLUMINENSE             SAO JOAO DE MERITI     RJ25550470                            NPE                                          2023011020520430                                                                                                                                                                                                                                                                        O                            000000000000000000        00000000R21965220849                                                 INGRID.MIGLIORIN@GMAIL.COM                                  
1012024121415       038720004164                  122257815831   KARINA LUCAS SILVA VERONEZ AFFONSO           19741217                                                                                                                                                                                                                                                                                                                                                                                                                                       AV ORLANDO RANIERI QUADRA                         885       AP1 BL2                                           PARQUE RESIDENCIAL DAS CABAURU                  SP17047001                    GBI SA PARTICIPACOES E EMPREEN                                        GERENTE - TODAS               R SEBASTIAO PREGNOLATO                                   740                                                  JARDIM AURI VERDE        BAURU                  SP17047145                            NPE                                          2024021420520430                                                                                                                                                                                                                                                                       FS255393660                   000000000000000000        00000000R                    997716337           996753999           DIRCEUAFFONSO@YAHOO.COM.BR                                  
1012024121415       030120056248                  101868846725   WILDA PINHEIRO TOMAS                         19601115                                                                                                                                                                                                                                                                                                                                                                                                                                       R I                                               S/N       BLOCO C APTO 204                                  VL PENHA                 RIO DE JANEIRO         RJ21210630                                                                                          OUTRAS                        R SESSENTA E SEIS                                         20CASA                                              GALEAO                   RIO DE JANEIRO         RJ219413401140045215                  NPE                                          2023071220520430                                                                                                                                                                                                                                                                       FS868846725                   000000000000000000        00000000R21970047383         995755846           21967300270         CARBEM509@GMAIL.COM                                         
1012024121415       030120092870                  104280464790   ADRIANA DOS SANTOS PINA                      19730911                                                                                                                                                                                                                                                                                                                                                                                                                                       R MACEDO BRAGA                                    33                                                          ABOLICAO                 RIO DE JANEIRO         RJ20755180                                                                                          OUTRAS                        R MACEDO BRAGA                                            33                                                  ABOLICAO                 RIO DE JANEIRO         RJ20755180                            NPE                                          2023031020520430                                                                                                                                                                                                                                                                       FS143. 109                    000000000000000000        00000000R21995570555         995570555           993362030           ADRIANANAPI@GMAIL.COM                                       
1012024121415       038720003807                  176411656720   JOSE FELIX COSTA                             19630610                                                                                                                                                                                                                                                                                                                                                                                                                                       R LUCIO DA HORA                                   303       CASA RUA 5                                        BONSUCESSO II            SAO MATEUS             ES29943650                                                                                          APOSENTADO                                                                                                                                                                                                                        NPE                                          2023112020520324                                                                                                                                                                                                                                                                       MS723459                      000000000000000000        00000000R27998939865         998939865           998939865           JOSEFELIXCOSTA568@GMAIL.COM                                 
1012024121415       005200028111                  102165982901   LUCIA PEREIRA DA SILVA                       19770730                                                                                                                                                                                                                                                                                                                                                                                                                                       R DAVID TOWS                                      2017      BL 3 AP 4                                         SITIO CERCADO            CURITIBA               PR819104404133283264          CMEI BAU DE FANTASIAS                                                 GERENTE - TODAS               R MIGUEL JAREK                                            57                                                  QUISSISSANA              SAO JOSE DOS PINHAIS   PR83085020                            NPE                                          2023042420520430                                                                                                                                                                                                                                                                       FS64034081                    000000000000000000        00000000R41999682942         999682942           33283264            ANINHA_LOKA10@HOTMAIL.COM                                   
1012024121415       032690032914                  101485736650   SHEILA CAMILA VILACA DA SILVA                19850623                                                                                                                                                                                                                                                                                                                                                                                                                                       RUA SAO PAULO                                     370       AP202                                             URCA                     BELO HORIZONTE         MG31360350                                                                                          EMPRESARIO                    RUA SAO PAULO                                            370AP202                                             URCA                     BELO HORIZONTE         MG31360350                            NPE                                          2024061020520430                                                                                                                                                                                                                                                                       MS                            000000000000000000        00000000R992061208           992474560           31989666517         SHEILACAMILA24@HOTMAIL.COM                                  
1012024121415       025530006383                  138684675568   MARCOS TADEU SANTOS VIEIRA                   19751010                                                                                                                                                                                                                                                                                                                                                                                                                                       AV SILVERIO LEITE FONTES                          1128      BL5 305                                           AEROPORTO                ARACAJU                SE49038260                                                                                          OUTRAS                        AV SILVERIO LEITE FONTES                                1128BL5 305                                           AEROPORTO                ARACAJU                SE49038260                            NPE                                          2023071220520430                                                                                                                                                                                                                                                                       MS0912293                     000000000000000000        00000000R79999917101         999917101           999917101           TADEUVIEIRACORRETOR@GMAIL.COM                               
1012024121415       050050000637                  187287030810   LEO BIFULCO FERRER                           19550207                                                                                                                                                                                                                                                                                                                                                                                                                                       R GELASIO PIMENTA                                 395                                                         VILA ANTONINA            SAO PAULO              SP03412000                                                                                          OUTRAS                        R GELASIO PIMENTA                                        395                                                  VILA ANTONINA            SAO PAULO              SP03412000                            NPE                                          2023021020520430                                                                                                                                                                                                                                                                       MS30010461                    000000000000000000        00000000R991288909           984772577           1120912778          FERRER.RAFAEL@GMAIL.COM                                     
1012024121415       026420016179                  142793980110   JOSE CARLOS DA SILVA                         19681203                                                                                                                                                                                                                                                                                                                                                                                                                                       R SAO PAULO                                       23                                                          CRISTO REI               VARZEA GRANDE          MT78117075                                                                                          OUTRAS                        R SAO PAULO                                               23                                                  CRISTO REI               VARZEA GRANDE          MT78117075                            NPE                                          2023031020520430                                                                                                                                                                                                                                                                       MS80561                       000000000000000000        00000000R996172018           996045579           996045579           JLMOVEIS.FERRAGENS@GMAIL.COM                                
1012024121415       035780001990                  134877174842   FILIPE RODRIGUEZ DUARTE                      19851027                                                                                                                                                                                                                                                                                                                                                                                                                                       RUA KAIZUCA                                       164                                                         CAMINHO NOVO             TREMEMBE               SP12120000                                                                                          OUTRAS                        RUA KAIZUCA                                              164                                                  CAMINHO NOVO             TREMEMBE               SP12120000                            NPE                                          2022110520520430                                                                                                                                                                                                                                                                       MS435469691                   000000000000000000        00000000R997358715           998129541           38412112            FIOLIPERODRIGUEZ@GMAIL.COM                                  
1012024121415       050200005568                  169421706404   ANTENOR HERMOGENES STEPPLE DE AQUINO         19680228                                                                                                                                                                                                                                                                                                                                                                                                                                       AV BARAO DE CONTENDAS                             1311      AP 401 BL2                                        JATOBA                   PETROLINA              PE56332385                                                                                          OUTRAS                        AV BARAO DE CONTENDAS                                   1311AP 401 BL2                                        JATOBA                   PETROLINA              PE56332385                            NPE                                          2023012820520324                                                                                                                                                                                                                                                                       MS4663917                     000000000000000000        00000000R994923390           987298285           48582487            FINEASKIM@HOTMAIL.COM                                       
1012024121415       004110008266                  147048153822   JULIA STEFANY BARBOZA RICARTE                19990908                                                                                                                                                                                                                                                                                                                                                                                                                                       R JOAQUIM PIRES DE TOLEDO                         155                                                         BAIRRO DAS BROTAS        ITATIBA                SP13256576                                                                                          OUTRAS                        R JOAQUIM PIRES DE TOLEDO                                115                                                  BAIRRO DAS BROTAS        ITATIBA                SP132565761140045215                  NPE                                          2022121320520430                                                                                                                                                                                                                                                                       FS575110388                   000000000000000000        00000000R11993087748         993087748           40045215            RIBELINO.GUARNIERI@GMAIL.COM                                
1012024121415       025950032887                  109158110496   JOSIWENDSON ISAEL LENILSON DA SILVA          19921022                                                                                                                                                                                                                                                                                                                                                                                                                                       R FREI RICARDO DO PILAR                           366       CASA                                              CENTENARIO               CARUARU                PE55008490                                                                                          GERENTE - TODAS               R FREI RICARDO DO PILAR                                  366                                                  CENTENARIO               CARUARU                PE550084901140045215                  NPE                                          2024121320520319                                                                                                                                                                                                                                                                       MS0588142990                  000000000000000000        00000000R996454576           998698264           982352987           ISAELWENDSON@GMAIL.COM                                      
10120241214Q5       004110008266                  945004383                   OUTROS                        
10120241214Q5       005200028111                  33283264                    OUTROS                        
10120241214Q5       005200028111                  4133283264                  RESIDENCIAL                   
10120241214Q5       005200028111                  988579028                   OUTROS                        
10120241214Q5       005200028111                  999682942                   OUTROS                        
10120241214Q5       030120056248                  970047383                   OUTROS                        
10120241214Q5       030120092870                  21995570555         0       CELULAR                       
10120241214Q5       005200028111                  41988579028                 CELULAR                       
10120241214Q5       025530006383                  999917101                   OUTROS                        
10120241214Q5       026420016179                  65996045579                 CELULAR                       
10120241214Q5       030120092870                  995570555                   OUTROS                        
10120241214Q5       032690032914                  31989666517                 OUTROS                        
10120241214Q5       035780001990                  981295410                   OUTROS                        
10120241214Q5       050050000637                  1120912778                  OUTROS                        
10120241214Q5       032690032914                  31992061208                 CELULAR                       
10120241214Q5       035780001990                  981016526                   OUTROS                        
10120241214Q5       035780001990                  997358715                   CELULAR                       
10120241214Q5       035780001990                  998129541                   OUTROS                        
10120241214Q5       038720001282                  21965220849                 CELULAR                       
10120241214Q5       038720001282                  21987191384                 CELULAR                       
10120241214Q5       038720004164                  996753999                   OUTROS                        
10120241214Q5       038720004164                  997590188                   OUTROS                        
10120241214Q5       050050000637                  991288909                   CELULAR                       
10120241214Q5       004110008266                  939275614                   OUTROS                        
10120241214Q5       004110008266                  993087748                   OUTROS                        
10120241214Q5       005200028111                  41996690773                 CELULAR                       
10120241214Q5       005200028111                  974034949                   OUTROS                        
10120241214Q5       005200028111                  988694784                   OUTROS                        
10120241214Q5       025950032887                  982352987                   OUTROS                        
10120241214Q5       025950032887                  996454576                   CELULAR                       
10120241214Q5       026420016179                  996172018                   CELULAR                       
10120241214Q5       035780001990                  12981284325         0       CELULAR                       
10120241214Q5       035780001990                  981284325                   OUTROS                        
10120241214Q5       035780001990                  991984717                   OUTROS                        
10120241214Q5       038720004164                  997552488                   OUTROS                        
10120241214Q5       038720004164                  997716337                   OUTROS                        
10120241214Q5       050050000637                  11980240972                 OUTROS                        
10120241214Q5       004110008266                  1140045215                  COMERCIAL                     
10120241214Q5       005200028111                  996690773                   OUTROS                        
10120241214Q5       025950032887                  1140045215                  COMERCIAL                     
10120241214Q5       030120056248                  1140045215                  COMERCIAL                     
10120241214Q5       030120056248                  21967300270                 OUTROS                        
10120241214Q5       030120056248                  995755846                   OUTROS                        
10120241214Q5       030120092870                  993362030                   OUTROS                        
10120241214Q5       035780001990                  997772324                   OUTROS                        
10120241214Q5       038720004164                  14997552488                 RECADO                        
10120241214Q5       050050000637                  984772577                   OUTROS                        
10120241214Q5       004110008266                  11945004383         0       CELULAR                       
10120241214Q5       004110008266                  11993087748                 CELULAR                       
10120241214Q5       004110008266                  40045215                    OUTROS                        
10120241214Q5       025530006383                  1140045215                  RECADO                        
10120241214Q5       025530006383                  79999917101         0       CELULAR                       
10120241214Q5       025950032887                  81991920113                 CELULAR                       
10120241214Q5       025950032887                  998698264                   OUTROS                        
10120241214Q5       026420016179                  996045579                   OUTROS                        
10120241214Q5       030120056248                  967300270                   OUTROS                        
10120241214Q5       035780001990                  12981295410                 CELULAR                       
10120241214Q5       038720003807                  27998939865                 CELULAR                       
10120241214Q5       038720004164                  1432278594                  RECADO                        
10120241214Q5       050200005568                  984668640                   CELULAR                       
10120241214Q5       050200005568                  987298285                   OUTROS                        
10120241214Q5       025950032887                  991920113                   OUTROS                        
10120241214Q5       030120056248                  21970047383                 CELULAR                       
10120241214Q5       030120056248                  21995755846                 RECADO                        
10120241214Q5       035780001990                  12998129541                 CELULAR                       
10120241214Q5       035780001990                  992048634                   OUTROS                        
10120241214Q5       035780001990                  992313604                   OUTROS                        
10120241214Q5       038720003807                  998278671                   CELULAR                       
10120241214Q5       038720003807                  998939865                   OUTROS                        
10120241214Q5       050050000637                  11984772577                 CELULAR                       
10120241214Q5       050200005568                  48582487                    OUTROS                        
10120241214Q5       050200005568                  81987298285         0       CELULAR                       
10120241214Q5       050200005568                  981722307                   OUTROS                        
10120241214Q5       050200005568                  994923390                   CELULAR                       
10120241214Q5       005200028111                  41999682942                 CELULAR                       
10120241214Q5       025950032887                  81998698264                 CELULAR                       
10120241214Q5       025950032887                  992518434                   CELULAR                       
10120241214Q5       032690032914                  31992474560                 OUTROS                        
10120241214Q5       032690032914                  992061208                   CELULAR                       
10120241214Q5       032690032914                  992474560                   OUTROS                        
10120241214Q5       035780001990                  38412112                    OUTROS                        
10120241214Q5       038720003807                  996231541                   CELULAR                       
10120241214Q5       050200005568                  983694566                   OUTROS                        
1012024121425       005200028111                  REFF    005200028111                  00520   CORRESPONDENTE                                                                                    00520   CORRESPONDENTE PARAN                         00000000011653670000000000000000000020230209024         1                                                                                                                                                                                                                                                                                                                                                                                                                                                                                                                                                                                                            000000000000022727                                                                                                 
1012024121425       032690032914                  REFF    032690032914                  03269   CORRESPONDENTE                                                                                    03269   CORRESPONDENTE MINAS                         00000000014554600000000000000000000020240510012         1                                                                                                                                                                                                                                                                                                                                                                                                                                                                                                                                                                                                            000000000000042705                                                                                                 
1012024121425       038720003807                  FSEG    038720003807                  03872   NOVACAO COBRANC                                                                                   03872   NOVACAO COBRANCA CON                         00000000018600990000000000000000000020231010028         1                                                                                                                                                                                                                                                                                                                                                                                                                                                                                                                                                                                                            000000000000015000                                                                                                 
1012024121425       026420018169                  REFF    026420018169                  02642   CORRESPONDENTE                                                                                    02642   CORRESPONDENTE - MAT                         00000000011628960000000000000000000020230620060         3                                                                                                                                                                                                                                                                                                                                                                                                                                                                                                                                                                                                            000000000000032447                                                                                                 
1012024121425       050050000637                  REFF    050050000637                  05005   SUCURSAL CAMPOS                                                                                   05005   SUCURSAL CAMPOS II                           00000000013257500000000000000000000020221111036         1                                                                                                                                                                                                                                                                                                                                                                                                                                                                                                                                                                                                            000000000000024203                                                                                                 
1012024121425       050210002652                  REFF    050210002652                  05021   CORRESPONDENTE                                                                                    05021   CORRESPONDENTE GUARU                         00000000024038790000000000000000000020230530036         3                                                                                                                                                                                                                                                                                                                                                                                                                                                                                                                                                                                                            000000000000020691                                                                                                 
1012024121425       038720001282                  PARJ    038720001282                  03872   NOVACAO COBRANC                                                                                   03872   NOVACAO COBRANCA CON                         00000000016999500000000000000000000020221109036         1                                                                                                                                                                                                                                                                                                                                                                                                                                                                                                                                                                                                            000000000000011000                                                                                                 
1012024121425       050200005568                  REFF    050200005568                  05020   CORRESPONDENTE                                                                                    05020   CORRESPONDENTE PERNA                         00000000014450350000000000000000000020221028036         1                                                                                                                                                                                                                                                                                                                                                                                                                                                                                                                                                                                                            000000000000032944                                                                                                 
1012024121425       030120056248                  PARF    030120056248                  03012   CORRESPONDENTE                                                                                    03012   CORRESPONDENTE RIO D                         00000000022438420000000000000000000020210510060         1                                                                                                                                                                                                                                                                                                                                                                                                                                                                                                                                                                                                            000000000000016832                                                                                                 
1012024121425       005400013779                  REFF    005400013779                  00540   PORTOSEG BRAGAN                                                                                   00540   PORTOSEG BRAGANCA PA                         00000000014120580000000000000000000020240126048         3                                                                                                                                                                                                                                                                                                                                                                                                                                                                                                                                                                                                            000000000000029063                                                                                                 
1012024121425       030120092870                  REFF    030120092870                  03012   CORRESPONDENTE                                                                                    03012   CORRESPONDENTE RIO D                         00000000033238680000000000000000000020221209036         1                                                                                                                                                                                                                                                                                                                                                                                                                                                                                                                                                                                                            000000000000021619                                                                                                 
1012024121425       035780001990                  ESPF    035780001990                  03578   DRYVE TECNOLOGI                                                                                   03575   VIA UNIAO CONS E COR                         00000000011498350000000000000000000020220110048         1                                                                                                                                                                                                                                                                                                                                                                                                                                                                                                                                                                                                            000000000000022081                                                                                                 
1012024121425       026420016179                  PARF    026420016179                  02642   CORRESPONDENTE                                                                                    02642   CORRESPONDENTE - MAT                         00000000026442880000000000000000000020230110048         1                                                                                                                                                                                                                                                                                                                                                                                                                                                                                                                                                                                                            000000000000024914                                                                                                 
1012024121425       038720002374                  FSEG    038720002374                  03872   NOVACAO COBRANC                                                                                   03872   NOVACAO COBRANCA CON                         00000000029776460000000000000000000020230307035         3                                                                                                                                                                                                                                                                                                                                                                                                                                                                                                                                                                                                            000000000000017100                                                                                                 
1012024121425       038720004164                  FSEG    038720004164                  03872   NOVACAO COBRANC                                                                                   03872   NOVACAO COBRANCA CON                         00000000026720590000000000000000000020240109030         1                                                                                                                                                                                                                                                                                                                                                                                                                                                                                                                                                                                                            000000000000022100                                                                                                 
1012024121425       004110008266                  PARF    004110008266                  00411   SUCURSAL - JUND                                                                                   00411   SUCURSAL - JUNDIAI                           00000000038313840000000000000000000020220510060         1                                                                                                                                                                                                                                                                                                                                                                                                                                                                                                                                                                                                            000000000000021561                                                                                                 
1012024121425       025950032887                  FCDC    025950032887                  02595   CORRESPONDENTE                                                                                    02595   CORRESPONDENTE CREDI                         00000000011443630000000000000000000020210222048         1                                                                                                                                                                                                                                                                                                                                                                                                                                                                                                                                                                                                            000000000000013556                                                                                                 
1012024121425       025530006383                  FCDC    025530006383                  02553   CORRESPONDENTE                                                                                    02553   CORRESPONDENTE - SER                         00000000021280690000000000000000000020230310060         1                                                                                                                                                                                                                                                                                                                                                                                                                                                                                                                                                                                                            000000000000017649                                                                                                 
1012024121435       000830037271                  REFF    000830037271                  2024011600000010        20240930000000000009436100000000000000000000000000000000000000000000000000000000000000000005486400   024   7                            C20240116                      
1012024121435       000830038762                  REFF    000830038762                  2024091600000011                000000000012168200000000000000000000000000000000000000000000000000000000000000000000000000   024   1                             20240916                      
1012024121435       000830038762                  REFF    000830038762                  2024101600000012                000000000012168200000000000000000000000000000000000000000000000000000000000000000000000000   024   1                             20241016                      
1012024121435       000830038762                  REFF    000830038762                  2024111600000013                000000000012168200000000000000000000000000000000000000000000000000000000000000000000000000   024   1                             20241116                      
1012024121435       004110008266                  PARF    004110008266                  2024100900000029                000000000014164400000000000000000000000000000000000000000000000000000000000000000000000000   060   1                             20241009                      
1012024121435       004110008266                  PARF    004110008266                  2024110900000030                000000000014164400000000000000000000000000000000000000000000000000000000000000000000000000   060   1                             20241109                      
1012024121435       004110008266                  PARF    004110008266                  2024120900000031                000000000014164400000000000000000000000000000000000000000000000000000000000000000000000000   060   1                             20241209                      
1012024121435       004110008266                  PARF    004110008266                  2025010900000032                000000000014164400000000000000000000000000000000000000000000000000000000000000000000000000   060   1                             20250109                      
1012024121435       004110008266                  PARF    004110008266                  2025020900000033                000000000014164400000000000000000000000000000000000000000000000000000000000000000000000000   060   1                             20250209                      
1012024121435       004110008266                  PARF    004110008266                  2025030900000034                000000000014164400000000000000000000000000000000000000000000000000000000000000000000000000   060   1                             20250309                      
1012024121435       004110008266                  PARF    004110008266                  2025040900000035                000000000014164400000000000000000000000000000000000000000000000000000000000000000000000000   060   1                             20250409                      
1012024121435       004110008266                  PARF    004110008266                  2025050900000036                000000000014164400000000000000000000000000000000000000000000000000000000000000000000000000   060   1                             20250509                      
1012024121435       004110008266                  PARF    004110008266                  2025060900000037                000000000014164400000000000000000000000000000000000000000000000000000000000000000000000000   060   1                             20250609                      
1012024121435       004110008266                  PARF    004110008266                  2025070900000038                000000000014164400000000000000000000000000000000000000000000000000000000000000000000000000   060   1                             20250709                      
1012024121435       004110008266                  PARF    004110008266                  2025080900000039                000000000014164400000000000000000000000000000000000000000000000000000000000000000000000000   060   1                             20250809                      
1012024121435       004110008266                  PARF    004110008266                  2025090900000040                000000000014164400000000000000000000000000000000000000000000000000000000000000000000000000   060   1                             20250909                      
1012024121435       004110008266                  PARF    004110008266                  2025100900000041                000000000014164400000000000000000000000000000000000000000000000000000000000000000000000000   060   1                             20251009                      
1012024121435       004110008266                  PARF    004110008266                  2025110900000042                000000000014164400000000000000000000000000000000000000000000000000000000000000000000000000   060   1                             20251109                      
1012024121435       004110008266                  PARF    004110008266                  2025120900000043                000000000014164400000000000000000000000000000000000000000000000000000000000000000000000000   060   1                             20251209                      
1012024121435       004110008266                  PARF    004110008266                  2026010900000044                000000000014164400000000000000000000000000000000000000000000000000000000000000000000000000   060   1                             20260109                      
1012024121435       004110008266                  PARF    004110008266                  2026020900000045                000000000014164400000000000000000000000000000000000000000000000000000000000000000000000000   060   1                             20260209                      
1012024121435       004110008266                  PARF    004110008266                  2026030900000046                000000000014164400000000000000000000000000000000000000000000000000000000000000000000000000   060   1                             20260309                      
1012024121435       004110008266                  PARF    004110008266                  2026040900000047                000000000014164400000000000000000000000000000000000000000000000000000000000000000000000000   060   1                             20260409                      
1012024121435       004110008266                  PARF    004110008266                  2026050900000048                000000000014164400000000000000000000000000000000000000000000000000000000000000000000000000   060   1                             20260509                      
1012024121435       004110008266                  PARF    004110008266                  2026060900000049                000000000014164400000000000000000000000000000000000000000000000000000000000000000000000000   060   1                             20260609                      
1012024121435       004110008266                  PARF    004110008266                  2026070900000050                000000000014164400000000000000000000000000000000000000000000000000000000000000000000000000   060   1                             20260709                      
1012024121435       004110008266                  PARF    004110008266                  2026080900000051                000000000014164400000000000000000000000000000000000000000000000000000000000000000000000000   060   1                             20260809                      
1012024121435       004110008266                  PARF    004110008266                  2026090900000052                000000000014164400000000000000000000000000000000000000000000000000000000000000000000000000   060   1                             20260909                      
1012024121435       004110008266                  PARF    004110008266                  2026100900000053                000000000014164400000000000000000000000000000000000000000000000000000000000000000000000000   060   1                             20261009                      
1012024121435       004110008266                  PARF    004110008266                  2026110900000054                000000000014164400000000000000000000000000000000000000000000000000000000000000000000000000   060   1                             20261109                      
1012024121435       004110008266                  PARF    004110008266                  2026120900000055                000000000014164400000000000000000000000000000000000000000000000000000000000000000000000000   060   1                             20261209                      
1012024121435       004110008266                  PARF    004110008266                  2027010900000056                000000000014164400000000000000000000000000000000000000000000000000000000000000000000000000   060   1                             20270109                      
1012024121435       004110008266                  PARF    004110008266                  2027020900000057                000000000014164400000000000000000000000000000000000000000000000000000000000000000000000000   060   1                             20270209                      
1012024121435       004110008266                  PARF    004110008266                  2027030900000058                000000000014164400000000000000000000000000000000000000000000000000000000000000000000000000   060   1                             20270309                      
1012024121435       004110008266                  PARF    004110008266                  2027040900000059                000000000014164400000000000000000000000000000000000000000000000000000000000000000000000000   060   1                             20270409                      
1012024121435       004110008266                  PARF    004110008266                  2027050900000060                000000000014164400000000000000000000000000000000000000000000000000000000000000000000000000   060   1                             20270509                      
1012024121435       005200028111                  REFF    005200028111                  2024100900000020                000000000006711800000000000000000000000000000000000000000000000000000000000000000000000000   024   1                             20241009                      
1012024121435       005200028111                  REFF    005200028111                  2024110900000021                000000000006711800000000000000000000000000000000000000000000000000000000000000000000000000   024   1                             20241109                      
1012024121435       005200028111                  REFF    005200028111                  2024120900000022                000000000006711800000000000000000000000000000000000000000000000000000000000000000000000000   024   1                             20241209                      
1012024121435       005200028111                  REFF    005200028111                  2025010900000023                000000000006711800000000000000000000000000000000000000000000000000000000000000000000000000   024   1                             20250109                      
1012024121435       005200028111                  REFF    005200028111                  2025020900000024                000000000006711800000000000000000000000000000000000000000000000000000000000000000000000000   024   1                             20250209                      
1012024121435       021130018470                  REFF    021130018470                  2023042800000012        20240401000000000021415600000000000000000000000000000000000000000000000000000000000000000005391900   048   7                            C20230428                      
1012024121435       025530006383                  FCDC    025530006383                  2024100900000019                000000000006272400000000000000000000000000000000000000000000000000000000000000000000000000   060   1                             20241009                      
1012024121435       025530006383                  FCDC    025530006383                  2024110900000020                000000000006272400000000000000000000000000000000000000000000000000000000000000000000000000   060   1                             20241109                      
1012024121435       025530006383                  FCDC    025530006383                  2024120900000021                000000000006272400000000000000000000000000000000000000000000000000000000000000000000000000   060   1                             20241209                      
1012024121435       025530006383                  FCDC    025530006383                  2025010900000022                000000000006272400000000000000000000000000000000000000000000000000000000000000000000000000   060   1                             20250109                      
1012024121435       025530006383                  FCDC    025530006383                  2025020900000023                000000000006272400000000000000000000000000000000000000000000000000000000000000000000000000   060   1                             20250209                      
1012024121435       025530006383                  FCDC    025530006383                  2025030900000024                000000000006272400000000000000000000000000000000000000000000000000000000000000000000000000   060   1                             20250309                      
1012024121435       025530006383                  FCDC    025530006383                  2025040900000025                000000000006272400000000000000000000000000000000000000000000000000000000000000000000000000   060   1                             20250409                      
1012024121435       025530006383                  FCDC    025530006383                  2025050900000026                000000000006272400000000000000000000000000000000000000000000000000000000000000000000000000   060   1                             20250509                      
1012024121435       025530006383                  FCDC    025530006383                  2025060900000027                000000000006272400000000000000000000000000000000000000000000000000000000000000000000000000   060   1                             20250609                      
1012024121435       025530006383                  FCDC    025530006383                  2025070900000028                000000000006272400000000000000000000000000000000000000000000000000000000000000000000000000   060   1                             20250709                      
1012024121435       025530006383                  FCDC    025530006383                  2025080900000029                000000000006272400000000000000000000000000000000000000000000000000000000000000000000000000   060   1                             20250809                      
1012024121435       025530006383                  FCDC    025530006383                  2025090900000030                000000000006272400000000000000000000000000000000000000000000000000000000000000000000000000   060   1                             20250909                      
1012024121435       025530006383                  FCDC    025530006383                  2025100900000031                000000000006272400000000000000000000000000000000000000000000000000000000000000000000000000   060   1                             20251009                      
1012024121435       025530006383                  FCDC    025530006383                  2025110900000032                000000000006272400000000000000000000000000000000000000000000000000000000000000000000000000   060   1                             20251109                      
1012024121435       025530006383                  FCDC    025530006383                  2025120900000033                000000000006272400000000000000000000000000000000000000000000000000000000000000000000000000   060   1                             20251209                      
1012024121435       025530006383                  FCDC    025530006383                  2026010900000034                000000000006272400000000000000000000000000000000000000000000000000000000000000000000000000   060   1                             20260109                      
1012024121435       025530006383                  FCDC    025530006383                  2026020900000035                000000000006272400000000000000000000000000000000000000000000000000000000000000000000000000   060   1                             20260209                      
1012024121435       025530006383                  FCDC    025530006383                  2026030900000036                000000000006272400000000000000000000000000000000000000000000000000000000000000000000000000   060   1                             20260309                      
1012024121435       025530006383                  FCDC    025530006383                  2026040900000037                000000000006272400000000000000000000000000000000000000000000000000000000000000000000000000   060   1                             20260409                      
1012024121435       025530006383                  FCDC    025530006383                  2026050900000038                000000000006272400000000000000000000000000000000000000000000000000000000000000000000000000   060   1                             20260509                      
1012024121435       025530006383                  FCDC    025530006383                  2026060900000039                000000000006272400000000000000000000000000000000000000000000000000000000000000000000000000   060   1                             20260609                      
1012024121435       025530006383                  FCDC    025530006383                  2026070900000040                000000000006272400000000000000000000000000000000000000000000000000000000000000000000000000   060   1                             20260709                      
1012024121435       025530006383                  FCDC    025530006383                  2026080900000041                000000000006272400000000000000000000000000000000000000000000000000000000000000000000000000   060   1                             20260809                      
1012024121435       025530006383                  FCDC    025530006383                  2026090900000042                000000000006272400000000000000000000000000000000000000000000000000000000000000000000000000   060   1                             20260909                      
1012024121435       025530006383                  FCDC    025530006383                  2026100900000043                000000000006272400000000000000000000000000000000000000000000000000000000000000000000000000   060   1                             20261009                      
1012024121435       025530006383                  FCDC    025530006383                  2026110900000044                000000000006272400000000000000000000000000000000000000000000000000000000000000000000000000   060   1                             20261109                      
1012024121435       025530006383                  FCDC    025530006383                  2026120900000045                000000000006272400000000000000000000000000000000000000000000000000000000000000000000000000   060   1                             20261209                      
1012024121435       025530006383                  FCDC    025530006383                  2027010900000046                000000000006272400000000000000000000000000000000000000000000000000000000000000000000000000   060   1                             20270109                      
1012024121435       025530006383                  FCDC    025530006383                  2027020900000047                000000000006272400000000000000000000000000000000000000000000000000000000000000000000000000   060   1                             20270209                      
1012024121435       025530006383                  FCDC    025530006383                  2027030900000048                000000000006272400000000000000000000000000000000000000000000000000000000000000000000000000   060   1                             20270309                      
1012024121435       025530006383                  FCDC    025530006383                  2027040900000049                000000000006272400000000000000000000000000000000000000000000000000000000000000000000000000   060   1                             20270409                      
1012024121435       025530006383                  FCDC    025530006383                  2027050900000050                000000000006272400000000000000000000000000000000000000000000000000000000000000000000000000   060   1                             20270509                      
1012024121435       025530006383                  FCDC    025530006383                  2027060900000051                000000000006272400000000000000000000000000000000000000000000000000000000000000000000000000   060   1                             20270609                      
1012024121435       025530006383                  FCDC    025530006383                  2027070900000052                000000000006272400000000000000000000000000000000000000000000000000000000000000000000000000   060   1                             20270709                      
1012024121435       025530006383                  FCDC    025530006383                  2027080900000053                000000000006272400000000000000000000000000000000000000000000000000000000000000000000000000   060   1                             20270809                      
1012024121435       025530006383                  FCDC    025530006383                  2027090900000054                000000000006272400000000000000000000000000000000000000000000000000000000000000000000000000   060   1                             20270909                      
1012024121435       025530006383                  FCDC    025530006383                  2027100900000055                000000000006272400000000000000000000000000000000000000000000000000000000000000000000000000   060   1                             20271009                      
1012024121435       025530006383                  FCDC    025530006383                  2027110900000056                000000000006272400000000000000000000000000000000000000000000000000000000000000000000000000   060   1                             20271109                      
1012024121435       025530006383                  FCDC    025530006383                  2027120900000057                000000000006272400000000000000000000000000000000000000000000000000000000000000000000000000   060   1                             20271209                      
1012024121435       025530006383                  FCDC    025530006383                  2028010900000058                000000000006272400000000000000000000000000000000000000000000000000000000000000000000000000   060   1                             20280109                      
1012024121435       025530006383                  FCDC    025530006383                  2028020900000059                000000000006272400000000000000000000000000000000000000000000000000000000000000000000000000   060   1                             20280209                      
1012024121435       025530006383                  FCDC    025530006383                  2028030900000060                000000000006272400000000000000000000000000000000000000000000000000000000000000000000000000   060   1                             20280309                      
1012024121435       025850000471                  ESPF    025850000471                  2021012500000033        20231228000000000008651800000000000000000000000000000000000000000000000000000000000000000001854500   036   7                            C20210125                      
1012024121435       025950032887                  FCDC    025950032887                  2024041700000038                000000000006444500000000000000000000000000000000000000000000000000000000000000000000000000   048   1                             20240417                      
1012024121435       025950032887                  FCDC    025950032887                  2024051700000039                000000000006444500000000000000000000000000000000000000000000000000000000000000000000000000   048   1                             20240517                      
1012024121435       025950032887                  FCDC    025950032887                  2024061700000040                000000000006444500000000000000000000000000000000000000000000000000000000000000000000000000   048   1                             20240617                      
1012024121435       025950032887                  FCDC    025950032887                  2024071700000041                000000000006444500000000000000000000000000000000000000000000000000000000000000000000000000   048   1                             20240717                      
1012024121435       025950032887                  FCDC    025950032887                  2024081700000042                000000000006444500000000000000000000000000000000000000000000000000000000000000000000000000   048   1                             20240817                      
1012024121435       025950032887                  FCDC    025950032887                  2024091700000043                000000000006444500000000000000000000000000000000000000000000000000000000000000000000000000   048   1                             20240917                      
1012024121435       025950032887                  FCDC    025950032887                  2024101700000044                000000000006444500000000000000000000000000000000000000000000000000000000000000000000000000   048   1                             20241017                      
1012024121435       025950032887                  FCDC    025950032887                  2024111700000045                000000000006444500000000000000000000000000000000000000000000000000000000000000000000000000   048   1                             20241117                      
1012024121435       025950032887                  FCDC    025950032887                  2024121700000046                000000000006444500000000000000000000000000000000000000000000000000000000000000000000000000   048   1                             20241217                      
1012024121435       025950032887                  FCDC    025950032887                  2025011700000047                000000000006444500000000000000000000000000000000000000000000000000000000000000000000000000   048   1                             20250117                      
1012024121435       025950032887                  FCDC    025950032887                  2025021700000048                000000000006444500000000000000000000000000000000000000000000000000000000000000000000000000   048   1                             20250217                      
1012024121435       025950064913                  REFF    025950064913                  2024080200000022        20230710000000000006077300000000000000000000000000000000000000000000000000000000000000000002138200   048   7                            C20240802                      
1012024121435       026420016179                  PARF    026420016179                  2024100900000021                000000000010214100000000000000000000000000000000000000000000000000000000000000000000000000   048   1                             20241009                      
1012024121435       026420016179                  PARF    026420016179                  2024110900000022                000000000010214100000000000000000000000000000000000000000000000000000000000000000000000000   048   1                             20241109                      
1012024121435       026420016179                  PARF    026420016179                  2024120900000023                000000000010214100000000000000000000000000000000000000000000000000000000000000000000000000   048   1                             20241209                      
1012024121435       026420016179                  PARF    026420016179                  2025010900000024                000000000010214100000000000000000000000000000000000000000000000000000000000000000000000000   048   1                             20250109                      
1012024121435       026420016179                  PARF    026420016179                  2025020900000025                000000000010214100000000000000000000000000000000000000000000000000000000000000000000000000   048   1                             20250209                      
1012024121435       026420016179                  PARF    026420016179                  2025030900000026                000000000010214100000000000000000000000000000000000000000000000000000000000000000000000000   048   1                             20250309                      
1012024121435       026420016179                  PARF    026420016179                  2025040900000027                000000000010214100000000000000000000000000000000000000000000000000000000000000000000000000   048   1                             20250409                      
1012024121435       026420016179                  PARF    026420016179                  2025050900000028                000000000010214100000000000000000000000000000000000000000000000000000000000000000000000000   048   1                             20250509                      
1012024121435       026420016179                  PARF    026420016179                  2025060900000029                000000000010214100000000000000000000000000000000000000000000000000000000000000000000000000   048   1                             20250609                      
1012024121435       026420016179                  PARF    026420016179                  2025070900000030                000000000010214100000000000000000000000000000000000000000000000000000000000000000000000000   048   1                             20250709                      
1012024121435       026420016179                  PARF    026420016179                  2025080900000031                000000000010214100000000000000000000000000000000000000000000000000000000000000000000000000   048   1                             20250809                      
1012024121435       026420016179                  PARF    026420016179                  2025090900000032                000000000010214100000000000000000000000000000000000000000000000000000000000000000000000000   048   1                             20250909                      
1012024121435       026420016179                  PARF    026420016179                  2025100900000033                000000000010214100000000000000000000000000000000000000000000000000000000000000000000000000   048   1                             20251009                      
1012024121435       026420016179                  PARF    026420016179                  2025110900000034                000000000010214100000000000000000000000000000000000000000000000000000000000000000000000000   048   1                             20251109                      
1012024121435       026420016179                  PARF    026420016179                  2025120900000035                000000000010214100000000000000000000000000000000000000000000000000000000000000000000000000   048   1                             20251209                      
1012024121435       026420016179                  PARF    026420016179                  2026010900000036                000000000010214100000000000000000000000000000000000000000000000000000000000000000000000000   048   1                             20260109                      
1012024121435       026420016179                  PARF    026420016179                  2026020900000037                000000000010214100000000000000000000000000000000000000000000000000000000000000000000000000   048   1                             20260209                      
1012024121435       026420016179                  PARF    026420016179                  2026030900000038                000000000010214100000000000000000000000000000000000000000000000000000000000000000000000000   048   1                             20260309                      
1012024121435       026420016179                  PARF    026420016179                  2026040900000039                000000000010214100000000000000000000000000000000000000000000000000000000000000000000000000   048   1                             20260409                      
1012024121435       026420016179                  PARF    026420016179                  2026050900000040                000000000010214100000000000000000000000000000000000000000000000000000000000000000000000000   048   1                             20260509                      
1012024121435       026420016179                  PARF    026420016179                  2026060900000041                000000000010214100000000000000000000000000000000000000000000000000000000000000000000000000   048   1                             20260609                      
1012024121435       026420016179                  PARF    026420016179                  2026070900000042                000000000010214100000000000000000000000000000000000000000000000000000000000000000000000000   048   1                             20260709                      
1012024121435       026420016179                  PARF    026420016179                  2026080900000043                000000000010214100000000000000000000000000000000000000000000000000000000000000000000000000   048   1                             20260809                      
1012024121435       026420016179                  PARF    026420016179                  2026090900000044                000000000010214100000000000000000000000000000000000000000000000000000000000000000000000000   048   1                             20260909                      
1012024121435       026420016179                  PARF    026420016179                  2026100900000045                000000000010214100000000000000000000000000000000000000000000000000000000000000000000000000   048   1                             20261009                      
1012024121435       026420016179                  PARF    026420016179                  2026110900000046                000000000010214100000000000000000000000000000000000000000000000000000000000000000000000000   048   1                             20261109                      
1012024121435       026420016179                  PARF    026420016179                  2026120900000047                000000000010214100000000000000000000000000000000000000000000000000000000000000000000000000   048   1                             20261209                      
1012024121435       026420016179                  PARF    026420016179                  2027010900000048                000000000010214100000000000000000000000000000000000000000000000000000000000000000000000000   048   1                             20270109                      
1012024121435       027120007425                  PARF    027120007425                  2023012800000032        20241129000000000008080500000000000000000000000000000000000000000000000000000000000000000000273100   048   7                            C20230128                      
1012024121435       027120020365                  PARF    027120020365                  2024030400000031        20240624000000000010531000000000000000000000000000000000000000000000000000000000000000000005873000   048   7                            C20240304                      
1012024121435       027320008129                  PARF    027320008129                  2023081100000024        20240930000000000027578600000000000000000000000000000000000000000000000000000000000000000010212200   048   7                            C20230811                      
1012024121435       030120044096                  FCDC    030120044096                  2024031400000039        20240625000000000013903200000000000000000000000000000000000000000000000000000000000000000012339500   048   7                            C20240314                      
1012024121435       030120054118                  PARF    030120054118                  2024110600000043        20240930000000000012978300000000000000000000000000000000000000000000000000000000000000000000675400   060   7                            C20241106                      
1012024121435       030120056248                  PARF    030120056248                  2024100900000041                000000000012958400000000000000000000000000000000000000000000000000000000000000000000000000   060   1                             20241009                      
1012024121435       030120056248                  PARF    030120056248                  2024110900000042                000000000012958400000000000000000000000000000000000000000000000000000000000000000000000000   060   1                             20241109                      
1012024121435       030120056248                  PARF    030120056248                  2025010900000044                000000000012958400000000000000000000000000000000000000000000000000000000000000000000000000   060   1                             20250109                      
1012024121435       030120056248                  PARF    030120056248                  2025020900000045                000000000012958400000000000000000000000000000000000000000000000000000000000000000000000000   060   1                             20250209                      
1012024121435       030120056248                  PARF    030120056248                  2025030900000046                000000000012958400000000000000000000000000000000000000000000000000000000000000000000000000   060   1                             20250309                      
1012024121435       030120056248                  PARF    030120056248                  2025040900000047                000000000012958400000000000000000000000000000000000000000000000000000000000000000000000000   060   1                             20250409                      
1012024121435       030120056248                  PARF    030120056248                  2025050900000048                000000000012958400000000000000000000000000000000000000000000000000000000000000000000000000   060   1                             20250509                      
1012024121435       030120056248                  PARF    030120056248                  2025060900000049                000000000012958400000000000000000000000000000000000000000000000000000000000000000000000000   060   1                             20250609                      
1012024121435       030120056248                  PARF    030120056248                  2025070900000050                000000000012958400000000000000000000000000000000000000000000000000000000000000000000000000   060   1                             20250709                      
1012024121435       030120056248                  PARF    030120056248                  2025080900000051                000000000012958400000000000000000000000000000000000000000000000000000000000000000000000000   060   1                             20250809                      
1012024121435       030120056248                  PARF    030120056248                  2025090900000052                000000000012958400000000000000000000000000000000000000000000000000000000000000000000000000   060   1                             20250909                      
1012024121435       030120056248                  PARF    030120056248                  2025100900000053                000000000012958400000000000000000000000000000000000000000000000000000000000000000000000000   060   1                             20251009                      
1012024121435       030120056248                  PARF    030120056248                  2025110900000054                000000000012958400000000000000000000000000000000000000000000000000000000000000000000000000   060   1                             20251109                      
1012024121435       030120056248                  PARF    030120056248                  2025120900000055                000000000012958400000000000000000000000000000000000000000000000000000000000000000000000000   060   1                             20251209                      
1012024121435       030120056248                  PARF    030120056248                  2026010900000056                000000000012958400000000000000000000000000000000000000000000000000000000000000000000000000   060   1                             20260109                      
1012024121435       030120056248                  PARF    030120056248                  2026020900000057                000000000012958400000000000000000000000000000000000000000000000000000000000000000000000000   060   1                             20260209                      
1012024121435       030120056248                  PARF    030120056248                  2026030900000058                000000000012958400000000000000000000000000000000000000000000000000000000000000000000000000   060   1                             20260309                      
1012024121435       030120056248                  PARF    030120056248                  2026040900000059                000000000012958400000000000000000000000000000000000000000000000000000000000000000000000000   060   1                             20260409                      
1012024121435       030120056248                  PARF    030120056248                  2026050900000060                000000000012958400000000000000000000000000000000000000000000000000000000000000000000000000   060   1                             20260509                      
1012024121435       030120092870                  REFF    030120092870                  2024100900000022                000000000015133300000000000000000000000000000000000000000000000000000000000000000000000000   036   1                             20241009                      
1012024121435       030120092870                  REFF    030120092870                  2024110900000023                000000000015133300000000000000000000000000000000000000000000000000000000000000000000000000   036   1                             20241109                      
1012024121435       030120092870                  REFF    030120092870                  2024120900000024                000000000015133300000000000000000000000000000000000000000000000000000000000000000000000000   036   1                             20241209                      
1012024121435       030120092870                  REFF    030120092870                  2025010900000025                000000000015133300000000000000000000000000000000000000000000000000000000000000000000000000   036   1                             20250109                      
1012024121435       030120092870                  REFF    030120092870                  2025020900000026                000000000015133300000000000000000000000000000000000000000000000000000000000000000000000000   036   1                             20250209                      
1012024121435       030120092870                  REFF    030120092870                  2025030900000027                000000000015133300000000000000000000000000000000000000000000000000000000000000000000000000   036   1                             20250309                      
1012024121435       030120092870                  REFF    030120092870                  2025040900000028                000000000015133300000000000000000000000000000000000000000000000000000000000000000000000000   036   1                             20250409                      
1012024121435       030120092870                  REFF    030120092870                  2025050900000029                000000000015133300000000000000000000000000000000000000000000000000000000000000000000000000   036   1                             20250509                      
1012024121435       030120092870                  REFF    030120092870                  2025060900000030                000000000015133300000000000000000000000000000000000000000000000000000000000000000000000000   036   1                             20250609                      
1012024121435       030120092870                  REFF    030120092870                  2025070900000031                000000000015133300000000000000000000000000000000000000000000000000000000000000000000000000   036   1                             20250709                      
1012024121435       030120092870                  REFF    030120092870                  2025080900000032                000000000015133300000000000000000000000000000000000000000000000000000000000000000000000000   036   1                             20250809                      
1012024121435       030120092870                  REFF    030120092870                  2025090900000033                000000000015133300000000000000000000000000000000000000000000000000000000000000000000000000   036   1                             20250909                      
1012024121435       030120092870                  REFF    030120092870                  2025100900000034                000000000015133300000000000000000000000000000000000000000000000000000000000000000000000000   036   1                             20251009                      
1012024121435       030120092870                  REFF    030120092870                  2025110900000035                000000000015133300000000000000000000000000000000000000000000000000000000000000000000000000   036   1                             20251109                      
1012024121435       030120092870                  REFF    030120092870                  2025120900000036                000000000015133300000000000000000000000000000000000000000000000000000000000000000000000000   036   1                             20251209                      
1012024121435       032690032914                  REFF    032690032914                  2024100900000005                000000000015752600000000000000000000000000000000000000000000000000000000000000000000000000   012   1                             20241009                      
1012024121435       032690032914                  REFF    032690032914                  2024110900000006                000000000015752600000000000000000000000000000000000000000000000000000000000000000000000000   012   1                             20241109                      
1012024121435       032690032914                  REFF    032690032914                  2024120900000007                000000000015752600000000000000000000000000000000000000000000000000000000000000000000000000   012   1                             20241209                      
1012024121435       032690032914                  REFF    032690032914                  2025010900000008                000000000015752600000000000000000000000000000000000000000000000000000000000000000000000000   012   1                             20250109                      
1012024121435       032690032914                  REFF    032690032914                  2025020900000009                000000000015752600000000000000000000000000000000000000000000000000000000000000000000000000   012   1                             20250209                      
1012024121435       032690032914                  REFF    032690032914                  2025030900000010                000000000015752600000000000000000000000000000000000000000000000000000000000000000000000000   012   1                             20250309                      
1012024121435       032690032914                  REFF    032690032914                  2025040900000011                000000000015752600000000000000000000000000000000000000000000000000000000000000000000000000   012   1                             20250409                      
1012024121435       032690032914                  REFF    032690032914                  2025050900000012                000000000015752600000000000000000000000000000000000000000000000000000000000000000000000000   012   1                             20250509                      
1012024121435       032710000421                  ESPF    032710000421                  2024101100000041        20240729000000000010389300000000000000000000000000000000000000000000000000000000000000000002030300   060   7                            C20241011                      
1012024121435       035160003067                  PARF    035160003067                  2023111200000027        20240730000000000020099400000000000000000000000000000000000000000000000000000000000000000006246300   036   7                            C20231112                      
1012024121435       035780001990                  ESPF    035780001990                  2024100900000033                000000000005392600000000000000000000000000000000000000000000000000000000000000000000000000   048   1                             20241009                      
1012024121435       035780001990                  ESPF    035780001990                  2024110900000034                000000000005392600000000000000000000000000000000000000000000000000000000000000000000000000   048   1                             20241109                      
1012024121435       035780001990                  ESPF    035780001990                  2024120900000035                000000000005392600000000000000000000000000000000000000000000000000000000000000000000000000   048   1                             20241209                      
1012024121435       035780001990                  ESPF    035780001990                  2025010900000036                000000000005392600000000000000000000000000000000000000000000000000000000000000000000000000   048   1                             20250109                      
1012024121435       035780001990                  ESPF    035780001990                  2025020900000037                000000000005392600000000000000000000000000000000000000000000000000000000000000000000000000   048   1                             20250209                      
1012024121435       035780001990                  ESPF    035780001990                  2025030900000038                000000000005392600000000000000000000000000000000000000000000000000000000000000000000000000   048   1                             20250309                      
1012024121435       035780001990                  ESPF    035780001990                  2025040900000039                000000000005392600000000000000000000000000000000000000000000000000000000000000000000000000   048   1                             20250409                      
1012024121435       035780001990                  ESPF    035780001990                  2025050900000040                000000000005392600000000000000000000000000000000000000000000000000000000000000000000000000   048   1                             20250509                      
1012024121435       035780001990                  ESPF    035780001990                  2025060900000041                000000000005392600000000000000000000000000000000000000000000000000000000000000000000000000   048   1                             20250609                      
