001202412112024121100000106
1012024121115       032690034069                  104983946624   GLAUBER ALEXANDRE DOS SANTOS                 19810325                                                                                                                                                                                                                                                                                                                                                                                                                                       RUA ETELVINA VAZ DE MELO                          89                                                          DONA CLARA               BELO HORIZONTE         MG31260190                                                                                          EMPRESARIO                    RUA ETELVINA VAZ DE MELO                                  89                                                  DONA CLARA               BELO HORIZONTE         MG31260190                            NPE                                          2024110520250103                                                                                                                                                                                                                                                                       MS                            000000000000000000        00000000R                                                                                                                        
1012024121115       035210007604                  102200918380   JOSELANE ARAUJO TEIXEIRA                     19870113                                                                                                                                                                                                                                                                                                                                                                                                                                       R SANTO ANDRE AVELINO                             9         VIELA 2                                           PARQUE SAO RAFAEL        SAO PAULO              SP08320280                                                                                          OUTRAS                        R SANTO ANDRE AVELINO                                      9VIELA 2                                           PARQUE SAO RAFAEL        SAO PAULO              SP08320280                            NPE                                          2024111120250114                                                                                                                                                                                                                                                                       FS                            000000000000000000        00000000R                    948084927           948084927                                                                       
1012024121115       038720004986                  126348335801   WALFRIDO GENESSIE RUEDA                      19770228                                                                                                                                                                                                                                                                                                                                                                                                                                       RUA FREI PAULO                                    90                                                          VL ANTONIETA             SAO PAULO              SP03476040                                                                                          OUTRAS                        AV INCONFIDENCIA MINEIRA                                 577CASA                                              VILA RICA                SAO PAULO              SP03911000                            NPE                                          2024090920250110                                                                                                                                                                                                                                                                       MS0239514612                  000000000000000000        00000000R                    985467591           951515834           WALFRIDORUEDA@ICLOUD.COM                                    
1012024121115       054880000113                  162099000387   ALYSSON EMANUEL LEITE PEREIRA                19780614                                                                                                                                                                                                                                                                                                                                                                                                                                       R CAJAZEIRAS                                      100                                                         LAGOA REDONDA            FORTALEZA              CE60831310                                                                                          EMPRESARIO                    R CAJAZEIRAS                                             100                                                  LAGOA REDONDA            FORTALEZA              CE60831310                            NPE                                          2024013120250103                                                                                                                                                                                                                                                                       MS                            000000000000000000        00000000R85999504846         999877988           34722577            AELP1406@OUTLOOK.COM                                        
1012024121115       036290007865                  133334947874   DIEGO LOPES PINTO RIBEIRO                    19841011                                                                                                                                                                                                                                                                                                                                                                                                                                       R LUIS CORREIA DE MELO                            86        AP 904                                            VILA CRUZEIRO            SAO PAULO              SP04726220                                                                                          EMPRESARIO                    R LUIS CORREIA DE MELO                                    86904                                               VILA CRUZEIRO            SAO PAULO              SP04726220                            NPE                                          2024100320250101                                                                                                                                                                                                                                                                       MS411617734                   000000000000000000        00000000R11982085127         982085127           953899338           DIG_LOPES@YAHOO.COM.BR                                      
1012024121115       211900030833                  173652830504   JUAREZ PEREIRA SANTOS MOTA                   19690307                                                                                                                                                                                                                                                                                                                                                                                                                                       RUA ARNULFO NEVES                                 296       GALPAO                                            FATIMA                   JOAO NEIVA             ES29680000                    CERAMICA ARGEL LTDA                                                   GERENTE - TODAS               RODOVIA BR 101 KM 202                                     01GALPAO                                            PIRAQUEACU               JOAO NEIVA             ES29680000                            NPE                                          2022110520250103                                                                                                                                                                                                                                                                       MS3389902                     000000000000000000        00000000R27996268918         996268918           996063888           DARLAN.MOTA@YAHOO.COM.BR                                    
1012024121115       038720002072                  191462355668   JUSCELINO MARCOS CINTRA                      19650615                                                                                                                                                                                                                                                                                                                                                                                                                                       RUA SEBASTIAO TOBIAS ROSA                         55                                                          HORIZONTE AZUL           BRASOPOLIS             MG37530000                                                                                          EMPRESARIO                    R CAPITAO MANOEL GOMES                                   177A                                                 CENTRO                   BRASZOPOLIS            MG37530000                            NPE                                          2023030620250103                                                                                                                                                                                                                                                                       MS21440129                    000000000000000000        00000000R35991064762         991064762           36411040            JUSCELINO.CINTRA@GMAIL.COM                                  
1012024121115       001620012662                  102490241877   JOEL RICARDO                                 19711107                                                                                                                                                                                                                                                                                                                                                                                                                                       RUA MONTE CLAROS                                  44                                                          NOVO BONFIN              CABREUVA               SP13315000                                                                                          OUTRAS                        RUA MONTES CLAROS                                         44                                                  NOVO BONFIM              CABREUVA               SP13318000                            NPE                                          2022121320250114                                                                                                                                                                                                                                                                       MS235421601                   000000000000000000        00000000R11998177957         998177957           973762832           RICARDOJOELRICARDO0711HOTMAIL@GMAIL.COM                     
1012024121115       021980013929                  127738512857   RONALDO CARNEIRO                             19800711                                                                                                                                                                                                                                                                                                                                                                                                                                       RUA FRANCISCO YDA                                 138       CASA                                              JD NOVA PROMISSAO        PROMISSAO              SP16370000                    NAO INFORMADO                                                         EMPRESARIO                    RUA SASSAICHI MASAKI                                     187                                                  CENTRO                   PROMISSAO              SP16370000                            NPE                                          2024031520250103                                                                                                                                                                                                                                                                       MS30758703                    000000000000000000        00000000R                    981646639           981387448           RONALDODIGITAL@UOL.COM.BR                                   
1012024121115       036100002659                  105366709601   ANDREIA APARECIDA OLIVEIRA                   19820319                                                                                                                                                                                                                                                                                                                                                                                                                                       R PEDRO DIAS DE CARVALHO                          265       CASA                                              VL STA TEREZINHA         ARAXA                  MG38183256                                                                                          GERENTE - TODAS               R MARIA FRANCISCA DOS SANTOS                              25                                                  DOMINGOS ZEMA            ARAXA                  MG38181172                            NPE                                          2024051520250103                                                                                                                                                                                                                                                                       FS11 343 523                  000000000000000000        00000000R34984433678         999534094           984433678           KARLOS.AAX@GMAIL.COM                                        
1012024121115       036100002693                  129103922871   CLAUDIA ABREU DE MELO                        19810410                                                                                                                                                                                                                                                                                                                                                                                                                                       R DOS LIRIOS DA PAZ                               285       285                                               NOVA CEREJEIRA           ATIBAIA                SP12950658                    HOSPITAL NOVO ATIBAIA                                                 GERENTE - TODAS               RUA PEDRO CUNHA                                         0145RUA                                               VILA SANTISTA            ATIBAIA                SP12941020                            NPE                                          2023080720250110                                                                                                                                                                                                                                                                       FS326207119                   000000000000000000        00000000R963686684           984179598           1124017791          CLAUDIAMELO1004@HOTMAIL.COM                                 
1012024121115       025950073361                  134744926835   WESLEY ROVEDA                                19860723                                                                                                                                                                                                                                                                                                                                                                                                                                       RUA ISSACO COPPINI                                73                                                          OSVALDO CRUZ             SAO CAETANO DO SUL     SP09571110                                                                                          GERENTE - TODAS               RUA ISSACO COPPINI                                        73                                                  OSVALDO CRUZ             SAO CAETANO DO SUL     SP09571110                            NPE                                          2024050620250103                                                                                                                                                                                                                                                                       MS41.323.750                  000000000000000000        00000000R911882134           982036729           968626776           WESLEYROVEDA@YAHOO.COM.BR                                   
1012024121115       050090001554                  109714701899   AGENOR OLIVEIRA CAVALCANTI                   19641119                                                                                                                                                                                                                                                                                                                                                                                                                                       EST DA SERRINHA                                   321                                                         BAIRRO DO CAMBARA        SAO ROQUE              SP18133399                                                                                          OUTRAS                        EST DA SERRINHA                                          321                                                  BAIRRO DO CAMBARA        SAO ROQUE              SP181333991140045215                  NPE                                          2023020720250103                                                                                                                                                                                                                                                                       MS11681021                    000000000000000000        00000000R11999493666         999666278           11999666278         LUCIVANECAVALCANTI@GMAIL.COM                                
1012024121115       032690029307                  124816885897   EDUARDO SILVESTRE RIBEIRO                    19770623                                                                                                                                                                                                                                                                                                                                                                                                                                       R DOMINGOS GENARO                                 432                                                         JARDIM PORTAL DO PARQUE  ARARAS                 SP13608100                    NAO INFORMADO                                                         GERENTE - TODAS               R DOMINGOS GENARO                                        432                                                  JARDIM PORTAL DO PARQUE  ARARAS                 SP13608100                            NPE                                          2023050820250110                                                                                                                                                                                                                                                                       MS25911578                    000000000000000000        00000000R                    999491008           971282901                                                                       
1012024121115       026090006234                  114980106447   MARCIO JOSE DA SILVA JUNIOR                  20020711                                                                                                                                                                                                                                                                                                                                                                                                                                       RUA DO CEMITERIO                                  6                                                           SERTAOZINHO DE CIMA      MARAIAL                PE55405000                                                                                                                                                                                                                                                                                                1140045215                  NPE                                          2022110520250103                                                                                                                                                                                                                                                                       MS10748667                    000000000000000000        00000000R82998075989         998075989           40045215            MS5151613@GMAIL.COM                                         
1012024121115       032440002709                  191272220397   JOSE MACIEL DE OLIVEIRA MARQUES              19820518                                                                                                                                                                                                                                                          00000000                                                                                                                        FRANCISCA MARIA DE OLIVEIRA                  R SUEZ                                            2617      C 1                                               ITARARE                  TERESINA               PI64078268                                                                                                                        R SUEZ                                                  2617C 1                                               ITARARE                  TERESINA               PI640782688632361877                                                               2022110720250103                                                                                                                                                                                                                                                                         2094874   PI                000000000000000000        00000000R86995832074         999870991           988158095           MACIELDUDICO@GMAIL.COM                                      
1012024121115       211900045961                  103092223705   MARCOS ANTONIO MONFARDINI                    19731007                                                                                                                                                                                                                                                                                                                                                                                                                                       R RAFAEL BRAVO                                    180       LADO DO CAMPO                                     JACUPEMBA                ARACRUZ                ES29196157                                                                                          GERENTE - TODAS               R RAFAEL BRAVO                                           180                                                  JACUPEMBA                ARACRUZ                ES29196157                            NPE                                          2024031520250103                                                                                                                                                                                                                                                                       MS1167057SPT                  000000000000000000        00000000R27997185885         998126394           998126394           JALCEMARALVES@YAHOO.COM                                     
1012024121115       034960007655                  136588363850   MANUELA DE ALMEIDA CARVALHO                  19870821                                                                                                                                                                                                                                                                                                                                                                                                                                       GEORGE CHAHESTIAN                                 11        APTO 53                                           VILA BASILEIA            SAO PAULO              SP02471120                                                                                          OUTRAS                        GEORGE CHAHESTIAN                                         11APTO 53                                           VILA BASILEIA            SAO PAULO              SP02471120                            NPE                                          2024050620250103                                                                                                                                                                                                                                                                       MS435541262                   000000000000000000        00000000R                    983674719           983674719                                                                       
1012024121115       027560010213                  141959636804   LUAN DE FREITAS AGUIAR CLARO                 19940522                                                                                                                                                                                                                                                                                                                                                                                                                                       R FERNANDO BRAULIO DE MELO                        99                                                          JARDIM CRUZEIRO DO SUL   SAO JOSE DOS CAMPOS    SP12234811                    DIVISAO EAMO - ENGINE AIR MANA                                        GERENTE - TODAS               ROD PRESIDENTE DUTRA                                    1655                                                  JARDIM SATELITE          SAO JOSE DOS CAMPOS    SP12230002                            NPE                                          2024060520250103                                                                                                                                                                                                                                                                       MS415459990                   000000000000000000        00000000R                    996155403           981011705           LUANFREITASCLARO@GMAIL.COM                                  
1012024121115       031350004652                  100610990233   MARCOS BRANDAO CUNHA FILHO                   19931214                                                                                                                                                                                                                                                                                                                                                                                                                                       R ILHAS SALOMAO                                   13        A                                                 PONTA NEGRA              MANAUS                 AM69037132                                                                                          EMPRESARIO                                                                                                                                                                                                                        NPE                                          2023052220241213                                                                                                                                                                                                                                                                       MS18373801                    000000000000000000        00000000R92991201012         991201012           981460056           MARCOSBRANDAO19@GMAIL.COM                                   
1012024121115       038720004624                  102278264427   ALMIR ROBERTO DA SILVA                       19730912                                                                                                                                                                                                                                                                                                                                                                                                                                       R ALUISIO NASCIMENTO                              670                                                         PARQUE SAO VICENTE DE PAUNOVA IGUACU            RJ26271090                                                                                          APOSENTADO                                                                                                                                                                                                                        NPE                                          2024050620250103                                                                                                                                                                                                                                                                       MS284658879                   000000000000000000        00000000R21993294665         993294665           993294665           GABRIELSOARESDASILVA1809@GMAIL.COM                          
1012024121115       038840001562                  156760604504   RENATO PIRES CHAVES                          19690614                                                                                                                                                                                                                                                                                                                                                                                                                                       RUA OTAVIO SCHIANTI                               38                                                          MUTINGA                  OSASCO                 SP06280010                                                                                          OUTRAS                        R OTAVIO SCHIANTI                                         38                                                  MUTINGA                  OSASCO                 SP06280010                            NPE                                          2022120520250103                                                                                                                                                                                                                                                                       MS29178163                    000000000000000000        00000000R                    951322304           11918571029         RENATOPIRESCHAVES@GMAIL.COM                                 
1012024121115       026090006196                  111343497426   SHERMANY FERREIRA BARROS                     19970909                                                                                                                                                                                                                                                                                                                                                                                                                                       R LIZETE TEIXEIRA                                 120       CONJ. GRACILIANO RAMOS                            C UNIVERSITARIA          MACEIO                 AL57073330                    GEREMIAS ITAMAR RETESTES                                                                            AV DURVAL DE GOES MONTEIRO                              5148                                                  T MARTINS                MACEIO                 AL57061000                            NPE                                          2023030620250103                                                                                                                                                                                                                                                                       FS37791265                    000000000000000000        00000000R82987424329         996147144           987424329           KAYNAN_BARROS@HOTMAIL.COM                                   
1012024121115       023620035338                  162582291900   HUMBERTO PEDRO FERREIRA                      19651030                                                                                                                                                                                                                                                                                                                                                                                                                                       R BALDICERO FILOMENO                              8158                                                        R ILHA                   FLORIANOPOLIS          SC88064002                                                                                          APOSENTADO                                                                                                                                                                                                                        NPE                                          2024050620250103                                                                                                                                                                                                                                                                       MS1554364460                  000000000000000000        00000000R                    984399002           984045329           HUMBERTOPF65@GMAIL.COM                                      
1012024121115       036900005181                  103653185904   WAGNER TOME DO NASCIMENTO                    19811207                                                                                                                                                                                                                                                                                                                                                                                                                                       R MARCILIO DIAS                                   1011      APTO 401                                          ZONA 03                  MARINGA                PR87050120                                                                                                                                                                                                                                                                                                                            NPE                                          2024050620250103                                                                                                                                                                                                                                                                       MO                            000000000000000000        00000000R44997334538         997556059           44991192571         WAGNERNASCIMENTO0712@GMAIL.COM                              
1012024121115       001080011022                  104753964566   JOYCE DE SOUSA GUIMARAES                     19900217                                                                                                                                                                                                                                                                                                                                                                                                                                       R REGINALDO DA SILVA                              295       CASA 3                                            ALIANCA                  OSASCO                 SP06236200                    NAO INFORMADO                                                         GERENTE - TODAS               R REGINALDO DA SILVA                                     295CASA 3                                            ALIANCA                  OSASCO                 SP06236200                            NPE                                          2024090520250103                                                                                                                                                                                                                                                                       FS                            000000000000000000        00000000R                                                                                                                        
1012024121115       211040041859                  110170921840   REGINA DE CASSIA MASSOLA                     19670329                                                                                                                                                                                                                                                                                                                                                                                                                                       MIZAEL ALVES DE ARAUJO                            386                                                         BOTAFOGO                 STA RITA PASSA QUATRO  SP13670000                                                                                          OUTRAS                        MIZAEL ALVES DE ARAUJO                                   386                                                  BOTAFOGO                 STA RITA PASSA QUATRO  SP13670000                            NPE                                          2024120320241230                                                                                                                                                                                                                                                                       MS19374569                    000000000000000000        00000000R19991533576         991533576           19988492829         SERGIOAPBALDO@YAHOO.COM.BR                                  
1012024121115       021900000637                  110634370677   ANA PAULA MARTINS DA SILVEIRA                19900810                                                                                                                                                                                                                                                                                                                                                                                                                                       RUA CARLOS LEITE DOS SANTOS                       46                                                          PARQUE ARARIBA           SAO PAULO              SP05778120                    NEOBPO NEGOCIOS E TECNOLOGIA                                          GERENTE - TODAS               R CONSELHEIRO NEBIAS                                      14                                                  CAMPOS ELISEOS           SAO PAULO              SP012030001133352965                  NPE                                          2022110520250110                                                                                                                                                                                                                                                                       FS540239641                   000000000000000000        00000000R11960263009         987283287           1143806678          3FILHOSPNEUS@GMAIL.COM                                      
1012024121115       030120105436                  109451521755   DANIELI DE ALMEIDA PEREIRA FONSECA           19810718                                                                                                                                                                                                                                                                                                                                                                                                                                       R ROBERTO SIMONSEN                                165                                                         IMPERADOR                NOVA IGUACU            RJ26225750                                                                                                                                                                                                                                                                                                                            NPE                                          2024080520250103                                                                                                                                                                                                                                                                       FO                            000000000000000000        00000000R                                                                                                                        
1012024121115       038860000417                  134895545822   JOAO RICARDO PEREIRA                         19880630                                                                                                                                                                                                                                                                                                                                                                                                                                       AV PADRE OSWALDO VIEIRA DE ANDRADE                1185      BL33 AP408                                        JARDIM TERRAMERICA III   AMERICANA              SP13468881                                                                                          EMPRESARIO                    R QUINZE DE NOVEMBRO                                     463SALA 02                                           CENTRO                   SANTA BARBARA DOESTE   SP134500431930440191                  NPE                                          2023020720250103                                                                                                                                                                                                                                                                       MS0436179684                  000000000000000000        00000000R19996867848         997040999           995187006           JOAORP_SBO@HOTMAIL.COM                                      
1012024121115       031340003812                  103192701226   CLEIDIANE SANTOS PIMENTEL                    19950416                                                                                                                                                                                                                                                                                                                                                                                                                                       RUA AMOS                                          SN        NO FINAL DA RUA                                   MONTE SINAI              CANAA DOS CARAJAS      PA68537000                    HOSPITAL 5 DE OUTUBRO                                                 GERENTE - TODAS               RUA BELEM                                                 SN                                                  FLORESTA NOVA            CANAA DOS CARAJAS      PA68537000                            NPE                                          2022110520250103                                                                                                                                                                                                                                                                       FS0708808036                  000000000000000000        00000000R94992672888         992672888           992672888           CLEIDIANEPIMENTEL899@GMAIL.COM                              
1012024121115       032020006314                  149129325315   MARIA DE LOURDES QUEIROZ DO NASCIMENTO       19520423                                                                                                                                                                                                                                                                                                                                                                                                                                       R ELIFIO MEDEIROS DA CUNHA                        171                                                         PAJUCARA                 MARACANAU              CE61932245                                                                                          OUTRAS                        R ELIFIO MEDEIROS DA CUNHA                               171                                                  PAJUCARA                 MARACANAU              CE61932245                            NPE                                          2022120720250103                                                                                                                                                                                                                                                                       FS2008256881                  000000000000000000        00000000R85992608444         992608444           989598245           MEIRIAMPORTELA911@GMAIL.COM                                 
1012024121115       036290003921                  138107883845   EVANDRO DE OLIVEIRA DA SILVA                 19860515                                                                                                                                                                                                                                                                                                                                                                                                                                       R DELFIM DA COSTA RIBEIRO                         122                                                         JARDIM SAO JORGE         SAO PAULO              SP04432130                    GERENTE                                                               GERENTE - TODAS               R DELFIM DA COSTA RIBEIRO                               1001                                                  JARDIM SAO JORGE         SAO PAULO              SP044321301140032425                  NPE                                          2022120720250110                                                                                                                                                                                                                                                                       MS419702635                   000000000000000000        00000000R11930958564         930958564           930958564           EVANDRINHOO1986@GMAIL.COM                                   
1012024121115       035210003573                  101172473838   SANDRA MARIA REZENDE DA COSTA                19610212                                                                                                                                                                                                                                                                                                                                                                                                                                       R AUGUSTO SAVIETTO                                20        CASA                                              JARDIM RINA              SANTO ANDRE            SP09271750                                                                                          APOSENTADO                                                                                                                                                                                                                        NPE                                          2022110520250103                                                                                                                                                                                                                                                                       FS12701406                    000000000000000000        00000000R11974725979         998501235           949752253           GILBERTOALVESCOSTA11@GMAIL.COM                              
1012024121115       023620026854                  102970854929   CRISTIANE PATRICIA DOS SANTOS                19760212                                                                                                                                                                                                                                                                                                                                                                                                                                       R ROSA LOURDES CRUZ PRESTES                       64        CASA                                              BOM VIVER                BIGUACU                SC88160720                                                                                          GERENTE - TODAS               R ROSA LOURDES CRUZ PRESTES                               64                                                  BOM VIVER                BIGUACU                SC88160720                            NPE                                          2023020720250103                                                                                                                                                                                                                                                                       FS0458485174                  000000000000000000        00000000R                    991287759           984927543                                                                       
1012024121115       038720002742                  140133810879   MARIA DO CARMO DE SOUSA                      19900422                                                                                                                                                                                                                                                                                                                                                                                                                                       R CAMELIAS                                        159                                                         JD S SEBASTIAO           HORTOLANDIA            SP13187158                                                                                          OUTRAS                        R FLOR DE LIZ                                            393                                                  JARDIM SAO SEBASTIAO     HORTOLANDIA            SP13187156                            NPE                                          2024020520250103                                                                                                                                                                                                                                                                       FS399094349                   000000000000000000        00000000R19994218657         1134923114          1134923114          MARIACS07@YAHOO.COM.BR                                      
1012024121115       037140000199                  106479934148   ALEXANDRE GOMES LOURENCO                     19990101                                                                                                                                                                                                                                                                                                                                                                                                                                       R ARI BENTO XAVIER                                SN        QD 4 L 19                                         SETOR PANORAMA PARQUE    INHUMAS                GO75402233                                                                                          EMPRESARIO                    AV VEREADOR WILSON QUIRINO DE ANDRADE                   1247                                                  VILA SAO SEBASTIAO       INHUMAS                GO75400411                            NPE                                          2023060520250103                                                                                                                                                                                                                                                                       MS6383595                     000000000000000000        00000000R                    986100801           984338007           GOPECH.INFO2020@GMAIL.COM                                   
1012024121115       035900010757                  144395630820   AMANDA BELO DA SILVA                         19950711                                                                                                                                                                                                                                                                                                                                                                                                                                       RUA SIMONE MARTINI                                286       CS                                                JARDIM SANTA MARIA       SAO PAULO              SP03573170                    COBRAP COMPANHIA BRASILEIRA DE                                        GERENTE - TODAS               R FRADIQUE COUTINHO                                      212                                                  PINHEIROS                SAO PAULO              SP05416000                            NPE                                          2023030720250110                                                                                                                                                                                                                                                                       FS434614312                   000000000000000000        00000000R11956581135         998835454           941547115           AMANDA110795@HOTMAIL.COM                                    
1012024121115       211040027993                  118507298591   AILTON PEREIRA LIMA                          19610128                                                                                                                                                                                                                                                                                                                                                                                                                                       R DO MOGNO                                        103                                                         SAO CRISTOVAO            SALVADOR               BA41500084                                                                                          GERENTE - TODAS               R DO MOGNO                                               103                                                  SAO CRISTOVAO            SALVADOR               BA415000841140045215                  NPE                                          2022120720250103                                                                                                                                                                                                                                                                       MS0166121568                  000000000000000000        00000000R75981293348         999985231           71988404461         LEONARDOO.LIMMA@GMAIL.COM                                   
1012024121115       050470002705                  113380467480   ARNALDO SANTOS ALVES                         20000104                                                                                                                                                                                                                                                                                                                                                                                                                                       RECANTO DOS COQUEIRAIS                            258       RUA L                                             NOVA SATUBA              SATUBA                 AL57120000                                                                                          OUTRAS                        R MIGUEL PALMEIRA                                        809                                                  PITANGUINHA              MACEIO                 AL57052242                            NPE                                          2023050820250110                                                                                                                                                                                                                                                                       MS0736451385                  000000000000000000        00000000R                    999921731           991207828           ARNALDINHOALVES45@GMAIL.COM                                 
1012024121115       027120017053                  131999865871   DEBORA CRISTINA TAVARES                      19810403                                                                                                                                                                                                                                                                                                                                                                                                                                       EST MUNICIPAL                                     447                                                         CHACARAS REUNIDAS IGARAPEJACAREI                SP12330070                                                                                          OUTRAS                        EST MUNICIPAL                                            447                                                  CHACARAS REUNIDAS IGARAPEJACAREI                SP12330070                            NPE                                          2023020720250103                                                                                                                                                                                                                                                                       FC343331640                   000000000000000000        00000000R12991322121         997281326           991322121           ANDREIALEITH@HOTMAIL.COM                                    
1012024121115       036200004601                  168622260534   SANDRO SOARES MARQUES                        19720819                                                                                                                                                                                                                                                                                                                                                                                                                                       R VALDIVINO RIBEIRO DE QUEIROZ                    565                                                         ESTANCIA BIQUINE         TEIXEIRA DE FREITAS    BA45986060                                                                                          OUTRAS                        R VALDIVINO RIBEIRO DE QUEIROZ                           565                                                  ESTANCIA BIQUINE         TEIXEIRA DE FREITAS    BA45986060                            NPE                                          2023110720250103                                                                                                                                                                                                                                                                       MS0164110312                  000000000000000000        00000000R73999758689         999975868           939666993           LOPES.THALYANE@GMAIL.COM                                    
1012024121115       038720003314                  152912779553   WILTON DE OLIVEIRA SOUSA                     19691212                                                                                                                                                                                                                                                                                                                                                                                                                                       R SINGAPURA                                       101                                                         BURITIS                  BELO HORIZONTE         MG30575819                                                                                          OUTRAS                        R MOISES KALIL                                           101                                                  BURITIS                  BELO HORIZONTE         MG30575819                            NPE                                          2023080720250103                                                                                                                                                                                                                                                                       MS390327522                   000000000000000000        00000000R31986961324         986961324           986961324           DEBORASILVA_33@HOTMAIL.COM                                  
1012024121115       035170006171                  130133684890   SANDRA REGINA DE OLIVEIRA TYMOSZCZENKO       19820222                                                                                                                                                                                                                                                                                                                                                                                                                                       R JOSE FIGLIOLINI                                 81                                                          VILA NILO                SAO PAULO              SP02278020                    OLIBETEL ADM E CORRETORA DE SE                                        EMPRESARIO                    R JOSE FIGLIOLINI                                         81                                                  VILA NILO                SAO PAULO              SP02278020                            NPE                                          2024020520250103                                                                                                                                                                                                                                                                       FS                            000000000000000000        00000000R970691625           971534919           971534919           SANSYOLIVEIRA72@GMAIL.COM                                   
1012024121115       036110005276                  129735699826   FERNANDO PASCUTI                             19801225                                                                                                                                                                                                                                                                                                                                                                                                                                       R 27                                              1709                                                        JARDIM MIRASSOL          RIO CLARO              SP13503140                                                                                          OUTRAS                        R 27                                                    1709CASA                                              JARDIM MIRASSOL          RIO CLARO              SP13503140                            NPE                                          2024111120250114                                                                                                                                                                                                                                                                       MS                            000000000000000000        00000000R                                                                                                                        
1012024121115       030120074988                  108380453751   HELIO IGNACIO DA ROSA JUNIOR                 19761128                                                                                                                                                                                                                                                                                                                                                                                                                                       AV ALBERTO TORRES                                 60        AP 703                                            ALTO                     TERESOPOLIS            RJ25964005                                                                                                                        AV ERASMO BRAGA                                          315                                                  CENTRO                   RIO DE JANEIRO         RJ20020000                            NPE                                          2022120520250103                                                                                                                                                                                                                                                                       MO113216188                   000000000000000000        00000000R21971762811         971762811           971762811           RIOLIFFE2001@AOL.COM.BR                                     
1012024121115       036180005631                  105364013731   MIGUEL FERNANDO OLIVEIRA SILVA               19810814                                                                                                                                                                                                                                                                                                                                                                                                                                       MESSIAS                                           328                                                         PACIENCIA                RIO DE JANEIRO         RJ23585056                                                                                          GERENTE - TODAS               MESSIAS                                                  328                                                  PACIENCIA                RIO DE JANEIRO         RJ23585056                            NPE                                          2023100520250102                                                                                                                                                                                                                                                                       MS113293120                   000000000000000000        00000000R21982756111         998110328           21982164840         CARLA_VIANA81@YAHOO.COM.BR                                  
1012024121115       032440004053                  105125077321   MELKA EMANUELLY CARVALHO OLIVEIRA            19950712                                                                                                                                                                                                                                                                                                                                                                                                                                       AV JOAO XXIII                                     5325      BL 1 SL 23                                        JOQUEI                   TERESINA               PI64049010                                                                                          OUTRAS                        AV POTI VELHO                                              6QD 4 RUA 4                                        SANTA ROSA               TERESINA               PI640110101140045215                  NPE                                          2022110820250110                                                                                                                                                                                                                                                                       FS3267410                     000000000000000000        00000000R86995267313         994994210           994994210           MELKACARVALHO12@HOTMAIL.COM                                 
1012024121115       035210004962                  126899144840   FABIO PEREIRA                                19780630                                                                                                                                                                                                                                                                                                                                                                                                                                       AV FLOR DE VILA FORMOSA                           159                                                         VILA FORMOSA             SAO PAULO              SP03366010                                                                                          EMPRESARIO                    R DONA ESCOLASTICA M. DA FONSECA                        1100                                                  VILA MATILDE             SAO PAULO              SP03513000                            NPE                                          2023110720250103                                                                                                                                                                                                                                                                       MS27.883.224                  000000000000000000        00000000R                    955693790           955693790           FABIO_PEREIRA_ABB@HOTMAIL.COM                               
1012024121115       038710000451                  102659668175   CASSIO MEIRELES DE PAULA                     19900513                                                                                                                                                                                                                                                                                                                                                                                                                                       R ARTUR RIBEIRO                                   06        QD 81 LOTE                                        ST FUMAL                 LUZIANIA               GO72801650                                                                                          GERENTE - TODAS               QUADRA                                                    SNNUCLEO RURAL MO                                   REC EMAS                 RECANTO DAS EMAS       DF72600100                            NPE                                          2022110820250110                                                                                                                                                                                                                                                                       MO5188456                     000000000000000000        00000000R999585510           999565963           996598677           CEZARRAYANNE@GMAIL.COM                                      
1012024121115       031340006421                  199167425291   EDIVALDO DA SILVA CONCEICAO                  19890402                                                                                                                                                                                                                                                                                                                                                                                                                                       FL 14 QD D LT                                     17                                                          N MARABA                 MARABA                 PA68504000                                                                                          OUTRAS                        R D                                                       17                                                  NOVA MARABA              MARABA                 PA685101071140045215                  NPE                                          2022120520250103                                                                                                                                                                                                                                                                       MS0471996509                  000000000000000000        00000000R94991186108         991186108           40045215            DIMMIS2013@HOTMAIL.COM                                      
1012024121115       034610001835                  108963519635   NAYARA WELTE EUGENIO                         19890728                                                                                                                                                                                                                                                                                                                                                                                                                                       R JORGE MARTINS PINTO                             1754      202                                               SANTA MONICA             UBERLANDIA             MG38408230                                                                                          OUTRAS                        R JORGE MARTINS PINTO                                   1754202                                               SANTA MONICA             UBERLANDIA             MG384082301140045215                  NPE                                          2022110820250109                                                                                                                                                                                                                                                                       FS15766787                    000000000000000000        00000000R34999224586         999113807           3430847059          NAYARAWELTE.VET@GMAIL.COM                                   
1012024121115       025950053036                  118966392830   PAULO VINICIUS CANELA                        19780215                                                                                                                                                                                                                                                                                                                                                                                                                                       R JULIO SERGIO DE CASTRO                          61                                                          PARQUE AMERICA           SAO PAULO              SP04822180                                                                                          OUTRAS                        R JULIO SERGIO DE CASTRO                                  61                                                  PARQUE AMERICA           SAO PAULO              SP048221801140045215                  NPE                                          2023040420250101                                                                                                                                                                                                                                                                       MS288956771                   000000000000000000        00000000R11989468476         989468476           965982178           PVCANELA@GMAIL.COM                                          
1012024121115       035900013798                  105283063836   ANA PAULA FRAGOSO VARLOTTA                   19650124                                                                                                                                                                                                                                                                                                                                                                                                                                       AL BEIJA-FLOR                                     491                                                         MORADA DOS PASSAROS      BARUERI                SP064282001141921824                                                                                OUTRAS                        AL BEIJA-FLOR                                            491                                                  MORADA DOS PASSAROS      BARUERI                SP06428200                            NPE                                          2023060520250103                                                                                                                                                                                                                                                                       FS5667254                     000000000000000000        00000000R                    994995233           994995233           ANAVTT@GMAIL.COM                                            
1012024121115       022800022974                  140987779168   NILSON MARTINS DE BARCELOS                   19670519                                                                                                                                                                                                                                                                                                                                                                                                                                       R J 19                                            SN        QD80 LT03                                         ST JAO                   GOIANIA                GO74673340                                                                                          EMPRESARIO                    J                                                          0QD LT                                             SETOR JAO                GOIANIA                GO74673340                            NPE                                          2024011620241214                                                                                                                                                                                                                                                                       MS2243283                     000000000000000000        00000000R62982603635         982603635           982603635           NILSONBARCELOS@HOTMAIL.COM                                  
1012024121115       038090001644                  101949674924   ANDERSON ALFREDO BEILNER                     19760509                                                                                                                                                                                                                                                                                                                                                                                                                                       R RIO BRANCO                                      1434                                                        NEVA                     CASCAVEL               PR85802190                                                                                                                        R JUSCELINO KUBITSCHEK                                   145                                                  AT ALEGRE                CASCAVEL               PR85805040                            NPE                                          2023013020241228                                                                                                                                                                                                                                                                       MC0076297891                  000000000000000000        00000000R45998405727         999997323           998405727           LOJABOUTIQUEMIMOS@HOTMAIL.COM                               
1012024121115       050300003364                  132915996830   ADRIANA ALVES DOS REIS                       19850823                                                                                                                                                                                                                                                                  11987407878                                                                                                                                                          AV NOVE DE JULHO                                  1510      AP 903                                            B VISTA                  SAO PAULO              SP01312001                                                                                          EMPRESARIO                    R CANARIO                                               1212AP 12                                             MOEMA                    SAO PAULO              SP04521005                            NPE                                          2024050620250103                                                                                                                                                                                                                                                                       FS4544344                     000000000000000000        00000000R11967214807         988930110           11958060269         ADRIANA@A2RSEGUROS.COM.BR                                   
1012024121115       021980015840                  101654609706   ANTONIO CARLOS TRINDADE DOS SANTOS           19720109                                                                                                                                                                                                                                                                                                                                                                                                                                       R ANDARAI                                         513                                                         ANDARAI                  RIO DE JANEIRO         RJ20541210                                                                                          EMPRESARIO                    R ANDARAI                                                513                                                  ANDARAI                  RIO DE JANEIRO         RJ20541210                            NPE                                          2024050620250103                                                                                                                                                                                                                                                                       MS                            000000000000000000        00000000R21996923172         996923172           974517053           GUILHERMESANTTOS0012@GMAIL.COM                              
1012024121115       054880000220                  175903130330   RICARDO GONCALVES SILVA                      19770713                                                                                                                                                                                                                                                                                                                                                                                                                                       R BARBOSA DE FREITAS                              2541      APTO 1801                                         DIONISIO TORRES          FORTALEZA              CE60170174                                                                                          OUTRAS                        R BARBOSA DE FREITAS                                    2541APTO 1801                                         DIONISIO TORRES          FORTALEZA              CE60170174                            NPE                                          2024022320241222                                                                                                                                                                                                                                                                       MS9300216370                  000000000000000000        00000000R                                                            RICARDOGONCALVESSILVA@YAHOO.COM.BR                          
1012024121115       027820002734                  116810497757   CAMILLA LUIZA DA ROCHA SILVA                 19970807                                                                                                                                                                                                                                                                                                                                                                                                                                       PR DE SEPETIBA                                    402                                                         SEPETIBA                 RIO DE JANEIRO         RJ23535140                    N A                                                                   GERENTE - TODAS               AV BRASIL                                               8443                                                  RAMOS                    RIO DE JANEIRO         RJ210123532131949200                  NPE                                          2023020720250110                                                                                                                                                                                                                                                                       FO282.293.38                  000000000000000000        00000000R21997646054         997646054           977783040           BRUNOPFL-@HOTMAIL.COM                                       
1012024121115       035210002006                  181128584204   GERMANO BESERRA DA SILVA NETO                19840420                                                                                                                                                                                                                                                                                                                                                                                                                                       R LUCRECIA MACIEL                                 333       BL 2 AP 37                                        VILA GUARANI Z SUL       SAO PAULO              SP04314130                    GPBR PARTICIPACOES LTDA.                                              ENGENHEIRO                                                                                                                                                                                                                        NPE                                          2023020720250103                                                                                                                                                                                                                                                                       MS54418435X                   000000000000000000        00000000R11986268294         986268294           986268294           MARCOANTONIOSEGUROS@HOTMAIL.COM                             
1012024121115       026810007225                  104579328132   RAFAEL FERREIRA PEDRO DA SILVA               19990810                                                                                                                                                                                                                                                                                                                                                                                                                                       R ENEDINA PEREIRA FERREIRA                        450                                                         PARQUE RESIDENCIAL RITA VCAMPO GRANDE           MS79052490                                                                                          OUTRAS                        R ENEDINA PEREIRA FERREIRA                               450                                                  PARQUE RESIDENCIAL RITA VCAMPO GRANDE           MS790524901140045215                  NPE                                          2023020720250103                                                                                                                                                                                                                                                                       MS54510647                    000000000000000000        00000000R67996377932         999978986           33245771            RAFAELFPCOXIM@GMAIL.COM                                     
1012024121115       022800024117                  171313486191   ANA KARLA ALMEIDA DE PAULA                   19800408                                                                                                                                                                                                                                                                                                                                                                                                                                       R C116                                            127       AP 702                                            JARDIM AMERICA           GOIANIA                GO74255390                                                                                          OUTRAS                        R C116                                                   127                                                  JARDIM AMERICA           GOIANIA                GO74255390                            NPE                                          2024080520250103                                                                                                                                                                                                                                                                       FS                            000000000000000000        00000000R                    994077270           994077270                                                                       
1012024121115       059620000057                  112657631860   CLAUDIA DELORENZO ROBLEDO                    19701219                                                                                                                                                                                                                                                                                                                                                                                                                                       R TRASYBULO P DE ALBUQUERQUE                      580                                                         JARDIM SANTA HELENA      SAO PAULO              SP04787000                                                                                          EMPRESARIO                    R TRASYBULO P DE ALBUQUERQUE                             580                                                  JARDIM SANTA HELENA      SAO PAULO              SP04787000                            NPE                                          2024080520250103                                                                                                                                                                                                                                                                       MS                            000000000000000000        00000000R11982929966         982929966           982929966           CLAUDIA@DELORENZO.COM                                       
1012024121115       038710001910                  128446673843   MARCOS DOS SANTOS                            19790925                                                                                                                                                                                                                                                                                                                                                                                                                                       R FERDINANDO PICHELLI                             1162                                                        PARQUE CIDADE NOVA       MOGI GUACU             SP13845410                    NAO INFORMADO                                                         GERENTE - TODAS               R FERDINANDO PICHELLI                                   1162                                                  PARQUE CIDADE NOVA       MOGI GUACU             SP13845410                            NPE                                          2024070520250103                                                                                                                                                                                                                                                                       MS2844667384                  000000000000000000        00000000R                    996095061           996095061           PATI820@HOTMAIL.COM                                         
