001202412172024121700000110
1012024121715       025950032887                  109158110496   JOSIWENDSON ISAEL LENILSON DA SILVA          19921022                                                                                                                                                                                                                                                                                                                                                                                                                                       R FREI RICARDO DO PILAR                           366       CASA                                              CENTENARIO               CARUARU                PE55008490                                                                                          GERENTE - TODAS               R FREI RICARDO DO PILAR                                  366                                                  CENTENARIO               CARUARU                PE550084901140045215                  NPE                                          2024121620520319                                                                                                                                                                                                                                                                       MS0588142990                  000000000000000000        00000000R996454576           998698264           982352987           ISAELWENDSON@GMAIL.COM                                      
1012024121715       035660009995                  134630369830   FRANK WILLIAN SASSATANI                      19870817                                                                                                                                                                                                                                                                                                                                                                                                                                       AV ANTARTICA                                      405                                                         AGUA BRANCA              SAO PAULO              SP05003020                                                                                          OUTRAS                        AV ANTARTICA                                             405                                                  AGUA BRANCA              SAO PAULO              SP05003020                            NPE                                          2022110520520503                                                                                                                                                                                                                                                                       MS444227799                   000000000000000000        00000000R11965160000                                                                                                             
1012024121715       035730006997                  133340319855   ANA PAULA MARQUES DOS SANTOS                 19830201                                                                                                                                                                                                                                                                                                                                                                                                                                       R LAGO TANGUA                                     350       CASA                                              PALMITAL                 COLOMBO                PR83413398                                                                                          OUTRAS                        R LAGO TANGUA                                            350CASA                                              PALMITAL                 COLOMBO                PR83413398                            NPE                                          2023111320520503                                                                                                                                                                                                                                                                       FS131161239                   000000000000000000        00000000R41997045254         997045254           987864067           ANAPAULAMDS@OUTLOOK.COM                                     
1012024121715       025490011359                  110850543495   EVELYNE DA LUZ ELIAS F DE MEDEIROS           19931030                                                                                                                                                                                                                                                                                                                                                                                                                                       R DEIMOS                                          238       APT 102                                           NOSSA SENHORA DA CONCEICAPAULISTA               PE53429220                                                                                          OUTRAS                        R DEIMOS                                                 238APT 102                                           NOSSA SENHORA DA CONCEICAPAULISTA               PE534292208135159267                  NPE                                          2022110520520319                                                                                                                                                                                                                                                                       FS9088607                     000000000000000000        00000000R81992075317         995156297           995156297           PAULOSANDER14@GMAIL.COM                                     
1012024121715       035660020504                  132101058987   JOAO GOMES CAMPOS                            19571212                                                                                                                                                                                                                                                                                                                                                                                                                                       R AUGUSTO TREVISAN                                44                                                          MARIA ANTONIETA          PINHAIS                PR833310204136535844          N A                                                                   OUTRAS                        R AUGUSTO TREVISAN                                        44                                                  MARIA ANTONIETA          PINHAIS                PR833310201140045215                  NPE                                          2022110520520503                                                                                                                                                                                                                                                                       MS1.773.853                   000000000000000000        00000000R41998259681                                                                                                             
1012024121715       038720001842                  135207685856   THAIS COUTINHO DA SILVA                      19910805                                                                                                                                                                                                                                                                                                                                                                                                                                       R RUA MARINA SADDI HAIDAR                         216                                                         JARDIM UMUARAMA          SAO PAULO              SP04650050                                                                                                                                                                                                                                                                                                                            NPE                                          2023031320520503                                                                                                                                                                                                                                                                       MO439625701                   000000000000000000        00000000R11963575463         996357546           21471717            THAISCOUTINS@GMAIL.COM                                      
1012024121715       026180000205                  132834427895   TATIANE TEREZINHA DA CRUZ ISIDORIO           19830924                                                                                                                                                                                                                                                                                                                                                                                                                                       R LUIZ NASCIMENTO PONTES                          1430                                                        LARANJEIRAS              CAIEIRAS               SP07739800                                                                                          GERENTE - TODAS               R LUIZ NASCIMENTO PONTES                                1430                                                  LARANJEIRAS              CAIEIRAS               SP07739800                            NPE                                          2023041120520429                                                                                                                                                                                                                                                                       FS425494585                   000000000000000000        00000000R975111416           975115405           975115405           ISABELLI_TATI@HOTMAIL.COM                                   
1012024121715       032690024733                  116251807644   EDUARDO GABRIEL NUNES                        20001204                                                                                                                                                                                                                                                                                                                                                                                                                                       R JORDELINA VIEIRA DE JESUS                       220                                                         SANTANA JUSTINOPOLIS     RIBEIRAO DAS NEVES     MG33920190                                                                                          OUTRAS                        R JORDELINA VIEIRA DE JESUS                              220                                                  SANTANA JUSTINOPOLIS     RIBEIRAO DAS NEVES     MG339201901140045215                  NPE                                          2023041120520503                                                                                                                                                                                                                                                                       MS21471734                    000000000000000000        00000000R31989657013         998102675           989657013           EDUARDOGABRIEL04122@GMAIL.COM                               
1012024121715       050060001151                  194470049620   ENAIDE RODRIGUES NORONHA                     19610303                                                                                                                                                                                                                                                                                                                                                                                                                                       R J                                               31        CASA                                              CASTRO PIRES             TEOFILO OTONI          MG39801607                                                                                          APOSENTADO                                                                                                                                                                                                                        NPE                                          2023100520520330                                                                                                                                                                                                                                                                       FS                            000000000000000000        00000000R33987032065         997699243           918520060           ENAIDERNORONHA@GMAIL.COM                                    
1012024121715       034960007095                  155072330397   MOISES DE FATIMA COSTA MUNIZ                 19730619                                                                                                                                                                                                                                                                                                                                                                                                                                       R NOVA GUAIANAZES                                 265                                                         GUAIANAZES               SAO PAULO              SP08473001                                                                                          OUTRAS                        R NOVA GUAIANAZES                                        265                                                  GUAIANAZES               SAO PAULO              SP08473001                            NPE                                          2024010920520428                                                                                                                                                                                                                                                                       MS37163311                    000000000000000000        00000000R11977461240         959069040           959069040           MFCMUNIZ1973@YAHOO.COM.BR                                   
1012024121715       036100004077                  191887496815   ANTONIO SIMOES DA SILVA                      19550921                                                                                                                                                                                                                                                                                                                                                                                                                                       BENEDITA MOREIRA TEIXEIRA CESAR                   175                                                         JD COLONIAL 1            ARACOIABA DA SERRA     SP18190000                                                                                          APOSENTADO                                                                                                                                                                                                                        NPE                                          2023101620520503                                                                                                                                                                                                                                                                       MS8470528                     000000000000000000        00000000R15997830383         997830383           997830383                                                                       
1012024121715       038710001535                  148286139860   DAIANY DA SILVA DOS SANTOS                   19960808                                                                                                                                                                                                                                                                                                                                                                                                                                       R SANCHES DE AGUIAR                               201       B                                                 VILA ORATORIO            SAO PAULO              SP03192140                                                                                          OUTRAS                        R SANCHES DE AGUIAR                                      201B                                                 VILA ORATORIO            SAO PAULO              SP03192140                            NPE                                          2023091220520503                                                                                                                                                                                                                                                                       FS50183282                    000000000000000000        00000000R11970164870         981028420           957132239           SDAIANY561@GMAIL.COM                                        
1012024121715       038720000699                  110186735472   JASON DIAS DE LIMA                           19500319                                                                                                                                                                                                                                                                                                                                                                                                                                       RUA APRIGIO GUIMARAES                             390       AP 402                                            TEJIPIO                  RECIFE                 PE50930640                    N A                                                                   OUTRAS                        RUA APRIGIO GUIMARAES                                    390AP 402                                            TEJIPIO                  RECIFE                 PE50930640                            NPE                                          2022110520520503                                                                                                                                                                                                                                                                       MS746695                      000000000000000000        00000000R67998726057         999920274           94087804            PABLOFORLAN1985@HOTMAIL.COM                                 
1012024121715       038720001282                  120487353000175NELSON O F BARBOSA 69390525772                                                                                                                                                                                                                                                                                                                                                                                                                                                                                                                                                                                                                              25550470                                                                                                                        R ONIX                                                    SNLT 28 QD 52 CS2                                   L FLUMINENSE             SAO JOAO DE MERITI     RJ25550470                            NPE                                          2023011020520430                                                                                                                                                                                                                                                                        O                            000000000000000000        00000000R21965220849         969200893           969200893           INGRID.MIGLIORIN@GMAIL.COM                                  
1012024121715       050040002216                  110532711742   EDEN CRISTIAN FIGUEIREDO LIMA                19850319                                                                                                                                                                                                                                                                                                                                                                                                                                       R JACOMO JACOBUCI                                 110       CASA                                              JARDIM RIZZO             GUARULHOS              SP07191080                                                                                          EMPRESARIO                    R JACOMO JACOBUCI                                        110                                                  JARDIM RIZZO             GUARULHOS              SP07191080                            NPE                                          2023051520520503                                                                                                                                                                                                                                                                       MS1053271174                  000000000000000000        00000000R21983734771         996764771           1139801380          EDENCRISTIANFIGUEIREDOLIMA@GMAIL.COM                        
1012024121715       032690024293                  102602506605   ALETHEIA GUIMARAES DE MELO                   19741008                                                                                                                                                                                                                                                                                                                                                                                                                                       R BOAVENTURA                                      1935      APTO 1404                                         LIBERDADE                BELO HORIZONTE         MG31270310                                                                                          EMPRESARIO                                                                                                                                                                                                                        NPE                                          2022121320520503                                                                                                                                                                                                                                                                       FS0093979050                  000000000000000000        00000000R31997289914         997289914           36241363            ALETHEIAMELO@YAHOO.COM.BR                                   
1012024121715       035210008104                  135336350826   AMANDA AMORIM MACIEL                         19880123                                                                                                                                                                                                                                                                                                                                                                                                                                       R DA INDEPENDENCIA                                458       AP. 703 A                                         CAMBUCI                  SAO PAULO              SP01524000                                                                                          OUTRAS                        R DA INDEPENDENCIA                                       458AP. 703 A                                         CAMBUCI                  SAO PAULO              SP01524000                            NPE                                          2024081220520503                                                                                                                                                                                                                                                                       FS                            000000000000000000        00000000R                    959214864           950446470                                                                       
1012024121715       035660022143                  138398630825   ILIDIO DIAS DO COUTO NETO                    19480320                                                                                                                                                                                                                                                                                                                                                                                                                                       AV ODAIR SANTANELLI                               800       BL 16 AP 24                                       PARQUE CECAP             GUARULHOS              SP07190050                    N A                                                                   OUTRAS                        AV ODAIR SANTANELLI                                      800BL 16 AP 24                                       PARQUE CECAP             GUARULHOS              SP07190050                            NPE                                          2022110520520503                                                                                                                                                                                                                                                                       MS3392347                     000000000000000000        00000000R11981260996         984026347           984026347           SANDROR_COUTO@HOTMAIL.COM                                   
1012024121715       036900003340                  143992997000116G2 CORRETORA DE SEGUROS LTDA                                                                                                                                                                                                                                                                                                                                                                                                                                                                                                                                                                                                                                81050220                                                                                                                        TV NEY AZEVEDO                                           177                                                  N MUNDO                  CURITIBA               PR81050220                            NPE                                          2022120720520319                                                                                                                                                                                                                                                                        O                            000000000000000000        00000000R41996325971         995218260           995218260           KIAGRACZYK@HOTMAIL.COM                                      
1012024121715       038710000183                  156623925600   EDUARDO ROQUE ARAUJO                         19640401                                                                                                                                                                                                                                                                                                                                                                                                                                       RUA MAIRA,                                        241                                                         FERNAO DIAS              BELO HORIZONTE         MG31920140                                                                                          OUTRAS                        R MAIRA                                                  241CASA                                              DOM JOAQUIM              BELO HORIZONTE         MG319201401140045215                  NPE                                          2022110520520503                                                                                                                                                                                                                                                                       MS2091308                     000000000000000000        00000000R31992698597         985847001           983921663           EDUARDOROQUEARAUJO@GMAIL.COM                                
1012024121715       032690028857                  108818027603   JULIANA RAPHAELLA BARBOSA DE OLIVEIRA        19881217                                                                                                                                                                                                                                                                                                                                                                                                                                       R TODOS OS SANTOS                                 170       CASA                                              ALTO CAICARAS            BELO HORIZONTE         MG30775050                                                                                          EMPRESARIO                    R TODOS OS SANTOS                                        170                                                  ALTO CAICARAS            BELO HORIZONTE         MG30775050                            NPE                                          2023071320520503                                                                                                                                                                                                                                                                       FS0881802760                  000000000000000000        00000000R                    999221988           31986061114         JULIANA.RAPHAELLA88@GMAIL.COM                               
1012024121715       032920003226                  157271704000   ADAO CANDIDO LOPES DOS SANTOS                19710104                                                                                                                                                                                                                                                                                                                                                                                                                                       COND SQS                                          315       BL H                                              ASA SUL                  BRASILIA               DF70384080                                                                                          OUTRAS                        COND SQS                                                 315BL H                                              ASA SUL                  BRASILIA               DF70384080                            NPE                                          2024041520520503                                                                                                                                                                                                                                                                       MS5727170400                  000000000000000000        00000000R                    992560616           992560616                                                                       
1012024121715       033110000062                  171406263915   CLEIA APARECIDA LIMA DE PAULA                19670617                                                                                                                                                                                                                                                                                                                                                                                                                                       RUA NEWTON CRAVEIRO DE AMORIM                     12        CASA                                              MARIA ROSA GORESKI       CURITIBA               PR84140000                    N A                                                                   OUTRAS                        RUA NEWTON CRAVEIRO DE AMORIM                             12CASA                                              MARIA ROSA GORESKI       CURITIBA               PR841400004132327062                  NPE                                          2022110520520503                                                                                                                                                                                                                                                                       FS5.035.127-                  000000000000000000        00000000R42991536271         991536271           32327062            ALLISSON.RENAN@HOTMAIL.COM                                  
1012024121715       030120065325                  110691169713   BRUNO RAMOS LIMA                             19860222                                                                                                                                                                                                                                                                                                                                                                                                                                       R MANGARATIBA                                     SN        LT13 QD23                                         VILA SAO JOAO            SAO JOAO DE MERITI     RJ25570253                                                                                          GERENTE - TODAS               R AFONSO CAVALCANTI                                      4552                                                 CIDADE NOVA              RIO DE JANEIRO         RJ20211110                            NPE                                          2022120720520503                                                                                                                                                                                                                                                                       MS0507783707                  000000000000000000        00000000R21987092629                                                 BRUNORAMOSLOCUTOR@HOTMAIL.COM                               
1012024121715       211930016197                  134563510890   LUIZ FELIPE BUENO DA SILVA                   19860611                                                                                                                                                                                                                                                                                                                                                                                                                                       R RODESIA                                         38                                                          PRQ ORATORIO             SANTO ANDRE            SP09251080                    VOLKSWAGEN DO BRASIL LTDA                                                                           VIA ANCHIETA,                                             23                                                  DEMARCHI                 SAO BERNARDO DO CAMPO  SP09823901                            NPE                                          2024101520520503                                                                                                                                                                                                                                                                       MS44.041.679                  000000000000000000        00000000R                    959441294           11951564169                                                                     
10120241217Q5       025490011359                  995156297                   OUTROS                        
10120241217Q5       032690028857                  1140045215                  RECADO                        
10120241217Q5       032690028857                  31986061114                 OUTROS                        
10120241217Q5       032690028857                  981518869                   OUTROS                        
10120241217Q5       033110000062                  32327062                    OUTROS                        
10120241217Q5       033110000062                  4132327062                  COMERCIAL                     
10120241217Q5       034960007095                  1140045215                  RECADO                        
10120241217Q5       035730006997                  995519159                   OUTROS                        
10120241217Q5       036100004077                  1140045215                  RECADO                        
10120241217Q5       036900003340                  995218260                   OUTROS                        
10120241217Q5       038710001535                  11957132239                 CELULAR                       
10120241217Q5       038720000699                  94087804                    OUTROS                        
10120241217Q5       038720001842                  963575463                   OUTROS                        
10120241217Q5       050040002216                  1139801380                  OUTROS                        
10120241217Q5       050040002216                  1140045215                  RECADO                        
10120241217Q5       050040002216                  21983734771         0       CELULAR                       
10120241217Q5       050040002216                  932769883                   OUTROS                        
10120241217Q5       050040002216                  996164771                   OUTROS                        
10120241217Q5       050060001151                  995340579                   OUTROS                        
10120241217Q5       211930016197                  11994639411                 OUTROS                        
10120241217Q5       030120065325                  21975231239         0       CELULAR                       
10120241217Q5       030120065325                  21981451107         0       CELULAR                       
10120241217Q5       032690024293                  36242657                    OUTROS                        
10120241217Q5       032690024733                  998102675                   OUTROS                        
10120241217Q5       033110000062                  42991195116         0       CELULAR                       
10120241217Q5       033110000062                  991195116                   OUTROS                        
10120241217Q5       035660020504                  4136535844          0       RESIDENCIAL                   
10120241217Q5       035730006997                  987864067                   OUTROS                        
10120241217Q5       036100004077                  15997830383         MARCIA  CELULAR                       
10120241217Q5       036900003340                  41996325971                 CELULAR                       
10120241217Q5       038720000699                  999920274                   OUTROS                        
10120241217Q5       050040002216                  986898657                   OUTROS                        
10120241217Q5       050040002216                  988233328                   OUTROS                        
10120241217Q5       025490011359                  81995156297                 CELULAR                       
10120241217Q5       026180000205                  965222989                   CELULAR                       
10120241217Q5       026180000205                  975111416                   CELULAR                       
10120241217Q5       032690024293                  31988432667                 CELULAR                       
10120241217Q5       032690024293                  985660603                   OUTROS                        
10120241217Q5       032690024293                  985748544                   OUTROS                        
10120241217Q5       032690028857                  31999221988                 RECADO                        
10120241217Q5       032920003226                  1140045215                  RECADO                        
10120241217Q5       032920003226                  61992560616                 RECADO                        
10120241217Q5       033110000062                  42991195117                 CELULAR                       
10120241217Q5       034960007095                  959069040                   OUTROS                        
10120241217Q5       035210008104                  959214864                   OUTROS                        
10120241217Q5       035660020504                  41991666333         0       CELULAR                       
10120241217Q5       035730006997                  41997045254                 CELULAR                       
10120241217Q5       038710000183                  983921663                   OUTROS                        
10120241217Q5       038720001282                  21965220849                 CELULAR                       
10120241217Q5       038720001282                  21987191384                 CELULAR                       
10120241217Q5       038720001842                  996357546                   OUTROS                        
10120241217Q5       050040002216                  21988368282                 OUTROS                        
10120241217Q5       050040002216                  26118294                    OUTROS                        
10120241217Q5       050040002216                  952172416                   OUTROS                        
10120241217Q5       050040002216                  983734771                   OUTROS                        
10120241217Q5       050060001151                  33987505299                 CELULAR                       
10120241217Q5       211930016197                  11999386220                 OUTROS                        
10120241217Q5       025950032887                  982352987                   OUTROS                        
10120241217Q5       025950032887                  996454576                   CELULAR                       
10120241217Q5       032690024293                  36241363                    OUTROS                        
10120241217Q5       032690024293                  984520422                   OUTROS                        
10120241217Q5       032690024733                  31989657013                 CELULAR                       
10120241217Q5       032690024733                  989657013                   OUTROS                        
10120241217Q5       033110000062                  42991232580                 CELULAR                       
10120241217Q5       035730006997                  1140045215                  RECADO                        
10120241217Q5       035730006997                  41988787607                 CELULAR                       
10120241217Q5       035730006997                  41995519159                 CELULAR                       
10120241217Q5       035730006997                  997045254                   OUTROS                        
10120241217Q5       038710000183                  31983921663         0       CELULAR                       
10120241217Q5       038710000183                  985847001                   OUTROS                        
10120241217Q5       038710001535                  981028420                   OUTROS                        
10120241217Q5       038720000699                  81999424923                 CELULAR                       
10120241217Q5       050040002216                  40045215                    OUTROS                        
10120241217Q5       050040002216                  988368282                   OUTROS                        
10120241217Q5       050060001151                  981454060                   OUTROS                        
10120241217Q5       025490011359                  8135159267                  COMERCIAL                     
10120241217Q5       025950032887                  1140045215                  COMERCIAL                     
10120241217Q5       030120065325                  21987092629         0       CELULAR                       
10120241217Q5       032690024293                  985748592                   OUTROS                        
10120241217Q5       035660020504                  1140045215                  COMERCIAL                     
10120241217Q5       035660020504                  41998259681                 CELULAR                       
10120241217Q5       035660022143                  11984026347         0       CELULAR                       
10120241217Q5       035660022143                  984026347                   OUTROS                        
10120241217Q5       035730006997                  41987864067                 CELULAR                       
10120241217Q5       036100004077                  997830383                   OUTROS                        
10120241217Q5       038720000699                  81992891760                 CELULAR                       
10120241217Q5       038720000699                  994087804                   CELULAR                       
10120241217Q5       038720001842                  971133697                   OUTROS                        
10120241217Q5       038720001842                  974321657                   OUTROS                        
10120241217Q5       050040002216                  21988233328                 OUTROS                        
10120241217Q5       050040002216                  996764771                   OUTROS                        
10120241217Q5       050060001151                  33987032065                 CELULAR                       
10120241217Q5       050060001151                  918520060                   OUTROS                        
10120241217Q5       211930016197                  11951564169                 OUTROS                        
10120241217Q5       211930016197                  11959441294                 RECADO                        
10120241217Q5       025950032887                  81991920113                 CELULAR                       
10120241217Q5       025950032887                  998698264                   OUTROS                        
10120241217Q5       032690024293                  997289914                   OUTROS                        
10120241217Q5       032690028857                  999221988                   OUTROS                        
10120241217Q5       032920003226                  992560616                   OUTROS                        
10120241217Q5       033110000062                  991536271                   OUTROS                        
10120241217Q5       035210008104                  950446470                   OUTROS                        
10120241217Q5       035660022143                  11962909556         0       CELULAR                       
10120241217Q5       035660022143                  11981260996         0       CELULAR                       
10120241217Q5       035660022143                  11995806740                 CELULAR                       
10120241217Q5       038710000183                  31992698597         0       CELULAR                       
10120241217Q5       038710001535                  11970164870                 CELULAR                       
10120241217Q5       038720000699                  984565433                   OUTROS                        
10120241217Q5       038720000699                  998726057                   OUTROS                        
10120241217Q5       038720001842                  11963575463         0       CELULAR                       
10120241217Q5       038720001842                  21471717                    OUTROS                        
10120241217Q5       050040002216                  2131198427                  OUTROS                        
10120241217Q5       050040002216                  2134923369                  OUTROS                        
10120241217Q5       050040002216                  946875349                   OUTROS                        
10120241217Q5       050060001151                  987032065                   OUTROS                        
10120241217Q5       211930016197                  959441294                   OUTROS                        
10120241217Q5       025950032887                  991920113                   OUTROS                        
10120241217Q5       032690024293                  31984520422                 CELULAR                       
10120241217Q5       032690024293                  988432667                   OUTROS                        
10120241217Q5       033110000062                  991232580                   OUTROS                        
10120241217Q5       034960007095                  11959069040                 CELULAR                       
10120241217Q5       035210008104                  1159214864                  RECADO                        
10120241217Q5       035660009995                  11965160000         0       CELULAR                       
10120241217Q5       035660020504                  41996813355         0       CELULAR                       
10120241217Q5       036900003340                  41997066063         0       CELULAR                       
10120241217Q5       038710000183                  31985081041         0       CELULAR                       
10120241217Q5       038710000183                  985081041                   OUTROS                        
10120241217Q5       038710001535                  957132239                   OUTROS                        
10120241217Q5       038710001535                  970164870                   OUTROS                        
10120241217Q5       038720000699                  992891760                   OUTROS                        
10120241217Q5       038720000699                  999424923                   OUTROS                        
10120241217Q5       050040002216                  2137145991                  OUTROS                        
10120241217Q5       025490011359                  81992075317                 CELULAR                       
10120241217Q5       025950032887                  81998698264                 CELULAR                       
10120241217Q5       025950032887                  992518434                   CELULAR                       
10120241217Q5       026180000205                  975115405                   OUTROS                        
10120241217Q5       032690024293                  31997289914                 CELULAR                       
10120241217Q5       032690024293                  989892657                   OUTROS                        
10120241217Q5       032690024733                  1140045215                  COMERCIAL                     
10120241217Q5       032690028857                  31998606111                 OUTROS                        
10120241217Q5       032690028857                  986061114                   OUTROS                        
10120241217Q5       032690028857                  998606111                   OUTROS                        
10120241217Q5       033110000062                  42991536271         0       CELULAR                       
10120241217Q5       034960007095                  11977461240                 CELULAR                       
10120241217Q5       038710000183                  1140045215                  COMERCIAL                     
10120241217Q5       038720000699                  67998726057                 CELULAR                       
10120241217Q5       038720001282                  969200893                   OUTROS                        
10120241217Q5       050040002216                  11976996524                 OUTROS                        
10120241217Q5       050040002216                  2126123369                  OUTROS                        
10120241217Q5       050060001151                  1140045215                  RECADO                        
10120241217Q5       050060001151                  11918520060                 CELULAR                       
10120241217Q5       050060001151                  997699243                   OUTROS                        
1012024121725       000040012686                  CAMP    000040012686                  00004   BALCAO - VEICUL                                                                                   00004   BALCAO - VEICULO                             00000000143996710000000000000000000020140701060         3                                                                                                                                                                                                                                                                                                                                                                                                                                                                                                                                                                                                            000000000000018000                                                                                                 
1012024121725       026810007165                  PARF    026810007165                  02681   CORRESPONDENTE                                                                                    02681   CORRESPONDENTE - MAT                         00000000034316170000000000000000000020210623060         3                                                                                                                                                                                                                                                                                                                                                                                                                                                                                                                                                                                                            000000000000028045                                                                                                 
1012024121725       032690028857                  REFF    032690028857                  03269   CORRESPONDENTE                                                                                    03269   CORRESPONDENTE MINAS                         00000000024896660000000000000000000020230313036         1                                                                                                                                                                                                                                                                                                                                                                                                                                                                                                                                                                                                            000000000000026636                                                                                                 
1012024121725       035210007783                  REFF    035210007783                  03521   CORRESPONDENTE                                                                                    03521   CORRESPONDENTE SUCUR                         00000000072598720000000000000000000020240527036         3                                                                                                                                                                                                                                                                                                                                                                                                                                                                                                                                                                                                            000000000000025778                                                                                                 
1012024121725       038710001338                  FSEG    038710001338                  03871   NOVACAO COBRANC                                                                                   03871   NOVACAO COBRANCA  AM                         00000000042390310000000000000000000020230414048         3                                                                                                                                                                                                                                                                                                                                                                                                                                                                                                                                                                                                            000000000000020000                                                                                                 
1012024121725       050040002216                  REFF    050040002216                  05004   SUCURSAL CAMPOS                                                                                   05004   SUCURSAL CAMPOS I                            00000000040512140000000000000000000020230412024         1                                                                                                                                                                                                                                                                                                                                                                                                                                                                                                                                                                                                            000000000000026542                                                                                                 
1012024121725       038710001651                  FSEG    038710001651                  03871   NOVACAO COBRANC                                                                                   03871   NOVACAO COBRANCA  AM                         00000000042502280000000000000000000020230831060         3                                                                                                                                                                                                                                                                                                                                                                                                                                                                                                                                                                                                            000000000000021000                                                                                                 
1012024121725       025490011359                  PARF    025490011359                  02549   CORRESPONDENTE                                                                                    02549   CORRESPONDENTE  PERN                         00000000016713020000000000000000000020210311048         1                                                                                                                                                                                                                                                                                                                                                                                                                                                                                                                                                                                                            000000000000014091                                                                                                 
1012024121725       032920003226                  REFF    032920003226                  03292   CORRESPONDENTE                                                                                    03292   CORRESPONDENTE SUCUR                         00000000009857090000000000000000000020230412024         1                                                                                                                                                                                                                                                                                                                                                                                                                                                                                                                                                                                                            000000000000025999                                                                                                 
1012024121725       211570024463                  FCDC    211570024463                  21157   CORRESPONDENTE                                                                                    21157   CORRESPONDENTE BAHIA                         00000000042367830000000000000000000020231024024         3                                                                                                                                                                                                                                                                                                                                                                                                                                                                                                                                                                                                            000000000000016400                                                                                                 
1012024121725       038720001282                  PARJ    038720001282                  03872   NOVACAO COBRANC                                                                                   03872   NOVACAO COBRANCA CON                         00000000016999500000000000000000000020221109036         1                                                                                                                                                                                                                                                                                                                                                                                                                                                                                                                                                                                                            000000000000011000                                                                                                 
1012024121725       032340004893                  FCDC    032340004893                  03234   CORRESPONDENTE                                                                                    03234   CORRESPONDENTE PARAI                         00000000063450270000000000000000000020230623036         3                                                                                                                                                                                                                                                                                                                                                                                                                                                                                                                                                                                                            000000000000019520                                                                                                 
1012024121725       021460005338                  CSPF    021460005338                  02146   AUTOMEC COMERCI                                                                                   02147   FISAN ADM DE BENS E                          00000000028297510000000000000000000020220809048         3                                                                                                                                                                                                                                                                                                                                                                                                                                                                                                                                                                                                            000000000000018463                                                                                                 
1012024121725       038720000699                  FSEG    038720000699                  03872   NOVACAO COBRANC                                                                                   03872   NOVACAO COBRANCA CON                         00000000023949330000000000000000000020220608044         1                                                                                                                                                                                                                                                                                                                                                                                                                                                                                                                                                                                                            000000000000011500                                                                                                 
1012024121725       038720001446                  FSEG    038720001446                  03872   NOVACAO COBRANC                                                                                   03872   NOVACAO COBRANCA CON                         00000000031435870000000000000000000020221117048         3                                                                                                                                                                                                                                                                                                                                                                                                                                                                                                                                                                                                            000000000000013100                                                                                                 
1012024121725       035660020504                  FSEG    035660020504                  03566   NOVAC?O DE DIVI                                                                                   03566   NOVAC?O DE DIVIDA CO                         00000000022221080000000000000000000020200729042         1                                                                                                                                                                                                                                                                                                                                                                                                                                                                                                                                                                                                            000000000000017100                                                                                                 
1012024121725       038720001842                  FSEG    038720001842                  03872   NOVACAO COBRANC                                                                                   03872   NOVACAO COBRANCA CON                         00000000045807350000000000000000000020230207059         1                                                                                                                                                                                                                                                                                                                                                                                                                                                                                                                                                                                                            000000000000014600                                                                                                 
1012024121725       036100004077                  FCDC    036100004077                  03610   CORRESPONDENTE                                                                                    03610   CORRESPONDENTE SANTO                         00000000030502800000000000000000000020230816048         1                                                                                                                                                                                                                                                                                                                                                                                                                                                                                                                                                                                                            000000000000020608                                                                                                 
1012024121725       030120044237                  PARF    030120044237                  03012   CORRESPONDENTE                                                                                    03012   CORRESPONDENTE RIO D                         00000000048057590000000000000000000020201215060         3                                                                                                                                                                                                                                                                                                                                                                                                                                                                                                                                                                                                            000000000000019099                                                                                                 
1012024121725       038710001535                  FSEG    038710001535                  03871   NOVACAO COBRANC                                                                                   03871   NOVACAO COBRANCA  AM                         00000000051740450000000000000000000020230711060         1                                                                                                                                                                                                                                                                                                                                                                                                                                                                                                                                                                                                            000000000000023900                                                                                                 
1012024121725       038710000183                  FSEG    038710000183                  03871   NOVACAO COBRANC                                                                                   03871   NOVACAO COBRANCA  AM                         00000000023291900000000000000000000020211101046         1                                                                                                                                                                                                                                                                                                                                                                                                                                                                                                                                                                                                            000000000000009900                                                                                                 
1012024121725       035170006148                  REFF    035170006148                  03517   CORRESPONDENTE                                                                                    03517   CORRESPONDENTE TATUA                         00000000054621730000000000000000000020231226036         3                                                                                                                                                                                                                                                                                                                                                                                                                                                                                                                                                                                                            000000000000021323                                                                                                 
1012024121725       003640031354                  FCDC    003640031354                  00364   REGIONAL - SAO                                                                                    00364   REGIONAL - SAO JOSE                          00000000068786700000000000000000000020221213048         3                                                                                                                                                                                                                                                                                                                                                                                                                                                                                                                                                                                                            000000000000022644                                                                                                 
1012024121725       050000000384                  PARF    050000000384                  05000   CORRESPONDENTE                                                                                    05000   CORRESPONDENTE BLUME                         00000000020662200000000000000000000020210729060         3                                                                                                                                                                                                                                                                                                                                                                                                                                                                                                                                                                                                            000000000000027570                                                                                                 
1012024121725       035660022143                  FSEG    035660022143                  03566   NOVAC?O DE DIVI                                                                                   03566   NOVAC?O DE DIVIDA CO                         00000000048965750000000000000000000020201027043         1                                                                                                                                                                                                                                                                                                                                                                                                                                                                                                                                                                                                            000000000000013700                                                                                                 
1012024121725       025950032887                  FCDC    025950032887                  02595   CORRESPONDENTE                                                                                    02595   CORRESPONDENTE CREDI                         00000000011443630000000000000000000020210222048         1                                                                                                                                                                                                                                                                                                                                                                                                                                                                                                                                                                                                            000000000000013556                                                                                                 
1012024121725       023620023459                  PARF    023620023459                  02362   CORRESPONDENTE                                                                                    02362   CORRESPONDENTE - SAN                         00000000050333530000000000000000000020210428048         3                                                                                                                                                                                                                                                                                                                                                                                                                                                                                                                                                                                                            000000000000025509                                                                                                 
1012024121725       035730006997                  ESPF    035730006997                  03573   FRANQ DISTRIBUI                                                                                   05134   EMISSAO SEM CORRETOR                         00000000023673840000000000000000000020230912024         1                                                                                                                                                                                                                                                                                                                                                                                                                                                                                                                                                                                                            000000000000024568                                                                                                 
1012024121725       026180000205                  ESPF    026180000205                  02618   BASSO MULTIMARC                                                                                   03301   CORRESPONDENTE OSASC                         00000000070846630000000000000000000020230309048         1                                                                                                                                                                                                                                                                                                                                                                                                                                                                                                                                                                                                            000000000000022538                                                                                                 
1012024121725       033110000062                  ESPF    033110000062                  03311   M8 COMERCIO DE                                                                                    03311   M8 COMERCIO DE VEICU                         00000000009411790000000000000000000020201221048         1                                                                                                                                                                                                                                                                                                                                                                                                                                                                                                                                                                                                            000000000000017956                                                                                                 
1012024121725       001650005491                  PARJ    001650005491                  00165   REGIONAL - SERG                                                                                   00165   REGIONAL - SERGIPE                           00000000027591710000000000000000000020080212048         3                                                                                                                                                                                                                                                                                                                                                                                                                                                                                                                                                                                                            000000000000013900                                                                                                 
1012024121725       036900003340                  PARJ    036900003340                  03690   CORRESPONDENTE                                                                                    03690   CORRESPONDENTE MARIN                         00000000067997790000000000000000000020221006048         1                                                                                                                                                                                                                                                                                                                                                                                                                                                                                                                                                                                                            000000000000020486                                                                                                 
1012024121725       035210008104                  FCDC    035210008104                  03521   CORRESPONDENTE                                                                                    03521   CORRESPONDENTE SUCUR                         00000000032639160000000000000000000020240711024         1                                                                                                                                                                                                                                                                                                                                                                                                                                                                                                                                                                                                            000000000000017484                                                                                                 
1012024121725       211900016667                  PARF    211900016667                  21190   CORRESPONDENTE                                                                                    21190   CORRESPONDENTE ESPIR                         00000000032180740000000000000000000020191220048         3                                                                                                                                                                                                                                                                                                                                                                                                                                                                                                                                                                                                            000000000000017269                                                                                                 
1012024121725       211930016197                  CSPF    211930016197                  21193   CAOA MATRIZ                                                                                       21193   CAOA MATRIZ                                  00000000083147850000000000000000000020240812060         1                                                                                                                                                                                                                                                                                                                                                                                                                                                                                                                                                                                                            000000000000019825                                                                                                 
1012024121725       050060001151                  REFF    050060001151                  05006   SUCURSAL CORPOR                                                                                   05006   SUCURSAL CORPORATE S                         00000000012283040000000000000000000020230804036         1                                                                                                                                                                                                                                                                                                                                                                                                                                                                                                                                                                                                            000000000000034616                                                                                                 
1012024121725       038720001490                  FSEG    038720001490                  03872   NOVACAO COBRANC                                                                                   03872   NOVACAO COBRANCA CON                         00000000015291960000000000000000000020221129036         3                                                                                                                                                                                                                                                                                                                                                                                                                                                                                                                                                                                                            000000000000024300                                                                                                 
1012024121725       023620015293                  PARF    023620015293                  02362   CORRESPONDENTE                                                                                    02362   CORRESPONDENTE - SAN                         00000000024647460000000000000000000020200730048         3                                                                                                                                                                                                                                                                                                                                                                                                                                                                                                                                                                                                            000000000000019925                                                                                                 
1012024121725       035170006717                  REFF    035170006717                  03517   CORRESPONDENTES                                                                                   03517   CORRESPONDENTESUCURS                         00000000059219470000000000000000000020240422048         3                                                                                                                                                                                                                                                                                                                                                                                                                                                                                                                                                                                                            000000000000020886                                                                                                 
1012024121725       032690024293                  FCDC    032690024293                  03269   CORRESPONDENTE                                                                                    03269   CORRESPONDENTE MINAS                         00000000143127360000000000000000000020220812060         1                                                                                                                                                                                                                                                                                                                                                                                                                                                                                                                                                                                                            000000000000020980                                                                                                 
1012024121725       038720002469                  FSEG    038720002469                  03872   NOVACAO COBRANC                                                                                   03872   NOVACAO COBRANCA CON                         00000000027099790000000000000000000020230417039         3                                                                                                                                                                                                                                                                                                                                                                                                                                                                                                                                                                                                            000000000000016200                                                                                                 
1012024121725       036290003096                  FCDC    036290003096                  03629   CORRESP. JARDIN                                                                                   03629   CORRESP. JARDINS II                          00000000031798480000000000000000000020210329048         3                                                                                                                                                                                                                                                                                                                                                                                                                                                                                                                                                                                                            000000000000017641                                                                                                 
1012024121725       211040026029                  FCDC    211040026029                  21104   CORRESP.  RIBEI                                                                                   21104   CORRESP.  RIBEIR?O P                         00000000020360340000000000000000000020210315060         3                                                                                                                                                                                                                                                                                                                                                                                                                                                                                                                                                                                                            000000000000022372                                                                                                 
1012024121725       030120065325                  PARF    030120065325                  03012   CORRESPONDENTE                                                                                    03012   CORRESPONDENTE RIO D                         00000000028358610000000000000000000020210805060         1                                                                                                                                                                                                                                                                                                                                                                                                                                                                                                                                                                                                            000000000000026096                                                                                                 
