001202412172024121700000111
1012024121715       005390010646                  126561189809   MARIA APARECIDA BARBOSA                      19590207                                                                                                                                                                                                                                                                                                                                                                                                                                       R PEDRO ALVES                                     SN        B12 AP1 QT                                        CJ HAB E A ORSI          CAMPINAS               SP13069083                                                                                          OUTRAS                        R PEDRO ALVES                                             SNB12 AP1 QT                                        CJ HAB E A ORSI          CAMPINAS               SP130690831140045215                  NPE                                          2022121320250109                                                                                                                                                                                                                                                                       FS229401235                   000000000000000000        00000000R19987793939         994772835           32825450            PRT357@GMAIL.COM                                            
1012024121715       022800017348                  151807050106   MARIA DIVINA RIBEIRO BARBOSA                 19510923                                                                                                                                                                                                                                                                                                                                                                                                                                       R ISA LOSTRACCO                                   SN        QD 25 LT06                                        JARDIM PLANALTO          GOIANIA                GO74333215                                                                                          CORRETOR                      AV T 9                                                  1739SALA 3                                            JD AMERICA               GOIANIA                GO74255220                            NPE                                          2023041120250109                                                                                                                                                                                                                                                                       FS0101904130                  000000000000000000        00000000R62998022726         998022726           998022726           JEFFERSON@OUROCOELHOSEGUROS.COM.BR                          
1012024121715       023790026662                  104236015129   WILLIAN PAES LANDIM LOPES                    19920119                                                                                                                                                                                                                                                                                                                                                                                                                                       AVENIDA DOS ENGENHEIROS                           40                                                          VILA PLANALTO            BRASILIA               DF70804300                    NENHUMA                                                               GERENTE - TODAS               AVENIDA DOS ENGENHEIROS                                   40                                                  VILA PLANALTO            BRASILIA               DF70804300                            NPE                                          2024091220250109                                                                                                                                                                                                                                                                       MS                            000000000000000000        00000000R                                                                                                                        
1012024121715       025950075483                  100222854154   WELLITON DE OLIVEIRA AMORIM                  19850112                                                                                                                                                                                                                                                                                                                                                                                                                                       R CENTO E TRINTA E UM                             14 Q 115 4                                                  CPA IV                   CUIABA                 MT78058320                                                                                          EMPRESARIO                    TRES                                                      10QD                                                LOTEAMENTO BELITA COSTA MCUIABA                 MT78091312                            NPE                                          2023121520250116                                                                                                                                                                                                                                                                       MS14129620                    000000000000000000        00000000R65996022866         999022866           996022866           WELLITON.AMORIM@GMAIL.COM                                   
1012024121715       026810013132                  155869238153   CELSON RIBEIRO DA SILVA                      19720202                                                                                                                                                                                                                                                                                                                                                                                                                                       R SAO CAMILO                                      18        CASA 4                                            VILA SANTA LUZIA         CAMPO GRANDE           MS79116210                                                                                          OUTRAS                        R SAO CAMILO                                              18CASA 4                                            VILA SANTA LUZIA         CAMPO GRANDE           MS79116210                            NPE                                          2023061220250109                                                                                                                                                                                                                                                                       MS5586923815                  000000000000000000        00000000R67999831926         999831926           981160983           CELSON.RIBEIRO.SILVA@GMAIL.COM                              
1012024121715       027320009545                  104475705444   ANTONIO CARLOS DA SILVA BRITO                19790316                                                                                                                                                                                                                                                                                                                                                                                                                                       RUA DARIO JORDAO DE ANDRADE                       09                                                          CENTRO                   MACAIBA                RN59280000                                                                                          OUTRAS                        RUA DARIO JORDAO DE ANDRADE                               09                                                  CENTRO                   MACAIBA                RN59280000                            NPE                                          2024081220250109                                                                                                                                                                                                                                                                       MS0628299357                  000000000000000000        00000000R987082066           994691943           32712591            CARLOSBRITTORN@GMAIL.COM                                    
1012024121715       030120099886                  108650368700   FABIO AZEVEDO ALBERNAZ                       19800105                                                                                                                                                                                                                                                                                                                                                                                                                                       R JONAS DE CASTRO                                 124                                                         BRISA MAR                ITAGUAI                RJ23825500                                                                                          GERENTE - TODAS               R JONAS DE CASTRO                                        124                                                  BRISA MAR                ITAGUAI                RJ23825500                            NPE                                          2023081520250109                                                                                                                                                                                                                                                                       MS0031349212                  000000000000000000        00000000R21989054933         989054933           989054933           FABIOAALBERNAZ@HOTMAIL.COM                                  
1012024121715       030120099890                  194852308853   APARECIDO RIBEIRO                            19550415                                                                                                                                                                                                                                                                                                                                                                                                                                       R VITORIA                                         400                                                         JD ANA MARIA             CARAPICUIBA            SP06386210                    NAO INFORMADO                                                         GERENTE - TODAS               R VITORIA                                                400                                                  JARDIM ANA MARIA         CARAPICUIBA            SP06386210                            NPE                                          2023121120250109                                                                                                                                                                                                                                                                       MS9485230885                  000000000000000000        00000000R11982306840         982306840           941849516           APARECIDORIBEIRO055@GMAIL.COM                               
1012024121715       030120103935                  194471630768   DENISE BENICIO DE AGUIAR                     19661024                                                                                                                                                                                                                                                                                                                                                                                                                                       R FRANCISCO VASCONCELOS                           291       APT 201                                           PARQUE ANCHIETA          RIO DE JANEIRO         RJ21625160                                                                                          APOSENTADO                                                                                                                                                                                                                        NPE                                          2024041720250120                                                                                                                                                                                                                                                                       FS344886                      000000000000000000        00000000R21994027574         994027574           2134865864          TATHIANE@BANAIAS.COM.BR                                     
1012024121715       030120107342                  112417735725   KENYA MARA CAMPOS DE ALCANTARA               19880302                                                                                                                                                                                                                                                                                                                                                                                                                                       AV ALFREDO B DA SILVEIRA                          419                                                         RECREIO DOS BANDEIRANTES RIO DE JANEIRO         RJ22790710                                                                                          OUTRAS                        AV ALFREDO B DA SILVEIRA                                 419                                                  RECREIO DOS BANDEIRANTES RIO DE JANEIRO         RJ22790710                            NPE                                          2024121620250108                                                                                                                                                                                                                                                                       MS                            000000000000000000        00000000R                    997078367           997078367                                                                       
1012024121715       030120107812                  100482531703   SILVIA CRISTINA DOS SANTOS AGUIAR            19700421                                                                                                                                                                                                                                                                                                                                                                                                                                       RIBEIRO GUIMARAES                                 35        201 BL 2                                          VILA ISABEL              RIO DE JANEIRO         RJ20541038                    NENHUMA                                                               GERENTE - TODAS               RIBEIRO GUIMARAES                                         35201 BL 2                                          VILA ISABEL              RIO DE JANEIRO         RJ20541038                            NPE                                          2024121620241231                                                                                                                                                                                                                                                                       MS                            000000000000000000        00000000R                                                                                                                        
1012024121715       032690022786                  167136621887   FRANCISCO RIBEIRO LINS FILHO                 19521128                                                                                                                                                                                                                                                                                                                                                                                                                                       RUA ALAGOAS                                       30                                                          VILA ELISA               PRESIDENTE JANIO QUADROBA46250000                                                                                          MOTORISTA                                                                                                                                                                                                                         NPE                                          2023013020241228                                                                                                                                                                                                                                                                       MC2114528740                  000000000000000000        00000000R77988012425                                                 FABIANOLINS08@GMAILCOM                                      
1012024121715       032920001720                  142743535830   MARINA CASELLA PEREIRA                       19930308                                                                                                                                                                                                                                                                                                                                                                                                                                       R GONCALVES FIGUEIRA                              210                                                         VILA BANDEIRANTES        SAO PAULO              SP02552140                                                                                          EMPRESARIO                    AV MARQUES DE SAO VICENTE                                405CJ 1208                                           VARZEA DA BARRA FUNDA    SAO PAULO              SP011390011145528596                  NPE                                          2022121920250120                                                                                                                                                                                                                                                                       FS415623157                   000000000000000000        00000000R11945528596         991447552           945528596           MARINA-CASELLA@HOTMAIL.COM                                  
1012024121715       033010005819                  109914050484   WEDSON VIEIRA MELO                           19930226                                                                                                                                                                                                                                                                                                                                                                                                                                       CRUZEIROS                                         100                                                         PARQUE DAS CEREJEIRAS    SAO PAULO              SP04966150                                                                                          OUTRAS                        CRUZEIROS                                                100                                                  PARQUE DAS CEREJEIRAS    SAO PAULO              SP04966150                            NPE                                          2024021520250109                                                                                                                                                                                                                                                                       MS                            000000000000000000        00000000R944689828                                                                                                               
1012024121715       034960003876                  146984049830   REBECA PINHEIRO DANTAS                       19970730                                                                                                                                                                                                                                                                                                                                                                                                                                       R NESTOR DE BARROS                                70        APTO 52                                           VILA SANTO ESTEVAO       SAO PAULO              SP03325050                                                                                          OUTRAS                        R NESTOR DE BARROS                                        70APTO 52                                           VILA SANTO ESTEVAO       SAO PAULO              SP03325050                            NPE                                          2023061220250109                                                                                                                                                                                                                                                                       FS533132630                   000000000000000000        00000000R11999381485         999464800           999381485           DRACLAUDIACPINHEIRO@GMAIL.COM                               
1012024121715       035170006387                  116240867802   ALEXANDRE RIBEIRO DOS SANTOS                 19740331                                                                                                                                                                                                                                                                                                                                                                                                                                       AVENIDA DOM PEDRO I                               140       AP 63                                             TABOAO                   BRAGANCA PAULISTA      SP12914481                                                                                          EMPRESARIO                    AVENIDA DOM PEDRO I                                      140AP 63                                             TABOAO                   BRAGANCA PAULISTA      SP12914481                            NPE                                          2024091220250109                                                                                                                                                                                                                                                                       MS                            000000000000000000        00000000R                    986771610           972614434                                                                       
1012024121715       036110003611                  101136218840   VICENTE ESTEVE CORTES FILHO                  19601125                                                                                                                                                                                                                                                                                                                                                                                                                                       AV SARGENTO GERALDO SANTANA                       1100      BL 01 AP32                                        JARDIM TAQUARAL          SAO PAULO              SP04674225                                                                                          GERENTE - TODAS               AV SARGENTO GERALDO SANTANA                             1100                                                  JARDIM TAQUARAL          SAO PAULO              SP04674225                            NPE                                          2023121120250109                                                                                                                                                                                                                                                                       MS13877232                    000000000000000000        00000000R                    967780572           967780572           VICENTE.FILHO@GRUPOSINAL.COM                                
1012024121715       038870000667                  128214249813   THEREZA LOCATELLI VIGANO                     19550819                                                                                                                                                                                                                                                                                                                                                                                                                                       RUA FRANCISCO VIVALDINI                           281       CASA                                              CHACARAS SANTA MARIA     CONCHAL                SP13835000                                                                                          OUTRAS                        RUA FRANCISCO VIVALDINI                                  281CASA                                              CHACARAS SANTA MARIA     CONCHAL                SP13835000                            NPE                                          2023041720250120                                                                                                                                                                                                                                                                       FS90963726                    000000000000000000        00000000R                    984762445           984762445           CLAUDIMIRVIGANO@GMAIL.COM                                   
1012024121715       050040001747                  109128857852   EDILSON TEOFILO DOS SANTOS                   19680413                                                                                                                                                                                                                                                                                                                                                                                                                                       CARLOS GONDIM                                     108                                                         JARDIM PORTEIRA GRANDE   SAO PAULO              SP039170301120133672                                                                                OUTRAS                        CARLOS GONDIM                                            108                                                  JARDIM PORTEIRA GRANDE   SAO PAULO              SP03917030                            NPE                                          2023021420250109                                                                                                                                                                                                                                                                       MS18495740                    000000000000000000        00000000R11994784577         994784577           47091404            MECANICA.SERTEC@GMAIL.COM                                   
1012024121715       050460001122                  106311285304   RAISSA DO MONTE LIMA PACHECO                 19950706                                                                                                                                                                                                                                                                                                                                                                                                                                       R JOAO MARTINS DO REGO                            4814                                                        SANTA ISABEL             TERESINA               PI64053120                                                                                          OUTRAS                        R JOAO MARTINS DO REGO                                  4814                                                  SANTA ISABEL             TERESINA               PI64053120                            NPE                                          2023031320250109                                                                                                                                                                                                                                                                       FS3607319                     000000000000000000        00000000R86988973094         988973094           988973094           RAISSAPACHECO.ARQ@GMAIL.COM                                 
1012024121715       059630000502                  106823261862   SILVIA DELFINO SANTIAGO SOLLER               19670506                                                                                                                                                                                                                                                                                                                                                                                                                                       AV CARLOS REINALDO MENDES                         3500                                                        A PONTE                  SOROCABA               SP18013280                    NENHUMA                                                               GERENTE - TODAS               AV CARLOS REINALDO MENDES                               3500                                                  A PONTE                  SOROCABA               SP18013280                            NPE                                          2024120920250106                                                                                                                                                                                                                                                                       MS                            000000000000000000        00000000R                                                            IOCHIOSAITO@YAHOO.COM.BR                                    
1012024121715       211040020684                  128646587800   ELIANA APARECIDA SABINO                      19770304                                                                                                                                                                                                                                                                                                                                                                                                                                       RUA ORLANDO ASSIRATI                              180                                                         CENTRO                   JABOTICABAL            SP14841760                                                                                          EMPRESARIO                                                                                                                                                                                                                        NPE                                          2022110520250116                                                                                                                                                                                                                                                                       FS30467452                    000000000000000000        00000000R16997550508         997550508           1632460374          IMPERIALFIBRAS@HOTMAIL.COM                                  
1012024121715       211040047815                  138723344920   JOAO SANCHES NETO                            19570615                                                                                                                                                                                                                                                                                                                                                                                                                                       AV JINROKU KUBOTA                                 1060                                                        JARDIM DOURADOS          MARINGA                PR87040603                                                                                          APOSENTADO                                                                                                                                                                                                                        NPE                                          2024121620250113                                                                                                                                                                                                                                                                       MS                            000000000000000000        00000000R                                                                                                                        
1012024121715       211570015567                  102025052510   JAILTON DOS SANTOS RIBEIRO                   19830710                                                                                                                                                                                                                                                                                                                                                                                                                                       RUA BEIRA RIO                                     800       CASA                                              LIBERDADE                GANDU                  BA45450000                    03078975000201                                                        GERENTE - TODAS               RUA NESTOR LOPES                                         168AUTO ESCOLA                                       PARQUE TURISTICO         GANDU                  BA454500007332540833                  NPE                                          2022121320250109                                                                                                                                                                                                                                                                       MS0482918926                  000000000000000000        00000000R73999765997         999765997           999765997                                                                       
1012024121715       211570024926                  190301587604   DILMA GOMES RAMALHO                          19690311                                                                                                                                                                                                                                                                                                                                                                                                                                       R DOUTOR RAIMUNDO FONSECA                         334                                                         WILSON GUIMARAES SOARES  TEIXEIRA DE FREITAS    BA45987026                                                                                          OUTRAS                        R DOUTOR RAIMUNDO FONSECA                                334                                                  WILSON GUIMARAES SOARES  TEIXEIRA DE FREITAS    BA45987026                            NPE                                          2024021420250109                                                                                                                                                                                                                                                                       FS0736854643                  000000000000000000        00000000R73991059002         991059002           991059002           POLYCORRETORADESEGUROS@GMAIL.COM                            
1012024121715       003640033336                  122161121863   FERNANDA MUNARI NOCCHI                       19810813                                                                                                                                                                                                                                                                                                                                                                                                                                       R LUCELENA DE SOUZA PINHEIRO ANDRADE JUSTINO      196       Q 18 LT 8                                         LOTEAMENTO RECANTO DO LAGSAO JOSE DO RIO PRETO  SP15062231                                                                                          EMPRESARIO                    R LUCELENA DE SOUZA PINHEIRO ANDRADE JUSTINO             196                                                  LOTEAMENTO RECANTO DO LAGSAO JOSE DO RIO PRETO  SP15062231                            NPE                                          2023081520250109                                                                                                                                                                                                                                                                       FS32689405                    000000000000000000        00000000R17992245454         992245454           991637645           FERNANDA_NOCCHI13@HOTMAIL.COM                               
1012024121715       004110007530                  117881590807   DONIZETE JOSE DA SILVA                       19730723                                                                                                                                                                                                                                                                                                                                                                                                                                       RUA ESMERALDA                                     413                                                         COLINA DA SERRA          CABREUVA               SP13318000                                                                                          OUTRAS                        RUA ESMERALDA                                            413                                                  COLINA DA SERRA          CABREUVA               SP13318000                            NPE                                          2024021420250109                                                                                                                                                                                                                                                                       MS0141476440                  000000000000000000        00000000R11947181611         947417978           943827313           DONIZETE.DNA28@GMAIL.COM                                    
1012024121715       021980016043                  101781509832   MARCELL MEIRA BRANDAO                        19610206                                                                                                                                                                                                                                                                                                                                                                                                                                       R ANTONIO B STADELLA                              49                                                          JARDIM CAMBUY            PRESIDENTE PRUDENTE    SP19061544                                                                                          EMPRESARIO                    R ANTONIO B STADELLA                                      49                                                  JARDIM CAMBUY            PRESIDENTE PRUDENTE    SP19061544                            NPE                                          2024081220250109                                                                                                                                                                                                                                                                       MS                            000000000000000000        00000000R                                                                                                                        
1012024121715       023620020597                  181091656991   NATALINO DOS SANTOS                          19711207                                                                                                                                                                                                                                                                                                                                                                                                                                       SRV JOSE RODRIGUES DA SILVA                       125                                                         VARGEM DO BOM JESUS      FLORIANOPOLIS          SC88056609                                                                                          OUTRAS                        SRV JOSE RODRIGUES DA SILVA                              125                                                  VARGEM DO BOM JESUS      FLORIANOPOLIS          SC88056609                            NPE                                          2023061220250109                                                                                                                                                                                                                                                                       MS3046058479                  000000000000000000        00000000R991804353           999363885           996204351           NATUSANTOS123@GMAIL.COM                                     
1012024121715       025530003352                  105395722505   GABRIEL DE JESUS PEREIRA                     19910429                                                                                                                                                                                                                                                                                                                                                                                                                                       POV. PEDRA PRETA                                  235       CASA                                              POV PEDRA PRETA          RIACHAO DO DANTAS      SE49320000                    N A                                                                   OUTRAS                        POV. PEDRA PRETA                                         235CASA                                              ZONA RURAL               RIACHAO DO DANTAS      SE493200007936310000                  NPE                                          2022110520250109                                                                                                                                                                                                                                                                       MS23037903                    000000000000000000        00000000R79981150988         998702444           36310000            GFCGILNEY@GMAIL.COM                                         
1012024121715       025950061470                  134815317291   MARCELO MORAES DE MEDEIROS                   19720121                                                                                                                                                                                                                                                                                                                                                                                                                                       R CHUVA BRANCA                                    99                                                          COROADO                  MANAUS                 AM69082500                    POLICIA MILITAR DO ESTADO DO A                                        GERENTE - TODAS               R BENJAMIN CONSTANT                                     2150                                                  PETROPOLIS               MANAUS                 AM690630109232149248                  NPE                                          2023021420250109                                                                                                                                                                                                                                                                       MS0389846881                  000000000000000000        00000000R92994650936         996174907           985188664           MMORAESMEDEIROS@GMAIL.COM                                   
1012024121715       025950069858                  105504911710   FLAVIO DA SILVA CADETE                       19851221                                                                                                                                                                                                                                                                                                                                                                                                                                       R NUNCIO CALEPPI                                  374       CASA 5                                            REALENGO                 RIO DE JANEIRO         RJ21745010                                                                                          GERENTE - TODAS               R NUNCIO CALEPPI                                         374                                                  REALENGO                 RIO DE JANEIRO         RJ21745010                            NPE                                          2023061220250109                                                                                                                                                                                                                                                                       MS0571729554                  000000000000000000        00000000R                    994251191           992721652                                                                       
1012024121715       027320014927                  106168352481   DENNIS DEBRETCH SILVA DA COSTA               19870224                                                                                                                                                                                                                                                                                                                                                                                                                                       R BELA VISTA                                      148                                                         IGAPO                    NATAL                  RN59104230                    NAO INFORMADO                                                         GERENTE - TODAS               R BELA VISTA                                             148                                                  IGAPO                    NATAL                  RN59104230                            NPE                                          2023121120250109                                                                                                                                                                                                                                                                       MS                            000000000000000000        00000000R84996093989         996093989           986299219           JUNICLEIDE2005@GMAIL.COM                                    
1012024121715       027360005380                  132012551734   ROSANGELA LOPES DA MATTA                     19520608                                                                                                                                                                                                                                                                                                                                                                                                                                       R WALDIR CABRAL                                   22        AP801                                             STA ROSA                 NITEROI                RJ24230420                                                                                                                                                                                                                                                                                                                            NPE                                          2023081520250109                                                                                                                                                                                                                                                                       FC022121                      000000000000000000        00000000R21971192999         996592999           40044444            OTHONDAMATTA1943@GMAIL.COM                                  
1012024121715       030120048969                  116482196756   VICTOR MATHEUS DE SOUZA SILVA                19950501                                                                                                                                                                                                                                                                                                                                                                                                                                       R EVA PINTO N                                     124                                                         GLAUCIA                  BELFORD ROXO           RJ26195710                                                                                          OUTRAS                        R EVA PINTO                                              124CS1                                               GLAUCIA                  BELFORD ROXO           RJ261957101140045215                  NPE                                          2023121120250109                                                                                                                                                                                                                                                                       MS0655339035                  000000000000000000        00000000R                                                                                                                        
1012024121715       030120089864                  118572718745   CLINTON LEAL MELONI                          19980511                                                                                                                                                                                                                                                                                                                                                                                                                                       RUA ANTONIO ALEMBERGARA                           439       CS05                                              CAPELA                   MAGE                   RJ25916070                    HOSPITAL CASA RIO BOTAFOGO                                            GERENTE - TODAS               R BARAO DE LUCENA                                         95                                                  BOTAFOGO                 RIO DE JANEIRO         RJ22260020                            NPE                                          2024111120250109                                                                                                                                                                                                                                                                       MS0722863351                  000000000000000000        00000000R21985754089         991268115           26301470            CLINTONMELONI@HOTMAIL.COM                                   
1012024121715       034910000029                  165283252434   BATISTA ANTONIO DE MELO                      19641129                                                                                                                                                                                                                                                                                                                                                                                                                                       RUA PAULO AURENTINO                               1921      B G3 AP 62                                        CITY JARAGUA             SAO PAULO              SP08010000                                                                                          OUTRAS                        R PAULO ARENTINO                                        1921BLG3 AP62                                         CONJUNTO CITY JARAGUA    SAO PAULO              SP029981401139434853                  NPE                                          2022121920250120                                                                                                                                                                                                                                                                       MS37924319                    000000000000000000        00000000R11941299936         941299936           39434853            BRUNAMELLOL@HOTMAIL.COM                                     
1012024121715       035170006624                  102597026841   RICARDO PATRICIO REIS                        19620912                                                                                                                                                                                                                                                                                                                                                                                                                                       R RUI SERGIO RODRIGUES DE MOURA                   742                                                         URBANOVA                 SAO JOSE DOS CAMPOS    SP12244465                                                                                          EMPRESARIO                    R RUI SERGIO RODRIGUES DE MOURA                          742                                                  URBANOVA                 SAO JOSE DOS CAMPOS    SP12244465                            NPE                                          2024061220250109                                                                                                                                                                                                                                                                       MS                            000000000000000000        00000000R                                                                                                                        
1012024121715       035170006627                  141028561881   MICHELLE CAROLINE F DOS SANTOS CORTEZ        19910823                                                                                                                                                                                                                                                                                                                                                                                                                                       R ARAGUAIA                                        77        AP 72                                             VILA CURUCA              SANTO ANDRE            SP09291230                                                                                          OUTRAS                        R ARAGUAIA                                                77AP 72                                             VILA CURUCA              SANTO ANDRE            SP09291230                            NPE                                          2024060420250107                                                                                                                                                                                                                                                                       FS                            000000000000000000        00000000R                                                            MARA_ALUANE@HOTMAIL.COM                                     
1012024121715       035900015272                  129408513878   LUIS CARLOS NUNES DA SILVA                   19670527                                                                                                                                                                                                                                                                                                                                                                                                                                       R PARAMBU                                         91        CASA                                              JARDIM SAO PEDRO         ITAPECERICA DA SERRA   SP06863150                                                                                          GERENTE - TODAS               R PARAMBU                                                 91                                                  JARDIM SAO PEDRO         ITAPECERICA DA SERRA   SP06863150                            NPE                                          2023122620241225                                                                                                                                                                                                                                                                       MS278812223                   000000000000000000        00000000R11996627004         999662700           1146675399          JLMASSASMEXICANAS@HOTMAIL.COM                               
1012024121715       035900015593                  116498036800   RUBELASIO PEREIRA JUNIOR                     19760308                                                                                                                                                                                                                                                                                                                                                                                                                                       R DOMINGOS TRIGUEIROS                             26        A                                                 JARDIM HELENA            SAO PAULO              SP08090340                                                                                          OUTRAS                        R DOMINGOS TRIGUEIROS                                     26A                                                 JARDIM HELENA            SAO PAULO              SP08090340                            NPE                                          2024051320250109                                                                                                                                                                                                                                                                       MS                            000000000000000000        00000000R                    947629387           947629387           PEREIRASEGUROSAPH@GMAIL.COM                                 
1012024121715       036110004983                  126053053848   ANA LUCIA BARROS SOUZA OLIVEIRA              19761104                                                                                                                                                                                                                                                                                                                                                                                                                                       DRAGUTIN KALMAN                                   90                                                          PARQUE CIDADE JARDIM     JUNDIAI                SP13203524                    NENHUMA                                                               GERENTE - TODAS               DRAGUTIN KALMAN                                           90                                                  PARQUE CIDADE JARDIM     JUNDIAI                SP13203524                            NPE                                          2024111120250109                                                                                                                                                                                                                                                                       FS                            000000000000000000        00000000R                                                                                                                        
1012024121715       038710001400                  122801181811   LEONARDO CAMPOS DO AMARAL                    19860225                                                                                                                                                                                                                                                                                                                                                                                                                                       R CHARLES RAGUE                                   94                                                          JARDIM VERA CRUZZONA SUL SAO PAULO              SP049650401158961256                                                                                GERENTE - TODAS               R CHARLES RAGUE                                           94                                                  JARDIM VERA CRUZZONA SUL SAO PAULO              SP04965040                            NPE                                          2023071820250120                                                                                                                                                                                                                                                                       MS346864689                   000000000000000000        00000000R11998582679         998582679           931440209           CAMPOSLAMARAL@GMAIL.COM                                     
1012024121715       038720004665                  143835275828   MILTON CARLOS SANTOS CERQUEIRA               19950429                                                                                                                                                                                                                                                                                                                                                                                                                                       R GRACIA MAURO CHIENI                             367                                                         JD S LUIZ                VALINHOS               SP13272710                                                                                          OUTRAS                        R PAULO SERGIO CALARGA                                     9                                                  JARDIM SAO LUIZ          VALINHOS               SP13272711                            NPE                                          2024051320250109                                                                                                                                                                                                                                                                       MS42084703                    000000000000000000        00000000R                    997031995           997031995           MILTONCERQUEIRA544@GMAIL.COM                                
1012024121715       038840000494                  100038256550   EUDAI  LOPES DA SILVA                        19761106                                                                                                                                                                                                                                                                                                                                                                                                                                       R AMADEU SILVESTRE RAMOS                          2183      CASA                                              VILA PALMEIRAS I         CAMPINAS               SP13053234                                                                                          OUTRAS                        R AMADEU SILVESTRE RAMOS                                2183CASA                                              VILA PALMEIRAS I         CAMPINAS               SP130532341140045215                  NPE                                          2022111420250109                                                                                                                                                                                                                                                                       FS382451624                   000000000000000000        00000000R19996181023         996181023           996181023           DAILOPESS8124@GMAIL.COM                                     
1012024121715       038840002327                  129508548851   VANESSA COSTA DA SILVA                       19810923                                                                                                                                                                                                                                                                                                                                                                                                                                       ERNESTA LOURENCINE DE MORAES                      227                                                         JARDIM SAO VICENTE       JUNDIAI                SP13214693                    NENHUMA                                                               GERENTE - TODAS               ERNESTA LOURENCINE DE MORAES                             227                                                  JARDIM SAO VICENTE       JUNDIAI                SP13214693                            NPE                                          2023071820250120                                                                                                                                                                                                                                                                       MS305390839                   000000000000000000        00000000R11971821515         994977541           971821515           VANESSA.CIAM79@GMAIL.COM                                    
1012024121715       049230000712                  138647532520   JOSE GILTON CEZAR GOES                       19660223                                                                                                                                                                                                                                                                                                                                                                                                                                       ADALGISA DE OLIVEIRA                              137                                                         ZONA DE EXPANSAO ARUANA  ARACAJU                SE49001168                                                                                          EMPRESARIO                    ADALGISA DE OLIVEIRA                                     137                                                  ZONA DE EXPANSAO ARUANA  ARACAJU                SE49001168                            NPE                                          2024111120250109                                                                                                                                                                                                                                                                       MS                            000000000000000000        00000000R                                                                                                                        
1012024121715       050090003606                  140950371807   FERNANDA APARECIDA HORACIO BRITO BALDI       19911029                                                                                                                                                                                                                                                                                                                                                                                                                                       R AMAPA                                           45                                                          JARDIM JARAGUA           ATIBAIA                SP12947644                                                                                          OUTRAS                        R AMAPA                                                   45                                                  JARDIM JARAGUA           ATIBAIA                SP12947644                            NPE                                          2024021420250109                                                                                                                                                                                                                                                                       FS480753842                   000000000000000000        00000000R987581667           999581842           30472019            JRBALDI@GMAIL.COM                                           
1012024121715       050270002854                  121661519814   VALTER VICENTE CORDEIRO DA LUZ               19820119                                                                                                                                                                                                                                                                                                                                                                                                                                       R JACOB FORNAZARI                                 85                                                          BELA VISTA               OSASCO                 SP06070100                                                                                          EMPRESARIO                    R JACOB FORNAZARI                                         85                                                  BELA VISTA               OSASCO                 SP06070100                            NPE                                          2024051320250109                                                                                                                                                                                                                                                                       MS                            000000000000000000        00000000R                                                            VALTER.LUZ@GMAIL.COM                                        
1012024121715       053160005723                  122892523877   BRIAN EDWARD CRAKER                          19660203                                                                                                                                                                                                                                                                                                                                                                                                                                       AVENIDA IRINEU MENDES DE SOUZA                    935                                                         MARTIM DE SA             CARAGUATATUBA          SP11662100                                                                                          EMPRESARIO                    AVENIDA IRINEU MENDES DE SOUZA                           935                                                  MARTIM DE SA             CARAGUATATUBA          SP11662100                            NPE                                          2024080520250102                                                                                                                                                                                                                                                                       MS                            000000000000000000        00000000R                                                                                                                        
1012024121715       053460000318                  108259262460   THALES ALMEIDA COUTINHO                      19901103                                                                                                                                                                                                                                                                                                                                                                                                                                       AV MANOEL GONCALVES DA LUZ                        141                                                         BONGI                    RECIFE                 PE50751200                                                                                          OUTRAS                        AV MANOEL GONCALVES DA LUZ                               141                                                  BONGI                    RECIFE                 PE50751200                            NPE                                          2024011120250109                                                                                                                                                                                                                                                                       MS7057483                     000000000000000000        00000000R                    997758548           997758548           THALESALMEIDA03@GMAIL.COM                                   
1012024121715       055450000689                  108423046656   FABRICIO NETO DOS SANTOS                     19850309                                                                                                                                                                                                                                                                                                                                                                                                                                       RUA TIBIRICA                                      80                                                          IGREJINHA                AIMORES                MG35200000                                                                                          OUTRAS                        RUA TIBIRICA                                              80                                                  IGREJINHA                AIMORES                MG35200000                            NPE                                          2024081220250109                                                                                                                                                                                                                                                                       MS                            000000000000000000        00000000R                                                                                                                        
1012024121715       211040043057                  118655507873   RAQUEL BACHINI                               19740915                                                                                                                                                                                                                                                                                                                                                                                                                                       AV JOAO FARINELLI                                 120                                                         JARDIM PRIMAVERA         JABOTICABAL            SP14871355                                                                                          GERENTE - TODAS               AV JOAO FARINELLI                                        120                                                  JARDIM PRIMAVERA         JABOTICABAL            SP14871355                            NPE                                          2024031120250109                                                                                                                                                                                                                                                                       FS23479861                    000000000000000000        00000000R                                                            RAQUELBACHINI@GMAIL.COM                                     
1012024121715       005400012133                  130758446837   JURANDIR SANTOS DA SILVA                     19820506                                                                                                                                                                                                                                                                                                                                                                                                                                       AV SENADOR ROBERTO SIMONSEN                       1317                                                        JARDIM DOS IPES          SUZANO                 SP08671035                                                                                          EMPRESARIO                                                                                                                                                                                                                        NPE                                          2023041120250109                                                                                                                                                                                                                                                                       MS0208637800                  000000000000000000        00000000R11940885170         964951306           940885170           MARINA_H_TINHA@HOTMAIL.COM                                  
1012024121715       021130013006                  100299801004   JOSELAINE ARRUDA DOS SANTOS                  19790506                                                                                                                                                                                                                                                                                                                                                                                                                                       R CLENI VASCONCELOS DE OLIVEIRA                   59                                                          PASQUALINI               SAPUCAIA DO SUL        RS93224473                                                                                          OUTRAS                        R CLENI VASCONCELOS DE OLIVEIRA                           59                                                  PASQUALINI               SAPUCAIA DO SUL        RS932244731140045215                  NPE                                          2022121320250115                                                                                                                                                                                                                                                                       FS4078640853                  000000000000000000        00000000R51984705019         997960636           54999293514         FERNANDOROCHAFRAGA@GMAIL.COM                                
1012024121715       021500002323                  104079044682   ADRIANO SILVERIO DE SOUSA                    19790802                                                                                                                                                                                                                                                                                                                                                                                                                                       RUA TREZE                                         8                                                           PORTAL S TIAGO           ITU                    SP13300000                                                                                                                        RUA TREZE                                                  8                                                  PORTAL S TIAGO           ITU                    SP13300000                            NPE                                          2024111120250109                                                                                                                                                                                                                                                                       MS10.483.960                  000000000000000000        00000000R15996350798         996350798           996350798           CONTROFAZ19@GMAIL.COM                                       
1012024121715       021980013919                  114588571826   ANA CLAUDIA DE SANTIS REZENDE                19711024                                                                                                                                                                                                                                                                                                                                                                                                                                       R DOS CRAVOS                                      119                                                         SAO JOSE                 MARILIA                SP17503170                                                                                          OUTRAS                        R DOS CRAVOS                                             119                                                  SAO JOSE                 MARILIA                SP17503170                            NPE                                          2023051220250109                                                                                                                                                                                                                                                                       FS21350721                    000000000000000000        00000000R996821182           997523899           33162845            EDUJER8@GMAIL.COM                                           
1012024121715       022660000510                  133914682892   SARA VIDAL LOPES                             19860704                                                                                                                                                                                                                                                                                                                                                                                                                                       R EUDES CARDOSO                                   61        CASA                                              FERRAZOPOLIS             SAO BERNARDO DO CAMPO  SP09781080                                                                                          GERENTE - TODAS               R EUDES CARDOSO                                           61                                                  FERRAZOPOLIS             SAO BERNARDO DO CAMPO  SP09781080                            NPE                                          2023091120250109                                                                                                                                                                                                                                                                       FS425444223                   000000000000000000        00000000R                    986815423           986815423           SAULOP.LOPES39@GMAIL.COM                                    
1012024121715       023620035312                  183925171568   ZELTMAN UBIRAJAY R DE ANDRADE JUNIOR         19860621                                                                                                                                                                                                                                                                                                                                                                                                                                       RUA MARGEM RIO DO OURO                            885                                                         LEADER                   JACOBINA               BA44700000                                                                                          OUTRAS                        RUA MARGEM DO RIO DO OURO                                885                                                  LEADER                   JACOBINA               BA44700000                            NPE                                          2022120720250101                                                                                                                                                                                                                                                                       MS0345260516                  000000000000000000        00000000R74999000536         999620665           987906601           ZEZEUANDRADE@HOTMAIL.COM                                    
1012024121715       027320014923                  106160552422   SAMARA PAULA BARRETO DO NASCIMENTO           19860908                                                                                                                                                                                                                                                                                                                                                                                                                                       AV EUCALIPTOS                                     109                                                         N PARNAMIRIM             PARNAMIRIM             RN59151710                    INSTITUTO EDUCACIONAL VICTORIA                                        GERENTE - TODAS               R GOVERNADOR JUVENAL LAMARTINE                           489                                                  BOA ESPERANCA            PARNAMIRIM             RN59140360                            NPE                                          2023112020250109                                                                                                                                                                                                                                                                       FS2161570                     000000000000000000        00000000R84999570025         999570025           999570025           SAMARA_PN@YAHOO.COM.BR                                      
1012024121715       032020012937                  135482918807   ELAINE DA SILVA ALMEIDA                      19860203                                                                                                                                                                                                                                                                                                                                                                                                                                       R TENENTE AZEVEDO                                 122       CASA 3                                            ACLIMACAO                SAO PAULO              SP01528020                                                                                          EMPRESARIO                    R TENENTE AZEVEDO                                        122                                                  ACLIMACAO                SAO PAULO              SP015280201129514463                  NPE                                          2023020720250105                                                                                                                                                                                                                                                                       FS44266649-4                  000000000000000000        00000000R11990259347         990259347           990259347           ELAINEDASILVAALMEIDA4@GMAIL.COM                             
1012024121715       035660023847                  115671090717   GABRIEL DE CARVALHO DE SOUSA                 19960802                                                                                                                                                                                                                                                                                                                                                                                                                                       AL VITORIA                                        20                                                          JARDIM VILA NOVA         DUQUE DE CAXIAS        RJ25045368                    N A                                                                   GERENTE - TODAS               AL VITORIA                                                20                                                  JARDIM VILA NOVA         DUQUE DE CAXIAS        RJ25045368                            NPE                                          2023061220250109                                                                                                                                                                                                                                                                       MS209292770                   000000000000000000        00000000R                                                                                                                        
1012024121715       036100005635                  130892638826   MARCELO ALVIM MARTINS                        19830922                                                                                                                                                                                                                                                                                                                                                                                                                                       RUA ALUISIO COIMBRA                               123       CASA 2                                            JARDIM MONCOES           SANTO ANDRE            SP09180310                    NENHUMA                                                               GERENTE - TODAS               RUA ALUISIO COIMBRA                                      123                                                  JARDIM MONCOES           SANTO ANDRE            SP09180310                            NPE                                          2024082020250109                                                                                                                                                                                                                                                                       MS                            000000000000000000        00000000R11991812902         991812902           991812902                                                                       
1012024121715       036110002621                  126589655839   WALDEMIR THEODORO DA SILVA                   19771213                                                                                                                                                                                                                                                                                                                                                                                                                                       R CASA VERDE                                      117                                                         PAULICEIA                SAO BERNARDO DO CAMPO  SP09684010                                                                                          GERENTE - TODAS               R CASA VERDE                                             117                                                  PAULICEIA                SAO BERNARDO DO CAMPO  SP09684010                            NPE                                          2024061220250109                                                                                                                                                                                                                                                                       MS246278171                   000000000000000000        00000000R                    950710438           932657475                                                                       
1012024121715       036120000914                  187160994868   RUBENS FRANCISCO DE MORAES                   19560222                                                                                                                                                                                                                                                                                                                                                                                                                                       R CORONEL SEABRA                                  1672                                                        VILA MARINA              SANTO ANDRE            SP09176000                                                                                          APOSENTADO                                                                                                                                                                                                                        NPE                                          2023061220250109                                                                                                                                                                                                                                                                       MS0162996459                  000000000000000000        00000000R11944535250         997681687           944535250           PRICMORA@GMAIL.COM                                          
