001202412232024122300000115
1012024122315       050090003843                  191038227372   ADEMILTON DOS SANTOS SANTANA                 19811115                                                                                                                                                                                                                                                                                                                                                                                                                                       R SEBASTIAO ALVES DE SOUSA                        291                                                         VILA MIRIAM              SAO PAULO              SP02968140                                                                                          OUTRAS                        R SEBASTIAO ALVES DE SOUSA                               291                                                  VILA MIRIAM              SAO PAULO              SP02968140                            NPE                                          2024031820520509                                                                                                                                                                                                                                                                       MS                            000000000000000000        00000000R                    981440477           955563221           MFATIMA.SEGUROS@GMAIL.COM                                   
1012024122315       036140001620                  105414051950   DAVID GOMES GABARDI                          19871224                                                                                                                                                                                                                                                                                                                                                                                                                                       R MANDARIM                                        21                                                          JARDIM PANORAMA          ARAPONGAS              PR86708040                                                                                          OUTRAS                        R MANDARIM                                                21                                                  JARDIM PANORAMA          ARAPONGAS              PR86708040                            NPE                                          2023051920520509                                                                                                                                                                                                                                                                       FS0390407459                  000000000000000000        00000000R                    998572079           17981947461         D.GABARDI@HOTMAIL.COM                                       
1012024122315       025490006853                  104892767417   FABIO JOSE DE OLIVEIRA                       19800610                                                                                                                                                                                                                                                                                                                                                                                                                                       R MARECHAL FLORIANO PEIXOTO                       22        CASA                                              PRAZERES                 JABOATAO DOS GUARARAPESPE54310240                                                                                          GERENTE - TODAS               R MARECHAL FLORIANO PEIXOTO                               22                                                  PRAZERES                 JABOATAO DOS GUARARAPESPE543102408133769472                  NPE                                          2022110520520509                                                                                                                                                                                                                                                                       MS0215300352                  000000000000000000        00000000R81987522869         991688326           983246555           F7180352@GMAIL.COM                                          
1012024122315       005400010965                  110215377800   DIONISIO DA SILVA PINTO                      19670411                                                                                                                                                                                                                                                                                                                                                                                                                                       RUA JOAO SIQUEIRA                                 112                                                         VILA NOVA                SOCORRO                SP13960000                                                                                          OUTRAS                        RUA JOAO SIQUEIRA                                        112                                                  VILA NOVA                SOCORRO                SP139600001140045215                  NPE                                          2022112120520509                                                                                                                                                                                                                                                                       MS241605374                   000000000000000000        00000000R19971705594         981849052           19981849052         DANILOBW32@GMAIL.COM                                        
1012024122315       050780000137                  133679820836   TATIANE MERLO DA SILVA                       19860103                                                                                                                                                                                                                                                                                                                                                                                                                                       R 15 JN                                           811                                                         JD NOVO                  RIO CLARO              SP13502759                                                                                                                                                                                                                                                                                                                            NPE                                          2023062020520509                                                                                                                                                                                                                                                                       FO417.097.98                  000000000000000000        00000000R                    997924408           997924408                                                                       
1012024122315       038720004923                  147885254291   ROSENIRA PEREIRA KRAUSE                      19720112                                                                                                                                                                                                                                                                                                                                                                                                                                       CORREGO RANCHO ALTO                               SN                                                          CORREGO RANCHO ALTO      SAO GABRIEL DA PALHA   ES29780000                                                                                          OUTRAS                        CORREGO RANCHO ALTO                                       SN                                                  ZONA RURAL               SAO GABRIEL DA PALHA   ES29780000                            NPE                                          2024101720520509                                                                                                                                                                                                                                                                       FS1898501                     000000000000000000        00000000R                    999388431           997099028                                                                       
1012024122315       027320016064                  103266511441   LAVOSIER ROCHA DA SILVA                      19800508                                                                                                                                                                                                                                                                                                                                                                                                                                       R ANTONIO AUGUSTO                                 99        AP 804                                            MEIRELES                 FORTALEZA              CE60110370                                                                                          OUTRAS                        R ANTONIO AUGUSTO                                         99AP 804                                            MEIRELES                 FORTALEZA              CE60110370                            NPE                                          2024102120520509                                                                                                                                                                                                                                                                       MS                            000000000000000000        00000000R                    996455348           994098010                                                                       
1012024122315       034960006855                  128716676831   BRUNO LEONARDO TAVARES DA SILVA              19801208                                                                                                                                                                                                                                                                                                                                                                                                                                       ADOLFO AUGUSTO PINTO                              10        CASA                                              VILA SANTANA             SAO PAULO              SP03613110                                                                                          OUTRAS                        ADOLFO AUGUSTO PINTO                                      10CASA                                              VILA SANTANA             SAO PAULO              SP03613110                            NPE                                          2023111720520509                                                                                                                                                                                                                                                                       MS33269581                    000000000000000000        00000000R997751671           11983598769         11983598769                                                                     
1012024122315       005390014072                  110295266805   ROSILENE DE SOUZA BERTHOLINO GONCALVES       19681214                                                                                                                                                                                                                                                                                                                                                                                                                                       RUA JOAO VICENTE DE SOUZA                         153                                                         JARDIM SOL NASCENTE      SAO JOAO DA BOA VIST   SP13874519                    NA                                                                    OUTRAS                        R JOAO VICENTE DE SOUZA                                  153                                                  JARDIM SOL NASCENTE      SAO JOAO DA BOA VISTA  SP138745191140045215                  NPE                                          2022121920520509                                                                                                                                                                                                                                                                       FS19335565                    000000000000000000        00000000R24992172273         999217227           1122827520          RAFA_LM2@HOTMAIL.COM                                        
1012024122315       050300000512                  125791682816   MARISA MARTINELI ARNONI                      19760315                                                                                                                                                                                                                                                                                                                                                                                                                                       R LUIS LOUZA                                      181       APTO 133B                                         OLIMPICO                 SAO CAETANO DO SUL     SP095404301120835220                                                                                GERENTE - TODAS               R LUIS LOUZA                                             181                                                  OLIMPICO                 SAO CAETANO DO SUL     SP095404301140045215                  NPE                                          2022112120520509                                                                                                                                                                                                                                                                       FS18154247X                   000000000000000000        00000000R992348648           999860521           1122642557          ALESSANDRO@SAUMMITCTTASE.COM.BR                             
1012024122315       036180006178                  133546195892   ANDRE MOTOHARU YOSHINO                       19850227                                                                                                                                                                                                                                                                                                                                                                                                                                       CORONEL PEDRO DIAS DE CAMPOS                      877       APARTAMENTO 82                                    CHACARA SEIS DE OUTUBRO  SAO PAULO              SP03508010                    NENHUMA                                                               GERENTE - TODAS               CORONEL PEDRO DIAS DE CAMPOS                             877APARTAMENTO 82                                    CHACARA SEIS DE OUTUBRO  SAO PAULO              SP03508010                            NPE                                          2024011920520509                                                                                                                                                                                                                                                                       MS347041929                   000000000000000000        00000000R976913553           983472357           983472357           ANDRE.YOSHINO@HOTMAIL.COM                                   
1012024122315       036200005275                  102598882571   THALITA BEZERRA PORTO                        19860304                                                                                                                                                                                                                                                                                                                                                                                                                                       AV ANEL DE CONTORNO                               12        QUADRA I                                          UNIVERSIDADE             VITORIA DA CONQUISTA   BA45032000                                                                                          EMPRESARIO                    AV ANEL DE CONTORNO                                       12                                                  UNIVERSIDADE             VITORIA DA CONQUISTA   BA45032000                            NPE                                          2023071920520509                                                                                                                                                                                                                                                                       FS0259888257                  000000000000000000        00000000R77988811004         998732507           987365543           THALITABP@GMAIL.COM                                         
1012024122315       026730013488                  102768231681   WARLLEY FERNANDES SALLES SILVA               19750829                                                                                                                                                                                                                                                                                                                                                                                                                                       RUA FREDERICO OZANAN                              35        A                                                 SENHOR DO BONFIM         BELA VISTA DE MINAS    MG35938000                    TELEMONTE                                                             GERENTE - TODAS               RUA FREDERICO OZANAN                                      35                                                  SENHOR DO BONFIN         BELA VISTA             MG359380003133967261                  NPE                                          2022121920520509                                                                                                                                                                                                                                                                       MSMG6893330                   000000000000000000        00000000R31992245832         998218386           33967261                                                                        
1012024122315       053160005966                  186490761653   HELBERT GERALDO FERREIRA                     19721222                                                                                                                                                                                                                                                                                                                                                                                                                                       R DOM MANOEL COELHO NUNES                         71                                                          INDUSTRIAL               CONTAGEM               MG32230060                    NAO INFORMADO                                                         GERENTE - TODAS               R DOM MANOEL COELHO NUNES                                 71                                                  INDUSTRIAL               CONTAGEM               MG32230060                            NPE                                          2024082020520509                                                                                                                                                                                                                                                                       MS                            000000000000000000        00000000R81998336102         998336102           3131129593                                                                      
1012024122315       023790017358                  102914459181   LAZARO WAGNER DE OLIVEIRA                    19870326                                                                                                                                                                                                                                                                                                                                                                                                                                       A QUADRA                                          1         14 A CASA                                         JARDIM ANA BEATRIZ I     SANTO ANTONIO DO DESCOBGO72902200                    WDA TELECOM                                                           GERENTE - TODAS               A QUADRA                                                  64                                                  PARQUE ESTRELA DALVA XII SANTO ANTONIO DO DESCOBGO72904086                            NPE                                          2022121920520509                                                                                                                                                                                                                                                                       MS0693669067                  000000000000000000        00000000R62993350146         998429477           993198146           LAZAROWAGNER183@GMAIL.COM                                   
1012024122315       035170003880                  109348683870   PATRICIA VANUCHI                             19670511                                                                                                                                                                                                                                                                                                                                                                                                                                       RUA DO FLAMENGO                                   38                                                          JARDIM GUANABARA         AMERICANA              SP13471410                                                                                          EMPRESARIO                    R DO FLAMENGO                                             38                                                  JARDIM GUANABARA         AMERICANA              SP13471410                            NPE                                          2023011920520509                                                                                                                                                                                                                                                                       FS001597162                   000000000000000000        00000000R11993434287         993434287           981846078           PVANUCHI@YAHOO.COM.BR                                       
10120241223Q5       005390014072                  1138628099                  OUTROS                        
10120241223Q5       005390014072                  963458783                   OUTROS                        
10120241223Q5       005390014072                  995077185                   OUTROS                        
10120241223Q5       005400010965                  19971705594                 CELULAR                       
10120241223Q5       023790017358                  998429477                   OUTROS                        
10120241223Q5       025490006853                  987180352                   OUTROS                        
10120241223Q5       025490006853                  991688326                   OUTROS                        
10120241223Q5       026730013488                  998218386                   OUTROS                        
10120241223Q5       027320016064                  994098010                   OUTROS                        
10120241223Q5       034960006855                  997751671                   CELULAR                       
10120241223Q5       036140001620                  43996049063                 OUTROS                        
10120241223Q5       050090003843                  1140045215                  RECADO                        
10120241223Q5       050090003843                  955563221                   OUTROS                        
10120241223Q5       050300000512                  1120835220                  RESIDENCIAL                   
10120241223Q5       023790017358                  62993350146         0       CELULAR                       
10120241223Q5       025490006853                  81987180352                 CELULAR                       
10120241223Q5       035170003880                  993434287                   OUTROS                        
10120241223Q5       036140001620                  17981947461                 OUTROS                        
10120241223Q5       036140001620                  99231601                    OUTROS                        
10120241223Q5       036140001620                  998572079                   OUTROS                        
10120241223Q5       036200005275                  987365543                   OUTROS                        
10120241223Q5       050090003843                  89981102212                 RECADO                        
10120241223Q5       050090003843                  981102212                   OUTROS                        
10120241223Q5       050300000512                  1126293543                  OUTROS                        
10120241223Q5       050300000512                  971131211                   OUTROS                        
10120241223Q5       053160005966                  1140045215                  RECADO                        
10120241223Q5       005390014072                  1122827520                  OUTROS                        
10120241223Q5       005390014072                  1123419366                  OUTROS                        
10120241223Q5       005390014072                  19995077185                 CELULAR                       
10120241223Q5       005400010965                  40045215                    OUTROS                        
10120241223Q5       005400010965                  981849052                   OUTROS                        
10120241223Q5       025490006853                  985068173                   OUTROS                        
10120241223Q5       034960006855                  11983598769                 OUTROS                        
10120241223Q5       035170003880                  991525604                   OUTROS                        
10120241223Q5       036180006178                  11983472357                 CELULAR                       
10120241223Q5       036180006178                  949376255                   CELULAR                       
10120241223Q5       036200005275                  1140045215                  RECADO                        
10120241223Q5       038720004923                  27999388431                 RECADO                        
10120241223Q5       038720004923                  997099028                   OUTROS                        
10120241223Q5       050300000512                  1140045215                  COMERCIAL                     
10120241223Q5       053160005966                  81998336102                 CELULAR                       
10120241223Q5       005390014072                  991063474                   OUTROS                        
10120241223Q5       005400010965                  19981849052                 OUTROS                        
10120241223Q5       027320016064                  84996455348                 RECADO                        
10120241223Q5       035170003880                  981846078                   OUTROS                        
10120241223Q5       036180006178                  976913553                   CELULAR                       
10120241223Q5       050300000512                  20835220                    OUTROS                        
10120241223Q5       050780000137                  19997924408                 RECADO                        
10120241223Q5       050780000137                  997924408                   OUTROS                        
10120241223Q5       005390014072                  11963458783                 OUTROS                        
10120241223Q5       005390014072                  19994465348                 CELULAR                       
10120241223Q5       005390014072                  992612456                   OUTROS                        
10120241223Q5       005400010965                  971705594                   OUTROS                        
10120241223Q5       025490006853                  8133769472                  COMERCIAL                     
10120241223Q5       034960006855                  11984083340                 CELULAR                       
10120241223Q5       034960006855                  984083340                   CELULAR                       
10120241223Q5       035170003880                  11993434287                 CELULAR                       
10120241223Q5       036180006178                  983472357                   OUTROS                        
10120241223Q5       036200005275                  71993715158         0       CELULAR                       
10120241223Q5       038720004923                  1140045215                  RECADO                        
10120241223Q5       050090003843                  981012212                   OUTROS                        
10120241223Q5       050090003843                  981440477                   OUTROS                        
10120241223Q5       050300000512                  11971131211         0       CELULAR                       
10120241223Q5       053160005966                  3131129593                  OUTROS                        
10120241223Q5       005390014072                  1123465335                  OUTROS                        
10120241223Q5       005390014072                  1140045215                  COMERCIAL                     
10120241223Q5       005390014072                  22827520                    OUTROS                        
10120241223Q5       005390014072                  31963465335                 OUTROS                        
10120241223Q5       026730013488                  1140045215                  COMERCIAL                     
10120241223Q5       026730013488                  3133967261                  COMERCIAL                     
10120241223Q5       026730013488                  31992245832                 CELULAR                       
10120241223Q5       026730013488                  33967261                    OUTROS                        
10120241223Q5       026730013488                  992245832                   OUTROS                        
10120241223Q5       036200005275                  988811004                   OUTROS                        
10120241223Q5       036200005275                  998732507                   OUTROS                        
10120241223Q5       005390014072                  1123458783                  OUTROS                        
10120241223Q5       005390014072                  1125583127                  OUTROS                        
10120241223Q5       005390014072                  11965583127                 OUTROS                        
10120241223Q5       005390014072                  992172273                   OUTROS                        
10120241223Q5       005390014072                  994465348                   OUTROS                        
10120241223Q5       005390014072                  999217227                   OUTROS                        
10120241223Q5       023790017358                  61998429477                 CELULAR                       
10120241223Q5       025490006853                  983246555                   OUTROS                        
10120241223Q5       025490006853                  986008609                   OUTROS                        
10120241223Q5       025490006853                  987522869                   OUTROS                        
10120241223Q5       035170003880                  992681616                   OUTROS                        
10120241223Q5       036200005275                  77988811004                 CELULAR                       
10120241223Q5       050090003843                  981138424                   OUTROS                        
10120241223Q5       050300000512                  11999006119                 OUTROS                        
10120241223Q5       050300000512                  11999860521         0       CELULAR                       
10120241223Q5       050300000512                  992348648                   CELULAR                       
10120241223Q5       050300000512                  999860521                   OUTROS                        
10120241223Q5       053160005966                  998336102                   OUTROS                        
10120241223Q5       005390014072                  24992172273                 CELULAR                       
10120241223Q5       005390014072                  24999217227                 OUTROS                        
10120241223Q5       005400010965                  1140045215                  COMERCIAL                     
10120241223Q5       023790017358                  993198146                   OUTROS                        
10120241223Q5       023790017358                  993350146                   OUTROS                        
10120241223Q5       025490006853                  81987522869                 CELULAR                       
10120241223Q5       027320016064                  996455348                   OUTROS                        
10120241223Q5       036140001620                  43996524436                 OUTROS                        
10120241223Q5       036200005275                  988396004                   OUTROS                        
10120241223Q5       036200005275                  993715158                   OUTROS                        
10120241223Q5       038720004923                  999388431                   OUTROS                        
10120241223Q5       050300000512                  1122642557                  OUTROS                        
10120241223Q5       050300000512                  1178628786                  OUTROS                        
1012024122325       005390014072                  REFF    005390014072                  00539   PORTOSEG - MOGI                                                                                   00539   PORTOSEG - MOGI MIRI                         00000000027288570000000000000000000020220817048         1                                                                                                                                                                                                                                                                                                                                                                                                                                                                                                                                                                                                            000000000000024108                                                                                                 
1012024122325       038720004923                  FSEG    038720004923                  03872   NOVACAO COBRANC                                                                                   03872   NOVACAO COBRANCA CON                         00000000006115460000000000000000000020240716024         1                                                                                                                                                                                                                                                                                                                                                                                                                                                                                                                                                                                                            000000000000010000                                                                                                 
1012024122325       034960006855                  REFF    034960006855                  03496   CORRESPONDENTE                                                                                    03496   CORRESPONDENTE PENHA                         00000000030810530000000000000000000020230913024         1                                                                                                                                                                                                                                                                                                                                                                                                                                                                                                                                                                                                            000000000000025621                                                                                                 
1012024122325       036200005275                  REFF    036200005275                  03620   CORRESP. VITORI                                                                                   03620   CORRESP. VITORIA DA                          00000000144238800000000000000000000020230519036         1                                                                                                                                                                                                                                                                                                                                                                                                                                                                                                                                                                                                            000000000000021541                                                                                                 
1012024122325       025490006853                  FCDC    025490006853                  02549   CORRESPONDENTE                                                                                    02549   CORRESPONDENTE  PERN                         00000000011621570000000000000000000020200519060         1                                                                                                                                                                                                                                                                                                                                                                                                                                                                                                                                                                                                            000000000000025947                                                                                                 
1012024122325       026730013488                  FCDC    026730013488                  02673   CORRESPONDENTE                                                                                    02673   CORRESPONDENTE - MIN                         00000000005372660000000000000000000020200518060         1                                                                                                                                                                                                                                                                                                                                                                                                                                                                                                                                                                                                            000000000000011313                                                                                                 
1012024122325       023790017358                  PARF    023790017358                  02379   CORRESPONDENTE                                                                                    02379   CORRESPONDENTE - DIS                         00000000014268770000000000000000000020220418048         1                                                                                                                                                                                                                                                                                                                                                                                                                                                                                                                                                                                                            000000000000026325                                                                                                 
1012024122325       036140001620                  FCDC    036140001620                  03614   CORRESPONDENTE                                                                                    03614   CORRESPONDENTE LONDR                         00000000028360300000000000000000000020230216036         1                                                                                                                                                                                                                                                                                                                                                                                                                                                                                                                                                                                                            000000000000023204                                                                                                 
1012024122325       005400010965                  PARF    005400010965                  00540   PORTOSEG BRAGAN                                                                                   00540   PORTOSEG BRAGANCA PA                         00000000019385570000000000000000000020220819036         1                                                                                                                                                                                                                                                                                                                                                                                                                                                                                                                                                                                                            000000000000024267                                                                                                 
1012024122325       050300000512                  FCDC    050300000512                  05030   CORRESPONDENTE                                                                                    05030   CORRESPONDENTE SUCUR                         00000000057446870000000000000000000020220819048         1                                                                                                                                                                                                                                                                                                                                                                                                                                                                                                                                                                                                            000000000000019500                                                                                                 
1012024122325       036180006178                  REFF    036180006178                  03618   CORRESP. SANTAN                                                                                   03618   CORRESP. SANTANA                             00000000048356180000000000000000000020231218036         1                                                                                                                                                                                                                                                                                                                                                                                                                                                                                                                                                                                                            000000000000020316                                                                                                 
1012024122325       027320016064                  REFF    027320016064                  02732   CORRESPONDENTE                                                                                    02732   CORRESPONDENTE - RIO                         00000000203143490000000000000000000020240918060         1                                                                                                                                                                                                                                                                                                                                                                                                                                                                                                                                                                                                            000000000000022151                                                                                                 
1012024122325       050780000137                  ESPF    050780000137                  05078   VIVIANI VEICULO                                                                                   05139   ANGELO LAGO NETO INT                         00000000043197450000000000000000000020230417048         1                                                                                                                                                                                                                                                                                                                                                                                                                                                                                                                                                                                                            000000000000023829                                                                                                 
1012024122325       053160005966                  REFF    053160005966                  05316   NOVO CORRESP.                                                                                     05316   NOVO CORRESP.  VALE                          00000000046873070000000000000000000020240318048         1                                                                                                                                                                                                                                                                                                                                                                                                                                                                                                                                                                                                            000000000000019763                                                                                                 
1012024122325       050090003843                  REFF    050090003843                  05009   SUCURSAL S?O PA                                                                                   05009   SUCURSAL S?O PAULO I                         00000000040262870000000000000000000020240216024         1                                                                                                                                                                                                                                                                                                                                                                                                                                                                                                                                                                                                            000000000000021409                                                                                                 
1012024122325       035170003880                  REFF    035170003880                  03517   CORRESPONDENTE                                                                                    03517   CORRESPONDENTE TATUA                         00000000022871170000000000000000000020220919036         1                                                                                                                                                                                                                                                                                                                                                                                                                                                                                                                                                                                                            000000000000019717                                                                                                 
1012024122335       005390014072                  REFF    005390014072                  2024101700000026                000000000010743700000000000000000000000000000000000000000000000000000000000000000000000000   048   1                             20241017                      
1012024122335       005390014072                  REFF    005390014072                  2024111700000027                000000000010743700000000000000000000000000000000000000000000000000000000000000000000000000   048   1                             20241117                      
1012024122335       005390014072                  REFF    005390014072                  2024121700000028                000000000010743700000000000000000000000000000000000000000000000000000000000000000000000000   048   1                             20241217                      
1012024122335       005390014072                  REFF    005390014072                  2025011700000029                000000000010743700000000000000000000000000000000000000000000000000000000000000000000000000   048   1                             20250117                      
1012024122335       005390014072                  REFF    005390014072                  2025021700000030                000000000010743700000000000000000000000000000000000000000000000000000000000000000000000000   048   1                             20250217                      
1012024122335       005390014072                  REFF    005390014072                  2025031700000031                000000000010743700000000000000000000000000000000000000000000000000000000000000000000000000   048   1                             20250317                      
1012024122335       005390014072                  REFF    005390014072                  2025041700000032                000000000010743700000000000000000000000000000000000000000000000000000000000000000000000000   048   1                             20250417                      
1012024122335       005390014072                  REFF    005390014072                  2025051700000033                000000000010743700000000000000000000000000000000000000000000000000000000000000000000000000   048   1                             20250517                      
1012024122335       005390014072                  REFF    005390014072                  2025061700000034                000000000010743700000000000000000000000000000000000000000000000000000000000000000000000000   048   1                             20250617                      
1012024122335       005390014072                  REFF    005390014072                  2025071700000035                000000000010743700000000000000000000000000000000000000000000000000000000000000000000000000   048   1                             20250717                      
1012024122335       005390014072                  REFF    005390014072                  2025081700000036                000000000010743700000000000000000000000000000000000000000000000000000000000000000000000000   048   1                             20250817                      
1012024122335       005390014072                  REFF    005390014072                  2025091700000037                000000000010743700000000000000000000000000000000000000000000000000000000000000000000000000   048   1                             20250917                      
1012024122335       005390014072                  REFF    005390014072                  2025101700000038                000000000010743700000000000000000000000000000000000000000000000000000000000000000000000000   048   1                             20251017                      
1012024122335       005390014072                  REFF    005390014072                  2025111700000039                000000000010743700000000000000000000000000000000000000000000000000000000000000000000000000   048   1                             20251117                      
1012024122335       005390014072                  REFF    005390014072                  2025121700000040                000000000010743700000000000000000000000000000000000000000000000000000000000000000000000000   048   1                             20251217                      
1012024122335       005390014072                  REFF    005390014072                  2026011700000041                000000000010743700000000000000000000000000000000000000000000000000000000000000000000000000   048   1                             20260117                      
1012024122335       005390014072                  REFF    005390014072                  2026021700000042                000000000010743700000000000000000000000000000000000000000000000000000000000000000000000000   048   1                             20260217                      
1012024122335       005390014072                  REFF    005390014072                  2026031700000043                000000000010743700000000000000000000000000000000000000000000000000000000000000000000000000   048   1                             20260317                      
1012024122335       005390014072                  REFF    005390014072                  2026041700000044                000000000010743700000000000000000000000000000000000000000000000000000000000000000000000000   048   1                             20260417                      
1012024122335       005390014072                  REFF    005390014072                  2026051700000045                000000000010743700000000000000000000000000000000000000000000000000000000000000000000000000   048   1                             20260517                      
1012024122335       005390014072                  REFF    005390014072                  2026061700000046                000000000010743700000000000000000000000000000000000000000000000000000000000000000000000000   048   1                             20260617                      
1012024122335       005390014072                  REFF    005390014072                  2026071700000047                000000000010743700000000000000000000000000000000000000000000000000000000000000000000000000   048   1                             20260717                      
1012024122335       005390014072                  REFF    005390014072                  2026081700000048                000000000010743700000000000000000000000000000000000000000000000000000000000000000000000000   048   1                             20260817                      
1012024122335       005400010965                  PARF    005400010965                  2024101800000026                000000000009247100000000000000000000000000000000000000000000000000000000000000000000000000   036   1                             20241018                      
1012024122335       005400010965                  PARF    005400010965                  2024111800000027                000000000009247100000000000000000000000000000000000000000000000000000000000000000000000000   036   1                             20241118                      
1012024122335       005400010965                  PARF    005400010965                  2025011800000029                000000000009247100000000000000000000000000000000000000000000000000000000000000000000000000   036   1                             20250118                      
1012024122335       005400010965                  PARF    005400010965                  2025021800000030                000000000009247100000000000000000000000000000000000000000000000000000000000000000000000000   036   1                             20250218                      
1012024122335       005400010965                  PARF    005400010965                  2025031800000031                000000000009247100000000000000000000000000000000000000000000000000000000000000000000000000   036   1                             20250318                      
1012024122335       005400010965                  PARF    005400010965                  2025041800000032                000000000009247100000000000000000000000000000000000000000000000000000000000000000000000000   036   1                             20250418                      
1012024122335       005400010965                  PARF    005400010965                  2025051800000033                000000000009247100000000000000000000000000000000000000000000000000000000000000000000000000   036   1                             20250518                      
1012024122335       005400010965                  PARF    005400010965                  2025061800000034                000000000009247100000000000000000000000000000000000000000000000000000000000000000000000000   036   1                             20250618                      
1012024122335       005400010965                  PARF    005400010965                  2025071800000035                000000000009247100000000000000000000000000000000000000000000000000000000000000000000000000   036   1                             20250718                      
1012024122335       005400010965                  PARF    005400010965                  2025081800000036                000000000009247100000000000000000000000000000000000000000000000000000000000000000000000000   036   1                             20250818                      
1012024122335       021980013756                  FCDC    021980013756                  2023100400000009                000000000020158800000000000000000000000000000000000000000000000000000000000000000000000000   060   1                             20231004                      
1012024122335       021980013756                  FCDC    021980013756                  2023110400000010                000000000020158800000000000000000000000000000000000000000000000000000000000000000000000000   060   1                             20231104                      
1012024122335       021980013756                  FCDC    021980013756                  2023120400000011                000000000020158800000000000000000000000000000000000000000000000000000000000000000000000000   060   1                             20231204                      
1012024122335       021980013756                  FCDC    021980013756                  2024010400000012                000000000020158800000000000000000000000000000000000000000000000000000000000000000000000000   060   1                             20240104                      
1012024122335       021980013756                  FCDC    021980013756                  2024020400000013                000000000020158800000000000000000000000000000000000000000000000000000000000000000000000000   060   1                             20240204                      
1012024122335       021980013756                  FCDC    021980013756                  2024030400000014                000000000020158800000000000000000000000000000000000000000000000000000000000000000000000000   060   1                             20240304                      
1012024122335       021980013756                  FCDC    021980013756                  2024040400000015                000000000020158800000000000000000000000000000000000000000000000000000000000000000000000000   060   1                             20240404                      
1012024122335       021980013756                  FCDC    021980013756                  2024050400000016                000000000020158800000000000000000000000000000000000000000000000000000000000000000000000000   060   1                             20240504                      
1012024122335       021980013756                  FCDC    021980013756                  2024060400000017                000000000020158800000000000000000000000000000000000000000000000000000000000000000000000000   060   1                             20240604                      
1012024122335       021980013756                  FCDC    021980013756                  2024070400000018                000000000020158800000000000000000000000000000000000000000000000000000000000000000000000000   060   1                             20240704                      
1012024122335       021980013756                  FCDC    021980013756                  2024080400000019                000000000020158800000000000000000000000000000000000000000000000000000000000000000000000000   060   1                             20240804                      
1012024122335       021980013756                  FCDC    021980013756                  2024090400000020                000000000020158800000000000000000000000000000000000000000000000000000000000000000000000000   060   1                             20240904                      
1012024122335       021980013756                  FCDC    021980013756                  2024100400000021                000000000020158800000000000000000000000000000000000000000000000000000000000000000000000000   060   1                             20241004                      
1012024122335       021980013756                  FCDC    021980013756                  2024110400000022                000000000020158800000000000000000000000000000000000000000000000000000000000000000000000000   060   1                             20241104                      
1012024122335       021980013756                  FCDC    021980013756                  2024120400000023                000000000020158800000000000000000000000000000000000000000000000000000000000000000000000000   060   1                             20241204                      
1012024122335       021980013756                  FCDC    021980013756                  2025010400000024                000000000020158800000000000000000000000000000000000000000000000000000000000000000000000000   060   1                             20250104                      
1012024122335       021980013756                  FCDC    021980013756                  2025020400000025                000000000020158800000000000000000000000000000000000000000000000000000000000000000000000000   060   1                             20250204                      
1012024122335       021980013756                  FCDC    021980013756                  2025030400000026                000000000020158800000000000000000000000000000000000000000000000000000000000000000000000000   060   1                             20250304                      
1012024122335       021980013756                  FCDC    021980013756                  2025040400000027                000000000020158800000000000000000000000000000000000000000000000000000000000000000000000000   060   1                             20250404                      
1012024122335       021980013756                  FCDC    021980013756                  2025050400000028                000000000020158800000000000000000000000000000000000000000000000000000000000000000000000000   060   1                             20250504                      
1012024122335       021980013756                  FCDC    021980013756                  2025060400000029                000000000020158800000000000000000000000000000000000000000000000000000000000000000000000000   060   1                             20250604                      
1012024122335       021980013756                  FCDC    021980013756                  2025070400000030                000000000020158800000000000000000000000000000000000000000000000000000000000000000000000000   060   1                             20250704                      
1012024122335       021980013756                  FCDC    021980013756                  2025080400000031                000000000020158800000000000000000000000000000000000000000000000000000000000000000000000000   060   1                             20250804                      
1012024122335       021980013756                  FCDC    021980013756                  2025090400000032                000000000020158800000000000000000000000000000000000000000000000000000000000000000000000000   060   1                             20250904                      
1012024122335       021980013756                  FCDC    021980013756                  2025100400000033                000000000020158800000000000000000000000000000000000000000000000000000000000000000000000000   060   1                             20251004                      
1012024122335       021980013756                  FCDC    021980013756                  2025110400000034                000000000020158800000000000000000000000000000000000000000000000000000000000000000000000000   060   1                             20251104                      
1012024122335       021980013756                  FCDC    021980013756                  2025120400000035                000000000020158800000000000000000000000000000000000000000000000000000000000000000000000000   060   1                             20251204                      
1012024122335       021980013756                  FCDC    021980013756                  2026010400000036                000000000020158800000000000000000000000000000000000000000000000000000000000000000000000000   060   1                             20260104                      
1012024122335       021980013756                  FCDC    021980013756                  2026020400000037                000000000020158800000000000000000000000000000000000000000000000000000000000000000000000000   060   1                             20260204                      
1012024122335       021980013756                  FCDC    021980013756                  2026030400000038                000000000020158800000000000000000000000000000000000000000000000000000000000000000000000000   060   1                             20260304                      
1012024122335       021980013756                  FCDC    021980013756                  2026040400000039                000000000020158800000000000000000000000000000000000000000000000000000000000000000000000000   060   1                             20260404                      
1012024122335       021980013756                  FCDC    021980013756                  2026050400000040                000000000020158800000000000000000000000000000000000000000000000000000000000000000000000000   060   1                             20260504                      
1012024122335       021980013756                  FCDC    021980013756                  2026060400000041                000000000020158800000000000000000000000000000000000000000000000000000000000000000000000000   060   1                             20260604                      
1012024122335       021980013756                  FCDC    021980013756                  2026070400000042                000000000020158800000000000000000000000000000000000000000000000000000000000000000000000000   060   1                             20260704                      
1012024122335       021980013756                  FCDC    021980013756                  2026080400000043                000000000020158800000000000000000000000000000000000000000000000000000000000000000000000000   060   1                             20260804                      
1012024122335       021980013756                  FCDC    021980013756                  2026090400000044                000000000020158800000000000000000000000000000000000000000000000000000000000000000000000000   060   1                             20260904                      
1012024122335       021980013756                  FCDC    021980013756                  2026100400000045                000000000020158800000000000000000000000000000000000000000000000000000000000000000000000000   060   1                             20261004                      
1012024122335       021980013756                  FCDC    021980013756                  2026110400000046                000000000020158800000000000000000000000000000000000000000000000000000000000000000000000000   060   1                             20261104                      
1012024122335       021980013756                  FCDC    021980013756                  2026120400000047                000000000020158800000000000000000000000000000000000000000000000000000000000000000000000000   060   1                             20261204                      
1012024122335       021980013756                  FCDC    021980013756                  2027010400000048                000000000020158800000000000000000000000000000000000000000000000000000000000000000000000000   060   1                             20270104                      
1012024122335       021980013756                  FCDC    021980013756                  2027020400000049                000000000020158800000000000000000000000000000000000000000000000000000000000000000000000000   060   1                             20270204                      
1012024122335       021980013756                  FCDC    021980013756                  2027030400000050                000000000020158800000000000000000000000000000000000000000000000000000000000000000000000000   060   1                             20270304                      
1012024122335       021980013756                  FCDC    021980013756                  2027040400000051                000000000020158800000000000000000000000000000000000000000000000000000000000000000000000000   060   1                             20270404                      
1012024122335       021980013756                  FCDC    021980013756                  2027050400000052                000000000020158800000000000000000000000000000000000000000000000000000000000000000000000000   060   1                             20270504                      
1012024122335       021980013756                  FCDC    021980013756                  2027060400000053                000000000020158800000000000000000000000000000000000000000000000000000000000000000000000000   060   1                             20270604                      
1012024122335       021980013756                  FCDC    021980013756                  2027070400000054                000000000020158800000000000000000000000000000000000000000000000000000000000000000000000000   060   1                             20270704                      
1012024122335       021980013756                  FCDC    021980013756                  2027080400000055                000000000020158800000000000000000000000000000000000000000000000000000000000000000000000000   060   1                             20270804                      
1012024122335       021980013756                  FCDC    021980013756                  2027090400000056                000000000020158800000000000000000000000000000000000000000000000000000000000000000000000000   060   1                             20270904                      
1012024122335       021980013756                  FCDC    021980013756                  2027100400000057                000000000020158800000000000000000000000000000000000000000000000000000000000000000000000000   060   1                             20271004                      
1012024122335       021980013756                  FCDC    021980013756                  2027110400000058                000000000020158800000000000000000000000000000000000000000000000000000000000000000000000000   060   1                             20271104                      
1012024122335       021980013756                  FCDC    021980013756                  2027120400000059                000000000020158800000000000000000000000000000000000000000000000000000000000000000000000000   060   1                             20271204                      
1012024122335       021980013756                  FCDC    021980013756                  2028010400000060                000000000020158800000000000000000000000000000000000000000000000000000000000000000000000000   060   1                             20280104                      
1012024122335       022800012573                  PARF    022800012573                  2024081600000038                000000000014452900000000000000000000000000000000000000000000000000000000000000000000000000   048   1                             20240816                      
1012024122335       022800012573                  PARF    022800012573                  2024091600000039                000000000014452900000000000000000000000000000000000000000000000000000000000000000000000000   048   1                             20240916                      
1012024122335       023790017358                  PARF    023790017358                  2024101800000030                000000000006874500000000000000000000000000000000000000000000000000000000000000000000000000   048   1                             20241018                      
1012024122335       023790017358                  PARF    023790017358                  2024111800000031                000000000006874500000000000000000000000000000000000000000000000000000000000000000000000000   048   1                             20241118                      
1012024122335       023790017358                  PARF    023790017358                  2025011800000033                000000000006874500000000000000000000000000000000000000000000000000000000000000000000000000   048   1                             20250118                      
1012024122335       023790017358                  PARF    023790017358                  2025021800000034                000000000006874500000000000000000000000000000000000000000000000000000000000000000000000000   048   1                             20250218                      
1012024122335       023790017358                  PARF    023790017358                  2025031800000035                000000000006874500000000000000000000000000000000000000000000000000000000000000000000000000   048   1                             20250318                      
1012024122335       023790017358                  PARF    023790017358                  2025041800000036                000000000006874500000000000000000000000000000000000000000000000000000000000000000000000000   048   1                             20250418                      
1012024122335       023790017358                  PARF    023790017358                  2025051800000037                000000000006874500000000000000000000000000000000000000000000000000000000000000000000000000   048   1                             20250518                      
1012024122335       023790017358                  PARF    023790017358                  2025061800000038                000000000006874500000000000000000000000000000000000000000000000000000000000000000000000000   048   1                             20250618                      
1012024122335       023790017358                  PARF    023790017358                  2025071800000039                000000000006874500000000000000000000000000000000000000000000000000000000000000000000000000   048   1                             20250718                      
1012024122335       023790017358                  PARF    023790017358                  2025081800000040                000000000006874500000000000000000000000000000000000000000000000000000000000000000000000000   048   1                             20250818                      
1012024122335       023790017358                  PARF    023790017358                  2025091800000041                000000000006874500000000000000000000000000000000000000000000000000000000000000000000000000   048   1                             20250918                      
1012024122335       023790017358                  PARF    023790017358                  2025101800000042                000000000006874500000000000000000000000000000000000000000000000000000000000000000000000000   048   1                             20251018                      
1012024122335       023790017358                  PARF    023790017358                  2025111800000043                000000000006874500000000000000000000000000000000000000000000000000000000000000000000000000   048   1                             20251118                      
1012024122335       023790017358                  PARF    023790017358                  2025121800000044                000000000006874500000000000000000000000000000000000000000000000000000000000000000000000000   048   1                             20251218                      
1012024122335       023790017358                  PARF    023790017358                  2026011800000045                000000000006874500000000000000000000000000000000000000000000000000000000000000000000000000   048   1                             20260118                      
1012024122335       023790017358                  PARF    023790017358                  2026021800000046                000000000006874500000000000000000000000000000000000000000000000000000000000000000000000000   048   1                             20260218                      
1012024122335       023790017358                  PARF    023790017358                  2026031800000047                000000000006874500000000000000000000000000000000000000000000000000000000000000000000000000   048   1                             20260318                      
1012024122335       023790017358                  PARF    023790017358                  2026041800000048                000000000006874500000000000000000000000000000000000000000000000000000000000000000000000000   048   1                             20260418                      
1012024122335       025490006853                  FCDC    025490006853                  2024101800000053                000000000011569600000000000000000000000000000000000000000000000000000000000000000000000000   060   1                             20241018                      
1012024122335       025490006853                  FCDC    025490006853                  2024111800000054                000000000011569600000000000000000000000000000000000000000000000000000000000000000000000000   060   1                             20241118                      
1012024122335       025490006853                  FCDC    025490006853                  2024121800000055                000000000011569600000000000000000000000000000000000000000000000000000000000000000000000000   060   1                             20241218                      
1012024122335       025490006853                  FCDC    025490006853                  2025011800000056                000000000011569600000000000000000000000000000000000000000000000000000000000000000000000000   060   1                             20250118                      
1012024122335       025490006853                  FCDC    025490006853                  2025021800000057                000000000011569600000000000000000000000000000000000000000000000000000000000000000000000000   060   1                             20250218                      
1012024122335       025490006853                  FCDC    025490006853                  2025031800000058                000000000011569600000000000000000000000000000000000000000000000000000000000000000000000000   060   1                             20250318                      
1012024122335       025490006853                  FCDC    025490006853                  2025041800000059                000000000011569600000000000000000000000000000000000000000000000000000000000000000000000000   060   1                             20250418                      
1012024122335       025490006853                  FCDC    025490006853                  2025051800000060                000000000011569600000000000000000000000000000000000000000000000000000000000000000000000000   060   1                             20250518                      
1012024122335       026730013488                  FCDC    026730013488                  2024101800000053                000000000002973300000000000000000000000000000000000000000000000000000000000000000000000000   060   1                             20241018                      
1012024122335       026730013488                  FCDC    026730013488                  2024111800000054                000000000002973300000000000000000000000000000000000000000000000000000000000000000000000000   060   1                             20241118                      
1012024122335       026730013488                  FCDC    026730013488                  2024121800000055                000000000002973300000000000000000000000000000000000000000000000000000000000000000000000000   060   1                             20241218                      
1012024122335       026730013488                  FCDC    026730013488                  2025011800000056                000000000002973300000000000000000000000000000000000000000000000000000000000000000000000000   060   1                             20250118                      
1012024122335       026730013488                  FCDC    026730013488                  2025021800000057                000000000002973300000000000000000000000000000000000000000000000000000000000000000000000000   060   1                             20250218                      
1012024122335       026730013488                  FCDC    026730013488                  2025031800000058                000000000002973300000000000000000000000000000000000000000000000000000000000000000000000000   060   1                             20250318                      
1012024122335       026730013488                  FCDC    026730013488                  2025041800000059                000000000002973300000000000000000000000000000000000000000000000000000000000000000000000000   060   1                             20250418                      
1012024122335       026730013488                  FCDC    026730013488                  2025051800000060                000000000002973300000000000000000000000000000000000000000000000000000000000000000000000000   060   1                             20250518                      
1012024122335       027320016064                  REFF    027320016064                  2024101800000001                000000000063476900000000000000000000000000000000000000000000000000000000000000000000000000   060   1                             20241018                      
1012024122335       027320016064                  REFF    027320016064                  2024111800000002                000000000063476900000000000000000000000000000000000000000000000000000000000000000000000000   060   1                             20241118                      
1012024122335       027320016064                  REFF    027320016064                  2024121800000003                000000000063476900000000000000000000000000000000000000000000000000000000000000000000000000   060   1                             20241218                      
1012024122335       027320016064                  REFF    027320016064                  2025011800000004                000000000063476900000000000000000000000000000000000000000000000000000000000000000000000000   060   1                             20250118                      
1012024122335       027320016064                  REFF    027320016064                  2025021800000005                000000000063476900000000000000000000000000000000000000000000000000000000000000000000000000   060   1                             20250218                      
1012024122335       027320016064                  REFF    027320016064                  2025031800000006                000000000063476900000000000000000000000000000000000000000000000000000000000000000000000000   060   1                             20250318                      
1012024122335       027320016064                  REFF    027320016064                  2025041800000007                000000000063476900000000000000000000000000000000000000000000000000000000000000000000000000   060   1                             20250418                      
1012024122335       027320016064                  REFF    027320016064                  2025051800000008                000000000063476900000000000000000000000000000000000000000000000000000000000000000000000000   060   1                             20250518                      
1012024122335       027320016064                  REFF    027320016064                  2025061800000009                000000000063476900000000000000000000000000000000000000000000000000000000000000000000000000   060   1                             20250618                      
1012024122335       027320016064                  REFF    027320016064                  2025071800000010                000000000063476900000000000000000000000000000000000000000000000000000000000000000000000000   060   1                             20250718                      
1012024122335       027320016064                  REFF    027320016064                  2025081800000011                000000000063476900000000000000000000000000000000000000000000000000000000000000000000000000   060   1                             20250818                      
1012024122335       027320016064                  REFF    027320016064                  2025091800000012                000000000063476900000000000000000000000000000000000000000000000000000000000000000000000000   060   1                             20250918                      
1012024122335       027320016064                  REFF    027320016064                  2025101800000013                000000000063476900000000000000000000000000000000000000000000000000000000000000000000000000   060   1                             20251018                      
1012024122335       027320016064                  REFF    027320016064                  2025111800000014                000000000063476900000000000000000000000000000000000000000000000000000000000000000000000000   060   1                             20251118                      
1012024122335       027320016064                  REFF    027320016064                  2025121800000015                000000000063476900000000000000000000000000000000000000000000000000000000000000000000000000   060   1                             20251218                      
1012024122335       027320016064                  REFF    027320016064                  2026011800000016                000000000063476900000000000000000000000000000000000000000000000000000000000000000000000000   060   1                             20260118                      
1012024122335       027320016064                  REFF    027320016064                  2026021800000017                000000000063476900000000000000000000000000000000000000000000000000000000000000000000000000   060   1                             20260218                      
1012024122335       027320016064                  REFF    027320016064                  2026031800000018                000000000063476900000000000000000000000000000000000000000000000000000000000000000000000000   060   1                             20260318                      
1012024122335       027320016064                  REFF    027320016064                  2026041800000019                000000000063476900000000000000000000000000000000000000000000000000000000000000000000000000   060   1                             20260418                      
1012024122335       027320016064                  REFF    027320016064                  2026051800000020                000000000063476900000000000000000000000000000000000000000000000000000000000000000000000000   060   1                             20260518                      
1012024122335       027320016064                  REFF    027320016064                  2026061800000021                000000000063476900000000000000000000000000000000000000000000000000000000000000000000000000   060   1                             20260618                      
1012024122335       027320016064                  REFF    027320016064                  2026071800000022                000000000063476900000000000000000000000000000000000000000000000000000000000000000000000000   060   1                             20260718                      
1012024122335       027320016064                  REFF    027320016064                  2026081800000023                000000000063476900000000000000000000000000000000000000000000000000000000000000000000000000   060   1                             20260818                      
1012024122335       027320016064                  REFF    027320016064                  2026091800000024                000000000063476900000000000000000000000000000000000000000000000000000000000000000000000000   060   1                             20260918                      
1012024122335       027320016064                  REFF    027320016064                  2026101800000025                000000000063476900000000000000000000000000000000000000000000000000000000000000000000000000   060   1                             20261018                      
1012024122335       027320016064                  REFF    027320016064                  2026111800000026                000000000063476900000000000000000000000000000000000000000000000000000000000000000000000000   060   1                             20261118                      
1012024122335       027320016064                  REFF    027320016064                  2026121800000027                000000000063476900000000000000000000000000000000000000000000000000000000000000000000000000   060   1                             20261218                      
1012024122335       027320016064                  REFF    027320016064                  2027011800000028                000000000063476900000000000000000000000000000000000000000000000000000000000000000000000000   060   1                             20270118                      
1012024122335       027320016064                  REFF    027320016064                  2027021800000029                000000000063476900000000000000000000000000000000000000000000000000000000000000000000000000   060   1                             20270218                      
1012024122335       027320016064                  REFF    027320016064                  2027031800000030                000000000063476900000000000000000000000000000000000000000000000000000000000000000000000000   060   1                             20270318                      
1012024122335       027320016064                  REFF    027320016064                  2027041800000031                000000000063476900000000000000000000000000000000000000000000000000000000000000000000000000   060   1                             20270418                      
1012024122335       027320016064                  REFF    027320016064                  2027051800000032                000000000063476900000000000000000000000000000000000000000000000000000000000000000000000000   060   1                             20270518                      
1012024122335       027320016064                  REFF    027320016064                  2027061800000033                000000000063476900000000000000000000000000000000000000000000000000000000000000000000000000   060   1                             20270618                      
1012024122335       027320016064                  REFF    027320016064                  2027071800000034                000000000063476900000000000000000000000000000000000000000000000000000000000000000000000000   060   1                             20270718                      
1012024122335       027320016064                  REFF    027320016064                  2027081800000035                000000000063476900000000000000000000000000000000000000000000000000000000000000000000000000   060   1                             20270818                      
1012024122335       027320016064                  REFF    027320016064                  2027091800000036                000000000063476900000000000000000000000000000000000000000000000000000000000000000000000000   060   1                             20270918                      
1012024122335       027320016064                  REFF    027320016064                  2027101800000037                000000000063476900000000000000000000000000000000000000000000000000000000000000000000000000   060   1                             20271018                      
1012024122335       027320016064                  REFF    027320016064                  2027111800000038                000000000063476900000000000000000000000000000000000000000000000000000000000000000000000000   060   1                             20271118                      
1012024122335       027320016064                  REFF    027320016064                  2027121800000039                000000000063476900000000000000000000000000000000000000000000000000000000000000000000000000   060   1                             20271218                      
1012024122335       027320016064                  REFF    027320016064                  2028011800000040                000000000063476900000000000000000000000000000000000000000000000000000000000000000000000000   060   1                             20280118                      
1012024122335       027320016064                  REFF    027320016064                  2028021800000041                000000000063476900000000000000000000000000000000000000000000000000000000000000000000000000   060   1                             20280218                      
1012024122335       027320016064                  REFF    027320016064                  2028031800000042                000000000063476900000000000000000000000000000000000000000000000000000000000000000000000000   060   1                             20280318                      
1012024122335       027320016064                  REFF    027320016064                  2028041800000043                000000000063476900000000000000000000000000000000000000000000000000000000000000000000000000   060   1                             20280418                      
1012024122335       027320016064                  REFF    027320016064                  2028051800000044                000000000063476900000000000000000000000000000000000000000000000000000000000000000000000000   060   1                             20280518                      
1012024122335       027320016064                  REFF    027320016064                  2028061800000045                000000000063476900000000000000000000000000000000000000000000000000000000000000000000000000   060   1                             20280618                      
1012024122335       027320016064                  REFF    027320016064                  2028071800000046                000000000063476900000000000000000000000000000000000000000000000000000000000000000000000000   060   1                             20280718                      
1012024122335       027320016064                  REFF    027320016064                  2028081800000047                000000000063476900000000000000000000000000000000000000000000000000000000000000000000000000   060   1                             20280818                      
1012024122335       027320016064                  REFF    027320016064                  2028091800000048                000000000063476900000000000000000000000000000000000000000000000000000000000000000000000000   060   1                             20280918                      
1012024122335       027320016064                  REFF    027320016064                  2028101800000049                000000000063476900000000000000000000000000000000000000000000000000000000000000000000000000   060   1                             20281018                      
