001202411272024112700000093
1012024112715       211570015616                  168218206515   EVAL LUIS NOVAES DA SILVA                    19741006                                                                                                                                                                                                                                                                                                                                                                                                                                       JOSE RIBEIRO                                      55        2 TRAVESSA                                        ARAPAIS MIRIM            ARACAS                 BA48108000                                                                                          OUTRAS                        POVOADO DOIS RIACHOS DE CIMA                              SNLOT 21                                            ZONA RURAL               ARACAS                 BA481080001140045215                  NPE                                          2022110520520413                                                                                                                                                                                                                                                                       MS0725631848                  000000000000000000        00000000R75988182073         988744596           75988744596         PRNIVALDOALMEIDA@GMAIL.COM                                  
1012024112715       030120035377                  117371746775   JEAN GUSTAVO CARVALHO LISBOA                 20000322                                                                                                                                                                                                                                                                                                                                                                                                                                       R MARIA DA GLORIA                                 47                                                          CABUCU                   NOVA IGUACU            RJ26291494                                                                                          OUTRAS                        R MARIA DA GLORIA                                         47                                                  CABUCU                   NOVA IGUACU            RJ262914941140045215                  NPE                                          2022111820520413                                                                                                                                                                                                                                                                       MS307044297                   000000000000000000        00000000R21988033286         988858807           965678525           CARLOSEGLAUCIENE@GMAIL.COM                                  
1012024112715       026090003242                  194110999472   EDMILSON CASCIANO VITAL                      19740426                                                                                                                                                                                                                                                                                                                                                                                                                                       R ADAO PEREIRA DE GUSMAO                          48                                                          BOM PARTO                MACEIO                 AL57017250                    N A                                                                   GERENTE - TODAS               R CONEGO MACHADO                                         810                                                  FAROL                    MACEIO                 AL570511608232219382                  NPE                                          2023030220520319                                                                                                                                                                                                                                                                       MS0278582816                  000000000000000000        00000000R82991351122         991351122           32219382                                                                        
1012024112715       038720004816                  164415090087   GILMARA GOMES DE OLIVEIRA                    19741008                                                                                                                                                                                                                                                                                                                                                                                                                                       RUA CLAITON HOFFMEISTER                           1847                                                        CENTRO                   TRAMANDAI              RS95590000                                                                                          OUTRAS                        RUA CLAITON HOFFMEISTER                                 1847                                                  CENTRO                   TRAMANDAI              RS95590000                            NPE                                          2024071820520324                                                                                                                                                                                                                                                                       FS2071531591                  000000000000000000        00000000R998445722           981709693           981708693           ALEXSANDRAMNUNES27@GMAIL.COM                                
1012024112715       027560010789                  142398263819   BIANCA DOS SANTOS GARCIA LUCCI               19940525                                                                                                                                                                                                                                                                                                                                                                                                                                       R ANTONIO NOGAROTO                                243       SOBRADO                                           CENTRO                   TREMEMBE               SP12120500                                                                                          EMPRESARIO                    R JOAQUIM TAVORA                                         267                                                  CENTRO                   TREMEMBE               SP121200591236743674                  NPE                                          2023020720520319                                                                                                                                                                                                                                                                       FS407363963                   000000000000000000        00000000R12991796326         991429441           36743674            JAOANTONIA@HOTMAIL.COM                                      
1012024112715       036750000253                  104237302156   FERNANDO ALEX SOUSA DA CRUZ                  19921202                                                                                                                                                                                                                                                                                                                                                                                                                                       AV PERIMETRAL NORTE (COND TROPICALE RES BRISA)    03        AP 108 LEBLON                                     JARDIM NOVA ESPERANCA    GOIANIA                GO74465330                                                                                          EMPRESARIO                    AV GOIAS                                                4302QD 38 LT 21                                       SETOR CRIMEIA OESTE      GOIANIA                GO74563220                            NPE                                          2023022320520413                                                                                                                                                                                                                                                                       MS0559987550                  000000000000000000        00000000R62991665327         991665327           966000012           FERNANDOALEXSOUSA@HOTMAIL.COM                               
1012024112715       038720004209                  175875810300   CELIA EVANGELISTA DE SOUZA                   19641213                                                                                                                                                                                                                                                                                                                                                                                                                                       TV JALISCO                                        110                                                         PARQUE SANTA MARIA       FORTALEZA              CE60873080                                                                                          OUTRAS                        TV JALISCO                                               110                                                  PARQUE SANTA MARIA       FORTALEZA              CE60873080                            NPE                                          2024022320520413                                                                                                                                                                                                                                                                       FC9500237765                  000000000000000000        00000000R                    996264115           85987499273         FRANCISCOJOCENIO6@GMAIL.COM                                 
1012024112715       211900039183                  113520209713   RANY KELLY ROELLA GARCIA                     19941226                                                                                                                                                                                                                                                                                                                                                                                                                                       R POCRANE                                         595       CASA 18                                           VL NASSER                CAMPO GRANDE           MS79117463                    FARMA FORMULA FARMACIA                                                GERENTE - TODAS               R GENERAL ARISTIDES GUARANA                             1044A                                                 CENTRO                   ARACRUZ                ES291900502732560611                  NPE                                          2024100320520413                                                                                                                                                                                                                                                                       FS0776394618                  000000000000000000        00000000R27999038473         999038473           27988726075         RANYKELLYGARCIA@HOTMAIL.COM                                 
1012024112715       026980004104                  196453273853   SEBASTIAO PEREIRA                            19490416                                                                                                                                                                                                                                                                                                                                                                                                                                       RUA MARIA L M C CEZARIM                           40                                                          VIT CEZARINO             RIO DAS PEDRAS         SP13390000                                                                                          APOSENTADO                                                                                                                                                                                                                        NPE                                          2022110520520413                                                                                                                                                                                                                                                                       MS73794624                    000000000000000000        00000000R992691664           1934935345          1934935345          SZPINTURAS@GMAIL.COM                                        
1012024112715       030120103452                  113101973775   LUISA  PERISSE                               19880604                                                                                                                                                                                                                                                                                                                                                                                                                                       RUA MARQUES DE VALENCA                            34                                                          TIJUCA                   RIO DE JANEIRO         RJ20550030                                                                                          EMPRESARIO                    RUA MARQUES DE VALENCA                                    34                                                  TIJUCA                   RIO DE JANEIRO         RJ20550030                            NPE                                          2024030420520413                                                                                                                                                                                                                                                                       MS                            000000000000000000        00000000R                    988479809           976769373           LUÍSA.PERISSE@OUTLOOK.COM                                   
1012024112715       038710001588                  116741936882   MILCA JOCELI DE PAULA SILVA                  19761204                                                                                                                                                                                                                                                                                                                                                                                                                                       R JOSE LAMBERTI                                   580                                                         JD STO ANDRE             SOROCABA               SP18077301                                                                                          EMPRESARIO                    R JOSE LAMBERTI                                          580                                                  JD STO ANDRE             SOROCABA               SP18077301                            NPE                                          2023091920520413                                                                                                                                                                                                                                                                       FO271389424                   000000000000000000        00000000R15996850598         998407686           32262223            MILCADEPAULA1976@GMAIL.COM                                  
1012024112715       038720001637                  105147618147   IGOR DA SILVA OLIVEIRA                       19921207                                                                                                                                                                                                                                                                                                                                                                                                                                       Q QUADRA                                          43                                                          SOBRADINHO               BRASILIA               DF73040134                                                                                          EMPRESARIO                                                                                                                                                                                            1133666000                  NPE                                          2023012320520413                                                                                                                                                                                                                                                                       MS0513646132                  000000000000000000        00000000R992739162           993957290           991505631           IGOR.3X@HOTMAIL.COM                                         
1012024112715       049220000058                  140940414000115DIMITRIA S DA SILVA 1542393272                                                                                                                                                                                                                                                                                                                                                                                                                                                              EST CHAGAS FREITAS                                3243                                                        COL STO ANTONIO          BARRA MANSA            RJ27353000                                                                                                                        EST CHAGAS FREITAS                                      3243                                                  COL STO ANTONIO          BARRA MANSA            RJ27353000                            NPE                                          2023122620520413                                                                                                                                                                                                                                                                        O                            000000000000000000        00000000R                    981252176           981252176           DIMI.STORNELLI@GMAIL.COM                                    
1012024112715       038720004361                  103761365969   CRISTIANE KUCZARSKI SMANGORZEWSKI            19821130                                                                                                                                                                                                                                                                                                                                                                                                                                       R ARCO-IRIS                                       627                                                         IRIRIU                   JOINVILLE              SC89227130                                                                                                                        R ALBANO SCHMIDT                                        1016                                                  B VISTA                  JOINVILLE              SC89205101                            NPE                                          2024032220520413                                                                                                                                                                                                                                                                       FO6956196                     000000000000000000        00000000R999749140           47984597869         47984597869         GUISMANGOR@GMAIL.COM                                        
1012024112715       030120039418                  115304364783   BRENDON GUIMARAES DE SOUZA                   19930810                                                                                                                                                                                                                                                                                                                                                                                                                                       R QUINTELA                                        19                                                          KENNEDY                  NOVA IGUACU            RJ26021100                                                                                                                                                                                                                                                                                                                            NPE                                          2023013020520319                                                                                                                                                                                                                                                                       MO0709592748                  000000000000000000        00000000R21983024728         983024728           983024728           BRENDOON.GUIMARAES@GMAIL.COM                                
1012024112715       033030000062                  135925771826   DANIELA XIMENES DE MELO OLIVEIRA             19870405                                                                                                                                                                                                                                                                                                                                                                                                                                       R CAPITAO LAZARO                                  26        CASA 3                                            VILA ISOLINA MAZZEI      SAO PAULO              SP02084060                    WANFER LOCACAO E COMECIO                                              GERENTE - TODAS               R SALVADOR ROMEU                                         187CASA                                              VILA ISOLINA MAZZEI      SAO PAULO              SP02081000                            NPE                                          2023122620520413                                                                                                                                                                                                                                                                       FS438539185                   000000000000000000        00000000R11958090306         997409499           1120990002          DANIELAXIMENESDX@OUTLOOK.COM                                
10120241127Q5       026980004104                  19996757089                 CELULAR                       
10120241127Q5       026980004104                  19998677197                 CELULAR                       
10120241127Q5       026980004104                  19999429415                 CELULAR                       
10120241127Q5       030120035377                  965678525                   OUTROS                        
10120241127Q5       030120039418                  983024728                   OUTROS                        
10120241127Q5       030120103452                  988479809                   OUTROS                        
10120241127Q5       033030000062                  11997409499                 OUTROS                        
10120241127Q5       033030000062                  958090306                   OUTROS                        
10120241127Q5       038720004209                  85987499273                 OUTROS                        
10120241127Q5       038720004209                  989650821                   OUTROS                        
10120241127Q5       038720004816                  996050696                   CELULAR                       
10120241127Q5       049220000058                  981252176                   OUTROS                        
10120241127Q5       211570015616                  75988744596                 OUTROS                        
10120241127Q5       026090003242                  32219382                    OUTROS                        
10120241127Q5       026980004104                  1934935345                  OUTROS                        
10120241127Q5       026980004104                  999429415                   OUTROS                        
10120241127Q5       030120039418                  21983024728         0       CELULAR                       
10120241127Q5       036750000253                  62991665327                 CELULAR                       
10120241127Q5       036750000253                  966000012                   OUTROS                        
10120241127Q5       038710001588                  15996850598         0       CELULAR                       
10120241127Q5       038710001588                  997843231                   OUTROS                        
10120241127Q5       038720001637                  984062330                   CELULAR                       
10120241127Q5       038720004209                  981540208                   OUTROS                        
10120241127Q5       038720004361                  47984597869                 OUTROS                        
10120241127Q5       211570015616                  75982434077                 CELULAR                       
10120241127Q5       026980004104                  19999052003                 CELULAR                       
10120241127Q5       026980004104                  998677197                   OUTROS                        
10120241127Q5       027560010789                  12991429441                 CELULAR                       
10120241127Q5       030120035377                  21965678525                 CELULAR                       
10120241127Q5       033030000062                  1140045215                  RECADO                        
10120241127Q5       033030000062                  11958090306                 CELULAR                       
10120241127Q5       038710001588                  997058140                   OUTROS                        
10120241127Q5       038720001637                  61991705625                 CELULAR                       
10120241127Q5       038720001637                  991705625                   OUTROS                        
10120241127Q5       038720001637                  993957290                   OUTROS                        
10120241127Q5       038720004361                  999749140                   CELULAR                       
10120241127Q5       038720004816                  981709693                   OUTROS                        
10120241127Q5       211570015616                  988744596                   OUTROS                        
10120241127Q5       211900039183                  27999038473                 CELULAR                       
10120241127Q5       211900039183                  93984378068                 OUTROS                        
10120241127Q5       026980004104                  19996068396                 CELULAR                       
10120241127Q5       026980004104                  992691664                   CELULAR                       
10120241127Q5       030120035377                  976884691                   OUTROS                        
10120241127Q5       033030000062                  20990002                    OUTROS                        
10120241127Q5       038710001588                  15997140944                 CELULAR                       
10120241127Q5       038710001588                  32262223                    OUTROS                        
10120241127Q5       038710001588                  996850598                   OUTROS                        
10120241127Q5       038710001588                  997171980                   OUTROS                        
10120241127Q5       038720004209                  987499273                   OUTROS                        
10120241127Q5       038720004361                  47991017662                 OUTROS                        
10120241127Q5       038720004361                  991017662                   OUTROS                        
10120241127Q5       038720004361                  996475006                   OUTROS                        
10120241127Q5       038720004816                  1140045215                  RECADO                        
10120241127Q5       038720004816                  51981928217                 RECADO                        
10120241127Q5       049220000058                  24981252176                 RECADO                        
10120241127Q5       211570015616                  1140045215                  COMERCIAL                     
10120241127Q5       211900039183                  2732560611                  COMERCIAL                     
10120241127Q5       211900039183                  999038473                   OUTROS                        
10120241127Q5       026090003242                  991351122                   OUTROS                        
10120241127Q5       026980004104                  19998083102                 CELULAR                       
10120241127Q5       030120035377                  21976884691                 CELULAR                       
10120241127Q5       030120103452                  976769373                   OUTROS                        
10120241127Q5       030120103452                  979438605                   OUTROS                        
10120241127Q5       030120103452                  980905150                   OUTROS                        
10120241127Q5       038710001588                  15997058140         0       CELULAR                       
10120241127Q5       038710001588                  15997171980         0       CELULAR                       
10120241127Q5       038710001588                  997892075                   OUTROS                        
10120241127Q5       038710001588                  998407686                   OUTROS                        
10120241127Q5       038720001637                  992739162                   CELULAR                       
10120241127Q5       038720004361                  988952665                   OUTROS                        
10120241127Q5       038720004361                  999739280                   OUTROS                        
10120241127Q5       038720004816                  989062274                   CELULAR                       
10120241127Q5       038720004816                  994329077                   CELULAR                       
10120241127Q5       211900039183                  27988726075                 OUTROS                        
10120241127Q5       211900039183                  27999753431                 OUTROS                        
10120241127Q5       026980004104                  19997541676                 CELULAR                       
10120241127Q5       026980004104                  996228192                   OUTROS                        
10120241127Q5       026980004104                  997541676                   OUTROS                        
10120241127Q5       027560010789                  12991796326                 CELULAR                       
10120241127Q5       027560010789                  36743674                    OUTROS                        
10120241127Q5       027560010789                  61981836874                 OUTROS                        
10120241127Q5       027560010789                  991429441                   OUTROS                        
10120241127Q5       030120039418                  1140404409                  CLIENTE                       
10120241127Q5       030120103452                  21980905150                 RECADO                        
10120241127Q5       033030000062                  1120990002                  OUTROS                        
10120241127Q5       038710001588                  15997843231         0       CELULAR                       
10120241127Q5       038710001588                  996887769                   OUTROS                        
10120241127Q5       038720001637                  1133666000                  COMERCIAL                     
10120241127Q5       038720004209                  85981540208                 RECADO                        
10120241127Q5       038720004209                  996264115                   OUTROS                        
10120241127Q5       038720004361                  47988952665                 CELULAR                       
10120241127Q5       038720004816                  981708693                   OUTROS                        
10120241127Q5       211570015616                  988182073                   OUTROS                        
10120241127Q5       211900039183                  27988847276                 OUTROS                        
10120241127Q5       026090003242                  8232219382                  COMERCIAL                     
10120241127Q5       026980004104                  19996193965                 CELULAR                       
10120241127Q5       026980004104                  19996228192         0       CELULAR                       
10120241127Q5       027560010789                  1236743674                  COMERCIAL                     
10120241127Q5       030120035377                  1140045215                  COMERCIAL                     
10120241127Q5       030120035377                  21988033286                 CELULAR                       
10120241127Q5       030120103452                  985055592                   OUTROS                        
10120241127Q5       030120103452                  986477725                   OUTROS                        
10120241127Q5       038710001588                  15997892075         0       CELULAR                       
10120241127Q5       038710001588                  997140944                   OUTROS                        
10120241127Q5       038720004361                  47999739280                 OUTROS                        
10120241127Q5       038720004816                  981346625                   CELULAR                       
10120241127Q5       038720004816                  998445722                   CELULAR                       
10120241127Q5       026090003242                  82991351122                 CELULAR                       
10120241127Q5       030120035377                  988033286                   OUTROS                        
10120241127Q5       030120035377                  988858807                   OUTROS                        
10120241127Q5       033030000062                  997409499                   OUTROS                        
10120241127Q5       036750000253                  991665327                   OUTROS                        
10120241127Q5       038710001588                  15996887769                 CELULAR                       
10120241127Q5       038710001588                  15998407686         0       CELULAR                       
10120241127Q5       038720001637                  991505631                   OUTROS                        
10120241127Q5       038720004361                  984597869                   OUTROS                        
10120241127Q5       038720004361                  984912748                   OUTROS                        
10120241127Q5       211570015616                  75988182073                 CELULAR                       
10120241127Q5       211570015616                  982434077                   OUTROS                        
10120241127Q5       211570015616                  988636439                   OUTROS                        
1012024112725       036750000253                  ESPF    036750000253                  03675   FGA AUTOMOVEIS                                                                                    02280   CORRESPONDENTE GOIAS                         00000000030630940000000000000000000020230123048         1                                                                                                                                                                                                                                                                                                                                                                                                                                                                                                                                                                                                            000000000000026787                                                                                                 
1012024112725       038720004361                  FSEG    038720004361                  03872   NOVACAO COBRANC                                                                                   03872   NOVACAO COBRANCA CON                         00000000046818880000000000000000000020240221048         1                                                                                                                                                                                                                                                                                                                                                                                                                                                                                                                                                                                                            000000000000012400                                                                                                 
1012024112725       027560010789                  FCDC    027560010789                  02756   CORRESPONDENTE                                                                                    02756   CORRESPONDENTE TAUBA                         00000000034218550000000000000000000020220905024         1                                                                                                                                                                                                                                                                                                                                                                                                                                                                                                                                                                                                            000000000000016783                                                                                                 
1012024112725       053460001167                  REFF    053460001167                  05346   CORRESP. PERNAM                                                                                   05346   CORRESP. PERNAMBUCO                          00000000043402470000000000000000000020240517036         3                                                                                                                                                                                                                                                                                                                                                                                                                                                                                                                                                                                                            000000000000027549                                                                                                 
1012024112725       030120039418                  PARF    030120039418                  03012   CORRESPONDENTE                                                                                    03012   CORRESPONDENTE RIO D                         00000000008690550000000000000000000020201028048         1                                                                                                                                                                                                                                                                                                                                                                                                                                                                                                                                                                                                            000000000000022949                                                                                                 
1012024112725       034960004298                  FCDC    034960004298                  03496   CORRESPONDENTE                                                                                    03496   CORRESPONDENTE PENHA                         00000000023587190000000000000000000020220516036         3                                                                                                                                                                                                                                                                                                                                                                                                                                                                                                                                                                                                            000000000000014600                                                                                                 
1012024112725       211570015616                  PARF    211570015616                  21157   CORRESPONDENTE                                                                                    21157   CORRESPONDENTE BAHIA                         00000000013690160000000000000000000020210917048         1                                                                                                                                                                                                                                                                                                                                                                                                                                                                                                                                                                                                            000000000000022038                                                                                                 
1012024112725       026980004104                  PARF    026980004104                  02698   CORRESPONDENTE                                                                                    02698   CORRESPONDENTE PIRAC                         00000000008156060000000000000000000020200520060         1                                                                                                                                                                                                                                                                                                                                                                                                                                                                                                                                                                                                            000000000000017500                                                                                                 
1012024112725       026730016473                  PARF    026730016473                  02673   CORRESPONDENTE                                                                                    02673   CORRESPONDENTE - MIN                         00000000003575540000000000000000000020200821060         3                                                                                                                                                                                                                                                                                                                                                                                                                                                                                                                                                                                                            000000000000021096                                                                                                 
1012024112725       038720004572                  FSEG    038720004572                  03872   NOVACAO COBRANC                                                                                   03872   NOVACAO COBRANCA CON                         00000000019768580000000000000000000020240326035         3                                                                                                                                                                                                                                                                                                                                                                                                                                                                                                                                                                                                            000000000000024600                                                                                                 
1012024112725       211900039183                  PARF    211900039183                  21190   CORRESPONDENTE                                                                                    21190   CORRESPONDENTE ESPIR                         00000000043081450000000000000000000020220823048         1                                                                                                                                                                                                                                                                                                                                                                                                                                                                                                                                                                                                            000000000000022408                                                                                                 
1012024112725       038710001588                  FSEG    038710001588                  03871   NOVACAO COBRANC                                                                                   03871   NOVACAO COBRANCA  AM                         00000000067000660000000000000000000020230817023         1                                                                                                                                                                                                                                                                                                                                                                                                                                                                                                                                                                                                            000000000000025800                                                                                                 
1012024112725       038720004816                  FSEG    038720004816                  03872   NOVACAO COBRANC                                                                                   03872   NOVACAO COBRANCA CON                         00000000018546070000000000000000000020240617045         1                                                                                                                                                                                                                                                                                                                                                                                                                                                                                                                                                                                                            000000000000018000                                                                                                 
1012024112725       030120035377                  PARF    030120035377                  03012   CORRESPONDENTE                                                                                    03012   CORRESPONDENTE RIO D                         00000000012706300000000000000000000020200917060         1                                                                                                                                                                                                                                                                                                                                                                                                                                                                                                                                                                                                            000000000000019583                                                                                                 
1012024112725       049220000296                  REFF    049220000296                  04922   CORRESP. - R.J.                                                                                   04922   CORRESP. - R.J. INTE                         00000000076678300000000000000000000020240130036         3                                                                                                                                                                                                                                                                                                                                                                                                                                                                                                                                                                                                            000000000000021248                                                                                                 
1012024112725       026090003242                  PARF    026090003242                  02609   CORRESPONDENTE                                                                                    02609   CORRESPONDENTE  ALAG                         00000000003865640000000000000000000020200720048         1                                                                                                                                                                                                                                                                                                                                                                                                                                                                                                                                                                                                            000000000000017267                                                                                                 
1012024112725       033030000062                  ESPF    033030000062                  03303   ZANELI COMERCIO                                                                                   03590   REGIONAL SAO PAULO                           00000000023838230000000000000000000020220922048         1                                                                                                                                                                                                                                                                                                                                                                                                                                                                                                                                                                                                            000000000000023732                                                                                                 
1012024112725       030120103452                  REFF    030120103452                  03012   CORRESPONDENTE                                                                                    03012   CORRESPONDENTE RIO D                         00000000008695410000000000000000000020231222012         1                                                                                                                                                                                                                                                                                                                                                                                                                                                                                                                                                                                                            000000000000042643                                                                                                 
1012024112725       038720001637                  FSEG    038720001637                  03872   NOVACAO COBRANC                                                                                   03872   NOVACAO COBRANCA CON                         00000000053616030000000000000000000020221222060         1                                                                                                                                                                                                                                                                                                                                                                                                                                                                                                                                                                                                            000000000000011000                                                                                                 
1012024112725       211570021753                  REFF    211570021753                  21157   CORRESPONDENTE                                                                                    21157   CORRESPONDENTE BAHIA                         00000000014852910000000000000000000020230117024         3                                                                                                                                                                                                                                                                                                                                                                                                                                                                                                                                                                                                            000000000000024370                                                                                                 
1012024112725       049220000058                  PARJ    049220000058                  04922   CORRESP. - R.J.                                                                                   04922   CORRESP. - R.J. INTE                         00000000017368210000000000000000000020230822024         1                                                                                                                                                                                                                                                                                                                                                                                                                                                                                                                                                                                                            000000000000022700                                                                                                 
1012024112725       038720004209                  FSEG    038720004209                  03872   NOVACAO COBRANC                                                                                   03872   NOVACAO COBRANCA CON                         00000000033702960000000000000000000020240122054         1                                                                                                                                                                                                                                                                                                                                                                                                                                                                                                                                                                                                            000000000000020400                                                                                                 
1012024112735       000830037271                  REFF    000830037271                  2024011600000010        20240930000000000009436100000000000000000000000000000000000000000000000000000000000000000005486400   024   7                            C20240116                      
1012024112735       005400006969                  PARF    005400006969                  2024081600000040                000000000011399700000000000000000000000000000000000000000000000000000000000000000000000000   048   1                             20240816                      
1012024112735       005400006969                  PARF    005400006969                  2024091600000041                000000000011399700000000000000000000000000000000000000000000000000000000000000000000000000   048   1                             20240916                      
1012024112735       005400006969                  PARF    005400006969                  2024101600000042                000000000011399700000000000000000000000000000000000000000000000000000000000000000000000000   048   1                             20241016                      
1012024112735       021130018470                  REFF    021130018470                  2023042800000012        20240401000000000021415600000000000000000000000000000000000000000000000000000000000000000005391900   048   7                            C20230428                      
1012024112735       023620034835                  PARF    023620034835                  2024082200000023                000000000011252900000000000000000000000000000000000000000000000000000000000000000000000000   024   1                             20240822                      
1012024112735       023620034835                  PARF    023620034835                  2024092200000024                000000000011252900000000000000000000000000000000000000000000000000000000000000000000000000   024   1                             20240922                      
1012024112735       025850000471                  ESPF    025850000471                  2021012500000033        20231228000000000008651800000000000000000000000000000000000000000000000000000000000000000001854500   036   7                            C20210125                      
1012024112735       025950064913                  REFF    025950064913                  2024080200000022        20230710000000000006077300000000000000000000000000000000000000000000000000000000000000000002138200   048   7                            C20240802                      
1012024112735       026090003242                  PARF    026090003242                  2024071900000048                000000000004494900000000000000000000000000000000000000000000000000000000000000000000000000   048   1                             20240719                      
1012024112735       026980004104                  PARF    026980004104                  2024091900000052                000000000005676000000000000000000000000000000000000000000000000000000000000000000000000000   060   1                             20240919                      
1012024112735       026980004104                  PARF    026980004104                  2024101900000053                000000000005676000000000000000000000000000000000000000000000000000000000000000000000000000   060   1                             20241019                      
1012024112735       026980004104                  PARF    026980004104                  2024111900000054                000000000005676000000000000000000000000000000000000000000000000000000000000000000000000000   060   1                             20241119                      
1012024112735       026980004104                  PARF    026980004104                  2024121900000055                000000000005676000000000000000000000000000000000000000000000000000000000000000000000000000   060   1                             20241219                      
1012024112735       026980004104                  PARF    026980004104                  2025011900000056                000000000005676000000000000000000000000000000000000000000000000000000000000000000000000000   060   1                             20250119                      
1012024112735       026980004104                  PARF    026980004104                  2025021900000057                000000000005676000000000000000000000000000000000000000000000000000000000000000000000000000   060   1                             20250219                      
1012024112735       026980004104                  PARF    026980004104                  2025031900000058                000000000005676000000000000000000000000000000000000000000000000000000000000000000000000000   060   1                             20250319                      
1012024112735       026980004104                  PARF    026980004104                  2025041900000059                000000000005676000000000000000000000000000000000000000000000000000000000000000000000000000   060   1                             20250419                      
1012024112735       026980004104                  PARF    026980004104                  2025051900000060                000000000005676000000000000000000000000000000000000000000000000000000000000000000000000000   060   1                             20250519                      
1012024112735       027120020365                  PARF    027120020365                  2024030400000031        20240624000000000010531000000000000000000000000000000000000000000000000000000000000000000005873000   048   7                            C20240304                      
1012024112735       027320008129                  PARF    027320008129                  2023081100000024        20240930000000000027578600000000000000000000000000000000000000000000000000000000000000000010212200   048   7                            C20230811                      
1012024112735       027560010789                  FCDC    027560010789                  2024020500000017                000000000021679800000000000023642400000000000000570900000000000000433600000000000000000000   024   1                             20240205                      
1012024112735       027560010789                  FCDC    027560010789                  2024030500000018                000000000021679800000000000023081100000000000000361300000000000000433600000000000000000000   024   1                             20240305                      
1012024112735       027560010789                  FCDC    027560010789                  2024040500000019                000000000021679800000000000022481100000000000000137300000000000000433600000000000000000000   024   1                             20240405                      
1012024112735       027560010789                  FCDC    027560010789                  2024050500000020                000000000021679800000000000021549600000000000000000000000000000000000000000000000000000000   024   1                             20240505                      
1012024112735       027560010789                  FCDC    027560010789                  2024060500000021                000000000021679800000000000021186900000000000000000000000000000000000000000000000000000000   024   1                             20240605                      
1012024112735       027560010789                  FCDC    027560010789                  2024070500000022                000000000021679800000000000020841700000000000000000000000000000000000000000000000000000000   024   1                             20240705                      
1012024112735       027560010789                  FCDC    027560010789                  2024080500000023                000000000021679800000000000020490900000000000000000000000000000000000000000000000000000000   024   1                             20240805                      
1012024112735       027560010789                  FCDC    027560010789                  2024090500000024                000000000021679800000000000020146000000000000000000000000000000000000000000000000000000000   024   1                             20240905                      
1012024112735       030120035377                  PARF    030120035377                  2024091700000048                000000000008535400000000000000000000000000000000000000000000000000000000000000000000000000   060   1                             20240917                      
1012024112735       030120035377                  PARF    030120035377                  2024101700000049                000000000008535400000000000000000000000000000000000000000000000000000000000000000000000000   060   1                             20241017                      
1012024112735       030120035377                  PARF    030120035377                  2024111700000050                000000000008535400000000000000000000000000000000000000000000000000000000000000000000000000   060   1                             20241117                      
1012024112735       030120035377                  PARF    030120035377                  2024121700000051                000000000008535400000000000000000000000000000000000000000000000000000000000000000000000000   060   1                             20241217                      
1012024112735       030120035377                  PARF    030120035377                  2025011700000052                000000000008535400000000000000000000000000000000000000000000000000000000000000000000000000   060   1                             20250117                      
1012024112735       030120035377                  PARF    030120035377                  2025021700000053                000000000008535400000000000000000000000000000000000000000000000000000000000000000000000000   060   1                             20250217                      
1012024112735       030120035377                  PARF    030120035377                  2025031700000054                000000000008535400000000000000000000000000000000000000000000000000000000000000000000000000   060   1                             20250317                      
1012024112735       030120035377                  PARF    030120035377                  2025041700000055                000000000008535400000000000000000000000000000000000000000000000000000000000000000000000000   060   1                             20250417                      
1012024112735       030120035377                  PARF    030120035377                  2025051700000056                000000000008535400000000000000000000000000000000000000000000000000000000000000000000000000   060   1                             20250517                      
1012024112735       030120035377                  PARF    030120035377                  2025061700000057                000000000008535400000000000000000000000000000000000000000000000000000000000000000000000000   060   1                             20250617                      
1012024112735       030120035377                  PARF    030120035377                  2025071700000058                000000000008535400000000000000000000000000000000000000000000000000000000000000000000000000   060   1                             20250717                      
1012024112735       030120035377                  PARF    030120035377                  2025081700000059                000000000008535400000000000000000000000000000000000000000000000000000000000000000000000000   060   1                             20250817                      
1012024112735       030120035377                  PARF    030120035377                  2025091700000060                000000000008535400000000000000000000000000000000000000000000000000000000000000000000000000   060   1                             20250917                      
1012024112735       030120039418                  PARF    030120039418                  2023022800000028                000000000009155600000000000000000000000000000000000000000000000000000000000000000000000000   048   1                             20230228                      
1012024112735       030120039418                  PARF    030120039418                  2023032800000029                000000000009155600000000000000000000000000000000000000000000000000000000000000000000000000   048   1                             20230328                      
1012024112735       030120039418                  PARF    030120039418                  2023042800000030                000000000009155600000000000000000000000000000000000000000000000000000000000000000000000000   048   1                             20230428                      
1012024112735       030120039418                  PARF    030120039418                  2023052800000031                000000000009155600000000000000000000000000000000000000000000000000000000000000000000000000   048   1                             20230528                      
1012024112735       030120039418                  PARF    030120039418                  2023062800000032                000000000009155600000000000000000000000000000000000000000000000000000000000000000000000000   048   1                             20230628                      
1012024112735       030120039418                  PARF    030120039418                  2023072800000033                000000000009155600000000000000000000000000000000000000000000000000000000000000000000000000   048   1                             20230728                      
1012024112735       030120039418                  PARF    030120039418                  2023082800000034                000000000009155600000000000000000000000000000000000000000000000000000000000000000000000000   048   1                             20230828                      
1012024112735       030120039418                  PARF    030120039418                  2023092800000035                000000000009155600000000000000000000000000000000000000000000000000000000000000000000000000   048   1                             20230928                      
1012024112735       030120039418                  PARF    030120039418                  2023102800000036                000000000009155600000000000000000000000000000000000000000000000000000000000000000000000000   048   1                             20231028                      
1012024112735       030120039418                  PARF    030120039418                  2023112800000037                000000000009155600000000000000000000000000000000000000000000000000000000000000000000000000   048   1                             20231128                      
1012024112735       030120039418                  PARF    030120039418                  2023122800000038                000000000009155600000000000000000000000000000000000000000000000000000000000000000000000000   048   1                             20231228                      
1012024112735       030120039418                  PARF    030120039418                  2024012800000039                000000000009155600000000000000000000000000000000000000000000000000000000000000000000000000   048   1                             20240128                      
1012024112735       030120039418                  PARF    030120039418                  2024022800000040                000000000009155600000000000000000000000000000000000000000000000000000000000000000000000000   048   1                             20240228                      
1012024112735       030120039418                  PARF    030120039418                  2024032800000041                000000000009155600000000000000000000000000000000000000000000000000000000000000000000000000   048   1                             20240328                      
1012024112735       030120039418                  PARF    030120039418                  2024042800000042                000000000009155600000000000000000000000000000000000000000000000000000000000000000000000000   048   1                             20240428                      
1012024112735       030120039418                  PARF    030120039418                  2024052800000043                000000000009155600000000000000000000000000000000000000000000000000000000000000000000000000   048   1                             20240528                      
1012024112735       030120039418                  PARF    030120039418                  2024062800000044                000000000009155600000000000000000000000000000000000000000000000000000000000000000000000000   048   1                             20240628                      
1012024112735       030120039418                  PARF    030120039418                  2024072800000045                000000000009155600000000000000000000000000000000000000000000000000000000000000000000000000   048   1                             20240728                      
1012024112735       030120039418                  PARF    030120039418                  2024082800000046                000000000009155600000000000000000000000000000000000000000000000000000000000000000000000000   048   1                             20240828                      
1012024112735       030120039418                  PARF    030120039418                  2024092800000047                000000000009155600000000000000000000000000000000000000000000000000000000000000000000000000   048   1                             20240928                      
1012024112735       030120039418                  PARF    030120039418                  2024102800000048                000000000009155600000000000000000000000000000000000000000000000000000000000000000000000000   048   1                             20241028                      
1012024112735       030120044096                  FCDC    030120044096                  2024031400000039        20240625000000000013903200000000000000000000000000000000000000000000000000000000000000000012339500   048   7                            C20240314                      
1012024112735       030120047667                  PARF    030120047667                  2023073000000030                000000000009841100000000000000000000000000000000000000000000000000000000000000000000000000   000   1                             20230730                      
1012024112735       030120047667                  PARF    030120047667                  2023083000000031                000000000009841100000000000000000000000000000000000000000000000000000000000000000000000000   000   1                             20230830                      
1012024112735       030120047667                  PARF    030120047667                  2023093000000032                000000000009841100000000000000000000000000000000000000000000000000000000000000000000000000   000   1                             20230930                      
1012024112735       030120047667                  PARF    030120047667                  2023103000000033                000000000009841100000000000000000000000000000000000000000000000000000000000000000000000000   000   1                             20231030                      
1012024112735       030120047667                  PARF    030120047667                  2023113000000034                000000000009841100000000000000000000000000000000000000000000000000000000000000000000000000   000   1                             20231130                      
1012024112735       030120047667                  PARF    030120047667                  2023123000000035                000000000009841100000000000000000000000000000000000000000000000000000000000000000000000000   000   1                             20231230                      
1012024112735       030120047667                  PARF    030120047667                  2024013000000036                000000000009841100000000000000000000000000000000000000000000000000000000000000000000000000   000   1                             20240130                      
1012024112735       030120047667                  PARF    030120047667                  2024022800000037                000000000009841100000000000000000000000000000000000000000000000000000000000000000000000000   000   1                             20240228                      
1012024112735       030120047667                  PARF    030120047667                  2024033000000038                000000000009841100000000000000000000000000000000000000000000000000000000000000000000000000   000   1                             20240330                      
1012024112735       030120047667                  PARF    030120047667                  2024043000000039                000000000009841100000000000000000000000000000000000000000000000000000000000000000000000000   000   1                             20240430                      
1012024112735       030120047667                  PARF    030120047667                  2024053000000040                000000000009841100000000000000000000000000000000000000000000000000000000000000000000000000   000   1                             20240530                      
1012024112735       030120047667                  PARF    030120047667                  2024063000000041                000000000009841100000000000000000000000000000000000000000000000000000000000000000000000000   000   1                             20240630                      
1012024112735       030120047667                  PARF    030120047667                  2024073000000042                000000000009841100000000000000000000000000000000000000000000000000000000000000000000000000   000   1                             20240730                      
1012024112735       030120047667                  PARF    030120047667                  2024083000000043                000000000009841100000000000000000000000000000000000000000000000000000000000000000000000000   000   1                             20240830                      
1012024112735       030120047667                  PARF    030120047667                  2024093000000044                000000000009841100000000000000000000000000000000000000000000000000000000000000000000000000   000   1                             20240930                      
1012024112735       030120047667                  PARF    030120047667                  2024103000000045                000000000009841100000000000000000000000000000000000000000000000000000000000000000000000000   000   1                             20241030                      
1012024112735       030120047667                  PARF    030120047667                  2024113000000046                000000000009841100000000000000000000000000000000000000000000000000000000000000000000000000   000   1                             20241130                      
1012024112735       030120047667                  PARF    030120047667                  2024123000000047                000000000009841100000000000000000000000000000000000000000000000000000000000000000000000000   000   1                             20241230                      
1012024112735       030120047667                  PARF    030120047667                  2025013000000048                000000000009841100000000000000000000000000000000000000000000000000000000000000000000000000   000   1                             20250130                      
1012024112735       030120054118                  PARF    030120054118                  2024110600000043        20240930000000000012978300000000000000000000000000000000000000000000000000000000000000000000675400   060   7                            C20241106                      
1012024112735       030120103452                  REFF    030120103452                  2024092200000009                000000000011805300000000000000000000000000000000000000000000000000000000000000000000000000   012   1                             20240922                      
1012024112735       030120103452                  REFF    030120103452                  2024102200000010                000000000011805300000000000000000000000000000000000000000000000000000000000000000000000000   012   1                             20241022                      
1012024112735       030120103452                  REFF    030120103452                  2024112200000011                000000000011805300000000000000000000000000000000000000000000000000000000000000000000000000   012   1                             20241122                      
1012024112735       030120103452                  REFF    030120103452                  2024122200000012                000000000011805300000000000000000000000000000000000000000000000000000000000000000000000000   012   1                             20241222                      
1012024112735       032710000421                  ESPF    032710000421                  2024101100000041        20240729000000000010389300000000000000000000000000000000000000000000000000000000000000000002030300   060   7                            C20241011                      
1012024112735       033030000062                  ESPF    033030000062                  2024092200000024                000000000014930800000000000000000000000000000000000000000000000000000000000000000000000000   048   1                             20240922                      
1012024112735       033030000062                  ESPF    033030000062                  2024102200000025                000000000014930800000000000000000000000000000000000000000000000000000000000000000000000000   048   1                             20241022                      
1012024112735       033030000062                  ESPF    033030000062                  2024112200000026                000000000014930800000000000000000000000000000000000000000000000000000000000000000000000000   048   1                             20241122                      
1012024112735       033030000062                  ESPF    033030000062                  2024122200000027                000000000014930800000000000000000000000000000000000000000000000000000000000000000000000000   048   1                             20241222                      
1012024112735       033030000062                  ESPF    033030000062                  2025012200000028                000000000014930800000000000000000000000000000000000000000000000000000000000000000000000000   048   1                             20250122                      
1012024112735       033030000062                  ESPF    033030000062                  2025022200000029                000000000014930800000000000000000000000000000000000000000000000000000000000000000000000000   048   1                             20250222                      
1012024112735       033030000062                  ESPF    033030000062                  2025032200000030                000000000014930800000000000000000000000000000000000000000000000000000000000000000000000000   048   1                             20250322                      
1012024112735       033030000062                  ESPF    033030000062                  2025042200000031                000000000014930800000000000000000000000000000000000000000000000000000000000000000000000000   048   1                             20250422                      
1012024112735       033030000062                  ESPF    033030000062                  2025052200000032                000000000014930800000000000000000000000000000000000000000000000000000000000000000000000000   048   1                             20250522                      
1012024112735       033030000062                  ESPF    033030000062                  2025062200000033                000000000014930800000000000000000000000000000000000000000000000000000000000000000000000000   048   1                             20250622                      
1012024112735       033030000062                  ESPF    033030000062                  2025072200000034                000000000014930800000000000000000000000000000000000000000000000000000000000000000000000000   048   1                             20250722                      
1012024112735       033030000062                  ESPF    033030000062                  2025082200000035                000000000014930800000000000000000000000000000000000000000000000000000000000000000000000000   048   1                             20250822                      
1012024112735       033030000062                  ESPF    033030000062                  2025092200000036                000000000014930800000000000000000000000000000000000000000000000000000000000000000000000000   048   1                             20250922                      
1012024112735       033030000062                  ESPF    033030000062                  2025102200000037                000000000014930800000000000000000000000000000000000000000000000000000000000000000000000000   048   1                             20251022                      
1012024112735       033030000062                  ESPF    033030000062                  2025112200000038                000000000014930800000000000000000000000000000000000000000000000000000000000000000000000000   048   1                             20251122                      
1012024112735       033030000062                  ESPF    033030000062                  2025122200000039                000000000014930800000000000000000000000000000000000000000000000000000000000000000000000000   048   1                             20251222                      
1012024112735       033030000062                  ESPF    033030000062                  2026012200000040                000000000014930800000000000000000000000000000000000000000000000000000000000000000000000000   048   1                             20260122                      
1012024112735       033030000062                  ESPF    033030000062                  2026022200000041                000000000014930800000000000000000000000000000000000000000000000000000000000000000000000000   048   1                             20260222                      
1012024112735       033030000062                  ESPF    033030000062                  2026032200000042                000000000014930800000000000000000000000000000000000000000000000000000000000000000000000000   048   1                             20260322                      
1012024112735       033030000062                  ESPF    033030000062                  2026042200000043                000000000014930800000000000000000000000000000000000000000000000000000000000000000000000000   048   1                             20260422                      
1012024112735       033030000062                  ESPF    033030000062                  2026052200000044                000000000014930800000000000000000000000000000000000000000000000000000000000000000000000000   048   1                             20260522                      
1012024112735       033030000062                  ESPF    033030000062                  2026062200000045                000000000014930800000000000000000000000000000000000000000000000000000000000000000000000000   048   1                             20260622                      
1012024112735       033030000062                  ESPF    033030000062                  2026072200000046                000000000014930800000000000000000000000000000000000000000000000000000000000000000000000000   048   1                             20260722                      
1012024112735       033030000062                  ESPF    033030000062                  2026082200000047                000000000014930800000000000000000000000000000000000000000000000000000000000000000000000000   048   1                             20260822                      
1012024112735       033030000062                  ESPF    033030000062                  2026092200000048                000000000014930800000000000000000000000000000000000000000000000000000000000000000000000000   048   1                             20260922                      
1012024112735       034610002124                  CSPF    034610002124                  2024111400000028                000000000014481000000000000000000000000000000000000000000000000000000000000000000000000000   048   1                             20241114                      
1012024112735       035160003067                  PARF    035160003067                  2023111200000027        20240730000000000020099400000000000000000000000000000000000000000000000000000000000000000006246300   036   7                            C20231112                      
1012024112735       035900013104                  FCDC    035900013104                  2024072900000016                000000000022823700000000000000000000000000000000000000000000000000000000000000000000000000   048   1                             20240729                      
1012024112735       035900013104                  FCDC    035900013104                  2024082900000017                000000000022823700000000000000000000000000000000000000000000000000000000000000000000000000   048   1                             20240829                      
1012024112735       035900013104                  FCDC    035900013104                  2024092900000018                000000000022823700000000000000000000000000000000000000000000000000000000000000000000000000   048   1                             20240929                      
1012024112735       035900013104                  FCDC    035900013104                  2024102900000019                000000000022823700000000000000000000000000000000000000000000000000000000000000000000000000   048   1                             20241029                      
1012024112735       036120001089                  FCDC    036120001089                  2023080200000026        20240930000000000020471400000000000000000000000000000000000000000000000000000000000000000002408300   048   7                            C20230802                      
1012024112735       036750000253                  ESPF    036750000253                  2024092200000020                000000000011671500000000000000000000000000000000000000000000000000000000000000000000000000   048   1                             20240922                      
1012024112735       036750000253                  ESPF    036750000253                  2024102200000021                000000000011671500000000000000000000000000000000000000000000000000000000000000000000000000   048   1                             20241022                      
1012024112735       036750000253                  ESPF    036750000253                  2024112200000022                000000000011671500000000000000000000000000000000000000000000000000000000000000000000000000   048   1                             20241122                      
1012024112735       036750000253                  ESPF    036750000253                  2024122200000023                000000000011671500000000000000000000000000000000000000000000000000000000000000000000000000   048   1                             20241222                      
1012024112735       036750000253                  ESPF    036750000253                  2025012200000024                000000000011671500000000000000000000000000000000000000000000000000000000000000000000000000   048   1                             20250122                      
1012024112735       036750000253                  ESPF    036750000253                  2025022200000025                000000000011671500000000000000000000000000000000000000000000000000000000000000000000000000   048   1                             20250222                      
1012024112735       036750000253                  ESPF    036750000253                  2025032200000026                000000000011671500000000000000000000000000000000000000000000000000000000000000000000000000   048   1                             20250322                      
1012024112735       036750000253                  ESPF    036750000253                  2025042200000027                000000000011671500000000000000000000000000000000000000000000000000000000000000000000000000   048   1                             20250422                      
1012024112735       036750000253                  ESPF    036750000253                  2025052200000028                000000000011671500000000000000000000000000000000000000000000000000000000000000000000000000   048   1                             20250522                      
1012024112735       036750000253                  ESPF    036750000253                  2025062200000029                000000000011671500000000000000000000000000000000000000000000000000000000000000000000000000   048   1                             20250622                      
1012024112735       036750000253                  ESPF    036750000253                  2025072200000030                000000000011671500000000000000000000000000000000000000000000000000000000000000000000000000   048   1                             20250722                      
1012024112735       036750000253                  ESPF    036750000253                  2025082200000031                000000000011671500000000000000000000000000000000000000000000000000000000000000000000000000   048   1                             20250822                      
1012024112735       036750000253                  ESPF    036750000253                  2025092200000032                000000000011671500000000000000000000000000000000000000000000000000000000000000000000000000   048   1                             20250922                      
1012024112735       036750000253                  ESPF    036750000253                  2025102200000033                000000000011671500000000000000000000000000000000000000000000000000000000000000000000000000   048   1                             20251022                      
1012024112735       036750000253                  ESPF    036750000253                  2025112200000034                000000000011671500000000000000000000000000000000000000000000000000000000000000000000000000   048   1                             20251122                      
1012024112735       036750000253                  ESPF    036750000253                  2025122200000035                000000000011671500000000000000000000000000000000000000000000000000000000000000000000000000   048   1                             20251222                      
1012024112735       036750000253                  ESPF    036750000253                  2026012200000036                000000000011671500000000000000000000000000000000000000000000000000000000000000000000000000   048   1                             20260122                      
1012024112735       036750000253                  ESPF    036750000253                  2026022200000037                000000000011671500000000000000000000000000000000000000000000000000000000000000000000000000   048   1                             20260222                      
1012024112735       036750000253                  ESPF    036750000253                  2026032200000038                000000000011671500000000000000000000000000000000000000000000000000000000000000000000000000   048   1                             20260322                      
1012024112735       036750000253                  ESPF    036750000253                  2026042200000039                000000000011671500000000000000000000000000000000000000000000000000000000000000000000000000   048   1                             20260422                      
1012024112735       036750000253                  ESPF    036750000253                  2026052200000040                000000000011671500000000000000000000000000000000000000000000000000000000000000000000000000   048   1                             20260522                      
1012024112735       036750000253                  ESPF    036750000253                  2026062200000041                000000000011671500000000000000000000000000000000000000000000000000000000000000000000000000   048   1                             20260622                      
