001202411252024112500000091
1012024112515       005200026985                  184479590900   EVAN DE BARROS                               19721028                                                                                                                                                                                                                                                                                                                                                                                                                                       R SAO PAULO                                       1562      CASA                                              DOS ESTADOS              GUARAPUAVA             PR85035000                                                                                          OUTRAS                        R SAO PAULO                                             1562CASA                                              DOS ESTADOS              GUARAPUAVA             PR85035000                            NPE                                          2022122020520411                                                                                                                                                                                                                                                                       MS51791150                    000000000000000000        00000000R42988438211         988438211           4236273438          EVANDEBARROS@HOTMAIL.COM                                    
1012024112515       036110001638                  137413548801   PAULO MAURICIO DA SILVA MUNHOZ               19871004                                                                                                                                                                                                                                                                                                                                                                                                                                       R PROFESSOR DIAS CASTEJON                         269                                                         JARDIM MONTE KEMEL       SAO PAULO              SP05633050                                                                                          GERENTE - TODAS               R PROFESSOR DIAS CASTEJON                                269                                                  JARDIM MONTE KEMEL       SAO PAULO              SP05633050                            NPE                                          2023122120520411                                                                                                                                                                                                                                                                       MS41488796                    000000000000000000        00000000R                    992699959           940325102           DANILO.JCBS@HOTMAIL.COM                                     
1012024112515       037830004489                  127263907810   LEILA APARECIDA DOS SANTOS                   19770609                                                                                                                                                                                                                                                                                                                                                                                                                                       R REGINA CABALAU MENDONCA                         860       APT 504 BLC 4                                     JARDIM SAO LUIS          SUZANO                 SP08675460                                                                                          OUTRAS                        R REGINA CABALAU MENDONCA                                860APT 504 BLC 4                                     JARDIM SAO LUIS          SUZANO                 SP08675460                            NPE                                          2024012220520411                                                                                                                                                                                                                                                                       FS0358470748                  000000000000000000        00000000R11974097579         1123501965          1123501965          LASANTOS2401@YAHOO.COM                                      
1012024112515       038720001919                  142464269468   CASCIRIA CARLA SANTOS REIS                   19650906                                                                                                                                                                                                                                                                                                                                                                                                                                       R SANTO ANTONIO                                   100                                                         RENASCER                 CABEDELO               PB58105508                    N A                                                                   OUTRAS                        R SANTO ANTONIO                                          100                                                  RENASCER                 CABEDELO               PB58105508                            NPE                                          2023030220520411                                                                                                                                                                                                                                                                       FS071102428                   000000000000000000        00000000R999585510           32481914            32481914            COMPROL2009@HOTMAIL.COM                                     
1012024112515       038720003868                  113360705793   NELSON DIAS MENDES DA SILVA                  19940417                                                                                                                                                                                                                                                                                                                                                                                                                                       R LEONARDO SENDER                                 806                                                         JARDIM NOVA ERA          NOVA IGUACU            RJ26272330                                                                                          OUTRAS                        R LEONARDO SENDER                                        806                                                  JARDIM NOVA ERA          NOVA IGUACU            RJ26272330                            NPE                                          2023112120520411                                                                                                                                                                                                                                                                       MS241773449                   000000000000000000        00000000R983685774           983526568           970383174                                                                       
1012024112515       038720004817                  108482044761   RENATA MIRANDA DOS SANTOS LOPES              19771224                                                                                                                                                                                                                                                                                                                                                                                                                                       R PROJETADA                                       1         LOT SAO PEDRO                                     JAPUIBA                  CACHOEIRAS DE MACACU   RJ28685000                    MADEIREIRA MAT. CONSTRUCAO TAB                                        GERENTE - TODAS               FUNCHAL                                                  S/N                                                  JAPUIBA                  CACHOEIRAS DO MACACU   RJ28680000                            NPE                                          2024072220520411                                                                                                                                                                                                                                                                       FS117426924                   000000000000000000        00000000R999155093           999233731           970946557                                                                       
1012024112515       038720004829                  165528301068   FLAVIO ROBERTO BRASIL PRADO                  19760929                                                                                                                                                                                                                                                                                                                                                                                                                                       RUA 12 LUA                                        514       CASA                                              CENTRO                   CIDREIRA               RS95595000                    NAO INFORMADO                                                         GERENTE - TODAS               RUA 12 LUA                                               514                                                  CENTRO                   CIDREIRA               RS95595000                            NPE                                          2024072220520411                                                                                                                                                                                                                                                                       MS                            000000000000000000        00000000R                    999444180           985097027                                                                       
1012024112515       025950059350                  102047430100   VANDERLEI DOS SANTOS DA SILVA                19860505                                                                                                                                                                                                                                                                                                                                                                                                                                       R SAO LUCAS                                       183                                                         SANTARENZINHO            SANTAREM               PA68035345                                                                                          OUTRAS                        R SAO LUCAS                                              183                                                  SANTARENZINHO            SANTAREM               PA680353451140045215                  NPE                                          2022120720520411                                                                                                                                                                                                                                                                       MS17432499                    000000000000000000        00000000R93981106112         991350848           35591321            WANDERLEY1929@GMAIL.COM                                     
1012024112515       026420015935                  103592125141   NILTYS DANIELE DE FIGUEIREDO CARDOSO         19900108                                                                                                                                                                                                                                                                                                                                                                                                                                       RUA PATOS DE MINAS                                8         NULL                                              JARDIM MARIANA           CUIABA                 MT78000000                                                                                          OUTRAS                        R GALERA                                                  04QD 37                                             PARQUE DO LAGO           VARZEA GRANDE          MT78120710                            NPE                                          2023050920520411                                                                                                                                                                                                                                                                       FS0690248051                  000000000000000000        00000000R65999657904         999657904           992966120           NILTYSDANY@GMAIL.COM                                        
1012024112515       038590000195                  108419072931   LENIN DOS REIS                               20000414                                                                                                                                                                                                                                                                                                                                                                                                                                       R CANADA                                          328                                                         CHACARA REMANSO CAUCAIA DCOTIA                  SP06726305                    MR MOLAS PARA RETENTORES LTDA                                         GERENTE - TODAS               R CANADA                                                 328                                                  CHACARA REMANSO CAUCAIA DCOTIA                  SP06726305                            NPE                                          2023011620520411                                                                                                                                                                                                                                                                       MS504450402                   000000000000000000        00000000R11988461654         994063180           955786920           LENINDOSREIS@GMAIL.COM                                      
1012024112515       211900031309                  104488861628   ANA BEATRIZ FERNANDES E SILVA                19800901                                                                                                                                                                                                                                                                                                                                                                                                                                       R PORTAL DO MAR                                   280                                                         P SUL                    TEIXEIRA DE FREITAS    BA45991176                                                                                          OUTRAS                        RUA PORTAL DO MAR                                        280                                                  PORTAL SUL               TEIXEIRA DE FREITAS    BA29995000                            NPE                                          2023012020520411                                                                                                                                                                                                                                                                       FSM8510378                    000000000000000000        00000000R                    998592122           995931455           ABJSILVA2@GMAIL.COM                                         
1012024112515       005390014161                  104507189640   CARLOS ANTONIO VITORINO FILHO                19800525                                                                                                                                                                                                                                                                                                                                                                                                                                       R LUZIA NEVES FLECK                               150                                                         SHOPPING PARK            UBERLANDIA             MG38425376                    CONSTRUTORA MONTEIRO DE CASTRO                                        GERENTE - TODAS               R AMERICO BRASILIENSE                                    124                                                  CHACARA SANTO ANTONIO ZONSAO PAULO              SP04715005                            NPE                                          2023030220520411                                                                                                                                                                                                                                                                       MS535955352                   000000000000000000        00000000R3497781981          34999261246         34991979208         CARLOSVITORINOFILHO@HOTMAIL.COM                             
1012024112515       022800020517                  195935690144   ADAMO JUNIO BRITO DE SOUZA                   19820323                                                                                                                                                                                                                                                                                                                                                                                                                                       R F                                               SN        C-43 COND.                                        VALE DO SOL              APARECIDA DE GOIANIA   GO74924345                    SECRETATIA DE ESTADO DA EDUCAC                                        GERENTE - TODAS               AV C 10                                                   17ESCOLA CASCATA                                    JARDIM DAS CASCATAS      APARECIDA DE GOIANIA   GO74960400                            NPE                                          2023052220520411                                                                                                                                                                                                                                                                       MS0356271638                  000000000000000000        00000000R                    992248880           62992248880         GISELELIMA.REPRESENTACOES@GMAIL.COM                         
1012024112515       050090003621                  110002501805   HILMARA MOREIRA MACHADO                      19671006                                                                                                                                                                                                                                                                                                                                                                                                                                       R BELMIRO DE ALMEIDA                              61                                                          BOSQUE DA SAUDE          SAO PAULO              SP04127040                                                                                          OUTRAS                        R BELMIRO DE ALMEIDA                                      61                                                  BOSQUE DA SAUDE          SAO PAULO              SP04127040                            NPE                                          2024042220520411                                                                                                                                                                                                                                                                       FS                            000000000000000000        00000000R                    999837233           11942300033                                                                     
1012024112515       003640028557                  103344732170   PATRICIA RODRIGUES DA ABADIA MARTINS         19881128                                                                                                                                                                                                                                                                                                                                                                                                                                       R CAPIVARI                                        SN        QUADRA14, LT 13                                   JARDIM RIO GRANDE        APARECIDA DE GOIANIA   GO74982470                    FACUNICAMPS - FACULDADE UNIDA                                         GERENTE - TODAS               R 210                                                    386                                                  SETOR COIMBRA            GOIANIA                GO745352806230916600                  NPE                                          2022112120520411                                                                                                                                                                                                                                                                       FS0460943293                  000000000000000000        00000000R62996896759         996896759           996029812           PATRICIA.TOTALCLEAN@GMAIL.COM                               
1012024112515       026420018169                  132584161842   ANDRE LUIS BORGES DOS SANTOS                 19840901                                                                                                                                                                                                                                                                                                                                                                                                                                       C 3                                               12        APTO 309 A                                        CENTRO                   TAGUATINGA             DF72010030                                                                                          EMPRESARIO                    PRACA BENJAMIN CONSTANT                                 1711                                                  CENTRO                   HUMAITA                AM69800000                            NPE                                          2023073120520411                                                                                                                                                                                                                                                                       MS442832527                   000000000000000000        00000000R61999199985         999199985           981021271           ALBDS.SANTOS@GMAIL.COM                                      
1012024112515       035170004290                  116256840453   ERALDO JOSE DOS SANTOS                       19570610                                                                                                                                                                                                                                                                                                                                                                                                                                       ILHA TOPINANBARANAS                               23        CASA 2                                            VILA SANTO HENRIQUE      SAO PAULO              SP03707780                                                                                          APOSENTADO                                                                                                                                                                                                                        NPE                                          2023071820520411                                                                                                                                                                                                                                                                       MS160513248                   000000000000000000        00000000R11997062525         997062525           944562740           ERALDO.SANTOS.VASCO@GMAIL.COM                               
1012024112515       211900039791                  112861509732   DEISE ROCHA SANTANA SOUZA                    19910310                                                                                                                                                                                                                                                                                                                                                                                                                                       R PRAIA DE PRADO                                  04                                                          BARRA DO SAHY            ARACRUZ                ES29198082                                                                                          OUTRAS                        R PRAIA DE PRADO                                          04                                                  BARRA DO SAHY            ARACRUZ                ES29198082                            NPE                                          2023030220520411                                                                                                                                                                                                                                                                       FS3000106                     000000000000000000        00000000R27999120863         999120863           19991542001         DEISEROCHASANTANASOUZA@GMAIL.COM                            
1012024112515       027120014181                  101929377827   ISAC GONCALVES DA SILVA FILHO                19590729                                                                                                                                                                                                                                                                                                                                                                                                                                       R NOVE                                            855                                                         CONJUNTO RESIDENCIAL DOM SAO JOSE DOS CAMPOS    SP12232863                                                                                          OUTRAS                        R NOVE                                                   855                                                  CONJUNTO RESIDENCIAL DOM SAO JOSE DOS CAMPOS    SP122328631140045215                  NPE                                          2023012320520411                                                                                                                                                                                                                                                                       MS11874774                    000000000000000000        00000000R12997032017         997032017           978144182           BARONICHURROS@GMAIL.COM                                     
1012024112515       036180005398                  101237326206   CARLOS ALBERTO DA SILVA RAIOL                19911215                                                                                                                                                                                                                                                                                                                                                                                                                                       R MACHADINHO                                      315       CASA 4                                            PARQUE CASA DE PEDRA     SAO PAULO              SP02320150                                                                                          OUTRAS                        R MACHADINHO                                             315CASA 4                                            PARQUE CASA DE PEDRA     SAO PAULO              SP02320150                            NPE                                          2023082120520411                                                                                                                                                                                                                                                                       MS621507611                   000000000000000000        00000000R11982796534         998182056           932353341           KARLOSRAYOL@GMAIL.COM                                       
1012024112515       038710001877                  104358212611   RODRIGO ANTONIO ALVES                        19791223                                                                                                                                                                                                                                                                                                                                                                                                                                       AL LORENA                                         289       AP 111                                            JARDIM PAULISTA          SAO PAULO              SP01424001                                                                                          OUTRAS                        AL LORENA                                                289AP 111                                            JARDIM PAULISTA          SAO PAULO              SP01424001                            NPE                                          2024042220520411                                                                                                                                                                                                                                                                       MS371957606                   000000000000000000        00000000R11981878434         999095336           914083100           RODRIGOGRUNFELD1979@GMAIL.COM                               
1012024112515       000830036333                  121996284851   SANDRO GONCALVES LOREDO                      19780916                                                                                                                                                                                                                                                                                                                                                                                                                                       R VALDECIR JOAQUIM DE FREITAS                     252       252                                               JARDIM SANTANA           HORTOLANDIA            SP13184542                                                                                          EMPRESARIO                    R VALDECIR JOAQUIM DE FREITAS                            252CASA                                              JARDIM SANTANA           HORTOLANDIA            SP13184542                            NPE                                          2023040520520411                                                                                                                                                                                                                                                                       MS34.121.227                  000000000000000000        00000000R19989665073         994256164           1932990823          SANDROGLOREDO@HOTMAIL.COM                                   
1012024112515       023620031500                  100063447207   MADSON HENRIQUE ALVES RODRIGUES              19910327                                                                                                                                                                                                                                                                                                                                                                                                                                       R ALDO ESTACINO PATRICIO                          114       CASA                                              ARIRIU                   PALHOCA                SC88135031                    CAMARGO CORREIA                                                       GERENTE - TODAS               R NAJLA CARONE GUEDERT                                    30                                                  PAGANI                   PALHOCA                SC88132150                            NPE                                          2022122120520411                                                                                                                                                                                                                                                                       MS0478053037                  000000000000000000        00000000R68992262896         999233546           984213556           MADSONMILITAR@GMAIL.COM                                     
1012024112515       038720003474                  100135874203   LEYCE KAREN DE SOUZA ARAUJO                  19880718                                                                                                                                                                                                                                                                                                                                                                                                                                       R NUMIDIA                                         353       APTO 01                                           PARQUE CAPUAVA           SANTO ANDRE            SP09270100                                                                                          OUTRAS                        R NUMIDIA                                                353APTO 01                                           PARQUE CAPUAVA           SANTO ANDRE            SP09270100                            NPE                                          2023091920520411                                                                                                                                                                                                                                                                       FS0785285271                  000000000000000000        00000000R16994480818         996186853           92992660209         ADRIANOCORDOVIL20@GMAIL.COM                                 
1012024112515       050270003370                  107296430427   FRANCICLEUDO PEIXOTO DE AQUINO               19841027                                                                                                                                                                                                                                                                                                                                                                                                                                       R TRES IRMAOS                                     332       CASA                                              PAVUNA                   PACATUBA               CE61809430                                                                                          OUTRAS                        R TRES IRMAOS                                            332CASA                                              PAVUNA                   PACATUBA               CE61809430                            NPE                                          2024092720520411                                                                                                                                                                                                                                                                       MS                            000000000000000000        00000000R                    995363410           981616735                                                                       
10120241125Q5       000830036333                  19981574890                 CELULAR                       
10120241125Q5       000830036333                  981574890                   OUTROS                        
10120241125Q5       003640028557                  996896759                   OUTROS                        
10120241125Q5       005390014161                  3497781981                  CELULAR                       
10120241125Q5       005390014161                  34991979208                 OUTROS                        
10120241125Q5       025950059350                  93991350848                 CELULAR                       
10120241125Q5       026420015935                  65999657904                 CELULAR                       
10120241125Q5       026420015935                  992966120                   OUTROS                        
10120241125Q5       026420015935                  992972243                   OUTROS                        
10120241125Q5       027120014181                  12997032017                 CELULAR                       
10120241125Q5       027120014181                  978144182                   OUTROS                        
10120241125Q5       035170004290                  1125281234                  RECADO                        
10120241125Q5       035170004290                  11944562740                 CELULAR                       
10120241125Q5       035170004290                  11997062525                 CELULAR                       
10120241125Q5       035170004290                  944562740                   OUTROS                        
10120241125Q5       035170004290                  974012510                   OUTROS                        
10120241125Q5       035170004290                  983304634                   OUTROS                        
10120241125Q5       035170004290                  989166917                   OUTROS                        
10120241125Q5       038590000195                  11988461654                 CELULAR                       
10120241125Q5       038590000195                  955786920                   OUTROS                        
10120241125Q5       038720001919                  947110082                   CELULAR                       
10120241125Q5       038720001919                  981900408                   CELULAR                       
10120241125Q5       038720001919                  988419289                   OUTROS                        
10120241125Q5       038720003868                  971119108                   OUTROS                        
10120241125Q5       038720004817                  991026843                   OUTROS                        
10120241125Q5       038720004817                  998156817                   CELULAR                       
10120241125Q5       038720004829                  985810975                   OUTROS                        
10120241125Q5       050090003621                  942300033                   OUTROS                        
10120241125Q5       211900031309                  995931455                   OUTROS                        
10120241125Q5       211900039791                  19992270441                 OUTROS                        
10120241125Q5       211900039791                  19993020367                 OUTROS                        
10120241125Q5       211900039791                  93984179394                 OUTROS                        
10120241125Q5       211900039791                  991353083                   OUTROS                        
10120241125Q5       005200026985                  4236273438                  OUTROS                        
10120241125Q5       022800020517                  1140045215                  RECADO                        
10120241125Q5       022800020517                  62992248880                 OUTROS                        
10120241125Q5       023620031500                  68992262896                 CELULAR                       
10120241125Q5       023620031500                  999233546                   OUTROS                        
10120241125Q5       025950059350                  35591321                    OUTROS                        
10120241125Q5       025950059350                  984183019                   OUTROS                        
10120241125Q5       026420015935                  1140045215                  RECADO                        
10120241125Q5       027120014181                  991658490                   OUTROS                        
10120241125Q5       036110001638                  976279142                   OUTROS                        
10120241125Q5       036180005398                  932353341                   OUTROS                        
10120241125Q5       038710001877                  11981878434         0       CELULAR                       
10120241125Q5       038710001877                  981878434                   OUTROS                        
10120241125Q5       038720001919                  947772200                   CELULAR                       
10120241125Q5       038720001919                  988863665                   OUTROS                        
10120241125Q5       038720001919                  992009346                   CELULAR                       
10120241125Q5       038720001919                  998246728                   OUTROS                        
10120241125Q5       038720003474                  92992660209                 OUTROS                        
10120241125Q5       038720003474                  991911143                   OUTROS                        
10120241125Q5       038720003868                  1140045215                  RECADO                        
10120241125Q5       038720003868                  21970383174                 RECADO                        
10120241125Q5       050090003621                  996484202                   OUTROS                        
10120241125Q5       211900031309                  998537821                   OUTROS                        
10120241125Q5       211900039791                  19992029166                 OUTROS                        
10120241125Q5       211900039791                  19995785134                 OUTROS                        
10120241125Q5       000830036333                  1935044942                  OUTROS                        
10120241125Q5       005200026985                  988298783                   OUTROS                        
10120241125Q5       025950059350                  1140045215                  COMERCIAL                     
10120241125Q5       025950059350                  988064184                   OUTROS                        
10120241125Q5       026420018169                  981021271                   OUTROS                        
10120241125Q5       027120014181                  12991602263                 CELULAR                       
10120241125Q5       027120014181                  12991658490                 CELULAR                       
10120241125Q5       027120014181                  12996389508         0       CELULAR                       
10120241125Q5       027120014181                  991602263                   OUTROS                        
10120241125Q5       035170004290                  11983304634         0       CELULAR                       
10120241125Q5       036110001638                  940325102                   OUTROS                        
10120241125Q5       038590000195                  988461654                   OUTROS                        
10120241125Q5       038710001877                  914083100                   OUTROS                        
10120241125Q5       038720001919                  8399919222                  CELULAR                       
10120241125Q5       038720001919                  988893874                   OUTROS                        
10120241125Q5       038720001919                  999064602                   OUTROS                        
10120241125Q5       038720001919                  999585510                   CELULAR                       
10120241125Q5       038720003474                  982093246                   OUTROS                        
10120241125Q5       038720003474                  992660209                   OUTROS                        
10120241125Q5       038720003474                  996186853                   OUTROS                        
10120241125Q5       038720004817                  21990782937                 RECADO                        
10120241125Q5       038720004817                  977345116                   CELULAR                       
10120241125Q5       038720004817                  999155093                   CELULAR                       
10120241125Q5       211900039791                  993020367                   OUTROS                        
10120241125Q5       000830036333                  982670525                   OUTROS                        
10120241125Q5       000830036333                  994166801                   OUTROS                        
10120241125Q5       000830036333                  994256164                   OUTROS                        
10120241125Q5       005200026985                  42988902189                 OUTROS                        
10120241125Q5       022800020517                  986181318                   OUTROS                        
10120241125Q5       023620031500                  48998082074                 CELULAR                       
10120241125Q5       023620031500                  984213556                   OUTROS                        
10120241125Q5       023620031500                  998082074                   OUTROS                        
10120241125Q5       027120014181                  12978144182                 CELULAR                       
10120241125Q5       027120014181                  996389508                   OUTROS                        
10120241125Q5       036110001638                  992699959                   OUTROS                        
10120241125Q5       036180005398                  1140045215                  RECADO                        
10120241125Q5       036180005398                  998182056                   OUTROS                        
10120241125Q5       038710001877                  1140045215                  RECADO                        
10120241125Q5       038710001877                  965793220                   OUTROS                        
10120241125Q5       038710001877                  999095336                   OUTROS                        
10120241125Q5       038720001919                  32481914                    OUTROS                        
10120241125Q5       038720001919                  988210338                   OUTROS                        
10120241125Q5       038720001919                  98889387                    OUTROS                        
10120241125Q5       038720001919                  999192227                   CELULAR                       
10120241125Q5       038720003474                  16994480818                 CELULAR                       
10120241125Q5       038720004817                  990825210                   OUTROS                        
10120241125Q5       038720004817                  999233731                   OUTROS                        
10120241125Q5       050090003621                  1140045215                  RECADO                        
10120241125Q5       050270003370                  981616735                   OUTROS                        
10120241125Q5       050270003370                  981684890                   OUTROS                        
10120241125Q5       050270003370                  995363410                   OUTROS                        
10120241125Q5       211900039791                  991707929                   OUTROS                        
10120241125Q5       000830036333                  1936514115                  OUTROS                        
10120241125Q5       000830036333                  19989665073         0       CELULAR                       
10120241125Q5       000830036333                  19991243190                 OUTROS                        
10120241125Q5       000830036333                  989665073                   OUTROS                        
10120241125Q5       003640028557                  62996896759         0       CELULAR                       
10120241125Q5       005390014161                  34999261246                 OUTROS                        
10120241125Q5       022800020517                  62986181318                 RECADO                        
10120241125Q5       026420015935                  65992966120                 CELULAR                       
10120241125Q5       026420015935                  993547618                   OUTROS                        
10120241125Q5       026420018169                  61999199985         0       CELULAR                       
10120241125Q5       027120014181                  12981503270                 CELULAR                       
10120241125Q5       027120014181                  997032017                   OUTROS                        
10120241125Q5       035170004290                  997062525                   OUTROS                        
10120241125Q5       036180005398                  11982796534                 CELULAR                       
10120241125Q5       036180005398                  982796534                   OUTROS                        
10120241125Q5       037830004489                  1123501965                  OUTROS                        
10120241125Q5       038590000195                  11976983688                 CELULAR                       
10120241125Q5       038720001919                  83991415311                 CELULAR                       
10120241125Q5       038720003868                  975138153                   CELULAR                       
10120241125Q5       038720004829                  51985097027                 RECADO                        
10120241125Q5       038720004829                  985097027                   OUTROS                        
10120241125Q5       050090003621                  11999837233                 RECADO                        
10120241125Q5       050270003370                  85981684890                 RECADO                        
10120241125Q5       211900039791                  999120863                   OUTROS                        
10120241125Q5       000830036333                  1932990823                  OUTROS                        
10120241125Q5       000830036333                  19994166801                 OUTROS                        
10120241125Q5       023620031500                  992262896                   OUTROS                        
10120241125Q5       025950059350                  93988064184                 CELULAR                       
10120241125Q5       025950059350                  991350848                   OUTROS                        
10120241125Q5       026420015935                  999347093                   OUTROS                        
10120241125Q5       026420015935                  999657904                   OUTROS                        
10120241125Q5       037830004489                  1146389112                  RECADO                        
10120241125Q5       038710001877                  998382161                   OUTROS                        
10120241125Q5       038720003474                  1140045215                  RECADO                        
10120241125Q5       050090003621                  11942300033                 OUTROS                        
10120241125Q5       050090003621                  999837233                   OUTROS                        
10120241125Q5       211900031309                  998592122                   OUTROS                        
10120241125Q5       211900039791                  991542001                   OUTROS                        
10120241125Q5       000830036333                  19994256164                 OUTROS                        
10120241125Q5       000830036333                  978225869                   OUTROS                        
10120241125Q5       000830036333                  991243190                   OUTROS                        
10120241125Q5       003640028557                  996029812                   OUTROS                        
10120241125Q5       005200026985                  42988438211                 CELULAR                       
10120241125Q5       005200026985                  988438211                   OUTROS                        
10120241125Q5       022800020517                  982312091                   OUTROS                        
10120241125Q5       022800020517                  992248880                   OUTROS                        
10120241125Q5       025950059350                  63992779448                 OUTROS                        
10120241125Q5       025950059350                  981106112                   OUTROS                        
10120241125Q5       027120014181                  981503270                   OUTROS                        
10120241125Q5       036110001638                  1140045215                  RECADO                        
10120241125Q5       036110001638                  978231373                   OUTROS                        
10120241125Q5       037830004489                  11974097579         0       CELULAR                       
10120241125Q5       038590000195                  976983688                   OUTROS                        
10120241125Q5       038590000195                  994063180                   OUTROS                        
10120241125Q5       038720001919                  991415311                   OUTROS                        
10120241125Q5       038720003868                  983685774                   CELULAR                       
10120241125Q5       211900039791                  27999120863                 CELULAR                       
10120241125Q5       211900039791                  991658676                   OUTROS                        
10120241125Q5       211900039791                  996896764                   OUTROS                        
10120241125Q5       003640028557                  6230916600                  COMERCIAL                     
10120241125Q5       025950059350                  93981106112                 CELULAR                       
10120241125Q5       026420018169                  61981021271         0       CELULAR                       
10120241125Q5       026420018169                  999199985                   OUTROS                        
10120241125Q5       027120014181                  1140045215                  COMERCIAL                     
10120241125Q5       027120014181                  987043753                   OUTROS                        
10120241125Q5       038710001877                  933513481                   OUTROS                        
10120241125Q5       038720001919                  8398889387                  CELULAR                       
10120241125Q5       038720001919                  83988893874                 CELULAR                       
10120241125Q5       038720001919                  988230771                   OUTROS                        
10120241125Q5       038720001919                  993115638                   CELULAR                       
10120241125Q5       038720001919                  996450065                   CELULAR                       
10120241125Q5       038720001919                  998889387                   OUTROS                        
10120241125Q5       038720003474                  986152513                   OUTROS                        
10120241125Q5       038720003868                  970383174                   OUTROS                        
10120241125Q5       038720003868                  983526568                   OUTROS                        
10120241125Q5       038720004817                  968629932                   CELULAR                       
10120241125Q5       038720004817                  970946557                   OUTROS                        
10120241125Q5       038720004817                  976626676                   CELULAR                       
10120241125Q5       038720004817                  990782937                   OUTROS                        
10120241125Q5       038720004829                  999444180                   OUTROS                        
10120241125Q5       211900039791                  19991542001                 OUTROS                        
10120241125Q5       211900039791                  19991627541                 OUTROS                        
10120241125Q5       211900039791                  19991658676                 OUTROS                        
1012024112525       038720003868                  FSEG    038720003868                  03872   NOVACAO COBRANC                                                                                   03872   NOVACAO COBRANCA CON                         00000000022863240000000000000000000020231020023         1                                                                                                                                                                                                                                                                                                                                                                                                                                                                                                                                                                                                            000000000000013900                                                                                                 
1012024112525       211900039791                  PARF    211900039791                  21190   CORRESPONDENTE                                                                                    21190   CORRESPONDENTE ESPIR                         00000000066599550000000000000000000020220919060         1                                                                                                                                                                                                                                                                                                                                                                                                                                                                                                                                                                                                            000000000000021164                                                                                                 
1012024112525       050270003370                  FCDC    050270003370                  05027   CORRESP SUCURSA                                                                                   05027   CORRESP SUCURSAL ARC                         00000000079070460000000000000000000020240821048         1                                                                                                                                                                                                                                                                                                                                                                                                                                                                                                                                                                                                            000000000000022742                                                                                                 
1012024112525       038720003474                  FSEG    038720003474                  03872   NOVACAO COBRANC                                                                                   03872   NOVACAO COBRANCA CON                         00000000025065510000000000000000000020230816024         1                                                                                                                                                                                                                                                                                                                                                                                                                                                                                                                                                                                                            000000000000033000                                                                                                 
1012024112525       005200026985                  FCDC    005200026985                  00520   CORRESPONDENTE                                                                                    00520   CORRESPONDENTE PARAN                         00000000024671900000000000000000000020220919048         1                                                                                                                                                                                                                                                                                                                                                                                                                                                                                                                                                                                                            000000000000019653                                                                                                 
1012024112525       038720004817                  FSEG    038720004817                  03872   NOVACAO COBRANC                                                                                   03872   NOVACAO COBRANCA CON                         00000000009807520000000000000000000020240619012         1                                                                                                                                                                                                                                                                                                                                                                                                                                                                                                                                                                                                            000000000000022300                                                                                                 
1012024112525       003640028557                  PARF    003640028557                  00364   REGIONAL - SAO                                                                                    00364   REGIONAL - SAO JOSE                          00000000028807450000000000000000000020220520048         1                                                                                                                                                                                                                                                                                                                                                                                                                                                                                                                                                                                                            000000000000021268                                                                                                 
1012024112525       035170004290                  REFF    035170004290                  03517   CORRESPONDENTE                                                                                    03517   CORRESPONDENTE TATUA                         00000000007949900000000000000000000020221206024         1                                                                                                                                                                                                                                                                                                                                                                                                                                                                                                                                                                                                            000000000000034994                                                                                                 
1012024112525       036180005398                  REFF    036180005398                  03618   CORRESP. SANTAN                                                                                   03618   CORRESP. SANTANA                             00000000012495730000000000000000000020230721024         1                                                                                                                                                                                                                                                                                                                                                                                                                                                                                                                                                                                                            000000000000021909                                                                                                 
1012024112525       038710001877                  FSEG    038710001877                  03871   NOVACAO COBRANC                                                                                   03871   NOVACAO COBRANCA  AM                         00000000039560610000000000000000000020240320036         1                                                                                                                                                                                                                                                                                                                                                                                                                                                                                                                                                                                                            000000000000024300                                                                                                 
1012024112525       026420018169                  REFF    026420018169                  02642   CORRESPONDENTE                                                                                    02642   CORRESPONDENTE - MAT                         00000000011628960000000000000000000020230620060         1                                                                                                                                                                                                                                                                                                                                                                                                                                                                                                                                                                                                            000000000000032447                                                                                                 
1012024112525       027120014181                  PARF    027120014181                  02712   CORRESPONDENTE                                                                                    02712   CORRESPONDENTE VALE                          00000000015021010000000000000000000020210120048         1                                                                                                                                                                                                                                                                                                                                                                                                                                                                                                                                                                                                            000000000000014203                                                                                                 
1012024112525       000830036333                  REFF    000830036333                  00083   CAMPTUBA - CAMP                                                                                   00083   CAMPTUBA - CAMPINAS                          00000000016819920000000000000000000020221220024         1                                                                                                                                                                                                                                                                                                                                                                                                                                                                                                                                                                                                            000000000000021019                                                                                                 
1012024112525       037830004489                  FCDC    037830004489                  03783   CORRESPONDENTE                                                                                    03783   CORRESPONDENTE SUZAN                         00000000030685160000000000000000000020230111060         1                                                                                                                                                                                                                                                                                                                                                                                                                                                                                                                                                                                                            000000000000022382                                                                                                 
1012024112525       038720004829                  FSEG    038720004829                  03872   NOVACAO COBRANC                                                                                   03872   NOVACAO COBRANCA CON                         00000000015526540000000000000000000020240620024         1                                                                                                                                                                                                                                                                                                                                                                                                                                                                                                                                                                                                            000000000000025000                                                                                                 
1012024112525       022800020517                  PARF    022800020517                  02280   CORRESPONDENTE                                                                                    02280   CORRESPONDENTE GOIAS                         00000000026115710000000000000000000020230321036         1                                                                                                                                                                                                                                                                                                                                                                                                                                                                                                                                                                                                            000000000000021439                                                                                                 
1012024112525       005390014161                  PARF    005390014161                  00539   PORTOSEG - MOGI                                                                                   00539   PORTOSEG - MOGI MIRI                         00000000033357810000000000000000000020220919048         1                                                                                                                                                                                                                                                                                                                                                                                                                                                                                                                                                                                                            000000000000029389                                                                                                 
1012024112525       038720001919                  FSEG    038720001919                  03872   NOVACAO COBRANC                                                                                   03872   NOVACAO COBRANCA CON                         00000000007921640000000000000000000020230119024         1                                                                                                                                                                                                                                                                                                                                                                                                                                                                                                                                                                                                            000000000000010000                                                                                                 
1012024112525       211900031309                  PARF    211900031309                  21190   CORRESPONDENTE                                                                                    21190   CORRESPONDENTE ESPIR                         00000000015235120000000000000000000020210720048         1                                                                                                                                                                                                                                                                                                                                                                                                                                                                                                                                                                                                            000000000000013751                                                                                                 
1012024112525       038590000195                  ESPF    038590000195                  03859   VIMARA AUTOMOVE                                                                                   03858   DESTAQUE CONSULTORIA                         00000000046685780000000000000000000020220715060         1                                                                                                                                                                                                                                                                                                                                                                                                                                                                                                                                                                                                            000000000000025264                                                                                                 
1012024112525       026420015935                  PARF    026420015935                  02642   CORRESPONDENTE                                                                                    02642   CORRESPONDENTE - MAT                         00000000027865520000000000000000000020221220036         1                                                                                                                                                                                                                                                                                                                                                                                                                                                                                                                                                                                                            000000000000022497                                                                                                 
1012024112525       050090003621                  REFF    050090003621                  05009   SUCURSAL S?O PA                                                                                   05009   SUCURSAL S?O PAULO I                         00000000036605600000000000000000000020231220036         1                                                                                                                                                                                                                                                                                                                                                                                                                                                                                                                                                                                                            000000000000021318                                                                                                 
1012024112525       025950059350                  FCDC    025950059350                  02595   CORRESPONDENTE                                                                                    02595   CORRESPONDENTE CREDI                         00000000040099610000000000000000000020220721036         1                                                                                                                                                                                                                                                                                                                                                                                                                                                                                                                                                                                                            000000000000016198                                                                                                 
1012024112525       023620031500                  PARF    023620031500                  02362   CORRESPONDENTE                                                                                    02362   CORRESPONDENTE - SAN                         00000000023968160000000000000000000020220620048         1                                                                                                                                                                                                                                                                                                                                                                                                                                                                                                                                                                                                            000000000000018660                                                                                                 
1012024112525       036110001638                  FCDC    036110001638                  03611   CORRESPONDENTE                                                                                    03611   CORRESPONDENTE SAO B                         00000000019854260000000000000000000020220920036         1                                                                                                                                                                                                                                                                                                                                                                                                                                                                                                                                                                                                            000000000000021535                                                                                                 
1012024112535       000830036333                  REFF    000830036333                  2024092000000019                000000000009921800000000000000000000000000000000000000000000000000000000000000000000000000   024   1                             20240920                      
1012024112535       000830036333                  REFF    000830036333                  2024102000000020                000000000009921800000000000000000000000000000000000000000000000000000000000000000000000000   024   1                             20241020                      
1012024112535       000830036333                  REFF    000830036333                  2024112000000021                000000000009921800000000000000000000000000000000000000000000000000000000000000000000000000   024   1                             20241120                      
1012024112535       000830036333                  REFF    000830036333                  2024122000000022                000000000009921800000000000000000000000000000000000000000000000000000000000000000000000000   024   1                             20241220                      
1012024112535       000830036333                  REFF    000830036333                  2025012000000023                000000000009921800000000000000000000000000000000000000000000000000000000000000000000000000   024   1                             20250120                      
1012024112535       000830036333                  REFF    000830036333                  2025022000000024                000000000009921800000000000000000000000000000000000000000000000000000000000000000000000000   024   1                             20250220                      
1012024112535       003640028557                  PARF    003640028557                  2024091900000028                000000000011432200000000000000000000000000000000000000000000000000000000000000000000000000   048   1                             20240919                      
1012024112535       003640028557                  PARF    003640028557                  2024101900000029                000000000011432200000000000000000000000000000000000000000000000000000000000000000000000000   048   1                             20241019                      
1012024112535       003640028557                  PARF    003640028557                  2024111900000030                000000000011432200000000000000000000000000000000000000000000000000000000000000000000000000   048   1                             20241119                      
1012024112535       003640028557                  PARF    003640028557                  2024121900000031                000000000011432200000000000000000000000000000000000000000000000000000000000000000000000000   048   1                             20241219                      
1012024112535       003640028557                  PARF    003640028557                  2025011900000032                000000000011432200000000000000000000000000000000000000000000000000000000000000000000000000   048   1                             20250119                      
1012024112535       003640028557                  PARF    003640028557                  2025021900000033                000000000011432200000000000000000000000000000000000000000000000000000000000000000000000000   048   1                             20250219                      
1012024112535       003640028557                  PARF    003640028557                  2025031900000034                000000000011432200000000000000000000000000000000000000000000000000000000000000000000000000   048   1                             20250319                      
1012024112535       003640028557                  PARF    003640028557                  2025041900000035                000000000011432200000000000000000000000000000000000000000000000000000000000000000000000000   048   1                             20250419                      
1012024112535       003640028557                  PARF    003640028557                  2025051900000036                000000000011432200000000000000000000000000000000000000000000000000000000000000000000000000   048   1                             20250519                      
1012024112535       003640028557                  PARF    003640028557                  2025061900000037                000000000011432200000000000000000000000000000000000000000000000000000000000000000000000000   048   1                             20250619                      
1012024112535       003640028557                  PARF    003640028557                  2025071900000038                000000000011432200000000000000000000000000000000000000000000000000000000000000000000000000   048   1                             20250719                      
1012024112535       003640028557                  PARF    003640028557                  2025081900000039                000000000011432200000000000000000000000000000000000000000000000000000000000000000000000000   048   1                             20250819                      
1012024112535       003640028557                  PARF    003640028557                  2025091900000040                000000000011432200000000000000000000000000000000000000000000000000000000000000000000000000   048   1                             20250919                      
1012024112535       003640028557                  PARF    003640028557                  2025101900000041                000000000011432200000000000000000000000000000000000000000000000000000000000000000000000000   048   1                             20251019                      
1012024112535       003640028557                  PARF    003640028557                  2025111900000042                000000000011432200000000000000000000000000000000000000000000000000000000000000000000000000   048   1                             20251119                      
1012024112535       003640028557                  PARF    003640028557                  2025121900000043                000000000011432200000000000000000000000000000000000000000000000000000000000000000000000000   048   1                             20251219                      
1012024112535       003640028557                  PARF    003640028557                  2026011900000044                000000000011432200000000000000000000000000000000000000000000000000000000000000000000000000   048   1                             20260119                      
1012024112535       003640028557                  PARF    003640028557                  2026021900000045                000000000011432200000000000000000000000000000000000000000000000000000000000000000000000000   048   1                             20260219                      
1012024112535       003640028557                  PARF    003640028557                  2026031900000046                000000000011432200000000000000000000000000000000000000000000000000000000000000000000000000   048   1                             20260319                      
1012024112535       003640028557                  PARF    003640028557                  2026041900000047                000000000011432200000000000000000000000000000000000000000000000000000000000000000000000000   048   1                             20260419                      
1012024112535       003640028557                  PARF    003640028557                  2026051900000048                000000000011432200000000000000000000000000000000000000000000000000000000000000000000000000   048   1                             20260519                      
1012024112535       005200026985                  FCDC    005200026985                  2024091900000024                000000000008809900000000000000000000000000000000000000000000000000000000000000000000000000   048   1                             20240919                      
1012024112535       005200026985                  FCDC    005200026985                  2024101900000025                000000000008809900000000000000000000000000000000000000000000000000000000000000000000000000   048   1                             20241019                      
1012024112535       005200026985                  FCDC    005200026985                  2024111900000026                000000000008809900000000000000000000000000000000000000000000000000000000000000000000000000   048   1                             20241119                      
1012024112535       005200026985                  FCDC    005200026985                  2024121900000027                000000000008809900000000000000000000000000000000000000000000000000000000000000000000000000   048   1                             20241219                      
1012024112535       005200026985                  FCDC    005200026985                  2025011900000028                000000000008809900000000000000000000000000000000000000000000000000000000000000000000000000   048   1                             20250119                      
1012024112535       005200026985                  FCDC    005200026985                  2025021900000029                000000000008809900000000000000000000000000000000000000000000000000000000000000000000000000   048   1                             20250219                      
1012024112535       005200026985                  FCDC    005200026985                  2025031900000030                000000000008809900000000000000000000000000000000000000000000000000000000000000000000000000   048   1                             20250319                      
1012024112535       005200026985                  FCDC    005200026985                  2025041900000031                000000000008809900000000000000000000000000000000000000000000000000000000000000000000000000   048   1                             20250419                      
1012024112535       005200026985                  FCDC    005200026985                  2025051900000032                000000000008809900000000000000000000000000000000000000000000000000000000000000000000000000   048   1                             20250519                      
1012024112535       005200026985                  FCDC    005200026985                  2025061900000033                000000000008809900000000000000000000000000000000000000000000000000000000000000000000000000   048   1                             20250619                      
1012024112535       005200026985                  FCDC    005200026985                  2025071900000034                000000000008809900000000000000000000000000000000000000000000000000000000000000000000000000   048   1                             20250719                      
1012024112535       005200026985                  FCDC    005200026985                  2025081900000035                000000000008809900000000000000000000000000000000000000000000000000000000000000000000000000   048   1                             20250819                      
1012024112535       005200026985                  FCDC    005200026985                  2025091900000036                000000000008809900000000000000000000000000000000000000000000000000000000000000000000000000   048   1                             20250919                      
1012024112535       005200026985                  FCDC    005200026985                  2025101900000037                000000000008809900000000000000000000000000000000000000000000000000000000000000000000000000   048   1                             20251019                      
1012024112535       005200026985                  FCDC    005200026985                  2025111900000038                000000000008809900000000000000000000000000000000000000000000000000000000000000000000000000   048   1                             20251119                      
1012024112535       005200026985                  FCDC    005200026985                  2025121900000039                000000000008809900000000000000000000000000000000000000000000000000000000000000000000000000   048   1                             20251219                      
1012024112535       005200026985                  FCDC    005200026985                  2026011900000040                000000000008809900000000000000000000000000000000000000000000000000000000000000000000000000   048   1                             20260119                      
1012024112535       005200026985                  FCDC    005200026985                  2026021900000041                000000000008809900000000000000000000000000000000000000000000000000000000000000000000000000   048   1                             20260219                      
1012024112535       005200026985                  FCDC    005200026985                  2026031900000042                000000000008809900000000000000000000000000000000000000000000000000000000000000000000000000   048   1                             20260319                      
1012024112535       005200026985                  FCDC    005200026985                  2026041900000043                000000000008809900000000000000000000000000000000000000000000000000000000000000000000000000   048   1                             20260419                      
1012024112535       005200026985                  FCDC    005200026985                  2026051900000044                000000000008809900000000000000000000000000000000000000000000000000000000000000000000000000   048   1                             20260519                      
1012024112535       005200026985                  FCDC    005200026985                  2026061900000045                000000000008809900000000000000000000000000000000000000000000000000000000000000000000000000   048   1                             20260619                      
1012024112535       005200026985                  FCDC    005200026985                  2026071900000046                000000000008809900000000000000000000000000000000000000000000000000000000000000000000000000   048   1                             20260719                      
1012024112535       005200026985                  FCDC    005200026985                  2026081900000047                000000000008809900000000000000000000000000000000000000000000000000000000000000000000000000   048   1                             20260819                      
1012024112535       005200026985                  FCDC    005200026985                  2026091900000048                000000000008809900000000000000000000000000000000000000000000000000000000000000000000000000   048   1                             20260919                      
1012024112535       005390014161                  PARF    005390014161                  2024091900000024                000000000015910200000000000000000000000000000000000000000000000000000000000000000000000000   048   1                             20240919                      
1012024112535       005390014161                  PARF    005390014161                  2024101900000025                000000000015910200000000000000000000000000000000000000000000000000000000000000000000000000   048   1                             20241019                      
