001202411222024112200000089
1012024112215       001620009572                  108178193809   JOSE ANTONIO DOS SANTOS FERNANDES            19610318                                                                                                                                                                                                                                                                                                                                                                                                                                       RUA DAS MANGUEIRAS                                15        ESQUINA                                           ESP DA TRANQUILIDADE     TIETE                  SP18530000                    DEPOSITO DE MAT P C FERN DE TI                                                                      RUA JOSE JOAQUIM                                          15                                                  PARAISO                  TIETE                  SP18530000                            NPE                                          2022111820520408                                                                                                                                                                                                                                                                       MO14688327                    000000000000000000        00000000R15991275672         998312429           39219800            GAHFERNANDES@GMAIL.COM                                      
1012024112215       021970007936                  144846618889   JESSICA LETICIA CARVALHO CERECO              19950629                                                                                                                                                                                                                                                                                                                                                                                                                                       RUA ALCIDES VALINELI                              1026                                                        NUCLEO BERTOLINI         PEDERNEIRAS            SP17280000                    N A                                                                   OUTRAS                        RUA ALCIDES VALINELI                                    1026                                                  NUCLEO BERTOLINI         PEDERNEIRAS            SP172800001140045215                  NPE                                          2022111820520408                                                                                                                                                                                                                                                                       FS409350126                   000000000000000000        00000000R14998445682         998445682           40045215            JEHLETICIA552@GMAIL.COM                                     
1012024112215       021980014529                  111072867788   EMILIE ANNE CORDEIRO GONDIN                  19840620                                                                                                                                                                                                                                                                                                                                                                                                                                       R AGENOR DANTAS GRION                             140                                                         NOVO MILENIO             LINS                   SP16403210                    NAO INFORMADO                                                         GERENTE - TODAS               R AGENOR DANTAS GRION                                    140                                                  NOVO MILENIO             LINS                   SP16403210                            NPE                                          2023062020520408                                                                                                                                                                                                                                                                       FS1107286778                  000000000000000000        00000000R14981444139         998884646           981345561           EGONDINRJ@GMAIL.COM                                         
1012024112215       027180000249                  103011107000123ELITE TURISTICA LTDA                                                                                                                                                                                                                                                                                                                                                                                                                                                                                                                                                                                                                                        22790150                                                                                                                        R GUSTAVO CORCAO                                         871                                                  RCR BANDEIRANTES         RIO DE JANEIRO         RJ22790150                            NPE                                          2023022420520408                                                                                                                                                                                                                                                                        O                            000000000000000000        00000000R21987747076         987747076           987747076           DOUGLASBELCHIOR@ICLOUD.COM                                  
1012024112215       211040045719                  106155177651   DIEGO PEREIRA BARBOSA                        19830221                                                                                                                                                                                                                                                                                                                                                                                                                                       R NIGERIA                                         133                                                         LARANJEIRAS              UBERLANDIA             MG38410312                                                                                          GERENTE - TODAS               R NIGERIA                                                133                                                  LARANJEIRAS              UBERLANDIA             MG38410312                            NPE                                          2024070820520404                                                                                                                                                                                                                                                                       MS                            000000000000000000        00000000R992225161           997806190           992780210                                                                       
1012024112215       034960005346                  139976049838   RENAN FERREIRA DE SOUSA                      19900823                                                                                                                                                                                                                                                                                                                                                                                                                                       RUA ADOLFO ASSON                                  233       CASA 5                                            VILA NOVA SAVOIA         SAO PAULO              SP03532030                                                                                                                        R ALTO DO PARNAIBA                                        96                                                  C PATRIARCA              SAO PAULO              SP03556030                            NPE                                          2023111720520405                                                                                                                                                                                                                                                                       MC47574603                    000000000000000000        00000000R                    969034372           953239213           FSRENAN.SOUSA@GMAIL.COM                                     
1012024112215       038720002239                  156549393191   MARCELO RODRIGUES DO NASCIMENTO              19710710                                                                                                                                                                                                                                                                                                                                                                                                                                       AV CARIRI                                         SN                                                          JARDIM DIAMANTINA        GOIANIA                GO74573130                                                                                          OUTRAS                        AV CARIRI                                                 SN                                                  JARDIM DIAMANTINA        GOIANIA                GO74573130                            NPE                                          2023051820520408                                                                                                                                                                                                                                                                       MS2.019.298                   000000000000000000        00000000R62985349057         992838097           36246998            NEYRODRIGUES@HOTMAIL.COM                                    
1012024112215       025950053000                  110792187695   BRENO ELIAS SANTIAGO                         19911211                                                                                                                                                                                                                                                                                                                                                                                                                                       R RECIFE                                          771       CASA                                              JARDIM CANDELARIA        DIVINOPOLIS            MG35502100                                                                                          EMPRESARIO                                                                                                                                                                                                                        NPE                                          2023022720520319                                                                                                                                                                                                                                                                       MSMG13095724                  000000000000000000        00000000R37988086482         999972207           32147186            BRENOE91@HOTMAIL.COM                                        
1012024112215       038710001207                  133615768817   JUCELIA SANTOS DA SILVA                      19830727                                                                                                                                                                                                                                                                                                                                                                                                                                       R JOAO JACINTHO                                   121                                                         JARDIM MIRASSOL          CAMPINAS               SP13069504                    NAO INFORMADO                                                         OUTRAS                        AV RIO BRANCO                                           1489                                                  CAMPOS ELISEOS           SAO PAULO              SP01295905                            NPE                                          2023112120520408                                                                                                                                                                                                                                                                       FS356364768                   000000000000000000        00000000R1932825967          992421339           1932070451          JUCELIA.SILVA@PORTOSEGURO.COM.BR                            
1012024112215       021130024524                  151549646087   FABIO LEANDRO SIMON RIBEIRO                  19671006                                                                                                                                                                                                                                                                                                                                                                                                                                       R ERNESTO PORFIRIO DOS REIS                       160                                                         ABERTA DOS MORROS        PORTO ALEGRE           RS91755040                    NAO INFORMADO                                                         GERENTE - TODAS               R ERNESTO PORFIRIO DOS REIS                              160                                                  ABERTA DOS MORROS        PORTO ALEGRE           RS91755040                            NPE                                          2023062020520408                                                                                                                                                                                                                                                                       MS5154964608                  000000000000000000        00000000R51993919016         993919016           5132486422          FABIO@F3E.COM.BR                                            
1012024112215       034610002124                  104282037601   ALISSON CARLOS MILHORATO                     19751010                                                                                                                                                                                                                                                                                                                                                                                                                                       R MANICORE                                        179                                                         CACHOEIRINHA             BELO HORIZONTE         MG31150200                    RADIADORES LIDER INDUSTRIA LTD                                                                      R ESTORIL                                               1449                                                  S FRANCISCO              BELO HORIZONTE         MG31255190                            NPE                                          2022110520520408                                                                                                                                                                                                                                                                       MOMG6073246                   000000000000000000        00000000R31998016965         998332995           3134211768          FERNANDAMILHORATO@HOTMAIL.COM                               
1012024112215       023790020122                  104980307507   STEPHANY PAULER SOUZA SANTOS                 19920612                                                                                                                                                                                                                                                                                                                                                                                                                                       EST DA CABRITA                                    327                                                         JABOTIANA                ARACAJU                SE49096020                                                                                          OUTRAS                        EST DA CABRITA                                           327                                                  JABOTIANA                ARACAJU                SE490960201140045215                  NPE                                          2022121920520408                                                                                                                                                                                                                                                                       FO0649821118                  000000000000000000        00000000R79996550309         996550309           79981572379         STEPHANYPAULERSMN@GMAIL.COM                                 
1012024112215       211570025284                  101202992595   GUILHERME SAVIO CUNHA SERPA                  19840310                                                                                                                                                                                                                                                                                                                                                                                                                                       R OTACILIO SANTOS                                 242                                                         BROTAS                   SALVADOR               BA40285840                                                                                          EMPRESARIO                    R OTACILIO SANTOS                                        242                                                  BROTAS                   SALVADOR               BA40285840                            NPE                                          2024042320520319                                                                                                                                                                                                                                                                       MS                            000000000000000000        00000000R                    993070484           986256276                                                                       
1012024112215       211900043543                  111214013767   JOSE ALARCON BECHARA                         19841028                                                                                                                                                                                                                                                                                                                                                                                                                                       R CENTAUREA                                       45        LAGOA PARK                                        SAO JOSE                 LINHARES               ES29905153                                                                                          OUTRAS                        R CENTAUREA                                               45LAGOA PARK                                        SAO JOSE                 LINHARES               ES29905153                            NPE                                          2023062020520408                                                                                                                                                                                                                                                                       MS19297956                    000000000000000000        00000000R27997325852         997325852           981523530           LARCONBECHARA@GMAIL.COM                                     
1012024112215       021970007970                  132215366826   BRUNO SOUZA PEREIRA                          19820824                                                                                                                                                                                                                                                                                                                                                                                                                                       FRANCISCO BENICIO                                 29        CASA                                              JARDIM PANAMBI           PARAGUACU PAULISTA     SP19700000                    N A                                                                   OUTRAS                        FRANCISCO BENICIO                                         29CASA                                              JARDIM PANAMBI           PARAGUACU PAULISTA     SP197000001833615562                  NPE                                          2022111820520408                                                                                                                                                                                                                                                                       MS42096289                    000000000000000000        00000000R18997834931         997834931           33615562            OUTMIX1@HOTMAIL.COM                                         
10120241122Q5       021130024524                  993708307                   OUTROS                        
10120241122Q5       021980014529                  1140045215                  RECADO                        
10120241122Q5       021980014529                  981444339                   OUTROS                        
10120241122Q5       023790020122                  1140045215                  COMERCIAL                     
10120241122Q5       023790020122                  79981572379                 OUTROS                        
10120241122Q5       023790020122                  79998251965                 OUTROS                        
10120241122Q5       023790020122                  79998595006                 OUTROS                        
10120241122Q5       025950053000                  999972207                   OUTROS                        
10120241122Q5       027180000249                  987747076                   OUTROS                        
10120241122Q5       034610002124                  3134218514                  OUTROS                        
10120241122Q5       034610002124                  38892954                    OUTROS                        
10120241122Q5       038710001207                  1932070451                  OUTROS                        
10120241122Q5       038720002239                  985349057                   OUTROS                        
10120241122Q5       211900043543                  1140045215                  RECADO                        
10120241122Q5       021130024524                  7134614070                  OUTROS                        
10120241122Q5       021970007970                  33615562                    OUTROS                        
10120241122Q5       021970007970                  997834931                   OUTROS                        
10120241122Q5       034610002124                  3134211768                  OUTROS                        
10120241122Q5       034610002124                  3134926901                  OUTROS                        
10120241122Q5       034610002124                  31992678822                 OUTROS                        
10120241122Q5       034610002124                  31996009657                 CELULAR                       
10120241122Q5       034610002124                  31998016965                 CELULAR                       
10120241122Q5       034610002124                  34399099                    OUTROS                        
10120241122Q5       034610002124                  995469044                   OUTROS                        
10120241122Q5       034960005346                  953797495                   OUTROS                        
10120241122Q5       038710001207                  976005010                   OUTROS                        
10120241122Q5       038710001207                  992421339                   OUTROS                        
10120241122Q5       211570025284                  986256276                   OUTROS                        
10120241122Q5       021130024524                  5132486422                  OUTROS                        
10120241122Q5       021130024524                  982870484                   OUTROS                        
10120241122Q5       021970007970                  996748829                   OUTROS                        
10120241122Q5       021980014529                  981444139                   OUTROS                        
10120241122Q5       021980014529                  998884646                   OUTROS                        
10120241122Q5       023790020122                  79996550309         0       CELULAR                       
10120241122Q5       023790020122                  988089831                   OUTROS                        
10120241122Q5       025950053000                  37999972207                 OUTROS                        
10120241122Q5       034610002124                  3134216488                  OUTROS                        
10120241122Q5       034610002124                  3134424039                  OUTROS                        
10120241122Q5       034610002124                  31981420077                 OUTROS                        
10120241122Q5       034610002124                  998016965                   OUTROS                        
10120241122Q5       211040045719                  1140045215                  RECADO                        
10120241122Q5       211040045719                  34992780210                 CELULAR                       
10120241122Q5       211040045719                  997806190                   OUTROS                        
10120241122Q5       211570025284                  993070484                   OUTROS                        
10120241122Q5       001620009572                  974061469                   OUTROS                        
10120241122Q5       021970007936                  998445682                   OUTROS                        
10120241122Q5       021970007970                  18996748829         0       CELULAR                       
10120241122Q5       021980014529                  14981444139         0       CELULAR                       
10120241122Q5       023790020122                  79988283980                 OUTROS                        
10120241122Q5       025950053000                  32147186                    OUTROS                        
10120241122Q5       025950053000                  37988086482                 CELULAR                       
10120241122Q5       034610002124                  996009657                   OUTROS                        
10120241122Q5       038710001207                  976003531                   OUTROS                        
10120241122Q5       211040045719                  992780210                   OUTROS                        
10120241122Q5       211570025284                  987879538                   OUTROS                        
10120241122Q5       001620009572                  15991028774                 CELULAR                       
10120241122Q5       001620009572                  991028774                   OUTROS                        
10120241122Q5       021130024524                  1140045215                  RECADO                        
10120241122Q5       021130024524                  51981403174                 OUTROS                        
10120241122Q5       021130024524                  51985925022                 OUTROS                        
10120241122Q5       021130024524                  51991061638                 OUTROS                        
10120241122Q5       021970007936                  14998445682         0       CELULAR                       
10120241122Q5       021970007936                  996374013                   OUTROS                        
10120241122Q5       021970007936                  997290675                   OUTROS                        
10120241122Q5       021970007970                  1833615562                  COMERCIAL                     
10120241122Q5       023790020122                  79988089831                 OUTROS                        
10120241122Q5       025950053000                  37988535930                 OUTROS                        
10120241122Q5       034610002124                  31984463108                 OUTROS                        
10120241122Q5       034610002124                  982532011                   OUTROS                        
10120241122Q5       034610002124                  998332995                   OUTROS                        
10120241122Q5       034960005346                  11953797495                 RECADO                        
10120241122Q5       034960005346                  953239213                   OUTROS                        
10120241122Q5       038720002239                  62985349057         0       CELULAR                       
10120241122Q5       038720002239                  992838097                   OUTROS                        
10120241122Q5       211900043543                  27981523530                 CELULAR                       
10120241122Q5       211900043543                  981523530                   OUTROS                        
10120241122Q5       211900043543                  997325852                   OUTROS                        
10120241122Q5       021130024524                  51993919016         0       CELULAR                       
10120241122Q5       021130024524                  993919016                   OUTROS                        
10120241122Q5       021970007970                  18997834931         0       CELULAR                       
10120241122Q5       023790020122                  996550309                   OUTROS                        
10120241122Q5       025950053000                  988086482                   OUTROS                        
10120241122Q5       027180000249                  21987747076                 CELULAR                       
10120241122Q5       034960005346                  969034372                   OUTROS                        
10120241122Q5       038710001207                  953211489                   OUTROS                        
10120241122Q5       038720002239                  36246998                    OUTROS                        
10120241122Q5       211570025284                  1140045215                  RECADO                        
10120241122Q5       211570025284                  71986256276                 RECADO                        
10120241122Q5       001620009572                  15991275672         0       CELULAR                       
10120241122Q5       001620009572                  998312429                   OUTROS                        
10120241122Q5       021130024524                  5133503759                  OUTROS                        
10120241122Q5       021130024524                  5136802641                  OUTROS                        
10120241122Q5       021130024524                  991900518                   OUTROS                        
10120241122Q5       021970007936                  1140045215                  COMERCIAL                     
10120241122Q5       021970007936                  40045215                    OUTROS                        
10120241122Q5       021970007936                  963740136                   OUTROS                        
10120241122Q5       023790020122                  79988377781                 OUTROS                        
10120241122Q5       025950053000                  988557186                   OUTROS                        
10120241122Q5       034610002124                  3134399099                  CELULAR                       
10120241122Q5       034610002124                  31985049368                 OUTROS                        
10120241122Q5       038710001207                  19953211489                 CELULAR                       
10120241122Q5       038710001207                  19976003531         0       CELULAR                       
10120241122Q5       038710001207                  976000173                   OUTROS                        
10120241122Q5       211040045719                  992225161                   CELULAR                       
10120241122Q5       211900043543                  993020122                   OUTROS                        
10120241122Q5       001620009572                  39219800                    OUTROS                        
10120241122Q5       001620009572                  991275672                   OUTROS                        
10120241122Q5       021130024524                  5132763489                  OUTROS                        
10120241122Q5       021130024524                  5133503607                  OUTROS                        
10120241122Q5       021130024524                  51981166388                 OUTROS                        
10120241122Q5       021130024524                  51981866934                 OUTROS                        
10120241122Q5       021130024524                  51982870484                 BLOQUEADO                     
10120241122Q5       021980014529                  981345561                   OUTROS                        
10120241122Q5       027180000249                  21974399486                 CELULAR                       
10120241122Q5       034610002124                  3134443319                  OUTROS                        
10120241122Q5       038710001207                  1932825967                  CELULAR                       
10120241122Q5       211570025284                  986256279                   OUTROS                        
10120241122Q5       211900043543                  27997325852         0       CELULAR                       
1012024112225       025950053000                  FCDC    025950053000                  02595   CORRESPONDENTE                                                                                    02595   CORRESPONDENTE CREDI                         00000000024372370000000000000000000020220425036         1                                                                                                                                                                                                                                                                                                                                                                                                                                                                                                                                                                                                            000000000000015697                                                                                                 
1012024112225       021980014529                  REFF    021980014529                  02198   CORRESP.  PRESI                                                                                   02198   CORRESP.  PRESIDENTE                         00000000011760130000000000000000000020230417024         1                                                                                                                                                                                                                                                                                                                                                                                                                                                                                                                                                                                                            000000000000033464                                                                                                 
1012024112225       038720002239                  FSEG    038720002239                  03872   NOVACAO COBRANC                                                                                   03872   NOVACAO COBRANCA CON                         00000000024544680000000000000000000020230217025         1                                                                                                                                                                                                                                                                                                                                                                                                                                                                                                                                                                                                            000000000000012200                                                                                                 
1012024112225       021130024524                  REFF    021130024524                  02113   PORTOSUL - RS                                                                                     02113   PORTOSUL - RS                                00000000009306900000000000000000000020230518060         1                                                                                                                                                                                                                                                                                                                                                                                                                                                                                                                                                                                                            000000000000023916                                                                                                 
1012024112225       021970007936                  PARF    021970007936                  02197   CORRESPONDENTE                                                                                    02197   CORRESPONDENTE  BAUR                         00000000006293300000000000000000000020201117048         1                                                                                                                                                                                                                                                                                                                                                                                                                                                                                                                                                                                                            000000000000016563                                                                                                 
1012024112225       038710001207                  FSEG    038710001207                  03871   NOVACAO COBRANC                                                                                   03871   NOVACAO COBRANCA  AM                         00000000005380980000000000000000000020230215024         1                                                                                                                                                                                                                                                                                                                                                                                                                                                                                                                                                                                                            000000000000015300                                                                                                 
1012024112225       211900043543                  REFF    211900043543                  21190   CORRESPONDENTE                                                                                    21190   CORRESPONDENTE ESPIR                         00000000015959650000000000000000000020230215048         1                                                                                                                                                                                                                                                                                                                                                                                                                                                                                                                                                                                                            000000000000024153                                                                                                 
1012024112225       023790020122                  PARF    023790020122                  02379   CORRESPONDENTE                                                                                    02379   CORRESPONDENTE - DIS                         00000000029781560000000000000000000020220818036         1                                                                                                                                                                                                                                                                                                                                                                                                                                                                                                                                                                                                            000000000000023315                                                                                                 
1012024112225       038720004785                  FSEG    038720004785                  03872   NOVACAO COBRANC                                                                                   03872   NOVACAO COBRANCA CON                         00000000015257740000000000000000000020240603036         3                                                                                                                                                                                                                                                                                                                                                                                                                                                                                                                                                                                                            000000000000015900                                                                                                 
1012024112225       050090002545                  REFF    050090002545                  05009   SUCURSAL S?O PA                                                                                   05009   SUCURSAL S?O PAULO I                         00000000033762430000000000000000000020230411036         3                                                                                                                                                                                                                                                                                                                                                                                                                                                                                                                                                                                                            000000000000026638                                                                                                 
1012024112225       001620009572                  REFF    001620009572                  00162   REGIONAL - SORO                                                                                   00162   REGIONAL - SOROCABA                          00000000004895530000000000000000000020191017060         1                                                                                                                                                                                                                                                                                                                                                                                                                                                                                                                                                                                                            000000000000026608                                                                                                 
1012024112225       021970007970                  FCDC    021970007970                  02197   CORRESPONDENTE                                                                                    02197   CORRESPONDENTE  BAUR                         00000000017498800000000000000000000020201117048         1                                                                                                                                                                                                                                                                                                                                                                                                                                                                                                                                                                                                            000000000000012170                                                                                                 
1012024112225       034610002124                  CSPF    034610002124                  03461   DINAMICA EMPRES                                                                                   03460   BONSUCESSO CORR DE S                         00000000040153970000000000000000000020220714048         1                                                                                                                                                                                                                                                                                                                                                                                                                                                                                                                                                                                                            000000000000020100                                                                                                 
1012024112225       003640031586                  PARJ    003640031586                  00364   REGIONAL - SAO                                                                                    00364   REGIONAL - SAO JOSE                          00000000050240250000000000000000000020221227036         3                                                                                                                                                                                                                                                                                                                                                                                                                                                                                                                                                                                                            000000000000020000                                                                                                 
1012024112225       211040045719                  FCDC    211040045719                  21104   CORRESP.  RIBEI                                                                                   21104   CORRESP.  RIBEIR?O P                         00000000050764110000000000000000000020240508048         1                                                                                                                                                                                                                                                                                                                                                                                                                                                                                                                                                                                                            000000000000017981                                                                                                 
1012024112225       034960005346                  REFF    034960005346                  03496   CORRESPONDENTE                                                                                    03496   CORRESPONDENTE PENHA                         00000000009246050000000000000000000020221116024         1                                                                                                                                                                                                                                                                                                                                                                                                                                                                                                                                                                                                            000000000000028948                                                                                                 
1012024112225       037830000411                  2X1     037830000411                  03783   CORRESPONDENTE                                                                                    03783   CORRESPONDENTE SUZAN                         00000000052396080000000000000000000020210830060         3                                                                                                                                                                                                                                                                                                                                                                                                                                                                                                                                                                                                            000000000000024256                                                                                                 
1012024112225       027180000249                  UTLJ    027180000249                  02718   FERNANDO GUERRA                                                                                   02332   M R S NEGOCIOS CORRE                         00000000120712970000000000000000000020230117048         1                                                                                                                                                                                                                                                                                                                                                                                                                                                                                                                                                                                                            000000000000030800                                                                                                 
1012024112225       211570025284                  FCDC    211570025284                  21157   CORRESPONDENTE                                                                                    21157   CORRESPONDENTE BAHIA                         00000000037549320000000000000000000020240311060         1                                                                                                                                                                                                                                                                                                                                                                                                                                                                                                                                                                                                            000000000000020796                                                                                                 
1012024112225       038720002713                  FSEG    038720002713                  03872   NOVACAO COBRANC                                                                                   03872   NOVACAO COBRANCA CON                         00000000009922750000000000000000000020230405026         3                                                                                                                                                                                                                                                                                                                                                                                                                                                                                                                                                                                                            000000000000013700                                                                                                 
1012024112235       000830037271                  REFF    000830037271                  2024011600000010        20240930000000000009436100000000000000000000000000000000000000000000000000000000000000000005486400   024   7                            C20240116                      
1012024112235       001620009572                  REFF    001620009572                  2024091700000059                000000000007587100000000000000000000000000000000000000000000000000000000000000000000000000   060   1                             20240917                      
1012024112235       001620009572                  REFF    001620009572                  2024101700000060                000000000007587100000000000000000000000000000000000000000000000000000000000000000000000000   060   1                             20241017                      
1012024112235       021130018470                  REFF    021130018470                  2023042800000012        20240401000000000021415600000000000000000000000000000000000000000000000000000000000000000005391900   048   7                            C20230428                      
1012024112235       021130024524                  REFF    021130024524                  2024091700000016                000000000002943900000000000000000000000000000000000000000000000000000000000000000000000000   060   1                             20240917                      
1012024112235       021130024524                  REFF    021130024524                  2024101700000017                000000000002943900000000000000000000000000000000000000000000000000000000000000000000000000   060   1                             20241017                      
1012024112235       021130024524                  REFF    021130024524                  2024121700000019                000000000002943900000000000000000000000000000000000000000000000000000000000000000000000000   060   1                             20241217                      
1012024112235       021130024524                  REFF    021130024524                  2025011700000020                000000000002943900000000000000000000000000000000000000000000000000000000000000000000000000   060   1                             20250117                      
1012024112235       021130024524                  REFF    021130024524                  2025021700000021                000000000002943900000000000000000000000000000000000000000000000000000000000000000000000000   060   1                             20250217                      
1012024112235       021130024524                  REFF    021130024524                  2025031700000022                000000000002943900000000000000000000000000000000000000000000000000000000000000000000000000   060   1                             20250317                      
1012024112235       021130024524                  REFF    021130024524                  2025041700000023                000000000002943900000000000000000000000000000000000000000000000000000000000000000000000000   060   1                             20250417                      
1012024112235       021130024524                  REFF    021130024524                  2025051700000024                000000000002943900000000000000000000000000000000000000000000000000000000000000000000000000   060   1                             20250517                      
1012024112235       021130024524                  REFF    021130024524                  2025061700000025                000000000002943900000000000000000000000000000000000000000000000000000000000000000000000000   060   1                             20250617                      
1012024112235       021130024524                  REFF    021130024524                  2025071700000026                000000000002943900000000000000000000000000000000000000000000000000000000000000000000000000   060   1                             20250717                      
1012024112235       021130024524                  REFF    021130024524                  2025081700000027                000000000002943900000000000000000000000000000000000000000000000000000000000000000000000000   060   1                             20250817                      
1012024112235       021130024524                  REFF    021130024524                  2025091700000028                000000000002943900000000000000000000000000000000000000000000000000000000000000000000000000   060   1                             20250917                      
1012024112235       021130024524                  REFF    021130024524                  2025101700000029                000000000002943900000000000000000000000000000000000000000000000000000000000000000000000000   060   1                             20251017                      
1012024112235       021130024524                  REFF    021130024524                  2025111700000030                000000000002943900000000000000000000000000000000000000000000000000000000000000000000000000   060   1                             20251117                      
1012024112235       021130024524                  REFF    021130024524                  2025121700000031                000000000002943900000000000000000000000000000000000000000000000000000000000000000000000000   060   1                             20251217                      
1012024112235       021130024524                  REFF    021130024524                  2026011700000032                000000000002943900000000000000000000000000000000000000000000000000000000000000000000000000   060   1                             20260117                      
1012024112235       021130024524                  REFF    021130024524                  2026021700000033                000000000002943900000000000000000000000000000000000000000000000000000000000000000000000000   060   1                             20260217                      
1012024112235       021130024524                  REFF    021130024524                  2026031700000034                000000000002943900000000000000000000000000000000000000000000000000000000000000000000000000   060   1                             20260317                      
1012024112235       021130024524                  REFF    021130024524                  2026041700000035                000000000002943900000000000000000000000000000000000000000000000000000000000000000000000000   060   1                             20260417                      
1012024112235       021130024524                  REFF    021130024524                  2026051700000036                000000000002943900000000000000000000000000000000000000000000000000000000000000000000000000   060   1                             20260517                      
1012024112235       021130024524                  REFF    021130024524                  2026061700000037                000000000002943900000000000000000000000000000000000000000000000000000000000000000000000000   060   1                             20260617                      
1012024112235       021130024524                  REFF    021130024524                  2026071700000038                000000000002943900000000000000000000000000000000000000000000000000000000000000000000000000   060   1                             20260717                      
1012024112235       021130024524                  REFF    021130024524                  2026081700000039                000000000002943900000000000000000000000000000000000000000000000000000000000000000000000000   060   1                             20260817                      
1012024112235       021130024524                  REFF    021130024524                  2026091700000040                000000000002943900000000000000000000000000000000000000000000000000000000000000000000000000   060   1                             20260917                      
1012024112235       021130024524                  REFF    021130024524                  2026101700000041                000000000002943900000000000000000000000000000000000000000000000000000000000000000000000000   060   1                             20261017                      
1012024112235       021130024524                  REFF    021130024524                  2026111700000042                000000000002943900000000000000000000000000000000000000000000000000000000000000000000000000   060   1                             20261117                      
1012024112235       021130024524                  REFF    021130024524                  2026121700000043                000000000002943900000000000000000000000000000000000000000000000000000000000000000000000000   060   1                             20261217                      
1012024112235       021130024524                  REFF    021130024524                  2027011700000044                000000000002943900000000000000000000000000000000000000000000000000000000000000000000000000   060   1                             20270117                      
1012024112235       021130024524                  REFF    021130024524                  2027021700000045                000000000002943900000000000000000000000000000000000000000000000000000000000000000000000000   060   1                             20270217                      
1012024112235       021130024524                  REFF    021130024524                  2027031700000046                000000000002943900000000000000000000000000000000000000000000000000000000000000000000000000   060   1                             20270317                      
1012024112235       021130024524                  REFF    021130024524                  2027041700000047                000000000002943900000000000000000000000000000000000000000000000000000000000000000000000000   060   1                             20270417                      
1012024112235       021130024524                  REFF    021130024524                  2027051700000048                000000000002943900000000000000000000000000000000000000000000000000000000000000000000000000   060   1                             20270517                      
1012024112235       021130024524                  REFF    021130024524                  2027061700000049                000000000002943900000000000000000000000000000000000000000000000000000000000000000000000000   060   1                             20270617                      
1012024112235       021130024524                  REFF    021130024524                  2027071700000050                000000000002943900000000000000000000000000000000000000000000000000000000000000000000000000   060   1                             20270717                      
1012024112235       021130024524                  REFF    021130024524                  2027081700000051                000000000002943900000000000000000000000000000000000000000000000000000000000000000000000000   060   1                             20270817                      
1012024112235       021130024524                  REFF    021130024524                  2027091700000052                000000000002943900000000000000000000000000000000000000000000000000000000000000000000000000   060   1                             20270917                      
1012024112235       021130024524                  REFF    021130024524                  2027101700000053                000000000002943900000000000000000000000000000000000000000000000000000000000000000000000000   060   1                             20271017                      
1012024112235       021130024524                  REFF    021130024524                  2027111700000054                000000000002943900000000000000000000000000000000000000000000000000000000000000000000000000   060   1                             20271117                      
1012024112235       021130024524                  REFF    021130024524                  2027121700000055                000000000002943900000000000000000000000000000000000000000000000000000000000000000000000000   060   1                             20271217                      
1012024112235       021130024524                  REFF    021130024524                  2028011700000056                000000000002943900000000000000000000000000000000000000000000000000000000000000000000000000   060   1                             20280117                      
1012024112235       021130024524                  REFF    021130024524                  2028021700000057                000000000002943900000000000000000000000000000000000000000000000000000000000000000000000000   060   1                             20280217                      
1012024112235       021130024524                  REFF    021130024524                  2028031700000058                000000000002943900000000000000000000000000000000000000000000000000000000000000000000000000   060   1                             20280317                      
1012024112235       021130024524                  REFF    021130024524                  2028041700000059                000000000002943900000000000000000000000000000000000000000000000000000000000000000000000000   060   1                             20280417                      
1012024112235       021130024524                  REFF    021130024524                  2028051700000060                000000000002943900000000000000000000000000000000000000000000000000000000000000000000000000   060   1                             20280517                      
1012024112235       021970007936                  PARF    021970007936                  2024091700000046                000000000004746600000000000000000000000000000000000000000000000000000000000000000000000000   048   1                             20240917                      
1012024112235       021970007936                  PARF    021970007936                  2024101700000047                000000000004746600000000000000000000000000000000000000000000000000000000000000000000000000   048   1                             20241017                      
1012024112235       021970007936                  PARF    021970007936                  2024111700000048                000000000004746600000000000000000000000000000000000000000000000000000000000000000000000000   048   1                             20241117                      
1012024112235       021970007970                  FCDC    021970007970                  2024091700000046                000000000011300800000000000000000000000000000000000000000000000000000000000000000000000000   048   1                             20240917                      
1012024112235       021970007970                  FCDC    021970007970                  2024101700000047                000000000011300800000000000000000000000000000000000000000000000000000000000000000000000000   048   1                             20241017                      
1012024112235       021970007970                  FCDC    021970007970                  2024111700000048                000000000011300800000000000000000000000000000000000000000000000000000000000000000000000000   048   1                             20241117                      
1012024112235       021980014529                  REFF    021980014529                  2024091700000017                000000000007674000000000000000000000000000000000000000000000000000000000000000000000000000   024   1                             20240917                      
1012024112235       021980014529                  REFF    021980014529                  2024101700000018                000000000007674000000000000000000000000000000000000000000000000000000000000000000000000000   024   1                             20241017                      
1012024112235       021980014529                  REFF    021980014529                  2024111700000019                000000000007674000000000000000000000000000000000000000000000000000000000000000000000000000   024   1                             20241117                      
1012024112235       021980014529                  REFF    021980014529                  2024121700000020                000000000007674000000000000000000000000000000000000000000000000000000000000000000000000000   024   1                             20241217                      
1012024112235       021980014529                  REFF    021980014529                  2025011700000021                000000000007674000000000000000000000000000000000000000000000000000000000000000000000000000   024   1                             20250117                      
1012024112235       021980014529                  REFF    021980014529                  2025021700000022                000000000007674000000000000000000000000000000000000000000000000000000000000000000000000000   024   1                             20250217                      
1012024112235       021980014529                  REFF    021980014529                  2025031700000023                000000000007674000000000000000000000000000000000000000000000000000000000000000000000000000   024   1                             20250317                      
1012024112235       021980014529                  REFF    021980014529                  2025041700000024                000000000007674000000000000000000000000000000000000000000000000000000000000000000000000000   024   1                             20250417                      
1012024112235       023790020122                  PARF    023790020122                  2024091700000025                000000000013971600000000000000000000000000000000000000000000000000000000000000000000000000   036   1                             20240917                      
1012024112235       023790020122                  PARF    023790020122                  2024101700000026                000000000013971600000000000000000000000000000000000000000000000000000000000000000000000000   036   1                             20241017                      
1012024112235       023790020122                  PARF    023790020122                  2024111700000027                000000000013971600000000000000000000000000000000000000000000000000000000000000000000000000   036   1                             20241117                      
1012024112235       023790020122                  PARF    023790020122                  2024121700000028                000000000013971600000000000000000000000000000000000000000000000000000000000000000000000000   036   1                             20241217                      
1012024112235       023790020122                  PARF    023790020122                  2025011700000029                000000000013971600000000000000000000000000000000000000000000000000000000000000000000000000   036   1                             20250117                      
1012024112235       023790020122                  PARF    023790020122                  2025021700000030                000000000013971600000000000000000000000000000000000000000000000000000000000000000000000000   036   1                             20250217                      
1012024112235       023790020122                  PARF    023790020122                  2025031700000031                000000000013971600000000000000000000000000000000000000000000000000000000000000000000000000   036   1                             20250317                      
1012024112235       023790020122                  PARF    023790020122                  2025041700000032                000000000013971600000000000000000000000000000000000000000000000000000000000000000000000000   036   1                             20250417                      
1012024112235       023790020122                  PARF    023790020122                  2025051700000033                000000000013971600000000000000000000000000000000000000000000000000000000000000000000000000   036   1                             20250517                      
1012024112235       023790020122                  PARF    023790020122                  2025061700000034                000000000013971600000000000000000000000000000000000000000000000000000000000000000000000000   036   1                             20250617                      
1012024112235       023790020122                  PARF    023790020122                  2025071700000035                000000000013971600000000000000000000000000000000000000000000000000000000000000000000000000   036   1                             20250717                      
1012024112235       023790020122                  PARF    023790020122                  2025081700000036                000000000013971600000000000000000000000000000000000000000000000000000000000000000000000000   036   1                             20250817                      
1012024112235       025850000471                  ESPF    025850000471                  2021012500000033        20231228000000000008651800000000000000000000000000000000000000000000000000000000000000000001854500   036   7                            C20210125                      
1012024112235       025950053000                  FCDC    025950053000                  2023122500000020                000000000012820200000000000000000000000000000000000000000000000000000000000000000000000000   036   1                             20231225                      
1012024112235       025950053000                  FCDC    025950053000                  2024012500000021                000000000012820200000000000000000000000000000000000000000000000000000000000000000000000000   036   1                             20240125                      
1012024112235       025950053000                  FCDC    025950053000                  2024022500000022                000000000012820200000000000000000000000000000000000000000000000000000000000000000000000000   036   1                             20240225                      
1012024112235       025950053000                  FCDC    025950053000                  2024032500000023                000000000012820200000000000000000000000000000000000000000000000000000000000000000000000000   036   1                             20240325                      
1012024112235       025950053000                  FCDC    025950053000                  2024042500000024                000000000012820200000000000000000000000000000000000000000000000000000000000000000000000000   036   1                             20240425                      
1012024112235       025950053000                  FCDC    025950053000                  2024052500000025                000000000012820200000000000000000000000000000000000000000000000000000000000000000000000000   036   1                             20240525                      
1012024112235       025950053000                  FCDC    025950053000                  2024062500000026                000000000012820200000000000000000000000000000000000000000000000000000000000000000000000000   036   1                             20240625                      
1012024112235       025950053000                  FCDC    025950053000                  2024072500000027                000000000012820200000000000000000000000000000000000000000000000000000000000000000000000000   036   1                             20240725                      
1012024112235       025950053000                  FCDC    025950053000                  2024082500000028                000000000012820200000000000000000000000000000000000000000000000000000000000000000000000000   036   1                             20240825                      
1012024112235       025950053000                  FCDC    025950053000                  2024092500000029                000000000012820200000000000000000000000000000000000000000000000000000000000000000000000000   036   1                             20240925                      
1012024112235       025950053000                  FCDC    025950053000                  2024102500000030                000000000012820200000000000000000000000000000000000000000000000000000000000000000000000000   036   1                             20241025                      
1012024112235       025950053000                  FCDC    025950053000                  2024112500000031                000000000012820200000000000000000000000000000000000000000000000000000000000000000000000000   036   1                             20241125                      
1012024112235       025950053000                  FCDC    025950053000                  2024122500000032                000000000012820200000000000000000000000000000000000000000000000000000000000000000000000000   036   1                             20241225                      
1012024112235       025950053000                  FCDC    025950053000                  2025012500000033                000000000012820200000000000000000000000000000000000000000000000000000000000000000000000000   036   1                             20250125                      
1012024112235       025950053000                  FCDC    025950053000                  2025022500000034                000000000012820200000000000000000000000000000000000000000000000000000000000000000000000000   036   1                             20250225                      
1012024112235       025950053000                  FCDC    025950053000                  2025032500000035                000000000012820200000000000000000000000000000000000000000000000000000000000000000000000000   036   1                             20250325                      
1012024112235       025950053000                  FCDC    025950053000                  2025042500000036                000000000012820200000000000000000000000000000000000000000000000000000000000000000000000000   036   1                             20250425                      
1012024112235       025950064913                  REFF    025950064913                  2024080200000022        20230710000000000006077300000000000000000000000000000000000000000000000000000000000000000002138200   048   7                            C20240802                      
1012024112235       027120020365                  PARF    027120020365                  2024030400000031        20240624000000000010531000000000000000000000000000000000000000000000000000000000000000000005873000   048   7                            C20240304                      
1012024112235       027180000249                  UTLJ    027180000249                  2024091700000020                000000000050447800000000000000000000000000000000000000000000000000000000000000000000000000   048   1                             20240917                      
1012024112235       027180000249                  UTLJ    027180000249                  2024101700000021                000000000050447800000000000000000000000000000000000000000000000000000000000000000000000000   048   1                             20241017                      
1012024112235       027180000249                  UTLJ    027180000249                  2024111700000022                000000000050447800000000000000000000000000000000000000000000000000000000000000000000000000   048   1                             20241117                      
1012024112235       027180000249                  UTLJ    027180000249                  2024121700000023                000000000050447800000000000000000000000000000000000000000000000000000000000000000000000000   048   1                             20241217                      
1012024112235       027180000249                  UTLJ    027180000249                  2025011700000024                000000000050447800000000000000000000000000000000000000000000000000000000000000000000000000   048   1                             20250117                      
1012024112235       027180000249                  UTLJ    027180000249                  2025021700000025                000000000050447800000000000000000000000000000000000000000000000000000000000000000000000000   048   1                             20250217                      
1012024112235       027180000249                  UTLJ    027180000249                  2025031700000026                000000000050447800000000000000000000000000000000000000000000000000000000000000000000000000   048   1                             20250317                      
1012024112235       027180000249                  UTLJ    027180000249                  2025041700000027                000000000050447800000000000000000000000000000000000000000000000000000000000000000000000000   048   1                             20250417                      
1012024112235       027180000249                  UTLJ    027180000249                  2025051700000028                000000000050447800000000000000000000000000000000000000000000000000000000000000000000000000   048   1                             20250517                      
1012024112235       027180000249                  UTLJ    027180000249                  2025061700000029                000000000050447800000000000000000000000000000000000000000000000000000000000000000000000000   048   1                             20250617                      
1012024112235       027180000249                  UTLJ    027180000249                  2025071700000030                000000000050447800000000000000000000000000000000000000000000000000000000000000000000000000   048   1                             20250717                      
1012024112235       027180000249                  UTLJ    027180000249                  2025081700000031                000000000050447800000000000000000000000000000000000000000000000000000000000000000000000000   048   1                             20250817                      
1012024112235       027180000249                  UTLJ    027180000249                  2025091700000032                000000000050447800000000000000000000000000000000000000000000000000000000000000000000000000   048   1                             20250917                      
1012024112235       027180000249                  UTLJ    027180000249                  2025101700000033                000000000050447800000000000000000000000000000000000000000000000000000000000000000000000000   048   1                             20251017                      
1012024112235       027180000249                  UTLJ    027180000249                  2025111700000034                000000000050447800000000000000000000000000000000000000000000000000000000000000000000000000   048   1                             20251117                      
1012024112235       027180000249                  UTLJ    027180000249                  2025121700000035                000000000050447800000000000000000000000000000000000000000000000000000000000000000000000000   048   1                             20251217                      
1012024112235       027180000249                  UTLJ    027180000249                  2026011700000036                000000000050447800000000000000000000000000000000000000000000000000000000000000000000000000   048   1                             20260117                      
1012024112235       027180000249                  UTLJ    027180000249                  2026021700000037                000000000050447800000000000000000000000000000000000000000000000000000000000000000000000000   048   1                             20260217                      
1012024112235       027180000249                  UTLJ    027180000249                  2026031700000038                000000000050447800000000000000000000000000000000000000000000000000000000000000000000000000   048   1                             20260317                      
1012024112235       027180000249                  UTLJ    027180000249                  2026041700000039                000000000050447800000000000000000000000000000000000000000000000000000000000000000000000000   048   1                             20260417                      
1012024112235       027180000249                  UTLJ    027180000249                  2026051700000040                000000000050447800000000000000000000000000000000000000000000000000000000000000000000000000   048   1                             20260517                      
1012024112235       027180000249                  UTLJ    027180000249                  2026061700000041                000000000050447800000000000000000000000000000000000000000000000000000000000000000000000000   048   1                             20260617                      
1012024112235       027180000249                  UTLJ    027180000249                  2026071700000042                000000000050447800000000000000000000000000000000000000000000000000000000000000000000000000   048   1                             20260717                      
1012024112235       027180000249                  UTLJ    027180000249                  2026081700000043                000000000050447800000000000000000000000000000000000000000000000000000000000000000000000000   048   1                             20260817                      
1012024112235       027180000249                  UTLJ    027180000249                  2026091700000044                000000000050447800000000000000000000000000000000000000000000000000000000000000000000000000   048   1                             20260917                      
1012024112235       027180000249                  UTLJ    027180000249                  2026101700000045                000000000050447800000000000000000000000000000000000000000000000000000000000000000000000000   048   1                             20261017                      
1012024112235       027180000249                  UTLJ    027180000249                  2026111700000046                000000000050447800000000000000000000000000000000000000000000000000000000000000000000000000   048   1                             20261117                      
1012024112235       027180000249                  UTLJ    027180000249                  2026121700000047                000000000050447800000000000000000000000000000000000000000000000000000000000000000000000000   048   1                             20261217                      
1012024112235       027180000249                  UTLJ    027180000249                  2027011700000048                000000000050447800000000000000000000000000000000000000000000000000000000000000000000000000   048   1                             20270117                      
1012024112235       027320008129                  PARF    027320008129                  2023081100000024        20240930000000000027578600000000000000000000000000000000000000000000000000000000000000000010212200   048   7                            C20230811                      
1012024112235       030120044096                  FCDC    030120044096                  2024031400000039        20240625000000000013903200000000000000000000000000000000000000000000000000000000000000000012339500   048   7                            C20240314                      
1012024112235       030120054118                  PARF    030120054118                  2024110600000043        20240930000000000012978300000000000000000000000000000000000000000000000000000000000000000000675400   060   7                            C20241106                      
1012024112235       032710000421                  ESPF    032710000421                  2024101100000041        20240729000000000010389300000000000000000000000000000000000000000000000000000000000000000002030300   060   7                            C20241011                      
1012024112235       034610002124                  CSPF    034610002124                  2024091400000026                000000000014481000000000000000000000000000000000000000000000000000000000000000000000000000   048   1                             20240914                      
1012024112235       034610002124                  CSPF    034610002124                  2024101400000027                000000000014481000000000000000000000000000000000000000000000000000000000000000000000000000   048   1                             20241014                      
1012024112235       034610002124                  CSPF    034610002124                  2024111400000028                000000000014481000000000000000000000000000000000000000000000000000000000000000000000000000   048   1                             20241114                      
1012024112235       034610002124                  CSPF    034610002124                  2024121400000029                000000000014481000000000000000000000000000000000000000000000000000000000000000000000000000   048   1                             20241214                      
1012024112235       034610002124                  CSPF    034610002124                  2025011400000030                000000000014481000000000000000000000000000000000000000000000000000000000000000000000000000   048   1                             20250114                      
1012024112235       034610002124                  CSPF    034610002124                  2025021400000031                000000000014481000000000000000000000000000000000000000000000000000000000000000000000000000   048   1                             20250214                      
1012024112235       034610002124                  CSPF    034610002124                  2025031400000032                000000000014481000000000000000000000000000000000000000000000000000000000000000000000000000   048   1                             20250314                      
1012024112235       034610002124                  CSPF    034610002124                  2025041400000033                000000000014481000000000000000000000000000000000000000000000000000000000000000000000000000   048   1                             20250414                      
1012024112235       034610002124                  CSPF    034610002124                  2025051400000034                000000000014481000000000000000000000000000000000000000000000000000000000000000000000000000   048   1                             20250514                      
1012024112235       034610002124                  CSPF    034610002124                  2025061400000035                000000000014481000000000000000000000000000000000000000000000000000000000000000000000000000   048   1                             20250614                      
1012024112235       034610002124                  CSPF    034610002124                  2025071400000036                000000000014481000000000000000000000000000000000000000000000000000000000000000000000000000   048   1                             20250714                      
1012024112235       034610002124                  CSPF    034610002124                  2025081400000037                000000000014481000000000000000000000000000000000000000000000000000000000000000000000000000   048   1                             20250814                      
1012024112235       034610002124                  CSPF    034610002124                  2025091400000038                000000000014481000000000000000000000000000000000000000000000000000000000000000000000000000   048   1                             20250914                      
1012024112235       034610002124                  CSPF    034610002124                  2025101400000039                000000000014481000000000000000000000000000000000000000000000000000000000000000000000000000   048   1                             20251014                      
1012024112235       034610002124                  CSPF    034610002124                  2025111400000040                000000000014481000000000000000000000000000000000000000000000000000000000000000000000000000   048   1                             20251114                      
1012024112235       034610002124                  CSPF    034610002124                  2025121400000041                000000000014481000000000000000000000000000000000000000000000000000000000000000000000000000   048   1                             20251214                      
1012024112235       034610002124                  CSPF    034610002124                  2026011400000042                000000000014481000000000000000000000000000000000000000000000000000000000000000000000000000   048   1                             20260114                      
1012024112235       034610002124                  CSPF    034610002124                  2026021400000043                000000000014481000000000000000000000000000000000000000000000000000000000000000000000000000   048   1                             20260214                      
1012024112235       034610002124                  CSPF    034610002124                  2026031400000044                000000000014481000000000000000000000000000000000000000000000000000000000000000000000000000   048   1                             20260314                      
1012024112235       034610002124                  CSPF    034610002124                  2026041400000045                000000000014481000000000000000000000000000000000000000000000000000000000000000000000000000   048   1                             20260414                      
1012024112235       034610002124                  CSPF    034610002124                  2026051400000046                000000000014481000000000000000000000000000000000000000000000000000000000000000000000000000   048   1                             20260514                      
1012024112235       034610002124                  CSPF    034610002124                  2026061400000047                000000000014481000000000000000000000000000000000000000000000000000000000000000000000000000   048   1                             20260614                      
1012024112235       034610002124                  CSPF    034610002124                  2026071400000048                000000000014481000000000000000000000000000000000000000000000000000000000000000000000000000   048   1                             20260714                      
1012024112235       034960005346                  REFF    034960005346                  2024091400000020                000000000010534300000000000000000000000000000000000000000000000000000000000000000000000000   024   1                             20240914                      
1012024112235       034960005346                  REFF    034960005346                  2024101400000021                000000000010534300000000000000000000000000000000000000000000000000000000000000000000000000   024   1                             20241014                      
1012024112235       034960005346                  REFF    034960005346                  2024111400000022                000000000010534300000000000000000000000000000000000000000000000000000000000000000000000000   024   1                             20241114                      
1012024112235       034960005346                  REFF    034960005346                  2024121400000023                000000000010534300000000000000000000000000000000000000000000000000000000000000000000000000   024   1                             20241214                      
1012024112235       034960005346                  REFF    034960005346                  2025011400000024                000000000010534300000000000000000000000000000000000000000000000000000000000000000000000000   024   1                             20250114                      
1012024112235       035160003067                  PARF    035160003067                  2023111200000027        20240730000000000020099400000000000000000000000000000000000000000000000000000000000000000006246300   036   7                            C20231112                      
