001202411222024112200000090
1012024112215       021130027471                  187349345020   ISABELLE CHRISTINE DANN NUNEZ                19971121                                                                                                                                                                                                                                                                                                                                                                                                                                       R PARQUE PIONEIRO                                 745                                                         NEOPOLIS                 GRAVATAI               RS94100480                                                                                          OUTRAS                        R PARQUE PIONEIRO                                        745                                                  NEOPOLIS                 GRAVATAI               RS94100480                            NPE                                          2024091620241215                                                                                                                                                                                                                                                                       FS                            000000000000000000        00000000R                                                                                                                        
1012024112215       032690017141                  104468198320   LUIZ ALVES DOS SANTOS                        19510710                                                                                                                                                                                                                                                                                                                                                                                                                                       RUA JOAO SOUZA RIBEIRO                            SN        QD 64 LT 13                                       NOVO HORIZONTE 3         CANAA DOS CARAJAS      PA68537000                                                                                          OUTRAS                        RUA JOAO SOUZA RIBEIRO                                  L 13                                                  NOVO HORIZONTE 3         CANAA DOS CARAJAS      PA685370001140045215                  NPE                                          2022110520241215                                                                                                                                                                                                                                                                       MS0040937890                  000000000000000000        00000000R991273678           992456835           992006130           NATALYA_DIAS01@HOTMAIL.COM                                  
1012024112215       000830035464                  135659244890   JULIANO DIEGO DE LIMA                        19870720                                                                                                                                                                                                                                                                                                                                                                                                                                       R JOAO GALLEGO                                    265       CASA                                              JARDIM DAS BANDEIRAS     CAMPINAS               SP13051132                    CARGAS INTERNACIONAIS                                                 GERENTE - TODAS               R GUSTAVO ORSOLINI                                      6523PREDIO                                            JARDIM NOVA MERCEDES     CAMPINAS               SP13052501                            NPE                                          2022121620241215                                                                                                                                                                                                                                                                       MS0379579304                  000000000000000000        00000000R19993459185         993459185           991718809           DIEGOJ003@GMAIL.COM                                         
1012024112215       030120082442                  109687345705   ANA ELISA DE SOUZA ALMEIDA                   19800605                                                                                                                                                                                                                                                                                                                                                                                                                                       EST DO CORREGO                                    29        QD 33                                             CHACARAS ARCAMPO         DUQUE DE CAXIAS        RJ25251180                                                                                          OUTRAS                        AL WILSON                                                204                                                  JD PRIMAVERA             DUQUE DE CAXIAS        RJ252152532127730569                  NPE                                          2023011620241215                                                                                                                                                                                                                                                                       FS0549423821                  000000000000000000        00000000R21978773084         978773084           977506390                                                                       
1012024112215       036200001742                  115624813716   ALOISIO FINCO BRUMATTI                       19960808                                                                                                                                                                                                                                                                                                                                                                                                                                       AV GABRIEL EMILIO                                 179                                                         BOAPABA                  COLATINA               ES29719000                    ACADEMIA ELITE FITNESS CENTER                                         GERENTE - TODAS               R ADWALTER RIBEIRO SOARES                                147                                                  CENTRO                   COLATINA               ES29700210                            NPE                                          2024091620241215                                                                                                                                                                                                                                                                       MS3499940                     000000000000000000        00000000R27998184937         998184937           998184937           ALOISIO_BRUMATTI@HOTMAIL.COM                                
1012024112215       032690012484                  105727178657   DAVI ANSELMO TEIXEIRA DE SOUZA               19831222                                                                                                                                                                                                                                                                                                                                                                                                                                       R ANDARAI                                         160                                                         TIJUCA                   CONTAGEM               MG32180330                                                                                          OUTRAS                        R ANDARAI                                                160                                                  TIJUCA                   CONTAGEM               MG32180330                            NPE                                          2022110520241215                                                                                                                                                                                                                                                                       MS0306572596                  000000000000000000        00000000R31991302185         998600019           987078713           POLIANSELMO@GMAIL.COM                                       
1012024112215       037820004028                  126535826864   EDEMILSON ANTONIO JACINTO                    19790327                                                                                                                                                                                                                                                                                                                                                                                                                                       TEREZA RODRIGUES DE ALMEIDA                       145       CASA                                              CONJUNTO HABITACIONAL DILITARARE                SP18462616                    NENHUMA                                                               GERENTE - TODAS               TEREZA RODRIGUES DE ALMEIDA                              145CASA                                              CONJUNTO HABITACIONAL DILITARARE                SP18462616                            NPE                                          2024061720241215                                                                                                                                                                                                                                                                       MS33340942                    000000000000000000        00000000R                    997300101           997300101                                                                       
1012024112215       211900029354                  114021566775   GUSTAVO FERREIRA DIAS                        19931213                                                                                                                                                                                                                                                                                                                                                                                                                                       AV LEITAO DA SILVA                                20                                                          ANDORINHAS               VITORIA                ES29045110                                                                                          OUTRAS                        AV LEITAO DA SILVA                                        20                                                  ANDORINHAS               VITORIA                ES29045110                            NPE                                          2023020720241210                                                                                                                                                                                                                                                                       MS0653039290                  000000000000000000        00000000R27999992491         999046701           27997823951         MARCELLAPEREIRA959@GMAIL.COM                                
1012024112215       050300003103                  119158332804   MARCELO DA SILVA                             19741211                                                                                                                                                                                                                                                                                                                                                                                                                                       ALEXANDRE COPEDE                                  481       LESTE                                             NUCLEO HABITACIONAL DONA PEDERNEIRAS            SP17284488                    NENHUMA                                                               GERENTE - TODAS               ALEXANDRE COPEDE                                         481LESTE                                             NUCLEO HABITACIONAL DONA PEDERNEIRAS            SP17284488                            NPE                                          2024041620241215                                                                                                                                                                                                                                                                       MS254010027                   000000000000000000        00000000R                    996805533           996805533                                                                       
1012024112215       005200024074                  108139387916   JENIFFER CRISTINA DA SILVA                   19890726                                                                                                                                                                                                                                                                                                                                                                                                                                       R EDUARDO BAENA                                   178                                                         CIDADE INDUSTRIAL        CURITIBA               PR81460199                                                                                          GERENTE - TODAS               R EDUARDO BAENA                                          178                                                  CIDADE INDUSTRIAL        CURITIBA               PR81460199                            NPE                                          2023011620241215                                                                                                                                                                                                                                                                       FS123258142                   000000000000000000        00000000R997064128                                                                                                               
1012024112215       035900001819                  141152960890   VICTOR HUGO SECO CORREIA DA SILVA            19910601                                                                                                                                                                                                                                                                                                                                                                                                                                       R ANTONIO DE COUROS                               373                                                         VILA PALMEIRAS           SAO PAULO              SP02726000                                                                                          EMPRESARIO                    R ANTONIO DE COUROS                                      373                                                  VILA PALMEIRAS           SAO PAULO              SP027260001141193368                  NPE                                          2022120720241226                                                                                                                                                                                                                                                                       MS10870757                    000000000000000000        00000000R11982090987         982090987           966735675           VICTORHUGOSECO@GMAIL.COM                                    
1012024112215       035210005904                  134839985863   BRUNO PRACIANO DE CAMARGO                    19870811                                                                                                                                                                                                                                                                                                                                                                                                                                       R CELSO RAMOS                                     360       AP 61                                             VL ANDRADE               SAO PAULO              SP05734080                                                                                          OUTRAS                        R ENXOVIA                                                472AP 2106                                           VILA SAO FRANCISCO ZONA SSAO PAULO              SP04711030                            NPE                                          2024061720241215                                                                                                                                                                                                                                                                       MO0372579634                  000000000000000000        00000000R11941423345         984968736           1137425277          BRUNOPRACIANOCAMARGO@GMAIL.COM                              
1012024112215       021130013588                  101349221074   JOCASTA OLIVEIRA DA ROSA GONCALVES           19901104                                                                                                                                                                                                                                                                                                                                                                                                                                       R ALMIRO BARCELOS                                 46                                                          STELLA MARIS             ALVORADA               RS94855766                    ESCOLA DE EDUCACAO INFANTIL SE                                        GERENTE - TODAS               R SARGENTO MANOEL ARRUDA                                 405                                                  JARDIM CARVALHO          PORTO ALEGRE           RS914302205133892802                  NPE                                          2024091620241214                                                                                                                                                                                                                                                                       FS0482002357                  000000000000000000        00000000R51994488551         994488551           993163414           JOCASTAGONCALVES25@GMAIL.COM                                
1012024112215       030120044247                  102679254333   RAFAEL LIMA PEREIRA                          19880321                                                                                                                                                                                                                                                                                                                                                                                                                                       R 15                                              26        CJ SITIO SAO JOAO                                 JANGURUSSU               FORTALEZA              CE60876440                    PEPSICO DO BRASIL LTDA                                                GERENTE - TODAS               AV. QUARTO ANEL VIARIO                                  2700                                                  PAUPINA                  FORTALEZA              CE617600008533117650                  NPE                                          2023011620241215                                                                                                                                                                                                                                                                       MS0395855435                  000000000000000000        00000000R85986022364         986022364           986022364           RAFALIMA.PEPSICO@OUTLOOK.COM                                
1012024112215       037820003000                  106730030941   RALF MAGUILEY DA ROCHA                       19890328                                                                                                                                                                                                                                                                                                                                                                                                                                       AL DOUTOR JOSE CARDEAL                            70                                                          JARDIM PEDROSO           INDAIATUBA             SP13343100                    PJ VEICULOS                                                           GERENTE - TODAS               AL DOUTOR JOSE CARDEAL                                    12                                                  JARDIM PEDROSO           INDAIATUBA             SP13343100                            NPE                                          2023041720241215                                                                                                                                                                                                                                                                       MS0412320970                  000000000000000000        00000000R19997774415                                                 PJVEICULOS2022@GMAIL.COM                                    
1012024112215       025950060899                  170216065160   LANA MARIA MARTINS                           19960716                                                                                                                                                                                                                                                                                                                                                                                                                                       R 11                                              SN        QD 4 LT 21 CS1                                    RESIDENCIAL PAULO ESTRELAGOIANIA                GO74786432                                                                                          GERENTE - TODAS               R 11                                                      SN                                                  RESIDENCIAL PAULO ESTRELAGOIANIA                GO74786432                            NPE                                          2023012320241226                                                                                                                                                                                                                                                                       FS0635357635                  000000000000000000        00000000R                    991910550           991910550           LANAMARTINS1906@HOTMAIL.COM                                 
1012024112215       030690000863                  123492237878   DANILO RODRIGUES SILVA MONTEIRO              19930301                                                                                                                                                                                                                                                                                                                                                                                                                                       R ESTACIO DE SA                                   131                                                         PAISAGEM COLONIAL        SAO ROQUE              SP18136680                    AMARAL ASSESSORIA EMPRESARIAL                                         GERENTE - TODAS               AV ANHANGUERA                                            339                                                  JARDIM BANDEIRANTES      SAO ROQUE              SP181342401147842417                  NPE                                          2023012320241226                                                                                                                                                                                                                                                                       MS49531277                    000000000000000000        00000000R995148742           950672249           1124593255          DANILOMONTEIRORODRIGUES93@GMAIL.COM                         
1012024112215       023620037292                  132275498672   GERALDA CASTANHEIRA RAMOS                    19590623                                                                                                                                                                                                                                                                                                                                                                                                                                       R RADIALISTA DAKIR POLIDORO                       195       AP 101 BL B                                       CAMPECHE                 FLORIANOPOLIS          SC88063565                                                                                          APOSENTADO                                                                                                                                                                                                                        NPE                                          2023061220241211                                                                                                                                                                                                                                                                       FS12655277                    000000000000000000        00000000R48998466657         998466657           32061426            RAFAEL.C.RAMOS17@GMAIL.COM                                  
1012024112215       037820002353                  114477932855   DORACI VILMA MACHADO DELFINO                 19531112                                                                                                                                                                                                                                                                                                                                                                                                                                       R ZELIA DULCE DE CAMPOS MAIA                      428       AP 33                                             JD PAULISTANO            SOROCABA               SP18040580                                                                                                                                                                                                                                                                                                                            NPE                                          2023042420241226                                                                                                                                                                                                                                                                       FO9593028                     000000000000000000        00000000R15997619716         997781643           997619716           NAOTEM@GMAIL.COM                                            
1012024112215       021980012005                  114572457875   ALEXANDRE DE SOUZA                           19730517                                                                                                                                                                                                                                                                                                                                                                                                                                       PAULINODA SILVA                                   385                                                         FRAGATA                  MARILIA                SP17501250                                                                                                                                                                                                                                                                                                                            NPE                                          2022111720241215                                                                                                                                                                                                                                                                       MO19621021                    000000000000000000        00000000R14997862805         997862805           981750360           ALEXANDRE52032@GMAIL.COM                                    
1012024112215       032340003208                  108710544429   ALLAN DAVIDSON PORTO FONSECA                 19930524                                                                                                                                                                                                                                                                                                                                                                                                                                       R DEPUTADO LUIZ CLEMENTINO DE OLIVEIRA            43        CASA                                              JAGUARIBE                JOAO PESSOA            PB58015600                                                                                          OUTRAS                        R DEPUTADO LUIZ CLEMENTINO DE OLIVEIRA                    43CASA                                              JAGUARIBE                JOAO PESSOA            PB580156001140045215                  NPE                                          2022111720241215                                                                                                                                                                                                                                                                       MS3835593                     000000000000000000        00000000R83996141962         988834436           988834436           ERNANDEFONSECA@YAHOO.COM.BR                                 
1012024112215       030120092662                  105787719778   ROGERIO SANTOS DE OLIVEIRA                   19840701                                                                                                                                                                                                                                                                                                                                                                                                                                       R SANTO APOLINARIO                                SN        LT8 CS2 QD                                        SENADOR VASCONCELOS      RIO DE JANEIRO         RJ23012070                    POP TRADE                                                             GERENTE - TODAS               AV ALMIRANTE BARROSO                                      81SL 3304                                           CENTRO                   RIO DE JANEIRO         RJ20031004                            NPE                                          2024031820241215                                                                                                                                                                                                                                                                       MS0653816891                  000000000000000000        00000000R979548043           970776879           970776879                                                                       
1012024112215       021130025454                  102781354040   SHAYANNA SANHUDO DE OLIVEIRA TONIOLO         19940709                                                                                                                                                                                                                                                                                                                                                                                                                                       R LUIZ CORREA DA SILVA                            3006                                                        LAMI                     PORTO ALEGRE           RS91787520                                                                                                                                                                                                                                                                                                                            NPE                                          2023101620241215                                                                                                                                                                                                                                                                       FO                            000000000000000000        00000000R                    985959228           985959228                                                                       
1012024112215       038720001837                  107984262764   ANDREIA AUGUSTO MIRANDA GARCIA               19800111                                                                                                                                                                                                                                                                                                                                                                                                                                       R JOSE VERISSIMO                                  19        308                                               MEIER                    RIO DE JANEIRO         RJ20720180                    ESCRITORIO DE ADVOCACIA                                               OUTRAS                        R JOSE VERISSIMO                                          19308                                               MEIER                    RIO DE JANEIRO         RJ20720180                            NPE                                          2023030220241221                                                                                                                                                                                                                                                                       FS123.031                     000000000000000000        00000000R21981729949         981729949           967161846           AAMGADV@GMAIL.COM                                           
1012024112215       055410000882                  112069350819   ROSANA APARECIDA GABRIEL                     19691024                                                                                                                                                                                                                                                                                                                                                                                                                                       PC ADEMAR TOMAZ                                   196       BL B2 AP01                                        JARDIM CHAPADAO          CAMPINAS               SP13070012                                                                                          GERENTE - TODAS               PC ADEMAR TOMAZ                                          196                                                  JARDIM CHAPADAO          CAMPINAS               SP13070012                            NPE                                          2024071720241215                                                                                                                                                                                                                                                                       FS                            000000000000000000        00000000R                    988712865           988712865                                                                       
1012024112215       038720002084                  137324506860   LEANDRO DE SALLES TIDIOLI                    19961128                                                                                                                                                                                                                                                                                                                                                                                                                                       R NOEL BARRETO                                    95                                                          JARDIM MARIA AMELIA      JACAREI                SP12318570                                                                                          OUTRAS                        R NOEL BARRETO                                            95                                                  JARDIM MARIA AMELIA      JACAREI                SP12318570                            NPE                                          2023041720241215                                                                                                                                                                                                                                                                       MS47771931-4                  000000000000000000        00000000R12992057585         997915727           991320530           TIDIOLINATALIA@GMAIL.COM                                    
1012024112215       030120105696                  107610905763   ROGERIO LUIS PEREIRA DOS SANTOS              19770508                                                                                                                                                                                                                                                                                                                                                                                                                                       RUA CONCORDIA                                     2         CASA 6                                            BANANAL                  GUAPIMIRIM             RJ25946473                                                                                                                        RUA CONCORDIA                                              2CASA 6                                            BANANAL                  GUAPIMIRIM             RJ25946473                            NPE                                          2024082020241221                                                                                                                                                                                                                                                                       MO103501003                   000000000000000000        00000000R21965297599         965297599           965297599                                                                       
1012024112215       050200008479                  176786668453   EDUARDO BARBOSA DO NASCIMENTO                19750402                                                                                                                                                                                                                                                                                                                                                                                                                                       R CENTO E NOVENTA E OITO                          146                                                         CAETES I                 ABREU E LIMA           PE53530492                                                                                          OUTRAS                        R CENTO E NOVENTA E OITO                                 146                                                  CAETES I                 ABREU E LIMA           PE53530492                            NPE                                          2024111820241214                                                                                                                                                                                                                                                                       MS4074344                     000000000000000000        00000000R81987102365         996938103           996938103                                                                       
1012024112215       000040057163                  112424921000160LUISAG AUTO SOCORRO LTDA                                                                                                                                                                                                                                                                                                                                                                                                                                                                    R ROQUE DE MORAIS                                 232       TERREOAPTO. 02                                    LIMAO                    SAO PAULO              SP02721030                                                                                                                        R ROQUE DE MORAIS                                        232TERREOAPTO. 02                                    LIMAO                    SAO PAULO              SP02721030                            NPE                                          2024110520241130                                                                                                                                                                                                                                                                        O                            000000000000000000        00000000R                                                            LUISAG.AUTOSOCORRO@GMAIL.COM                                
1012024112215       005400014384                  129022936821   ELISANGELA MARIA DE LIMA MARTINS             19811201                                                                                                                                                                                                                                                                  11995503523                                                                                                                                                          R OLIMPIO TOLEDO PRADO                            57                                                          VILA MUNICIPAL           BRAGANCA PAULISTA      SP12912300                                                                                          CORRETOR                      TV TAMOIO                                                 54                                                  MATADOURO                BRAGANCA PAULISTA      SP12910341                            NPE                                          2024091620241215                                                                                                                                                                                                                                                                       FC28755676                    000000000000000000        00000000R                    995503523           993644330                                                                       
1012024112215       034960008025                  115352467821   MARCELO HYGINO DA CUNHA                      19770318                                                                                                                                                                                                                                                                                                                                                                                                                                       ANGOERA                                           397                                                         JARDIM TEXTIL            SAO PAULO              SP03415090                                                                                          OUTRAS                        ANGOERA                                                  397                                                  JARDIM TEXTIL            SAO PAULO              SP03415090                            NPE                                          2024091620241215                                                                                                                                                                                                                                                                       MS22092957                    000000000000000000        00000000R                    993820443           993820443                                                                       
1012024112215       055410001645                  105283039102   TULIO CARVALHO GONCALVES MALHEIROS           19960709                                                                                                                                                                                                                                                                                                                                                                                                                                       R CACERES                                         37                                                          CANELAS                  VARZEA GRANDE          MT78135060                                                                                          OUTRAS                        PADRE LUIZ MARIA GUISONE                                   0                                                  CENTROSUL                VARZEA GRANDE          MT78110110                            NPE                                          2024091620241215                                                                                                                                                                                                                                                                       MS8000338                     000000000000000000        00000000R                                                                                                                        
1012024112215       022800022103                  109565256104   CELIO RENATO FERREIRA FREITAS                19530809                                                                                                                                                                                                                                                                                                                                                                                                                                       R CASTRO ALVES                                    543                                                         CENTRO                   JATAI                  GO75800021                                                                                          OUTRAS                        R CASTRO ALVES                                           543                                                  CENTRO                   JATAI                  GO75800021                            NPE                                          2023100920241208                                                                                                                                                                                                                                                                       MS0037166422                  000000000000000000        00000000R                    999575087           996006121           LANAFF06@ICLOUD.COM                                         
1012024112215       054880000526                  104593183812   JOAO BATISTA DOS SANTOS                      19610519                                                                                                                                                                                                                                                                                                                                                                                                                                       R CORONEL JOAO DE OLIVEIRA                        1001      AP304 BL 6                                        MESSEJANA                FORTALEZA              CE60841820                    POLICIA MILITAR DO CEARA                                              APOSENTADO                                                                                                                                                                                                                        NPE                                          2024061720241215                                                                                                                                                                                                                                                                       MS                            000000000000000000        00000000R                                                                                                                        
1012024112215       026090010872                  167982875491   MARIA LUCIA NASCIMENTO DOS SANTOS            19700906                                                                                                                                                                                                                                                                                                                                                                                                                                       AV SAO CARLOS                                     25                                                          PETROPOLIS               MACEIO                 AL57062475                                                                                          OUTRAS                        AV SAO CARLOS                                             25                                                  PETROPOLIS               MACEIO                 AL570624751140045215                  NPE                                          2023011620241215                                                                                                                                                                                                                                                                       FS00913981                    000000000000000000        00000000R82998010799         998316160           988209109           ISOARESJV@GMAIL.COM                                         
1012024112215       032340001590                  109738017432   KAROLLYNE SILVA DE BARROS                    19931128                                                                                                                                                                                                                                                                                                                                                                                                                                       R VISCONDE DE PELOTAS                             162       SALA 04                                           CENTRO                   JOAO PESSOA            PB580130001140045215                                                                                OUTRAS                        R VISCONDE DE PELOTAS                                    162SALA 04                                           CENTRO                   JOAO PESSOA            PB58013000                            NPE                                          2023012320241226                                                                                                                                                                                                                                                                       FS36974642                    000000000000000000        00000000R83986864419         998947665           981170071           BARROSKAROL86@GMAIL.COM                                     
1012024112215       211900037418                  111917581769   LINDEBERG SOUZA DOS SANTOS                   19870211                                                                                                                                                                                                                                                                                                                                                                                                                                       AV DO TESTA                                       70                                                          NOVA ESPERANCA           LINHARES               ES29908625                                                                                          OUTRAS                        AV DO TESTA                                               70                                                  NOVA ESPERANCA           LINHARES               ES299086251140045215                  NPE                                          2022121620241215                                                                                                                                                                                                                                                                       MS0598506415                  000000000000000000        00000000R999984868           998249267           40045215            JULIANAROSA2526@GMAIL.COM                                   
1012024112215       023790014646                  100451316193   CAMILA PEREIRA RODRIGUES                     19931229                                                                                                                                                                                                                                                                                                                                                                                                                                       Q QUADRA                                          21        21 CJ E                                           PARANOA                  BRASILIA               DF71572105                                                                                          OUTRAS                        Q QUADRA                                                  2121 CJ E                                           PARANOA                  BRASILIA               DF715721056130365659                  NPE                                          2022121920241221                                                                                                                                                                                                                                                                       FS2409458                     000000000000000000        00000000R61994246445         994246445           61994472686         CAMILAFELIPE21@HOTMAIL.COM                                  
1012024112215       025950066860                  105421662918   ALISSON FRANCISCO FARIA                      19900518                                                                                                                                                                                                                                                                                                                                                                                                                                       R JULIO COZZETTI                                  1671      APTO 101                                          PARQUE DA FONTE          SAO JOSE DOS PINHAIS   PR83050600                                                                                          GERENTE - TODAS               R JULIO COZZETTI                                        1671                                                  PARQUE DA FONTE          SAO JOSE DOS PINHAIS   PR83050600                            NPE                                          2022121920241221                                                                                                                                                                                                                                                                       MS95322093                    000000000000000000        00000000R988582724           987782442           4135034319          ALISSONFFARIA@HOTMAIL.COM                                   
1012024112215       034430004305                  133567617818   SAMUEL DE JESUS CLARA                        19860409                                                                                                                                                                                                                                                                                                                                                                                                                                       AV F                                              133                                                         PARQUE CONTINENTAL       GUARULHOS              SP07085230                                                                                          OUTRAS                        AV F                                                     133                                                  PARQUE CONTINENTAL       GUARULHOS              SP070852301140045215                  NPE                                          2023011620241215                                                                                                                                                                                                                                                                       MS407267384                   000000000000000000        00000000R11992590356         992774526           992590356           TALITAMOTA.CONTASARECEBER@GMAIL.COM                         
1012024112215       030120088444                  135946962787   SOLANGE DE SOUZA MOREIRA                     19470502                                                                                                                                                                                                                                                                                                                                                                                                                                       AV ALMIRANTE ARY PARREIRAS                        655       1003                                              ICARAI                   NITEROI                RJ242303212136280486                                                                                APOSENTADO                                                                                                                                                                                                                        NPE                                          2023011620241215                                                                                                                                                                                                                                                                       FV02537070-1                  000000000000000000        00000000R21999858804         999858804           999858804           SOLMOR64@GMAIL.COM                                          
1012024112215       000850020555                  121738472876   RICARDO TOLEDO SUSSI                         19800627                                                                                                                                                                                                                                                                                                                                                                                                                                       R CARIDA                                          67                                                          VILA EMIR                SAO PAULO              SP044610001155453171          29 CARTORIO DE SANTO AMARO                                            GERENTE - TODAS               AV SANTO AMARO                                          6635                                                  SANTO AMARO              SAO PAULO              SP04701100                            NPE                                          2023011620241215                                                                                                                                                                                                                                                                       MS0316880754                  000000000000000000        00000000R11953541281                                                                                                             
1012024112215       038710001851                  119549105849   SANDRA ELIZABETH SANTOS DE ANDRADE           19500122                                                                                                                                                                                                                                                                                                                                                                                                                                       R JOSE CLEMENTE PEREIRA                           169                                                         CPO GRANDE               SANTOS                 SP11070321                                                                                                                                                                                                                                                                                                                            NPE                                          2024041620241215                                                                                                                                                                                                                                                                       MO4385246                     000000000000000000        00000000R                    981182308           981182308           ELISANDSA@GMAIL.COM                                         
1012024112215       025950074568                  142185514806   LAECIO VI   SOUSA                            19960330                                                                                                                                                                                                                                                                                                                                                                                                                                       RUA ALZIRINHA CAMARGO                             5                                                           RESIDENCIAL SOL NASCENTE SAO PAULO              SP05280040                                                                                          EMPRESARIO                    RUA ALZIRINHA CAMARGO                                      5                                                  RESIDENCIAL SOL NASCENTE SAO PAULO              SP05280040                            NPE                                          2023121820241215                                                                                                                                                                                                                                                                       MS                            000000000000000000        00000000R                    949392233           949392233                                                                       
1012024112215       037140000015                  179791514100   CLEITON ANTONIO EVANGELISTA                  19720412                                                                                                                                                                                                                                                                                                                                                                                                                                       RUA 13 DE AGOSTO                                  SN        Q15 L 7                                           SETOR SUL                SANTO ANTONIO DE GOIAS GO75375000                                                                                          OUTRAS                        RUA 13 DE AGOSTO                                          SNQ15 L 7                                           SETOR SUL                SANTO ANTONIO DE GOIAS GO753750001140045215                  NPE                                          2022121620241215                                                                                                                                                                                                                                                                       MS3357949                     000000000000000000        00000000R62984143476         984143476           984143476                                                                       
1012024112215       025950025416                  101171339810   ANA MARIA ZANELATO                           19580527                                                                                                                                                                                                                                                                                                                                                                                                                                       R RUA CACHOEIRA PORAQUE                           24        AP 13 A ESTAC 1                                   CONJUNTO PROMORAR RA     SAO PAULO              SP055744501134631432                                                                                APOSENTADO                                                                                                                                                                                                                        NPE                                          2022111720241215                                                                                                                                                                                                                                                                       FS107744193                   000000000000000000        00000000R989816993           991509173           991509173           ANA.M.ZANELATO@GMAIL.COM                                    
1012024112215       025530005198                  103035696543   WALTER SANTOS NETO                           19860710                                                                                                                                                                                                                                                                                                                                                                                                                                       RUA HH                                            55        CJ J ALVES                                        TAICOCA                  NOSSA SENHORA DO SOCORRSE49160000                                                                                          OUTRAS                        RUA HH                                                    55CJ J ALVES                                        TAICOCA                  NOSSA SENHORA DO SOCORRSE491600001140045215                  NPE                                          2022121920241221                                                                                                                                                                                                                                                                       MS31629440                    000000000000000000        00000000R79998172186         998172186           988807580           WALTERSANTOS10@HOTMAIL.COM                                  
1012024112215       037830008091                  129219269899   KARINA GOMES DE MORAIS                       19800706                                                                                                                                                                                                                                                                                                                                                                                                                                       AV NELLUSCO LOURENCO BORATTO                      90        AP 103 T 2                                        CEZAR DE SOUZA           MOGI DAS CRUZES        SP08820290                                                                                          EMPRESARIO                                                                                                                                                                                                                        NPE                                          2024050620241205                                                                                                                                                                                                                                                                       FS                            000000000000000000        00000000R                    950299138           950299138                                                                       
1012024112215       211570020209                  132681224500   KLEBER WILDER FERNANDES PITA                 19640509                                                                                                                                                                                                                                                                                                                                                                                                                                       R DE CIMA                                         2         Q E                                               GLEBA A                  CAMACARI               BA42803844                                                                                          APOSENTADO                                                                                                                                                                                                                        NPE                                          2023032220241215                                                                                                                                                                                                                                                                       MS204031274                   000000000000000000        00000000R71986461187         986461187           986461187           KLEBER.WILDR@GMAIL.COM                                      
1012024112215       037830000687                  126427875833   EDSON FERREIRA DA ROCHA                      19771213                                                                                                                                                                                                                                                                  1155172499                                                                                                                                                           RUA CATANGUA                                      55                                                          CIDADE IPAVA             SAO PAULO              SP04951020                                                                                          MOTORISTA                                                                                                                                                                                                                         NPE                                          2022110520241215                                                                                                                                                                                                                                                                       MS29501496                    000000000000000000        00000000R982936984           985690171           55172740            EDSONFERREIRADAROCHA80@GMAIL.COM                            
1012024112215       000830038547                  101276269641   FRANCISCO CARLOS XAVIER                      19770711                                                                                                                                                                                                                                                                                                                                                                                                                                       DOUTOR DANTE ERBOLATO                             350       CASA FUNDO                                        CIDADE SATELITE IRIS     CAMPINAS               SP13059646                                                                                          OUTRAS                        DOUTOR DANTE ERBOLATO                                    350CASA FUNDO                                        CIDADE SATELITE IRIS     CAMPINAS               SP13059646                            NPE                                          2023101620241215                                                                                                                                                                                                                                                                       MS536834180                   000000000000000000        00000000R                                                            FCCHAVIER@GMAIL.COM                                         
1012024112215       033010005415                  135795881848   DANILO RAMOS DE OLIVEIRA                     19881227                                                                                                                                                                                                                                                                                                                                                                                                                                       R CATUMBI                                         39                                                          JARDIM SAO REMO          SAO PAULO              SP05360110                                                                                          EMPRESARIO                                                                                                                                                                                                                        NPE                                          2023111720241215                                                                                                                                                                                                                                                                       MS449788805                   000000000000000000        00000000R962875468           962073136           940486108           DANILO.RAMOS.OLIVEIRA@HOTMAIL.COM                           
1012024112215       031170000161                  135941576870   FERNANDO DOMINGUES FORTES                    19880118                                                                                                                                                                                                                                                                                                                                                                                                                                       R SOSSOIA                                         298                                                         JARDIM PEDRO JOSE NUNES  SAO PAULO              SP08061090                                                                                          GERENTE - TODAS               R SOSSOIA                                                298                                                  JARDIM PEDRO JOSE NUNES  SAO PAULO              SP08061090                            NPE                                          2023072420241226                                                                                                                                                                                                                                                                       MS45948788                    000000000000000000        00000000R11976049992         976049992           976049992           FDFORTES@VOEGOL.COM.BR                                      
1012024112215       038840001468                  117194323842   JOSE FRANCISCO DEL PASSO                     19750706                                                                                                                                                                                                                                                                                                                                                                                                                                       R BENEDITO DA CUNHA CAMPOS                        535       3A 402                                            JARDIM NAZARETH          MOGI MIRIM             SP138066101935499916          DUETO DISTRIBUIDORA DE VEICULO                                        GERENTE - TODAS               R PADRE ROQUE                                           2855                                                  JARDIM AUREA             MOGI MIRIM             SP13800207                            NPE                                          2023011620241215                                                                                                                                                                                                                                                                       MS264945220                   000000000000000000        00000000R19996938771         996938771           19996824637         DELPASSOJOSEFRANCISCO@GMAIL.COM                             
1012024112215       211570018468                  168639287520   JAIRO QUEIROZ BARRETO                        19730823                                                                                                                                                                                                                                                                                                                                                                                                                                       AV MANOEL J M MEDRADO                             671                                                         CENTRO                   IACU                   BA46860000                    PREFEITURA MUNICIPAL DE IACU                                          GERENTE - TODAS               RUA SANTO ANTONIO                                         SN                                                  CENTRO                   IACU                   BA468600007533252175                  NPE                                          2022121920241221                                                                                                                                                                                                                                                                       MS0196377083                  000000000000000000        00000000R75991525092         33252175            33252175            FABIOSP84@HOTMAIL.COM                                       
1012024112215       053160002101                  104415995837   EDNA DE OLIVEIRA PRADO DOS SANTOS            19620305                                                                                                                                                                                                                                                                                                                                                                                                                                       R VOLUNTARIO BENEDITO SERGIO                      1085      CASA D 10                                         PARQUE SAO CRISTOVAO     TAUBATE                SP12053000                                                                                          APOSENTADO                                                                                                                                                                                                                        NPE                                          2023061620241215                                                                                                                                                                                                                                                                       FS15993793                    000000000000000000        00000000R12997183208         997183208           997183208           EDNAPRADO.08@GMAIL.COM                                      
1012024112215       038720004201                  102377231829   JOSE CARLOS PEREZ                            19611011                                                                                                                                                                                                                                                                                                                                                                                                                                       R PONTA DAS PEDRAS                                658       CASA                                              JARDIM AERO RANCHO       CAMPO GRANDE           MS79083830                                                                                          OUTRAS                        R COIMBRA                                                244                                                  JARDIM AERO RANCHO       CAMPO GRANDE           MS79083430                            NPE                                          2024031820241221                                                                                                                                                                                                                                                                       MS0348741135                  000000000000000000        00000000R991651728           998050358           67991295858         PEREZJOSECARLOS125@GMAIL.COM                                
1012024112215       050210004404                  121248492803   ALEX LOPES CANCADO                           19780903                                                                                                                                                                                                                                                                                                                                                                                                                                       R LEAIS PAULISTANOS                               525       AP 102 A                                          IPIRANGA                 SAO PAULO              SP04202010                                                                                          OUTRAS                        R LEAIS PAULISTANOS                                      525AP 102 A                                          IPIRANGA                 SAO PAULO              SP04202010                            NPE                                          2024111820241215                                                                                                                                                                                                                                                                       MS                            000000000000000000        00000000R                                                                                                                        
1012024112215       211040047899                  190315375868   JOSE AILTON DOS SANTOS                       19520727                                                                                                                                                                                                                                                                                                                                                                                                                                       AV PILAR DO SUL                                   253       APTO 24                                           CJ HAB PRES C BRANCO     CARAPICUIBA            SP06328020                                                                                          EMPRESARIO                    AV PILAR DO SUL                                          253                                                  CJ HAB PRES C BRANCO     CARAPICUIBA            SP06328020                            NPE                                          2024111820241215                                                                                                                                                                                                                                                                       MS                            000000000000000000        00000000R                                                                                                                        
1012024112215       054880000844                  142707188387   SIDNEY DE ALMEIDA SIQUEIRA                   19731122                                                                                                                                                                                                                                                                                                                                                                                                                                       R CIRO BILHAR                                     260       APT 101 B                                         CENTRO                   HORIZONTE              CE62880141                    NAO INFORMADO                                                         GERENTE - TODAS               R CIRO BILHAR                                            260APT 101 B                                         CENTRO                   HORIZONTE              CE62880141                            NPE                                          2024091620241215                                                                                                                                                                                                                                                                       MS                            000000000000000000        00000000R                                                                                                                        
1012024112215       023790026616                  161069450120   ARLETE DE AZEVEDO GOMES                      19680323                                                                                                                                                                                                                                                                                                                                                                                                                                       ST MANSOES QUADRA                                 04        QA 6 MR CS                                        ST LESTE                 PLANALTINA             GO73752160                                                                                          OUTROS                                                                                                                                                                                                                            NPE                                          2024091320241129                                                                                                                                                                                                                                                                       MO1103108                     000000000000000000        00000000R                    999312468           993124686           MARCOS.ORNELLAS@LIVE.COM                                    
1012024112215       001620013144                  170256808180   AMANDA QUEIROZ RIBEIRO BARBOSA               19940812                                                                                                                                                                                                                                                                                                                                                                                                                                       R PRESIDENTE AFONSO PENA                          181                                                         PARQUE SAO VICENTE       MAUA                   SP09371470                                                                                          OUTRAS                        R PRESIDENTE AFONSO PENA                                 181                                                  PARQUE SAO VICENTE       MAUA                   SP093714701140045215                  NPE                                          2024091620241215                                                                                                                                                                                                                                                                       FC6182349                     000000000000000000        00000000R12997222312         997956953           997222312           AMANDAQUEIROZ_PA@OUTLOOK.COM                                
1012024112215       025950073880                  137835366851   LUIZ FERNANDO SOUZA ALVES                    19890403                                                                                                                                                                                                                                                                                                                                                                                                                                       AV DIREITOS HUMANOS                               2720      AP 11                                             MANDAQUI                 SAO PAULO              SP02475002                    PORTO SEGURO                                                          GERENTE - TODAS               AV DIREITOS HUMANOS                                     2720AP 11                                             MANDAQUI                 SAO PAULO              SP02475002                            NPE                                          2023091920241215                                                                                                                                                                                                                                                                       MS                            000000000000000000        00000000R982303441           941726114           40045215            LF.ASOUZA@HOTMAIL.COM                                       
1012024112215       021130016352                  160741090015   VANDERLEI SALGUEIRO JUNIOR                   19730914                                                                                                                                                                                                                                                                                                                                                                                                                                       AV DA CAVALHADA                                   4530      AP 1002 BL 8                                      CAVALHADA                PORTO ALEGRE           RS91740000                                                                                          GERENTE - TODAS               AV DA CAVALHADA                                         4530                                                  CAVALHADA                PORTO ALEGRE           RS917400001140045215                  NPE                                          2023011620241215                                                                                                                                                                                                                                                                       MS5049230815                  000000000000000000        00000000R51999795806         999795806           40045215            VJSALGUEIRO@YAHOO.COM.BR                                    
1012024112215       032020006169                  131659454387   LUIS ALVES FEIJAO                            19680823                                                                                                                                                                                                                                                                                                                                                                                                                                       RUA PRESI CASTELO BRANCO                          662                                                         POMPEIA                  QUIXERAMOBIM           CE63800000                    N A                                                                   GERENTE - TODAS               RUA BOUGIVAL LEAO                                         60204                                               CENTRO                   QUIXERAMOBIM           CE63800000                            NPE                                          2023041720241215                                                                                                                                                                                                                                                                       MS2008877996                  000000000000000000        00000000R88997844399         992878274           992878274           ALINE.SANITALARA@GMAIL.COM                                  
