001202412062024120600000101
1012024120615       032340002501                  104961202479   JOSE BARROS DA SILVA                         19791005                                                                                                                                                                                                                                                                                                                                                                                                                                       R HENRIQUE DIAS                                   680                                                         CONCEICAO                CAMPINA GRANDE         PB58401236                                                                                          OUTRAS                        R HENRIQUE DIAS                                          680                                                  CONCEICAO                CAMPINA GRANDE         PB584012361140045215                  NPE                                          2022111420451030                                                                                                                                                                                                                                                                       MS0703422906                  000000000000000000        00000000R83999766520         999766520           999766520           JO2500575@GMAIL.COM                                         
1012024120615       034960006463                  142492659000152BONFIM ESCOLTA T E LOGISTICA L                                                                                                                                                                                                                                                                                                                                                                                                                                                              R FRANCISCO DRUMOND                               41        EDIF MACEDO                                       CENTRO                   CAMACARI               BA42800063                                                                                                                        R FRANCISCO DRUMOND                                       41EDIF MACEDO                                       CENTRO                   CAMACARI               BA42800063                            NPE                                          2023100320520422                                                                                                                                                                                                                                                                        O                            000000000000000000        00000000R71991466497                                                 BONFIMESCOLTA@OUTLOOK.COM                                   
1012024120615       038720002233                  165807804600   ALCINA MARIA TEIXEIRA DE CARVALHO            19660919                                                                                                                                                                                                                                                                                                                                                                                                                                       AV DOUTOR JOSE MARCOS                             593                                                         BOM PASTOR               VARGINHA               MG37014260                    AREZZO CALCADOS                                                       GERENTE - TODAS               R DELFIM MOREIRA                                         535                                                  CENTRO                   VARGINHA               MG37002070                            NPE                                          2023040420520422                                                                                                                                                                                                                                                                       FCM5811283                    000000000000000000        00000000R988365164           32128512            32128512            MARCALBARONI9@GMAIL.COM                                     
1012024120615       038720004223                  103189154139   JENNIFER AYALA MAXIMIANO DA SILVA            19960823                                                                                                                                                                                                                                                                                                                                                                                                                                       R T 55                                            1055      APTO 2503                                         SETOR BUENO              GOIANIA                GO74215170                                                                                          OUTRAS                        R T 55                                                  1055APTO 2503                                         SETOR BUENO              GOIANIA                GO74215170                            NPE                                          2024032520520319                                                                                                                                                                                                                                                                       FS5366038                     000000000000000000        00000000R62991577475         992432811           981060785                                                                       
1012024120615       000830036711                  132060615801   ANDRE LUIS BORGES PORTO                      19830429                                                                                                                                                                                                                                                                                                                                                                                                                                       R JOSE BELANI                                     390                                                         JARDIM NOVA AMERICA      CAMPINAS               SP13053028                    MILKMU SORVETES                                                       GERENTE - TODAS               R MARIA EDNA VILAGELIN ZAKIA                            1367                                                  PARQUE VIA NORTE         CAMPINAS               SP13065820                            NPE                                          2023040420520422                                                                                                                                                                                                                                                                       MS0204543901                  000000000000000000        00000000R19988570202         995170544           988570202           ANDREPORTOG5@YAHOO.COM.BR                                   
1012024120615       035900014200                  131313786896   REGIANE DO CARMO MOREIRA FRANCA              19821120                                                                                                                                                                                                                                                                                                                                                                                                                                       R DAS PALMAS                                      222                                                         VILA CARMELA I           GUARULHOS              SP07178460                                                                                          EMPRESARIO                                                                                                                                                                                                                        NPE                                          2023091920520422                                                                                                                                                                                                                                                                       FS0308118174                  000000000000000000        00000000R934629463           995359382           22913560            REGIFRANCA20@GMAIL.COM                                      
1012024120615       050090002503                  145740973000103SAFE TOWER P COR DE SEGUROS LT                                                                                                                                                                                                                                                                                                                                                                                                                                                                                                                                                                                                                              07776435                                                                                                                        AV DEOVAIR CRUZ DE OLIVEIRA                              385                                                  JORDANESIA               CAJAMAR                SP077764351126190738          SYSIN   NPE                                          2023050320520422                                                                                                                                                                                                                                                                        O                            000000000000000000        00000000R11981823066                                                 ADRIANO@SAFETOWER.COM.BR                                    
1012024120615       005200026531                  196736933153   JAQUELINE TEODORO DE SOUSA                   19830217                                                                                                                                                                                                                                                                                                                                                                                                                                       RUA SENA E MELO                                   998                                                         SETOR JUNQUEIROZ         CACU                   GO75813000                    PREFEITURA MUNICIPAL DE CACU                                          GERENTE - TODAS               RUA MANOEL FRANCO                                        695                                                  MORADA DOS SONHOS        CACU                   GO758130006436566000                  NPE                                          2022120720520422                                                                                                                                                                                                                                                                       MS0463592457                  000000000000000000        00000000R999969654           996452786           36566000            MARCIOPRIMETF@OUTLOOK.COM                                   
1012024120615       000830030416                  123467900879   DANIEL PEREIRA DA SILVA                      19960331                                                                                                                                                                                                                                                                                                                                                                                                                                       R PADRE FEIJO                                     91                                                          JARDIM AMANDA II         HORTOLANDIA            SP13188161                                                                                          OUTRAS                        R PADRE FEIJO                                             91                                                  JARDIM AMANDA II         HORTOLANDIA            SP131881611140045215                  NPE                                          2022110520520422                                                                                                                                                                                                                                                                       MS445356625                   000000000000000000        00000000R983440634           988547667           988547667           DANITHEBEST_AA@HOTMAIL.COM                                  
1012024120615       032690028562                  100529679647   ANA PAULA VIEIRA                             19740508                                                                                                                                                                                                                                                                                                                                                                                                                                       R ALOISIO ARAGAO VILLAR                           641       BL02-204                                          TREVO                    BELO HORIZONTE         MG31545160                    19.843.929-0001-00                                                    GERENTE - TODAS               AL VEREADOR ALVARO CELSO                                 100                                                  SANTA EFIGENIA           BELO HORIZONTE         MG30150260                            NPE                                          2023050320520319                                                                                                                                                                                                                                                                       FSM5847597                    000000000000000000        00000000R31998068599         998068599           34276136            VIMIEIRO.AV@GMAIL.COM                                       
1012024120615       022800023396                  104554131181   THATIANNE SANTOS DE JESUS                    19930520                                                                                                                                                                                                                                                                                                                                                                                                                                       RUA JERONIMO MARTINS MARQUES                      136                                                         SUL                      ACREUNA                GO75960000                                                                                          EMPRESARIO                    RUA JERONIMO MARTINS MARQUES                             136                                                  SUL                      ACREUNA                GO75960000                            NPE                                          2024040320520422                                                                                                                                                                                                                                                                       FS5770674                     000000000000000000        00000000R                                                            THATIANNE20@GMAIL.COM                                       
1012024120615       005390013392                  145045890000196SOUZA E SILVA TRANSPORTE E TUR                                                                                                                                                                                                                                                                                         1140045215                                                                                                                                                           RUA OSVALDO BRANCA LEONE                          220                                                         SONHO NOSSO              BARRA BONITA           SP17345462                                                                                                                        RUA OSVALDO BRANCA LEONE                                 220                                                  SONHO NOSSO              BARRA BONITA           SP17345462                            NPE                                          2024040320520422                                                                                                                                                                                                                                                                        O                            000000000000000000        00000000R14982074321         982074321           981928271           PS236465@GMAIL.COM                                          
1012024120615       050300003357                  137881148861   MARCELA MARQUES DIAS SAMPAIO                 19870919                                                                                                                                                                                                                                                                                                                                                                                                                                       AV ROBERT KENNEDY                                 1635      CASA 177                                          PLANALTO                 SAO BERNARDO DO CAMPO  SP09895005                                                                                          EMPRESARIO                                                                                                                                                                                                                        NPE                                          2024050620520422                                                                                                                                                                                                                                                                       FC                            000000000000000000        00000000R                    995005070           40045215            MARCELAMARQUES@MEUVEICULOPROTEGIDO.COM.BR                   
10120241206Q5       005200026531                  6436566000                  COMERCIAL                     
10120241206Q5       005200026531                  64996452786                 CELULAR                       
10120241206Q5       022800023396                  1140045215                  RECADO                        
10120241206Q5       022800023396                  64996019266                 RECADO                        
10120241206Q5       034960006463                  71991466497                 CELULAR                       
10120241206Q5       035900014200                  962040238                   OUTROS                        
10120241206Q5       038720002233                  35988850318                 CELULAR                       
10120241206Q5       038720002233                  35992143455                 CELULAR                       
10120241206Q5       038720004223                  62991577475                 CELULAR                       
10120241206Q5       050090002503                  11981823066                 CELULAR                       
10120241206Q5       050300003357                  989816741                   OUTROS                        
10120241206Q5       000830030416                  983440634                   CELULAR                       
10120241206Q5       000830030416                  988547667                   OUTROS                        
10120241206Q5       000830036711                  19994593689                 CELULAR                       
10120241206Q5       000830036711                  19994825639         0       CELULAR                       
10120241206Q5       005200026531                  999091612                   CELULAR                       
10120241206Q5       032690028562                  971881013                   OUTROS                        
10120241206Q5       032690028562                  998068599                   OUTROS                        
10120241206Q5       035900014200                  960577528                   OUTROS                        
10120241206Q5       038720002233                  988135707                   OUTROS                        
10120241206Q5       038720004223                  992432811                   OUTROS                        
10120241206Q5       050300003357                  11995002090                 RECADO                        
10120241206Q5       000830030416                  19983440634                 CELULAR                       
10120241206Q5       000830030416                  19988547667                 CELULAR                       
10120241206Q5       000830036711                  988570202                   OUTROS                        
10120241206Q5       005200026531                  999969654                   CELULAR                       
10120241206Q5       005390013392                  14981928271         0       CELULAR                       
10120241206Q5       032690028562                  31998068599         0       CELULAR                       
10120241206Q5       032690028562                  34276136                    OUTROS                        
10120241206Q5       032690028562                  997328351                   OUTROS                        
10120241206Q5       035900014200                  29912008                    OUTROS                        
10120241206Q5       038720002233                  988365164                   CELULAR                       
10120241206Q5       038720002233                  992143455                   OUTROS                        
10120241206Q5       050300003357                  995005070                   OUTROS                        
10120241206Q5       000830036711                  19988672982                 CELULAR                       
10120241206Q5       005200026531                  999429903                   CELULAR                       
10120241206Q5       005390013392                  14982074321         0       CELULAR                       
10120241206Q5       035900014200                  995359382                   OUTROS                        
10120241206Q5       038720002233                  988850318                   OUTROS                        
10120241206Q5       000830036711                  991760057                   OUTROS                        
10120241206Q5       005390013392                  981928271                   OUTROS                        
10120241206Q5       005390013392                  982074321                   OUTROS                        
10120241206Q5       032340002501                  1140045215                  COMERCIAL                     
10120241206Q5       032340002501                  83999766520         0       CELULAR                       
10120241206Q5       032690028562                  989097600                   OUTROS                        
10120241206Q5       035900014200                  11995359382                 CELULAR                       
10120241206Q5       035900014200                  22913560                    OUTROS                        
10120241206Q5       000830036711                  995170544                   OUTROS                        
10120241206Q5       032340002501                  999766520                   OUTROS                        
10120241206Q5       035900014200                  1140045215                  RECADO                        
10120241206Q5       035900014200                  934629463                   CELULAR                       
10120241206Q5       038720004223                  981060785                   OUTROS                        
10120241206Q5       050300003357                  995002090                   OUTROS                        
10120241206Q5       000830030416                  1140045215                  COMERCIAL                     
10120241206Q5       000830036711                  19988570202                 CELULAR                       
10120241206Q5       000830036711                  994593689                   OUTROS                        
10120241206Q5       005200026531                  992296512                   OUTROS                        
10120241206Q5       032690028562                  1140045215                  RECADO                        
10120241206Q5       038720002233                  32128512                    OUTROS                        
10120241206Q5       038720004223                  64981060785                 RECADO                        
10120241206Q5       038720004223                  992250168                   OUTROS                        
10120241206Q5       050300003357                  40045215                    OUTROS                        
10120241206Q5       050300003357                  941486050                   OUTROS                        
10120241206Q5       000830036711                  988672982                   OUTROS                        
10120241206Q5       000830036711                  994825639                   OUTROS                        
10120241206Q5       005200026531                  36566000                    OUTROS                        
10120241206Q5       005200026531                  996452786                   OUTROS                        
10120241206Q5       005390013392                  1140045215                  REFERENCIA                    
10120241206Q5       038720002233                  32210575                    OUTROS                        
10120241206Q5       050090002503                  1126190738          SYSIN   COMERCIAL                     
10120241206Q5       050300003357                  1140045215                  RECADO                        
1012024120625       000830036711                  REFF    000830036711                  00083   CAMPTUBA - CAMP                                                                                   00083   CAMPTUBA - CAMPINAS                          00000000073478400000000000000000000020230201048         1                                                                                                                                                                                                                                                                                                                                                                                                                                                                                                                                                                                                            000000000000023507                                                                                                 
1012024120625       038720002233                  FSEG    038720002233                  03872   NOVACAO COBRANC                                                                                   03872   NOVACAO COBRANCA CON                         00000000023141420000000000000000000020230302036         1                                                                                                                                                                                                                                                                                                                                                                                                                                                                                                                                                                                                            000000000000010000                                                                                                 
1012024120625       035900014200                  FCDC    035900014200                  03590   REGIONAL SAO PA                                                                                   03590   REGIONAL SAO PAULO                           00000000044227000000000000000000000020230601024         1                                                                                                                                                                                                                                                                                                                                                                                                                                                                                                                                                                                                            000000000000020021                                                                                                 
1012024120625       005200026531                  PARF    005200026531                  00520   CORRESPONDENTE                                                                                    00520   CORRESPONDENTE PARAN                         00000000018636730000000000000000000020220802036         1                                                                                                                                                                                                                                                                                                                                                                                                                                                                                                                                                                                                            000000000000022216                                                                                                 
1012024120625       021970010146                  PARF    021970010146                  02197   CORRESPONDENTE                                                                                    02197   CORRESPONDENTE  BAUR                         00000000021322350000000000000000000020210818060         3                                                                                                                                                                                                                                                                                                                                                                                                                                                                                                                                                                                                            000000000000019061                                                                                                 
1012024120625       022800023396                  REFF    022800023396                  02280   CORRESPONDENTE                                                                                    02280   CORRESPONDENTE GOIAS                         00000000031318410000000000000000000020240228012         1                                                                                                                                                                                                                                                                                                                                                                                                                                                                                                                                                                                                            000000000000042933                                                                                                 
1012024120625       050300003357                  FCDC    050300003357                  05030   CORRESPONDENTE                                                                                    05030   CORRESPONDENTE SUCUR                         00000000077835450000000000000000000020240401036         1                                                                                                                                                                                                                                                                                                                                                                                                                                                                                                                                                                                                            000000000000016500                                                                                                 
1012024120625       036120001872                  PARF    036120001872                  03612   CORRESPONDENTE                                                                                    03612   CORRESPONDENTE SAO C                         00000000070737920000000000000000000020220221036         3                                                                                                                                                                                                                                                                                                                                                                                                                                                                                                                                                                                                            000000000000028270                                                                                                 
1012024120625       038720004223                  FSEG    038720004223                  03872   NOVACAO COBRANC                                                                                   03872   NOVACAO COBRANCA CON                         00000000037376080000000000000000000020240124017         1                                                                                                                                                                                                                                                                                                                                                                                                                                                                                                                                                                                                            000000000000014800                                                                                                 
1012024120625       025530003483                  PARF    025530003483                  02553   CORRESPONDENTE                                                                                    02553   CORRESPONDENTE - SER                         00000000008180810000000000000000000020210203048         3                                                                                                                                                                                                                                                                                                                                                                                                                                                                                                                                                                                                            000000000000022444                                                                                                 
1012024120625       000830030416                  PARF    000830030416                  00083   CAMPTUBA - CAMP                                                                                   00083   CAMPTUBA - CAMPINAS                          00000000021380830000000000000000000020210702048         1                                                                                                                                                                                                                                                                                                                                                                                                                                                                                                                                                                                                            000000000000021378                                                                                                 
1012024120625       005390013392                  UTLF    005390013392                  00539   PORTOSEG - MOGI                                                                                   00539   PORTOSEG - MOGI MIRI                         00000000030510700000000000000000000020211230048         1                                                                                                                                                                                                                                                                                                                                                                                                                                                                                                                                                                                                            000000000000022057                                                                                                 
1012024120625       032340002501                  PARF    032340002501                  03234   CORRESPONDENTE                                                                                    03234   CORRESPONDENTE PARAI                         00000000024448320000000000000000000020210712060         1                                                                                                                                                                                                                                                                                                                                                                                                                                                                                                                                                                                                            000000000000027516                                                                                                 
1012024120625       034960006463                  REFJ    034960006463                  03496   CORRESPONDENTE                                                                                    03496   CORRESPONDENTE PENHA                         00000000028045620000000000000000000020230531036         1                                                                                                                                                                                                                                                                                                                                                                                                                                                                                                                                                                                                            000000000000029520                                                                                                 
1012024120625       036880000211                  ESPF    036880000211                  03688   DEIVYS CAR EIRE                                                                                   02280   CORRESPONDENTE GOIAS                         00000000032024350000000000000000000020230126048         3                                                                                                                                                                                                                                                                                                                                                                                                                                                                                                                                                                                                            000000000000026789                                                                                                 
1012024120625       000830030130                  FCDC    000830030130                  00083   CAMPTUBA - CAMP                                                                                   00083   CAMPTUBA - CAMPINAS                          00000000020609630000000000000000000020210527060         3                                                                                                                                                                                                                                                                                                                                                                                                                                                                                                                                                                                                            000000000000025413                                                                                                 
1012024120625       026810005606                  PARF    026810005606                  02681   CORRESPONDENTE                                                                                    02681   CORRESPONDENTE - MAT                         00000000012895290000000000000000000020201120060         3                                                                                                                                                                                                                                                                                                                                                                                                                                                                                                                                                                                                            000000000000024132                                                                                                 
1012024120625       050090002503                  PARJ    050090002503                  05009   SUCURSAL S?O PA                                                                                   05009   SUCURSAL S?O PAULO I                         00000000065440600000000000000000000020230331060         1                                                                                                                                                                                                                                                                                                                                                                                                                                                                                                                                                                                                            000000000000024300                                                                                                 
1012024120625       032690028562                  REFF    032690028562                  03269   CORRESPONDENTE                                                                                    03269   CORRESPONDENTE MINAS                         00000000021183320000000000000000000020230228048         1                                                                                                                                                                                                                                                                                                                                                                                                                                                                                                                                                                                                            000000000000024065                                                                                                 
1012024120635       000830030416                  PARF    000830030416                  2024100100000039                000000000012495600000000000000000000000000000000000000000000000000000000000000000000000000   048   1                             20241001                      
1012024120635       000830030416                  PARF    000830030416                  2024110100000040                000000000012495600000000000000000000000000000000000000000000000000000000000000000000000000   048   1                             20241101                      
1012024120635       000830030416                  PARF    000830030416                  2024120100000041                000000000012495600000000000000000000000000000000000000000000000000000000000000000000000000   048   1                             20241201                      
1012024120635       000830030416                  PARF    000830030416                  2025010100000042                000000000012495600000000000000000000000000000000000000000000000000000000000000000000000000   048   1                             20250101                      
1012024120635       000830030416                  PARF    000830030416                  2025020100000043                000000000012495600000000000000000000000000000000000000000000000000000000000000000000000000   048   1                             20250201                      
1012024120635       000830030416                  PARF    000830030416                  2025030100000044                000000000012495600000000000000000000000000000000000000000000000000000000000000000000000000   048   1                             20250301                      
1012024120635       000830030416                  PARF    000830030416                  2025040100000045                000000000012495600000000000000000000000000000000000000000000000000000000000000000000000000   048   1                             20250401                      
1012024120635       000830030416                  PARF    000830030416                  2025050100000046                000000000012495600000000000000000000000000000000000000000000000000000000000000000000000000   048   1                             20250501                      
1012024120635       000830030416                  PARF    000830030416                  2025060100000047                000000000012495600000000000000000000000000000000000000000000000000000000000000000000000000   048   1                             20250601                      
1012024120635       000830030416                  PARF    000830030416                  2025070100000048                000000000012495600000000000000000000000000000000000000000000000000000000000000000000000000   048   1                             20250701                      
1012024120635       000830036711                  REFF    000830036711                  2024100100000020                000000000026564700000000000000000000000000000000000000000000000000000000000000000000000000   048   1                             20241001                      
1012024120635       000830036711                  REFF    000830036711                  2024110100000021                000000000026564700000000000000000000000000000000000000000000000000000000000000000000000000   048   1                             20241101                      
1012024120635       000830036711                  REFF    000830036711                  2024120100000022                000000000026564700000000000000000000000000000000000000000000000000000000000000000000000000   048   1                             20241201                      
1012024120635       000830036711                  REFF    000830036711                  2025010100000023                000000000026564700000000000000000000000000000000000000000000000000000000000000000000000000   048   1                             20250101                      
1012024120635       000830036711                  REFF    000830036711                  2025020100000024                000000000026564700000000000000000000000000000000000000000000000000000000000000000000000000   048   1                             20250201                      
1012024120635       000830036711                  REFF    000830036711                  2025030100000025                000000000026564700000000000000000000000000000000000000000000000000000000000000000000000000   048   1                             20250301                      
1012024120635       000830036711                  REFF    000830036711                  2025040100000026                000000000026564700000000000000000000000000000000000000000000000000000000000000000000000000   048   1                             20250401                      
1012024120635       000830036711                  REFF    000830036711                  2025050100000027                000000000026564700000000000000000000000000000000000000000000000000000000000000000000000000   048   1                             20250501                      
1012024120635       000830036711                  REFF    000830036711                  2025060100000028                000000000026564700000000000000000000000000000000000000000000000000000000000000000000000000   048   1                             20250601                      
1012024120635       000830036711                  REFF    000830036711                  2025070100000029                000000000026564700000000000000000000000000000000000000000000000000000000000000000000000000   048   1                             20250701                      
1012024120635       000830036711                  REFF    000830036711                  2025080100000030                000000000026564700000000000000000000000000000000000000000000000000000000000000000000000000   048   1                             20250801                      
1012024120635       000830036711                  REFF    000830036711                  2025090100000031                000000000026564700000000000000000000000000000000000000000000000000000000000000000000000000   048   1                             20250901                      
1012024120635       000830036711                  REFF    000830036711                  2025100100000032                000000000026564700000000000000000000000000000000000000000000000000000000000000000000000000   048   1                             20251001                      
1012024120635       000830036711                  REFF    000830036711                  2025110100000033                000000000026564700000000000000000000000000000000000000000000000000000000000000000000000000   048   1                             20251101                      
1012024120635       000830036711                  REFF    000830036711                  2025120100000034                000000000026564700000000000000000000000000000000000000000000000000000000000000000000000000   048   1                             20251201                      
1012024120635       000830036711                  REFF    000830036711                  2026010100000035                000000000026564700000000000000000000000000000000000000000000000000000000000000000000000000   048   1                             20260101                      
1012024120635       000830036711                  REFF    000830036711                  2026020100000036                000000000026564700000000000000000000000000000000000000000000000000000000000000000000000000   048   1                             20260201                      
1012024120635       000830036711                  REFF    000830036711                  2026030100000037                000000000026564700000000000000000000000000000000000000000000000000000000000000000000000000   048   1                             20260301                      
1012024120635       000830036711                  REFF    000830036711                  2026040100000038                000000000026564700000000000000000000000000000000000000000000000000000000000000000000000000   048   1                             20260401                      
1012024120635       000830036711                  REFF    000830036711                  2026050100000039                000000000026564700000000000000000000000000000000000000000000000000000000000000000000000000   048   1                             20260501                      
1012024120635       000830036711                  REFF    000830036711                  2026060100000040                000000000026564700000000000000000000000000000000000000000000000000000000000000000000000000   048   1                             20260601                      
1012024120635       000830036711                  REFF    000830036711                  2026070100000041                000000000026564700000000000000000000000000000000000000000000000000000000000000000000000000   048   1                             20260701                      
1012024120635       000830036711                  REFF    000830036711                  2026080100000042                000000000026564700000000000000000000000000000000000000000000000000000000000000000000000000   048   1                             20260801                      
1012024120635       000830036711                  REFF    000830036711                  2026090100000043                000000000026564700000000000000000000000000000000000000000000000000000000000000000000000000   048   1                             20260901                      
1012024120635       000830036711                  REFF    000830036711                  2026100100000044                000000000026564700000000000000000000000000000000000000000000000000000000000000000000000000   048   1                             20261001                      
1012024120635       000830036711                  REFF    000830036711                  2026110100000045                000000000026564700000000000000000000000000000000000000000000000000000000000000000000000000   048   1                             20261101                      
1012024120635       000830036711                  REFF    000830036711                  2026120100000046                000000000026564700000000000000000000000000000000000000000000000000000000000000000000000000   048   1                             20261201                      
1012024120635       000830036711                  REFF    000830036711                  2027010100000047                000000000026564700000000000000000000000000000000000000000000000000000000000000000000000000   048   1                             20270101                      
1012024120635       000830036711                  REFF    000830036711                  2027020100000048                000000000026564700000000000000000000000000000000000000000000000000000000000000000000000000   048   1                             20270201                      
1012024120635       000830037271                  REFF    000830037271                  2024011600000010        20240930000000000009436100000000000000000000000000000000000000000000000000000000000000000005486400   024   7                            C20240116                      
1012024120635       005200026531                  PARF    005200026531                  2024100100000026                000000000008953400000000000000000000000000000000000000000000000000000000000000000000000000   036   1                             20241001                      
1012024120635       005200026531                  PARF    005200026531                  2024110100000027                000000000008953400000000000000000000000000000000000000000000000000000000000000000000000000   036   1                             20241101                      
1012024120635       005200026531                  PARF    005200026531                  2024120100000028                000000000008953400000000000000000000000000000000000000000000000000000000000000000000000000   036   1                             20241201                      
1012024120635       005200026531                  PARF    005200026531                  2025010100000029                000000000008953400000000000000000000000000000000000000000000000000000000000000000000000000   036   1                             20250101                      
1012024120635       005200026531                  PARF    005200026531                  2025020100000030                000000000008953400000000000000000000000000000000000000000000000000000000000000000000000000   036   1                             20250201                      
1012024120635       005200026531                  PARF    005200026531                  2025030100000031                000000000008953400000000000000000000000000000000000000000000000000000000000000000000000000   036   1                             20250301                      
1012024120635       005200026531                  PARF    005200026531                  2025040100000032                000000000008953400000000000000000000000000000000000000000000000000000000000000000000000000   036   1                             20250401                      
1012024120635       005200026531                  PARF    005200026531                  2025050100000033                000000000008953400000000000000000000000000000000000000000000000000000000000000000000000000   036   1                             20250501                      
1012024120635       005200026531                  PARF    005200026531                  2025060100000034                000000000008953400000000000000000000000000000000000000000000000000000000000000000000000000   036   1                             20250601                      
1012024120635       005200026531                  PARF    005200026531                  2025070100000035                000000000008953400000000000000000000000000000000000000000000000000000000000000000000000000   036   1                             20250701                      
1012024120635       005200026531                  PARF    005200026531                  2025080100000036                000000000008953400000000000000000000000000000000000000000000000000000000000000000000000000   036   1                             20250801                      
1012024120635       005390013392                  UTLF    005390013392                  2024093000000033                000000000035759800000000000000000000000000000000000000000000000000000000000000000000000000   048   1                             20240930                      
1012024120635       005390013392                  UTLF    005390013392                  2024103000000034                000000000035759800000000000000000000000000000000000000000000000000000000000000000000000000   048   1                             20241030                      
1012024120635       005390013392                  UTLF    005390013392                  2024113000000035                000000000035759800000000000000000000000000000000000000000000000000000000000000000000000000   048   1                             20241130                      
1012024120635       005390013392                  UTLF    005390013392                  2024123000000036                000000000035759800000000000000000000000000000000000000000000000000000000000000000000000000   048   1                             20241230                      
1012024120635       005390013392                  UTLF    005390013392                  2025013000000037                000000000035759800000000000000000000000000000000000000000000000000000000000000000000000000   048   1                             20250130                      
1012024120635       005390013392                  UTLF    005390013392                  2025022800000038                000000000035759800000000000000000000000000000000000000000000000000000000000000000000000000   048   1                             20250228                      
1012024120635       005390013392                  UTLF    005390013392                  2025033000000039                000000000035759800000000000000000000000000000000000000000000000000000000000000000000000000   048   1                             20250330                      
1012024120635       005390013392                  UTLF    005390013392                  2025043000000040                000000000035759800000000000000000000000000000000000000000000000000000000000000000000000000   048   1                             20250430                      
1012024120635       005390013392                  UTLF    005390013392                  2025053000000041                000000000035759800000000000000000000000000000000000000000000000000000000000000000000000000   048   1                             20250530                      
1012024120635       005390013392                  UTLF    005390013392                  2025063000000042                000000000035759800000000000000000000000000000000000000000000000000000000000000000000000000   048   1                             20250630                      
1012024120635       005390013392                  UTLF    005390013392                  2025073000000043                000000000035759800000000000000000000000000000000000000000000000000000000000000000000000000   048   1                             20250730                      
1012024120635       005390013392                  UTLF    005390013392                  2025083000000044                000000000035759800000000000000000000000000000000000000000000000000000000000000000000000000   048   1                             20250830                      
1012024120635       005390013392                  UTLF    005390013392                  2025093000000045                000000000035759800000000000000000000000000000000000000000000000000000000000000000000000000   048   1                             20250930                      
1012024120635       005390013392                  UTLF    005390013392                  2025103000000046                000000000035759800000000000000000000000000000000000000000000000000000000000000000000000000   048   1                             20251030                      
1012024120635       021130018470                  REFF    021130018470                  2023042800000012        20240401000000000021415600000000000000000000000000000000000000000000000000000000000000000005391900   048   7                            C20230428                      
1012024120635       022800023396                  REFF    022800023396                  2024100100000007                000000000038038900000000000000000000000000000000000000000000000000000000000000000000000000   012   1                             20241001                      
1012024120635       022800023396                  REFF    022800023396                  2024110100000008                000000000038038900000000000000000000000000000000000000000000000000000000000000000000000000   012   1                             20241101                      
1012024120635       022800023396                  REFF    022800023396                  2024120100000009                000000000038038900000000000000000000000000000000000000000000000000000000000000000000000000   012   1                             20241201                      
1012024120635       022800023396                  REFF    022800023396                  2025010100000010                000000000038038900000000000000000000000000000000000000000000000000000000000000000000000000   012   1                             20250101                      
1012024120635       022800023396                  REFF    022800023396                  2025020100000011                000000000038038900000000000000000000000000000000000000000000000000000000000000000000000000   012   1                             20250201                      
1012024120635       022800023396                  REFF    022800023396                  2025030100000012                000000000038038900000000000000000000000000000000000000000000000000000000000000000000000000   012   1                             20250301                      
1012024120635       025850000471                  ESPF    025850000471                  2021012500000033        20231228000000000008651800000000000000000000000000000000000000000000000000000000000000000001854500   036   7                            C20210125                      
1012024120635       025950064913                  REFF    025950064913                  2024080200000022        20230710000000000006077300000000000000000000000000000000000000000000000000000000000000000002138200   048   7                            C20240802                      
1012024120635       025950075302                  FCDC    025950075302                  2024103000000012        20241104000000000012760500000000000000000000000000000000000000000000000000000000000000000012760500   048   8                            C20241030                      
1012024120635       025950075302                  FCDC    025950075302                  2024123000000014        20241202000000000012311300000000000000000000000000000000000000000000000000000000000000000012311300   048   8                            C20241230                      
1012024120635       027120007425                  PARF    027120007425                  2023012800000032        20241129000000000008080500000000000000000000000000000000000000000000000000000000000000000000273100   048   7                            C20230128                      
1012024120635       027120020365                  PARF    027120020365                  2024030400000031        20240624000000000010531000000000000000000000000000000000000000000000000000000000000000000005873000   048   7                            C20240304                      
1012024120635       027320008129                  PARF    027320008129                  2023081100000024        20240930000000000027578600000000000000000000000000000000000000000000000000000000000000000010212200   048   7                            C20230811                      
1012024120635       030120044096                  FCDC    030120044096                  2024031400000039        20240625000000000013903200000000000000000000000000000000000000000000000000000000000000000012339500   048   7                            C20240314                      
1012024120635       030120045600                  PARF    030120045600                  2024113000000047        20241203000000000015169400000000000000000000000000000000000000000000000000000000000000000015169400   048   8                            C20241130                      
1012024120635       030120054118                  PARF    030120054118                  2024110600000043        20240930000000000012978300000000000000000000000000000000000000000000000000000000000000000000675400   060   7                            C20241106                      
1012024120635       030120068097                  PARF    030120068097                  2024120900000039        20241202000000000013843000000000000000000000000000000000000000000000000000000000000000000013843000   060   8                            C20241209                      
1012024120635       031340007288                  PARF    031340007288                  2024113000000029        20241202000000000009972500000000000000000000000000000000000000000000000000000000000000000009972500   060   8                            C20241130                      
1012024120635       032340002501                  PARF    032340002501                  2023041100000021                000000000014901400000000000000000000000000000000000000000000000000000000000000000000000000   060   1                             20230411                      
1012024120635       032340002501                  PARF    032340002501                  2023051100000022                000000000014901400000000000000000000000000000000000000000000000000000000000000000000000000   060   1                             20230511                      
1012024120635       032340002501                  PARF    032340002501                  2023061100000023                000000000014901400000000000000000000000000000000000000000000000000000000000000000000000000   060   1                             20230611                      
1012024120635       032340002501                  PARF    032340002501                  2023071100000024                000000000014901400000000000000000000000000000000000000000000000000000000000000000000000000   060   1                             20230711                      
1012024120635       032340002501                  PARF    032340002501                  2023081100000025                000000000014901400000000000000000000000000000000000000000000000000000000000000000000000000   060   1                             20230811                      
1012024120635       032340002501                  PARF    032340002501                  2023091100000026                000000000014901400000000000000000000000000000000000000000000000000000000000000000000000000   060   1                             20230911                      
1012024120635       032340002501                  PARF    032340002501                  2023101100000027                000000000014901400000000000000000000000000000000000000000000000000000000000000000000000000   060   1                             20231011                      
1012024120635       032340002501                  PARF    032340002501                  2023111100000028                000000000014901400000000000000000000000000000000000000000000000000000000000000000000000000   060   1                             20231111                      
1012024120635       032340002501                  PARF    032340002501                  2023121100000029                000000000014901400000000000000000000000000000000000000000000000000000000000000000000000000   060   1                             20231211                      
1012024120635       032340002501                  PARF    032340002501                  2024011100000030                000000000014901400000000000000000000000000000000000000000000000000000000000000000000000000   060   1                             20240111                      
1012024120635       032340002501                  PARF    032340002501                  2024021100000031                000000000014901400000000000000000000000000000000000000000000000000000000000000000000000000   060   1                             20240211                      
1012024120635       032340002501                  PARF    032340002501                  2024031100000032                000000000014901400000000000000000000000000000000000000000000000000000000000000000000000000   060   1                             20240311                      
1012024120635       032340002501                  PARF    032340002501                  2024041100000033                000000000014901400000000000000000000000000000000000000000000000000000000000000000000000000   060   1                             20240411                      
1012024120635       032340002501                  PARF    032340002501                  2024051100000034                000000000014901400000000000000000000000000000000000000000000000000000000000000000000000000   060   1                             20240511                      
1012024120635       032340002501                  PARF    032340002501                  2024061100000035                000000000014901400000000000000000000000000000000000000000000000000000000000000000000000000   060   1                             20240611                      
1012024120635       032340002501                  PARF    032340002501                  2024071100000036                000000000014901400000000000000000000000000000000000000000000000000000000000000000000000000   060   1                             20240711                      
1012024120635       032340002501                  PARF    032340002501                  2024081100000037                000000000014901400000000000000000000000000000000000000000000000000000000000000000000000000   060   1                             20240811                      
1012024120635       032340002501                  PARF    032340002501                  2024091100000038                000000000014901400000000000000000000000000000000000000000000000000000000000000000000000000   060   1                             20240911                      
1012024120635       032340002501                  PARF    032340002501                  2024101100000039                000000000014901400000000000000000000000000000000000000000000000000000000000000000000000000   060   1                             20241011                      
1012024120635       032340002501                  PARF    032340002501                  2024111100000040                000000000014901400000000000000000000000000000000000000000000000000000000000000000000000000   060   1                             20241111                      
1012024120635       032340002501                  PARF    032340002501                  2024121100000041                000000000014901400000000000000000000000000000000000000000000000000000000000000000000000000   060   1                             20241211                      
1012024120635       032340002501                  PARF    032340002501                  2025011100000042                000000000014901400000000000000000000000000000000000000000000000000000000000000000000000000   060   1                             20250111                      
1012024120635       032340002501                  PARF    032340002501                  2025021100000043                000000000014901400000000000000000000000000000000000000000000000000000000000000000000000000   060   1                             20250211                      
1012024120635       032340002501                  PARF    032340002501                  2025031100000044                000000000014901400000000000000000000000000000000000000000000000000000000000000000000000000   060   1                             20250311                      
1012024120635       032340002501                  PARF    032340002501                  2025041100000045                000000000014901400000000000000000000000000000000000000000000000000000000000000000000000000   060   1                             20250411                      
1012024120635       032340002501                  PARF    032340002501                  2025051100000046                000000000014901400000000000000000000000000000000000000000000000000000000000000000000000000   060   1                             20250511                      
1012024120635       032340002501                  PARF    032340002501                  2025061100000047                000000000014901400000000000000000000000000000000000000000000000000000000000000000000000000   060   1                             20250611                      
1012024120635       032340002501                  PARF    032340002501                  2025071100000048        20241202000000000014901400000000000000000000000000000000000000000000000000000000000000000008133000   060   7                            C20250711                      
1012024120635       032340002501                  PARF    032340002501                  2025071100000048                000000000006768400000000000000000000000000000000000000000000000000000000000000000000000000   060   1                             20250711                      
1012024120635       032340002501                  PARF    032340002501                  2025081100000049        20241202000000000014901400000000000000000000000000000000000000000000000000000000000000000014901400   060   8                            C20250811                      
1012024120635       032340002501                  PARF    032340002501                  2025091100000050        20241202000000000014901400000000000000000000000000000000000000000000000000000000000000000014901400   060   8                            C20250911                      
1012024120635       032340002501                  PARF    032340002501                  2025101100000051        20241202000000000014901400000000000000000000000000000000000000000000000000000000000000000014901400   060   8                            C20251011                      
1012024120635       032340002501                  PARF    032340002501                  2025111100000052        20241202000000000014901400000000000000000000000000000000000000000000000000000000000000000014901400   060   8                            C20251111                      
1012024120635       032340002501                  PARF    032340002501                  2025121100000053        20241202000000000014901400000000000000000000000000000000000000000000000000000000000000000014901400   060   8                            C20251211                      
1012024120635       032340002501                  PARF    032340002501                  2026011100000054        20241202000000000014901400000000000000000000000000000000000000000000000000000000000000000014901400   060   8                            C20260111                      
1012024120635       032340002501                  PARF    032340002501                  2026021100000055        20241202000000000014901400000000000000000000000000000000000000000000000000000000000000000014901400   060   8                            C20260211                      
1012024120635       032340002501                  PARF    032340002501                  2026031100000056        20241202000000000014901400000000000000000000000000000000000000000000000000000000000000000014901400   060   8                            C20260311                      
1012024120635       032340002501                  PARF    032340002501                  2026041100000057        20241202000000000014901400000000000000000000000000000000000000000000000000000000000000000014901400   060   8                            C20260411                      
1012024120635       032340002501                  PARF    032340002501                  2026051100000058        20241202000000000014901400000000000000000000000000000000000000000000000000000000000000000014901400   060   8                            C20260511                      
1012024120635       032340002501                  PARF    032340002501                  2026061100000059        20241202000000000014901400000000000000000000000000000000000000000000000000000000000000000014901400   060   8                            C20260611                      
1012024120635       032340002501                  PARF    032340002501                  2026071100000060        20241202000000000014901400000000000000000000000000000000000000000000000000000000000000000014901400   060   8                            C20260711                      
1012024120635       032690028562                  REFF    032690028562                  2024022800000012                000000000008045500000000000000000000000000000000000000000000000000000000000000000000000000   048   1                             20240228                      
1012024120635       032690028562                  REFF    032690028562                  2024033000000013                000000000008045500000000000000000000000000000000000000000000000000000000000000000000000000   048   1                             20240330                      
1012024120635       032690028562                  REFF    032690028562                  2024043000000014                000000000008045500000000000000000000000000000000000000000000000000000000000000000000000000   048   1                             20240430                      
1012024120635       032690028562                  REFF    032690028562                  2024053000000015                000000000008045500000000000000000000000000000000000000000000000000000000000000000000000000   048   1                             20240530                      
1012024120635       032690028562                  REFF    032690028562                  2024063000000016                000000000008045500000000000000000000000000000000000000000000000000000000000000000000000000   048   1                             20240630                      
1012024120635       032690028562                  REFF    032690028562                  2024073000000017                000000000008045500000000000000000000000000000000000000000000000000000000000000000000000000   048   1                             20240730                      
1012024120635       032690028562                  REFF    032690028562                  2024083000000018                000000000008045500000000000000000000000000000000000000000000000000000000000000000000000000   048   1                             20240830                      
1012024120635       032690028562                  REFF    032690028562                  2024093000000019                000000000008045500000000000000000000000000000000000000000000000000000000000000000000000000   048   1                             20240930                      
1012024120635       032690028562                  REFF    032690028562                  2024103000000020        20241202000000000008045500000000000000000000000000000000000000000000000000000000000000000000395700   048   7                            C20241030                      
1012024120635       032690028562                  REFF    032690028562                  2024103000000020                000000000007649800000000000000000000000000000000000000000000000000000000000000000000000000   048   1                             20241030                      
1012024120635       032690028562                  REFF    032690028562                  2024113000000021        20241202000000000008045500000000000000000000000000000000000000000000000000000000000000000008045500   048   8                            C20241130                      
1012024120635       032690028562                  REFF    032690028562                  2024123000000022        20241202000000000008045500000000000000000000000000000000000000000000000000000000000000000008045500   048   8                            C20241230                      
1012024120635       032690028562                  REFF    032690028562                  2025013000000023        20241202000000000008045500000000000000000000000000000000000000000000000000000000000000000008045500   048   8                            C20250130                      
1012024120635       032690028562                  REFF    032690028562                  2025022800000024        20241202000000000008045500000000000000000000000000000000000000000000000000000000000000000008045500   048   8                            C20250228                      
1012024120635       032690028562                  REFF    032690028562                  2025033000000025        20241202000000000008045500000000000000000000000000000000000000000000000000000000000000000008045500   048   8                            C20250330                      
1012024120635       032690028562                  REFF    032690028562                  2025043000000026        20241202000000000008045500000000000000000000000000000000000000000000000000000000000000000008045500   048   8                            C20250430                      
1012024120635       032690028562                  REFF    032690028562                  2025053000000027        20241202000000000008045500000000000000000000000000000000000000000000000000000000000000000008045500   048   8                            C20250530                      
1012024120635       032690028562                  REFF    032690028562                  2025063000000028        20241202000000000008045500000000000000000000000000000000000000000000000000000000000000000008045500   048   8                            C20250630                      
1012024120635       032690028562                  REFF    032690028562                  2025073000000029        20241202000000000008045500000000000000000000000000000000000000000000000000000000000000000008045500   048   8                            C20250730                      
1012024120635       032690028562                  REFF    032690028562                  2025083000000030        20241202000000000008045500000000000000000000000000000000000000000000000000000000000000000008045500   048   8                            C20250830                      
1012024120635       032690028562                  REFF    032690028562                  2025093000000031        20241202000000000008045500000000000000000000000000000000000000000000000000000000000000000008045500   048   8                            C20250930                      
1012024120635       032690028562                  REFF    032690028562                  2025103000000032        20241202000000000008045500000000000000000000000000000000000000000000000000000000000000000008045500   048   8                            C20251030                      
1012024120635       032690028562                  REFF    032690028562                  2025113000000033        20241202000000000008045500000000000000000000000000000000000000000000000000000000000000000008045500   048   8                            C20251130                      
1012024120635       032690028562                  REFF    032690028562                  2025123000000034        20241202000000000008045500000000000000000000000000000000000000000000000000000000000000000008045500   048   8                            C20251230                      
1012024120635       032690028562                  REFF    032690028562                  2026013000000035        20241202000000000008045500000000000000000000000000000000000000000000000000000000000000000008045500   048   8                            C20260130                      
1012024120635       032690028562                  REFF    032690028562                  2026022800000036        20241202000000000008045500000000000000000000000000000000000000000000000000000000000000000008045500   048   8                            C20260228                      
1012024120635       032690028562                  REFF    032690028562                  2026033000000037        20241202000000000008045500000000000000000000000000000000000000000000000000000000000000000008045500   048   8                            C20260330                      
1012024120635       032690028562                  REFF    032690028562                  2026043000000038        20241202000000000008045500000000000000000000000000000000000000000000000000000000000000000008045500   048   8                            C20260430                      
1012024120635       032690028562                  REFF    032690028562                  2026053000000039        20241202000000000008045500000000000000000000000000000000000000000000000000000000000000000008045500   048   8                            C20260530                      
1012024120635       032690028562                  REFF    032690028562                  2026063000000040        20241202000000000008045500000000000000000000000000000000000000000000000000000000000000000008045500   048   8                            C20260630                      
1012024120635       032690028562                  REFF    032690028562                  2026073000000041        20241202000000000008045500000000000000000000000000000000000000000000000000000000000000000008045500   048   8                            C20260730                      
1012024120635       032690028562                  REFF    032690028562                  2026083000000042        20241202000000000008045500000000000000000000000000000000000000000000000000000000000000000008045500   048   8                            C20260830                      
1012024120635       032690028562                  REFF    032690028562                  2026093000000043        20241202000000000008045500000000000000000000000000000000000000000000000000000000000000000008045500   048   8                            C20260930                      
1012024120635       032690028562                  REFF    032690028562                  2026103000000044        20241202000000000008045500000000000000000000000000000000000000000000000000000000000000000008045500   048   8                            C20261030                      
1012024120635       032690028562                  REFF    032690028562                  2026113000000045        20241202000000000008045500000000000000000000000000000000000000000000000000000000000000000008045500   048   8                            C20261130                      
1012024120635       032690028562                  REFF    032690028562                  2026123000000046        20241202000000000008045500000000000000000000000000000000000000000000000000000000000000000008045500   048   8                            C20261230                      
1012024120635       032690028562                  REFF    032690028562                  2027013000000047        20241202000000000008045500000000000000000000000000000000000000000000000000000000000000000008045500   048   8                            C20270130                      
1012024120635       032690028562                  REFF    032690028562                  2027022800000048        20241202000000000008045500000000000000000000000000000000000000000000000000000000000000000008045500   048   8                            C20270228                      
1012024120635       032710000421                  ESPF    032710000421                  2024101100000041        20240729000000000010389300000000000000000000000000000000000000000000000000000000000000000002030300   060   7                            C20241011                      
1012024120635       034960006463                  REFJ    034960006463                  2024100100000016                000000000014637100000000000000000000000000000000000000000000000000000000000000000000000000   036   1                             20241001                      
1012024120635       034960006463                  REFJ    034960006463                  2024110100000017                000000000014637100000000000000000000000000000000000000000000000000000000000000000000000000   036   1                             20241101                      
1012024120635       034960006463                  REFJ    034960006463                  2024120100000018                000000000014637100000000000000000000000000000000000000000000000000000000000000000000000000   036   1                             20241201                      
1012024120635       034960006463                  REFJ    034960006463                  2025010100000019                000000000014637100000000000000000000000000000000000000000000000000000000000000000000000000   036   1                             20250101                      
1012024120635       034960006463                  REFJ    034960006463                  2025020100000020                000000000014637100000000000000000000000000000000000000000000000000000000000000000000000000   036   1                             20250201                      
1012024120635       034960006463                  REFJ    034960006463                  2025030100000021                000000000014637100000000000000000000000000000000000000000000000000000000000000000000000000   036   1                             20250301                      
1012024120635       034960006463                  REFJ    034960006463                  2025040100000022                000000000014637100000000000000000000000000000000000000000000000000000000000000000000000000   036   1                             20250401                      
1012024120635       034960006463                  REFJ    034960006463                  2025050100000023                000000000014637100000000000000000000000000000000000000000000000000000000000000000000000000   036   1                             20250501                      
1012024120635       034960006463                  REFJ    034960006463                  2025060100000024                000000000014637100000000000000000000000000000000000000000000000000000000000000000000000000   036   1                             20250601                      
1012024120635       034960006463                  REFJ    034960006463                  2025070100000025                000000000014637100000000000000000000000000000000000000000000000000000000000000000000000000   036   1                             20250701                      
1012024120635       034960006463                  REFJ    034960006463                  2025080100000026                000000000014637100000000000000000000000000000000000000000000000000000000000000000000000000   036   1                             20250801                      
1012024120635       034960006463                  REFJ    034960006463                  2025090100000027                000000000014637100000000000000000000000000000000000000000000000000000000000000000000000000   036   1                             20250901                      
1012024120635       034960006463                  REFJ    034960006463                  2025100100000028                000000000014637100000000000000000000000000000000000000000000000000000000000000000000000000   036   1                             20251001                      
1012024120635       034960006463                  REFJ    034960006463                  2025110100000029                000000000014637100000000000000000000000000000000000000000000000000000000000000000000000000   036   1                             20251101                      
1012024120635       034960006463                  REFJ    034960006463                  2025120100000030                000000000014637100000000000000000000000000000000000000000000000000000000000000000000000000   036   1                             20251201                      
1012024120635       034960006463                  REFJ    034960006463                  2026010100000031                000000000014637100000000000000000000000000000000000000000000000000000000000000000000000000   036   1                             20260101                      
1012024120635       034960006463                  REFJ    034960006463                  2026020100000032                000000000014637100000000000000000000000000000000000000000000000000000000000000000000000000   036   1                             20260201                      
1012024120635       034960006463                  REFJ    034960006463                  2026030100000033                000000000014637100000000000000000000000000000000000000000000000000000000000000000000000000   036   1                             20260301                      
1012024120635       034960006463                  REFJ    034960006463                  2026040100000034                000000000014637100000000000000000000000000000000000000000000000000000000000000000000000000   036   1                             20260401                      
1012024120635       034960006463                  REFJ    034960006463                  2026050100000035                000000000014637100000000000000000000000000000000000000000000000000000000000000000000000000   036   1                             20260501                      
1012024120635       034960006463                  REFJ    034960006463                  2026060100000036                000000000014637100000000000000000000000000000000000000000000000000000000000000000000000000   036   1                             20260601                      
1012024120635       035160003067                  PARF    035160003067                  2023111200000027        20240730000000000020099400000000000000000000000000000000000000000000000000000000000000000006246300   036   7                            C20231112                      
1012024120635       035900007784                  REFF    035900007784                  2024072600000024                000000000022147400000000000000000000000000000000000000000000000000000000000000000000000000   036   1                             20240726                      
1012024120635       035900007784                  REFF    035900007784                  2024082600000025                000000000022147400000000000000000000000000000000000000000000000000000000000000000000000000   036   1                             20240826                      
1012024120635       035900007784                  REFF    035900007784                  2024092600000026                000000000022147400000000000000000000000000000000000000000000000000000000000000000000000000   036   1                             20240926                      
