001202412062024120600000102
1012024120615       026810014598                  104287478410   DAVID RICARDO DA SILVA BARBOZA               19791229                                                                                                                                                                                                                                                                                                                                                                                                                                       AV MATO GROSSO                                    3590      SALA 1 A 5                                        VIVENDAS DO BOSQUE       CAMPO GRANDE           MS79021003                                                                                                                                                                                                                                                                                                                            NPE                                          2024120320241229                                                                                                                                                                                                                                                                       MO                            000000000000000000        00000000R                                                            DAVID.RICARDOBARBOZA@ICLOUD.COM                             
1012024120615       053460001624                  106850346407   DIOGENES HILDEBRANDO BIZERRA SANTOS          19870817                                                                                                                                                                                                                                                                                                                                                                                                                                       EUGENIO JOSE DE SOUZA                             1072      CASA                                              AUGUSTO ALENCAR SAMP     SALGUEIRO              PE56000000                                                                                          EMPRESARIO                    EUGENIO JOSE DE SOUZA                                   1072CASA                                              AUGUSTO ALENCAR SAMP     SALGUEIRO              PE56000000                            NPE                                          2024093020241229                                                                                                                                                                                                                                                                       MS                            000000000000000000        00000000R                                                                                                                        
1012024120615       036110003683                  194570167853   CELIA MARIA DA SILVA                         19540412                                                                                                                                                                                                                                                                                                                                                                                                                                       R RUI BARBOSA                                     80        AP 113                                            SANTO ANTONIO            SAO CAETANO DO SUL     SP095302401140045215                                                                                EMPRESARIO                    R RUI BARBOSA                                             80                                                  SANTO ANTONIO            SAO CAETANO DO SUL     SP09530240                            NPE                                          2024010320241229                                                                                                                                                                                                                                                                       FS                            000000000000000000        00000000R                                                                                                                        
1012024120615       050060001224                  130045226830   RONAN DOS SANTOS                             19820328                                                                                                                                                                                                                                                                                                                                                                                                                                       R PAULO FRANCO                                    354       APTO33                                            VILA HAMBURGUESA         SAO PAULO              SP05305030                                                                                          OUTRAS                        R PAULO FRANCO                                           354APTO33                                            VILA HAMBURGUESA         SAO PAULO              SP05305030                            NPE                                          2023103020241229                                                                                                                                                                                                                                                                       MS402633453                   000000000000000000        00000000R                                                                                                                        
1012024120615       035160001918                  104673520386   JOSE LUIS OLIVEIRA NASCIMENTO                19890309                                                                                                                                                                                                                                                                                                                                                                                                                                       R FRANCISCO                                       242                                                         C NOVA                   SAO LUIS               MA65083424                    AMBEV S.A.                                                            GERENTE TODAS A               AV EMILIANO MACIEIRA                                      SN                                                  PEDRINHAS                SAO LUIS               MA65095603                            NPE                                          2024120520241226                                                                                                                                                                                                                                                                       MO0481530225                  000000000000000000        00000000R987151740           999694978           33136039            JLGLADIADOR310@GMAIL.COM                                    
1012024120615       036200001706                  196950366515   DIUMA TEREZA PORTO COELHO                    19750414                                                                                                                                                                                                                                                                                                                                                                                                                                       RUA EUNICE FAGUNDES                               320       CASA                                              ALTO CAICARA             GUANAMBI               BA46430000                                                                                          OUTRAS                        RUA EUNICE FAGUNDES                                      320CASA                                              ALTO CAICARA             GUANAMBI               BA464300007734517330                  NPE                                          2022120720241229                                                                                                                                                                                                                                                                       FS07110872                    000000000000000000        00000000R77999654081         999654081           998173705           VIP-FLEX@HOTMAIL.COM                                        
1012024120615       038620000182                  109499973826   AIRTON BATISTA DE SOUZA                      19690410                                                                                                                                                                                                                                                                                                                                                                                                                                       R ALINE                                           28        A                                                 VILA ROSEIRA II          SAO PAULO              SP08466030                                                                                          GERENTE - TODAS               R ALINE                                                   28                                                  VILA ROSEIRA II          SAO PAULO              SP08466030                            NPE                                          2024010320241229                                                                                                                                                                                                                                                                       MS21320064                    000000000000000000        00000000R11962935117         962935117           11943967144         WGSFULL@GMAIL.COM                                           
1012024120615       035160000908                  161020284307   ANDERSON VALE ROCHA                          19980628                                                                                                                                                                                                                                                                                                                                                                                                                                       RUA MASSARANDUBA                                  01                                                          PQ COPACABANA            PACO DO LUMIAR         MA65130000                    N A                                                                   OUTRAS                        RUA MASSARANDUBA                                          01                                                  PQ COPACABANA            PACO DO LUMIAR         MA65130000                            NPE                                          2022120720241229                                                                                                                                                                                                                                                                       MS0441641820                  000000000000000000        00000000R98988529323         992033142           985927486           ANDERSONVALEROCHA2806@GMAIL.COM                             
1012024120615       026980005613                  111542510805   LUIZ HENRIQUE VIGERELLI                      19630806                                                                                                                                                                                                                                                                                                                                                                                                                                       R CASCALHO                                        899                                                         CENTRO                   LIMEIRA                SP13480771                    N A                                                                   OUTRAS                        R BARAO DE CASCALHO                                      998                                                  CENTRO                   LIMEIRA                SP134807701140045215                  NPE                                          2022120120241229                                                                                                                                                                                                                                                                       MS14030593                    000000000000000000        00000000R19981386686                                                                                                             
1012024120615       038720003086                  110990954927   JOAO VICTOR DOS SANTOS                       19990111                                                                                                                                                                                                                                                                                                                                                                                                                                       SRV DOMINGOS IZALTINO DOS SANTOS                  149                                                         VARGEM GRANDE            FLORIANOPOLIS          SC88052616                    LUMAR EMPREENDIMENTOS NAUTICOS                                        GERENTE - TODAS               ROD TERTULIANO BRITO XAVIER                             3000                                                  CANASVIEIRAS             FLORIANOPOLIS          SC88054600                            NPE                                          2023063020241229                                                                                                                                                                                                                                                                       MS7121631                     000000000000000000        00000000R48988201248         998292568           32660825            JOAOVICTOR2-JESUS@HOTMAIL.COM                               
1012024120615       038710000910                  108606069884   ROBERTO CARLOS MILANTONI                     19660926                                                                                                                                                                                                                                                                                                                                                                                                                                       R ANTONIO RODRIGUES ARZAO                         32                                                          VL PRES WILSON           MOGI DAS CRUZES        SP08740190                                                                                          GERENTE - TODAS               R ANTONIO RODRIGUES ARZAO                                 32                                                  VILA PRESIDENTE WILSON   MOGI DAS CRUZES        SP087401901147384271                  NPE                                          2022120120241229                                                                                                                                                                                                                                                                       MS146241319                   000000000000000000        00000000R11977987561         999574451           961090616           MILANTONI10@GMAIL.COM                                       
1012024120615       030120047571                  108850308779   MARIA IZABEL SANTOS SABINO                   19781022                                                                                                                                                                                                                                                                                                                                                                                                                                       R MARCOS DO NASCIMENTO                            73        C 3                                               ANCHIETA                 RIO DE JANEIRO         RJ21645390                                                                                          OUTRAS                        R MARCOS DO NASCIMENTO                                    73C 3                                               ANCHIETA                 RIO DE JANEIRO         RJ21645390                            NPE                                          2022110520250103                                                                                                                                                                                                                                                                       FS0726334148                  000000000000000000        00000000R21988337114         2124556369          2124556369          GIGANTE_2007@HOTMAIL.COM                                    
1012024120615       050320001984                  112504163614   CAIO WALLACE DA SILVA DE ALMEIDA             19960605                                                                                                                                                                                                                                                                                                                                                                                                                                       R LIMA DUARTE                                     370       CASA 2                                            BENFICA                  JUIZ DE FORA           MG36090570                                                                                          GERENTE - TODAS               R LIMA DUARTE                                            370                                                  BENFICA                  JUIZ DE FORA           MG36090570                            NPE                                          2023122820241231                                                                                                                                                                                                                                                                       MSMG17294849                  000000000000000000        00000000R32991047685         991047685           987016059           CAIO.WALLACE@HOTMAIL.COM                                    
1012024120615       037830003901                  110823777839   ANDRELINO MIRANDA DE SOUSA                   19681127                                                                                                                                                                                                                                                                                                                                                                                                                                       AV JESUS DE NAZARETH                              133       CASA                                              FERRAZOPOLIS             SAO BERNARDO DO CAMPO  SP09790530                                                                                          APOSENTADO                                                                                                                                                                                                                        NPE                                          2023061220241215                                                                                                                                                                                                                                                                       MS185897988                   000000000000000000        00000000R977427193           998238143           43353541            MIRANDAANDRELINO@GMAIL.COM                                  
1012024120615       035900014860                  126609281858   NEI WAGNER DE OLIVEIRA                       19780420                                                                                                                                                                                                                                                                                                                                                                                                                                       ROQUE RODRIGUES DE SOUZA                          55                                                          RECANTO MORRO DO ALGODAO CARAGUATATUBA          SP11671145                    NENHUMA                                                               GERENTE - TODAS               ROQUE RODRIGUES DE SOUZA                                  55                                                  RECANTO MORRO DO ALGODAO CARAGUATATUBA          SP11671145                            NPE                                          2024010320241229                                                                                                                                                                                                                                                                       MS300770339                   000000000000000000        00000000R                    981030839           981030839           NEIWAGNER1978@GMAIL.COM                                     
1012024120615       050300002471                  105691619837   ROSMEIRY BANOV PIOLI                         19640408                                                                                                                                                                                                                                                                                                                                                                                                                                       R DOUTOR JOSE CANDIDO DE SOUZA                    323                                                         JARDIM NOVO MUNDO        SAO PAULO              SP04518050                                                                                          EMPRESARIO                                                                                                                                                                                                                        NPE                                          2023103020241229                                                                                                                                                                                                                                                                       FS15891226                    000000000000000000        00000000R                    992813832           55616065            SASKIA_ROSSI@MSN.COM                                        
1012024120615       038080000356                  103343598992   ANA PAULA WLOCH                              19801130                                                                                                                                                                                                                                                                                                                                                                                                                                       R JULIO FRANCISCO REGIS                           43                                                          VILA MOEMA               TUBARAO                SC887051304832473096                                                                                EMPRESARIO                    AV MARCOLINO MARTINS CABRAL                             1315                                                  CENTRO                   TUBARAO                SC887011051140045215                  NPE                                          2022110520250105                                                                                                                                                                                                                                                                       FS3834379                     000000000000000000        00000000R48991093010         999864595           32473096            ANAPWLOCH@HOTMAIL.COM                                       
1012024120615       211900041319                  109478296795   GEIZA FROLICH PERONNI LERBACH                19820909                                                                                                                                                                                                                                                                                                                                                                                                                                       AV FIORAVANTE ROSSI                               359       EM FRENTE AO CARLITOS BAR                         SAO BRAZ                 COLATINA               ES29703041                                                                                          EMPRESARIO                    TV JOSE ZON                                              165                                                  MARIA DAS GRACAS         COLATINA               ES29705016                            NPE                                          2023033020241229                                                                                                                                                                                                                                                                       FS0468605862                  000000000000000000        00000000R27998425314         998425314           998425314           GEIZAFROLICH@GMAIL.COM                                      
1012024120615       050340000097                  113014320757   RITA DE KASSYA SOARES VIEIRA                 20000308                                                                                                                                                                                                                                                                                                                                                                                                                                       CORREGO DOS COELHOS                               SN                                                          ZONA RURAL               IRUPI                  ES29398000                                                                                          OUTRAS                        CORREGO DOS COELHOS                                       SN                                                  ZONA RURAL               IRUPI                  ES293980001140045215                  NPE                                          2022120720250109                                                                                                                                                                                                                                                                       FS21996991                    000000000000000000        00000000R28999023917         999443785           40045215            RITADEKASSYASOARES@GMAIL.COM                                
1012024120615       211900028640                  114324141789   BRUNO GONCALVES DA SILVA                     19931204                                                                                                                                                                                                                                                                                                                                                                                                                                       R DUQUE DE CAXIAS                                 260       CASA                                              CONDADOS                 GUARAPARI              ES29209064                    FARMACIA MEAIPE                                                       GERENTE - TODAS               AV DONARIO FRANCISCO DE JESUS                             99LOJA                                              MEAIPE                   GUARAPARI              ES29208015                            NPE                                          2023013020241229                                                                                                                                                                                                                                                                       MS3235575                     000000000000000000        00000000R27998359890         999577829           998359890           BRUNOGDASILVA84231@GMAIL.COM                                
1012024120615       048610000560                  108122278833   ANTONIO RIBEIRO DE MIRANDA JUNIOR            19690711                                                                                                                                                                                                                                                                                                                                                                                                                                       FRANCISCA MARIA DE JESUS                          248       APTO 201 BL 03                                    FLORADAS DE SAO JOSE     SAO JOSE DOS CAMPOS    SP12230083                    NENHUMA                                                               GERENTE - TODAS               FRANCISCA MARIA DE JESUS                                 248APTO 201 BL 03                                    FLORADAS DE SAO JOSE     SAO JOSE DOS CAMPOS    SP12230083                            NPE                                          2024013120241229                                                                                                                                                                                                                                                                       MS18733688X                   000000000000000000        00000000R                    997468188           991066069                                                                       
1012024120615       029010000801                  138388516841   ELIVELTON SOUSA AMORIM                       19920116                                                                                                                                                                                                                                                                                                                                                                                                                                       R VIRGILIO MIRAGLIA                               227                                                         NOVA PETROPOLIS          SAO BERNARDO DO CAMPO  SP09780540                    MORIAH SOLUCOES EDUCACIONAIS                                          MOTORISTA                     AV SAO VICENTE                                           230                                                  V B FUNDA                SAO PAULO              SP01139000                            NPE                                          2023013020241229                                                                                                                                                                                                                                                                       MS496437847                   000000000000000000        00000000R11934060960         964160041           953185701           ALESSANDRA.MARINA@ATBTRANSP.COM.BR                          
1012024120615       037140000087                  170773418105   WEMERSON ALVES DA SILVA                      19980715                                                                                                                                                                                                                                                                                                                                                                                                                                       R JC33                                            SN        QD 64 L 15                                        JARDIM CURITIBA          GOIANIA                GO74481150                                                                                          EMPRESARIO                    AV ANHANGUERA                                           7840STAND 292                                         SETOR CAMPINAS           GOIANIA                GO745031006232394470                  NPE                                          2022120120250103                                                                                                                                                                                                                                                                       MS6412477                     000000000000000000        00000000R62992649792         993933679           39324470            IMPORTELETRONICOS292@GMAIL.COM                              
1012024120615       050300000190                  113262451800   ALESSANDRA NOGUEIRA                          19700529                                                                                                                                                                                                                                                                                                                                                                                                                                       R DEPUTADO LAERCIO CORTE                          951       APTO 191 M                                        PARAISO DO MORUMBI       SAO PAULO              SP05706290                    X                                                                     OUTRAS                        R DEPUTADO LAERCIO CORTE                                 951APTO 191 M                                        PARAISO DO MORUMBI       SAO PAULO              SP05706290                            NPE                                          2023050320241229                                                                                                                                                                                                                                                                       FS9.946.830-                  000000000000000000        00000000R                    985782828           11978808048         DRA.ALESSANDRANOGUEIRA@HOTMAIL.COM                          
1012024120615       034900000185                  100046143645   ONEIDA DOS SANTOS DE SOUZA                   19760128                                                                                                                                                                                                                                                                                                                                                                                                                                       R TRIANGULO                                       164                                                         TRIANGULO                DORES DO INDAIA        MG35610000                                                                                          EMPRESARIO                    R TIPUANA                                                220                                                  JULIANA                  BELO HORIZONTE         MG317446653134539211                  NPE                                          2022120120241229                                                                                                                                                                                                                                                                       FSMG7442664                   000000000000000000        00000000R31975790625         994418160           975790625           ONEIDAFOCUS.SOFT@GMAIL.COM                                  
1012024120615       211980001919                  103590622458   LINDEMBERG DE SOUSA SILVA                    19800816                                                                                                                                                                                                                                                                                                                                                                                                                                       R LUZINALDA EDITE DE ARAUJO LEITE                 498       AP406 A                                           SERROTAO                 CAMPINA GRANDE         PB58434323                    ODONTOMED                                                                                           R CALIXTO                                                222                                                  CATOLE                   CAMPINA GRANDE         PB58410340                            NPE                                          2022110520241229                                                                                                                                                                                                                                                                       MS2.633.363                   000000000000000000        00000000R11933896000         998774301           21483918            ALEXANDREMARTINS70@HOTMAIL.COM                              
1012024120615       037030000095                  102491388162   PAULO HENRIQUE LIMA DA CUNHA OLIVEIRA        19880809                                                                                                                                                                                                                                                                                                                                                                                                                                       RUA 23 DE JANEIRO                                 SN        QD 10 LT32D                                       ST SIBRAZEN              EDEIA                  GO75940000                                                                                          OUTRAS                        RUA 23 DE JANEIRO                                         SNQD 10 LT32D                                       ST SIBRAZEN              EDEIA                  GO759400001140045215                  NPE                                          2022120120241229                                                                                                                                                                                                                                                                       MS5231557                     000000000000000000        00000000R64999174566         999174566           40045215            MAURISIA25OLIVEIRA@GMAIL.COM                                
1012024120615       055410000382                  132547076802   MARCO LOLIO FRANCO DE CAMPOS                 19830722                                                                                                                                                                                                                                                                                                                                                                                                                                       R ATALIBA SILVEIRA FRANCO                         37                                                          VL S JOSE                MOGI MIRIM             SP13801321                                                                                                                        R ATALIBA SILVEIRA FRANCO                                 37                                                  VL S JOSE                MOGI MIRIM             SP13801321                            NPE                                          2024040320241229                                                                                                                                                                                                                                                                       MO3254707680                  000000000000000000        00000000R                    997056005           976000394           MARCO@FRANCODECAMPOS.COM.BR                                 
1012024120615       038720004417                  162573721000   FABIANO RICARDO DE AVILA LONGARAY            19770209                                                                                                                                                                                                                                                                                                                                                                                                                                       R ALCIDES LIMA                                    235                                                         MORADA DO VALE I         GRAVATAI               RS94110140                                                                                          OUTRAS                        R ALCIDES LIMA                                           235                                                  MORADA DO VALE I         GRAVATAI               RS94110140                            NPE                                          2024040320241229                                                                                                                                                                                                                                                                       MS0022646454                  000000000000000000        00000000R                    985985812           984416719           AGUIADOURADA1977@GMAIL.COM                                  
1012024120615       035900018227                  139988489838   WELLINGTON ION SILVA                         19900520                                                                                                                                                                                                                                                                                                                                                                                                                                       LUPE COTRIM GARAUDE                               268                                                         JARDIM TERESA            SAO PAULO              SP03261070                                                                                          EMPRESARIO                    LUPE COTRIM GARAUDE                                      268                                                  JARDIM TERESA            SAO PAULO              SP03261070                            NPE                                          2024103120241229                                                                                                                                                                                                                                                                       MS                            000000000000000000        00000000R                                                                                                                        
1012024120615       054880001056                  160802053351   MAYLON LIMA ALVES                            19940417                                                                                                                                                                                                                                                                                                                                                                                                                                       R PE PERDIGAO SAMPAIO                             607       CASA 1                                            ANTONIO BEZERRA          FORTALEZA              CE60352350                                                                                          EMPRESARIO                    R PE PERDIGAO SAMPAIO                                    607CASA A                                            ANTONIO BEZERRA          FORTALEZA              CE60352350                            NPE                                          2024102820241226                                                                                                                                                                                                                                                                       MS                            000000000000000000        00000000R                                                                                                                        
1012024120615       211040043251                  103797312822   LUIZ ADOLPHO IANHEZ                          19611004                                                                                                                                                                                                                                                                                                                                                                                                                                       R CAPITAO SILVIO CAETANO MARQUES                  36                                                          BARREIRINHA              CURITIBA               PR82710110                                                                                          OUTRAS                        R CAPITAO SILVIO CAETANO MARQUES                          36CASA                                              BARREIRINHA              CURITIBA               PR82710110                            NPE                                          2024012220241218                                                                                                                                                                                                                                                                       MS                            000000000000000000        00000000R41992848206         992848206           992848206           LUIZADOLPHO.IANHEZ@YAHOO.COM.BR                             
1012024120615       021130018526                  102154345441   THENIUS BRITO DE SOUSA                       19760812                                                                                                                                                                                                                                                                                                                                                                                                                                       R HONORIO LEAO                                    SN        234-318 A101 02                                   ST M SOL                 RIO VERDE              GO75909070                                                                                          EMPRESARIO                    AV JOSE WALTER                                             1Q96 L2 SL1                                        ST M SOL                 RIO VERDE              GO75908740                            NPE                                          2023013020241229                                                                                                                                                                                                                                                                       MS12-08-1976                  000000000000000000        00000000R94981117687         11932866131         11932866131         THENIUSBRITO@GMAIL.COM                                      
1012024120615       026420011870                  100451175190   JONEL JUNIOR ESPIRITO SANTO                  19800902                                                                                                                                                                                                                                                                                                                                                                                                                                       DR HELIO RIBEIRO                                  487       SL02 ED CONCORDE AC ANDREIA QU                    PAIAGUAS                 CUIABA                 MT78048250                                                                                          OUTRAS                        AV PANTANEIRA                                             24                                                  MARAJOARA                VARZEA GRANDE          MT781383551140045215                  NPE                                          2023103020241229                                                                                                                                                                                                                                                                       MS014246422                   000000000000000000        00000000R                    993621699           993621699           JONELSANTO@GMAIL.COM                                        
1012024120615       211040027722                  110211003662   GEISLIN PAIXAO FERREIRA                      19940812                                                                                                                                                                                                                                                                                                                                                                                                                                       RUA LUIZ GALVAO                                   59                                                          CENTRO                   CARMO DA CACHOEIRA     MG37225000                                                                                          EMPRESARIO                                                                                                                                                                                                                        NPE                                          2022120120241229                                                                                                                                                                                                                                                                       FS0606002432                  000000000000000000        00000000R35988616994         988616994           32251303            GEISLIN.FERREIRA@HOTMAIL.COM                                
1012024120615       035210004090                  134750380563   DANIEL JOSE DE SANTANA                       19650918                                                                                                                                                                                                                                                                                                                                                                                                                                       R CANDIDO FONTOURA                                575       401 D                                             JARDIM BOA VISTA ZONA OESSAO PAULO              SP05583070                                                                                          OUTRAS                        R CANDIDO FONTOURA                                       575401 D                                             JARDIM BOA VISTA ZONA OESSAO PAULO              SP05583070                            NPE                                          2022120820241207                                                                                                                                                                                                                                                                       MS0192654545                  000000000000000000        00000000R11940089844         947967985           940089844           DANIELJOSEDESANTANA@YAHOO.COM.BR                            
1012024120615       211570025739                  159797410544   TELMA SOUSA SILVA DE JESUS                   19710211                                                                                                                                                                                                                                                                                                                                                                                                                                       TRAVESSA DA RODOVIA                               1523      1 ANDAR                                           BOA VISTA DE SAO CAETANO SALVADOR               BA40385010                                                                                          EMPRESARIO                    TRAVESSA DA RODOVIA                                     15231 ANDAR                                           BOA VISTA DE SAO CAETANO SALVADOR               BA40385010                            NPE                                          2024070220241229                                                                                                                                                                                                                                                                       MS                            000000000000000000        00000000R                    33049611            33049611            JPDEJESUS5@GMAIL.COM                                        
1012024120615       021970013103                  105442755940   GIRLAN JUSTINO DA SILVA                      19841218                                                                                                                                                                                                                                                                                                                                                                                                                                       AL PLUTAO                                         47        Q 11                                              JD EDWIRGES              BAURU                  SP17067350                                                                                          OUTRAS                        AL PLUTAO                                                 11QUADRA 47                                         PARQUE SANTA EDWIGES     BAURU                  SP17067350                            NPE                                          2023050320241229                                                                                                                                                                                                                                                                       MS0544275594                  000000000000000000        00000000R14981434461         981839761           981434461           GIRLAN257@GMAIL.COM                                         
1012024120615       211900036198                  109664102709   PRYSCYLA PESSIMILIO CAVERZAN                 19840212                                                                                                                                                                                                                                                                                                                                                                                                                                       AV SANTOS DUMONT                                  335                                                         ARACA                    LINHARES               ES29901445                    CMC MERCANTIL LTDA                                                    GERENTE - TODAS               AV SANTOS DUMONT                                         335                                                  ARACA                    LINHARES               ES299014452733735566                  NPE                                          2022120120241229                                                                                                                                                                                                                                                                       FS0342293031                  000000000000000000        00000000R27999049356         999049356           33735566                                                                        
1012024120615       037820001803                  141555897886   FILIPE ALVES DE MATOS                        19911104                                                                                                                                                                                                                                                                                                                                                                                                                                       R VALDEMIR PANELLI DAS DORES                      131       CASA                                              JARDIM CASA GRANDE       ITAPETININGA           SP18211090                    LUA                                                                   OUTRAS                        R VALDEMIR PANELLI DAS DORES                             131CASA                                              JARDIM CASA GRANDE       ITAPETININGA           SP182110901532751978                  NPE                                          2023013020241229                                                                                                                                                                                                                                                                       MS48022287                    000000000000000000        00000000R15998024897                                                 FEE.ALVEZ@HOTMAIL.COM                                       
1012024120615       036290009079                  100274735113   DANILLO SANTOS BORGES                        19850702                                                                                                                                                                                                                                                                                                                                                                                                                                       ANTONIO FIDELIS                                   104       AP 106A LT1-13                                    PARQUE AMAZONIA          GOIANIA                GO74840090                                                                                          OUTRAS                        ANTONIO FIDELIS                                          104A L                                               PARQUE AMAZONIA          GOIANIA                GO74840090                            NPE                                          2024011120241229                                                                                                                                                                                                                                                                       MS4518733                     000000000000000000        00000000R                    981683593           981683593           DANILLOPSY@GMAIL.COM                                        
1012024120615       032690022070                  105482817695   CELIO PINTO MENDONCA JUNIOR                  19830225                                                                                                                                                                                                                                                                                                                                                                                                                                       ALAMEDA DAS AROEIRAS                              110                                                         RECANTO DAS SAIRAS       LAGOA SANTA            MG33400000                                                                                          OUTRAS                        ALAMEDA DAS AROEIRAS                                     110                                                  RECANTO DAS SAIRAS       LAGOA SANTA            MG33400000                            NPE                                          2024070220241229                                                                                                                                                                                                                                                                       MS6385518                     000000000000000000        00000000R                    999521506           984581371           CELIO.MENDONCA@YAHOO.COM.BR                                 
1012024120615       033010002772                  142645182887   ANTONIO CARLOS FRANCESCHINELLI               19510815                                                                                                                                                                                                                                                                  1130823198                                                                                                                                                           R MENDONCA FURTADO                                645                                                         SAO PAULO II             SAO PAULO              SP067061351146121485          FRANKAL ADMINISTRACAO E CORRET                                        ADMINISTRADOR                 R CANECA                                                  39                                                  S PAULO II               COTIA                  SP06706015                            NPE                                          2023022720241230                                                                                                                                                                                                                                                                       MC6569151                     000000000000000000        00000000R11988881351         988881351           47023400            ANTONIO2171@TERRA.COM.BR                                    
1012024120615       022800022727                  126078767100   WALTENE JUNQUEIRA FILHO                      19610726                                                                                                                                                                                                                                                                                                                                                                                                                                       R 28                                              189                                                         SETOR MARISTA            GOIANIA                GO74150090                                                                                          OUTRAS                        R 28                                                     189                                                  SETOR MARISTA            GOIANIA                GO74150090                            NPE                                          2024013120241229                                                                                                                                                                                                                                                                       MS                            000000000000000000        00000000R991326932           62994945254         6230917555          WFJUNQUEIRA@HOTMAIL.COM                                     
1012024120615       211900038262                  100298497727   NILTON JOSE DE OLIVEIRA                      19680730                                                                                                                                                                                                                                                                                                                                                                                                                                       R MUQUI                                           1230                                                        RIVIERA DA BARRA         VILA VELHA             ES29126064                    PREFEITURA DE VILA VLHA                                               GERENTE - TODAS               R MUQUI                                                 1230                                                  RIVIERA DA BARRA         VILA VELHA             ES29126064                            NPE                                          2023030220241218                                                                                                                                                                                                                                                                       MS0788086                     000000000000000000        00000000R999983962           999987121           27999983962         PAMELAGCLARINDO@ICLOUD.COM                                  
1012024120615       050060001385                  194987688115   GILBERTO LUIZ TURCATEL JUNIOR                19820113                                                                                                                                                                                                                                                                                                                                                                                                                                       R Z                                               325                                                         DISTRITO INDUSTRIAL      CUIABA                 MT78098530                    NAO INFORMADO                                                         GERENTE - TODAS               R Z                                                      325                                                  DISTRITO INDUSTRIAL      CUIABA                 MT78098530                            NPE                                          2023103020241229                                                                                                                                                                                                                                                                       MS                            000000000000000000        00000000R65992405507         999942112           65996175049         JUNIORESPETOS@HOTMAIL.COM                                   
1012024120615       038720003392                  100773382437   MARCELO HENRIQUE VIANA VARELLA               19890401                                                                                                                                                                                                                                                                                                                                                                                                                                       R DEPUTADO JOCELIN VILAR                          14                                                          TIROL                    NATAL                  RN59020180                                                                                          OUTRAS                        R DEPUTADO JOCELIN VILAR                                  14                                                  TIROL                    NATAL                  RN59020180                            NPE                                          2023091920250105                                                                                                                                                                                                                                                                       MS2334951                     000000000000000000        00000000R84999768003         999768003           91989360338         MARCELOVARELLA.ADM@HOTMAIL.COM                              
1012024120615       003640032237                  181564830144   MARCUS VINICIUS COSTA                        19790531                                                                                                                                                                                                                                                                                                                                                                                                                                       AV ANTONIO ANTUNES JUNIOR                         4177      AP204 BL03                                        RESIDENCIAL ANA CELIA    SAO JOSE DO RIO PRETO  SP15045510                                                                                          GERENTE - TODAS               AV ANTONIO ANTUNES JUNIOR                               4177                                                  RESIDENCIAL ANA CELIA    SAO JOSE DO RIO PRETO  SP15045510                            NPE                                          2023050320241229                                                                                                                                                                                                                                                                       MS0218994451                  000000000000000000        00000000R17992307107         999932382           992307107           MARCUSVINICIOS1015@GMAIL.COM                                
1012024120615       211900019058                  112811823620   SEBASTIAO DIAS DE ALMEIDA                    19500512                                                                                                                                                                                                                                                                                                                                                                                                                                       R NELSON BOZONE                                   05                                                          TERRA VERMELHA           VILA VELHA             ES29127370                                                                                          APOSENTADO                                                                                                                                                                                                                        NPE                                          2022110520241229                                                                                                                                                                                                                                                                       MS876093                      000000000000000000        00000000R27995060424         998659060           988384559           SULINILO@HOTMAIL.COM                                        
1012024120615       055410002311                  134015340841   GRACIELA BORGES FERREIRA                     19810609                                                                                                                                                                                                                                                                                                                                                                                                                                       LAUDELINA XAVIER DE CAMPOS                        55                                                          JARDIM ZANIBONI I        MOGI GUACU             SP13848054                                                                                          EMPRESARIO                    LAUDELINA XAVIER DE CAMPOS                                55                                                  JARDIM ZANIBONI I        MOGI GUACU             SP13848054                            NPE                                          2024120520241218                                                                                                                                                                                                                                                                       MS                            000000000000000000        00000000R                                                                                                                        
1012024120615       029010004262                  115770369809   MARCELO CESAR LAURITO DIAS                   19711111                                                                                                                                                                                                                                                                                                                                                                                                                                       R SALVADOR VILAR DA SILVA                         36                                                          MOINHO VELHO             SAO PAULO              SP02960090                    NAO INFORMADO                                                         OUTRAS                        AV RIO BRANCO                                           1489                                                  CAMPOS ELISEOS           SAO PAULO              SP01295905                            NPE                                          2024120520241228                                                                                                                                                                                                                                                                       MS20394617                    000000000000000000        00000000R                                                                                                                        
1012024120615       038720004020                  144386415866   DEYMISON SILVA SANTOS                        19970405                                                                                                                                                                                                                                                                                                                                                                                                                                       R AFONSO FURTADO DE MENDONCA                      498                                                         JARDIM SILVINA           SAO BERNARDO DO CAMPO  SP09791000                                                                                          GERENTE - TODAS               ESTRADA GALVAO BUENO 5000                               5000                                                  BATISTINI                SAO BERNARDO DO CAMPO  SP09842900                            NPE                                          2024010320241229                                                                                                                                                                                                                                                                       MS556818362                   000000000000000000        00000000R11954343491         941653539           941653539           ATHAFINY@GMAIL.COM                                          
1012024120615       004110008910                  135014713866   DEBORA CRISTINA MARQUEZINI TEIXEIRA LIMA     19851217                                                                                                                                                                                                                                                                                                                                                                                                                                       R GUAROVA                                         292                                                         JARDIM DAS PALMEIRAS     VARZEA PAULISTA        SP13224670                                                                                          OUTRAS                        R GUAROVA                                                292                                                  JARDIM DAS PALMEIRAS     VARZEA PAULISTA        SP13224670                            NPE                                          2023100320241229                                                                                                                                                                                                                                                                       FS406503886                   000000000000000000        00000000R                    932169463           932169463                                                                       
1012024120615       211570019993                  177100379504   IVANEIDE MARIA TELES CARDOSO                 19720114                                                                                                                                                                                                                                                                                                                                                                                                                                       RUA 25 DE DEZEMBRO                                323       CASA                                              RODAGEM                  SERRINHA               BA48700000                    RUBEM NOGUEIRA                                                        GERENTE - TODAS               PRACA ASTROGILDA GUIMARAES                               135                                                  GINASIO                  SERRINHA               BA48700000                            NPE                                          2023013020241229                                                                                                                                                                                                                                                                       FS0502897058                  000000000000000000        00000000R991741456                                                                                                               
1012024120615       037820003408                  105430711977   ERIKA CRISTINA MARQUES BOLINCENHA            19880414                                                                                                                                                                                                                                                                                                                                                                                                                                       ENGENHEIRO NIEPCE DA SILVA                        490       AP 104 BLB                                        PORTAO                   CURITIBA               PR80610280                                                                                          EMPRESARIO                    ENGENHEIRO NIEPCE DA SILVA                               490AP 104 BLB                                        PORTAO                   CURITIBA               PR80610280                            NPE                                          2023073120241229                                                                                                                                                                                                                                                                       MS80674830                    000000000000000000        00000000R                    992779298           992779298           ERIKABOLINCENHA@HOTMAIL.COM                                 
1012024120615       211570024228                  139626636572   ARCENIO ALVES BESSA                          19730912                                                                                                                                                                                                                                                                                                                                                                                                                                       R DO MILAGRE                                      349                                                         SANTA LUZIA              BARREIRAS              BA47800828                                                                                          GERENTE - TODAS               R DO MILAGRE                                             349                                                  SANTA LUZIA              BARREIRAS              BA47800828                            NPE                                          2024022920241229                                                                                                                                                                                                                                                                       MS53284755                    000000000000000000        00000000R                                                                                                                        
1012024120615       030120045019                  110761798781   PAULA MENDES BENEDICTO DA SILVA              19830322                                                                                                                                                                                                                                                                  21979029073                                                                                                                                                          R DOUTOR GODOY                                    1065                                                        CHATUBA                  MESQUITA               RJ26585060                    N A                                                                   ADMINISTRADORA                R CASTRIOTO                                             2206ANEXO A                                           PROVISORIA               PETROPOLIS             RJ25615142                            NPE                                          2022120120241229                                                                                                                                                                                                                                                                       FS128665767                   000000000000000000        00000000R21983626586         985879216           965957006           EDUARDO2014.M@GMAIL.COM                                     
1012024120615       021510000854                  121722107812   THIAGO MOREIRA                               19780516                                                                                                                                                                                                                                                                                                                                                                                                                                       AV CAMPINAS                                       1910      BLO 34 APT 13                                     VL C JARDIM              LIMEIRA                SP13480280                                                                                                                                                                                                                                                                                                                            NPE                                          2022120720250105                                                                                                                                                                                                                                                                       MV30.356.713                  000000000000000000        00000000R993223617           1934513899          1934513899          THIAGO_CONSULTORIA@OUTLOOK.COM                              
1012024120615       003640025735                  103326058179   MARCIO ANTONIO DE ARAUJO REZENDE             19900311                                                                                                                                                                                                                                                                                                                                                                                                                                       ROD GO 060 KM 125                                 SN        CHACARA SANTANA                                   ZONA RURAL               SAO LUIS DE MONTES BELOGO76100000                    CHACARA SANTANA                                                       GERENTE - TODAS               CHACARA SANTANA ROD GO 060 KM 125                         SN                                                  ZONA RURAL               SAO LUIS DE MONTES BELOGO761000006436714532                  NPE                                          2023050320241229                                                                                                                                                                                                                                                                       MS0437090360                  000000000000000000        00000000R64984587082         999413063           36714532            DANIELACRISTINA2124@GMAIL.COM                               
1012024120615       211930009974                  140398045895   MARIA LIDIANE DA SILVA BOIA                  19910304                                                                                                                                                                                                                                                                                                                                                                                                                                       EST BORBA GATO                                    500                                                         ITAQUACIARA              ITAPECERICA DA SERRA   SP06876100                    LINX SISTEMAS E CONSULTORIA                                                                         AV DR RUTH CARDOSO                                      7221BIRMAMM 21                                        PINHEIROS                SAO PAULO              SP054259021130030400                  NPE                                          2023050320241229                                                                                                                                                                                                                                                                       FC522.284.66                  000000000000000000        00000000R                                                                                                                        
1012024120615       023620020622                  101215902913   JESSICA ADRIELLY MICHELS                     20000304                                                                                                                                                                                                                                                                                                                                                                                                                                       RUA EMILIO NUSS                                   SN        CX 02                                             CENTRO                   PRESIDENTE GETULIO     SC89150000                    CIPRIANI CORRETORA DE SEGUROS                                         GERENTE - TODAS               RUA MIRADOR                                              259CIPRIANI SEG                                      CENTRO                   PRESIDENTE GETULIO     SC89150000                            NPE                                          2023081620241215                                                                                                                                                                                                                                                                       FS6818207                     000000000000000000        00000000R47997903522         997903522           33521666            JESSICAMICHELS.ADRI@GMAIL.COM                               
1012024120615       211980001946                  101808544889   GENTIL ANACLETO DE OLIVEIRA NETO             19570915                                                                                                                                                                                                                                                                                                                                                                                                                                       R CAMPOS MELLO                                    447       66                                                ENCRUZILHADA             SANTOS                 SP11015013                                                                                                                                                                                                                                                                                                                            NPE                                          2023103020241228                                                                                                                                                                                                                                                                       MS9.682.246                   000000000000000000        00000000R1330195023          991015079           991015079                                                                       
1012024120615       038870000436                  116866311896   MARIA LUCI DOS SANTOS VASCONCELOS            19601120                                                                                                                                                                                                                                                                                                                                                                                                                                       R ALBANIA                                         105                                                         JARDIM NOVA CONQUISTA    LIMEIRA                SP13486670                                                                                          OUTRAS                        R ALBANIA                                                105                                                  JARDIM NOVA CONQUISTA    LIMEIRA                SP13486670                            NPE                                          2023050320241229                                                                                                                                                                                                                                                                       FS278244312                   000000000000000000        00000000R                    989420449           989420449           MARIALUCIAVASCONCELOS@HOTMAIL.COM                           
1012024120615       036120002057                  189595602868   GUSTAVO BARBETTA                             19550912                                                                                                                                                                                                                                                                                                                                                                                                                                       R CAIOABA                                         386       AP 176                                            VL GRACIOSA              SAO PAULO              SP03160060                                                                                                                                                                                                                                                                                                                            NPE                                          2022122820250109                                                                                                                                                                                                                                                                       MO7142979                     000000000000000000        00000000R11998648177         998648177           23416743            GUSTAVO.BARBETTA@BOL.COM.BR                                 
1012024120615       038720003610                  106207141580   ESTER ELOIZA RODRIGUES DA SILVA              19990521                                                                                                                                                                                                                                                                                                                                                                                                                                       R DOUTOR ABILIO FARIAS                            567                                                         RENATO GONCALVES         BARREIRAS              BA47806092                    AUTO ESCOLA NOVA FERRARI                                              GERENTE - TODAS               R BARAO DE COTEGIPE                                      685                                                  VILA REGINA              BARREIRAS              BA47806102                            NPE                                          2023103020241229                                                                                                                                                                                                                                                                       FS0763827814                  000000000000000000        00000000R                    998367061           36112282            ELOIZAESTER731@GMAIL.COM                                    
