001202411192024111900000086
1012024111915       036900004797                  116902784000183DAYANI GUIMARAES M G 026391199                                                                                                                                                                                                                                                                                                                                                                                                                                                              R PAULO JORGE CAROLINO                            238                                                         JD PARIS                 MARINGA                PR87083370                                                                                                                        R PAULO JORGE CAROLINO                                   238                                                  JD PARIS                 MARINGA                PR87083370                            NPE                                          2024021520520405                                                                                                                                                                                                                                                                        O                            000000000000000000        00000000R                                                            DAYANI_GUIMARAES@HOTMAIL.COM                                
1012024111915       038720002614                  105135006346   JOSE ALVES DE SOUSA FILHO                    19910121                                                                                                                                                                                                                                                                                                                                                                                                                                       RUA MANOEL ZACARIAS DE ANDRADE                    310       QD 3 LT 22                                        JARBAS COSTA RIBEIRO     CAIAPONIA              GO75850000                                                                                          OUTRAS                        AV. MANOEL ZACARIAS DE ANDRADE                           310                                                  JARBAS COSTA RIBEIRO     CAIAPONIA              GO75850000                            NPE                                          2023042520520319                                                                                                                                                                                                                                                                       MS3616823200                  000000000000000000        00000000R993045432           993119955           984856806                                                                       
1012024111915       211040026981                  144930161835   GUSTAVO TEODORO COSTA                        19940127                                                                                                                                                                                                                                                                                                                                                                                                                                       R RAMONA BARROSO FERNANDEZ                        127                                                         JD IRACEMA               SAO PAULO              SP05790430                                                                                          OUTROS                                                                                                                                                                                                                            NPE                                          2023011620520405                                                                                                                                                                                                                                                                       MS39.156.833                  000000000000000000        00000000R952606739           985990945           940224694           GUSTAVO.TEODORO2410@GMAIL.COM                               
1012024111915       022800023556                  180317650149   WELBER CARVALHO CAMARGO                      19770606                                                                                                                                                                                                                                                                                                                                                                                                                                       RUA PSJ 7                                         SN        QD 05 LT 07                                       PARQUE SAO JERONIMO      ANAPOLIS               GO75097045                                                                                          EMPRESARIO                    RUA PSJ 7                                                 SNQD 05 LT 07                                       PARQUE SAO JERONIMO      ANAPOLIS               GO75097045                            NPE                                          2024041520520404                                                                                                                                                                                                                                                                       MS3500171                     000000000000000000        00000000R983242479           994532464           62933114632         WELBER.CAMARGO77@HOTMAIL.COM                                
1012024111915       034960005346                  139976049838   RENAN FERREIRA DE SOUSA                      19900823                                                                                                                                                                                                                                                                                                                                                                                                                                       RUA ADOLFO ASSON                                  233       CASA 5                                            VILA NOVA SAVOIA         SAO PAULO              SP03532030                                                                                                                        R ALTO DO PARNAIBA                                        96                                                  C PATRIARCA              SAO PAULO              SP03556030                            NPE                                          2023111720520405                                                                                                                                                                                                                                                                       MC47574603                    000000000000000000        00000000R                    969034372           953797495           FSRENAN.SOUSA@GMAIL.COM                                     
1012024111915       023620039605                  106162024903   MORGANA RENATA MAZETTO KECHNER               19900702                                                                                                                                                                                                                                                                                                                                                                                                                                       R NICOLAU THREISS                                 69                                                          MARGEM ESQUERDA          GASPAR                 SC89116560                    NAO INFORMADO                                                         GERENTE - TODAS               R NICOLAU THREISS                                        100                                                  MARGEM ESQUERDA          GASPAR                 SC89116560                            NPE                                          2023041720520405                                                                                                                                                                                                                                                                       FS0616202490                  000000000000000000        00000000R47997092890         997092890           47984226833         MORGANA.ANACLETO@GMAIL.COM                                  
1012024111915       036900004999                  101536329843   FERNANDO RONDINA                             19600921                                                                                                                                                                                                                                                                                                                                                                                                                                       ODON PESSOA DE ALBUQUERQUE                        1065      CASA                                              VILA SANTA CECILIA       AGUDOS                 SP17132042                                                                                          APOSENTADO                                                                                                                                                                                                                        NPE                                          2024011620520405                                                                                                                                                                                                                                                                       MS12913338                    000000000000000000        00000000R                    5532622549          1432614184                                                                      
1012024111915       036290008864                  129624671800   FERNANDO PEREIRA SOARES                      19830105                                                                                                                                                                                                                                                                                                                                                                                                                                       BERTA MORENA                                      66                                                          AMERICANOPOLIS           SAO PAULO              SP04409000                                                                                          EMPRESARIO                    BERTA MORENA                                              66                                                  AMERICANOPOLIS           SAO PAULO              SP04409000                            NPE                                          2023111720520405                                                                                                                                                                                                                                                                       MS356020277                   000000000000000000        00000000R11913312488         987425399           11946855583                                                                     
1012024111915       021980015443                  116424739874   JOSE AGENOR GRANZOTO FILHO                   19691016                                                                                                                                                                                                                                                                                                                                                                                                                                       R JOAO POLASTRI                                   1091                                                        CIDADE JARDIM            RIO CLARO              SP135011051935576260                                                                                OUTRAS                        R JOAO POLASTRI                                         1091                                                  CIDADE JARDIM            RIO CLARO              SP13501105                            NPE                                          2024011620520405                                                                                                                                                                                                                                                                       MS18991762                    000000000000000000        00000000R1836219284          99799774            981131555           GRANZOTO@TERRA.COM.BR                                       
1012024111915       035200001501                  122118184808   ALEX PEREIRA DO VALE                         19800516                                                                                                                                                                                                                                                                                                                                                                                                                                       R GIUSEPPE ANSELMI                                17                                                          AMERICANOPOLIS           SAO PAULO              SP04429260                                                                                          GERENTE - TODAS               R GIUSEPPE ANSELMI                                        17                                                  AMERICANOPOLIS           SAO PAULO              SP04429260                            NPE                                          2022110520451030                                                                                                                                                                                                                                                                       MS41616291                    000000000000000000        00000000R11954458816         954458816           954458816           ALEXVALE06@GMAIL.COM                                        
1012024111915       037830008608                  131998698000100TRANSVALTINHO LTDA                                                                                                                                                                                                                                                                                                                                                                                                                                                                          R JOSE CARLOS DE TOLEDO PIZA                      150       172 B                                             JD PRQ MORUMBI           SAO PAULO              SP05712070                                                                                                                        R JOSE CARLOS DE TOLEDO PIZA                             150172 B                                             JD PRQ MORUMBI           SAO PAULO              SP05712070                            NPE                                          2024061720520405                                                                                                                                                                                                                                                                        O                            000000000000000000        00000000R11947635837         998863534           998863534           VALTINHOETATI@GMAIL.COM                                     
1012024111915       038720004810                  171513205668   MARIA APARECIDA LUIZ DA ROCHA                19670613                                                                                                                                                                                                                                                                                                                                                                                                                                       R ALBATROZ                                        146       CASA                                              VILA CLORIS              BELO HORIZONTE         MG31744206                                                                                          APOSENTADO                                                                                                                                                                                                                        NPE                                          2024071520520405                                                                                                                                                                                                                                                                       FSM4398940                    000000000000000000        00000000R31983710542         994578249           31994578249         CIDAROCHAG4@GMAIL.COM                                       
1012024111915       038720004058                  163713632715   MARIA FRANCISCA DE MELO                      19510718                                                                                                                                                                                                                                                                                                                                                                                                                                       CAM DA CHACARA                                    448       CASA 3                                            PRACA SECA               RIO DE JANEIRO         RJ22733060                                                                                          APOSENTADO                                                                                                                                                                                                                        NPE                                          2024011620520405                                                                                                                                                                                                                                                                       FS062525761                   000000000000000000        00000000R21982168484         988961873           964697511           MILITAOGIBA@GMAIL.COM                                       
1012024111915       035170005174                  116409322836   JOB DE CARVALHO                              19750416                                                                                                                                                                                                                                                                                                                                                                                                                                       R CORONEL ANTONIO INOJOSA                         263       CASA 3                                            JARDIM DA PEDREIRA       SAO PAULO              SP044621051135224546          NAO INFORMADO                                                         GERENTE - TODAS               R CORONEL ANTONIO INOJOSA                                263                                                  JARDIM DA PEDREIRA       SAO PAULO              SP04462105                            NPE                                          2024061720520405                                                                                                                                                                                                                                                                       MS1640932283                  000000000000000000        00000000R                    964414073           11998214349                                                                     
1012024111915       054410000189                  102975385439   ANA PAULA NOBERTO PEREIRA                    19800722                                                                                                                                                                                                                                                                                                                                                                                                                                       R RODRIGUES ALVES                                 796       APTO 801                                          PRATA                    CAMPINA GRANDE         PB58400550                                                                                          EMPRESARIO                                                                                                                                                                                                                        NPE                                          2024041520520405                                                                                                                                                                                                                                                                       FS                            000000000000000000        00000000R83993402323         993560041           981074856           NOBERTOPEREIRA@GMAIL.COM                                    
10120241119Q5       036290008864                  11950813636                 OUTROS                        
10120241119Q5       036290008864                  11987425399                 OUTROS                        
10120241119Q5       038720002614                  993045432                   CELULAR                       
10120241119Q5       038720004058                  988284282                   OUTROS                        
10120241119Q5       021980015443                  997283301                   CELULAR                       
10120241119Q5       021980015443                  997997743                   CELULAR                       
10120241119Q5       022800023556                  983242479                   CELULAR                       
10120241119Q5       034960005346                  953797495                   OUTROS                        
10120241119Q5       035170005174                  1135224546                  RESIDENCIAL                   
10120241119Q5       036290008864                  1156247944                  RECADO                        
10120241119Q5       036900004999                  14991793223                 OUTROS                        
10120241119Q5       038720004810                  31983710542                 CELULAR                       
10120241119Q5       038720004810                  983710542                   OUTROS                        
10120241119Q5       038720004810                  994578249                   OUTROS                        
10120241119Q5       054410000189                  83981074856                 CELULAR                       
10120241119Q5       054410000189                  83993402323                 CELULAR                       
10120241119Q5       021980015443                  1836422000                  RECADO                        
10120241119Q5       021980015443                  18981131555         0       CELULAR                       
10120241119Q5       023620039605                  47988781808                 OUTROS                        
10120241119Q5       023620039605                  47997092890         0       CELULAR                       
10120241119Q5       023620039605                  997092890                   OUTROS                        
10120241119Q5       035170005174                  35224546                    OUTROS                        
10120241119Q5       036290008864                  950813636                   OUTROS                        
10120241119Q5       036900004999                  1432624068                  OUTROS                        
10120241119Q5       036900004999                  5532622549                  OUTROS                        
10120241119Q5       037830008608                  11947635837                 CELULAR                       
10120241119Q5       038720002614                  985112027                   CELULAR                       
10120241119Q5       038720004058                  964697511                   OUTROS                        
10120241119Q5       211040026981                  11940224694                 CELULAR                       
10120241119Q5       211040026981                  952606739                   CELULAR                       
10120241119Q5       021980015443                  981131555                   OUTROS                        
10120241119Q5       021980015443                  991051809                   OUTROS                        
10120241119Q5       035200001501                  954458816                   OUTROS                        
10120241119Q5       036900004797                  44991321966                 RECADO                        
10120241119Q5       036900004999                  14996948089                 RECADO                        
10120241119Q5       037830008608                  998863534                   OUTROS                        
10120241119Q5       038720002614                  984856806                   OUTROS                        
10120241119Q5       038720004058                  982168484                   OUTROS                        
10120241119Q5       054410000189                  1140045215                  RECADO                        
10120241119Q5       054410000189                  993560041                   OUTROS                        
10120241119Q5       022800023556                  62981123957                 RECADO                        
10120241119Q5       023620039605                  47997811570                 OUTROS                        
10120241119Q5       034960005346                  11953797495                 RECADO                        
10120241119Q5       036290008864                  11946855583                 OUTROS                        
10120241119Q5       036290008864                  946855583                   OUTROS                        
10120241119Q5       036900004999                  1438423607                  OUTROS                        
10120241119Q5       036900004999                  14981362656                 OUTROS                        
10120241119Q5       036900004999                  14997188074                 OUTROS                        
10120241119Q5       038720004810                  31994578249                 OUTROS                        
10120241119Q5       211040026981                  958449961                   OUTROS                        
10120241119Q5       022800023556                  62933114632                 OUTROS                        
10120241119Q5       022800023556                  62994532464                 OUTROS                        
10120241119Q5       022800023556                  994532464                   OUTROS                        
10120241119Q5       023620039605                  47984226833                 OUTROS                        
10120241119Q5       034960005346                  969034372                   OUTROS                        
10120241119Q5       035170005174                  11998214349                 OUTROS                        
10120241119Q5       036290008864                  11913312488                 CELULAR                       
10120241119Q5       036900004999                  1432614184                  OUTROS                        
10120241119Q5       036900004999                  14997953993                 OUTROS                        
10120241119Q5       038720002614                  64993119955                 CELULAR                       
10120241119Q5       038720002614                  993119955                   OUTROS                        
10120241119Q5       038720004058                  988961873                   OUTROS                        
10120241119Q5       054410000189                  981074856                   OUTROS                        
10120241119Q5       054410000189                  993402323                   OUTROS                        
10120241119Q5       021980015443                  1999799774                  CELULAR                       
10120241119Q5       021980015443                  999470814                   CELULAR                       
10120241119Q5       022800023556                  62982852979                 OUTROS                        
10120241119Q5       035170005174                  964414073                   OUTROS                        
10120241119Q5       036290008864                  11993367580                 OUTROS                        
10120241119Q5       036290008864                  965425441                   OUTROS                        
10120241119Q5       036290008864                  987425399                   OUTROS                        
10120241119Q5       036900004999                  1432621448                  OUTROS                        
10120241119Q5       036900004999                  14997010640                 OUTROS                        
10120241119Q5       036900004999                  49991417917                 OUTROS                        
10120241119Q5       038720004810                  3131661542                  RECADO                        
10120241119Q5       211040026981                  940224694                   OUTROS                        
10120241119Q5       211040026981                  985990945                   OUTROS                        
10120241119Q5       021980015443                  1836219284                  CELULAR                       
10120241119Q5       021980015443                  18991051809                 CELULAR                       
10120241119Q5       021980015443                  1935576260                  RESIDENCIAL                   
10120241119Q5       021980015443                  99799774                    OUTROS                        
10120241119Q5       022800023556                  981123957                   OUTROS                        
10120241119Q5       035170005174                  1140045215                  RECADO                        
10120241119Q5       035200001501                  11954458816         0       CELULAR                       
10120241119Q5       036290008864                  946203001                   OUTROS                        
10120241119Q5       036900004999                  14997952446                 OUTROS                        
10120241119Q5       038720004058                  21982168484                 CELULAR                       
10120241119Q5       038720004058                  985709666                   OUTROS                        
10120241119Q5       054410000189                  83991368921                 CELULAR                       
10120241119Q5       054410000189                  991368921                   OUTROS                        
10120241119Q5       211040026981                  954887770                   OUTROS                        
10120241119Q5       211040026981                  959997270                   OUTROS                        
1012024111925       038720000636                  FSEG    038720000636                  03872   NOVACAO COBRANC                                                                                   03872   NOVACAO COBRANCA CON                         00000000010495930000000000000000000020220513048         3                                                                                                                                                                                                                                                                                                                                                                                                                                                                                                                                                                                                            000000000000015500                                                                                                 
1012024111925       054410000189                  FCDC    054410000189                  05441   CORRESP. NOVO P                                                                                   05441   CORRESP. NOVO PARAIB                         00000000022144670000000000000000000020240315024         1                                                                                                                                                                                                                                                                                                                                                                                                                                                                                                                                                                                                            000000000000017363                                                                                                 
1012024111925       021980015443                  REFF    021980015443                  02198   CORRESP.  PRESI                                                                                   02198   CORRESP.  PRESIDENTE                         00000000189667190000000000000000000020231214060         1                                                                                                                                                                                                                                                                                                                                                                                                                                                                                                                                                                                                            000000000000023923                                                                                                 
1012024111925       050320000438                  REFF    050320000438                  05032   CORRESP. SUL DE                                                                                   05032   CORRESP. SUL DE MINA                         00000000031873860000000000000000000020220620036         3                                                                                                                                                                                                                                                                                                                                                                                                                                                                                                                                                                                                            000000000000018439                                                                                                 
1012024111925       037830008608                  REFJ    037830008608                  03783   CORRESPONDENTE                                                                                    03783   CORRESPONDENTE SUZAN                         00000000044525680000000000000000000020240514036         1                                                                                                                                                                                                                                                                                                                                                                                                                                                                                                                                                                                                            000000000000028128                                                                                                 
1012024111925       035170005174                  REFF    035170005174                  03517   CORRESPONDENTES                                                                                   03517   CORRESPONDENTESUCURS                         00000000027418280000000000000000000020230515048         1                                                                                                                                                                                                                                                                                                                                                                                                                                                                                                                                                                                                            000000000000030120                                                                                                 
1012024111925       030120048577                  FCDC    030120048577                  03012   CORRESPONDENTE                                                                                    03012   CORRESPONDENTE RIO D                         00000000013743500000000000000000000020210204048         3                                                                                                                                                                                                                                                                                                                                                                                                                                                                                                                                                                                                            000000000000012223                                                                                                 
1012024111925       036900004797                  PARJ    036900004797                  03690   CORRESPONDENTE                                                                                    03690   CORRESPONDENTE MARIN                         00000000024054630000000000000000000020230914048         1                                                                                                                                                                                                                                                                                                                                                                                                                                                                                                                                                                                                            000000000000026656                                                                                                 
1012024111925       211040026981                  PARF    211040026981                  21104   CORRESP.  RIBEI                                                                                   21104   CORRESP.  RIBEIR?O P                         00000000027090690000000000000000000020210514060         1                                                                                                                                                                                                                                                                                                                                                                                                                                                                                                                                                                                                            000000000000021920                                                                                                 
1012024111925       038720003518                  FSEG    038720003518                  03872   NOVACAO COBRANC                                                                                   03872   NOVACAO COBRANCA CON                         00000000015414220000000000000000000020230831036         3                                                                                                                                                                                                                                                                                                                                                                                                                                                                                                                                                                                                            000000000000020000                                                                                                 
1012024111925       038720004810                  FSEG    038720004810                  03872   NOVACAO COBRANC                                                                                   03872   NOVACAO COBRANCA CON                         00000000004816700000000000000000000020240614012         1                                                                                                                                                                                                                                                                                                                                                                                                                                                                                                                                                                                                            000000000000009900                                                                                                 
1012024111925       034960005346                  REFF    034960005346                  03496   CORRESPONDENTE                                                                                    03496   CORRESPONDENTE PENHA                         00000000009246050000000000000000000020221116024         1                                                                                                                                                                                                                                                                                                                                                                                                                                                                                                                                                                                                            000000000000028948                                                                                                 
1012024111925       023620039605                  REFF    023620039605                  02362   CORRESPONDENTE                                                                                    02362   CORRESPONDENTE - SAN                         00000000035217510000000000000000000020230315036         1                                                                                                                                                                                                                                                                                                                                                                                                                                                                                                                                                                                                            000000000000026645                                                                                                 
1012024111925       022800023556                  REFF    022800023556                  02280   CORRESPONDENTE                                                                                    02280   CORRESPONDENTE GOIAS                         00000000012636220000000000000000000020240313036         1                                                                                                                                                                                                                                                                                                                                                                                                                                                                                                                                                                                                            000000000000042247                                                                                                 
1012024111925       038720002614                  FSEG    038720002614                  03872   NOVACAO COBRANC                                                                                   03872   NOVACAO COBRANCA CON                         00000000012686850000000000000000000020230324028         1                                                                                                                                                                                                                                                                                                                                                                                                                                                                                                                                                                                                            000000000000011000                                                                                                 
1012024111925       036900004999                  REFF    036900004999                  03690   CORRESPONDENTE                                                                                    03690   CORRESPONDENTE MARIN                         00000000017928970000000000000000000020231215036         1                                                                                                                                                                                                                                                                                                                                                                                                                                                                                                                                                                                                            000000000000027505                                                                                                 
1012024111925       038720004058                  FSEG    038720004058                  03872   NOVACAO COBRANC                                                                                   03872   NOVACAO COBRANCA CON                         00000000036463500000000000000000000020231214033         1                                                                                                                                                                                                                                                                                                                                                                                                                                                                                                                                                                                                            000000000000013000                                                                                                 
1012024111925       038720003968                  FSEG    038720003968                  03872   NOVACAO COBRANC                                                                                   03872   NOVACAO COBRANCA CON                         00000000036060510000000000000000000020231113036         3                                                                                                                                                                                                                                                                                                                                                                                                                                                                                                                                                                                                            000000000000016800                                                                                                 
1012024111925       036290008864                  REFF    036290008864                  03629   CORRESP. JARDIN                                                                                   03629   CORRESP. JARDINS II                          00000000042305510000000000000000000020230815036         1                                                                                                                                                                                                                                                                                                                                                                                                                                                                                                                                                                                                            000000000000021320                                                                                                 
1012024111925       050340000507                  REFJ    050340000507                  05034   CORRESP. LESTE                                                                                    05034   CORRESP. LESTE DE MG                         00000000050322230000000000000000000020230109048         3                                                                                                                                                                                                                                                                                                                                                                                                                                                                                                                                                                                                            000000000000021900                                                                                                 
1012024111925       035200001501                  FCDC    035200001501                  03520   CORRESPONDENTE                                                                                    03520   CORRESPONDENTE PACAE                         00000000051009960000000000000000000020210412048         1                                                                                                                                                                                                                                                                                                                                                                                                                                                                                                                                                                                                            000000000000015553                                                                                                 
1012024111935       000830037271                  REFF    000830037271                  2024011600000010        20240930000000000009436100000000000000000000000000000000000000000000000000000000000000000005486400   024   7                            C20240116                      
1012024111935       021130018470                  REFF    021130018470                  2023042800000012        20240401000000000021415600000000000000000000000000000000000000000000000000000000000000000005391900   048   7                            C20230428                      
1012024111935       021980015443                  REFF    021980015443                  2024091400000009                000000000059864000000000000000000000000000000000000000000000000000000000000000000000000000   060   1                             20240914                      
1012024111935       021980015443                  REFF    021980015443                  2024101400000010                000000000059864000000000000000000000000000000000000000000000000000000000000000000000000000   060   1                             20241014                      
1012024111935       021980015443                  REFF    021980015443                  2024111400000011                000000000059864000000000000000000000000000000000000000000000000000000000000000000000000000   060   1                             20241114                      
1012024111935       021980015443                  REFF    021980015443                  2024121400000012                000000000059864000000000000000000000000000000000000000000000000000000000000000000000000000   060   1                             20241214                      
1012024111935       021980015443                  REFF    021980015443                  2025011400000013                000000000059864000000000000000000000000000000000000000000000000000000000000000000000000000   060   1                             20250114                      
1012024111935       021980015443                  REFF    021980015443                  2025021400000014                000000000059864000000000000000000000000000000000000000000000000000000000000000000000000000   060   1                             20250214                      
1012024111935       021980015443                  REFF    021980015443                  2025031400000015                000000000059864000000000000000000000000000000000000000000000000000000000000000000000000000   060   1                             20250314                      
1012024111935       021980015443                  REFF    021980015443                  2025041400000016                000000000059864000000000000000000000000000000000000000000000000000000000000000000000000000   060   1                             20250414                      
1012024111935       021980015443                  REFF    021980015443                  2025051400000017                000000000059864000000000000000000000000000000000000000000000000000000000000000000000000000   060   1                             20250514                      
1012024111935       021980015443                  REFF    021980015443                  2025061400000018                000000000059864000000000000000000000000000000000000000000000000000000000000000000000000000   060   1                             20250614                      
1012024111935       021980015443                  REFF    021980015443                  2025071400000019                000000000059864000000000000000000000000000000000000000000000000000000000000000000000000000   060   1                             20250714                      
1012024111935       021980015443                  REFF    021980015443                  2025081400000020                000000000059864000000000000000000000000000000000000000000000000000000000000000000000000000   060   1                             20250814                      
1012024111935       021980015443                  REFF    021980015443                  2025091400000021                000000000059864000000000000000000000000000000000000000000000000000000000000000000000000000   060   1                             20250914                      
1012024111935       021980015443                  REFF    021980015443                  2025101400000022                000000000059864000000000000000000000000000000000000000000000000000000000000000000000000000   060   1                             20251014                      
1012024111935       021980015443                  REFF    021980015443                  2025111400000023                000000000059864000000000000000000000000000000000000000000000000000000000000000000000000000   060   1                             20251114                      
1012024111935       021980015443                  REFF    021980015443                  2025121400000024                000000000059864000000000000000000000000000000000000000000000000000000000000000000000000000   060   1                             20251214                      
1012024111935       021980015443                  REFF    021980015443                  2026011400000025                000000000059864000000000000000000000000000000000000000000000000000000000000000000000000000   060   1                             20260114                      
1012024111935       021980015443                  REFF    021980015443                  2026021400000026                000000000059864000000000000000000000000000000000000000000000000000000000000000000000000000   060   1                             20260214                      
1012024111935       021980015443                  REFF    021980015443                  2026031400000027                000000000059864000000000000000000000000000000000000000000000000000000000000000000000000000   060   1                             20260314                      
1012024111935       021980015443                  REFF    021980015443                  2026041400000028                000000000059864000000000000000000000000000000000000000000000000000000000000000000000000000   060   1                             20260414                      
1012024111935       021980015443                  REFF    021980015443                  2026051400000029                000000000059864000000000000000000000000000000000000000000000000000000000000000000000000000   060   1                             20260514                      
1012024111935       021980015443                  REFF    021980015443                  2026061400000030                000000000059864000000000000000000000000000000000000000000000000000000000000000000000000000   060   1                             20260614                      
1012024111935       021980015443                  REFF    021980015443                  2026071400000031                000000000059864000000000000000000000000000000000000000000000000000000000000000000000000000   060   1                             20260714                      
1012024111935       021980015443                  REFF    021980015443                  2026081400000032                000000000059864000000000000000000000000000000000000000000000000000000000000000000000000000   060   1                             20260814                      
1012024111935       021980015443                  REFF    021980015443                  2026091400000033                000000000059864000000000000000000000000000000000000000000000000000000000000000000000000000   060   1                             20260914                      
1012024111935       021980015443                  REFF    021980015443                  2026101400000034                000000000059864000000000000000000000000000000000000000000000000000000000000000000000000000   060   1                             20261014                      
1012024111935       021980015443                  REFF    021980015443                  2026111400000035                000000000059864000000000000000000000000000000000000000000000000000000000000000000000000000   060   1                             20261114                      
1012024111935       021980015443                  REFF    021980015443                  2026121400000036                000000000059864000000000000000000000000000000000000000000000000000000000000000000000000000   060   1                             20261214                      
1012024111935       021980015443                  REFF    021980015443                  2027011400000037                000000000059864000000000000000000000000000000000000000000000000000000000000000000000000000   060   1                             20270114                      
1012024111935       021980015443                  REFF    021980015443                  2027021400000038                000000000059864000000000000000000000000000000000000000000000000000000000000000000000000000   060   1                             20270214                      
1012024111935       021980015443                  REFF    021980015443                  2027031400000039                000000000059864000000000000000000000000000000000000000000000000000000000000000000000000000   060   1                             20270314                      
1012024111935       021980015443                  REFF    021980015443                  2027041400000040                000000000059864000000000000000000000000000000000000000000000000000000000000000000000000000   060   1                             20270414                      
1012024111935       021980015443                  REFF    021980015443                  2027051400000041                000000000059864000000000000000000000000000000000000000000000000000000000000000000000000000   060   1                             20270514                      
1012024111935       021980015443                  REFF    021980015443                  2027061400000042                000000000059864000000000000000000000000000000000000000000000000000000000000000000000000000   060   1                             20270614                      
1012024111935       021980015443                  REFF    021980015443                  2027071400000043                000000000059864000000000000000000000000000000000000000000000000000000000000000000000000000   060   1                             20270714                      
1012024111935       021980015443                  REFF    021980015443                  2027081400000044                000000000059864000000000000000000000000000000000000000000000000000000000000000000000000000   060   1                             20270814                      
1012024111935       021980015443                  REFF    021980015443                  2027091400000045                000000000059864000000000000000000000000000000000000000000000000000000000000000000000000000   060   1                             20270914                      
1012024111935       021980015443                  REFF    021980015443                  2027101400000046                000000000059864000000000000000000000000000000000000000000000000000000000000000000000000000   060   1                             20271014                      
1012024111935       021980015443                  REFF    021980015443                  2027111400000047                000000000059864000000000000000000000000000000000000000000000000000000000000000000000000000   060   1                             20271114                      
1012024111935       021980015443                  REFF    021980015443                  2027121400000048                000000000059864000000000000000000000000000000000000000000000000000000000000000000000000000   060   1                             20271214                      
1012024111935       021980015443                  REFF    021980015443                  2028011400000049                000000000059864000000000000000000000000000000000000000000000000000000000000000000000000000   060   1                             20280114                      
1012024111935       021980015443                  REFF    021980015443                  2028021400000050                000000000059864000000000000000000000000000000000000000000000000000000000000000000000000000   060   1                             20280214                      
1012024111935       021980015443                  REFF    021980015443                  2028031400000051                000000000059864000000000000000000000000000000000000000000000000000000000000000000000000000   060   1                             20280314                      
1012024111935       021980015443                  REFF    021980015443                  2028041400000052                000000000059864000000000000000000000000000000000000000000000000000000000000000000000000000   060   1                             20280414                      
1012024111935       021980015443                  REFF    021980015443                  2028051400000053                000000000059864000000000000000000000000000000000000000000000000000000000000000000000000000   060   1                             20280514                      
1012024111935       021980015443                  REFF    021980015443                  2028061400000054                000000000059864000000000000000000000000000000000000000000000000000000000000000000000000000   060   1                             20280614                      
1012024111935       021980015443                  REFF    021980015443                  2028071400000055                000000000059864000000000000000000000000000000000000000000000000000000000000000000000000000   060   1                             20280714                      
1012024111935       021980015443                  REFF    021980015443                  2028081400000056                000000000059864000000000000000000000000000000000000000000000000000000000000000000000000000   060   1                             20280814                      
1012024111935       021980015443                  REFF    021980015443                  2028091400000057                000000000059864000000000000000000000000000000000000000000000000000000000000000000000000000   060   1                             20280914                      
1012024111935       021980015443                  REFF    021980015443                  2028101400000058                000000000059864000000000000000000000000000000000000000000000000000000000000000000000000000   060   1                             20281014                      
1012024111935       021980015443                  REFF    021980015443                  2028111400000059                000000000059864000000000000000000000000000000000000000000000000000000000000000000000000000   060   1                             20281114                      
1012024111935       021980015443                  REFF    021980015443                  2028121400000060                000000000059864000000000000000000000000000000000000000000000000000000000000000000000000000   060   1                             20281214                      
1012024111935       022800023556                  REFF    022800023556                  2024111200000008                000000000007289100000000000000000000000000000000000000000000000000000000000000000000000000   036   1                             20241112                      
1012024111935       022800023556                  REFF    022800023556                  2024121200000009                000000000007289100000000000000000000000000000000000000000000000000000000000000000000000000   036   1                             20241212                      
1012024111935       022800023556                  REFF    022800023556                  2025011200000010                000000000007289100000000000000000000000000000000000000000000000000000000000000000000000000   036   1                             20250112                      
1012024111935       022800023556                  REFF    022800023556                  2025021200000011                000000000007289100000000000000000000000000000000000000000000000000000000000000000000000000   036   1                             20250212                      
1012024111935       022800023556                  REFF    022800023556                  2025031200000012                000000000007289100000000000000000000000000000000000000000000000000000000000000000000000000   036   1                             20250312                      
1012024111935       022800023556                  REFF    022800023556                  2025041200000013                000000000007289100000000000000000000000000000000000000000000000000000000000000000000000000   036   1                             20250412                      
1012024111935       022800023556                  REFF    022800023556                  2025051200000014                000000000007289100000000000000000000000000000000000000000000000000000000000000000000000000   036   1                             20250512                      
1012024111935       022800023556                  REFF    022800023556                  2025061200000015                000000000007289100000000000000000000000000000000000000000000000000000000000000000000000000   036   1                             20250612                      
1012024111935       022800023556                  REFF    022800023556                  2025071200000016                000000000007289100000000000000000000000000000000000000000000000000000000000000000000000000   036   1                             20250712                      
1012024111935       022800023556                  REFF    022800023556                  2025081200000017                000000000007289100000000000000000000000000000000000000000000000000000000000000000000000000   036   1                             20250812                      
1012024111935       022800023556                  REFF    022800023556                  2025091200000018                000000000007289100000000000000000000000000000000000000000000000000000000000000000000000000   036   1                             20250912                      
1012024111935       022800023556                  REFF    022800023556                  2025101200000019                000000000007289100000000000000000000000000000000000000000000000000000000000000000000000000   036   1                             20251012                      
1012024111935       022800023556                  REFF    022800023556                  2025111200000020                000000000007289100000000000000000000000000000000000000000000000000000000000000000000000000   036   1                             20251112                      
1012024111935       022800023556                  REFF    022800023556                  2025121200000021                000000000007289100000000000000000000000000000000000000000000000000000000000000000000000000   036   1                             20251212                      
1012024111935       022800023556                  REFF    022800023556                  2026011200000022                000000000007289100000000000000000000000000000000000000000000000000000000000000000000000000   036   1                             20260112                      
1012024111935       022800023556                  REFF    022800023556                  2026021200000023                000000000007289100000000000000000000000000000000000000000000000000000000000000000000000000   036   1                             20260212                      
1012024111935       022800023556                  REFF    022800023556                  2026031200000024                000000000007289100000000000000000000000000000000000000000000000000000000000000000000000000   036   1                             20260312                      
1012024111935       022800023556                  REFF    022800023556                  2026041200000025                000000000007289100000000000000000000000000000000000000000000000000000000000000000000000000   036   1                             20260412                      
1012024111935       022800023556                  REFF    022800023556                  2026051200000026                000000000007289100000000000000000000000000000000000000000000000000000000000000000000000000   036   1                             20260512                      
1012024111935       022800023556                  REFF    022800023556                  2026061200000027                000000000007289100000000000000000000000000000000000000000000000000000000000000000000000000   036   1                             20260612                      
1012024111935       022800023556                  REFF    022800023556                  2026071200000028                000000000007289100000000000000000000000000000000000000000000000000000000000000000000000000   036   1                             20260712                      
1012024111935       022800023556                  REFF    022800023556                  2026081200000029                000000000007289100000000000000000000000000000000000000000000000000000000000000000000000000   036   1                             20260812                      
1012024111935       022800023556                  REFF    022800023556                  2026091200000030                000000000007289100000000000000000000000000000000000000000000000000000000000000000000000000   036   1                             20260912                      
1012024111935       022800023556                  REFF    022800023556                  2026101200000031                000000000007289100000000000000000000000000000000000000000000000000000000000000000000000000   036   1                             20261012                      
1012024111935       022800023556                  REFF    022800023556                  2026111200000032                000000000007289100000000000000000000000000000000000000000000000000000000000000000000000000   036   1                             20261112                      
1012024111935       022800023556                  REFF    022800023556                  2026121200000033                000000000007289100000000000000000000000000000000000000000000000000000000000000000000000000   036   1                             20261212                      
1012024111935       022800023556                  REFF    022800023556                  2027011200000034                000000000007289100000000000000000000000000000000000000000000000000000000000000000000000000   036   1                             20270112                      
1012024111935       022800023556                  REFF    022800023556                  2027021200000035                000000000007289100000000000000000000000000000000000000000000000000000000000000000000000000   036   1                             20270212                      
1012024111935       022800023556                  REFF    022800023556                  2027031200000036                000000000007289100000000000000000000000000000000000000000000000000000000000000000000000000   036   1                             20270312                      
1012024111935       023620029348                  FCDC    023620029348                  2024111400000031        20241114000000000021373500000000000000000000000000000000000000000000000000000000000000000021373500   060   8                            C20241114                      
1012024111935       023620039605                  REFF    023620039605                  2024091400000018                000000000016021300000000000000000000000000000000000000000000000000000000000000000000000000   036   1                             20240914                      
1012024111935       023620039605                  REFF    023620039605                  2024101400000019                000000000016021300000000000000000000000000000000000000000000000000000000000000000000000000   036   1                             20241014                      
1012024111935       023620039605                  REFF    023620039605                  2024111400000020                000000000016021300000000000000000000000000000000000000000000000000000000000000000000000000   036   1                             20241114                      
1012024111935       023620039605                  REFF    023620039605                  2024121400000021                000000000016021300000000000000000000000000000000000000000000000000000000000000000000000000   036   1                             20241214                      
1012024111935       023620039605                  REFF    023620039605                  2025011400000022                000000000016021300000000000000000000000000000000000000000000000000000000000000000000000000   036   1                             20250114                      
1012024111935       023620039605                  REFF    023620039605                  2025021400000023                000000000016021300000000000000000000000000000000000000000000000000000000000000000000000000   036   1                             20250214                      
1012024111935       023620039605                  REFF    023620039605                  2025031400000024                000000000016021300000000000000000000000000000000000000000000000000000000000000000000000000   036   1                             20250314                      
1012024111935       023620039605                  REFF    023620039605                  2025041400000025                000000000016021300000000000000000000000000000000000000000000000000000000000000000000000000   036   1                             20250414                      
1012024111935       023620039605                  REFF    023620039605                  2025051400000026                000000000016021300000000000000000000000000000000000000000000000000000000000000000000000000   036   1                             20250514                      
1012024111935       023620039605                  REFF    023620039605                  2025061400000027                000000000016021300000000000000000000000000000000000000000000000000000000000000000000000000   036   1                             20250614                      
1012024111935       023620039605                  REFF    023620039605                  2025071400000028                000000000016021300000000000000000000000000000000000000000000000000000000000000000000000000   036   1                             20250714                      
1012024111935       023620039605                  REFF    023620039605                  2025081400000029                000000000016021300000000000000000000000000000000000000000000000000000000000000000000000000   036   1                             20250814                      
1012024111935       023620039605                  REFF    023620039605                  2025091400000030                000000000016021300000000000000000000000000000000000000000000000000000000000000000000000000   036   1                             20250914                      
1012024111935       023620039605                  REFF    023620039605                  2025101400000031                000000000016021300000000000000000000000000000000000000000000000000000000000000000000000000   036   1                             20251014                      
1012024111935       023620039605                  REFF    023620039605                  2025111400000032                000000000016021300000000000000000000000000000000000000000000000000000000000000000000000000   036   1                             20251114                      
1012024111935       023620039605                  REFF    023620039605                  2025121400000033                000000000016021300000000000000000000000000000000000000000000000000000000000000000000000000   036   1                             20251214                      
1012024111935       023620039605                  REFF    023620039605                  2026011400000034                000000000016021300000000000000000000000000000000000000000000000000000000000000000000000000   036   1                             20260114                      
1012024111935       023620039605                  REFF    023620039605                  2026021400000035                000000000016021300000000000000000000000000000000000000000000000000000000000000000000000000   036   1                             20260214                      
1012024111935       023620039605                  REFF    023620039605                  2026031400000036                000000000016021300000000000000000000000000000000000000000000000000000000000000000000000000   036   1                             20260314                      
1012024111935       023790024409                  REFF    023790024409                  2024080900000015                000000000006536300000000000000000000000000000000000000000000000000000000000000000000000000   036   1                             20240809                      
1012024111935       023790024409                  REFF    023790024409                  2024090900000016                000000000006536300000000000000000000000000000000000000000000000000000000000000000000000000   036   1                             20240909                      
1012024111935       023790024409                  REFF    023790024409                  2024100900000017                000000000006536300000000000000000000000000000000000000000000000000000000000000000000000000   036   1                             20241009                      
1012024111935       025850000471                  ESPF    025850000471                  2021012500000033        20231228000000000008651800000000000000000000000000000000000000000000000000000000000000000001854500   036   7                            C20210125                      
1012024111935       025950064913                  REFF    025950064913                  2024080200000022        20230710000000000006077300000000000000000000000000000000000000000000000000000000000000000002138200   048   7                            C20240802                      
1012024111935       027120020365                  PARF    027120020365                  2024030400000031        20240624000000000010531000000000000000000000000000000000000000000000000000000000000000000005873000   048   7                            C20240304                      
1012024111935       027320008129                  PARF    027320008129                  2023081100000024        20240930000000000027578600000000000000000000000000000000000000000000000000000000000000000010212200   048   7                            C20230811                      
1012024111935       030120044096                  FCDC    030120044096                  2024031400000039        20240625000000000013903200000000000000000000000000000000000000000000000000000000000000000012339500   048   7                            C20240314                      
1012024111935       030120054118                  PARF    030120054118                  2024110600000043        20240930000000000012978300000000000000000000000000000000000000000000000000000000000000000000675400   060   7                            C20241106                      
1012024111935       030120056417                  PARF    030120056417                  2024090300000040                000000000014434200000000000000000000000000000000000000000000000000000000000000000000000000   048   1                             20240903                      
1012024111935       030120056417                  PARF    030120056417                  2024100300000041                000000000014434200000000000000000000000000000000000000000000000000000000000000000000000000   048   1                             20241003                      
1012024111935       030120056417                  PARF    030120056417                  2024110300000042                000000000014434200000000000000000000000000000000000000000000000000000000000000000000000000   048   1                             20241103                      
1012024111935       032710000421                  ESPF    032710000421                  2024101100000041        20240729000000000010389300000000000000000000000000000000000000000000000000000000000000000002030300   060   7                            C20241011                      
1012024111935       032920001298                  FCDC    032920001298                  2024090500000035                000000000015569100000000000000000000000000000000000000000000000000000000000000000000000000   048   1                             20240905                      
1012024111935       032920001298                  FCDC    032920001298                  2024100500000036                000000000015569100000000000000000000000000000000000000000000000000000000000000000000000000   048   1                             20241005                      
1012024111935       034960005346                  REFF    034960005346                  2024091400000020                000000000010534300000000000000000000000000000000000000000000000000000000000000000000000000   024   1                             20240914                      
1012024111935       034960005346                  REFF    034960005346                  2024101400000021                000000000010534300000000000000000000000000000000000000000000000000000000000000000000000000   024   1                             20241014                      
1012024111935       034960005346                  REFF    034960005346                  2024111400000022                000000000010534300000000000000000000000000000000000000000000000000000000000000000000000000   024   1                             20241114                      
1012024111935       034960005346                  REFF    034960005346                  2024121400000023                000000000010534300000000000000000000000000000000000000000000000000000000000000000000000000   024   1                             20241214                      
1012024111935       034960005346                  REFF    034960005346                  2025011400000024                000000000010534300000000000000000000000000000000000000000000000000000000000000000000000000   024   1                             20250114                      
1012024111935       035160003067                  PARF    035160003067                  2023111200000027        20240730000000000020099400000000000000000000000000000000000000000000000000000000000000000006246300   036   7                            C20231112                      
1012024111935       035170005174                  REFF    035170005174                  2024091400000016                000000000018814000000000000000000000000000000000000000000000000000000000000000000000000000   048   1                             20240914                      
1012024111935       035170005174                  REFF    035170005174                  2024101400000017                000000000018814000000000000000000000000000000000000000000000000000000000000000000000000000   048   1                             20241014                      
1012024111935       035170005174                  REFF    035170005174                  2024111400000018                000000000018814000000000000000000000000000000000000000000000000000000000000000000000000000   048   1                             20241114                      
1012024111935       035170005174                  REFF    035170005174                  2024121400000019                000000000018814000000000000000000000000000000000000000000000000000000000000000000000000000   048   1                             20241214                      
1012024111935       035170005174                  REFF    035170005174                  2025011400000020                000000000018814000000000000000000000000000000000000000000000000000000000000000000000000000   048   1                             20250114                      
1012024111935       035170005174                  REFF    035170005174                  2025021400000021                000000000018814000000000000000000000000000000000000000000000000000000000000000000000000000   048   1                             20250214                      
1012024111935       035170005174                  REFF    035170005174                  2025031400000022                000000000018814000000000000000000000000000000000000000000000000000000000000000000000000000   048   1                             20250314                      
1012024111935       035170005174                  REFF    035170005174                  2025041400000023                000000000018814000000000000000000000000000000000000000000000000000000000000000000000000000   048   1                             20250414                      
1012024111935       035170005174                  REFF    035170005174                  2025051400000024                000000000018814000000000000000000000000000000000000000000000000000000000000000000000000000   048   1                             20250514                      
1012024111935       035170005174                  REFF    035170005174                  2025061400000025                000000000018814000000000000000000000000000000000000000000000000000000000000000000000000000   048   1                             20250614                      
1012024111935       035170005174                  REFF    035170005174                  2025071400000026                000000000018814000000000000000000000000000000000000000000000000000000000000000000000000000   048   1                             20250714                      
1012024111935       035170005174                  REFF    035170005174                  2025081400000027                000000000018814000000000000000000000000000000000000000000000000000000000000000000000000000   048   1                             20250814                      
1012024111935       035170005174                  REFF    035170005174                  2025091400000028                000000000018814000000000000000000000000000000000000000000000000000000000000000000000000000   048   1                             20250914                      
1012024111935       035170005174                  REFF    035170005174                  2025101400000029                000000000018814000000000000000000000000000000000000000000000000000000000000000000000000000   048   1                             20251014                      
1012024111935       035170005174                  REFF    035170005174                  2025111400000030                000000000018814000000000000000000000000000000000000000000000000000000000000000000000000000   048   1                             20251114                      
1012024111935       035170005174                  REFF    035170005174                  2025121400000031                000000000018814000000000000000000000000000000000000000000000000000000000000000000000000000   048   1                             20251214                      
1012024111935       035170005174                  REFF    035170005174                  2026011400000032                000000000018814000000000000000000000000000000000000000000000000000000000000000000000000000   048   1                             20260114                      
1012024111935       035170005174                  REFF    035170005174                  2026021400000033                000000000018814000000000000000000000000000000000000000000000000000000000000000000000000000   048   1                             20260214                      
1012024111935       035170005174                  REFF    035170005174                  2026031400000034                000000000018814000000000000000000000000000000000000000000000000000000000000000000000000000   048   1                             20260314                      
1012024111935       035170005174                  REFF    035170005174                  2026041400000035                000000000018814000000000000000000000000000000000000000000000000000000000000000000000000000   048   1                             20260414                      
1012024111935       035170005174                  REFF    035170005174                  2026051400000036                000000000018814000000000000000000000000000000000000000000000000000000000000000000000000000   048   1                             20260514                      
1012024111935       035170005174                  REFF    035170005174                  2026061400000037                000000000018814000000000000000000000000000000000000000000000000000000000000000000000000000   048   1                             20260614                      
1012024111935       035170005174                  REFF    035170005174                  2026071400000038                000000000018814000000000000000000000000000000000000000000000000000000000000000000000000000   048   1                             20260714                      
1012024111935       035170005174                  REFF    035170005174                  2026081400000039                000000000018814000000000000000000000000000000000000000000000000000000000000000000000000000   048   1                             20260814                      
1012024111935       035170005174                  REFF    035170005174                  2026091400000040                000000000018814000000000000000000000000000000000000000000000000000000000000000000000000000   048   1                             20260914                      
1012024111935       035170005174                  REFF    035170005174                  2026101400000041                000000000018814000000000000000000000000000000000000000000000000000000000000000000000000000   048   1                             20261014                      
1012024111935       035170005174                  REFF    035170005174                  2026111400000042                000000000018814000000000000000000000000000000000000000000000000000000000000000000000000000   048   1                             20261114                      
1012024111935       035170005174                  REFF    035170005174                  2026121400000043                000000000018814000000000000000000000000000000000000000000000000000000000000000000000000000   048   1                             20261214                      
1012024111935       035170005174                  REFF    035170005174                  2027011400000044                000000000018814000000000000000000000000000000000000000000000000000000000000000000000000000   048   1                             20270114                      
1012024111935       035170005174                  REFF    035170005174                  2027021400000045                000000000018814000000000000000000000000000000000000000000000000000000000000000000000000000   048   1                             20270214                      
1012024111935       035170005174                  REFF    035170005174                  2027031400000046                000000000018814000000000000000000000000000000000000000000000000000000000000000000000000000   048   1                             20270314                      
1012024111935       035170005174                  REFF    035170005174                  2027041400000047                000000000018814000000000000000000000000000000000000000000000000000000000000000000000000000   048   1                             20270414                      
1012024111935       035170005174                  REFF    035170005174                  2027051400000048                000000000018814000000000000000000000000000000000000000000000000000000000000000000000000000   048   1                             20270514                      
1012024111935       035200001501                  FCDC    035200001501                  2022031200000011                000000000022396900000000000000000000000000000000000000000000000000000000000000000000000000   048   1                             20220312                      
1012024111935       035200001501                  FCDC    035200001501                  2022041200000012                000000000022396900000000000000000000000000000000000000000000000000000000000000000000000000   048   1                             20220412                      
1012024111935       035200001501                  FCDC    035200001501                  2022051200000013                000000000022396900000000000000000000000000000000000000000000000000000000000000000000000000   048   1                             20220512                      
1012024111935       035200001501                  FCDC    035200001501                  2022061200000014                000000000022396900000000000000000000000000000000000000000000000000000000000000000000000000   048   1                             20220612                      
1012024111935       035200001501                  FCDC    035200001501                  2022071200000015                000000000022396900000000000000000000000000000000000000000000000000000000000000000000000000   048   1                             20220712                      
1012024111935       035200001501                  FCDC    035200001501                  2022081200000016                000000000022396900000000000000000000000000000000000000000000000000000000000000000000000000   048   1                             20220812                      
