001202411192024111900000087
1012024111915       003640021921                  125640581832   SURAMA VIEIRA MENESCAL DE SOUZA SILVA        19771109                                                                                                                                                                                                                                                                                                                                                                                                                                       R MENOTTI MONEZZI                                 460                                                         CECAP                    SAO JOSE DO RIO PRETO  SP15041060                    N A                                                                   OUTRAS                        R MENOTTI MONEZZI                                        460                                                  CECAP                    SAO JOSE DO RIO PRETO  SP150410601140045215                  NPE                                          2023011320241212                                                                                                                                                                                                                                                                       FS21435249                    000000000000000000        00000000R988121405           988051881           988051881           SILSUBIBI@IG.COM.BR                                         
1012024111915       003640025290                  110444583483   RIVALDO DA SILVA                             19910922                                                                                                                                                                                                                                                                                                                                                                                                                                       R RIO BRANCO DO SUL                               332                                                         IBURA                    RECIFE                 PE51230030                    BIANCA LARISSA NASCIMENTO DE A                                        GERENTE - TODAS               AV DOIS RIOS                                             109                                                  IBURA                    RECIFE                 PE512300008134718869                  NPE                                          2022121320241212                                                                                                                                                                                                                                                                       MS0537590677                  000000000000000000        00000000R81988347582                                                                                                             
1012024111915       021130012510                  101647244005   MARCELO ROSARIO FERREIRA                     19860823                                                                                                                                                                                                                                                                                                                                                                                                                                       R CUIABA                                          309       CASA 02                                           MEDIANEIRA               PORTO ALEGRE           RS90880030                                                                                          OUTRAS                        R CUIABA                                                 309CASA 02                                           MEDIANEIRA               PORTO ALEGRE           RS90880030                            NPE                                          2022121320241212                                                                                                                                                                                                                                                                       MS5097908916                  000000000000000000        00000000R992265774           997440924           5132417010          CARLA.ADRIANA@PORTOSEGURO.COM.BR                            
1012024111915       025950054300                  135746137847   ANDERSON SANTOS DE OLIVEIRA                  19861019                                                                                                                                                                                                                                                                                                                                                                                                                                       DOUTOR HELIO FURLAN                               182       .                                                 JARDIM DALLA COSTA       ARARAS                 SP13609562                                                                                          OUTRAS                        R DOUTOR HELIO FURLAN                                    182                                                  JARDIM DALLA COSTA       ARARAS                 SP136095621140045215                  NPE                                          2022111420241212                                                                                                                                                                                                                                                                       MC0420237635                  000000000000000000        00000000R11998676776         999639349           40045215            ANDERSONONV@GMAIL.COM                                       
1012024111915       026980009877                  101596024836   OSVALDO ANTONIO TREVISAN                     19610109                                                                                                                                                                                                                                                                                                                                                                                                                                       R TIRADENTES                                      630                                                         CENTRO                   PIRACICABA             SP13400760                                                                                          EMPRESARIO                                                                                                                                                                                                                        NPE                                          2024030520241201                                                                                                                                                                                                                                                                       MS8337461                     000000000000000000        00000000R19996020183         996020183           34214368            HELO@DOMANCO.COM.BR                                         
1012024111915       029010001271                  100665823851   LUCIA PLAVNIK                                19570714                                                                                                                                                                                                                                                                                                                                                                                                                                       R TURIASSU                                        152       AP62                                              PERDIZES                 SAO PAULO              SP05005000                                                                                          GERENTE - TODAS               R TURIASSU                                               152                                                  PERDIZES                 SAO PAULO              SP05005000                            NPE                                          2023081520241212                                                                                                                                                                                                                                                                       FS8055561                     000000000000000000        00000000R11999044319         999044319           999044319           L.PLA@UOL.COM.BR                                            
1012024111915       029010002869                  104540690817   CRISTIANE CECCON                             19660926                                                                                                                                                                                                                                                                                                                                                                                                                                       R ADIB AUADA                                      111       CASA 149                                          JD LAMBRETA              COTIA                  SP06710700                    SECMON                                                                GERENTE                       R TEXAS                                                  111                                                  BROOKLIN PAULISTA        SAO PAULO              SP04557000                            NPE                                          2024031520241212                                                                                                                                                                                                                                                                       FO15440975                    000000000000000000        00000000R                    985841409           985841409                                                                       
1012024111915       030120092550                  170778396720   EVERTOM LUPPO FREITAS                        19621122                                                                                                                                                                                                                                                                                                                                                                                                                                       R LEOPOLDINA                                      338       COB 2                                             PIEDADE                  RIO DE JANEIRO         RJ20756110                    UNIVERSIDADE DO ESTADO DO RIO                                         GERENTE - TODAS               R SAO FRANCISCO XAVIER                                   52412006                                             MARACANA                 RIO DE JANEIRO         RJ20550013                            NPE                                          2023031320241212                                                                                                                                                                                                                                                                       MS057048159                   000000000000000000        00000000R988236650           22896602            22896602            EVERTOM.LUPPO@GMAIL.COM                                     
1012024111915       030120093163                  103026436720   MARIANGELA ALVES GOUVEA                      19700730                                                                                                                                                                                                                                                                                                                                                                                                                                       R VIRGILIO RODRIGUES OLIVEIRA                     364                                                         CENTRO                   NILOPOLIS              RJ26520350                                                                                          OUTRAS                        R VIRGILIO RODRIGUES OLIVEIRA                            364                                                  CENTRO                   NILOPOLIS              RJ26520350                            NPE                                          2024031520241212                                                                                                                                                                                                                                                                       FS0008937322                  000000000000000000        00000000R21997589688         997589688           973535632           MALVESGOUVEIA@OUTLOOK.COM                                   
1012024111915       030120107516                  113195367785   LEANDRO VELOSO DA SILVA                      19930310                                                                                                                                                                                                                                                                                                                                                                                                                                       AVENIDA DOM HELDER CAMARA                         3443      BL1 APTO 1205                                     DEL CASTILHO             RIO DE JANEIRO         RJ21050624                    NENHUMA                                                               GERENTE - TODAS               AVENIDA DOM HELDER CAMARA                               3443                                                  DEL CASTILHO             RIO DE JANEIRO         RJ21050624                            NPE                                          2024111320241212                                                                                                                                                                                                                                                                       MS                            000000000000000000        00000000R                                                                                                                        
1012024111915       035170004261                  115268521870   VANIA MARIA SEDANO DOS SANTOS                19501225                                                                                                                                                                                                                                                                                                                                                                                                                                       R CORONEL JOAQUIM FERREIRA DE SOUZA               242       CASA                                              CONJUNTO RESIDENCIAL SANTSAO PAULO              SP02419070                                                                                          APOSENTADO                                                                                                                                                                                                                        NPE                                          2023041320241212                                                                                                                                                                                                                                                                       FS48863956                    000000000000000000        00000000R11965662748         991538837           965662748           VANIA.M.SEDANO@GMAIL.COM                                    
1012024111915       035210007889                  142611882878   BARBARA DE PAIVA BARROS                      19940205                                                                                                                                                                                                                                                                                                                                                                                                                                       INTERLAGOS                                        1585      AVENIDA IN                                        JARDIM UMUARAMA          SAO PAULO              SP04661100                    NENHUMA                                                               GERENTE - TODAS               INTERLAGOS                                              1585AVENIDA IN                                        JARDIM UMUARAMA          SAO PAULO              SP04661100                            NPE                                          2024111320241212                                                                                                                                                                                                                                                                       MS42491176                    000000000000000000        00000000R                                                                                                                        
1012024111915       035660010949                  142844614434   VALTER LIRA DA SILVA                         19641017                                                                                                                                                                                                                                                                                                                                                                                                                                       R CENTRAL                                         375                                                         CAJUEIRO SECO            JABOATAO DOS GUARARAPESPE54330422                    N A                                                                   OUTRAS                        R CENTRAL                                                375                                                  CAJUEIRO SECO            JABOATAO DOS GUARARAPESPE54330422                            NPE                                          2023061420241212                                                                                                                                                                                                                                                                       MS2.871.984                   000000000000000000        00000000R                    985179017           985179017           MARIAHELLENA.G1@GMAIL.COM                                   
1012024111915       035660022475                  126097614810   JULIANA DA CONCEICAO                         19770314                                                                                                                                                                                                                                                                                                                                                                                                                                       EST ITAQUERAGUAIANAZES                            2415      CASA 15 RUA 2                                     JARDIM HELENA            SAO PAULO              SP08420000                                                                                          OUTRAS                        EST ITAQUERAGUAIANAZES                                  2415CASA 15 RUA 2                                     JARDIM HELENA            SAO PAULO              SP084200001140045215                  NPE                                          2022121320241211                                                                                                                                                                                                                                                                       FS27937353                    000000000000000000        00000000R11986646797         986646797           986646797           JULYBELEZA@ICLOUD.COM                                       
1012024111915       035900004459                  129878757897   LEONARDO DE CARVALHO GRADE                   19820930                                                                                                                                                                                                                                                                                                                                                                                                                                       R BENJAMIM ARRUDA                                 126       CASA 4                                            JD LAGO                  BRAGANCA PAULISTA      SP12914560                    N A                                                                   OUTRAS                        R CATIANA                                                 79                                                  VILA CARRAO              SAO PAULO              SP03428030                            NPE                                          2023111320241212                                                                                                                                                                                                                                                                       MS255875769                   000000000000000000        00000000R11998012025                                                 LEONARDO@LCGSEGUROS.COM.BR                                  
1012024111915       038720002099                  131570607672   NAILSON SANTOS BATISTA                       19590421                                                                                                                                                                                                                                                                                                                                                                                                                                       R PEDRO MEDEIROS GUERRA                           266                                                         CENTRO                   TEIXEIRA DE FREITAS    BA45985114                                                                                          OUTRAS                        TV RUA                                                   000                                                  SETOR HABITACIONAL VICENTBRASILIA               DF72007580                            NPE                                          2023032720241123                                                                                                                                                                                                                                                                       MS3720263                     000000000000000000        00000000R996319902           999580132           32981345            NSBATISTA1959@GMAIL.COM                                     
1012024111915       038840001850                  123097607811   TATIANA SOBREIRA DE LIMA                     19880921                                                                                                                                                                                                                                                                                                                                                                                                                                       R GUATEMALA                                       630                                                         VL UNIVERSITARIA         MOGI MIRIM             SP13802089                                                                                          GERENTE - TODAS               R OSCAR DAVOLI                                           420                                                  CONDOMINIO SANTA MONICA  MOGI MIRIM             SP13808025                            NPE                                          2023021420241212                                                                                                                                                                                                                                                                       FS44708453                    000000000000000000        00000000R19984317559         984317559           984317559           TATIANASOBREIRADELIMA@HOTMAIL.COM                           
1012024111915       038840002311                  122284734804   SERLI APARECIDA SANTOS                       19760920                                                                                                                                                                                                                                                                                                                                                                                                                                       ANTONIA RIBEIRO DE LIMA                           26        APT                                               PARQUE SAO JORGE         CAMPINAS               SP13064832                    NENHUMA                                                               GERENTE - TODAS               ANTONIA RIBEIRO DE LIMA                                   26APT                                               PARQUE SAO JORGE         CAMPINAS               SP13064832                            NPE                                          2024030820241206                                                                                                                                                                                                                                                                       MS351580086                   000000000000000000        00000000R                    993102983           993102983           SANTOSSERLI@YAHOO.COM.BR                                    
1012024111915       049210000129                  136057047869   SIMONE CAMPOS SOARES                         19861217                                                                                                                                                                                                                                                                                                                                                                                                                                       R TURMALINA                                       41                                                          VILA ERCILIA             JANDIRA                SP06606210                                                                                          GERENTE - TODAS               R TURMALINA                                               41                                                  VILA ERCILIA             JANDIRA                SP06606210                            NPE                                          2023111720241218                                                                                                                                                                                                                                                                       FS0551614968                  000000000000000000        00000000R11940265786         995541106           940265786           SIMONE_SOARES123@HOTMAIL.COM                                
1012024111915       051920000560                  101214635245   SANDY SILVA SANTOS                           19991217                                                                                                                                                                                                                                                                                                                                                                                                                                       RUA QUINZE QD A                                   33        RESI JARDIM DO                                    MORADA NOVA              MARABA                 PA68508445                                                                                          OUTRAS                        RUA QUINZE  QD A                                          33RESI JARDIM DO                                    MORADA NOVA              MARABA                 PA68508445                            NPE                                          2023121520241212                                                                                                                                                                                                                                                                       FS6476097                     000000000000000000        00000000R94991844634         991844634           991844634           SANDYSILVASANTOS95@GMAIL.COM                                
1012024111915       053460000993                  104104185442   JOAO BATISTA FARIAS                          19790412                                                                                                                                                                                                                                                                                                                                                                                                                                       Q A-16                                            4                                                           ANTARES                  MACEIO                 AL57083137                                                                                          OUTRAS                        Q A-16                                                     4                                                  ANTARES                  MACEIO                 AL57083137                            NPE                                          2024071520241212                                                                                                                                                                                                                                                                       MS                            000000000000000000        00000000R                    999439344           999439344           JOTABFARIAS@HOTMAIL.COM                                     
1012024111915       053460001178                  109692362477   JEFFERSON VINICIUS DA SILVA                  19910323                                                                                                                                                                                                                                                                                                                                                                                                                                       R QUEIROZ PEDROSO                                 40                                                          BELA VISTA               VITORIA DE SANTO ANTAO PE55608470                                                                                          EMPRESARIO                                                                                                                                                                                                                        NPE                                          2024061320241212                                                                                                                                                                                                                                                                       MS                            000000000000000000        00000000R                    81986540192         81983320827         TESTE@TESTE.COM                                             
1012024111915       055410002382                  130615939856   CARLOS ALBERTO MARCONI ANTUNES JUNIOR        19820517                                                                                                                                                                                                                                                                                                                                                                                                                                       AV PREFEITO JOSE LOZANO ARAUJO                    207                                                         VILA BRESSANI            PAULINIA               SP13140484                                                                                          EMPRESARIO                    AV PREFEITO JOSE LOZANO ARAUJO                           207                                                  VILA BRESSANI            PAULINIA               SP13140484                            NPE                                          2024111820241207                                                                                                                                                                                                                                                                       MS                            000000000000000000        00000000R                                                                                                                        
1012024111915       211570021115                  181238460534   CARLOS EDUARDO ANDRADE BRAGA                 19810218                                                                                                                                                                                                                                                                                                                                                                                                                                       2ª TRAVESSA GANDARELA                             22        CASA / 1 ANDAR                                    COSME DE FARIAS          SALVADOR               BA40251140                                                                                          OUTRAS                        2A TV GANDARELA                                           221 ANDAR                                           COSME DE FARIAS          SALVADOR               BA40251140                            NPE                                          2023032020241223                                                                                                                                                                                                                                                                       FS759735530                   000000000000000000        00000000R71992667491         992667491           32153677            CARLOSEDUARDO.EDUARDO2@GMAIL.COM                            
1012024111915       001080011845                  137895433814   CLEBER FERNANDO RICCO DA SILVA               19910327                                                                                                                                                                                                                                                                                                                                                                                                                                       R S FRANCISCO                                     4         CASA 3                                            VILA MENCK               OSASCO                 SP06273110                    NENHUMA                                                               GERENTE - TODAS               R S FRANCISCO                                              4CASA 3                                            VILA MENCK               OSASCO                 SP06273110                            NPE                                          2024111820241210                                                                                                                                                                                                                                                                       MS                            000000000000000000        00000000R                                                                                                                        
1012024111915       003640018541                  129660214898   KARINA APARECIDA BENVINDO DE CARVALHO        19810128                                                                                                                                                                                                                                                                                                                                                                                                                                       RUA CESAR CASSOLI                                 678                                                         JD N S APARECIDA         PIRANGI                SP15820000                                                                                          EMPRESARIO                    RUA PRUDENTE DE MORAES                                  1020LOJA                                              CENTRO                   PIRANGI                SP158200001733861483          0       NPE                                          2023011620241218                                                                                                                                                                                                                                                                       FC29874590                    000000000000000000        00000000R17997779094         997779094           33861483            KARINABCARV@GMAIL.COM                                       
1012024111915       003640030296                  161142131220   MARCOS JIMMER FERREIRA DE SOUZA              19771021                                                                                                                                                                                                                                                                                                                                                                                                                                       RUA GUANABARA                                     341       CASA                                              SETOR 08                 BURITIS                RO76880000                    GOVERNO DO ESTADO DE RONDONIA                                         GERENTE - TODAS               RUA JOSE CARLOS DA MATA                                   00IDARON                                            SETOR 01                 BURITIS                RO76880000                            NPE                                          2023011320241212                                                                                                                                                                                                                                                                       MS608436                      000000000000000000        00000000R                    993786991           993786990           MARCOSJIMMER1@GMAIL.COM                                     
1012024111915       005400006643                  124914699877   KELLY CRISTINA MARQUES DE SA                 19770416                                                                                                                                                                                                                                                                                                                                                                                                                                       AV PRUDENTE DE MORAES                             142                                                         VL P MORAES              ITATIBA                SP132513701144951942                                                                                OUTROS                                                                                                                                                                                                                            NPE                                          2022111420241212                                                                                                                                                                                                                                                                       FO27919551                    000000000000000000        00000000R11975748054         995644989           947689976           K.MARKUES@HOTMAIL.COM                                       
1012024111915       023620023750                  190992083915   CLAUDETE MARCIANO                            19731105                                                                                                                                                                                                                                                                                                                                                                                                                                       RUA JOAO ERNESTO RAMOS                            1063                                                        SANTA LUCIA              CAPIVARI               SC88745000                                                                                          OUTRAS                        RUA JOAO ERNESTO RAMOS                                  1063                                                  SANTA LUCIA              CAPIVARI               SC887450001140045215                  NPE                                          2023021420241212                                                                                                                                                                                                                                                                       FS0641212820                  000000000000000000        00000000R48999218351         999218351           996094358           CLAUDETEMARCIANO2014@GMAIL.COM                              
1012024111915       023620024112                  170834965283   ADRIAN RAFAEL ALCAZAR PEREZ                  19881116                                                                                                                                                                                                                                                                                                                                                                                                                                       R PRIMEIRO DE MAIO                                227       CASA                                              BOA VISTA                JOINVILLE              SC89206020                    TUPY SA                                                               GERENTE - TODAS               ALBANO SCHMIDT                                          3400TUPY                                              BOA VISTA                JOINVILLE              SC892051004721055959                  NPE                                          2022110520241223                                                                                                                                                                                                                                                                       MS0747232361                  000000000000000000        00000000R47999020422         999020422           34183273            ALCAZARADRIAN1988@GMAIL.COM                                 
1012024111915       023620032917                  103268160972   ANTONIO ZANI                                 19490101                                                                                                                                                                                                                                                                                                                                                                                                                                       AV LEBON REGIS                                    1305      APTO 01                                           SAO JOSE                 FRAIBURGO              SC89580000                    AGRICOLA                                                              OUTRAS                        AV. LEBON REGIS                                         1305APTO 01                                           SAO JOSE                 FRAIBURGO              SC89580000                            NPE                                          2023031320241212                                                                                                                                                                                                                                                                       MS491167                      000000000000000000        00000000R                    999517079           999517079           FINANCEIRO@ALMEIDANOVICKI.COM.BR                            
1012024111915       023620042142                  104732180973   MARCOS KOERICH ELIAS                         19840120                                                                                                                                                                                                                                                                                                                                                                                                                                       AV GOVERNADOR JOSE BOABAID                        755                                                         CORREGO GRANDE           FLORIANOPOLIS          SC88037200                                                                                          EMPRESARIO                    AV GOVERNADOR JOSE BOABAID                               755                                                  CORREGO GRANDE           FLORIANOPOLIS          SC88037200                            NPE                                          2024011620241212                                                                                                                                                                                                                                                                       MS                            000000000000000000        00000000R48999994567         999994567           999994567           MKEBATATA@HOTMAIL.COM                                       
1012024111915       023790009103                  190631811168   JOSE LUIZ DE OLIVEIRA FILHO                  19780309                                                                                                                                                                                                                                                                                                                                                                                                                                       Q 305 CASA                                        50                                                          DEL LAGO II ITAPOA       BRASILIA               DF71593175                                                                                          GERENTE - TODAS               Q 305                                                     50                                                  DEL LAGO II ITAPOA       BRASILIA               DF71593175                            NPE                                          2023091320241212                                                                                                                                                                                                                                                                       MO2402740                     000000000000000000        00000000R61993646277         993646277           991409948           WALEFDOSSANTOS429@GMAIL.COM                                 
1012024111915       023790019507                  100034907181   KELLY DE MELO PAIVA                          19830925                                                                                                                                                                                                                                                                                                                                                                                                                                       AL QUADRA                                         14        Q D AP 202                                        MANSOES SULESTE          CIDADE OCIDENTAL       GO72880010                    PREFEITURA MUNICIPAL DE CIDADE                                        GERENTE - TODAS               AL QUADRA                                                 01                                                  MANSOES SULESTE          CIDADE OCIDENTAL       GO72880010                            NPE                                          2023021420241212                                                                                                                                                                                                                                                                       FS3014886                     000000000000000000        00000000R                    995627032           994145070                                                                       
1012024111915       026730014157                  111733806636   JULIANO ALVES DA FONSECA                     19940402                                                                                                                                                                                                                                                                                                                                                                                                                                       RUA CLAUDIO FERREIRA                              36                                                          JD BELA VISTA            MACHADO                MG37750000                    N A                                                                   GERENTE - TODAS               RUA MOSARTY SOUZA PINTO                                  430                                                  CENTRO                   MACHADO                MG377500003532955662          0       NPE                                          2024051320241212                                                                                                                                                                                                                                                                       MSMG18044439                  000000000000000000        00000000R988018613           997688503           32955662            LARYPAESVILELA@GMAIL.COM                                    
1012024111915       026980010311                  104184735878   JOSE HENRIQUE OCHEUZE TRIVELIN               19630213                                                                                                                                                                                                                                                                                                                                                                                                                                       QUINTINO BOCAIUVA                                 1075      APTO41                                            JARDIM AMERICA           DOURADOS               MS79824140                                                                                          EMPRESARIO                    QUINTINO BOCAIUVA                                       1075APTO41                                            JARDIM AMERICA           DOURADOS               MS79824140                            NPE                                          2024111220241211                                                                                                                                                                                                                                                                       MS12202773                    000000000000000000        00000000R                                                                                                                        
1012024111915       028020001656                  103751745327   THIAGO TELES DE SOUSA                        19931021                                                                                                                                                                                                                                                                                                                                                                                                                                       AV DA ABOLICAO                                    3998      LAVA JATO                                         MUCURIPE                 FORTALEZA              CE60165082                                                                                          OUTRAS                        AV DA ABOLICAO                                          3998LAVA JATO                                         MUCURIPE                 FORTALEZA              CE60165082                            NPE                                          2023071320241212                                                                                                                                                                                                                                                                       MS9568744                     000000000000000000        00000000R85997579357         999757935           992051175           THIAGOTELESDESOUSA@HOTMAIL.COM                              
1012024111915       030120101728                  132104091888   FABIANA DA CRUZ VENTURA FILIPE               19850711                                                                                                                                                                                                                                                                                                                                                                                                                                       R ITAPURA                                         211       AP 71                                             VILA ALPINA              SANTO ANDRE            SP09090320                                                                                          OUTRAS                        R ITAPURA                                                211                                                  VILA ALPINA              SANTO ANDRE            SP09090320                            NPE                                          2023102320241121                                                                                                                                                                                                                                                                       FO345140473                   000000000000000000        00000000R11985253113         985253113           985253113           FABIANA.FILIPE@HOTMAIL.COM                                  
1012024111915       031110000451                  105401727828   RUTH MENDES BRAGA                            19660325                                                                                                                                                                                                                                                                                                                                                                                                                                       R ROBERT KENNEDY                                  216                                                         VELOSO                   OSASCO                 SP06144110                    EE PROF ARMANDO KENNEDY FABAM                                         GERENTE - TODAS               R PARANAENSE                                             352                                                  CONCEICAO                OSASCO                 SP06140052                            NPE                                          2022121320241212                                                                                                                                                                                                                                                                       FS18325673                    000000000000000000        00000000R11986512346         986512346           986512346           PROFARUTHB@GMAIL.COM                                        
1012024111915       031770003058                  134651645801   GILVANIO PEREIRA DOS SANTOS                  19830525                                                                                                                                                                                                                                                                                                                                                                                                                                       R RUA AYMORE                                      104       FUNDOS                                            BALNEARIO PRAIA DO P     GUARUJA                SP11446290                                                                                          OUTRAS                        R AYMORE                                                 104                                                  BALNEARIO PRAIA DO PEREQUGUARUJA                SP11446290                            NPE                                          2022110520241218                                                                                                                                                                                                                                                                       MS642869388                   000000000000000000        00000000R997440482           997602287           1333537173          THAISELAIS147@GMAIL.COM                                     
1012024111915       034560000102                  149150294920   CLEMIR CAVALHEIRO                            19631120                                                                                                                                                                                                                                                                                                                                                                                                                                       R LEONARDO PIANOWSKI                              1065                                                        PINHEIRINHO              CURITIBA               PR81150330                    J. R. COMPANY                                                         GERENTE - TODAS               RUA BENJAMIM NEGOSEKI                                  18526                                                  CACHOEIRA                SAO JOSE DOS PINHAIS   PR831810004133881472                  NPE                                          2023031320241212                                                                                                                                                                                                                                                                       MS51603478                    000000000000000000        00000000R41995713034         995713034           995713034                                                                       
1012024111915       035660021227                  119879938615   PEDRO CLAVES DE SOUZA                        19510906                                                                                                                                                                                                                                                                                                                                                                                                                                       R PASTOR JAIME WRIGHT                             10                                                          CEU AZUL                 BELO HORIZONTE         MG31585320                    N A                                                                   APOSENTADO                                                                                                                                                                                            1140045215                  NPE                                          2023042420241121                                                                                                                                                                                                                                                                       MSM235923                     000000000000000000        00000000R31992981521         992981521           34961272            KEILATAVARESARRUDADESOUZA@GMAIL.COM                         
1012024111915       035900016706                  110394568800   MARIA CRISTINA VALERIO                       19660410                                                                                                                                                                                                                                                                                                                                                                                                                                       ESTRADA MUNICIPAL                                 16                                                          CACHOEIRA                IBIUNA                 SP18150000                                                                                          OUTRAS                        ESTRADA MUNICIPAL                                         16                                                  CACHOEIRA                IBIUNA                 SP18150000                            NPE                                          2024061320241212                                                                                                                                                                                                                                                                       FS                            000000000000000000        00000000R                    991088171           991088171                                                                       
1012024111915       036110002794                  127937432837   THIAGO FIRMINO DE TOLEDO                     19790916                                                                                                                                                                                                                                                                                                                                                                                                                                       R NITEROI                                         281                                                         JARDIM CAMPOS ELISEOS    CAMPINAS               SP13060870                                                                                          EMPRESARIO                                                                                                                                                                                                                        NPE                                          2024031520241212                                                                                                                                                                                                                                                                       MS308377886                   000000000000000000        00000000R                    974078008           974078008                                                                       
1012024111915       036140001353                  105141454983   RAFAEL RODRIGO DE LIMA                       19860313                                                                                                                                                                                                                                                                                                                                                                                                                                       R ELIAS DANIEL HATTI                              893                                                         AQUILLES STHENGEL        LONDRINA               PR86086080                                                                                          OUTRAS                        R ELIAS DANIEL HATTI                                     893                                                  AQUILLES STHENGEL        LONDRINA               PR86086080                            NPE                                          2022122020241223                                                                                                                                                                                                                                                                       MS91556898                    000000000000000000        00000000R999326387                                                   ADM_RAFAELLIMA@HOTMAIL.COM                                  
1012024111915       036180005332                  127157407272   MARCELO TADEU DA SILVA                       19660929                                                                                                                                                                                                                                                                                                                                                                                                                                       R PEDRO ROMERO                                    25                                                          VL ROMERO                SAO PAULO              SP02468070                    M H ADM  CORRETORA DE SEGUROS                                         SOCIO   PROPRIE               TRAVESSA CHAPADINHA                                       24                                                  IMIRIM                   SAO PAULO              SP02463065                            NPE                                          2023081520241212                                                                                                                                                                                                                                                                       MS16305329                    000000000000000000        00000000R1199612363                                                                                                              
1012024111915       036290003867                  145197015896   KARINE DE MATOS SILVA                        19960420                                                                                                                                                                                                                                                                                                                                                                                                                                       R JOAO CARRARI                                    592                                                         PARQUE RESIDENCIAL HUMBERARTUR NOGUEIRA         SP13164086                                                                                          OUTRAS                        R JOAO CARRARI                                           592                                                  PARQUE RESIDENCIAL HUMBERARTUR NOGUEIRA         SP131640861140045215                  NPE                                          2023011320241212                                                                                                                                                                                                                                                                       FS55131467                    000000000000000000        00000000R19991789572         997940675           989861461           KARINEMTS18@HOTMAIL.COM                                     
1012024111915       037820002219                  139436320833   ANA BEATRIZ DOS SANTOS VIEIRA CAMPOS         19971006                                                                                                                                                                                                                                                                                                                                                                                                                                       R JUDITH CARPINELLI VILLACA                       125                                                         PARQUE ATENAS DO SUL     ITAPETININGA           SP18208450                                                                                          OUTRAS                        R JUDITH CARPINELLI VILLACA                              125                                                  PARQUE ATENAS DO SUL     ITAPETININGA           SP18208450                            NPE                                          2023051220241214                                                                                                                                                                                                                                                                       FS44429246                    000000000000000000        00000000R15996997341         997821714           32712472            ANIINHASAANTOS97@HOTMAIL.COM                                
1012024111915       037830009280                  108248361896   ADILSON CESPEDE                              19631115                                                                                                                                                                                                                                                                                                                                                                                                                                       R JOAO COELHO DE MORAES                           64                                                          VILA BELA                SAO PAULO              SP03203060                                                                                          OUTRAS                        R JOAO COELHO DE MORAES                                   64                                                  VILA BELA                SAO PAULO              SP03203060                            NPE                                          2024101520241212                                                                                                                                                                                                                                                                       MS                            000000000000000000        00000000R                                                                                                                        
1012024111915       038720002418                  143779670100   PAULO DE OLIVEIRA JUNIOR                     19710316                                                                                                                                                                                                                                                                                                                                                                                                                                       AV SEBASTIANA SOARES FARIA                        SN        Q28 L14                                           RESIDENCIAL FIDELIS      GOIANIA                GO74372070                                                                                          OUTRAS                        AV SEBASTIANA SOARES FARIA                                SNQ28 L14                                           RESIDENCIAL FIDELIS      GOIANIA                GO74372070                            NPE                                          2023071820241218                                                                                                                                                                                                                                                                       MS1784546                     000000000000000000        00000000R62993224234         993224234           993224234           PAULOOLIVEIRAJR2@GMAIL.COM                                  
1012024111915       038720004537                  190308026420   RINALDO SOARES SARMENTO                      19730829                                                                                                                                                                                                                                                                                                                                                                                                                                       R X                                               336                                                         PONTA GROSSA             MACEIO                 AL57014510                                                                                          GERENTE - TODAS               R X                                                      336                                                  PONTA GROSSA             MACEIO                 AL57014510                            NPE                                          2024051520241218                                                                                                                                                                                                                                                                       MS1280461                     000000000000000000        00000000R988661423           988790514           82999985236         ELIANE_JATOBA@HOTMAIL.COM                                   
1012024111915       045610000034                  126219187865   CLEBER MARINHO DOS SANTOS                    19770223                                                                                                                                                                                                                                                                                                                                                                                                                                       R ANTONIO P DA COSTA, 179,                                                                                                             SAO PAULO              SP02870040                                                                                                                                                                                                                                                                                                                            NPE                                          2023111320241212                                                                                                                                                                                                                                                                       MC297884311                   000000000000000000        00000000R11991999605         947925313           947738082           CLEBINHO.MARINHO13@GMAIL.COM                                
1012024111915       049220000537                  188708837600   ELAINE DINIZ BORGES                          19721025                                                                                                                                                                                                                                                                                                                                                                                                                                       R CRISTOVAO COLOMBO                               900                                                         CASTELANEA               PETROPOLIS             RJ25640322                    NAO INFORMADO                                                         GERENTE - TODAS               R CRISTOVAO COLOMBO                                      900                                                  CASTELANEA               PETROPOLIS             RJ25640322                            NPE                                          2024070220241127                                                                                                                                                                                                                                                                       FS                            000000000000000000        00000000R                    988182259           988182259           ELAINEDINIZBORGES@GMAIL.COM                                 
1012024111915       049240001599                  101037333292   DAYARA DA SILVA MACEDO                       19890311                                                                                                                                                                                                                                                                                                                                                                                                                                       AVENIDA JATOBA QD30 LT26                          30                                                          JARDIM TROPICAL I        PARAUAPEBAS            PA68515000                                                                                          OUTRAS                        AVENIDA JATOBA QD30 LT26                                  30                                                  JARDIM TROPICAL I        PARAUAPEBAS            PA68515000                            NPE                                          2024102120241223                                                                                                                                                                                                                                                                       FS                            000000000000000000        00000000R                    996619373           94996610432                                                                     
1012024111915       050050000531                  136531226862   TATIANE RODRIGUES DA SILVA BEZERRA           19900502                                                                                                                                                                                                                                                                                                                                                                                                                                       R EUGENIO DE MEDEIROS                             288       APTO 611                                          PINHEIROS                SAO PAULO              SP05425000                    GOIAS MINAS INDUSTRIA DE LACTI                                        GERENTE - TODAS               R MINISTRO JESUINO CARDOSO                               454                                                  VILA NOVA CONCEICAO      SAO PAULO              SP04544051                            NPE                                          2023012020241223                                                                                                                                                                                                                                                                       FS0732465876                  000000000000000000        00000000R11985605251         955791838           1125692722          TATI.RSB@YAHOO.COM                                          
1012024111915       050300001264                  150576364568   FRANCISCO CAMILO DE SOUZA FILHO              19690323                                                                                                                                                                                                                                                                                                                                                                                                                                       PREFEITO GILBERTO ANTUNES                         763       B7 AP 303                                         APOLO II MANILHA         ITABORAI               RJ248586802187246382          NENHUMA                                                               GERENTE - TODAS               PREFEITO GILBERTO ANTUNES                                763B7 AP 303                                         APOLO II MANILHA         ITABORAI               RJ24858680                            NPE                                          2023021420241212                                                                                                                                                                                                                                                                       MS212613236                   000000000000000000        00000000R21997912267         997912267           963580874           FERNANDAALVES.SANTOS@PORTOSEGURO.COM.BR                     
1012024111915       211900043455                  109046803716   JEFERSON LIMA BARBOSA COSTA                  19800402                                                                                                                                                                                                                                                                                                                                                                                                                                       AV ESTUDANTE JOSE JULIO DE SOUZA                  1730      APTO 1402                                         PRAIA DE ITAPARICA       VILA VELHA             ES29102010                                                                                          OUTRAS                        AV ESTUDANTE JOSE JULIO DE SOUZA                        1730APTO 1402                                         PRAIA DE ITAPARICA       VILA VELHA             ES29102010                            NPE                                          2023031320241212                                                                                                                                                                                                                                                                       MS1709777                     000000000000000000        00000000R27999273815                                                 JEFERSONLBC@GMAIL.COM                                       
1012024111915       000830036620                  104335442874   RITA DE CASSIA MARIANO                       19631105                                                                                                                                                                                                                                                                                                                                                                                                                                       AV DOUTOR ABELARDO POMPEU DO AMARAL               616       11                                                VILA INDUSTRIAL          CAMPINAS               SP130356001932730244                                                                                OUTRAS                        AV DOUTOR ABELARDO POMPEU DO AMARAL                      61611                                                VILA INDUSTRIAL          CAMPINAS               SP13035600                            NPE                                          2023021420241212                                                                                                                                                                                                                                                                       FS14886943                    000000000000000000        00000000R18997426941         997426941           996012410           RCZANGIROLAMI@HOTMAIL.COM                                   
1012024111915       003640024591                  122394086858   ANGELICA ARDUVINI MOREIRA DOS REIS           19791003                                                                                                                                                                                                                                                                                                                                                                                                                                       RUA RODNEY MESSIAS                                206                                                         JD EUROPA                MORRO AGUDO            SP14640000                    PREFEITURA MUNICIPAL DE MORRO                                         GERENTE - TODAS               AV MARTINICO PRADO                                      1626                                                  CENTRO                   MORRO AGUDO            SP146400001638511400                  NPE                                          2023021420241212                                                                                                                                                                                                                                                                       FS32526095                    000000000000000000        00000000R16993698383         999741301           993698383           ANGELICA.AM_REIS@HOTMAIL.COM                                
1012024111915       005390011258                  139009953890   EDUARDO POMPEU PRACCHIAS                     19950807                                                                                                                                                                                                                                                                                                                                                                                                                                       R CAMELIAS                                        36        BL A APT42                                        VL STA MARTA             ITAPIRA                SP13976452                                                                                                                                                                                                                                                                                                                            NPE                                          2022121320241212                                                                                                                                                                                                                                                                       MO                            000000000000000000        00000000R19982652604         982652604           982652604           PATHYMORAES@GMAIL.COM                                       
1012024111915       005400012001                  111201637813   CELSO JOSE DA SILVA                          19750918                                                                                                                                                                                                                                                                                                                                                                                                                                       R JOSE GALDINO DE LUCENA                          143       BL A AP 22                                        CH S JOAO                SAO PAULO              SP05110080                                                                                          EMPRESARIO                    R MANUEL RIBEIRO ROSA                                    501                                                  JARDIM CIDADE PIRITUBA   SAO PAULO              SP02940000                            NPE                                          2023021420241210                                                                                                                                                                                                                                                                       MS22.928.057                  000000000000000000        00000000R11946109448         966765502           946109448           CELSOJSKRK@GMAIL.COM                                        
1012024111915       021130027888                  152649911034   LILIANE FERNANDES DA SILVA RODRIGUES         19710220                                                                                                                                                                                                                                                                                                                                                                                                                                       ESTACIO AZAMBUJA                                  25                                                          MONTE BELO               GRAVATAI               RS94055140                                                                                          EMPRESARIO                    ESTACIO AZAMBUJA                                          25                                                  MONTE BELO               GRAVATAI               RS94055140                            NPE                                          2024111820241207                                                                                                                                                                                                                                                                       MS                            000000000000000000        00000000R                                                                                                                        
1012024111915       022800019024                  115895467172   JOSE FRANCISCO DE AZEVEDO                    19581020                                                                                                                                                                                                                                                                                                                                                                                                                                       AV LEBLON                                         146       AP 1702 BL3                                       JARDIM ATLANTICO         GOIANIA                GO74843440                                                                                          EMPRESARIO                    AV DE CONTORNO SUL                                       161                                                  PARQUE ANHANGUERA        GOIANIA                GO74340060                            NPE                                          2023021420241212                                                                                                                                                                                                                                                                       MS000950779                   000000000000000000        00000000R62991619824         998503311           996723340           AZEVEDO.PROSERV@GMAIL.COM                                   
1012024111915       022800019289                  114797496134   MARIA DIVINA ALVES DA SILVA                  19560308                                                                                                                                                                                                                                                                                                                                                                                                                                       R CORONEL ZECA LOPES                              157                                                         CENTRO                   JATAI                  GO75800040                                                                                          APOSENTADO                                                                                                                                                                                                                        NPE                                          2023031320241212                                                                                                                                                                                                                                                                       FS0198001158                  000000000000000000        00000000R                                                            ALVESDASILVA05@GMAIL.COM                                    
1012024111915       022800021804                  132510443895   JOSE JAILSON SIMAO DA SILVA                  19840620                                                                                                                                                                                                                                                                                                                                                                                                                                       ATLAS                                             10        CASA                                              AGUA CHATA               GUARULHOS              SP07251180                    NENHUMA                                                               GERENTE - TODAS               ATLAS                                                     10CASA                                              AGUA CHATA               GUARULHOS              SP07251180                            NPE                                          2023072020241223                                                                                                                                                                                                                                                                       MS42126651                    000000000000000000        00000000R11966165225         993211339           11993211339         JAILSON201107@HOTMAIL.COM                                   
