001202412202024122000000113
1012024122015       025950068992                  100473205084   EDIMILSON CORREA SOARES                      19860330                                                                                                                                                                                                                                                                                                                                                                                                                                       R EMILIO CONCI                                    304       RUA SEM SAIDA                                     HUMAITA                  BENTO GONCALVES        RS95705058                                                                                          OUTRAS                        R EMILIO CONCI                                           304RUA SEM SAIDA                                     HUMAITA                  BENTO GONCALVES        RS95705058                            NPE                                          2024082020520506                                                                                                                                                                                                                                                                       MS9084820944                  000000000000000000        00000000R54999307971         999307971           999307971                                                                       
1012024122015       211570015205                  105104920534   ESMERALDA SIMOES MARTINEZ                    19530913                                                                                                                                                                                                                                                                                                                                                                                                                                       R DESEMBARGADOR LAFAYETTE VELLOSO                 SN        CD JD GAN                                         JAGUARIBE                SALVADOR               BA41613076                                                                                          APOSENTADO                                                                                                                                                                                            7121329087                  NPE                                          2022110520520506                                                                                                                                                                                                                                                                       FS00020623                    000000000000000000        00000000R74988265044         988471953           987260332                                                                       
1012024122015       053460000982                  105641848450   ALESANDRO GENAURO DOS SANTOS                 19830923                                                                                                                                                                                                                                                                                                                                                                                                                                       RESIDENCIALFRANSCISCO LERINDO                     SN        CASA                                              PORTO DA RUA             SAO MIGUEL DO MILAGRES AL57940000                                                                                          OUTRAS                        RESIDENCIALFRANSCISCO LERINDO                             SNCASA                                              PORTO DA RUA             SAO MIGUEL DO MILAGRES AL57940000                            NPE                                          2024053120520319                                                                                                                                                                                                                                                                       MS                            000000000000000000        00000000R82991819984         999893720           991819984                                                                       
1012024122015       027120012219                  111783739835   IRACI MARIA DANTAS                           19481004                                                                                                                                                                                                                                                                                                                                                                                                                                       R SUZANO                                          70                                                          CIDADE NOVA              PINDAMONHANGABA        SP12414050                                                                                          APOSENTADO                                                                                                                                                                                                                        NPE                                          2022110520520425                                                                                                                                                                                                                                                                       FS230863267                   000000000000000000        00000000R12997867424         1236425792          1236425792          TAISJR02@GMAIL.COM                                          
1012024122015       038720004100                  119887114871   VIVIAN DE GODOY MANTOVANI                    19741017                                                                                                                                                                                                                                                                                                                                                                                                                                       R LAUSANE                                         62        APT 164                                           TABOAO                   SAO BERNARDO DO CAMPO  SP09663030                    INST NAC COLONIZACAO REF AGRAR                                        GERENTE - TODAS               RUA DOUTOR BRASILIO MACHADO 203                          203                                                  SANTA CECILIA            SAO PAULO              SP01230906                            NPE                                          2024012220520319                                                                                                                                                                                                                                                                       FS254648629                   000000000000000000        00000000R11991047398         994715818           1138238608          SANTOS.FABIO@GRUPOVERRESCHI.COM.BR                          
1012024122015       051920005185                  164734455287   VALDERI ALVES DE SOUSA                       19780308                                                                                                                                                                                                                                                                                                                                                                                                                                       RUA FRANCISCO ARAUJO                              1101                                                        VILA FRANCA              SAO MIGUEL DO GUAMA    PA68660000                                                                                          OUTRAS                        RUA FRANCISCO ARAUJO                                    1101                                                  VILA FRANCA              SAO MIGUEL DO GUAMA    PA68660000                            NPE                                          2024051620520506                                                                                                                                                                                                                                                                       MS0433977973                  000000000000000000        00000000R                    991905909           991905909           VALDERIALVES23@HOTMAIL.COM                                  
1012024122015       211570018382                  102978086564   OSMAR SENA DA ANUNCIACAO                     19860608                                                                                                                                                                                                                                                                                                                                                                                                                                       R 28 DE JANEIRO                                   21        A                                                 AT COQUEIRINHO           SALVADOR               BA41615310                                                                                          OUTRAS                        RUA 28 DE JANEIRO                                         21A                                                 ITAPUA                   SALVADOR               BA421061701140045215                  NPE                                          2022111720520506                                                                                                                                                                                                                                                                       MS0741736680                  000000000000000000        00000000R71996123592         996123592           992668415           OSMARCENA08@GMAIL.COM                                       
1012024122015       025950044459                  113832205730   VITOR DO MONTE NETO VASCONCELLOS             19901108                                                                                                                                                                                                                                                                                                                                                                                                                                       R BAICURU                                         AP 104                                                      CPO GRANDE               RIO DE JANEIRO                                                                                                             GERENTE - TODAS                                                                                                                                                                             RJ23087350                            NPE                                          2023071820520506                                                                                                                                                                                                                                                                       MS                            000000000000000000        00000000R967103561           987664434           21973966760         GABRIELASR688@HOTMAIL.COM                                   
1012024122015       211040030821                  104831692859   JULIANA APARECIDA ZAFANELLA                  19660119                                                                                                                                                                                                                                                                                                                                                                                                                                       RUA CESARIO MOTA                                  183                                                         CENTRO                   CRAVINHOS              SP14140000                                                                                          APOSENTADO                                                                                                                                                                                                                        NPE                                          2022120720520506                                                                                                                                                                                                                                                                       FS13.595.456                  000000000000000000        00000000R16991762981         997294881           39511712            JUNAZAFANELLA@GMAIL.COM                                     
1012024122015       050350001426                  112096620430   EDUARDO PEREIRA FERREIRA                     19960913                                                                                                                                                                                                                                                                                                                                                                                                                                       R DO CALISTEMON                                   363       APTO 212 A                                        PANORAMA                 UBERLANDIA             MG38413675                                                                                          OUTRAS                        R DO CALISTEMON                                          363APTO 212 A                                        PANORAMA                 UBERLANDIA             MG38413675                            NPE                                          2023042420520319                                                                                                                                                                                                                                                                       MS0687449248                  000000000000000000        00000000R34988381139         998838879           984194305           CRISTYANEBRAGA34@GMAIL.COM                                  
1012024122015       038720003988                  143686607816   EDER BENTO DE MORAIS                         19860514                                                                                                                                                                                                                                                                                                                                                                                                                                       RUA ARISTEU DE SOUZA PINTO                        93                                                          CENTRO                   SOCORRO                SP13960000                                                                                                                                                                                                                                                                                                                            NPE                                          2024012620520319                                                                                                                                                                                                                                                                       MC4368660781                  000000000000000000        00000000R19998264533         998264533           971446058           EDERPIOIO987654321@GMAIL.COM                                
1012024122015       050460002327                  171075496349   JOSILOURDES OLIVEIRA NERY                    19740306                                                                                                                                                                                                                                                                                                                                                                                                                                       DEZENOVE DE NOVEMBRO                              2784      NAO INFORMADO                                     PRIMAVERA                TERESINA               PI64002585                                                                                          OUTRAS                        DEZENOVE DE NOVEMBRO                                    2784NAO INFORMADO                                     PRIMAVERA                TERESINA               PI64002585                            NPE                                          2023041720520506                                                                                                                                                                                                                                                                       MS1337669                     000000000000000000        00000000R86981889737         999794577           981889737           JJNERYAMOR83@GMAIL.COM                                      
1012024122015       022800016465                  170028107152   RENILSOM RODRIGUES CONCEICAO DE SOUSA        19910305                                                                                                                                                                                                                                                                                                                                                                                                                                       R RIVIERA                                         SN        QD 237 LT 20 CASA 03                              JARDIM NOVO MUNDO        GOIANIA                GO74705050                    ITAMBE ALIMENTOS LTDA                                                 GERENTE - TODAS               AV MANCHESTER                                              0                                                  JARDIM NOVO MUNDO        GOIANIA                GO747030103121263700                  NPE                                          2023011620520506                                                                                                                                                                                                                                                                       MS0522690306                  000000000000000000        00000000R992695597           994709644           61987054465         RENILSOMR007@GMAIL.COM                                      
1012024122015       038720003677                  104587872210   JIVAGO BARROS LOUZEIRO                       19980923                                                                                                                                                                                                                                                                                                                                                                                                                                       RUA INGLATERRA                                    SN        QD 30 L 12                                        PARQ DA NACOES           PARAUAPEBAS            PA68515000                    ARGOS ENGENHARIA E MONTAGENS L                                        GERENTE - TODAS               RODOVIA PA 160                                            SN                                                  JARDIM                   PARAUAPEBAS            PA68515000                            NPE                                          2023121820520506                                                                                                                                                                                                                                                                       MS0697496700                  000000000000000000        00000000R94981280083         981280083           1136245334                                                                      
1012024122015       050200006211                  138534967415   RUTH LOPES DE LIMA                           19630405                                                                                                                                                                                                                                                                                                                                                                                                                                       AVENIDA GENERAL NEWTON CAVALCANTE LADO PAR        462       TORRE 15 APTO 103                                 NAZARE                   CAMARAGIBE             PE54753220                    PREFEITURA CA CIDADE DO RECIFE                                        GERENTE - TODAS               C DO APOLO                                               925PCR                                               RECIFE                   RECIFE                 PE50030230                            NPE                                          2024101620520506                                                                                                                                                                                                                                                                       FS2457316                     000000000000000000        00000000R                    988819331           81981141919                                                                     
1012024122015       038720004238                  109582558903   MARCOS VINICIUS MARTINS                      19960919                                                                                                                                                                                                                                                                                                                                                                                                                                       R FREI GALVAO                                     150                                                         FORQUILHAS               SAO JOSE               SC88107576                                                                                          OUTRAS                        R FREI GALVAO                                            150                                                  FORQUILHAS               SAO JOSE               SC88107576                            NPE                                          2024030520520319                                                                                                                                                                                                                                                                       MS0668915627                  000000000000000000        00000000R48988125177         988771995           984449535           ALESSANDRACEAL2@GMAIL.COM                                   
1012024122015       026980004499                  129185929867   SUELI ALVES DE ANDRADE                       19770625                                                                                                                                                                                                                                                                                                                                                                                                                                       R 8 MP                                            104                                                         PARQUE MAE PRETA         RIO CLARO              SP13506178                                                                                          EMPRESARIO                    R 8 MP                                                   100                                                  PARQUE MAE PRETA         RIO CLARO              SP13506178                            NPE                                          2022112120520319                                                                                                                                                                                                                                                                       FS0675359148                  000000000000000000        00000000R19997734808         997734808           945263616           SREREFORMAS@GMAIL.COM                                       
1012024122015       211040041308                  136028927864   FRANCINE  ALVES                              19871004                                                                                                                                                                                                                                                                                                                                                                                                                                       AVENIDA GENERAL CARNEIRO                          501       CASA                                              CENTRO                   JABOTICABAL            SP14870040                                                                                          EMPRESARIO                    AVENIDA GENERAL CARNEIRO                                 501CASA                                              CENTRO                   JABOTICABAL            SP14870040                            NPE                                          2023101620520506                                                                                                                                                                                                                                                                       MS                            000000000000000000        00000000R999615069           997671419           988645595           FRANFELIZ@HOTMAIL.COM                                       
1012024122015       050200005568                  169421706404   ANTENOR HERMOGENES STEPPLE DE AQUINO         19680228                                                                                                                                                                                                                                                                                                                                                                                                                                       AV BARAO DE CONTENDAS                             1311      AP 401 BL2                                        JATOBA                   PETROLINA              PE56332385                                                                                          OUTRAS                        AV BARAO DE CONTENDAS                                   1311AP 401 BL2                                        JATOBA                   PETROLINA              PE56332385                            NPE                                          2023012820520324                                                                                                                                                                                                                                                                       MS4663917                     000000000000000000        00000000R994923390           988278684           48582487            FINEASKIM@HOTMAIL.COM                                       
10120241220Q5       025950044459                  987664434                   OUTROS                        
10120241220Q5       026980004499                  19996909571                 CELULAR                       
10120241220Q5       038720003677                  94981280083                 CELULAR                       
10120241220Q5       038720003677                  981268239                   OUTROS                        
10120241220Q5       038720003988                  971446058                   OUTROS                        
10120241220Q5       038720004100                  11995262367                 OUTROS                        
10120241220Q5       050350001426                  997698002                   OUTROS                        
10120241220Q5       050460002327                  86999189737         0       CELULAR                       
10120241220Q5       050460002327                  999794577                   OUTROS                        
10120241220Q5       211570018382                  996123592                   OUTROS                        
10120241220Q5       022800016465                  6232812588                  OUTROS                        
10120241220Q5       025950044459                  973966760                   OUTROS                        
10120241220Q5       038720004100                  1141785146                  RECADO                        
10120241220Q5       038720004238                  988771995                   OUTROS                        
10120241220Q5       050350001426                  984194305                   OUTROS                        
10120241220Q5       051920005185                  1140045215                  RECADO                        
10120241220Q5       051920005185                  991905909                   OUTROS                        
10120241220Q5       053460000982                  1140045215                  RECADO                        
10120241220Q5       211040041308                  988645595                   OUTROS                        
10120241220Q5       211570015205                  988265044                   OUTROS                        
10120241220Q5       211570018382                  71992668415         0       CELULAR                       
10120241220Q5       211570018382                  71996123592                 CELULAR                       
10120241220Q5       025950044459                  21973966760                 OUTROS                        
10120241220Q5       025950044459                  967103561                   CELULAR                       
10120241220Q5       025950044459                  983728656                   OUTROS                        
10120241220Q5       025950068992                  54999307971                 CELULAR                       
10120241220Q5       026980004499                  997734808                   OUTROS                        
10120241220Q5       027120012219                  12981499582         0       CELULAR                       
10120241220Q5       027120012219                  988380919                   OUTROS                        
10120241220Q5       038720003677                  1140045215                  RECADO                        
10120241220Q5       038720003677                  981280083                   OUTROS                        
10120241220Q5       038720004100                  11991047398                 CELULAR                       
10120241220Q5       038720004238                  988014588                   OUTROS                        
10120241220Q5       050460002327                  86981889737                 CELULAR                       
10120241220Q5       211040041308                  999615069                   CELULAR                       
10120241220Q5       211570015205                  74988265044                 CELULAR                       
10120241220Q5       211570018382                  1140045215                  COMERCIAL                     
10120241220Q5       022800016465                  62994709644         0       CELULAR                       
10120241220Q5       038720003677                  1136245334                  OUTROS                        
10120241220Q5       038720004100                  38238608                    OUTROS                        
10120241220Q5       038720004100                  994715818                   OUTROS                        
10120241220Q5       053460000982                  991819984                   OUTROS                        
10120241220Q5       053460000982                  999893720                   OUTROS                        
10120241220Q5       211040041308                  16997051769         0       CELULAR                       
10120241220Q5       211570015205                  71987260332                 CELULAR                       
10120241220Q5       211570015205                  987260332                   OUTROS                        
10120241220Q5       022800016465                  3121263700                  COMERCIAL                     
10120241220Q5       022800016465                  992695597                   CELULAR                       
10120241220Q5       026980004499                  11999570190                 CELULAR                       
10120241220Q5       026980004499                  996909571                   OUTROS                        
10120241220Q5       027120012219                  981499582                   OUTROS                        
10120241220Q5       038720004100                  1138238608                  OUTROS                        
10120241220Q5       038720004100                  994711884                   OUTROS                        
10120241220Q5       050200006211                  81981141919                 OUTROS                        
10120241220Q5       050200006211                  81988819331                 RECADO                        
10120241220Q5       050350001426                  998838879                   OUTROS                        
10120241220Q5       050460002327                  999507949                   OUTROS                        
10120241220Q5       211040030821                  991762981                   OUTROS                        
10120241220Q5       211040030821                  993793115                   OUTROS                        
10120241220Q5       211040030821                  997255083                   OUTROS                        
10120241220Q5       211040030821                  997294881                   OUTROS                        
10120241220Q5       211570015205                  7121329087                  COMERCIAL                     
10120241220Q5       211570015205                  988471953                   OUTROS                        
10120241220Q5       026980004499                  19997734808                 CELULAR                       
10120241220Q5       038720003677                  94981268239                 OUTROS                        
10120241220Q5       038720003988                  19971446058         0       CELULAR                       
10120241220Q5       038720003988                  998264533                   OUTROS                        
10120241220Q5       038720004100                  991047398                   OUTROS                        
10120241220Q5       038720004238                  48988125177                 CELULAR                       
10120241220Q5       050200005568                  984668640                   CELULAR                       
10120241220Q5       050200005568                  987298285                   OUTROS                        
10120241220Q5       050200005568                  988278684                   OUTROS                        
10120241220Q5       050200006211                  81982400511                 OUTROS                        
10120241220Q5       050200006211                  981141919                   OUTROS                        
10120241220Q5       050350001426                  34988381139                 CELULAR                       
10120241220Q5       211040030821                  992538081                   OUTROS                        
10120241220Q5       211040041308                  997051769                   OUTROS                        
10120241220Q5       022800016465                  61987054465                 OUTROS                        
10120241220Q5       022800016465                  62992695597                 CELULAR                       
10120241220Q5       022800016465                  63984523026                 OUTROS                        
10120241220Q5       022800016465                  991795205                   OUTROS                        
10120241220Q5       026980004499                  11999572271                 CELULAR                       
10120241220Q5       026980004499                  994105083                   OUTROS                        
10120241220Q5       027120012219                  997867424                   OUTROS                        
10120241220Q5       038720003988                  19998264533         0       CELULAR                       
10120241220Q5       038720004100                  991048226                   OUTROS                        
10120241220Q5       050200005568                  48582487                    OUTROS                        
10120241220Q5       050200005568                  81987298285         0       CELULAR                       
10120241220Q5       050200005568                  981722307                   OUTROS                        
10120241220Q5       050200005568                  994923390                   CELULAR                       
10120241220Q5       050460002327                  86998341886         0       CELULAR                       
10120241220Q5       050460002327                  984477440                   OUTROS                        
10120241220Q5       050460002327                  994325236                   OUTROS                        
10120241220Q5       050460002327                  998341886                   OUTROS                        
10120241220Q5       050460002327                  999189737                   OUTROS                        
10120241220Q5       050460002327                  999230090                   OUTROS                        
10120241220Q5       053460000982                  82991819984                 CELULAR                       
10120241220Q5       053460000982                  993553710                   OUTROS                        
10120241220Q5       211040030821                  39511712                    OUTROS                        
10120241220Q5       211040041308                  16997671419         0       CELULAR                       
10120241220Q5       211040041308                  997671419                   OUTROS                        
10120241220Q5       022800016465                  62991795205                 OUTROS                        
10120241220Q5       022800016465                  63984837057                 OUTROS                        
10120241220Q5       022800016465                  994709644                   OUTROS                        
10120241220Q5       025950044459                  21983728656                 OUTROS                        
10120241220Q5       025950068992                  1140045215                  RECADO                        
10120241220Q5       025950068992                  999307971                   OUTROS                        
10120241220Q5       026980004499                  945263616                   OUTROS                        
10120241220Q5       027120012219                  1236425792                  OUTROS                        
10120241220Q5       027120012219                  12997867424         0       CELULAR                       
10120241220Q5       038720003988                  19996208714                 RECADO                        
10120241220Q5       038720004238                  984449535                   OUTROS                        
10120241220Q5       050200005568                  983694566                   OUTROS                        
10120241220Q5       050200006211                  988819331                   OUTROS                        
10120241220Q5       050460002327                  981889737                   OUTROS                        
10120241220Q5       050460002327                  988944345                   OUTROS                        
10120241220Q5       051920005185                  91991905909                 RECADO                        
10120241220Q5       211040030821                  16992538081                 CELULAR                       
10120241220Q5       211570018382                  992668415                   OUTROS                        
1012024122025       035660004206                  FSEG    035660004206                  03566   NOVAC?O DE DIVI                                                                                   03566   NOVAC?O DE DIVIDA CO                         00000000010793790000000000000000000020200422057         3                                                                                                                                                                                                                                                                                                                                                                                                                                                                                                                                                                                                            000000000000018700                                                                                                 
1012024122025       038720004100                  FSEG    038720004100                  03872   NOVACAO COBRANC                                                                                   03872   NOVACAO COBRANCA CON                         00000000034744670000000000000000000020231221040         1                                                                                                                                                                                                                                                                                                                                                                                                                                                                                                                                                                                                            000000000000021800                                                                                                 
1012024122025       211040033063                  REFF    211040033063                  21104   CORRESP.  RIBEI                                                                                   21104   CORRESP.  RIBEIR?O P                         00000000024762400000000000000000000020220729036         3                                                                                                                                                                                                                                                                                                                                                                                                                                                                                                                                                                                                            000000000000022884                                                                                                 
1012024122025       025950068992                  FCDC    025950068992                  02595   CORRESPONDENTE                                                                                    02595   CORRESPONDENTE CREDI                         00000000022957230000000000000000000020221129060         1                                                                                                                                                                                                                                                                                                                                                                                                                                                                                                                                                                                                            000000000000022277                                                                                                 
1012024122025       211570018382                  PARF    211570018382                  21157   CORRESPONDENTE                                                                                    21157   CORRESPONDENTE BAHIA                         00000000038092590000000000000000000020220516060         1                                                                                                                                                                                                                                                                                                                                                                                                                                                                                                                                                                                                            000000000000022172                                                                                                 
1012024122025       050200005568                  REFF    050200005568                  05020   CORRESPONDENTE                                                                                    05020   CORRESPONDENTE PERNA                         00000000014450350000000000000000000020221028036         1                                                                                                                                                                                                                                                                                                                                                                                                                                                                                                                                                                                                            000000000000032944                                                                                                 
1012024122025       050200006211                  REFF    050200006211                  05020   CORRESPONDENTE                                                                                    05020   CORRESPONDENTE PERNA                         00000000003250880000000000000000000020221205036         1                                                                                                                                                                                                                                                                                                                                                                                                                                                                                                                                                                                                            000000000000020336                                                                                                 
1012024122025       027120012219                  PARF    027120012219                  02712   CORRESPONDENTE                                                                                    02712   CORRESPONDENTE VALE                          00000000018902570000000000000000000020201029060         1                                                                                                                                                                                                                                                                                                                                                                                                                                                                                                                                                                                                            000000000000026617                                                                                                 
1012024122025       051920005185                  ESPF    051920005185                  05192   V.S. AUTOMOVEIS                                                                                   02591   VANSEG CORRETORA E A                         00000000074424980000000000000000000020240115060         1                                                                                                                                                                                                                                                                                                                                                                                                                                                                                                                                                                                                            000000000000022912                                                                                                 
1012024122025       211570015205                  PARF    211570015205                  21157   CORRESPONDENTE                                                                                    21157   CORRESPONDENTE BAHIA                         00000000045393630000000000000000000020210816048         1                                                                                                                                                                                                                                                                                                                                                                                                                                                                                                                                                                                                            000000000000017720                                                                                                 
1012024122025       038720003677                  FSEG    038720003677                  03872   NOVACAO COBRANC                                                                                   03872   NOVACAO COBRANCA CON                         00000000018246850000000000000000000020230915024         1                                                                                                                                                                                                                                                                                                                                                                                                                                                                                                                                                                                                            000000000000009900                                                                                                 
1012024122025       038720003988                  FSEG    038720003988                  03872   NOVACAO COBRANC                                                                                   03872   NOVACAO COBRANCA CON                         00000000018671260000000000000000000020231226058         1                                                                                                                                                                                                                                                                                                                                                                                                                                                                                                                                                                                                            000000000000022100                                                                                                 
1012024122025       211040030821                  REFF    211040030821                  21104   CORRESP.  RIBEI                                                                                   21104   CORRESP.  RIBEIR?O P                         00000000012297920000000000000000000020220316036         1                                                                                                                                                                                                                                                                                                                                                                                                                                                                                                                                                                                                            000000000000019833                                                                                                 
1012024122025       001300013757                  FCDC    001300013757                  00130   REGIONAL - MATR                                                                                   00130   REGIONAL - MATRIZ                            00000000004017640000000000000000000020200312060         3                                                                                                                                                                                                                                                                                                                                                                                                                                                                                                                                                                                                            000000000000012833                                                                                                 
1012024122025       025950044459                  FCDC    025950044459                  02595   CORRESPONDENTE                                                                                    02595   CORRESPONDENTE CREDI                         00000000015931410000000000000000000020211028048         1                                                                                                                                                                                                                                                                                                                                                                                                                                                                                                                                                                                                            000000000000017134                                                                                                 
1012024122025       035900015223                  REFF    035900015223                  03590   REGIONAL SAO PA                                                                                   03590   REGIONAL SAO PAULO                           00000000044653020000000000000000000020231026036         3                                                                                                                                                                                                                                                                                                                                                                                                                                                                                                                                                                                                            000000000000027181                                                                                                 
1012024122025       038720004238                  FSEG    038720004238                  03872   NOVACAO COBRANC                                                                                   03872   NOVACAO COBRANCA CON                         00000000023814650000000000000000000020240202035         1                                                                                                                                                                                                                                                                                                                                                                                                                                                                                                                                                                                                            000000000000021200                                                                                                 
1012024122025       053460000982                  FCDC    053460000982                  05346   CORRESP. PERNAM                                                                                   05346   CORRESP. PERNAMBUCO                          00000000053330180000000000000000000020240430048         1                                                                                                                                                                                                                                                                                                                                                                                                                                                                                                                                                                                                            000000000000020963                                                                                                 
1012024122025       026980004499                  PARF    026980004499                  02698   CORRESPONDENTE                                                                                    02698   CORRESPONDENTE PIRAC                         00000000018203570000000000000000000020200811060         1                                                                                                                                                                                                                                                                                                                                                                                                                                                                                                                                                                                                            000000000000023596                                                                                                 
1012024122025       050350001426                  FCDC    050350001426                  05035   CORRESP. TRIANG                                                                                   05035   CORRESP. TRIANGULO M                         00000000049656980000000000000000000020230119048         1                                                                                                                                                                                                                                                                                                                                                                                                                                                                                                                                                                                                            000000000000020247                                                                                                 
1012024122025       211040041308                  REFF    211040041308                  21104   CORRESP.  RIBEI                                                                                   21104   CORRESP.  RIBEIR?O P                         00000000008411060000000000000000000020230815024         1                                                                                                                                                                                                                                                                                                                                                                                                                                                                                                                                                                                                            000000000000032303                                                                                                 
1012024122025       050460002327                  REFF    050460002327                  05046   CORRESPONDENTE                                                                                    05046   CORRESPONDENTE PIAUI                         00000000016290810000000000000000000020230116036         1                                                                                                                                                                                                                                                                                                                                                                                                                                                                                                                                                                                                            000000000000025501                                                                                                 
1012024122025       022800016465                  PARF    022800016465                  02280   CORRESPONDENTE                                                                                    02280   CORRESPONDENTE GOIAS                         00000000028133480000000000000000000020220516060         1                                                                                                                                                                                                                                                                                                                                                                                                                                                                                                                                                                                                            000000000000030542                                                                                                 
1012024122025       050470003157                  REFF    050470003157                  05047   CORRESPONDENTE                                                                                    05047   CORRESPONDENTE ALAGO                         00000000015683490000000000000000000020230621048         3                                                                                                                                                                                                                                                                                                                                                                                                                                                                                                                                                                                                            000000000000024244                                                                                                 
1012024122025       051920003609                  ESPF    051920003609                  05192   V.S. AUTOMOVEIS                                                                                   02591   VANSEG CORRETORA E A                         00000000030913160000000000000000000020230912048         3                                                                                                                                                                                                                                                                                                                                                                                                                                                                                                                                                                                                            000000000000024942                                                                                                 
1012024122035       000830037271                  REFF    000830037271                  2024011600000010        20240930000000000009436100000000000000000000000000000000000000000000000000000000000000000005486400   024   7                            C20240116                      
1012024122035       021130018470                  REFF    021130018470                  2023042800000012        20240401000000000021415600000000000000000000000000000000000000000000000000000000000000000005391900   048   7                            C20230428                      
1012024122035       022800016465                  PARF    022800016465                  2024101500000029                000000000013309100000000000000000000000000000000000000000000000000000000000000000000000000   060   1                             20241015                      
1012024122035       022800016465                  PARF    022800016465                  2024111500000030                000000000013309100000000000000000000000000000000000000000000000000000000000000000000000000   060   1                             20241115                      
1012024122035       022800016465                  PARF    022800016465                  2024121500000031                000000000013309100000000000000000000000000000000000000000000000000000000000000000000000000   060   1                             20241215                      
1012024122035       022800016465                  PARF    022800016465                  2025011500000032                000000000013309100000000000000000000000000000000000000000000000000000000000000000000000000   060   1                             20250115                      
1012024122035       022800016465                  PARF    022800016465                  2025021500000033                000000000013309100000000000000000000000000000000000000000000000000000000000000000000000000   060   1                             20250215                      
1012024122035       022800016465                  PARF    022800016465                  2025031500000034                000000000013309100000000000000000000000000000000000000000000000000000000000000000000000000   060   1                             20250315                      
1012024122035       022800016465                  PARF    022800016465                  2025041500000035                000000000013309100000000000000000000000000000000000000000000000000000000000000000000000000   060   1                             20250415                      
1012024122035       022800016465                  PARF    022800016465                  2025051500000036                000000000013309100000000000000000000000000000000000000000000000000000000000000000000000000   060   1                             20250515                      
1012024122035       022800016465                  PARF    022800016465                  2025061500000037                000000000013309100000000000000000000000000000000000000000000000000000000000000000000000000   060   1                             20250615                      
1012024122035       022800016465                  PARF    022800016465                  2025071500000038                000000000013309100000000000000000000000000000000000000000000000000000000000000000000000000   060   1                             20250715                      
1012024122035       022800016465                  PARF    022800016465                  2025081500000039                000000000013309100000000000000000000000000000000000000000000000000000000000000000000000000   060   1                             20250815                      
1012024122035       022800016465                  PARF    022800016465                  2025091500000040                000000000013309100000000000000000000000000000000000000000000000000000000000000000000000000   060   1                             20250915                      
1012024122035       022800016465                  PARF    022800016465                  2025101500000041                000000000013309100000000000000000000000000000000000000000000000000000000000000000000000000   060   1                             20251015                      
1012024122035       022800016465                  PARF    022800016465                  2025111500000042                000000000013309100000000000000000000000000000000000000000000000000000000000000000000000000   060   1                             20251115                      
1012024122035       022800016465                  PARF    022800016465                  2025121500000043                000000000013309100000000000000000000000000000000000000000000000000000000000000000000000000   060   1                             20251215                      
1012024122035       022800016465                  PARF    022800016465                  2026011500000044                000000000013309100000000000000000000000000000000000000000000000000000000000000000000000000   060   1                             20260115                      
1012024122035       022800016465                  PARF    022800016465                  2026021500000045                000000000013309100000000000000000000000000000000000000000000000000000000000000000000000000   060   1                             20260215                      
1012024122035       022800016465                  PARF    022800016465                  2026031500000046                000000000013309100000000000000000000000000000000000000000000000000000000000000000000000000   060   1                             20260315                      
1012024122035       022800016465                  PARF    022800016465                  2026041500000047                000000000013309100000000000000000000000000000000000000000000000000000000000000000000000000   060   1                             20260415                      
1012024122035       022800016465                  PARF    022800016465                  2026051500000048                000000000013309100000000000000000000000000000000000000000000000000000000000000000000000000   060   1                             20260515                      
1012024122035       022800016465                  PARF    022800016465                  2026061500000049                000000000013309100000000000000000000000000000000000000000000000000000000000000000000000000   060   1                             20260615                      
1012024122035       022800016465                  PARF    022800016465                  2026071500000050                000000000013309100000000000000000000000000000000000000000000000000000000000000000000000000   060   1                             20260715                      
1012024122035       022800016465                  PARF    022800016465                  2026081500000051                000000000013309100000000000000000000000000000000000000000000000000000000000000000000000000   060   1                             20260815                      
1012024122035       022800016465                  PARF    022800016465                  2026091500000052                000000000013309100000000000000000000000000000000000000000000000000000000000000000000000000   060   1                             20260915                      
1012024122035       022800016465                  PARF    022800016465                  2026101500000053                000000000013309100000000000000000000000000000000000000000000000000000000000000000000000000   060   1                             20261015                      
1012024122035       022800016465                  PARF    022800016465                  2026111500000054                000000000013309100000000000000000000000000000000000000000000000000000000000000000000000000   060   1                             20261115                      
1012024122035       022800016465                  PARF    022800016465                  2026121500000055                000000000013309100000000000000000000000000000000000000000000000000000000000000000000000000   060   1                             20261215                      
1012024122035       022800016465                  PARF    022800016465                  2027011500000056                000000000013309100000000000000000000000000000000000000000000000000000000000000000000000000   060   1                             20270115                      
1012024122035       022800016465                  PARF    022800016465                  2027021500000057                000000000013309100000000000000000000000000000000000000000000000000000000000000000000000000   060   1                             20270215                      
1012024122035       022800016465                  PARF    022800016465                  2027031500000058                000000000013309100000000000000000000000000000000000000000000000000000000000000000000000000   060   1                             20270315                      
1012024122035       022800016465                  PARF    022800016465                  2027041500000059                000000000013309100000000000000000000000000000000000000000000000000000000000000000000000000   060   1                             20270415                      
1012024122035       022800016465                  PARF    022800016465                  2027051500000060                000000000013309100000000000000000000000000000000000000000000000000000000000000000000000000   060   1                             20270515                      
1012024122035       022800023396                  REFF    022800023396                  2024110100000008                000000000038038900000000000000000000000000000000000000000000000000000000000000000000000000   012   1                             20241101                      
1012024122035       025530006383                  FCDC    025530006383                  2024100900000019                000000000006272400000000000000000000000000000000000000000000000000000000000000000000000000   060   1                             20241009                      
1012024122035       025530006383                  FCDC    025530006383                  2024110900000020                000000000006272400000000000000000000000000000000000000000000000000000000000000000000000000   060   1                             20241109                      
1012024122035       025850000471                  ESPF    025850000471                  2021012500000033        20231228000000000008651800000000000000000000000000000000000000000000000000000000000000000001854500   036   7                            C20210125                      
1012024122035       025950044459                  FCDC    025950044459                  2024101500000035                000000000009793000000000000000000000000000000000000000000000000000000000000000000000000000   048   1                             20241015                      
1012024122035       025950044459                  FCDC    025950044459                  2024111500000036                000000000009793000000000000000000000000000000000000000000000000000000000000000000000000000   048   1                             20241115                      
1012024122035       025950044459                  FCDC    025950044459                  2024121500000037                000000000009793000000000000000000000000000000000000000000000000000000000000000000000000000   048   1                             20241215                      
1012024122035       025950044459                  FCDC    025950044459                  2025011500000038                000000000009793000000000000000000000000000000000000000000000000000000000000000000000000000   048   1                             20250115                      
1012024122035       025950044459                  FCDC    025950044459                  2025021500000039                000000000009793000000000000000000000000000000000000000000000000000000000000000000000000000   048   1                             20250215                      
1012024122035       025950044459                  FCDC    025950044459                  2025031500000040                000000000009793000000000000000000000000000000000000000000000000000000000000000000000000000   048   1                             20250315                      
1012024122035       025950044459                  FCDC    025950044459                  2025041500000041                000000000009793000000000000000000000000000000000000000000000000000000000000000000000000000   048   1                             20250415                      
1012024122035       025950044459                  FCDC    025950044459                  2025051500000042                000000000009793000000000000000000000000000000000000000000000000000000000000000000000000000   048   1                             20250515                      
1012024122035       025950044459                  FCDC    025950044459                  2025061500000043                000000000009793000000000000000000000000000000000000000000000000000000000000000000000000000   048   1                             20250615                      
1012024122035       025950044459                  FCDC    025950044459                  2025071500000044                000000000009793000000000000000000000000000000000000000000000000000000000000000000000000000   048   1                             20250715                      
1012024122035       025950044459                  FCDC    025950044459                  2025081500000045                000000000009793000000000000000000000000000000000000000000000000000000000000000000000000000   048   1                             20250815                      
1012024122035       025950044459                  FCDC    025950044459                  2025091500000046                000000000009793000000000000000000000000000000000000000000000000000000000000000000000000000   048   1                             20250915                      
1012024122035       025950044459                  FCDC    025950044459                  2025101500000047                000000000009793000000000000000000000000000000000000000000000000000000000000000000000000000   048   1                             20251015                      
1012024122035       025950044459                  FCDC    025950044459                  2025111500000048                000000000009793000000000000000000000000000000000000000000000000000000000000000000000000000   048   1                             20251115                      
1012024122035       025950063863                  REFF    025950063863                  2024111800000024                000000000007127500000000000000000000000000000000000000000000000000000000000000000000000000   036   1                             20241118                      
1012024122035       025950064913                  REFF    025950064913                  2024080200000022        20230710000000000006077300000000000000000000000000000000000000000000000000000000000000000002138200   048   7                            C20240802                      
1012024122035       025950068992                  FCDC    025950068992                  2024101500000022                000000000013744300000000000000000000000000000000000000000000000000000000000000000000000000   060   1                             20241015                      
1012024122035       025950068992                  FCDC    025950068992                  2024111500000023                000000000013744300000000000000000000000000000000000000000000000000000000000000000000000000   060   1                             20241115                      
1012024122035       025950068992                  FCDC    025950068992                  2024121500000024                000000000013744300000000000000000000000000000000000000000000000000000000000000000000000000   060   1                             20241215                      
1012024122035       025950068992                  FCDC    025950068992                  2025011500000025                000000000013744300000000000000000000000000000000000000000000000000000000000000000000000000   060   1                             20250115                      
1012024122035       025950068992                  FCDC    025950068992                  2025021500000026                000000000013744300000000000000000000000000000000000000000000000000000000000000000000000000   060   1                             20250215                      
1012024122035       025950068992                  FCDC    025950068992                  2025031500000027                000000000013744300000000000000000000000000000000000000000000000000000000000000000000000000   060   1                             20250315                      
1012024122035       025950068992                  FCDC    025950068992                  2025041500000028                000000000013744300000000000000000000000000000000000000000000000000000000000000000000000000   060   1                             20250415                      
1012024122035       025950068992                  FCDC    025950068992                  2025051500000029                000000000013744300000000000000000000000000000000000000000000000000000000000000000000000000   060   1                             20250515                      
1012024122035       025950068992                  FCDC    025950068992                  2025061500000030                000000000013744300000000000000000000000000000000000000000000000000000000000000000000000000   060   1                             20250615                      
1012024122035       025950068992                  FCDC    025950068992                  2025071500000031                000000000013744300000000000000000000000000000000000000000000000000000000000000000000000000   060   1                             20250715                      
1012024122035       025950068992                  FCDC    025950068992                  2025081500000032                000000000013744300000000000000000000000000000000000000000000000000000000000000000000000000   060   1                             20250815                      
1012024122035       025950068992                  FCDC    025950068992                  2025091500000033                000000000013744300000000000000000000000000000000000000000000000000000000000000000000000000   060   1                             20250915                      
1012024122035       025950068992                  FCDC    025950068992                  2025101500000034                000000000013744300000000000000000000000000000000000000000000000000000000000000000000000000   060   1                             20251015                      
1012024122035       025950068992                  FCDC    025950068992                  2025111500000035                000000000013744300000000000000000000000000000000000000000000000000000000000000000000000000   060   1                             20251115                      
1012024122035       025950068992                  FCDC    025950068992                  2025121500000036                000000000013744300000000000000000000000000000000000000000000000000000000000000000000000000   060   1                             20251215                      
1012024122035       025950068992                  FCDC    025950068992                  2026011500000037                000000000013744300000000000000000000000000000000000000000000000000000000000000000000000000   060   1                             20260115                      
1012024122035       025950068992                  FCDC    025950068992                  2026021500000038                000000000013744300000000000000000000000000000000000000000000000000000000000000000000000000   060   1                             20260215                      
1012024122035       025950068992                  FCDC    025950068992                  2026031500000039                000000000013744300000000000000000000000000000000000000000000000000000000000000000000000000   060   1                             20260315                      
1012024122035       025950068992                  FCDC    025950068992                  2026041500000040                000000000013744300000000000000000000000000000000000000000000000000000000000000000000000000   060   1                             20260415                      
1012024122035       025950068992                  FCDC    025950068992                  2026051500000041                000000000013744300000000000000000000000000000000000000000000000000000000000000000000000000   060   1                             20260515                      
1012024122035       025950068992                  FCDC    025950068992                  2026061500000042                000000000013744300000000000000000000000000000000000000000000000000000000000000000000000000   060   1                             20260615                      
1012024122035       025950068992                  FCDC    025950068992                  2026071500000043                000000000013744300000000000000000000000000000000000000000000000000000000000000000000000000   060   1                             20260715                      
1012024122035       025950068992                  FCDC    025950068992                  2026081500000044                000000000013744300000000000000000000000000000000000000000000000000000000000000000000000000   060   1                             20260815                      
1012024122035       025950068992                  FCDC    025950068992                  2026091500000045                000000000013744300000000000000000000000000000000000000000000000000000000000000000000000000   060   1                             20260915                      
1012024122035       025950068992                  FCDC    025950068992                  2026101500000046                000000000013744300000000000000000000000000000000000000000000000000000000000000000000000000   060   1                             20261015                      
1012024122035       025950068992                  FCDC    025950068992                  2026111500000047                000000000013744300000000000000000000000000000000000000000000000000000000000000000000000000   060   1                             20261115                      
1012024122035       025950068992                  FCDC    025950068992                  2026121500000048                000000000013744300000000000000000000000000000000000000000000000000000000000000000000000000   060   1                             20261215                      
1012024122035       025950068992                  FCDC    025950068992                  2027011500000049                000000000013744300000000000000000000000000000000000000000000000000000000000000000000000000   060   1                             20270115                      
1012024122035       025950068992                  FCDC    025950068992                  2027021500000050                000000000013744300000000000000000000000000000000000000000000000000000000000000000000000000   060   1                             20270215                      
1012024122035       025950068992                  FCDC    025950068992                  2027031500000051                000000000013744300000000000000000000000000000000000000000000000000000000000000000000000000   060   1                             20270315                      
1012024122035       025950068992                  FCDC    025950068992                  2027041500000052                000000000013744300000000000000000000000000000000000000000000000000000000000000000000000000   060   1                             20270415                      
1012024122035       025950068992                  FCDC    025950068992                  2027051500000053                000000000013744300000000000000000000000000000000000000000000000000000000000000000000000000   060   1                             20270515                      
1012024122035       025950068992                  FCDC    025950068992                  2027061500000054                000000000013744300000000000000000000000000000000000000000000000000000000000000000000000000   060   1                             20270615                      
1012024122035       025950068992                  FCDC    025950068992                  2027071500000055                000000000013744300000000000000000000000000000000000000000000000000000000000000000000000000   060   1                             20270715                      
1012024122035       025950068992                  FCDC    025950068992                  2027081500000056                000000000013744300000000000000000000000000000000000000000000000000000000000000000000000000   060   1                             20270815                      
1012024122035       025950068992                  FCDC    025950068992                  2027091500000057                000000000013744300000000000000000000000000000000000000000000000000000000000000000000000000   060   1                             20270915                      
1012024122035       025950068992                  FCDC    025950068992                  2027101500000058                000000000013744300000000000000000000000000000000000000000000000000000000000000000000000000   060   1                             20271015                      
1012024122035       025950068992                  FCDC    025950068992                  2027111500000059                000000000013744300000000000000000000000000000000000000000000000000000000000000000000000000   060   1                             20271115                      
1012024122035       025950068992                  FCDC    025950068992                  2027121500000060                000000000013744300000000000000000000000000000000000000000000000000000000000000000000000000   060   1                             20271215                      
1012024122035       026980004499                  PARF    026980004499                  2024031900000043                000000000014515900000000000000000000000000000000000000000000000000000000000000000000000000   060   1                             20240319                      
1012024122035       026980004499                  PARF    026980004499                  2024041900000044                000000000014515900000000000000000000000000000000000000000000000000000000000000000000000000   060   1                             20240419                      
1012024122035       026980004499                  PARF    026980004499                  2024051900000045                000000000014515900000000000000000000000000000000000000000000000000000000000000000000000000   060   1                             20240519                      
1012024122035       026980004499                  PARF    026980004499                  2024061900000046                000000000014515900000000000000000000000000000000000000000000000000000000000000000000000000   060   1                             20240619                      
1012024122035       026980004499                  PARF    026980004499                  2024071900000047                000000000014515900000000000000000000000000000000000000000000000000000000000000000000000000   060   1                             20240719                      
1012024122035       026980004499                  PARF    026980004499                  2024081900000048                000000000014515900000000000000000000000000000000000000000000000000000000000000000000000000   060   1                             20240819                      
1012024122035       026980004499                  PARF    026980004499                  2024091900000049                000000000014515900000000000000000000000000000000000000000000000000000000000000000000000000   060   1                             20240919                      
1012024122035       026980004499                  PARF    026980004499                  2024101900000050                000000000014515900000000000000000000000000000000000000000000000000000000000000000000000000   060   1                             20241019                      
1012024122035       026980004499                  PARF    026980004499                  2024111900000051                000000000014515900000000000000000000000000000000000000000000000000000000000000000000000000   060   1                             20241119                      
1012024122035       026980004499                  PARF    026980004499                  2024121900000052                000000000014515900000000000000000000000000000000000000000000000000000000000000000000000000   060   1                             20241219                      
1012024122035       026980004499                  PARF    026980004499                  2025011900000053                000000000014515900000000000000000000000000000000000000000000000000000000000000000000000000   060   1                             20250119                      
1012024122035       026980004499                  PARF    026980004499                  2025021900000054                000000000014515900000000000000000000000000000000000000000000000000000000000000000000000000   060   1                             20250219                      
1012024122035       026980004499                  PARF    026980004499                  2025031900000055                000000000014515900000000000000000000000000000000000000000000000000000000000000000000000000   060   1                             20250319                      
1012024122035       026980004499                  PARF    026980004499                  2025041900000056                000000000014515900000000000000000000000000000000000000000000000000000000000000000000000000   060   1                             20250419                      
1012024122035       026980004499                  PARF    026980004499                  2025051900000057                000000000014515900000000000000000000000000000000000000000000000000000000000000000000000000   060   1                             20250519                      
1012024122035       026980004499                  PARF    026980004499                  2025061900000058                000000000014515900000000000000000000000000000000000000000000000000000000000000000000000000   060   1                             20250619                      
1012024122035       026980004499                  PARF    026980004499                  2025071900000059                000000000014515900000000000000000000000000000000000000000000000000000000000000000000000000   060   1                             20250719                      
1012024122035       026980004499                  PARF    026980004499                  2025081900000060                000000000014515900000000000000000000000000000000000000000000000000000000000000000000000000   060   1                             20250819                      
1012024122035       027120007425                  PARF    027120007425                  2023012800000032        20241129000000000008080500000000000000000000000000000000000000000000000000000000000000000000273100   048   7                            C20230128                      
1012024122035       027120012219                  PARF    027120012219                  2024092800000047                000000000015730700000000000000000000000000000000000000000000000000000000000000000000000000   060   1                             20240928                      
1012024122035       027120012219                  PARF    027120012219                  2024102800000048                000000000015730700000000000000000000000000000000000000000000000000000000000000000000000000   060   1                             20241028                      
1012024122035       027120012219                  PARF    027120012219                  2024112800000049                000000000015730700000000000000000000000000000000000000000000000000000000000000000000000000   060   1                             20241128                      
1012024122035       027120012219                  PARF    027120012219                  2024122800000050                000000000015730700000000000000000000000000000000000000000000000000000000000000000000000000   060   1                             20241228                      
