001202412202024122000000114
1012024122015       054890000470                  102703379382   ARYELSON LIMA DE SOUZA                       19880730                                                                                                                                                                                                                                                                                                                                                                                                                                       E                                                 497       LT 20                                             AROEIRAS                 TERESINA               PI64011664                                                                                          EMPRESARIO                    E                                                        497LT 20                                             AROEIRAS                 TERESINA               PI64011664                            NPE                                          2024111320241231                                                                                                                                                                                                                                                                       MS                            000000000000000000        00000000R                    86995686378         86988951377         ARYELSON.LIMA@GMAIL.COM                                     
1012024122015       038870001972                  115995375830   KELLY ALESSANDRA DE OLIVEIRA                 19720228                                                                                                                                                                                                                                                                                                                                                                                                                                       R JOAO FERRACINI                                  546                                                         JARDIM CASTELO BRANCO    RIBEIRAO PRETO         SP14090560                                                                                          OUTRAS                        R JOAO FERRACINI                                         546                                                  JARDIM CASTELO BRANCO    RIBEIRAO PRETO         SP14090560                            NPE                                          2024101520250112                                                                                                                                                                                                                                                                       MS                            000000000000000000        00000000R                                                                                                                        
1012024122015       053460001344                  172026936404   MARIA RITA VALADARES FRANCA                  19681105                                                                                                                                                                                                                                                                                                                                                                                                                                       R QUARENTA E OITO                                 347                                                         ESPINHEIRO               RECIFE                 PE52020060                                                                                          EMPRESARIO                                                                                                                                                                                                                        NPE                                          2024102120241219                                                                                                                                                                                                                                                                       FS                            000000000000000000        00000000R                    996620323           996620323           CASSIANABARBOSA@HOTMAIL.COM                                 
1012024122015       035900012726                  138251220858   BRUNA SOLER DOS SANTOS FERNANDES             19900209                                                                                                                                                                                                                                                                                                                                                                                                                                       R FRANCISCO BONICIO                               10        AP 1132 BL                                        SANTA TEREZINHA          SAO BERNARDO DO CAMPO  SP09781260                                                                                          OUTRAS                        R FRANCISCO BONICIO                                       10AP 1132 BL                                        SANTA TEREZINHA          SAO BERNARDO DO CAMPO  SP09781260                            NPE                                          2023081520250112                                                                                                                                                                                                                                                                       FS46136048                    000000000000000000        00000000R985728355           965290065           11965290065                                                                     
1012024122015       030870000229                  109950688876   DIONE CRISTINA DA COSTA SCAURI               19600309                                                                                                                                                                                                                                                                                                                                                                                                                                       RUA NENCE                                         83                                                          VILA CARLOS DE CAMPOS    SAO PAULO              SP03640050                                                                                          OUTRAS                        R NONCE                                                   83                                                  VILA CARLOS DE CAMPOS    SAO PAULO              SP036400501133687456                  NPE                                          2022110520250112                                                                                                                                                                                                                                                                       FS9416234                     000000000000000000        00000000R11988792102         993653449           940716606           DIONESCAURI46@GMAIL.COM                                     
1012024122015       027120014648                  145079936878   IGOR GASPAR PIRES                            19980606                                                                                                                                                                                                                                                                                                                                                                                                                                       EST RIO PARATEI                                   431                                                         CJ RES V D ABRIL         JACAREI                SP12331050                                                                                          OUTRAS                        EST RIO PARATEI                                          431                                                  CJ RES V D ABRIL         JACAREI                SP123310501140045215                  NPE                                          2022110520250112                                                                                                                                                                                                                                                                       MS0719916063                  000000000000000000        00000000R12997629569         997629569           991058475           BRUNASANTOSH2B@GMAIL.COM                                    
1012024122015       025490011376                  101467003417   LUIZ RAPHAEL D EMERY DUARTE                  19880202                                                                                                                                                                                                                                                                                                                                                                                                                                       RUA SANTOS DUMONT                                 265       CASA                                              SAO PEDRO                PALMARES               PE55540000                                                                                          OUTRAS                        RUA SANTOS DUMONT                                        265CASA                                              SAO PEDRO                PALMARES               PE555400001140045215                  NPE                                          2022121620250119                                                                                                                                                                                                                                                                       MS0599314872                  000000000000000000        00000000R81987114551         999251573           971190365           LUIZRAPHAEL93@OUTLOOK.COM                                   
1012024122015       033010005430                  111048443701   WALLACE MARTINS DA SILVA                     19851121                                                                                                                                                                                                                                                                                                                                                                                                                                       TV DOS COQUEIROS                                  473                                                         GONCALVES                BARRETOS               SP14781337                    NAO INFORMADO                                                         GERENTE - TODAS               TV DOS COQUEIROS                                         473                                                  GONCALVES                BARRETOS               SP14781337                            NPE                                          2024060420250123                                                                                                                                                                                                                                                                       MS                            000000000000000000        00000000R988138028           996232131           981397060           WALLACEMARTINSS@GMAIL.COM                                   
1012024122015       032690023518                  100337282676   VALERIA DA ROCHA SILVEIRA                    19731210                                                                                                                                                                                                                                                                                                                                                                                                                                       R PORTUGAL                                        31        BL7 AP402                                         GLORIA                   CONTAGEM               MG323400103130433002          GCT GERENCIAMENTO DE CONTR TRA                                        EMPRESARIO                    AV JOSE FARIA DA ROCHA                                  1492LJ110                                             ELDORADO                 CONTAGEM               MG32315040                            NPE                                          2022110520250112                                                                                                                                                                                                                                                                       FS7653760                     000000000000000000        00000000R31999626924         999626924           31987795119         VALERIAROCHA7025@GMAIL.COM                                  
1012024122015       050740000118                  132861161817   ANDRE GAMA DIAS FERREIRA                     19850324                                                                                                                                                                                                                                                                                                                                                                                                                                       R NOSSA SENHORA DAS MERCES                        633                                                         VILA DAS MERCES          SAO PAULO              SP04165000                                                                                          OUTRAS                        R NOSSA SENHORA DAS MERCES                               633                                                  VILA DAS MERCES          SAO PAULO              SP04165000                            NPE                                          2023061520250112                                                                                                                                                                                                                                                                       MS42497079                    000000000000000000        00000000R11963476499         963476499           963476499           AMADEUSPAREDAO963@GMAIL.COM                                 
1012024122015       053160005972                  183143823887   JOAO JOSE LISBOA                             19520626                                                                                                                                                                                                                                                                                                                                                                                                                                       R IRACEMA                                         209                                                         JARDIM TRES JOSE         SAO JOSE DOS CAMPOS    SP12225010                                                                                          OUTRAS                        R IRACEMA                                                209                                                  JARDIM TRES JOSE         SAO JOSE DOS CAMPOS    SP12225010                            NPE                                          2024042020241218                                                                                                                                                                                                                                                                       MS                            000000000000000000        00000000R12982164655         982164655           1230103075          EDUARDOLISBOOOA2019@GMAIL.COM                               
1012024122015       027320011964                  109577167454   PRISCILA GABRIELA OLIVEIRA DA SILVA          19930516                                                                                                                                                                                                                                                                                                                                                                                                                                       R DOS TAMARINDOS                                  1204                                                        LAGOA AZUL               NATAL                  RN59138070                    TELEPERFORMANCE                                                       GERENTE - TODAS               R BOM JESUS                                               77                                                  JARDIM LOLA              SAO GONCALO DO AMARANTERN59296841                            NPE                                          2023051520250112                                                                                                                                                                                                                                                                       FS0637454519                  000000000000000000        00000000R                    991688698           991688698                                                                       
1012024122015       038710001677                  101103603892   ANA RITA PEREIRA DE ALMEIDA                  19600701                                                                                                                                                                                                                                                                                                                                                                                                                                       R ELZA DELPHINO RIBEIRO                           309                                                         VILA MAFRA               SAO PAULO              SP03414110                                                                                          OUTRAS                        R ELZA DELPHINO RIBEIRO                                  309                                                  VILA MAFRA               SAO PAULO              SP03414110                            NPE                                          2023111720250112                                                                                                                                                                                                                                                                       FS134579021                   000000000000000000        00000000R11989841746         989841746           964468184           ANARITAPEREIRADEALMEIDA01@GMAIL.COM                         
1012024122015       038710001032                  151230062734   MARIA LUCIA DE AQUINO BARROZO                19570103                                                                                                                                                                                                                                                                                                                                                                                                                                       R TREZE                                           Q44       CASA 12                                           MARAMBAIA MANILHA        ITABORAI               RJ24859512                                                                                          OUTRAS                        R TREZE                                                  Q44CASA 12                                           MARAMBAIA MANILHA        ITABORAI               RJ24859512                            NPE                                          2024081220250110                                                                                                                                                                                                                                                                       FS062820030                   000000000000000000        00000000R21969698478         999332538           964836766           LUCIENY21@GMAIL.COM                                         
1012024122015       023620021243                  104485148939   WAGNER DE OLIVEIRA LEITAO                    19840110                                                                                                                                                                                                                                                                                                                                                                                                                                       R HENRIQUE BERNARDES                              301       CASA                                              CEDRO                    CAMBORIU               SC883401581131350631                                                                                OUTRAS                        R VICTOR JUVENCIO MAFRA                                  104CASA                                              CENTRO                   CAMBORIU               SC883401584733489034                  NPE                                          2022110520250119                                                                                                                                                                                                                                                                       MS0446146900                  000000000000000000        00000000R47999485041         999485041           33465034            WAGNERLEITAO38@GMAIL.COM                                    
1012024122015       211900041837                  113695187735   GUSTAVO MAURI BARBOSA                        19970321                                                                                                                                                                                                                                                                                                                                                                                                                                       ALAMEDA AZALEIA                                   54        CASA 2I 13                                        ALPHAVILLE JACUHY        SERRA                  ES29161276                                                                                          DIRETOR COMERCI               AV BARAO DE MONJARDIM                                      1                                                  ALPHAVILLE JACUHY        SERRA                  ES29161276                            NPE                                          2023031620250112                                                                                                                                                                                                                                                                       MO3658530                     000000000000000000        00000000R27999995529         999995529           996517761           VALERIAMAURI@UOL.CM.BR                                      
1012024122015       025950077218                  102429532638   JULIANO ENDRIGO DO NASCIMENTO                19760403                                                                                                                                                                                                                                                                                                                                                                                                                                       R CAPITAO ALBANO CORREA                           70        CASA                                              MANACAS                  BELO HORIZONTE         MG30840660                    NAO INFORMADO                                                         GERENTE - TODAS               R CAPITAO ALBANO CORREA                                   70                                                  MANACAS                  BELO HORIZONTE         MG30840660                            NPE                                          2024071520250112                                                                                                                                                                                                                                                                       MS                            000000000000000000        00000000R31997758900         997758900           997758900           JULIANO.ENDRIGO@HOTMAIL.COM                                 
1012024122015       053160006215                  108855082892   ROSIMARY MIGUEL DA FONSECA SANTOS            19660913                                                                                                                                                                                                                                                                                                                                                                                                                                       R GERALDA DOS SANTOS NUNES                        144       CASA                                              JD SUL                   SAO JOSE DOS CAMPOS    SP12236494                                                                                          SOCIA                         AV JOSE DE RESENDE                                       231SALA 1                                            JD SUL                   SAO JOSE DOS CAMPOS    SP12236489                            NPE                                          2024071520250112                                                                                                                                                                                                                                                                       FC143636947                   000000000000000000        00000000R12997489563         997838379           997489563           CONTATO@SEGUROSFONSECAESANTOS.COM.BR                        
1012024122015       035900014949                  133460246871   RENATO GIMENES DE ARAUJO SOARES              19840730                                                                                                                                                                                                                                                                                                                                                                                                                                       AV FLAMENGO                                       250                                                         JD ARCO IRES             DOIS CORREGOS          SP17302176                                                                                          OUTRAS                        AV FLAMENGO                                              250                                                  JD ARCO IRES             DOIS CORREGOS          SP17302176                            NPE                                          2024051520250112                                                                                                                                                                                                                                                                       MS                            000000000000000000        00000000R                    982005409           982005409           RENATO.SOARES@GMAI.COM                                      
1012024122015       038840002052                  103214820850   JOSE FERNANDES RODRIGUES                     19560512                                                                                                                                                                                                                                                                                                                                                                                                                                       R CYRENIA ARRUDA CAMARGO                          181                                                         PARQUE SAO QUIRINO       CAMPINAS               SP13088106                                                                                          GERENTE - TODAS               R CYRENIA ARRUDA CAMARGO                                 181                                                  PARQUE SAO QUIRINO       CAMPINAS               SP13088106                            NPE                                          2023051520250112                                                                                                                                                                                                                                                                       MS15307101                    000000000000000000        00000000R                                                                                                                        
1012024122015       021490000629                  141132664845   VANESSA DE CASSIA SOARES LATIN               19900913                                                                                                                                                                                                                                                                                                                                                                                                                                       R ADRIANO MACIEL DE QUEIROZ                       2006                                                        JD TATIANA               VOTORANTIM             SP18119170                                                                                                                                                                                                                                                                                                                            NPE                                          2023071420250112                                                                                                                                                                                                                                                                       FO472.904.53                  000000000000000000        00000000R15998032366         998032366           998032366           VANESSACSLATIN@GMAIL.COM                                    
1012024122015       027320016067                  135776897491   ANA CECILIA EUFRASIO PEIXOTO                 19610329                                                                                                                                                                                                                                                                                                                                                                                                                                       R PAJEUS                                          1247                                                        ALECRIM                  NATAL                  RN59031800                                                                                                                                                                                                                                                                                                                            NPE                                          2024101520250112                                                                                                                                                                                                                                                                       FO346188                      000000000000000000        00000000R                                                                                                                        
1012024122015       211930016133                  102322346551   JORDAN DA SILVA MONTEIRO                     19890429                                                                                                                                                                                                                                                                                                                                                                                                                                       SAO JOSE                                          372       CASA                                              CENTRO                   LAURO DE FREITAS       BA42703740                                                                                                                        AVENIDA LUIZ TARQUINIO PONTES                           2580                                                  BURAQUINHO               LAURO DE FREITAS       BA42709190                            NPE                                          2024081520250112                                                                                                                                                                                                                                                                       MO978.799.40                  000000000000000000        00000000R                    988066591           982904403                                                                       
1012024122015       032340002559                  109305701469   JESSICA NATALIA DE LIMA E SILVA              19910215                                                                                                                                                                                                                                                                                                                                                                                                                                       R TENENTE HUGO DE OLIVEIRA SILVA                  250B                                                        MANGABEIRA               JOAO PESSOA            PB58057362                                                                                          OUTRAS                        R TENENTE HUGO DE OLIVEIRA SILVA                        250B                                                  MANGABEIRA               JOAO PESSOA            PB58057362                            NPE                                          2023051520250112                                                                                                                                                                                                                                                                       FS3274413                     000000000000000000        00000000R                    988888062           988888062                                                                       
1012024122015       031330000148                  141411064968   IZAEL GOMES BARANDAO                         19610411                                                                                                                                                                                                                                                                                                                                                                                                                                       R GONCALVES DIAS                                  153       AP:                                               CONDOMINIO MARACANA      SANTO ANDRE            SP09131170                                                                                          GERENTE - TODAS               R JOAQUIM PINTO DE SOUZA                                  71                                                  TATUQUARA                CURITIBA               PR814803531140045215                  NPE                                          2022120720250112                                                                                                                                                                                                                                                                       MS18352531                    000000000000000000        00000000R987455802           959006051           1149722788          LAISAGBARANDAO@GMAIL.COM                                    
1012024122015       032020015508                  102730761322   CINTIA DOS SANTOS MENEZES                    19880825                                                                                                                                                                                                                                                                                                                                                                                                                                       R BELO HORIZONTE                                  2953                                                        JOQUEI CLUBE             FORTALEZA              CE60440192                                                                                          OUTRAS                        R BELO HORIZONTE                                        2953                                                  JOQUEI CLUBE             FORTALEZA              CE60440192                            NPE                                          2023041420250112                                                                                                                                                                                                                                                                       FS2005010153                  000000000000000000        00000000R85994230191         994230191           994230191           CINTIA.MS241@GMAIL.COM                                      
1012024122015       050060001572                  139066367806   DIEGO PIEDADE CRUZ                           19881228                                                                                                                                                                                                                                                                                                                                                                                                                                       ALBERTO AUGUSTO ALVES                             270       AP 55A                                            VILA ANDRADE             SAO PAULO              SP05724030                    NENHUMA                                                               GERENTE - TODAS               ALBERTO AUGUSTO ALVES                                    270AP 55A                                            VILA ANDRADE             SAO PAULO              SP05724030                            NPE                                          2023121520250112                                                                                                                                                                                                                                                                       MS341923266                   000000000000000000        00000000R11971197520         975393341           971197520           DICRUZ28@GMAIL.COM                                          
1012024122015       005390010844                  185465895691   RONY ALVES VITOR                             19720605                                                                                                                                                                                                                                                                                                                                                                                                                                       R SUINA                                           138                                                         RS VALE VERE             ALFENAS                MG37133748                    OCB CONTR EDIFICACOES LTDA                                                                          RUA FRANCISCO MARIANO                                    154                                                  CENTRO                   ALFENAS                MG371300003532929904                  NPE                                          2022120720250112                                                                                                                                                                                                                                                                       MO12719851                    000000000000000000        00000000R35988990407         999133798           988948422           RONYOLIVEIRAVITOR@GMAIL.COM                                 
1012024122015       211930015235                  101460687507   PEDRO AUGUSTO SANTOS LEGAL                   19910918                                                                                                                                                                                                                                                                                                                                                                                                                                       AV BRASIL                                         605                                                         CENTRO                   DIAS DAÅVILA           BA42850000                                                                                                                        AVENIDA GETULIO VARGAS                                   605CASA                                              CENTRO                   DIAS D AVILA           BA42850000                            NPE                                          2023111720250112                                                                                                                                                                                                                                                                       MS999.187.14                  000000000000000000        00000000R983009004           999775624           999750110           PEDROLEEGAL@ICLOUD.COM                                      
1012024122015       025950065854                  130558805876   ELOA INGRID HASS CARRASCO                    19781217                                                                                                                                                                                                                                                                                                                                                                                                                                       R PAULO HARRIS                                    85                                                          VILA FLORESTA            SANTO ANDRE            SP09050110                                                                                          EMPRESARIO                    R 9 DE SETEMBRO                                           16APTO 303                                          VILA GUIOMAR             SANTO ANDRE            SP09090509                            NPE                                          2023011620250119                                                                                                                                                                                                                                                                       FS295220612                   000000000000000000        00000000R11947393688         986720565           44373049            ELOACARRASCO@GMAIL.COM                                      
1012024122015       050220002718                  102344231960   VALDEMIR CHAGAS SANTOS JUNIOR                19780711                                                                                                                                                                                                                                                                                                                                                                                                                                       R PERCILIANA RODRIGUES GAYA                       1016                                                        CENTRO                   NAVEGANTES             SC88375000                    CENTRO EDUCACIONAL PROFESSORA                                                                       RUA JOAO SACAVEM                                         150                                                  CENTRO                   NAVEGANTES             SC88375000                            NPE                                          2023011620250112                                                                                                                                                                                                                                                                       MO3054683                     000000000000000000        00000000R47991902240         999039705           996263189           VALDEMIRCJUNIOR@HOTMAIL.COM                                 
1012024122015       050050000507                  106456860857   MARIA MATILDE RODRIGUES                      19551116                                                                                                                                                                                                                                                                                                                                                                                                                                       AV FLORENCIO DE PAIVA                             278       CASA 1                                            JARDIM MODELO            MOGI DAS CRUZES        SP08744050                                                                                          APOSENTADO                                                                                                                                                                                                                        NPE                                          2023101620250112                                                                                                                                                                                                                                                                       FS0402216758                  000000000000000000        00000000R963730855           1147273697          1147273697          MARIAMATILDEROD@GMAIL.COM                                   
1012024122015       032020007590                  101951948378   SEBASTIAO CAMELO DO NASCIMENTO               19450918                                                                                                                                                                                                                                                                                                                                                                                                                                       RUA P A NUNES GURGEL                              150                                                         BOM SUCESSO              FORTALEZA              CE60545500                                                                                          OUTRAS                        R PADRE ANTONIO NUNES GURGEL                             146                                                  BONSUCESSO               FORTALEZA              CE60545505                            NPE                                          2022110520250119                                                                                                                                                                                                                                                                       MS9702509189                  000000000000000000        00000000R981124673           988407159           981687159           SEBASTIAOCAMELO29@GMAIL.COM                                 
1012024122015       038720003972                  109766500703   FABRICIO SOUZA SILVA                         19831105                                                                                                                                                                                                                                                                                                                                                                                                                                       R LUIZ POLTRONIERI                                574       LADO IMPAR                                        TRES BARRAS              LINHARES               ES29907210                                                                                          EMPRESARIO                    R LUIZ POLTRONIERI                                        SN                                                  T BARRAS                 LINHARES               ES29907210                            NPE                                          2024021420250112                                                                                                                                                                                                                                                                       MS0306228637                  000000000000000000        00000000R                    997184570           997184570                                                                       
1012024122015       036110003127                  157773653534   ODILON DAMIAO DE SOUZA                       19700130                                                                                                                                                                                                                                                                                                                                                                                                                                       EST AGUA SANTA                                    1234                                                        ELDORADO                 SAO PAULO              SP04476490                                                                                          GERENTE - TODAS               EST AGUA SANTA                                          1234                                                  ELDORADO                 SAO PAULO              SP04476490                            NPE                                          2024031520250111                                                                                                                                                                                                                                                                       MS24887758-6                  000000000000000000        00000000R                                                                                                                        
1012024122015       025490006841                  110183099427   EDVAN BALBINO DA SILVA                       19940209                                                                                                                                                                                                                                                                                                                                                                                                                                       R JOAO RIO BRANCO DE LIMA                         136                                                         COHAB                    RECIFE                 PE51320540                                                                                          OUTRAS                        R JOAO RIO BRANCO DE LIMA                                136                                                  COHAB                    RECIFE                 PE51320540                            NPE                                          2023011620250112                                                                                                                                                                                                                                                                       MS8023996                     000000000000000000        00000000R81987625866         987625866           981812799           FHOLX1@GMAIL.COM                                            
1012024122015       050320001767                  156737386687   SOLANGE IZABEL CAMPOS                        19650516                                                                                                                                                                                                                                                                                                                                                                                                                                       AV MANOEL ALVES TAVEIRA                           253                                                         JARDIM AEROPORTO         ALFENAS                MG37130770                                                                                          GERENTE - TODAS               AV MANOEL ALVES TAVEIRA                                  253                                                  JARDIM AEROPORTO         ALFENAS                MG37130770                            NPE                                          2023051520250112                                                                                                                                                                                                                                                                       FS19358720                    000000000000000000        00000000R                    999746090           999746090           SOLANGELIBANIO@UOL.COM.BR                                   
1012024122015       027360004855                  104452546374   RAFAEL FRANCISCO DE SOUSA                    19890221                                                                                                                                                                                                                                                                                                                                                                                                                                       RUA 03 DO CANAL                                   13                                                          GLEBA A                  CAMACARI               BA42803790                    GUINDASTES BRASIL                                                                                   LOT RECANTO DOS EUCALIPSTOS                              324                                                  PALMARES                 SIMOES FILHO           BA43700000                            NPE                                          2023081520250112                                                                                                                                                                                                                                                                       MS2.045.547.                  000000000000000000        00000000R71991605099         991605099           991605099           SOUSARF2010@GMAIL.COM                                       
1012024122015       050060001598                  103294930941   FABIO TAUBENHEIN FREY TAGLIAFERRO            19810420                                                                                                                                                                                                                                                                                                                                                                                                                                       RUA JOSE DE MELLO BRAGA JUNIOR                    91                                                          JARDIM DAS AMERICAS      CURITIBA               PR815402801140045215          NAO INFORMADO                                                         EMPRESARIO                    RUA JOSE DE MELLO BRAGA JUNIOR                            91                                                  JARDIM DAS AMERICAS      CURITIBA               PR81540280                            NPE                                          2024051520250112                                                                                                                                                                                                                                                                       MS                            000000000000000000        00000000R                    999446427           996315833           SANTINCWB@HOTMAIL.COM                                       
1012024122015       022800025247                  101956131124   DIENE CLESSIA CRISTINA LINHARES ALVES        19880403                                                                                                                                                                                                                                                                                                                                                                                                                                       MALAGA                                            SN        QD 174 LO                                         JARDIM EUROPA            GOIANIA                GO74330560                    NENHUMA                                                               GERENTE - TODAS               MALAGA                                                     0QD 174 LO                                         JARDIM EUROPA            GOIANIA                GO74330560                            NPE                                          2024121620250112                                                                                                                                                                                                                                                                       FS                            000000000000000000        00000000R                                                                                                                        
1012024122015       038710001680                  107098580864   ALMIR MOREIRA PASSOS                         19620826                                                                                                                                                                                                                                                                                                                                                                                                                                       R LUIS AUGUSTO PASCHOAL                           4 A       C 2                                               JARDIM LOURDES ZONA SUL  SAO PAULO              SP04328050                                                                                          OUTRAS                        R LUIS AUGUSTO PASCHOAL                                  4 AC 2                                               JARDIM LOURDES ZONA SUL  SAO PAULO              SP04328050                            NPE                                          2024011620250112                                                                                                                                                                                                                                                                       MS132719204                   000000000000000000        00000000R11952712139         952712139           952712139           ALMIRDAWS@GMAIL.COM                                         
1012024122015       021130015601                  195071148587   FERNANDO SOUZA TEIXEIRA                      19761113                                                                                                                                                                                                                                                                                                                                                                                                                                       LO TROPICAL                                       123                                                         JEQUIEZINHO              JEQUIE                 BA45214999                                                                                          OUTRAS                        AV C                                                     123                                                  TROPICAL                 JEQUIE                 BA452091021140045215                  NPE                                          2022121420250112                                                                                                                                                                                                                                                                       MS0865234736                  000000000000000000        00000000R73999299210         999991128           40045215            FERNANDOTEIXEIRA@GMAIL.COM                                  
1012024122015       028970000277                  127591694804   MELINA GRAF BEZERRA DE SA                    19801031                                                                                                                                                                                                                                                                                                                                                                                                                                       R MARIA ANTONIA LADALARDO                         28        AP51                                              JARDIM FONTE DO MORUMBI  SAO PAULO              SP05704130                                                                                          GERENTE - TODAS               R MORAES NOVAES                                           99AP 11                                             VL ANDRADE               SAO PAULO              SP05718310                            NPE                                          2022121620250119                                                                                                                                                                                                                                                                       FS29187725                    000000000000000000        00000000R11992447334         993525798           940873128           ANTONIOMARCOSMELLO47902@GMAIL.COM                           
1012024122015       038720004329                  100684216566   FABIO SILVA DO AMOR DIVINO                   19821015                                                                                                                                                                                                                                                                                                                                                                                                                                       R ANTONIO CARLOS MAGALHAES                        640       640                                               SANTA CRUZ               SALVADOR               BA41927235                    TERRA FIRME DA BAHIA                                                  GERENTE - TODAS               AV SETE DE SETEMBRO                                     2631EDIFICIO                                          VITORIA                  SALVADOR               BA40080003                            NPE                                          2024072220250123                                                                                                                                                                                                                                                                       MS0700753605                  000000000000000000        00000000R987061320           987396280           987396280                                                                       
1012024122015       036140000554                  106150827933   ANDERSON JUNIOR FROZA                        19880919                                                                                                                                                                                                                                                                                                                                                                                                                                       JULIO BAENA RODRIGUES                             371                                                         JARDIM CIDADE ALTA       APUCARANA              PR86803415                    SUPERMERCADO BINELLI                                                  GERENTE - TODAS               AV PINHO ARAUCARIA                                       746                                                  NUC HAB A A CAMARGO      APUCARANA              PR868033704334234298                  NPE                                          2022110520250112                                                                                                                                                                                                                                                                       MS98282483                    000000000000000000        00000000R43996475488         999566170           991512363           ANDERSONJUNIORFROZA@GMAIL.COM                               
1012024122015       005200026970                  184922036920   JULIANE BOMPEIXE MAGALHAES                   19621101                                                                                                                                                                                                                                                                                                                                                                                                                                       R LOURENCO VOLPI                                  185       SOBR 3                                            SANTA CANDIDA            CURITIBA               PR82640440                                                                                          APOSENTADO                                                                                                                                                                                                                        NPE                                          2023051520250112                                                                                                                                                                                                                                                                       FS34880905                    000000000000000000        00000000R41988375566         988375566           30890640            JUBOMPEIXE@GMAIL.COM                                        
1012024122015       027360003374                  131256059897   FERNANDA FERNANDES MACIEL                    19850802                                                                                                                                                                                                                                                                                                                                                                                                                                       R JOSE LEITE E OITICICA                           434       AP 1501                                           VL GERTRUDES             SAO PAULO              SP04705080                    PWC BRASIL                                                                                          AVENIDA FRANCISCO MATARAZZO                             1400                                                  AGUA BRANCA              SAO PAULO              SP050019031136742000                  NPE                                          2023051520250112                                                                                                                                                                                                                                                                       FS43.118.939                  000000000000000000        00000000R                    992338101           992338101                                                                       
1012024122015       031170000156                  137701056807   BRUNA DE SOUZA DOS SANTOS                    19890131                                                                                                                                                                                                                                                                                                                                                                                                                                       R PADRE DICTINIO DE LA PARTE ABIA                 105                                                         JARDIM FANGANIELLO       SAO PAULO              SP08450430                                                                                          OUTRAS                        R PADRE DICTINIO DE LA PARTE ABIA                        106                                                  JARDIM FANGANIELLO       SAO PAULO              SP08450430                            NPE                                          2023011620250112                                                                                                                                                                                                                                                                       FS36600432                    000000000000000000        00000000R11966085610         978852176           966085610           BSSANTOS31@GMAIL.COM                                        
1012024122015       035160003160                  167566502204   GLEISON ANDRADE DE ABREU                     19810602                                                                                                                                                                                                                                                                                                                                                                                                                                       R. F 16                                           36        QD 145                                            CIDADE JARDIM            PARAUAPEBAS            PA685150001140045215                                                                                SOCIO - PROPRIE               R SOL NASCENTE                                            SN                                                  LT SOL INDUSTRIAL        PARAUAPEBAS            PA685150009433562713                  NPE                                          2022111420250112                                                                                                                                                                                                                                                                       MO4092862                     000000000000000000        00000000R94991720193         992567044           33562713            CONTATOS@SHALONLOCACOES.COM.BR                              
1012024122015       000830032232                  129726481880   IARA GOMES DE ALBUQUERQUE DA SILVA           19800929                                                                                                                                                                                                                                                                                                                                                                                                                                       R BERNARDO GUIMARAES                              494                                                         JARDIM AMANDA I          HORTOLANDIA            SP13188070                                                                                          GERENTE - TODAS               R BERNARDO GUIMARAES                                     494                                                  JARDIM AMANDA I          HORTOLANDIA            SP13188070                            NPE                                          2023011620250112                                                                                                                                                                                                                                                                       FS265164977                   000000000000000000        00000000R19989003033         989003033           989003033           IGASILVA2011@HOTMAIL.COM                                    
1012024122015       050220002401                  154075980944   SEBASTIAO ARCELINO FERREIRA                  19640119                                                                                                                                                                                                                                                                                                                                                                                                                                       RUA NILTON ANTONIO QUINTINO                       89                                                          CENTRO                   BALNEARIO PICARRAS     SC88380000                    SEBASTIAO ARCELINO                                                                                  RUA EMANOEL PINTO                                         89                                                  CENTRO                   BALNEARIO PICARRAS     SC88380000                            NPE                                          2023041420250112                                                                                                                                                                                                                                                                       MO1501344                     000000000000000000        00000000R47999683333         999683333           33454333            TIAOESTOFADOS@HOTMAIL.COM                                   
1012024122015       004110009577                  128730438810   ERIVERTON SANTOS DA SILVA                    19801126                                                                                                                                                                                                                                                                                                                                                                                                                                       RUA BENEDITO DE PAULA                             09                                                          PQ DOS INGAS             JUNDIAI                SP13214477                                                                                          OUTRAS                        RUA BENEDITO DE PAULA                                     09                                                  PQ DOS INGAS             JUNDIAI                SP13214477                            NPE                                          2024021420250112                                                                                                                                                                                                                                                                       MS53453411-9                  000000000000000000        00000000R                                                                                                                        
1012024122015       027120022051                  120189647809   LUIS ALEXANDRE L DE LIMA                     19730224                                                                                                                                                                                                                                                                                                                                                                                                                                       R ANTARES                                         195       APTO A1                                           JARDIM SATELITE          SAO JOSE DOS CAMPOS    SP12230250                                                                                          OUTRAS                        R ANTARES                                                195APTO A1                                           JARDIM SATELITE          SAO JOSE DOS CAMPOS    SP122302501140045215                  NPE                                          2023011620250119                                                                                                                                                                                                                                                                       MS085608040                   000000000000000000        00000000R12991229268         997672305           40045215            LUIS.LIMA@GMAIL.COM                                         
1012024122015       027320006577                  102692578457   GLEDSON LEANDRO ROSENDO RAMOS                19781211                                                                                                                                                                                                                                                                                                                                                                                                                                       RUA MARIA LEDA MOUZINHO                           190                                                         CENTRO                   NOVA CRUZ              RN59215000                    PREFEITURA MUNICIPAL DE NOVA C                                        GERENTE - TODAS               RUA LUIZ JOSE MOREIRA                                      1                                                  CENTRO                   NOVA CRUZ              RN592150008432812454                  NPE                                          2023012320241222                                                                                                                                                                                                                                                                       MS1666357                     000000000000000000        00000000R84994130624                                                 ROSENDOANALUCIAROSENDO@GMAIL.COM                            
1012024122015       038720004517                  114061836951   NICOLAS CUJA                                 20000616                                                                                                                                                                                                                                                                                                                                                                                                                                       R DOMINGOS SCUCATO                                467                                                         JARDIM MONTE SANTO       ALMIRANTE TAMANDARE    PR83501020                                                                                          OUTRAS                        R DOMINGOS SCUCATO                                       467                                                  JARDIM MONTE SANTO       ALMIRANTE TAMANDARE    PR83501020                            NPE                                          2024101520250112                                                                                                                                                                                                                                                                       MS147979843                   000000000000000000        00000000R                    996815311           4133939772          NICOLASCUJA@GMAIL.COM                                       
1012024122015       032690025060                  188465470634   JULIANA MARQUES FIGUEIREDO                   19730722                                                                                                                                                                                                                                                                                                                                                                                                                                       R MARTIM DE CARVALHO                              519       701                                               SANTO AGOSTINHO          BELO HORIZONTE         MG30190090                                                                                          OUTRAS                        R MARTIM DE CARVALHO                                     516701                                               SANTO AGOSTINHO          BELO HORIZONTE         MG30190090                            NPE                                          2022121420250112                                                                                                                                                                                                                                                                       FSM6883254                    000000000000000000        00000000R31993145646         993145646           985237733           JULIANA.FIGUEIREDO@TERRA.COM.BR                             
1012024122015       035730003975                  106249305130   CLODOALDO DE MORAIS                          19991212                                                                                                                                                                                                                                                                                                                                                                                                                                       R DOS ARIRIS                                      228                                                         SETOR COMERCIAL          SINOP                  MT78550186                                                                                          OUTRAS                        R DOS ARIRIS                                             228                                                  SETOR COMERCIAL          SINOP                  MT78550186                            NPE                                          2023021520250112                                                                                                                                                                                                                                                                       MS24.191.949                  000000000000000000        00000000R66984231764         992085347           984231764           CLODOMORAIS1@GMAIL.COM                                      
1012024122015       031770006915                  130417540884   JEAN D AGOSTINHO SOUSA                       19820603                                                                                                                                                                                                                                                                                                                                                                                                                                       AV TRES                                           466                                                         JARDIM DOS PRADOS        PERUIBE                SP11750000                    PROF LIBERAL                                                          OUTRAS                        AV TRES                                                  466                                                  JARDIM DOS PRADOS        PERUIBE                SP11750000                            NPE                                          2022121420250112                                                                                                                                                                                                                                                                       MS34508121                    000000000000000000        00000000R13997626788         997920902           34582284            DUCHEFF2022@HOTMAIL.COM                                     
1012024122015       035160005814                  150872141349   ROZEMEIRE DIAS NOLETO ALENCAR                19681217                                                                                                                                                                                                                                                                                                                                                                                                                                       CJ RANCHO DOM LUIS                                5         QUADRA C                                          ANIL                     SAO LUIS               MA65045245                    R L                                                                   OUTRAS                        R VINTE E OITO DE SETEMBRO                                SN                                                  CENTRO                   SAO LUIS               MA65010000                            NPE                                          2022112920250112                                                                                                                                                                                                                                                                       FS137958281                   000000000000000000        00000000R98982080364         1140045215          1140045215          ROZE.NOLETO@HOTMAIL.COM                                     
1012024122015       030120103346                  188686264700   JORGE OTAVIO AMORIM BARRETTO                 19670501                                                                                                                                                                                                                                                                                                                                                                                                                                       DOUTOR MACARIO PICANCO                            833       CASA                                              ITAIPU                   NITEROI                RJ24342360                                                                                          OUTRAS                        DOUTOR MACARIO PICANCO                                   833CASA                                              ITAIPU                   NITEROI                RJ24342360                            NPE                                          2024012220250112                                                                                                                                                                                                                                                                       MS043737790                   000000000000000000        00000000R                    997664685           997664685           FLAVIO_ARTIOLI_NETO@HOTMAIL.COM                             
1012024122015       036110004357                  119527193800   MARCIO ROGERIO PARRA ROCHA                   19750101                                                                                                                                                                                                                                                                                                                                                                                                                                       R NATAL PIGASSI                                   199                                                         JARDIM CELESTE           SAO PAULO              SP05527000                                                                                          OUTRAS                        R NATAL PIGASSI                                          188                                                  JARDIM CELESTE           SAO PAULO              SP05527000                            NPE                                          2024061420250112                                                                                                                                                                                                                                                                       MS                            000000000000000000        00000000R11987152060         987152060           987152060           PARRAMARCIO@GMAIL.COM                                       
1012024122015       036290007543                  106369492817   EDIVALDO SOARES DA SILVA                     19610124                                                                                                                                                                                                                                                                                                                                                                                                                                       R SEBASTIAO A DOS REIS                            276       .                                                 JARDIM SAO LUIS          SAO PAULO              SP05843350                                                                                          APOSENTADO                                                                                                                                                                                                                        NPE                                          2022121420250112                                                                                                                                                                                                                                                                       MS14090297-1                  000000000000000000        00000000R11993179735         993179735           958513161           EDIVALDO.SOARES256@GMAIL.COM                                
1012024122015       045610000098                  127266336848   PAULA VIRGINIA ALVES PEREIRA                 19770319                                                                                                                                                                                                                                                                                                                                                                                                                                       R JOAQUIM DE A MORAIS, 303,                                                                                                            SAO PAULO              SP02844000                                                                                                                                                                                                                                                                                                                            NPE                                          2024031120250108                                                                                                                                                                                                                                                                       FO233273785                   000000000000000000        00000000R11968821375         968821375           11969969719         PAULAVIRGINIA.PSICOLOGA@GMAIL.COM                           
1012024122015       038720005162                  109935842843   ROSIMAR RODRIGUES FREITAS                    19701008                                                                                                                                                                                                                                                                                                                                                                                                                                       R BENEDITO DE OLIVEIRA LOUSADA                    1255                                                        PARQUE SAO BENTO         SOROCABA               SP18072120                    COOPERATIVA                                                           GERENTE - TODAS               R PADRE MADUREIRA                                        255                                                  ALEM PONTE               SOROCABA               SP18013210                            NPE                                          2024120320241228                                                                                                                                                                                                                                                                       FS18241549                    000000000000000000        00000000R                                                            ROSITAMMER@YAHOO.COM.BR                                     
1012024122015       021130027709                  101022463004   JONAS SILVA FERREIRA                         19911228                                                                                                                                                                                                                                                                                                                                                                                                                                       BARTOLOMEU DIAS                                   265                                                         NOSSA SENHORA DAS GRACAS CANOAS                 RS92025450                                                                                          EMPRESARIO                    BARTOLOMEU DIAS                                          265                                                  NOSSA SENHORA DAS GRACAS CANOAS                 RS92025450                            NPE                                          2024101520250112                                                                                                                                                                                                                                                                       MS                            000000000000000000        00000000R                                                                                                                        
