001202411212024112100000089
1012024112115       050270003308                  118348687858   HELIO DE ALMEIDA CAMPOS                      19750213                                                                                                                                                                                                                                                                                                                                                                                                                                       R BICA DE PEDRA                                   872                                                         VILA ANGLO BRASILEIRA    SAO PAULO              SP05028140                                                                                          OUTRAS                        R BICA DE PEDRA                                          872                                                  VILA ANGLO BRASILEIRA    SAO PAULO              SP05028140                            NPE                                          2024091620241214                                                                                                                                                                                                                                                                       MS                            000000000000000000        00000000R                                                            HELIODEALMEIDA80@GMAIL.COM                                  
1012024112115       036100005409                  112424319855   MARLENE SALVADOR ONOFRE DE FARIA             19520626                                                                                                                                                                                                                                                                                                                                                                                                                                       R PAULINA ISABEL DE QUEIROS                       88                                                          VILA SAO PEDRO           SANTO ANDRE            SP09210260                                                                                          APOSENTADO                                                                                                                                                                                                                        NPE                                          2024081520241213                                                                                                                                                                                                                                                                       FS                            000000000000000000        00000000R                    999312363           999312363                                                                       
1012024112115       035660022859                  118786103920   MARIA CONCEICAO ANDRADE LIMA                 19530907                                                                                                                                                                                                                                                                                                                                                                                                                                       R VALINHOS                                        87        CASA                                              BOSQUE DOS EUCALIPTOS    SAO JOSE DOS CAMPOS    SP12233750                    N A                                                                   OUTRAS                        R VALINHOS                                                87CASA                                              BOSQUE DOS EUCALIPTOS    SAO JOSE DOS CAMPOS    SP12233750                            NPE                                          2023011620241214                                                                                                                                                                                                                                                                       FS13924043                    000000000000000000        00000000R12997588655         997588655           997588655           DEBORAANDRADE52888@GMAIL.COM                                
1012024112115       036200005439                  103959545509   ABIMAEL ALVES SILVA SANTOS                   19880102                                                                                                                                                                                                                                                                                                                                                                                                                                       R EUCLIDES DA CUNHA                               1669                                                        SANTA LUZIA              BARREIRAS              BA47800711                                                                                          GERENTE - TODAS               R EUCLIDES DA CUNHA                                     1669                                                  SANTA LUZIA              BARREIRAS              BA47800711                            NPE                                          2023091520241214                                                                                                                                                                                                                                                                       MS1497564450                  000000000000000000        00000000R77981033512         999798261           77988588107         BINHO19261@HOTMAIL.COM                                      
1012024112115       035660015510                  130398645809   MISLEIDE CANDIDO DA SILVA SOUZA              19820406                                                                                                                                                                                                                                                                                                                                                                                                                                       RUA JOSE PIOLI                                    77                                                          JARDIM ALVORADA          CRAVINHOS              SP14140000                                                                                          OUTRAS                        RUA JOSE PIOLI                                            77                                                  JARDIM ALVORADA          CRAVINHOS              SP14140000                            NPE                                          2023101620241214                                                                                                                                                                                                                                                                       FS40393123                    000000000000000000        00000000R                                                            MISLEIDE@AMERICAGOLDSEGUROS.COM.BR                          
1012024112115       038720002411                  119434590884   FABIO HOCIHARA OGATA                         19750706                                                                                                                                                                                                                                                                                                                                                                                                                                       AV FLORENCIO DE PAIVA                             670                                                         JARDIM MODELO            MOGI DAS CRUZES        SP087440501126101237                                                                                GERENTE - TODAS               AV FLORENCIO DE PAIVA                                    670                                                  JARDIM MODELO            MOGI DAS CRUZES        SP08744050                            NPE                                          2023041720241214                                                                                                                                                                                                                                                                       MS26.689.548                  000000000000000000        00000000R11998844972         998844972           972437576           OGATAFABIO2017@GMAIL.COM                                    
1012024112115       034960007270                  169695466834   VALDIR CORREIA DE OLIVEIRA                   19541110                                                                                                                                                                                                                                                                                                                                                                                                                                       AV MANUEL VELHO MOREIRA                           744                                                         PARQUE COLONIAL          SAO PAULO              SP03967010                                                                                          EMPRESARIO                                                                                                                                                                                                                        NPE                                          2024011620241214                                                                                                                                                                                                                                                                       MS10109913                    000000000000000000        00000000R999481116                                                   VALDIR_CORREIA@TERRA.COM.BR                                 
1012024112115       035900018426                  131598204831   PAULA CRISTINA DOS SANTOS PEREIRA            19820817                                                                                                                                                                                                                                                                                                                                                                                                                                       AVENIDA GOIAS                                     199                                                         SANTA TEREZINHA          BARRETOS               SP14787014                                                                                          OUTRAS                        AVENIDA GOIAS                                            199                                                  SANTA TEREZINHA          BARRETOS               SP14787014                            NPE                                          2024111920241214                                                                                                                                                                                                                                                                       MS                            000000000000000000        00000000R                                                                                                                        
1012024112115       057210000822                  140534726879   INGRID REGINA DE SOUZA                       19950519                                                                                                                                                                                                                                                                                                                                                                                                                                       R MARTINS FONTES                                  150       AP13                                              TUPI                     PRAIA GRANDE           SP11704000                    NAO INFORMADO                                                         GERENTE - TODAS               R MARTINS FONTES                                         150AP13                                              TUPI                     PRAIA GRANDE           SP11704000                            NPE                                          2024111820241214                                                                                                                                                                                                                                                                       FS                            000000000000000000        00000000R                                                                                                                        
1012024112115       038720004994                  101858739950   VALDIR MONTEIRO REIS                         19741005                                                                                                                                                                                                                                                                                                                                                                                                                                       R SAO LUIZ                                        770       CASA                                              SANTA TEREZINHA          FAZENDA RIO GRANDE     PR83829108                    EMPRESA                                                               OUTRAS                        R SAO LUIZ                                               770CASA                                              SANTA TEREZINHA          FAZENDA RIO GRANDE     PR83829108                            NPE                                          2024111120241208                                                                                                                                                                                                                                                                       MS64409280                    000000000000000000        00000000R                    995161037           995161037                                                                       
1012024112115       057210000592                  115331162886   FABIANO NARCISO VOLOTAO                      19721022                                                                                                                                                                                                                                                                                                                                                                                                                                       RUA CRISTIANO SOLANO                              780       32                                                B RETIRO                 SANTOS                 SP11090120                    VOLOTAO CORRETORA DE SEG LTDA                                         SOCIO                         R QUINZE DE NOVEMBRO                                     576CONJ 211                                          CENTRO                   SAO VICENTE            SP11310400                            NPE                                          2024091620241214                                                                                                                                                                                                                                                                       MC248191147                   000000000000000000        00000000R13974068939                                                                                                             
1012024112115       050470003025                  100947146490   EDNALDO FARIAS GOMES                         19760317                                                                                                                                                                                                                                                                                                                                                                                                                                       R JOSE ROCHA LIMA                                 774                                                         SANTA AMELIA             MACEIO                 AL57063210                                                                                          OUTRAS                        R JOSE ROCHA LIMA                                        774                                                  SANTA AMELIA             MACEIO                 AL57063210                            NPE                                          2023101620241214                                                                                                                                                                                                                                                                       MS9800104317                  000000000000000000        00000000R                    988583275           988583275           SEMEMAIL@GMAIL.COM                                          
1012024112115       025490010222                  181944306404   ENIVALDO ALTINO DA SILVA                     19710807                                                                                                                                                                                                                                                                                                                                                                                                                                       R JOAQUIM FILGUEIRA GALVAO                        4                                                           TRIUNFO                  IGARASSU               PE53625740                                                                                          OUTRAS                        R JOAQUIM FILGUEIRA GALVAO                                 4                                                  TRIUNFO                  IGARASSU               PE536257401140045215                  NPE                                          2022110520241214                                                                                                                                                                                                                                                                       MS0047643                     000000000000000000        00000000R81996089602         996089602           988194716           ALTINO17102003@GMAIL.COM                                    
1012024112115       021130013168                  144574935898   YAGO FERREIRA SOUZA                          19990203                                                                                                                                                                                                                                                                                                                                                                                                                                       R BALTAZAR DA SILVEIRA                            570       CASA 2                                            VILA PEREIRA CERCA       SAO PAULO              SP02931040                                                                                          OUTRAS                        R BALTAZAR DA SILVEIRA                                   570CASA 2                                            VILA PEREIRA CERCA       SAO PAULO              SP029310401140045215                  NPE                                          2023011620241214                                                                                                                                                                                                                                                                       MS32244145-X                  000000000000000000        00000000R73981085749         981085749           965431442           YAGO_FERREIRA_SOUZA747@HOTMAIL.COM                          
1012024112115       031460000020                  143524671896   HENRY FARKAS                                 19970708                                                                                                                                                                                                                                                                                                                                                                                                                                       AV 59                                             325                                                         JARDIM ITAPUA            RIO CLARO              SP13501610                    F.K COLORIMETRIA EIRELI ME                                            GERENTE - TODAS               AV 59                                                    325                                                  JARDIM ITAPUA            RIO CLARO              SP13501610                            NPE                                          2023011620241214                                                                                                                                                                                                                                                                       MS30.279.284                  000000000000000000        00000000R19981189000                                                 B.FARKAS@TERRA.COM.BR                                       
1012024112115       050350002663                  108431745797   SONIA ARAUJO MARQUES MACEDO                  19780324                                                                                                                                                                                                                                                                                                                                                                                                                                       A RURAL                                           80        EST PIRES                                         AREA RURAL DE BRUMADINHO BRUMADINHO             MG32499899                    NAO INFORMADO                                                         GERENTE - TODAS               A RURAL                                                   80                                                  AREA RURAL DE BRUMADINHO BRUMADINHO             MG32499899                            NPE                                          2024061720241214                                                                                                                                                                                                                                                                       FS17814030                    000000000000000000        00000000R                    999812208           998122084           SONIAARAUJO9812@GMAIL.COM                                   
1012024112115       037820002737                  136436804811   MICHELE APARECIDA DE OLIVEIRA VIEIRA         19850423                                                                                                                                                                                                                                                                                                                                                                                                                                       AV 31 DE MARCO                                    909                                                         CENTRO                   VOTORANTIM             SP18110005                                                                                          EMPRESARIO                                                                                                                                                                                                                        NPE                                          2023041720241214                                                                                                                                                                                                                                                                       FS45292780                    000000000000000000        00000000R15998354269         998354269           974041209           CAMILLYPIMENTA1021@GMAIL.COM                                
1012024112115       211930014585                  104489974361   ABY NEDY CHEDY DE MELO E SILVA               19910609                                                                                                                                                                                                                                                                                                                                                                                                                                       R JOAN BROSSA                                     14        CASA                                              PRQ N UNIDAS             SAO PAULO              SP02996250                    D K CONSULTORIA                                                                                     R APUCARANA                                              330                                                  TATUAPE                  SAO PAULO              SP03311000                            NPE                                          2023122220241225                                                                                                                                                                                                                                                                       MS2.831.785                   000000000000000000        00000000R11987666106         993448796           1139498024          ABYNEDY91@GMAIL.COM                                         
1012024112115       211930009634                  139317118895   FELIPE MORIJO LARA                           19930101                                                                                                                                                                                                                                                                                                                                                                                                                                       RUA ITATIAIUCU                                    52        CS                                                JARDIM ITAPOLIS          SAO PAULO              SP03942090                                                                                                                        R ITATIAIUCU                                              52                                                  JD ITAPOLIS              SAO PAULO              SP03942090                            NPE                                          2022121620241214                                                                                                                                                                                                                                                                       MS48.888.474                  000000000000000000        00000000R11953932824         990276932           21489569            MORIJOFELIPE913@GMAIL.COM                                   
1012024112115       022800017436                  100688063373   SIMONE PAIXAO DA SILVA SOUZA                 19830628                                                                                                                                                                                                                                                                                                                                                                                                                                       R QUEBEC                                          SN        Q 92 L 11                                         JARDIM NOVO MUNDO        GOIANIA                GO74710130                    PEROLA IMOVEIS                                                        GERENTE - TODAS               AV T 2                                                  1609                                                  SETOR BUENO              GOIANIA                GO742150106239350000                  NPE                                          2023011620241214                                                                                                                                                                                                                                                                       FS5892008                     000000000000000000        00000000R62991896560         991896560           991896560           SULIANE.RABELO@GMAIL.COM                                    
1012024112115       026810014259                  147540281120   VAGNER DIAS BARBOSA                          19720704                                                                                                                                                                                                                                                                                                                                                                                                                                       RUA CONGONHAS                                     422                                                         VILA TAQUARUSSU          CAMPO GRANDE           MS79006160                                                                                          EMPRESARIO                    RUA CONGONHAS                                            422                                                  VILA TAQUARUSSU          CAMPO GRANDE           MS79006160                            NPE                                          2024061720241214                                                                                                                                                                                                                                                                       MS                            000000000000000000        00000000R996753642           999180313           981569552                                                                       
1012024112115       026420010099                  103657662162   JULIANO DA SILVA QUIRINO MAIA                19930225                                                                                                                                                                                                                                                          00000000                                                                                                                        IVANI VICENTE DA SILVA QUIRINO               RUA VALDIR TELES DOS REIS                         SN                                                          CENTRO                   GLORIA DOESTE          MT78293000                    TRANSPORTADORA BOTELHO                                                                              RUA FRANCISCO BOTELHO NETO                                00                                                  CENTRO                   MIRASSOL DOESTE        MT782800006532413605                                                               2022012320241214                                                                                                                                                                                                                                                                         643402676 MT                000000000000000000        00000000R65996961341                                                 PORTOMCF@GMAIL.COM                                          
1012024112115       036280002945                  112511306824   ROBERT CHIAPARIM UGOLINI                     19720819                                                                                                                                                                                                                                                                                                                                                                                                                                       R MERGENTHALER                                    345       APTO 82D                                          VILA LEOPOLDINA          SAO PAULO              SP05311030                                                                                          EMPRESARIO                                                                                                                                                                                                                        NPE                                          2023101620241214                                                                                                                                                                                                                                                                       MS19388843                    000000000000000000        00000000R11994603397         994603397           1135674728          FINANCEIRO@MECONSULTING.COM.BR                              
1012024112115       211930008725                  100406227705   DARCIR RUSSO JUNIOR                          19691101                                                                                                                                                                                                                                                                  2135972256                                                                                                                                                           JORNALISTA ROBERTO MARINHO                        255       BL 02 AP 403                                      COLUBANDE                SAO GONCALO            RJ244510452130692653                                                                                                                                                                                                                                                                                                                  NPE                                          2022121620241214                                                                                                                                                                                                                                                                       MS085.036.65                  000000000000000000        00000000R971770169           968805198           964383630           DARCIRRUSSO@HOTMAIL.COM                                     
1012024112115       037830008091                  129219269899   KARINA GOMES DE MORAIS                       19800706                                                                                                                                                                                                                                                                                                                                                                                                                                       AV NELLUSCO LOURENCO BORATTO                      90        AP 103 T 2                                        CEZAR DE SOUZA           MOGI DAS CRUZES        SP08820290                                                                                          EMPRESARIO                                                                                                                                                                                                                        NPE                                          2024050620241205                                                                                                                                                                                                                                                                       FS                            000000000000000000        00000000R                    950299138           950299138                                                                       
1012024112115       000830033256                  110227752864   ATAUALPA BATISTA                             19620504                                                                                                                                                                                                                                                                                                                                                                                                                                       R GELSUMINO LIZARDI                               478                                                         JARDIM SAN DIEGO         CAMPINAS               SP13052570                                                                                          APOSENTADO                                                                                                                                                                                                                        NPE                                          2023041720241214                                                                                                                                                                                                                                                                       MS17298524                    000000000000000000        00000000R999859680                                                   RAISSARODRIGUESBATISTA91@GMAIL.COM                          
1012024112115       211570012658                  180802362591   RENATO GOMES NASCIMENTO DA MOTA              19811225                                                                                                                                                                                                                                                                                                                                                                                                                                       R PRIMEIRO DE MAIO                                182                                                         PAU DA LIMA              SALVADOR               BA41247010                                                                                          OUTRAS                        R PRIMEIRO DE MAIO                                       182                                                  PAU DA LIMA              SALVADOR               BA412470101140045215                  NPE                                          2022110520241225                                                                                                                                                                                                                                                                       MS0156964356                  000000000000000000        00000000R71986172353         992028795           983980803           RENATO_FELIZ25@HOTMAIL.COM                                  
1012024112115       023790009997                  106692611148   RUAN GUEDES DE SOUSA                         19990601                                                                                                                                                                                                                                                                                                                                                                                                                                       QNH                                               5         LOTE 41                                           T NORTE                  TAGUATINGA             DF72130550                                                                                          OUTRAS                        AL QUADRA 10 LOTE 16                                       3CASA                                              PARQUE ARAGUARI          CIDADE OCIDENTAL       GO728853866130340641                  NPE                                          2022112220241225                                                                                                                                                                                                                                                                       MS7054431                     000000000000000000        00000000R61995161824         995161824           993141676           JAILTONSEGUROS@GMAIL.COM                                    
1012024112115       029010000961                  136968626810   RAFAEL ALBERTO PERCEBAO                      19890909                                                                                                                                                                                                                                                                                                                                                                                                                                       R MARIA JOSE BELLEGARDE SANTONI                   76                                                          PARQUE RENATO MAIA       GUARULHOS              SP07114170                    PORTO SEGURO                                                                                                                                                                                                                                                                                            NPE                                          2024111120241214                                                                                                                                                                                                                                                                       MO47833271                    000000000000000000        00000000R11953495311                                                 RAFAEL.PERCEBAO@GMAIL.COM                                   
1012024112115       001080011909                  116267790827   MARLI CALDEIRA AURELIANO                     19711008                                                                                                                                                                                                                                                                                                                                                                                                                                       RODOLFO                                           19        CASA                                              JARDIM ESPER             JACAREI                SP12307040                    NENHUMA                                                               EMPRESARIO                    RODOLFO                                                   19CASA                                              JARDIM ESPER             JACAREI                SP12307040                            NPE                                          2024111820241214                                                                                                                                                                                                                                                                       MS                            000000000000000000        00000000R                                                                                                                        
1012024112115       050200008479                  176786668453   EDUARDO BARBOSA DO NASCIMENTO                19750402                                                                                                                                                                                                                                                                                                                                                                                                                                       R CENTO E NOVENTA E OITO                          146                                                         CAETES I                 ABREU E LIMA           PE53530492                                                                                          OUTRAS                        R CENTO E NOVENTA E OITO                                 146                                                  CAETES I                 ABREU E LIMA           PE53530492                            NPE                                          2024111820241214                                                                                                                                                                                                                                                                       MS4074344                     000000000000000000        00000000R81987102365                                                                                                             
1012024112115       035160001457                  102741516340   LUCIENE BRITO DA COSTA                       19850503                                                                                                                                                                                                                                                                                                                                                                                                                                       RUA 18                                            SN        PX IGREJA EVANG                                   JD IRACEMA               BALSAS                 MA658000001140045215                                                                                OUTRAS                        RUA 18                                                    SNPX IGREJA EVANG                                   JD IRACEMA               BALSAS                 MA65800000                            NPE                                          2023011620241214                                                                                                                                                                                                                                                                       FS0594459583                  000000000000000000        00000000R99984381567         988168491           984381567           FELIPEIDIO14@GMAIL.COM                                      
1012024112115       211570019894                  114034972572   NIZE MARIA DE OLIVEIRA ESPERIDIAO            19580317                                                                                                                                                                                                                                                                                                                                                                                                                                       R GODOFREDO REBELLO DE FIGUEIREDO FILHO           59        CASA                                              SIM                      FEIRA DE SANTANA       BA44085132                    NIZE MARIA DE OLIVEIRA ESPERID                                        OUTRAS                        R GODOFREDO REBELLO DE FIGUEIREDO FILHO                   59CASA                                              SIM                      FEIRA DE SANTANA       BA44085132                            NPE                                          2022122620241124                                                                                                                                                                                                                                                                       FS0288841557                  000000000000000000        00000000R75992902000         992902000           40045215            NADJAOLIVEIRA12209@GMAIL.COM                                
1012024112115       035660016049                  106173779609   CARMEN DE FATIMA NASCIMENTO                  19660822                                                                                                                                                                                                                                                                                                                                                                                                                                       TRAVESSA SAO JOAO                                 14                                                          CENTRO                   NEPOMUCENO             MG37250000                    N A                                                                   OUTRAS                        TRAVESSA SAO JOAO                                         14                                                  CENTRO                   NEPOMUCENO             MG372500001140045215                  NPE                                          2023011620241214                                                                                                                                                                                                                                                                       FS13522896                    000000000000000000        00000000R35998294684         999403670           40045215            TANIARODRIGUESNASCI@GMAIL.COM                               
1012024112115       050270000380                  132161270877   RAFAEL DE OLIVEIRA VALERIO                   19861211                                                                                                                                                                                                                                                                                                                                                                                                                                       R JORGE ANTONIO BENDA                             162                                                         C D ABRIL                SAO PAULO              SP05182300                                                                                          OUTRAS                        R OTAVIO GONCALVES MARTINS                               162                                                  JARDIM SANTO ELIAS       SAO PAULO              SP051362901140045215                  NPE                                          2023011620241214                                                                                                                                                                                                                                                                       MS32257365                    000000000000000000        00000000R11977299301         1127402991          1127402991          RAFAELVALERIO.RAFINHA@GMAIL.COM                             
1012024112115       035900003333                  131083738895   SOLANGE APARECIDA POLICARPO PIRES            19650708                                                                                                                                                                                                                                                                                                                                                                                                                                       R MARIA BELTRAME BORLONI                          224                                                         CAICARA                  PRAIA GRANDE           SP11707130                                                                                          APOSENTADO                                                                                                                                                                                                                        NPE                                          2022121620241214                                                                                                                                                                                                                                                                       FS340951618                   000000000000000000        00000000R11941962584         991762953           11984053161         ROBERTOLULA3@GMAIL.COM                                      
1012024112115       035900009301                  109319092877   FRANCISCO REIS DE CARVALHO                   19680106                                                                                                                                                                                                                                                                                                                                                                                                                                       R ARGIRITO                                        119                                                         JAGUARE                  SAO PAULO              SP05345030                                                                                          APOSENTADO                                                                                                                                                                                                                        NPE                                          2022121620241214                                                                                                                                                                                                                                                                       MS18615864                    000000000000000000        00000000R11989898171         989898171           989898171           FRANCISCO.REIS196840@GMAIL.COM.BR                           
1012024112115       022800022814                  104372041110   ELIANE SATSUKI ARAKAKI                       19940531                                                                                                                                                                                                                                                                                                                                                                                                                                       R 3                                               994       AP401 GOIANDIRA                                   ST CENTRAL               GOIANIA                GO74023010                                                                                          OUTRAS                        RUA TRES                                                 994AP QUATRO ZERO UM                                 SETOR CENTRAL            GOIANIA                GO74023010                            NPE                                          2024021520241214                                                                                                                                                                                                                                                                       MS5703318                     000000000000000000        00000000R62999078639         999078639           999078639           OISAESUKIA@GMAIL.COM                                        
1012024112115       036280002521                  140505463881   CAMILA RODRIGUES DOS SANTOS                  19940503                                                                                                                                                                                                                                                                                                                                                                                                                                       R VASCO DA GAMA                                   80        APTO 96                                           AVIACAO                  PRAIA GRANDE           SP11702660                                                                                          OUTRAS                        R VASCO DA GAMA                                           80APTO 96                                           AVIACAO                  PRAIA GRANDE           SP11702660                            NPE                                          2023051520241214                                                                                                                                                                                                                                                                       FS34701701                    000000000000000000        00000000R11941110265         941110265           941110265           CAMILARODRIGUES94@YMAIL.COM                                 
1012024112115       030120088263                  141182138772   SOLANGE MESQUITA                             19560813                                                                                                                                                                                                                                                                                                                                                                                                                                       AV EMBAIXADOR ABELARDO BUENO                      3100      603                                               BARRA DA TIJUCA          RIO DE JANEIRO         RJ22775040                                                                                          APOSENTADO                                                                                                                                                                                                                        NPE                                          2022121620241214                                                                                                                                                                                                                                                                       FS032383655                   000000000000000000        00000000R24988230856         999661308           988230856           SOLANGEMESQUITA13@YAHOO.COM.BR                              
1012024112115       023620040709                  100964734958   JOANA CAROLINE BRITO DA SILVA                19870324                                                                                                                                                                                                                                                                                                                                                                                                                                       R NICOLAU JULIO GOULART                           126                                                         S MARTINHO               TUBARAO                SC88708810                    MARIAH LIVRARIA E PAPELARIA LT                                        VENDEDORA                     R SIMEAO ESMERALDINO DE MENEZES                          400SHOPING UNIVERS                                   DEHON                    TUBARAO                SC88704090                            NPE                                          2023091520241214                                                                                                                                                                                                                                                                       FC4827858                     000000000000000000        00000000R48999909741         999909741           999909741           JOANACAROLINEBRITO28@GMAIL.COM                              
1012024112115       211570023182                  122666788504   ROSA MARIA PEIXINHO FREITAS                  19480906                                                                                                                                                                                                                                                                                                                                                                                                                                       RUA ANDRE NEGREIRO FALCAO                         104       CASA                                              CENTRO                   SERRINHA               BA48700000                                                                                          APOSENTADO                                                                                                                                                                                                                        NPE                                          2023081520241214                                                                                                                                                                                                                                                                       FS78926084                    000000000000000000        00000000R                    991033429           991033429           SERGIOFREITAS1008@GMAIL.COM                                 
1012024112115       035210004412                  100973191805   SEBASTIAO EDUARDO FONSECA                    19610130                                                                                                                                                                                                                                                                                                                                                                                                                                       R BIOTONICO                                       1247                                                        VL URUPES                SUZANO                 SP08615000                                                                                                                                                                                                                                                                                                                            NPE                                          2023011620241214                                                                                                                                                                                                                                                                       MO130853197                   000000000000000000        00000000R999840483                                                   TESTE.TESTE@GMAIL.COM                                       
1012024112115       026420014576                  195172017615   MAURO DONIZETE DA SILVA                      19710508                                                                                                                                                                                                                                                                                                                                                                                                                                       RUA ESPERANCA                                     1668      LETRA S                                           PARQUE ALVORADA          JUARA                  MT78575000                                                                                          OUTRAS                        RUA ESPERANCA                                           1668LETRA S                                           PARQUE ALVORADA          JUARA                  MT78575000                            NPE                                          2023011620241214                                                                                                                                                                                                                                                                       MS0235732032                  000000000000000000        00000000R66984522680         984522680           984522680                                                                       
1012024112115       036180004769                  111629753858   SIMONE MORAES GALLO                          19721018                                                                                                                                                                                                                                                                                                                                                                                                                                       PITINGA                                           51        AP A                                              VILA LUCIA               SAO PAULO              SP03146030                                                                                          OUTRAS                        PITINGA                                                   51AP  A                                             VILA LUCIA               SAO PAULO              SP03146030                            NPE                                          2023051520241214                                                                                                                                                                                                                                                                       MS192073084                   000000000000000000        00000000R11973770983         973770983           11963981425         GALLO@HOTMAIL.COM                                           
1012024112115       030120093055                  109003526710   CRISTIANE MONTEIRO DOS SANTOS                19820715                                                                                                                                                                                                                                                                                                                                                                                                                                       TV GERALDO SALGADO                                35                                                          CERAMICA                 NOVA IGUACU            RJ26031080                                                                                          OUTRAS                        TV GERALDO SALGADO                                        35                                                  CERAMICA                 NOVA IGUACU            RJ26031080                            NPE                                          2023051520241214                                                                                                                                                                                                                                                                       FS0230242171                  000000000000000000        00000000R21980615988         983047469           980615988           CRISJS152016@GMAIL.COM                                      
1012024112115       027320012147                  187500647468   INES VANIA GUERRA DE SOUSA                   19520817                                                                                                                                                                                                                                                                                                                                                                                                                                       R FRANCISCO BORGES DE OLIVEIRA                    1565                                                        LAGOA NOVA               NATAL                  RN59063370                                                                                          OUTRAS                        R FRANCISCO BORGES DE OLIVEIRA                          1565                                                  LAGOA NOVA               NATAL                  RN59063370                            NPE                                          2024072220241225                                                                                                                                                                                                                                                                       FS00149234                    000000000000000000        00000000R84991093219         991093219           84999349355         INESVGS2804@GMAIL.COM                                       
1012024112115       033380000129                  113460320842   LUCIETE XAVIER GOMES DE SOUZA                19681112                                                                                                                                                                                                                                                                                                                                                                                                                                       RUA ALGUILANDE                                    39                                                          FAZENDA DA ILHA          EMBU GUACU             SP06900000                    LAR DA TERCEIRA IDADE                                                 GERENTE - TODAS               RUA SERVIDAO 2                                            99                                                  GRAMADO                  EMBU GUACU             SP069000001146634805                  NPE                                          2023051520241214                                                                                                                                                                                                                                                                       FS216107830                   000000000000000000        00000000R11998893471         998893471           46612401            LUCIETEXAVIER08@GMAIL.COM                                   
1012024112115       030290000193                  180115624872   WALDIR COCOZZA                               19560608                                                                                                                                                                                                                                                                                                                                                                                                                                       RUA NICOLAU PAAL                                  682       CASA                                              JARDIM QIETUDE           PRAIA GRANDE           SP11718155                                                                                          APOSENTADO                                                                                                                                                                                                                        NPE                                          2022120720241220                                                                                                                                                                                                                                                                       MS8404997                     000000000000000000        00000000R13997073646         997073646           13991360852         CRIS.COCOZZA25@GMAIL.COM                                    
1012024112115       023790020122                  104980307507   STEPHANY PAULER SOUZA SANTOS                 19920612                                                                                                                                                                                                                                                                                                                                                                                                                                       EST DA CABRITA                                    327                                                         JABOTIANA                ARACAJU                SE49096020                                                                                          OUTRAS                        EST DA CABRITA                                           327                                                  JABOTIANA                ARACAJU                SE490960201140045215                  NPE                                          2022121920241121                                                                                                                                                                                                                                                                       FO0649821118                  000000000000000000        00000000R79996550309         996550309           79981572379         STEPHANYPAULERSMN@GMAIL.COM                                 
1012024112115       022800023546                  101976728177   MARCOS VINICIUS RIBEIRO NASCIMENTO           19880427                                                                                                                                                                                                                                                                                                                                                                                                                                       AVENIDA GOIAS                                     845                                                         AUGUSTO JOSE VALENTE     POSSE                  GO73900000                                                                                          EMPRESARIO                    AVENIDA GOIAS                                            845                                                  AUGUSTO JOSE VALENTE     POSSE                  GO73900000                            NPE                                          2024041520241214                                                                                                                                                                                                                                                                       MS                            000000000000000000        00000000R996426536                                                   MARCOS_AGRONOMIA@HOTMAIL.COM                                
1012024112115       055410002604                  138493930890   JOSE PAULIANO DA SILVA                       19870626                                                                                                                                                                                                                                                                                                                                                                                                                                       R IMA MARIA DE STA P TERRIER                      152       LOJA                                              VILA PROOST DE SOUZA     CAMPINAS               SP13033755                                                                                          EMPRESARIO                    R IMA MARIA DE STA P TERRIER                             152LOJA                                              VILA PROOST DE SOUZA     CAMPINAS               SP13033755                            NPE                                          2024111820241214                                                                                                                                                                                                                                                                       MS                            000000000000000000        00000000R                                                                                                                        
1012024112115       026420019807                  100934628912   VOLMIR VETORAZZI                             19840618                                                                                                                                                                                                                                                                                                                                                                                                                                       AV MATO GROSSO DO SUL                             1049                                                        ALVORADA                 LUCAS DO RIO VERDE     MT78466030                                                                                                                        AV MATO GROSSO DO SUL                                   1049                                                  ALVORADA                 LUCAS DO RIO VERDE     MT78466030                            NPE                                          2024091620241214                                                                                                                                                                                                                                                                       MO4676546                     000000000000000000        00000000R                    991051163           991051163                                                                       
1012024112115       038720004365                  101349179442   MIRIAM PEREIRA FERNANDES DE LIMA             19850810                                                                                                                                                                                                                                                                                                                                                                                                                                       RUA DJALMAR FALCAO                                136       LOTEAMENTO                                        BOA VISTA                MONTEIRO               PB58500000                                                                                          GERENTE - TODAS               WAGNER BEZERRA JAPYASSU                                  000                                                  CENTRO                   MONTEIRO               PB58500000                            NPE                                          2024102220241225                                                                                                                                                                                                                                                                       FS2707413                     000000000000000000        00000000R                    999583531           996218345                                                                       
1012024112115       035660020065                  136904688840   GERALDO QUADRATTI BUENO                      19890612                                                                                                                                                                                                                                                                                                                                                                                                                                       R SANTO ANTONIO                                   252                                                         JARDIM CARLOS BORELLA    ITATIBA                SP13253200                    N A                                                                   EMPRESARIO                                                                                                                                                                                            1140045215                  NPE                                          2022111720241214                                                                                                                                                                                                                                                                       MS44677216                    000000000000000000        00000000R11947689976                                                 QUADRATTIBUENO@HOTMAIL.COM                                  
1012024112115       031340009729                  171314768115   JOSE POVOA AIRES NETO                        19800906                                                                                                                                                                                                                                                                                                                                                                                                                                       QD ACNO 1 AV JUSCELINO KUBITSCHEK                 103       LT179                                             PLANO DIRETOR NORTE      PALMAS                 TO77001014                                                                                          OUTRAS                        AV COMANDANTE VICENTE DE PAULA OLIVEIRA                   06LT 6 QI 25                                        LOTEAMENTO LAGO SUL TAQUAPALMAS                 TO77062143                            NPE                                          2023122220241225                                                                                                                                                                                                                                                                       MS0000031037                  000000000000000000        00000000R63991002992         999304948           32142311                                                                        
1012024112115       022800019065                  102694222188   JOEB ANTONIO BARROS DOS SANTOS               19871124                                                                                                                                                                                                                                                                                                                                                                                                                                       R DAS TULIPAS                                     SN        QD 05 LT 0                                        GRAN VILLE               ANAPOLIS               GO75090170                    BRAINFARMA                                                            GERENTE - TODAS               R VP R1                                                   32                                                  DISTRITO AGROINDUSTRIAL DANAPOLIS               GO75132020                            NPE                                          2023042420241225                                                                                                                                                                                                                                                                       MS0523751552                  000000000000000000        00000000R991919099           995692505           33149667            JOEBBARROS@HOTMAIL.COM                                      
1012024112115       035660018784                  121687895848   THAIS LEITAO FERREIRA                        19890924                                                                                                                                                                                                                                                                                                                                                                                                                                       R JOAQUIM MARRA                                   702       CASA 08                                           VILA MATILDE             SAO PAULO              SP03514000                    N A                                                                   GERENTE - TODAS               AV MIGUEL ACHIOLE DA FONSECA                             135                                                  JARDIM SAO PAULOZONA LESTSAO PAULO              SP084611101125513302                  NPE                                          2022121620241214                                                                                                                                                                                                                                                                       FS0581319333                  000000000000000000        00000000R11986869698         986869698           1125513323          THAIS.MKT89@GMAIL.COM                                       
1012024112115       027560006148                  124025365863   LUCAS MATEUS D AQUINO                        19950313                                                                                                                                                                                                                                                                                                                                                                                                                                       AV CAMPINAS                                       667                                                         CHACARA DO VISCONDE      TAUBATE                SP12050760                                                                                          OUTRAS                        AV CAMPINAS                                              667                                                  CHACARA DO VISCONDE      TAUBATE                SP12050760                            NPE                                          2022110520241214                                                                                                                                                                                                                                                                       MS0724890468                  000000000000000000        00000000R992105599           991379300           12991029960         MARCIO.JSPESSOA@GMAIL.COM                                   
1012024112115       038720001048                  137217765854   ROBERTO BARBOSA DOS SANTOS                   19870410                                                                                                                                                                                                                                                                                                                                                                                                                                       R ANTONIO ANGELINO ROSSI                          1348      CASA                                              JARDIM MORADA DO SOL     INDAIATUBA             SP133482901938161040                                                                                OUTRAS                        R ANTONIO ANGELINO ROSSI                                1348CASA                                              JARDIM MORADA DO SOL     INDAIATUBA             SP133482901140045215                  NPE                                          2022120720241225                                                                                                                                                                                                                                                                       MS401102361                   000000000000000000        00000000R995103886           997367536           38161040            ROBERTO.212326@GMAIL.COM                                    
1012024112115       027120016011                  101956935827   BENEDITO FONSECA DINIZ                       19520317                                                                                                                                                                                                                                                                                                                                                                                                                                       ESTRADA HOMERO EVANGELISTA                        70                                                          PARATEI                  IGARATA                SP08900000                                                                                          APOSENTADO                                                                                                                                                                                                                        NPE                                          2024082020241214                                                                                                                                                                                                                                                                       MS141370415                   000000000000000000        00000000R12992421012         992421012           988296677           LUIZCARLOSABREU39@GMAIL.COM                                 
1012024112115       038720000434                  118012662710   THAYNAN SERAFIM DE CARVALHO                  19961014                                                                                                                                                                                                                                                                                                                                                                                                                                       NECA BOM GOSTO                                    SN                                                          ILMENITA                 MARATAIZES             ES29345000                                                                                          OUTRAS                        NECA BOM GOSTO                                            SN                                                  ILMENITA                 MARATAIZES             ES293450002839950753                  NPE                                          2024091620241214                                                                                                                                                                                                                                                                       FS4232453                     000000000000000000        00000000R28999507538         999507538           999507538           THAYNANCARVALHO091@GMAIL.COM                                
1012024112115       037830007425                  132583455893   WELLINGTON CEZAR MEDEIROS                    19830810                                                                                                                                                                                                                                                                                                                                                                                                                                       RUA THADEO JULIANO KOWALSKI                       75                                                          CIDADE BOA VISTA         SUZANO                 SP08693610                                                                                          EMPRESARIO                    RUA THADEO JULIANO KOWALSKI                               75                                                  CIDADE BOA VISTA         SUZANO                 SP08693610                            NPE                                          2024011620241214                                                                                                                                                                                                                                                                       MS                            000000000000000000        00000000R                    964560925           1147524275          MYS.TOM.JU@GMAIL.COM                                        
1012024112115       003640022597                  105251587589   WELLINGTON DA SILVA VIEIRA                   19900311                                                                                                                                                                                                                                                                                                                                                                                                                                       AV ANTONIO FRANCISCO PASCHOAL PELICIARI           957                                                         CANTAGALO                CARAGUATATUBA          SP11661395                    N A                                                                   GERENTE - TODAS               AV JOSE ANTONIO DE SOUSA CASTRO RODRIGUES                181SALA1                                             RIO DO OURO              CARAGUATATUBA          SP11675620                            NPE                                          2023011620241214                                                                                                                                                                                                                                                                       MS557067340                   000000000000000000        00000000R12996161622         996161622           991940576           WELLINGTON11031990SILVA@GMAIL.COM                           
1012024112115       032690022644                  109651450690   GLAUCIELLEM SANTOS DE PAIVA DA ROCHA         19940325                                                                                                                                                                                                                                                                                                                                                                                                                                       R SALVADOR GONCALVES DINIZ                        91                                                          JARDIM BRASILIA          BETIM                  MG32671540                                                                                          OUTRAS                        R SALVADOR GONCALVES DINIZ                                91                                                  JARDIM BRASILIA          BETIM                  MG326715403135169365                  NPE                                          2022121620241214                                                                                                                                                                                                                                                                       FS2011285                     000000000000000000        00000000R31985169365         985169365           31993159012         GLAUCIELLEM.1.PAIVA@HOTMAIL.COM                             
