001202411302024113000000096
1012024113015       036900001978                  103166135928   CHRISTA ELISABETH EMMENDORFER                19541217                                                                                                                                                                                                                                                                                                                                                                                                                                       R GUSTAVO HAGEDORN                                78                                                          NOVA BRASILIA            JARAGUA DO SUL         SC98252265                                                                                          APOSENTADO                                                                                                                                                                                                                        NPE                                          2022110520520416                                                                                                                                                                                                                                                                       FS371.494                     000000000000000000        00000000R77999370466         999370466           47991145928         CHRISTIANOAE@GMAIL.COM                                      
1012024113015       030120040020                  128623711734   LUIZ CARLOS CORREIA DE CASTRO                19510325                                                                                                                                                                                                                                                                                                                                                                                                                                       RUA COUTO                                         29        AP 1707 BOLOCO 2  A                               PENHA                    RIO DE JANEIRO         RJ21020410                                                                                          MOTORISTA                     RUA COUTO                                                 29AP 1707 BOLOCO 2 A                                PENHA                    RIO DE JANEIRO         RJ21020410                            NPE                                          2022110520520416                                                                                                                                                                                                                                                                       MS111741773                   000000000000000000        00000000R92981768080         999534933           21973596370         FERNANDESZX@HOTMAIL.COM                                     
1012024113015       027820003902                  114676787839   GILBERTO GOMES CORDEIRO                      19710324                                                                                                                                                                                                                                                                                                                                                                                                                                       R DOME MONTEIRO DE SANA                           427                                                         PARQUE BOTURUSSU         SAO PAULO              SP03804060                                                                                          OUTRAS                        R GUILHERME DE OLIVEIRA SA                               357                                                  PARQUE BOTURUSSU         SAO PAULO              SP03804060                            NPE                                          2022110520520416                                                                                                                                                                                                                                                                       MS21514381                    000000000000000000        00000000R994801566           996767028           11994801566         GIBAGOMES1971@GMAIL.COM                                     
1012024113015       036180006270                  107932042836   ANSELMO DOS SANTOS                           19600720                                                                                                                                                                                                                                                                                                                                                                                                                                       R DOLOMITA                                        144       BL 05 APTO72                                      MIKAIL II                GUARULHOS              SP07145020                                                                                          OUTRAS                        R DOLOMITA                                               144BL 05 APTO72                                      MIKAIL II                GUARULHOS              SP07145020                            NPE                                          2024092620520416                                                                                                                                                                                                                                                                       MS13456215                    000000000000000000        00000000R                    978907229           920021103                                                                       
1012024113015       032020018204                  102146536411   ANTONIO REGIVALDO CAMPOS PINHEIRO            19760415                                                                                                                                                                                                                                                                                                                                                                                                                                       RUA JOAQUIM FACO                                  122                                                         CENTRO                   BEBERIBE               CE62840000                                                                                          EMPRESARIO                    RUA JOAQUIM FACO                                         122                                                  CENTRO                   BEBERIBE               CE62840000                            NPE                                          2023122620520416                                                                                                                                                                                                                                                                       MS                            000000000000000000        00000000R85994184333         994184333           85992677106         ANTONIO@GMAIL.COM                                           
1012024113015       211570017102                  107090982513   EDINAELSON ROSA DE OLIVEIRA                  19941206                                                                                                                                                                                                                                                                                                                                                                                                                                       RUA DO PRADO                                      33788                                                       CENTRO                   PONTO NOVO             BA44755000                                                                                          OUTRAS                        RUA DO PRADO                                           33788                                                  CENTRO                   PONTO NOVO             BA447550001140045215                  NPE                                          2022112820520416                                                                                                                                                                                                                                                                       MS2082069575                  000000000000000000        00000000R991247924           999815041           74999745096         ESPRESODASUCATA@GMAIL.COM                                   
1012024113015       038710001224                  140404776850   JULIANA GONCALVES PINTO                      19920125                                                                                                                                                                                                                                                                                                                                                                                                                                       RUA COMENDADOR JOSE SHEFFER                       1355      CASA                                              VILA INGLESA             CAMPOS DE JORDAO       SP12460000                    BELE BELEZA                                                           GERENTE - TODAS               RUA COMENDADOR JOSE SHEFFER                             1355CASA                                              VILA INGLESA             CAMPOS DE JORDAO       SP12460000                            NPE                                          2023052620520416                                                                                                                                                                                                                                                                       FS484324668                   000000000000000000        00000000R12996865205         997686878           988069695           JULIANAGONCALVES2501@GMAIL.COM                              
1012024113015       038720003574                  103074058692   ROSEMEIRE DE CASSIA SANTOS DE PAULA          19750725                                                                                                                                                                                                                                                                                                                                                                                                                                       R SAO LOURENCO                                    120       CS 1                                              CHACARA ALVORADA         POCOS DE CALDAS        MG37706003                                                                                          GERENTE - TODAS               R SAO LOURENCO                                           120                                                  CHACARA ALVORADA         POCOS DE CALDAS        MG37706003                            NPE                                          2023092620520416                                                                                                                                                                                                                                                                       FS7338528                     000000000000000000        00000000R81998367686         998367686           988326905           CASSIA_ROSEMEIRE@YAHOO.COM                                  
1012024113015       038720000536                  103164046162   EDER DE SOUZA LIMA                           19900626                                                                                                                                                                                                                                                                                                                                                                                                                                       R A-8                                             3055      QD. 11                                            LOTEAMENTO PEDRA 90      RONDONOPOLIS           MT78746515                                                                                          EMPRESARIO                                                                                                                                                                                                                        NPE                                          2022112820520416                                                                                                                                                                                                                                                                       MS20424531                    000000000000000000        00000000R66999295012         999842552           992276299           ESL.LIMA@OUTLOOK.COM                                        
1012024113015       038720000688                  102500162141   PATRICIA RODRIGUES DOS SANTOS                19880623                                                                                                                                                                                                                                                                                                                                                                                                                                       Q QNM                                             23        CONJ C LOTE 3                                     CEILANDIA SUL CEILANDIA  BRASILIA               DF72215233                    N A                                                                   GERENTE - TODAS               Q QNM                                                     23                                                  CEILANDIA SUL CEILANDIA  BRASILIA               DF72215233                            NPE                                          2022110520520416                                                                                                                                                                                                                                                                       FS5196617                     000000000000000000        00000000R999644028           999054352           62999054352         BIO.PATRICIAR@GMAIL.COM                                     
1012024113015       038870001430                  128424393848   ELIZANGELA CRISTINA BIANCO FERNANDES         19780826                                                                                                                                                                                                                                                                                                                                                                                                                                       RUA LUIZ CAMPAGNA                                 269                                                         JARDIM SANTA CATARINA    ARARAS                 SP13601506                    NAO INFORMADO                                                         EMPRESARIO                    RUA LUIZ CAMPAGNA                                        269                                                  JARDIM SANTA CATARINA    ARARAS                 SP13601506                            NPE                                          2024021420520402                                                                                                                                                                                                                                                                       MS                            000000000000000000        00000000R                    982292987           982292887           ELIZANGELABIANCO@HOTMAIL.COM                                
1012024113015       035160006594                  122490949349   FRANCISCO DAS CHAGAS BARROS SALGADO          19660814                                                                                                                                                                                                                                                                                                                                                                                                                                       RUA OTILIA A BARROS                               656       CASA                                              BAIRRO DA CORRENTE       CHAPADINHA             MA65500000                                                                                          OUTRAS                        R TOMAZ DE AQUINO                                       1585CASA                                              HABITADO                 VARGEM GRANDE          MA65430000                            NPE                                          2023063020520319                                                                                                                                                                                                                                                                       MS0475957520                  000000000000000000        00000000R98991753198         81995064288         81995064288         BEGGIATO3@MATRIX.COM.BR                                     
1012024113015       022800018806                  195077758115   TARCISIO RODRIGUES DE ALMEIDA BRAGA          19810704                                                                                                                                                                                                                                                                                                                                                                                                                                       R L-016                                           SN        QD 16 LT 1                                        JARDIM EUROPA            ANAPOLIS               GO75094710                                                                                          OUTRAS                        R L-016                                                   SNQD 16 LT 1                                        JARDIM EUROPA            ANAPOLIS               GO75094710                            NPE                                          2022122620520416                                                                                                                                                                                                                                                                       MS4047022                     000000000000000000        00000000R62991627246         991627246           30985078            TARCISIOSOLUCAO@GMAIL.COM                                   
1012024113015       026420013676                  183695389168   ELCO DOMINGOS ALVES                          19740221                                                                                                                                                                                                                                                                                                                                                                                                                                       RUA SANTA CATARINA                                274                                                         VILA NOVA                GAUCHA DO NORTE        MT78875000                    PREFEITURA MUNICIPAL GAUCHA DO                                        GERENTE - TODAS               AVENIDA BRASIL                                           165                                                  CENTRO                   GAUCHA DO NORTE        MT788750006635821135                  NPE                                          2022122620520416                                                                                                                                                                                                                                                                       MS11419083                    000000000000000000        00000000R66984576458         984576458           34571014            ELCODOMINGOS33@HOTMAIL.COM                                  
1012024113015       038720003617                  137686963837   FATIMA GERALDA MARCONDES DIOGO               19680403                                                                                                                                                                                                                                                                                                                                                                                                                                       R NELSON FAGUNDES DA ROSA                         75        CASA                                              VL PTE SECA              CARAGUATATUBA          SP11675520                    N A                                                                   OUTRAS                        RUA NELSON FAGUNDES DA ROSA 75                            75CASA                                              PONTE SECA               CARAGUATATUBA          SP11685520                            NPE                                          2023100320520324                                                                                                                                                                                                                                                                       FS264097469                   000000000000000000        00000000R11949871442         996205100           11951407825         HERONDI_JOAO@HOTMAIL.COM                                    
1012024113015       036100002698                  143908423821   GUILHERME LOPES FURINI                       20000306                                                                                                                                                                                                                                                                                                                                                                                                                                       R VICENTE ORTIZ DE CAMARGO NETO                   775                                                         CHACARA PANTANAL ENGENHO MOGI GUACU             SP13848784                                                                                          OUTRAS                        R VICENTE ORTIZ DE CAMARGO NETO                          775                                                  CHACARA PANTANAL ENGENHO MOGI GUACU             SP13848784                            NPE                                          2023052620520416                                                                                                                                                                                                                                                                       MS54652479                    000000000000000000        00000000R11993720667         993720667           1145136202          GUILOPEESFURINI@GMAIL.COM                                   
10120241130Q5       022800018806                  62991627246         0       CELULAR                       
10120241130Q5       026420013676                  984020459                   OUTROS                        
10120241130Q5       027820003902                  25472714                    OUTROS                        
10120241130Q5       027820003902                  40045215                    OUTROS                        
10120241130Q5       027820003902                  977094841                   OUTROS                        
10120241130Q5       030120040020                  21973596370                 OUTROS                        
10120241130Q5       030120040020                  21989558071                 OUTROS                        
10120241130Q5       030120040020                  982266290                   OUTROS                        
10120241130Q5       032020018204                  1140045215                  RECADO                        
10120241130Q5       032020018204                  85992677106                 OUTROS                        
10120241130Q5       035160006594                  81995064288                 OUTROS                        
10120241130Q5       036100002698                  993720667                   OUTROS                        
10120241130Q5       036180006270                  1140045215                  RECADO                        
10120241130Q5       036180006270                  970662054                   OUTROS                        
10120241130Q5       036180006270                  978907229                   OUTROS                        
10120241130Q5       036900001978                  996624683                   OUTROS                        
10120241130Q5       038710001224                  12996865205                 CELULAR                       
10120241130Q5       038710001224                  996178815                   OUTROS                        
10120241130Q5       038720000688                  949842588                   CELULAR                       
10120241130Q5       038720003574                  35997184041                 CELULAR                       
10120241130Q5       026420013676                  984451817                   OUTROS                        
10120241130Q5       027820003902                  1140045215                  CELULAR                       
10120241130Q5       027820003902                  11983697283         0       CELULAR                       
10120241130Q5       027820003902                  963537283                   OUTROS                        
10120241130Q5       030120040020                  21964982394                 CELULAR                       
10120241130Q5       030120040020                  21999534933         0       CELULAR                       
10120241130Q5       030120040020                  23977339                    OUTROS                        
10120241130Q5       030120040020                  983318294                   OUTROS                        
10120241130Q5       032020018204                  991378846                   OUTROS                        
10120241130Q5       032020018204                  992677106                   OUTROS                        
10120241130Q5       035160006594                  98984363751                 CELULAR                       
10120241130Q5       036100002698                  1140045215                  RECADO                        
10120241130Q5       036100002698                  960949567                   OUTROS                        
10120241130Q5       036900001978                  47991188755                 OUTROS                        
10120241130Q5       036900001978                  999370466                   OUTROS                        
10120241130Q5       038720000688                  62999054352                 OUTROS                        
10120241130Q5       038720000688                  999117870                   CELULAR                       
10120241130Q5       038720003617                  12991913944         0       CELULAR                       
10120241130Q5       038720003617                  949871442                   OUTROS                        
10120241130Q5       038720003617                  991052312                   OUTROS                        
10120241130Q5       027820003902                  979688517                   OUTROS                        
10120241130Q5       027820003902                  994801566                   CELULAR                       
10120241130Q5       030120040020                  965394871                   OUTROS                        
10120241130Q5       030120040020                  999534933                   OUTROS                        
10120241130Q5       035160006594                  991753198                   OUTROS                        
10120241130Q5       036100002698                  11960949567                 CELULAR                       
10120241130Q5       036900001978                  47991145928                 OUTROS                        
10120241130Q5       038710001224                  988069695                   OUTROS                        
10120241130Q5       038720000536                  992276299                   OUTROS                        
10120241130Q5       038720000536                  996671437                   OUTROS                        
10120241130Q5       038720000688                  993962536                   OUTROS                        
10120241130Q5       038720003574                  3530141212                  RECADO                        
10120241130Q5       038720003574                  81998367686         0       CELULAR                       
10120241130Q5       038720003617                  1236006493                  RECADO                        
10120241130Q5       038720003617                  12991224938                 OUTROS                        
10120241130Q5       038720003617                  12991429022                 OUTROS                        
10120241130Q5       211570017102                  1140045215                  COMERCIAL                     
10120241130Q5       211570017102                  999745096                   OUTROS                        
10120241130Q5       022800018806                  991627246                   OUTROS                        
10120241130Q5       026420013676                  6635821135                  COMERCIAL                     
10120241130Q5       027820003902                  983697283                   OUTROS                        
10120241130Q5       030120040020                  92981768080         0       CELULAR                       
10120241130Q5       030120040020                  979516570                   OUTROS                        
10120241130Q5       030120040020                  981794735                   OUTROS                        
10120241130Q5       032020018204                  85994184333                 CELULAR                       
10120241130Q5       035160006594                  98991753198                 CELULAR                       
10120241130Q5       036100002698                  11955557971                 OUTROS                        
10120241130Q5       036100002698                  961907045                   OUTROS                        
10120241130Q5       036900001978                  47991273095                 CELULAR                       
10120241130Q5       036900001978                  991145928                   OUTROS                        
10120241130Q5       038710001224                  997686878                   OUTROS                        
10120241130Q5       038720000688                  61999644028         0       CELULAR                       
10120241130Q5       038720000688                  999054352                   OUTROS                        
10120241130Q5       038720003617                  991913944                   OUTROS                        
10120241130Q5       038870001430                  19982292987                 RECADO                        
10120241130Q5       026420013676                  984576458                   OUTROS                        
10120241130Q5       027820003902                  11986952099                 CELULAR                       
10120241130Q5       027820003902                  25661946                    OUTROS                        
10120241130Q5       030120040020                  33896000                    OUTROS                        
10120241130Q5       030120040020                  39773398                    OUTROS                        
10120241130Q5       030120040020                  964982394                   OUTROS                        
10120241130Q5       030120040020                  973596370                   OUTROS                        
10120241130Q5       036100002698                  45136202                    OUTROS                        
10120241130Q5       036900001978                  47991037681                 CELULAR                       
10120241130Q5       036900001978                  47991419571                 OUTROS                        
10120241130Q5       036900001978                  47996624683                 CELULAR                       
10120241130Q5       038720000688                  993659587                   CELULAR                       
10120241130Q5       038720000688                  999644028                   CELULAR                       
10120241130Q5       038720003574                  997184041                   OUTROS                        
10120241130Q5       038720003617                  11951407825                 OUTROS                        
10120241130Q5       038870001430                  982292887                   OUTROS                        
10120241130Q5       038870001430                  982292987                   OUTROS                        
10120241130Q5       211570017102                  74999815041         0       CELULAR                       
10120241130Q5       211570017102                  75983186269                 CELULAR                       
10120241130Q5       211570017102                  999815041                   OUTROS                        
10120241130Q5       022800018806                  30985078                    OUTROS                        
10120241130Q5       027820003902                  11994801566                 OUTROS                        
10120241130Q5       027820003902                  964327928                   CELULAR                       
10120241130Q5       027820003902                  993799134                   CELULAR                       
10120241130Q5       027820003902                  996767028                   OUTROS                        
10120241130Q5       030120040020                  21981794735                 CELULAR                       
10120241130Q5       030120040020                  989558071                   OUTROS                        
10120241130Q5       035160006594                  9834713751                  OUTROS                        
10120241130Q5       035160006594                  984363751                   CELULAR                       
10120241130Q5       036100002698                  1145136202                  OUTROS                        
10120241130Q5       036100002698                  11972586071                 OUTROS                        
10120241130Q5       036100002698                  11993720667                 CELULAR                       
10120241130Q5       036100002698                  991283826                   OUTROS                        
10120241130Q5       036900001978                  77999370466                 CELULAR                       
10120241130Q5       036900001978                  991188755                   OUTROS                        
10120241130Q5       038720000536                  66999295012                 CELULAR                       
10120241130Q5       038720003617                  11949871442                 CELULAR                       
10120241130Q5       211570017102                  74999745096                 OUTROS                        
10120241130Q5       211570017102                  75982140257                 OUTROS                        
10120241130Q5       211570017102                  75998051160                 OUTROS                        
10120241130Q5       211570017102                  983186269                   OUTROS                        
10120241130Q5       026420013676                  34571014                    OUTROS                        
10120241130Q5       026420013676                  35821135                    OUTROS                        
10120241130Q5       027820003902                  930027151                   OUTROS                        
10120241130Q5       027820003902                  952503881                   OUTROS                        
10120241130Q5       030120040020                  30290156                    OUTROS                        
10120241130Q5       032020018204                  994184333                   OUTROS                        
10120241130Q5       036100002698                  11961907045                 CELULAR                       
10120241130Q5       036180006270                  11920021103                 RECADO                        
10120241130Q5       038720000536                  999295012                   OUTROS                        
10120241130Q5       038720000536                  999842552                   OUTROS                        
10120241130Q5       038720000688                  991448182                   CELULAR                       
10120241130Q5       038720003574                  35998367686                 CELULAR                       
10120241130Q5       038720003574                  988326905                   OUTROS                        
10120241130Q5       038720003574                  998367686                   OUTROS                        
10120241130Q5       211570017102                  982140257                   OUTROS                        
10120241130Q5       211570017102                  991247924                   CELULAR                       
10120241130Q5       211570017102                  999510245                   OUTROS                        
10120241130Q5       022800018806                  985833275                   OUTROS                        
10120241130Q5       026420013676                  66984576458                 CELULAR                       
10120241130Q5       026420013676                  984058980                   OUTROS                        
10120241130Q5       027820003902                  11963537283                 CELULAR                       
10120241130Q5       027820003902                  11964327928                 CELULAR                       
10120241130Q5       027820003902                  948625834                   CELULAR                       
10120241130Q5       030120040020                  21983318294                 CELULAR                       
10120241130Q5       030120040020                  992977613                   OUTROS                        
10120241130Q5       035160006594                  984809231                   CELULAR                       
10120241130Q5       036180006270                  920021103                   OUTROS                        
10120241130Q5       036900001978                  991419571                   OUTROS                        
10120241130Q5       038710001224                  996865205                   OUTROS                        
10120241130Q5       038720003574                  997517010                   OUTROS                        
10120241130Q5       038720003617                  11978322196                 OUTROS                        
10120241130Q5       038720003617                  12996205100         0       CELULAR                       
10120241130Q5       038720003617                  12999856120                 OUTROS                        
10120241130Q5       038720003617                  996205100                   OUTROS                        
1012024113025       022800018806                  PARF    022800018806                  02280   CORRESPONDENTE                                                                                    02280   CORRESPONDENTE GOIAS                         00000000032022490000000000000000000020221026036         1                                                                                                                                                                                                                                                                                                                                                                                                                                                                                                                                                                                                            000000000000023543                                                                                                 
1012024113025       027820003902                  ESPF    027820003902                  02782   LOCAMERICA - MA                                                                                   02782   LOCAMERICA - MATRIZ                          00000000024949700000000000000000000020210326048         1                                                                                                                                                                                                                                                                                                                                                                                                                                                                                                                                                                                                            000000000000018524                                                                                                 
1012024113025       038870001430                  REFF    038870001430                  03887   CORRESPONDENTE                                                                                    03887   CORRESPONDENTE LIMEI                         00000000008379560000000000000000000020231211036         1                                                                                                                                                                                                                                                                                                                                                                                                                                                                                                                                                                                                            000000000000038148                                                                                                 
1012024113025       035160006594                  FCDC    035160006594                  03516   CORRESPONDENTE                                                                                    03516   CORRESPONDENTE MARAN                         00000000056870620000000000000000000020230530060         1                                                                                                                                                                                                                                                                                                                                                                                                                                                                                                                                                                                                            000000000000029487                                                                                                 
1012024113025       051920001993                  ESPF    051920001993                  05192   V.S. AUTOMOVEIS                                                                                   02591   VANSEG CORRETORA E A                         00000000012699070000000000000000000020230425048         3                                                                                                                                                                                                                                                                                                                                                                                                                                                                                                                                                                                                            000000000000024870                                                                                                 
1012024113025       025950066997                  REFF    025950066997                  02595   CORRESPONDENTE                                                                                    02595   CORRESPONDENTE CREDI                         00000000005260520000000000000000000020221020036         3                                                                                                                                                                                                                                                                                                                                                                                                                                                                                                                                                                                                            000000000000032854                                                                                                 
1012024113025       038710001224                  FSEG    038710001224                  03871   NOVACAO COBRANC                                                                                   03871   NOVACAO COBRANCA  AM                         00000000014897060000000000000000000020230223060         1                                                                                                                                                                                                                                                                                                                                                                                                                                                                                                                                                                                                            000000000000022900                                                                                                 
1012024113025       024660015476                  PARF    024660015476                  02466   FINANCIAMENTO V                                                                                   02466   FINANCIAMENTO VEICUL                         00000000030797230000000000000000000020210924048         3                                                                                                                                                                                                                                                                                                                                                                                                                                                                                                                                                                                                            000000000000014842                                                                                                 
1012024113025       036180006270                  FCDC    036180006270                  03618   CORRESP. SANTAN                                                                                   03618   CORRESP. SANTANA                             00000000056977610000000000000000000020240119060         1                                                                                                                                                                                                                                                                                                                                                                                                                                                                                                                                                                                                            000000000000020378                                                                                                 
1012024113025       036100002698                  FCDC    036100002698                  03610   CORRESPONDENTE                                                                                    03610   CORRESPONDENTE SANTO                         00000000027375160000000000000000000020221110048         1                                                                                                                                                                                                                                                                                                                                                                                                                                                                                                                                                                                                            000000000000019444                                                                                                 
1012024113025       036900001978                  PARF    036900001978                  03690   CORRESPONDENTE                                                                                    03690   CORRESPONDENTE MARIN                         00000000029144040000000000000000000020220223060         1                                                                                                                                                                                                                                                                                                                                                                                                                                                                                                                                                                                                            000000000000021887                                                                                                 
1012024113025       038720003617                  FSEG    038720003617                  03872   NOVACAO COBRANC                                                                                   03872   NOVACAO COBRANCA CON                         00000000006593680000000000000000000020230829024         1                                                                                                                                                                                                                                                                                                                                                                                                                                                                                                                                                                                                            000000000000017600                                                                                                 
1012024113025       022800022530                  REFF    022800022530                  02280   CORRESPONDENTE                                                                                    02280   CORRESPONDENTE GOIAS                         00000000060661250000000000000000000020231009048         3                                                                                                                                                                                                                                                                                                                                                                                                                                                                                                                                                                                                            000000000000021176                                                                                                 
1012024113025       211900031309                  PARF    211900031309                  21190   CORRESPONDENTE                                                                                    21190   CORRESPONDENTE ESPIR                         00000000015235120000000000000000000020210720048         3                                                                                                                                                                                                                                                                                                                                                                                                                                                                                                                                                                                                            000000000000013751                                                                                                 
1012024113025       038720003574                  FSEG    038720003574                  03872   NOVACAO COBRANC                                                                                   03872   NOVACAO COBRANCA CON                         00000000017823300000000000000000000020230825051         1                                                                                                                                                                                                                                                                                                                                                                                                                                                                                                                                                                                                            000000000000009500                                                                                                 
1012024113025       038720000536                  FSEG    038720000536                  03872   NOVACAO COBRANC                                                                                   03872   NOVACAO COBRANCA CON                         00000000013737690000000000000000000020220526034         1                                                                                                                                                                                                                                                                                                                                                                                                                                                                                                                                                                                                            000000000000012000                                                                                                 
1012024113025       038720002090                  FSEG    038720002090                  03872   NOVACAO COBRANC                                                                                   03872   NOVACAO COBRANCA CON                         00000000020915570000000000000000000020230207047         3                                                                                                                                                                                                                                                                                                                                                                                                                                                                                                                                                                                                            000000000000015900                                                                                                 
1012024113025       032020018204                  REFF    032020018204                  03202   CORRESPONDENTE                                                                                    03202   CORRESPONDENTE CEARA                         00000000049938930000000000000000000020231026048         1                                                                                                                                                                                                                                                                                                                                                                                                                                                                                                                                                                                                            000000000000020166                                                                                                 
1012024113025       030120040020                  UTLF    030120040020                  03012   CORRESPONDENTE                                                                                    03012   CORRESPONDENTE RIO D                         00000000020174800000000000000000000020201026048         1                                                                                                                                                                                                                                                                                                                                                                                                                                                                                                                                                                                                            000000000000018952                                                                                                 
1012024113025       211570017102                  PARF    211570017102                  21157   CORRESPONDENTE                                                                                    21157   CORRESPONDENTE BAHIA                         00000000033796860000000000000000000020220126060         1                                                                                                                                                                                                                                                                                                                                                                                                                                                                                                                                                                                                            000000000000019911                                                                                                 
1012024113025       038720004159                  FSEG    038720004159                  03872   NOVACAO COBRANC                                                                                   03872   NOVACAO COBRANCA CON                         00000000002060180000000000000000000020240115015         3                                                                                                                                                                                                                                                                                                                                                                                                                                                                                                                                                                                                            000000000000015500                                                                                                 
1012024113025       038720000688                  FSEG    038720000688                  03872   NOVACAO COBRANC                                                                                   03872   NOVACAO COBRANCA CON                         00000000023433190000000000000000000020220526060         1                                                                                                                                                                                                                                                                                                                                                                                                                                                                                                                                                                                                            000000000000014800                                                                                                 
1012024113025       026420013676                  REFF    026420013676                  02642   CORRESPONDENTE                                                                                    02642   CORRESPONDENTE - MAT                         00000000067734330000000000000000000020220727036         1                                                                                                                                                                                                                                                                                                                                                                                                                                                                                                                                                                                                            000000000000022199                                                                                                 
1012024113035       021820003197                  ESPF    021820003197                  2024091300000043                000000000016673500000000000000000000000000000000000000000000000000000000000000000000000000   060   1                             20240913                      
1012024113035       022800018806                  PARF    022800018806                  2024092500000023                000000000013851400000000000000000000000000000000000000000000000000000000000000000000000000   036   1                             20240925                      
1012024113035       022800018806                  PARF    022800018806                  2024102500000024                000000000013851400000000000000000000000000000000000000000000000000000000000000000000000000   036   1                             20241025                      
1012024113035       022800018806                  PARF    022800018806                  2024112500000025                000000000013851400000000000000000000000000000000000000000000000000000000000000000000000000   036   1                             20241125                      
1012024113035       022800018806                  PARF    022800018806                  2024122500000026                000000000013851400000000000000000000000000000000000000000000000000000000000000000000000000   036   1                             20241225                      
1012024113035       022800018806                  PARF    022800018806                  2025012500000027                000000000013851400000000000000000000000000000000000000000000000000000000000000000000000000   036   1                             20250125                      
1012024113035       022800018806                  PARF    022800018806                  2025022500000028                000000000013851400000000000000000000000000000000000000000000000000000000000000000000000000   036   1                             20250225                      
1012024113035       022800018806                  PARF    022800018806                  2025032500000029                000000000013851400000000000000000000000000000000000000000000000000000000000000000000000000   036   1                             20250325                      
1012024113035       022800018806                  PARF    022800018806                  2025042500000030                000000000013851400000000000000000000000000000000000000000000000000000000000000000000000000   036   1                             20250425                      
1012024113035       022800018806                  PARF    022800018806                  2025052500000031                000000000013851400000000000000000000000000000000000000000000000000000000000000000000000000   036   1                             20250525                      
1012024113035       022800018806                  PARF    022800018806                  2025062500000032                000000000013851400000000000000000000000000000000000000000000000000000000000000000000000000   036   1                             20250625                      
1012024113035       022800018806                  PARF    022800018806                  2025072500000033                000000000013851400000000000000000000000000000000000000000000000000000000000000000000000000   036   1                             20250725                      
1012024113035       022800018806                  PARF    022800018806                  2025082500000034                000000000013851400000000000000000000000000000000000000000000000000000000000000000000000000   036   1                             20250825                      
1012024113035       022800018806                  PARF    022800018806                  2025092500000035                000000000013851400000000000000000000000000000000000000000000000000000000000000000000000000   036   1                             20250925                      
1012024113035       022800018806                  PARF    022800018806                  2025102500000036                000000000013851400000000000000000000000000000000000000000000000000000000000000000000000000   036   1                             20251025                      
1012024113035       025950063863                  REFF    025950063863                  2024081800000021                000000000007127500000000000000000000000000000000000000000000000000000000000000000000000000   036   1                             20240818                      
1012024113035       025950063863                  REFF    025950063863                  2024091800000022                000000000007127500000000000000000000000000000000000000000000000000000000000000000000000000   036   1                             20240918                      
1012024113035       025950063863                  REFF    025950063863                  2024101800000023                000000000007127500000000000000000000000000000000000000000000000000000000000000000000000000   036   1                             20241018                      
1012024113035       025950063863                  REFF    025950063863                  2024111800000024                000000000007127500000000000000000000000000000000000000000000000000000000000000000000000000   036   1                             20241118                      
1012024113035       026420013676                  REFF    026420013676                  2024092500000025                000000000031850900000000000000000000000000000000000000000000000000000000000000000000000000   036   1                             20240925                      
1012024113035       026420013676                  REFF    026420013676                  2024102500000026                000000000031850900000000000000000000000000000000000000000000000000000000000000000000000000   036   1                             20241025                      
1012024113035       026420013676                  REFF    026420013676                  2024112500000027                000000000031850900000000000000000000000000000000000000000000000000000000000000000000000000   036   1                             20241125                      
1012024113035       026420013676                  REFF    026420013676                  2024122500000028                000000000031850900000000000000000000000000000000000000000000000000000000000000000000000000   036   1                             20241225                      
1012024113035       026420013676                  REFF    026420013676                  2025012500000029                000000000031850900000000000000000000000000000000000000000000000000000000000000000000000000   036   1                             20250125                      
1012024113035       026420013676                  REFF    026420013676                  2025022500000030                000000000031850900000000000000000000000000000000000000000000000000000000000000000000000000   036   1                             20250225                      
1012024113035       026420013676                  REFF    026420013676                  2025032500000031                000000000031850900000000000000000000000000000000000000000000000000000000000000000000000000   036   1                             20250325                      
1012024113035       026420013676                  REFF    026420013676                  2025042500000032                000000000031850900000000000000000000000000000000000000000000000000000000000000000000000000   036   1                             20250425                      
1012024113035       026420013676                  REFF    026420013676                  2025052500000033                000000000031850900000000000000000000000000000000000000000000000000000000000000000000000000   036   1                             20250525                      
1012024113035       026420013676                  REFF    026420013676                  2025062500000034                000000000031850900000000000000000000000000000000000000000000000000000000000000000000000000   036   1                             20250625                      
1012024113035       026420013676                  REFF    026420013676                  2025072500000035                000000000031850900000000000000000000000000000000000000000000000000000000000000000000000000   036   1                             20250725                      
1012024113035       026420013676                  REFF    026420013676                  2025082500000036                000000000031850900000000000000000000000000000000000000000000000000000000000000000000000000   036   1                             20250825                      
1012024113035       026810011435                  FCDC    026810011435                  2024071900000022                000000000022826700000000000000000000000000000000000000000000000000000000000000000000000000   024   1                             20240719                      
1012024113035       027820003902                  ESPF    027820003902                  2024092500000042                000000000015776700000000000000000000000000000000000000000000000000000000000000000000000000   048   1                             20240925                      
1012024113035       027820003902                  ESPF    027820003902                  2024102500000043                000000000015776700000000000000000000000000000000000000000000000000000000000000000000000000   048   1                             20241025                      
1012024113035       027820003902                  ESPF    027820003902                  2024112500000044                000000000015776700000000000000000000000000000000000000000000000000000000000000000000000000   048   1                             20241125                      
1012024113035       027820003902                  ESPF    027820003902                  2024122500000045                000000000015776700000000000000000000000000000000000000000000000000000000000000000000000000   048   1                             20241225                      
1012024113035       027820003902                  ESPF    027820003902                  2025012500000046                000000000015776700000000000000000000000000000000000000000000000000000000000000000000000000   048   1                             20250125                      
1012024113035       027820003902                  ESPF    027820003902                  2025022500000047                000000000015776700000000000000000000000000000000000000000000000000000000000000000000000000   048   1                             20250225                      
1012024113035       027820003902                  ESPF    027820003902                  2025032500000048                000000000015776700000000000000000000000000000000000000000000000000000000000000000000000000   048   1                             20250325                      
1012024113035       030120040020                  UTLF    030120040020                  2024092500000047                000000000016548800000000000000000000000000000000000000000000000000000000000000000000000000   048   1                             20240925                      
1012024113035       030120040020                  UTLF    030120040020                  2024102500000048                000000000016548800000000000000000000000000000000000000000000000000000000000000000000000000   048   1                             20241025                      
1012024113035       032020018204                  REFF    032020018204                  2024092500000011                000000000016884200000000000000000000000000000000000000000000000000000000000000000000000000   048   1                             20240925                      
1012024113035       032020018204                  REFF    032020018204                  2024102500000012                000000000016884200000000000000000000000000000000000000000000000000000000000000000000000000   048   1                             20241025                      
1012024113035       032020018204                  REFF    032020018204                  2024112500000013                000000000016884200000000000000000000000000000000000000000000000000000000000000000000000000   048   1                             20241125                      
1012024113035       032020018204                  REFF    032020018204                  2024122500000014                000000000016884200000000000000000000000000000000000000000000000000000000000000000000000000   048   1                             20241225                      
1012024113035       032020018204                  REFF    032020018204                  2025012500000015                000000000016884200000000000000000000000000000000000000000000000000000000000000000000000000   048   1                             20250125                      
1012024113035       032020018204                  REFF    032020018204                  2025022500000016                000000000016884200000000000000000000000000000000000000000000000000000000000000000000000000   048   1                             20250225                      
1012024113035       032020018204                  REFF    032020018204                  2025032500000017                000000000016884200000000000000000000000000000000000000000000000000000000000000000000000000   048   1                             20250325                      
1012024113035       032020018204                  REFF    032020018204                  2025042500000018                000000000016884200000000000000000000000000000000000000000000000000000000000000000000000000   048   1                             20250425                      
1012024113035       032020018204                  REFF    032020018204                  2025052500000019                000000000016884200000000000000000000000000000000000000000000000000000000000000000000000000   048   1                             20250525                      
1012024113035       032020018204                  REFF    032020018204                  2025062500000020                000000000016884200000000000000000000000000000000000000000000000000000000000000000000000000   048   1                             20250625                      
1012024113035       032020018204                  REFF    032020018204                  2025072500000021                000000000016884200000000000000000000000000000000000000000000000000000000000000000000000000   048   1                             20250725                      
1012024113035       032020018204                  REFF    032020018204                  2025082500000022                000000000016884200000000000000000000000000000000000000000000000000000000000000000000000000   048   1                             20250825                      
1012024113035       032020018204                  REFF    032020018204                  2025092500000023                000000000016884200000000000000000000000000000000000000000000000000000000000000000000000000   048   1                             20250925                      
1012024113035       032020018204                  REFF    032020018204                  2025102500000024                000000000016884200000000000000000000000000000000000000000000000000000000000000000000000000   048   1                             20251025                      
1012024113035       032020018204                  REFF    032020018204                  2025112500000025                000000000016884200000000000000000000000000000000000000000000000000000000000000000000000000   048   1                             20251125                      
1012024113035       032020018204                  REFF    032020018204                  2025122500000026                000000000016884200000000000000000000000000000000000000000000000000000000000000000000000000   048   1                             20251225                      
1012024113035       032020018204                  REFF    032020018204                  2026012500000027                000000000016884200000000000000000000000000000000000000000000000000000000000000000000000000   048   1                             20260125                      
1012024113035       032020018204                  REFF    032020018204                  2026022500000028                000000000016884200000000000000000000000000000000000000000000000000000000000000000000000000   048   1                             20260225                      
1012024113035       032020018204                  REFF    032020018204                  2026032500000029                000000000016884200000000000000000000000000000000000000000000000000000000000000000000000000   048   1                             20260325                      
1012024113035       032020018204                  REFF    032020018204                  2026042500000030                000000000016884200000000000000000000000000000000000000000000000000000000000000000000000000   048   1                             20260425                      
1012024113035       032020018204                  REFF    032020018204                  2026052500000031                000000000016884200000000000000000000000000000000000000000000000000000000000000000000000000   048   1                             20260525                      
1012024113035       032020018204                  REFF    032020018204                  2026062500000032                000000000016884200000000000000000000000000000000000000000000000000000000000000000000000000   048   1                             20260625                      
1012024113035       032020018204                  REFF    032020018204                  2026072500000033                000000000016884200000000000000000000000000000000000000000000000000000000000000000000000000   048   1                             20260725                      
1012024113035       032020018204                  REFF    032020018204                  2026082500000034                000000000016884200000000000000000000000000000000000000000000000000000000000000000000000000   048   1                             20260825                      
1012024113035       032020018204                  REFF    032020018204                  2026092500000035                000000000016884200000000000000000000000000000000000000000000000000000000000000000000000000   048   1                             20260925                      
1012024113035       032020018204                  REFF    032020018204                  2026102500000036                000000000016884200000000000000000000000000000000000000000000000000000000000000000000000000   048   1                             20261025                      
1012024113035       032020018204                  REFF    032020018204                  2026112500000037                000000000016884200000000000000000000000000000000000000000000000000000000000000000000000000   048   1                             20261125                      
1012024113035       032020018204                  REFF    032020018204                  2026122500000038                000000000016884200000000000000000000000000000000000000000000000000000000000000000000000000   048   1                             20261225                      
1012024113035       032020018204                  REFF    032020018204                  2027012500000039                000000000016884200000000000000000000000000000000000000000000000000000000000000000000000000   048   1                             20270125                      
1012024113035       032020018204                  REFF    032020018204                  2027022500000040                000000000016884200000000000000000000000000000000000000000000000000000000000000000000000000   048   1                             20270225                      
1012024113035       032020018204                  REFF    032020018204                  2027032500000041                000000000016884200000000000000000000000000000000000000000000000000000000000000000000000000   048   1                             20270325                      
1012024113035       032020018204                  REFF    032020018204                  2027042500000042                000000000016884200000000000000000000000000000000000000000000000000000000000000000000000000   048   1                             20270425                      
1012024113035       032020018204                  REFF    032020018204                  2027052500000043                000000000016884200000000000000000000000000000000000000000000000000000000000000000000000000   048   1                             20270525                      
1012024113035       032020018204                  REFF    032020018204                  2027062500000044                000000000016884200000000000000000000000000000000000000000000000000000000000000000000000000   048   1                             20270625                      
1012024113035       032020018204                  REFF    032020018204                  2027072500000045                000000000016884200000000000000000000000000000000000000000000000000000000000000000000000000   048   1                             20270725                      
1012024113035       032020018204                  REFF    032020018204                  2027082500000046                000000000016884200000000000000000000000000000000000000000000000000000000000000000000000000   048   1                             20270825                      
1012024113035       032020018204                  REFF    032020018204                  2027092500000047                000000000016884200000000000000000000000000000000000000000000000000000000000000000000000000   048   1                             20270925                      
1012024113035       032020018204                  REFF    032020018204                  2027102500000048                000000000016884200000000000000000000000000000000000000000000000000000000000000000000000000   048   1                             20271025                      
1012024113035       035160006594                  FCDC    035160006594                  2024062900000013                000000000021055800000000000000000000000000000000000000000000000000000000000000000000000000   060   1                             20240629                      
1012024113035       035160006594                  FCDC    035160006594                  2024072900000014                000000000021055800000000000000000000000000000000000000000000000000000000000000000000000000   060   1                             20240729                      
1012024113035       035160006594                  FCDC    035160006594                  2024082900000015                000000000021055800000000000000000000000000000000000000000000000000000000000000000000000000   060   1                             20240829                      
1012024113035       035160006594                  FCDC    035160006594                  2024092900000016                000000000021055800000000000000000000000000000000000000000000000000000000000000000000000000   060   1                             20240929                      
1012024113035       035160006594                  FCDC    035160006594                  2024102900000017                000000000021055800000000000000000000000000000000000000000000000000000000000000000000000000   060   1                             20241029                      
1012024113035       035160006594                  FCDC    035160006594                  2024112900000018                000000000021055800000000000000000000000000000000000000000000000000000000000000000000000000   060   1                             20241129                      
1012024113035       035160006594                  FCDC    035160006594                  2024122900000019                000000000021055800000000000000000000000000000000000000000000000000000000000000000000000000   060   1                             20241229                      
1012024113035       035160006594                  FCDC    035160006594                  2025012900000020                000000000021055800000000000000000000000000000000000000000000000000000000000000000000000000   060   1                             20250129                      
1012024113035       035160006594                  FCDC    035160006594                  2025022800000021                000000000021055800000000000000000000000000000000000000000000000000000000000000000000000000   060   1                             20250228                      
1012024113035       035160006594                  FCDC    035160006594                  2025032900000022                000000000021055800000000000000000000000000000000000000000000000000000000000000000000000000   060   1                             20250329                      
1012024113035       035160006594                  FCDC    035160006594                  2025042900000023                000000000021055800000000000000000000000000000000000000000000000000000000000000000000000000   060   1                             20250429                      
1012024113035       035160006594                  FCDC    035160006594                  2025052900000024                000000000021055800000000000000000000000000000000000000000000000000000000000000000000000000   060   1                             20250529                      
1012024113035       035160006594                  FCDC    035160006594                  2025062900000025                000000000021055800000000000000000000000000000000000000000000000000000000000000000000000000   060   1                             20250629                      
1012024113035       035160006594                  FCDC    035160006594                  2025072900000026                000000000021055800000000000000000000000000000000000000000000000000000000000000000000000000   060   1                             20250729                      
1012024113035       035160006594                  FCDC    035160006594                  2025082900000027                000000000021055800000000000000000000000000000000000000000000000000000000000000000000000000   060   1                             20250829                      
1012024113035       035160006594                  FCDC    035160006594                  2025092900000028                000000000021055800000000000000000000000000000000000000000000000000000000000000000000000000   060   1                             20250929                      
1012024113035       035160006594                  FCDC    035160006594                  2025102900000029                000000000021055800000000000000000000000000000000000000000000000000000000000000000000000000   060   1                             20251029                      
1012024113035       035160006594                  FCDC    035160006594                  2025112900000030                000000000021055800000000000000000000000000000000000000000000000000000000000000000000000000   060   1                             20251129                      
1012024113035       035160006594                  FCDC    035160006594                  2025122900000031                000000000021055800000000000000000000000000000000000000000000000000000000000000000000000000   060   1                             20251229                      
1012024113035       035160006594                  FCDC    035160006594                  2026012900000032                000000000021055800000000000000000000000000000000000000000000000000000000000000000000000000   060   1                             20260129                      
1012024113035       035160006594                  FCDC    035160006594                  2026022800000033                000000000021055800000000000000000000000000000000000000000000000000000000000000000000000000   060   1                             20260228                      
1012024113035       035160006594                  FCDC    035160006594                  2026032900000034                000000000021055800000000000000000000000000000000000000000000000000000000000000000000000000   060   1                             20260329                      
1012024113035       035160006594                  FCDC    035160006594                  2026042900000035                000000000021055800000000000000000000000000000000000000000000000000000000000000000000000000   060   1                             20260429                      
1012024113035       035160006594                  FCDC    035160006594                  2026052900000036                000000000021055800000000000000000000000000000000000000000000000000000000000000000000000000   060   1                             20260529                      
1012024113035       035160006594                  FCDC    035160006594                  2026062900000037                000000000021055800000000000000000000000000000000000000000000000000000000000000000000000000   060   1                             20260629                      
1012024113035       035160006594                  FCDC    035160006594                  2026072900000038                000000000021055800000000000000000000000000000000000000000000000000000000000000000000000000   060   1                             20260729                      
1012024113035       035160006594                  FCDC    035160006594                  2026082900000039                000000000021055800000000000000000000000000000000000000000000000000000000000000000000000000   060   1                             20260829                      
1012024113035       035160006594                  FCDC    035160006594                  2026092900000040                000000000021055800000000000000000000000000000000000000000000000000000000000000000000000000   060   1                             20260929                      
1012024113035       035160006594                  FCDC    035160006594                  2026102900000041                000000000021055800000000000000000000000000000000000000000000000000000000000000000000000000   060   1                             20261029                      
1012024113035       035160006594                  FCDC    035160006594                  2026112900000042                000000000021055800000000000000000000000000000000000000000000000000000000000000000000000000   060   1                             20261129                      
1012024113035       035160006594                  FCDC    035160006594                  2026122900000043                000000000021055800000000000000000000000000000000000000000000000000000000000000000000000000   060   1                             20261229                      
1012024113035       035160006594                  FCDC    035160006594                  2027012900000044                000000000021055800000000000000000000000000000000000000000000000000000000000000000000000000   060   1                             20270129                      
1012024113035       035160006594                  FCDC    035160006594                  2027022800000045                000000000021055800000000000000000000000000000000000000000000000000000000000000000000000000   060   1                             20270228                      
1012024113035       035160006594                  FCDC    035160006594                  2027032900000046                000000000021055800000000000000000000000000000000000000000000000000000000000000000000000000   060   1                             20270329                      
1012024113035       035160006594                  FCDC    035160006594                  2027042900000047                000000000021055800000000000000000000000000000000000000000000000000000000000000000000000000   060   1                             20270429                      
1012024113035       035160006594                  FCDC    035160006594                  2027052900000048                000000000021055800000000000000000000000000000000000000000000000000000000000000000000000000   060   1                             20270529                      
1012024113035       035160006594                  FCDC    035160006594                  2027062900000049                000000000021055800000000000000000000000000000000000000000000000000000000000000000000000000   060   1                             20270629                      
1012024113035       035160006594                  FCDC    035160006594                  2027072900000050                000000000021055800000000000000000000000000000000000000000000000000000000000000000000000000   060   1                             20270729                      
1012024113035       035160006594                  FCDC    035160006594                  2027082900000051                000000000021055800000000000000000000000000000000000000000000000000000000000000000000000000   060   1                             20270829                      
1012024113035       035160006594                  FCDC    035160006594                  2027092900000052                000000000021055800000000000000000000000000000000000000000000000000000000000000000000000000   060   1                             20270929                      
1012024113035       035160006594                  FCDC    035160006594                  2027102900000053                000000000021055800000000000000000000000000000000000000000000000000000000000000000000000000   060   1                             20271029                      
1012024113035       035160006594                  FCDC    035160006594                  2027112900000054                000000000021055800000000000000000000000000000000000000000000000000000000000000000000000000   060   1                             20271129                      
1012024113035       035160006594                  FCDC    035160006594                  2027122900000055                000000000021055800000000000000000000000000000000000000000000000000000000000000000000000000   060   1                             20271229                      
1012024113035       035160006594                  FCDC    035160006594                  2028012900000056                000000000021055800000000000000000000000000000000000000000000000000000000000000000000000000   060   1                             20280129                      
1012024113035       035160006594                  FCDC    035160006594                  2028022800000057                000000000021055800000000000000000000000000000000000000000000000000000000000000000000000000   060   1                             20280228                      
1012024113035       035160006594                  FCDC    035160006594                  2028032900000058                000000000021055800000000000000000000000000000000000000000000000000000000000000000000000000   060   1                             20280329                      
1012024113035       035160006594                  FCDC    035160006594                  2028042900000059                000000000021055800000000000000000000000000000000000000000000000000000000000000000000000000   060   1                             20280429                      
1012024113035       035160006594                  FCDC    035160006594                  2028052900000060                000000000021055800000000000000000000000000000000000000000000000000000000000000000000000000   060   1                             20280529                      
1012024113035       035660019503                  FSEG    035660019503                  2024063000000047                000000000006743600000000000000000000000000000000000000000000000000000000000000000000000000   060   1                             20240630                      
