001202411302024113000000097
1012024113015       038720005106                  128142050803   FERNANDO MAGNO DE OLIVEIRA CASTRO            19800110                                                                                                                                                                                                                                                                                                                                                                                                                                       AVENIDA BAHIA                                     502                                                         INDAIA                   CARAGUATATUBA          SP11665071                                                                                          GERENTE - TODAS               AV PRESTES MAIA                                          430                                                  CENTRO                   CARAGUATATUBA          SP11660400                            NPE                                          2024102420241223                                                                                                                                                                                                                                                                       MS284258866                   000000000000000000        00000000R                    997094169           960961012                                                                       
1012024113015       050090003775                  113421471894   MARIA EDILENE SILVA                          19670115                                                                                                                                                                                                                                                                                                                                                                                                                                       R ULISSES CRUZ                                    668       195A                                              TATUAPE                  SAO PAULO              SP03077000                                                                                          OUTRAS                        R ULISSES CRUZ                                           668195A                                              TATUAPE                  SAO PAULO              SP03077000                            NPE                                          2024032520241223                                                                                                                                                                                                                                                                       FS22099193-5                  000000000000000000        00000000R                    960791201           960791201           ALLISON11CS@GMAIL.COM                                       
1012024113015       036280001555                  146735838840   LUCAS LOPES DA SILVA PASSOS                  19970820                                                                                                                                                                                                                                                                                                                                                                                                                                       R ALFREDO DE MELO                                 403                                                                                                           081108001140045215                                                                                                                                                                                                                                                                                                                  NPE                                          2022120720250103                                                                                                                                                                                                                                                                                                     000000000000000000        00000000R11987747502         987747502           982693220           CLEIDELPASSOS@YAHOO.COM.BR                                  
1012024113015       211040042140                  129064510881   VANDERLISA RITA MELETI                       19761231                                                                                                                                                                                                                                                                                                                                                                                                                                       R DA LIBERDADE                                    810                                                         JARDIM CALIFORNIA        FRANCA                 SP14405294                    NAO INFORMADO                                                         GERENTE - TODAS               R DA LIBERDADE                                           810                                                  JARDIM CALIFORNIA        FRANCA                 SP14405294                            NPE                                          2023112420241223                                                                                                                                                                                                                                                                       FS                            000000000000000000        00000000R                    993146223           1634067765                                                                      
1012024113015       050460002013                  107859881306   MARCIFRAN COSTA SOUSA JUNIOR                 20010404                                                                                                                                                                                                                                                                                                                                                                                                                                       AV TOMAZ REBELO                                   1073      APTO 407                                          CENTRO                   PIRIPIRI               PI64260000                                                                                          OUTRAS                        AV PRUDENTE DE MORAIS                                   4055                                                  LAGOA NOVA               NATAL                  RN59056200                            NPE                                          2023012420241223                                                                                                                                                                                                                                                                       MS4357486                     000000000000000000        00000000R86999500576         999500576           999500576           MARCIFRANJR296@GMAIL.COM                                    
1012024113015       027120016777                  112741138818   JOSE MOREIRA MACHADO                         19690727                                                                                                                                                                                                                                                                                                                                                                                                                                       R 14                                              124                                                         PRQ IMPERIAL             JACAREI                SP12329010                                                                                          OUTRAS                        R WLADEMIR OLIVEIRA FONSECA                              124                                                  PARQUE IMPERIAL          JACAREI                SP123290101240045215                  NPE                                          2023042420241223                                                                                                                                                                                                                                                                       MS22226853                    000000000000000000        00000000R12988487827         997196438           988070140           JOSEMOREIRA02017@GMAIL.COM                                  
1012024113015       211900035497                  176206610772   ROBERTO GOMES DE MORAES                      19620812                                                                                                                                                                                                                                                                                                                                                                                                                                       AV ATLANTICA                                      680       APTO 302                                          CENTRO                   MARATAIZES             ES29345000                                                                                          APOSENTADO                                                                                                                                                                                                                        NPE                                          2022122620241223                                                                                                                                                                                                                                                                       MS0230908324                  000000000000000000        00000000R28999816464         999816464           999816464           ROBERTO1281962@GMAIL.COM                                    
1012024113015       027320013968                  122698019468   MARLON ANTONIO DA SILVA                      19590604                                                                                                                                                                                                                                                                                                                                                                                                                                       R JUNDIAI                                         429       APT102                                            TIROL                    NATAL                  RN59020120                                                                                          APOSENTADO                                                                                                                                                                                                                        NPE                                          2023072420241223                                                                                                                                                                                                                                                                       MS2269801946                  000000000000000000        00000000R                    999920001           998338161           MARLON2SILVA@YAHOO.COM.BR                                   
1012024113015       038720002163                  195698280568   JURANDIR MARAMBAIA SANTOS                    19780615                                                                                                                                                                                                                                                                                                                                                                                                                                       R LAIS DOS REIS                                   SN        RUA BLANC 18                                      COSTA BARROS             RIO DE JANEIRO         RJ21650230                    N A                                                                   OUTRAS                        R LAIS DOS REIS                                          S-NRUA BLANC 18                                      COSTA BARROS             RIO DE JANEIRO         RJ21650230                            NPE                                          2023032420241223                                                                                                                                                                                                                                                                       FS264414012                   000000000000000000        00000000R21968033920         976990258           968033920           JURANDIRMARAMBAIA40@GMAIL.COM                               
1012024113015       211570024247                  186153267548   ARIVAL RODRIGUES SOUZA DE OLIVEIRA           19940901                                                                                                                                                                                                                                                                                                                                                                                                                                       JOSE LEITE                                        322       BLOCO APT FAMILY RESIDE                           CAJI                     LAURO DE FREITAS       BA42722020                                                                                          EMPRESARIO                    JOSE LEITE                                               322BLOCO  APT  FAMILY RESIDE                         CAJI                     LAURO DE FREITAS       BA42722020                            NPE                                          2023122620241223                                                                                                                                                                                                                                                                       MS1610063457                  000000000000000000        00000000R997241637                                                   ARIVALBAHIA5988@GMAIL.COM                                   
1012024113015       025950066490                  100518089002   JAIRSON FERNANDES CARABAJAL                  19830611                                                                                                                                                                                                                                                                                                                                                                                                                                       AVENIDA DEPUTADO FERNANDO                         624                                                         IPIRANGA                 URUGUAIANA             RS97507330                                                                                          OUTRAS                        AV DEPUTADO FERNANDO FERRARI                             624PORTAO LATERAL                                    IPIRANGA                 URUGUAIANA             RS97507330                            NPE                                          2022122620241229                                                                                                                                                                                                                                                                       MS0204510127                  000000000000000000        00000000R55996748365         33295266            33295266            JAIRSONFERNANDESCARABAJAL@GMAIL.COM                         
1012024113015       030120098139                  121893963870   ERIK BENEDITO DE ARAUJO                      19800615                                                                                                                                                                                                                                                                                                                                                                                                                                       R CLAUDIO MITSUHIRO KANO                          85                                                          RESIDENCIAL BOSQUE DOS IPSAO JOSE DOS CAMPOS    SP12236893                                                                                          OUTRAS                        R CLAUDIO MITSUHIRO KANO                                  85                                                  RESIDENCIAL BOSQUE DOS IPSAO JOSE DOS CAMPOS    SP12236893                            NPE                                          2023072420241223                                                                                                                                                                                                                                                                       MS0486045056                  000000000000000000        00000000R                    996436540           996436540                                                                       
1012024113015       032690031756                  104107069656   KELLY VIEIRA ARMOND                          19800508                                                                                                                                                                                                                                                                                                                                                                                                                                       R ROSEMBERG SILVA                                 192                                                         GOIANIA                  BELO HORIZONTE         MG31970000                    NAO INFORMADO                                                         GERENTE - TODAS               R ROSEMBERG SILVA                                        192                                                  GOIANIA                  BELO HORIZONTE         MG31970000                            NPE                                          2024052420241223                                                                                                                                                                                                                                                                       FS                            000000000000000000        00000000R                                                                                                                        
1012024113015       035160002877                  101789371341   ROZANA MONTEL CONGUER                        19861023                                                                                                                                                                                                                                                                                                                                                                                                                                       R CAMILO                                          4         C                                                 J DEUS                   SAO LUIS               MA65057360                                                                                          COSTUREIRA                                                                                                                                                                                                                        NPE                                          2022121420241223                                                                                                                                                                                                                                                                       FV0246362520                  000000000000000000        00000000R98988255406         987075415           987075415           CNMALHARIA@GMAIL.COM                                        
1012024113015       026810011505                  155468934191   ANDRE DA SILVA CERQUEIRA                     19710505                                                                                                                                                                                                                                                                                                                                                                                                                                       R ARIA                                            128                                                         VILA MORENINHA II        CAMPO GRANDE           MS79065131                    ANDRE CERQUEIRA                                                       GERENTE - TODAS               R ARIA                                                   128                                                  VILA MORENINHA II        CAMPO GRANDE           MS790651311120200222                  NPE                                          2023042420241223                                                                                                                                                                                                                                                                       MS6502900                     000000000000000000        00000000R999834044           999837681           999833027           CONP_ART@UOL.COM.BR                                         
1012024113015       055410000969                  118212877892   MARCO VINICIUS GAZZOTTI SANTOS               19730226                                                                                                                                                                                                                                                                                                                                                                                                                                       ESPERANCA                                         1360      APT                                               MANAIRA                  JOAO PESSOA            PB58038280                    NENHUMA                                                               GERENTE - TODAS               ESPERANCA                                               1360APT                                               MANAIRA                  JOAO PESSOA            PB58038280                            NPE                                          2024052420241223                                                                                                                                                                                                                                                                       MS10715152                    000000000000000000        00000000R981999922           988886228           971395869           MARCOGAZZOTTISANTOS@GMAIL.COM                               
1012024113015       038720004721                  117922731850   DANIEL NIGRO                                 19750304                                                                                                                                                                                                                                                                                                                                                                                                                                       R MOREIRA DE BARROS                               1555      BL 1 AP 161                                       L PAULISTA               SAO PAULO              SP02430000                                                                                          OUTROS                        R MOREIRA DE BARROS                                     1555BL 1 AP 161                                       L PAULISTA               SAO PAULO              SP02430000                            NPE                                          2024053120250103                                                                                                                                                                                                                                                                       MO                            000000000000000000        00000000R                    992299195           25944648                                                                        
1012024113015       022800015383                  101546027106   MARCELO ILIDIO DA SILVA                      19810919                                                                                                                                                                                                                                                                                                                                                                                                                                       RUA AMAZONAS                                      SN        Q 38 L 2                                          JD ANA AMAZONAS          JARAGUA                GO76330000                                                                                          OUTRAS                        RUA AMAZONAS                                              00Q 38 L 2                                          JD ANA AMAZONAS          JARAGUA                GO763300006239350000                  NPE                                          2023042420241223                                                                                                                                                                                                                                                                       MS4967950                     000000000000000000        00000000R62984643332         984643332           984643332                                                                       
1012024113015       034560000102                  149150294920   CLEMIR CAVALHEIRO                            19631120                                                                                                                                                                                                                                                                                                                                                                                                                                       R LEONARDO PIANOWSKI                              1065                                                        PINHEIRINHO              CURITIBA               PR81150330                    J. R. COMPANY                                                         GERENTE - TODAS               RUA BENJAMIM NEGOSEKI                                  18526                                                  CACHOEIRA                SAO JOSE DOS PINHAIS   PR831810004133881472                  NPE                                          2023031320241212                                                                                                                                                                                                                                                                       MS51603478                    000000000000000000        00000000R41995713034         995713034           995713034           JUCIMARAPADILHA1234@GMAIL.COM                               
1012024113015       005200022915                  111092204997   FABIO HENRIQUE RECK                          19991017                                                                                                                                                                                                                                                                                                                                                                                                                                       R TINGUIS                                         1360                                                        SANTA CRUZ               CASCAVEL               PR85806280                    ANA V MACHADO E CIA LTDA                                              GERENTE - TODAS               R ERECHIM                                               1884                                                  CENTRO                   CASCAVEL               PR85812260                            NPE                                          2022110520241223                                                                                                                                                                                                                                                                       MS0702530141                  000000000000000000        00000000R45998417206         998417206           30377900            FABIORECK321@GMAIL.COM                                      
1012024113015       035210005559                  133753705802   DANIELA DALLA MARIGA DA SILVA                19840606                                                                                                                                                                                                                                                                                                                                                                                                                                       R BERNARDO DE CLARAVAL                            50                                                          JARDIM POUSO ALEGRE      SAO PAULO              SP04832000                                                                                          OUTRAS                        R BERNARDO DE CLARAVAL                                    50                                                  JARDIM POUSO ALEGRE      SAO PAULO              SP04832000                            NPE                                          2024102820241223                                                                                                                                                                                                                                                                       FS27350330-3                  000000000000000000        00000000R                    971747191           971747191                                                                       
1012024113015       025950067815                  129838199818   MARIA SHIRLEY PEREIRA FIGUEIREDO             19821026                                                                                                                                                                                                                                                                                                                                                                                                                                       R MARIO AUGUSTO CLETO                             10                                                          VILA MONTEIRO            POA                    SP08557460                    HOSPITAL IPIRANGA                                                     GERENTE - TODAS               R IPIRANGA                                               876                                                  CENTRO                   MOGI DAS CRUZES        SP08717000                            NPE                                          2023022420241223                                                                                                                                                                                                                                                                       FS34300401X                   000000000000000000        00000000R11962818268         962818268           950400650           CRISFIGA82@GMAIL.COM                                        
1012024113015       038090002171                  188627675953   ROSELI DE FATIMA GONCALVES SILVA             19740702                                                                                                                                                                                                                                                                                                                                                                                                                                       GOSLAR                                            199       CASA                                              JARDIM FRANKFURT         MARECHAL CANDIDO RON   PR85960000                    NENHUMA                                                               GERENTE - TODAS               GOSLAR                                                   199CASA                                              JARDIM FRANKFURT         MARECHAL CANDIDO RON   PR85960000                            NPE                                          2023102420241223                                                                                                                                                                                                                                                                       MS59604929                    000000000000000000        00000000R                    988071174           988071174                                                                       
1012024113015       030120103999                  105632515737   FELIPPE SOUZA ANDRADE CORREA JORGE           19860104                                                                                                                                                                                                                                                                                                                                                                                                                                       R JOAO VALENTIM TAVARES                           69                                                          PIRATININGA              NITEROI                RJ24358160                                                                                                                                                                                                                                                                                                                            NPE                                          2024042420241223                                                                                                                                                                                                                                                                       MO                            000000000000000000        00000000R21964674305         964674305           964674305                                                                       
1012024113015       038720001653                  137880250263   FRANCISCO RODRIGUES DOS SANTOS JUNIOR        19701129                                                                                                                                                                                                                                                                                                                                                                                                                                       Q DOIS                                            1         FL 15                                             NOVA MARABA              MARABA                 PA685103209433233026                                                                                OUTRAS                        Q DOIS                                                     1FL 15                                             NOVA MARABA              MARABA                 PA68510320                            NPE                                          2024112620241223                                                                                                                                                                                                                                                                       MS0024678994                  000000000000000000        00000000R992391252           33233026            33233026            FRJUNIORVP7@GMAIL.COM                                       
1012024113015       054890000137                  104827942323   REENELYS BARBOSA DE SOUSA                    19900716                                                                                                                                                                                                                                                                                                                                                                                                                                       AV DEZENOVE DE OUTUBRO                            907                                                         LOURIVAL PARENTE         TERESINA               PI64022132                                                                                          EMPRESARIO                                                                                                                                                                                                                        NPE                                          2024052320241222                                                                                                                                                                                                                                                                       MS                            000000000000000000        00000000R994454086                                                                                                               
1012024113015       026810009927                  173399574134   CRISTOBAL RAMON GODOY                        19751116                                                                                                                                                                                                                                                                                                                                                                                                                                       TV LEOLINO ALVES FERREIRA                         48                                                          RESIDENCIAL SOTER        CAMPO GRANDE           MS79023835                                                                                          OUTRAS                        TV LEOLINO ALVES FERREIRA                                 48                                                  RESIDENCIAL SOTER        CAMPO GRANDE           MS790238351140045215                  NPE                                          2023042420241223                                                                                                                                                                                                                                                                       MSV370269F                    000000000000000000        00000000R67992896681         992896681           992896681           CRISTOBALRAMON5@GMAIL.COM                                   
1012024113015       036100004653                  139480834871   JAQUELINE PATRICIA DA SILVA                  19890324                                                                                                                                                                                                                                                                                                                                                                                                                                       AL CRISANTEMOS                                    480                                                         CIDADE NOVA ARUJA        ARUJA                  SP07411355                                                                                          OUTRAS                        AL CRISANTEMOS                                           480                                                  CIDADE NOVA ARUJA        ARUJA                  SP07411355                            NPE                                          2023122620241223                                                                                                                                                                                                                                                                       FS                            000000000000000000        00000000R949366660                                                   BRIANIO@HOTMAIL.COM                                         
1012024113015       022280001074                  145069750810   WELLINGTON DANTAS DOS SANTOS                 20000223                                                                                                                                                                                                                                                                                                                                                                                                                                       R O                                               70                                                          JARDIM BRASILIA ZONA NORTSAO PAULO              SP02857090                                                                                          OUTRAS                        R O                                                       70                                                  JARDIM BRASILIA ZONA NORTSAO PAULO              SP02857090                            NPE                                          2022122620241223                                                                                                                                                                                                                                                                       MS50464617                    000000000000000000        00000000R11974581830         974581830           974581830           WELLINGTON.DANTAS1103@GMAIL.COM                             
1012024113015       029010003304                  128033459867   FABIANA DA SILVA BRUM                        19790220                                                                                                                                                                                                                                                                                                                                                                                                                                       AV ARICANDUVA                                     9254      TULIPA BLC AP53                                   JD COLONIAL              SAO PAULO              SP03951220                    PORTO SEGURO                                                                                        AL RIBEIRO DA SILVA                                      275                                                  C ELISEOS                SAO PAULO              SP01217011                            NPE                                          2024022620241223                                                                                                                                                                                                                                                                       FO41898521                    000000000000000000        00000000R11987377368                                                                                                             
1012024113015       027320006595                  103923923481   FRANCISCA PEDRO DE PONTES DOS ANJOS          19770427                                                                                                                                                                                                                                                                                                                                                                                                                                       R GANA                                            30                                                          VIDA NOVA                PARNAMIRIM             RN59147610                                                                                          OUTRAS                        R GANA                                                    30                                                  VIDA NOVA                PARNAMIRIM             RN591476101140045215                  NPE                                          2022112420241223                                                                                                                                                                                                                                                                       FS2020921                     000000000000000000        00000000R84994408070         996189918           32362590            BRANCAPONTES1@GMAIL.COM                                     
1012024113015       050060001608                  112398143805   NILZA SANTANA                                19691116                                                                                                                                                                                                                                                                                                                                                                                                                                       DOM PEDRO I                                       335       AP 72                                             VILA OSASCO              OSASCO                 SP06083010                    NENHUMA                                                               GERENTE - TODAS               DOM PEDRO I                                              335AP 72                                             VILA OSASCO              OSASCO                 SP06083010                            NPE                                          2024112620241223                                                                                                                                                                                                                                                                       MS19405411                    000000000000000000        00000000R                    973049863           973049863                                                                       
1012024113015       038720003025                  133361918820   KARINA DA SILVA SOUZA ARAUJO                 19850111                                                                                                                                                                                                                                                                                                                                                                                                                                       R LINCOLN JUNQUEIRA                               757       CASA 03                                           JARDIM SAO PEDRO         SAO PAULO              SP08420660                    N A                                                                   OUTRAS                        R LINCOLN JUNQUEIRA                                      757CASA 03                                           JARDIM SAO PEDRO         SAO PAULO              SP08420660                            NPE                                          2023062620241223                                                                                                                                                                                                                                                                       FS401742635                   000000000000000000        00000000R11939075505         999477023           939075505           CASSIO.NANDO.ARAUJO@GMAIL.COM                               
1012024113015       026980008433                  105920270829   RILDO RODRIGUES DE MELO                      19650816                                                                                                                                                                                                                                                                                                                                                                                                                                       SANTO ANDRE                                       22        SANTO ANDR                                        JARDIM SAO ROQU          SAO JOSE DO RIO        SP13720000                                                                                          APOSENTADO                                                                                                                                                                                                                        NPE                                          2023062620241223                                                                                                                                                                                                                                                                       MS15927935                    000000000000000000        00000000R19995315160         996279144           995315160           RILDO.R.MELO@GMAIL.COM                                      
1012024113015       030120093240                  163866650744   TERESA CRISTINA GIAROLLA RAMOS               19601228                                                                                                                                                                                                                                                                                                                                                                                                                                       AV OURO VERDE                                     414       APTO 302                                          OURO VERDE               RIO DAS OSTRAS         RJ28895421                                                                                          OUTRAS                        AV OURO VERDE                                            414APTO 302                                          OURO VERDE               RIO DAS OSTRAS         RJ28895421                            NPE                                          2023042420241223                                                                                                                                                                                                                                                                       FS046570297                   000000000000000000        00000000R22999252672         999252672           997792200           TECAGIARDEA@YAHOO.COM.BR                                    
1012024113015       004110009115                  126317488835   MARIA ELISETE VIDAL                          19761217                                                                                                                                                                                                                                                                                                                                                                                                                                       R SERIEMA                                         467                                                         CIDADE NOVA II           VARZEA PAULISTA        SP13221600                                                                                          OUTRAS                        R SERIEMA                                                467                                                  CIDADE NOVA II           VARZEA PAULISTA        SP13221600                            NPE                                          2023032420241223                                                                                                                                                                                                                                                                       FS28019005                    000000000000000000        00000000R11973843555         973843555           11974688240         ELISETEVIDAL0@GMAIL.COM                                     
1012024113015       030120042333                  107045730756   JOSE RICARDO DE SOUZA                        19770607                                                                                                                                                                                                                                                                                                                                                                                                                                       R CARMELINDA ZORTEA PARMIGIANI                    232       CASA 03                                           CANCELLI                 CASCAVEL               PR85811330                    CLUBE DE ASSOSIA. DE BENEFICIO                                        GERENTE - TODAS               R CARMELINDA ZORTEA PARMIGIANI                           232                                                  CANCELLI                 CASCAVEL               PR858113304531225100                  NPE                                          2023042420241223                                                                                                                                                                                                                                                                       MS0044889289                  000000000000000000        00000000R45974001939                                                 DANIELLE.RIC@HOTMAIL.COM                                    
1012024113015       050090000992                  137472406821   TATIANE DE SOUSA GONCALVES SILVA             19880509                                                                                                                                                                                                                                                                                                                                                                                                                                       R BAHIA                                           67                                                          JARDIM PAINEIRAS         SAO PAULO              SP05276505                                                                                          OUTRAS                        R BAHIA                                                   67                                                  JARDIM PAINEIRAS         SAO PAULO              SP052765051140045215                  NPE                                          2022120120250103                                                                                                                                                                                                                                                                       FS449964279                   000000000000000000        00000000R969358703           994751468           11959525089         TATIANEGON8@GMAIL.COM                                       
1012024113015       035900016879                  104576898388   MARCIEL DA PAIXAO SOUSA                      19901028                                                                                                                                                                                                                                                                                                                                                                                                                                       R JOAQUIM CARDOSO                                 6                                                           CONJUNTO RESIDENCIAL MORASAO PAULO              SP05281050                    NAO INFORMADO                                                         GERENTE - TODAS               R JOAQUIM CARDOSO                                          6                                                  CONJUNTO RESIDENCIAL MORASAO PAULO              SP05281050                            NPE                                          2024112620241223                                                                                                                                                                                                                                                                       MS                            000000000000000000        00000000R                                                                                                                        
1012024113015       049210001253                  118422979888   ALEXANDRE GOMES SCHAQUETTI                   19741219                                                                                                                                                                                                                                                                                                                                                                                                                                       CAP FRANCISCO P DA CUNHA                          17        CASA                                              CENTRO                   SERRA NEGRA            SP13930000                                                                                          OUTRAS                        CAP FRANCISCO P DA CUNHA                                  17CASA                                              CENTRO                   SERRA NEGRA            SP13930000                            NPE                                          2024112620241223                                                                                                                                                                                                                                                                       MS252361490                   000000000000000000        00000000R                                                                                                                        
1012024113015       037830009355                  140593224825   LILIAN SANTOS DA CRUZ                        19920325                                                                                                                                                                                                                                                                                                                                                                                                                                       R GUARIRI                                         355       BLOCO 11 AP 13                                    VILA SAO CARLOS          ITAQUAQUECETUBA        SP08599510                    NENHUMA                                                               GERENTE - TODAS               R GUARIRI                                                355BLOCO 11 AP 13                                    VILA SAO CARLOS          ITAQUAQUECETUBA        SP08599510                            NPE                                          2024092520241223                                                                                                                                                                                                                                                                       MS                            000000000000000000        00000000R                                                                                                                        
1012024113015       059630000214                  133973540802   ANA CAROLINA DIAZ                            19850317                                                                                                                                                                                                                                                                                                                                                                                                                                       R ALMIRANTE MARQUES DE LEAO                       656       APT 656                                           BELA VISTA               SAO PAULO              SP01330010                                                                                          OUTRAS                        R ALMIRANTE MARQUES DE LEAO                              656APT 656                                           BELA VISTA               SAO PAULO              SP01330010                            NPE                                          2024092520241223                                                                                                                                                                                                                                                                       FS                            000000000000000000        00000000R                    963256776           963256776           DIAZ.ANACAROL@GMAIL.COM                                     
1012024113015       211040044367                  115697430884   ZULEICA DE PAULA RODRIGUES                   19630314                                                                                                                                                                                                                                                                                                                                                                                                                                       R JOSE COSTA                                      147                                                         BORACEIA                 BERTIOGA               SP112711101140045215          NAO INFORMADO                                                         EMPRESARIO                    R JOSE COSTA                                             147                                                  BORACEIA                 BERTIOGA               SP11271110                            NPE                                          2024052420241223                                                                                                                                                                                                                                                                       FS                            000000000000000000        00000000R996148913           996148613           991229073           JOELBORACEIA@HOTMAIL.COM                                    
1012024113015       003640031199                  107068518893   IRIA DE FATIMA FRANCISCO                     19710616                                                                                                                                                                                                                                                                  1732262555                                                                                                                                                           RUA ALFREDO SAAD                                  150                                                         JD STA ROSA II           SAO JOSE DO RIO PRETO  SP15054501                    PREMIUMM FACIL CORRETORA DE SE                                        CORRETOR                      R JORGE TIBIRICA                                        3751                                                  VL STA CRUZ              SAO JOSE DO RIO PRETO  SP15014040                            NPE                                          2023033020241229                                                                                                                                                                                                                                                                       FV19873514                    000000000000000000        00000000R997828512           997888472           30131353            IRIA@PREMIUMMFACIL.COM.BR                                   
1012024113015       037820002119                  106284959435   RENAN MORAIS DOS SANTOS                      19870716                                                                                                                                                                                                                                                                                                                                                                                                                                       R DO MEIO 0990                                    368                                                         FERNAO VELHO             MACEIO                 AL57070410                                                                                          OUTRAS                        R DO MEIO 0990                                           368                                                  FERNAO VELHO             MACEIO                 AL57070410                            NPE                                          2022122620241228                                                                                                                                                                                                                                                                       MS0635029352                  000000000000000000        00000000R998352937           993887235           82988338247         PH.RENANMORAIS@GMAIL.COM                                    
1012024113015       031340009097                  100706824296   JOSENILTON SILVA DE JESUS                    19901023                                                                                                                                                                                                                                                                                                                                                                                                                                       AV SANTOS DUMONT                                  1211                                                        PERPETUO SOCORRO         BRAGANCA               PA68600000                    NESTLE BRASIL LTDA                                                    GERENTE - TODAS               AV SERZEDELO CORREA                                      805                                                  BATISTA CAMPOS           BELEM                  PA66033770                            NPE                                          2023012620241229                                                                                                                                                                                                                                                                       MS0628871785                  000000000000000000        00000000R987683623           993049268           92680676            IRAMPADILHA72@GMAIL.COM                                     
1012024113015       049210000319                  139684857934   HELENA SILVEIRA DOS SANTOS                   19551110                                                                                                                                                                                                                                                                                                                                                                                                                                       R ALBERTO FERRAREZZI                              143                                                         VILA BRIZZOLA            INDAIATUBA             SP13343490                                                                                          OUTRAS                        R ALBERTO FERRAREZZI                                     143                                                  VILA BRIZZOLA            INDAIATUBA             SP13343490                            NPE                                          2023122620241223                                                                                                                                                                                                                                                                       FS0238558496                  000000000000000000        00000000R981615017           999336838           1938347310          CONTATO@MSFITNESS.COM.BR                                    
1012024113015       211930013065                  103861243962   JOSEFINA RIBEIRO DOS SANTOS                  19831002                                                                                                                                                                                                                                                                                                                                                                                                                                       SEBASTIAO CARLOS BATISTA                          348                                                         SANTA CLARA              ITAPERUCU              PR83560000                                                                                                                                                                                                                                                                                                                            NPE                                          2023122620241223                                                                                                                                                                                                                                                                       FO89.431.255                  000000000000000000        00000000R                                                                                                                        
1012024113015       025530002972                  166255236587   SINDCLEI TELES DE FREITAS                    19730316                                                                                                                                                                                                                                                                                                                                                                                                                                       AL F                                              145       GREEN AP 201                                      JARDINS                  ARACAJU                SE49026103                    N A                                                                   OUTRAS                        AL F                                                     145GREEN AP 201                                      JARDINS                  ARACAJU                SE490261031140045215                  NPE                                          2023042420241223                                                                                                                                                                                                                                                                       MS1419640                     000000000000000000        00000000R79998055960         998055960           998055960           SINDCLEITELES@GMAIL.COM                                     
1012024113015       027320014671                  170470069406   ALEXANDRE VIEIRA DE CASTRO                   19960724                                                                                                                                                                                                                                                                                                                                                                                                                                       PO MONTE ALEGRE                                   33                                                          MONTE ALEGRE             TOUROS                 RN59584000                                                                                          OUTRAS                        PO MONTE ALEGRE                                           33                                                  MONTE ALEGRE             TOUROS                 RN59584000                            NPE                                          2024022620241223                                                                                                                                                                                                                                                                       MS002870490                   000000000000000000        00000000R                                                                                                                        
1012024113015       022800015111                  101347321110   ANA PATRICIA COSTA DOS SANTOS                19871120                                                                                                                                                                                                                                                                                                                                                                                                                                       R C175                                            SN        Q431 L20                                          JARDIM AMERICA           GOIANIA                GO74250290                                                                                          GERENTE - TODAS               R C175                                                    SN                                                  JARDIM AMERICA           GOIANIA                GO74250290                            NPE                                          2023012320241222                                                                                                                                                                                                                                                                       FS5694637                     000000000000000000        00000000R62991652230         991652230           991652230           PATYCOSTA87@GMAIL.COM                                       
1012024113015       036180003958                  130119921855   FELIPPE DA SILVA SACOMANO                    19820113                                                                                                                                                                                                                                                                  11995946255                                                                                                                                                          R VIRAJUBA                                        628                                                         BRASILANDIA              SAO PAULO              SP02847085                    EXTREMA ADM E COR SEGS                                                CORRETOR                      R VIRAJUBA                                               628                                                  BRASILANDIA              SAO PAULO              SP02847085                            NPE                                          2023012420241223                                                                                                                                                                                                                                                                       MS35314550                    000000000000000000        00000000R                    999757749           995946255                                                                       
1012024113015       038720003012                  131091159807   CELIO APARECIDO AMANCIO                      19820807                                                                                                                                                                                                                                                                                                                                                                                                                                       R TOKIO                                           199       CASA                                              VILA CIDADE JARDIM       AVARE                  SP18703200                                                                                          OUTRAS                        R TOKIO                                                  199CASA                                              VILA CIDADE JARDIM       AVARE                  SP18703200                            NPE                                          2023062620241223                                                                                                                                                                                                                                                                       MS432064254                   000000000000000000        00000000R                    999063412           999063412           AMANCIOCELIO3@GMAIL.COM                                     
1012024113015       021980011574                  121438704852   RODRIGO DE MELO VIVIANO                      19790811                                                                                                                                                                                                                                                                                                                                                                                                                                       R BOREBIS                                         110       CASA                                              CENTRO                   TUPA                   SP17600300                                                                                          OUTRAS                        R BOREBIS                                                110CASA                                              CENTRO                   TUPA                   SP17600300                            NPE                                          2024032520241223                                                                                                                                                                                                                                                                       MS284304323                   000000000000000000        00000000R14997040319         997040319           40045215            VIVIANORODRIGO@HOTMAIL.COM                                  
1012024113015       038190000145                  169331154100   ELMA CORREIA VIANA                           19700418                                                                                                                                                                                                                                                                                                                                                                                                                                       AV INDEPENDENCIA                                  926       QD943LT34 AP203                                   SETOR LESTE VILA NOVA    GOIANIA                GO74645010                    ALBA BEEF                                                             GERENTE - TODAS               R SAO JOAO                                              4765QDLLT18                                           PARQUE SAO JOAO          ANAPOLIS               GO75126205                            NPE                                          2024112620241223                                                                                                                                                                                                                                                                       FS2112774                     000000000000000000        00000000R62995778377         995778377           62993532593         ADELSON.PEREIRA@PORTOSEGURO.COM.BR                          
1012024113015       037820004883                  130197312837   GABRIELA FERNANDA DE ARAUJO C PLENS          19811207                                                                                                                                                                                                                                                                                                                                                                                                                                       AVENIDA JOAO DE BARRO                             1329                                                        VILLAGE SAINT CHARBE     ARACOIABA DA SERRA     SP18190000                                                                                          GERENTE - TODAS               AVENIDA JOAO DE BARRO                                   1329                                                  VILLAGE SAINT CHARBE     ARACOIABA DA SERRA     SP18190000                            NPE                                          2024052020241218                                                                                                                                                                                                                                                                       FS25430802                    000000000000000000        00000000R15981580080                                                 ALANPLENS@GMAIL.COM                                         
1012024113015       211040036509                  194568090806   EDILSON FELIX RIBEIRO                        19510617                                                                                                                                                                                                                                                                                                                                                                                                                                       R MOISES DE CORENA                                865       AP 12C                                            CIDADE TIRADENTES        SAO PAULO              SP08475170                                                                                          APOSENTADO                                                                                                                                                                                                                        NPE                                          2023042420241223                                                                                                                                                                                                                                                                       MS0059377112                  000000000000000000        00000000R11953338069         982909582           953338069           LEONARDOCLARENCIO@ICLOUD.COM                                
1012024113015       036290007174                  118035328824   WILSON DA SILVA MATOS                        19751217                                                                                                                                                                                                                                                                                                                                                                                                                                       TV NOVA                                           31                                                          DOS CASA                 SAO BERNARDO DO CAMPO  SP09841320                    BRASMETAL                                                             GERENTE - TODAS               R GOIAS                                                   51                                                  CANHEMA                  DIADEMA                SP099416901140707520          0       NPE                                          2022110520241223                                                                                                                                                                                                                                                                       MS261355557                   000000000000000000        00000000R961421077           962234960           954109699           WILSONMATOS123@OUTLOOK.COM                                  
1012024113015       030120049572                  174503944720   SUELY MATTOS DA SILVA SANTANA                19640614                                                                                                                                                                                                                                                                                                                                                                                                                                       R AFRA                                            SN        QUADRA 03 LOTE 49                                 VALE DO IPE              BELFORD ROXO           RJ26185155                                                                                          APOSENTADO                                                                                                                                                                                                                        NPE                                          2023022420241223                                                                                                                                                                                                                                                                       FS068317734                   000000000000000000        00000000R21992936145         992936145           976732673           SUELYMATTOS0300@GMAIL.COM                                   
1012024113015       003640025167                  178027560497   JOSE CARLOS DE MOURA SOUZA                   19711206                                                                                                                                                                                                                                                                                                                                                                                                                                       R PROPERCIO FERRAREZI                             1153      BL C AP 23                                        SAO FRANCISCO            SAO JOSE DO RIO PRETO  SP15086170                                                                                          EMPRESARIO                                                                                                                                                                                            6436226346                  NPE                                          2023042420241223                                                                                                                                                                                                                                                                       MS4165732                     000000000000000000        00000000R17991940774         992805812           991940774           CARLOSMOURA061271@GMAIL.COM                                 
1012024113015       005200024398                  103710727944   ALESSANDRO CESAR CARNEIRO                    19771020                                                                                                                                                                                                                                                                                                                                                                                                                                       RUA MADRE GERAL                                   15                                                          NOVO MUNDO               CURITIBA               PR81050495                                                                                          OUTRAS                        R ISIDORO CANESTRARO                                     260CS B                                              JARDIM SANTA HELENA      PIRAQUARA              PR83308500                            NPE                                          2023092520241223                                                                                                                                                                                                                                                                       MS78212330                    000000000000000000        00000000R987963210           987384082           987384082           CINTIAGOUDARD@GMAIL.COM                                     
1012024113015       211570007739                  193330456515   JONILDO DOS SANTOS                           19770623                                                                                                                                                                                                                                                                                                                                                                                                                                       MAR DA GAMBOA                                     S/N                                                         GAMBOA                   VERA CRUZ              BA44470000                                                                                          OUTRAS                        LOT CASTELO BRANCO RU A                                00054                                                  GAMBOA                   VERA CRUZ              BA44470000                            NPE                                          2022110520241229                                                                                                                                                                                                                                                                       MS875402232                   000000000000000000        00000000R71981737309         996813803           981737309           CARINA04BARBOSA@GMAIL.COM                                   
1012024113015       035210002006                  181128584204   GERMANO BESERRA DA SILVA NETO                19840420                                                                                                                                                                                                                                                                                                                                                                                                                                       R LUCRECIA MACIEL                                 333       BL 2 AP 37                                        VILA GUARANI Z SUL       SAO PAULO              SP04314130                    GPBR PARTICIPACOES LTDA.                                              ENGENHEIRO                                                                                                                                                                                                                        NPE                                          2023020720241204                                                                                                                                                                                                                                                                       MS54418435X                   000000000000000000        00000000R11986268294         986268294           986268294           MARCOANTONIOSEGUROS@HOTMAIL.COM                             
1012024113015       050320003129                  109647110600   LUCAS DONIZETE DE SOUZA                      19900427                                                                                                                                                                                                                                                                                                                                                                                                                                       R AMAPA                                           157                                                         R SANTANA I              LAVRAS                 MG37204107                                                                                          GERENTE - TODAS               R AMAPA                                                  157                                                  RESIDENCIAL SANTANA I    LAVRAS                 MG37204107                            NPE                                          2024080220250103                                                                                                                                                                                                                                                                       MS0438273162                  000000000000000000        00000000R35998119864         998119864           998119864           LUCAS.SOUZA1268@GMAIL.COM                                   
1012024113015       050320002202                  103739185694   SEBASTIAO ALEANDRO BITENCOURT                19780401                                                                                                                                                                                                                                                                                                                                                                                                                                       81 JOAO DE ARAUJO VIEIRA                          75                                                          15 DE NOVEMBRO           ITAMARATI DE MI        MG36788000                                                                                          EMPRESARIO                    81 JOAO DE ARAUJO VIEIRA                                  75                                                  15 DE NOVEMBRO           ITAMARATI DE MI        MG36788000                            NPE                                          2023092520241223                                                                                                                                                                                                                                                                       MS0373918569                  000000000000000000        00000000R32999276184         999817293           999276184           EDIVANIA_SILVEIRA@YAHOO.COM.BR                              
