001202411122024111200000080
1012024111215       026640000819                  111404742867   MARCOS AURELIO BETOLINI                      19711004                                                                                                                                                                                                                                                                                                                                                                                                                                       R SIMAO BORGES                                    186       AP 08                                             VILA MARIA ALTA          SAO PAULO              SP02128010                                                                                          OUTRAS                        R SIMAO BORGES                                           186AP 08                                             VILA MARIA ALTA          SAO PAULO              SP02128010                            NPE                                          2023010920520329                                                                                                                                                                                                                                                                       MS22046262                    000000000000000000        00000000R11964414837         964414837           964414837           BETOLILIMARCOS@GMAIL.COM                                    
1012024111215       030120086046                  112192538200   LILIA MARIA FONSECA DE AZEVEDO               19610409                                                                                                                                                                                                                                                                                                                                                                                                                                       R DOS PROVERBIOS                                  160       AP. 02 BL.4                                       SANTA CANDIDA            CURITIBA               PR82630220                                                                                          OUTRAS                        R DOS PROVERBIOS                                         160AP. 02 BL.                                        SANTA CANDIDA            CURITIBA               PR82630220                            NPE                                          2022120820520329                                                                                                                                                                                                                                                                       FS89962145                    000000000000000000        00000000R41997347818         997347818           4130779421          AZEVEDO.LILIA@HOTMAIL.COM                                   
1012024111215       035660018316                  171519866887   REYNALDO FERREIRA DE MELO                    19520417                                                                                                                                                                                                                                                                                                                                                                                                                                       RUA JOSE GAZOTO SOBRINHO                          223                                                         JARDIM DO LAGO           ENGENHEIRO COELHO      SP13445206                    N A                                                                   OUTRAS                        RUA JOSE GAZOTO SOBRINHO                                 223                                                  JARDIM DO LAGO           ENGENHEIRO COELHO      SP13445206                            NPE                                          2023011620520329                                                                                                                                                                                                                                                                       MS61235544                    000000000000000000        00000000R995939279           998389808           23762398            RENAN.LIMA13@ICLOUD.COM                                     
1012024111215       038720002374                  110444472908   GABRIEL SERGIO MARTINS                       19961206                                                                                                                                                                                                                                                                                                                                                                                                                                       EUGENIO FAGUNDES DE MORAES                        227       CASA                                              COBRE                    CANELINHA              SC88230000                                                                                          EMPRESARIO                    JOSE LOPES                                               129CASA                                              FAZENDA VITORIA          CANELINHA              SC88230000                            NPE                                          2023041320520328                                                                                                                                                                                                                                                                       MS0637611741                  000000000000000000        00000000R48996962573         996962573           996353788           GABRIELVIVI59@GMAIL.COM                                     
1012024111215       021130018305                  152001113072   ANA MARIA BRIXNER NUNES                      19710815                                                                                                                                                                                                                                                                                                                                                                                                                                       R AUGUSTO SPENGLER                                1171      AP 1004                                           STO INACIO               SANTA CRUZ DO SUL      RS96820020                                                                                                                                                                                                                                                                                                                            NPE                                          2022110520520329                                                                                                                                                                                                                                                                       FO7047825463                  000000000000000000        00000000R51991528777         999240701           991528777           ANA_DIDANUNES@HOTMAIL.COM                                   
1012024111215       035730001894                  192605842134   MIRIAM MARINHO COELHO                        19770530                                                                                                                                                                                                                                                                                                                                                                                                                                       R N 5                                             537       L10                                               VL JD PARAISO            JATAI                  GO75805320                    EMAGRESSE JATAI                                                                                     R N 5                                                     20                                                  VL JD PARAISO            JATAI                  GO75805320                            NPE                                          2023010920520329                                                                                                                                                                                                                                                                       FO4277049                     000000000000000000        00000000R64999254786         999552424           6436130727          MIRIAM.MARINHO.COELHO@GMAIL.COM                             
1012024111215       032020014573                  188859789320   CASSIA TEIXEIRA VITOR                        19790714                                                                                                                                                                                                                                                                                                                                                                                                                                       SITIO CACIMBA NOVA                                SN                                                          ZONA RURAL               MADALENA               CE63860000                    CONSELHO ESCOLAR DA E PADRE J                                         GERENTE - TODAS               SITIO SANTA CATARINA                                      SN                                                  ZONA RURAL               MADALENA               CE63860000                            NPE                                          2023010920520329                                                                                                                                                                                                                                                                       FS322441097                   000000000000000000        00000000R998244457           993373401           85981552209         CASSIAVITOR2013@GMAIL.COM.BR                                
1012024111215       038720004720                  107497315838   GILBERTO MARTINEZ CASQUEL                    19650703                                                                                                                                                                                                                                                                                                                                                                                                                                       EST MANOEL LAGES DO CHAO                          850       BLZ 16 AP                                         JARDIM CAIAPIA           COTIA                  SP06705050                                                                                          EMPRESARIO                    EST MANOEL LAGES DO CHAO                                 850                                                  JARDIM CAIAPIA           COTIA                  SP06705050                            NPE                                          2024070420520325                                                                                                                                                                                                                                                                       MS0749731583                  000000000000000000        00000000R11976873868         997634617           1137651017                                                                      
1012024111215       211570012526                  177973569553   JOILCE DE SANTANA DALTRO                     19760621                                                                                                                                                                                                                                                                                                                                                                                                                                       R PADRE ARSENIO DA FONSECA                        29                                                          PAU MIUDO                SALVADOR               BA40315510                                                                                          OUTRAS                        R PADRE ARSENIO DA FONSECA                                29                                                  PAU MIUDO                SALVADOR               BA403155101140045215                  NPE                                          2022110520520329                                                                                                                                                                                                                                                                       FS0510930492                  000000000000000000        00000000R984836666           992066532           920665229           JOILC354@GMAIL.COM                                          
1012024111215       038720003952                  109550132757   FABIANA LOPES MAGALHAES                      19810807                                                                                                                                                                                                                                                                                                                                                                                                                                       R FRANCISCO DRUMOND SOBRINHO                      23        23                                                ALTO CAJUEIROS           MACAE                  RJ279152802227913772          PREFEITURA MUNICIPAL DE MACAE                                         GERENTE - TODAS               R DENACH LIMA                                             01ESCOLA                                            CENTRO                   MACAE                  RJ27915530                            NPE                                          2024030820520329                                                                                                                                                                                                                                                                       FS0429681747                  000000000000000000        00000000R22997056242         999939087           27913772                                                                        
1012024111215       035900003637                  116890122852   JOAO REGINALDO LOPES INOCENCIO               19761224                                                                                                                                                                                                                                                                                                                                                                                                                                       R AMILCARE FORGHIERI                              267       CASA                                              JARDIM MELIUNAS          SAO PAULO              SP08111390                                                                                          OUTRAS                        R AMILCARE FORGHIERI                                     267CASA                                              JARDIM MELIUNAS          SAO PAULO              SP081113901140045215                  NPE                                          2022110820520329                                                                                                                                                                                                                                                                       MS0689436350                  000000000000000000        00000000R965681041           963897181           11978291477         PATRICIASB158@GMAIL.COM                                     
1012024111215       030120077039                  171589406753   ELIANE PIMENTA DE SOUZA                      19620203                                                                                                                                                                                                                                                                                                                                                                                                                                       R CRISTIANA                                       35        CASA                                              SAO GABRIEL              NOVA IGUACU            RJ26021660                                                                                          OUTRAS                        R CRISTIANA                                               35CASA                                              SAO GABRIEL              NOVA IGUACU            RJ260216602140045215                  NPE                                          2023010920520329                                                                                                                                                                                                                                                                       FS0568200807                  000000000000000000        00000000R21974095808         992218716           974095808                                                                       
1012024111215       025950068588                  116683082820   ANTONIO ALEXANDRE LEAL DA SILVA              19760415                                                                                                                                                                                                                                                                                                                                                                                                                                       R DOS COQUEIROS                                   1745      44 A                                              CAMPESTRE                SANTO ANDRE            SP09080010                    ENTERPRISE SERVICE BRASIL                                             GERENTE - TODAS               R JOSE VERSOLATO                                         10119 ANDAR                                          CENTRO                   SAO BERNARDO DO CAMPO  SP09750730                            NPE                                          2024010920520329                                                                                                                                                                                                                                                                       MS253685266                   000000000000000000        00000000R11995023978         995023978           11970158915         ANTONIOA.LEAL@GMAIL.COM                                     
1012024111215       025530003483                  100604591586   HERACLITO VIEIRA SANTOS                      19811027                                                                                                                                                                                                                                                                                                                                                                                                                                       POVOADO MALHADA                                   40        KM 4                                              ZONA RURAL               ADUSTINA               BA48435000                                                                                          OUTRAS                        POVOADO MALHADA                                           40KM 4                                              ZONA RURAL               ADUSTINA               BA484350001140045215                  NPE                                          2022120620520329                                                                                                                                                                                                                                                                       MS1447065                     000000000000000000        00000000R999047120           998811411           998811411           ERAKEVIEIRA@GMAIL.COM                                       
1012024111215       023790025361                  103297535172   PAULO SALVADOR MARTORELLI                    19490515                                                                                                                                                                                                                                                                                                                                                                                                                                       COND ESTANCIA JARDIM BOTANICO                     25        CASA CJ 1                                         SETOR HABITACIONAL JARDIMBRASILIA               DF71680365                                                                                          GERENTE - TODAS               COND ESTANCIA JARDIM BOTANICO                             25                                                  SETOR HABITACIONAL JARDIMBRASILIA               DF71680365                            NPE                                          2024010920520329                                                                                                                                                                                                                                                                       MS1620950                     000000000000000000        00000000R61983509160         983509160           983509160           NISSAN@BOM3.VSNL.NET.IN                                     
1012024111215       035900016474                  110547956819   JAIME RODRIGUES PINTO                        19710624                                                                                                                                                                                                                                                                                                                                                                                                                                       RUA TRAJANO REIS                                  777                                                         JARDIM DAS VERTENTES     SAO PAULO              SP05541030                                                                                          EMPRESARIO                    RUA TRAJANO REIS                                         777                                                  JARDIM DAS VERTENTES     SAO PAULO              SP05541030                            NPE                                          2024051520520329                                                                                                                                                                                                                                                                       MS                            000000000000000000        00000000R999260045           999895057           11961952313         NANCISP13@GMAIL.COM                                         
1012024111215       034960006452                  108538575473   ADILSON VARELO DE OLIVEIRA                   19881224                                                                                                                                                                                                                                                                                                                                                                                                                                       R PADRE NILDO DO AMARAL JUNIOR                    109                                                         VILA NOVA CURUCA         SAO PAULO              SP08032650                                                                                          OUTRAS                        R PADRE NILDO DO AMARAL JUNIOR                           109                                                  VILA NOVA CURUCA         SAO PAULO              SP08032650                            NPE                                          2024082620520329                                                                                                                                                                                                                                                                       MS                            000000000000000000        00000000R11987563136         987563136           11959755036         LIDI.VARELO.23@GMAIL.COM                                    
1012024111215       030340000500                  100377966908   LORENA CATARINA JACOMASSO                    19770130                                                                                                                                                                                                                                                                                                                                                                                                                                       R VICENTE RUTELIONIS                              449                                                         CAJURU                   CURITIBA               PR82940380                    PREFEITURA DE SAO JOSE DOS PIN                                        GERENTE - TODAS               R VICENTE RUTELIONIS                                     449                                                  CAJURU                   CURITIBA               PR82940380                            NPE                                          2023041120520329                                                                                                                                                                                                                                                                       FS63044245                    000000000000000000        00000000R                    995095994           41984859970         LENAJACOMASSO@GMAIL.COM                                     
10120241112Q5       021130018305                  997791571                   OUTROS                        
10120241112Q5       023790025361                  61983509160                 CELULAR                       
10120241112Q5       023790025361                  983509160                   OUTROS                        
10120241112Q5       025950068588                  1140045215                  RECADO                        
10120241112Q5       026640000819                  11964414837                 CELULAR                       
10120241112Q5       030120077039                  992218716                   OUTROS                        
10120241112Q5       030340000500                  995095994                   OUTROS                        
10120241112Q5       032020014573                  981552209                   OUTROS                        
10120241112Q5       034960006452                  11972049277                 OUTROS                        
10120241112Q5       034960006452                  11981800005                 OUTROS                        
10120241112Q5       035660018316                  982536658                   OUTROS                        
10120241112Q5       035900003637                  11978291477                 OUTROS                        
10120241112Q5       035900003637                  963897181                   OUTROS                        
10120241112Q5       038720003952                  27913772                    OUTROS                        
10120241112Q5       038720004720                  1137651017                  OUTROS                        
10120241112Q5       038720004720                  11949667923                 CELULAR                       
10120241112Q5       038720004720                  11976398312                 OUTROS                        
10120241112Q5       211570012526                  71992066532         4413    CELULAR                       
10120241112Q5       023790025361                  1140045215                  RECADO                        
10120241112Q5       025950068588                  995023978                   OUTROS                        
10120241112Q5       026640000819                  964414837                   OUTROS                        
10120241112Q5       032020014573                  88981947950                 CELULAR                       
10120241112Q5       035660018316                  995939279                   CELULAR                       
10120241112Q5       035730001894                  64996048171                 OUTROS                        
10120241112Q5       035900016474                  961955774                   CELULAR                       
10120241112Q5       038720002374                  996962573                   OUTROS                        
10120241112Q5       038720003952                  2227961154                  RECADO                        
10120241112Q5       038720003952                  22997056242                 CELULAR                       
10120241112Q5       038720003952                  999939087                   OUTROS                        
10120241112Q5       038720004720                  11971622652                 CELULAR                       
10120241112Q5       038720004720                  11997164413                 OUTROS                        
10120241112Q5       211570012526                  988599988                   OUTROS                        
10120241112Q5       025950068588                  11970158915                 OUTROS                        
10120241112Q5       030120086046                  41997347818                 CELULAR                       
10120241112Q5       030340000500                  41984859970                 OUTROS                        
10120241112Q5       032020014573                  85999923072                 OUTROS                        
10120241112Q5       032020014573                  981374469                   OUTROS                        
10120241112Q5       035660018316                  11998389808         RAFAEL  CELULAR                       
10120241112Q5       035660018316                  38579338                    OUTROS                        
10120241112Q5       038720004720                  11993121749                 OUTROS                        
10120241112Q5       038720004720                  11997164290                 OUTROS                        
10120241112Q5       038720004720                  13997341792                 OUTROS                        
10120241112Q5       211570012526                  1140045215                  COMERCIAL                     
10120241112Q5       211570012526                  991123482                   OUTROS                        
10120241112Q5       025950068588                  989375304                   OUTROS                        
10120241112Q5       030120086046                  4130779421                  OUTROS                        
10120241112Q5       030120086046                  997283761                   OUTROS                        
10120241112Q5       032020014573                  981947950                   OUTROS                        
10120241112Q5       032020014573                  998244457                   CELULAR                       
10120241112Q5       034960006452                  11959755036                 OUTROS                        
10120241112Q5       035660018316                  19993336124                 CELULAR                       
10120241112Q5       035660018316                  23762398                    OUTROS                        
10120241112Q5       035730001894                  64999058096         0       CELULAR                       
10120241112Q5       035900003637                  11963897181                 CELULAR                       
10120241112Q5       035900003637                  960242798                   OUTROS                        
10120241112Q5       035900016474                  1147874312                  RECADO                        
10120241112Q5       038720004720                  1140045215                  RECADO                        
10120241112Q5       038720004720                  11999312174                 OUTROS                        
10120241112Q5       211570012526                  71920665229         ANTONIO CELULAR                       
10120241112Q5       211570012526                  992066532                   OUTROS                        
10120241112Q5       021130018305                  51997791571                 CELULAR                       
10120241112Q5       021130018305                  995231116                   OUTROS                        
10120241112Q5       025950068588                  981891150                   OUTROS                        
10120241112Q5       032020014573                  85981552209                 OUTROS                        
10120241112Q5       034960006452                  1140045215                  RECADO                        
10120241112Q5       034960006452                  11987563136                 CELULAR                       
10120241112Q5       035660018316                  48991456418         RAFAEL  CELULAR                       
10120241112Q5       035660018316                  48991875680                 CELULAR                       
10120241112Q5       035660018316                  981772299                   OUTROS                        
10120241112Q5       035660018316                  998389808                   OUTROS                        
10120241112Q5       035730001894                  64999254786                 CELULAR                       
10120241112Q5       035730001894                  999254786                   OUTROS                        
10120241112Q5       035730001894                  999552424                   OUTROS                        
10120241112Q5       035900016474                  999260045                   CELULAR                       
10120241112Q5       038720004720                  1145516415                  OUTROS                        
10120241112Q5       038720004720                  11947432276                 CELULAR                       
10120241112Q5       038720004720                  11958578397                 CELULAR                       
10120241112Q5       038720004720                  958578397                   OUTROS                        
10120241112Q5       021130018305                  51991528777                 CELULAR                       
10120241112Q5       025530003483                  998811411                   OUTROS                        
10120241112Q5       025530003483                  999047120                   CELULAR                       
10120241112Q5       025950068588                  11989375304                 OUTROS                        
10120241112Q5       025950068588                  11995023978         0       CELULAR                       
10120241112Q5       030120077039                  2140045215                  COMERCIAL                     
10120241112Q5       030120077039                  974797650                   OUTROS                        
10120241112Q5       030120086046                  997347818                   OUTROS                        
10120241112Q5       032020014573                  993373401                   OUTROS                        
10120241112Q5       035660018316                  19974156303                 CELULAR                       
10120241112Q5       035660018316                  33522402                    OUTROS                        
10120241112Q5       035660018316                  973134348                   OUTROS                        
10120241112Q5       035660018316                  993336124                   OUTROS                        
10120241112Q5       035900016474                  11961952313                 OUTROS                        
10120241112Q5       035900016474                  999895057                   OUTROS                        
10120241112Q5       038720002374                  48996962573                 CELULAR                       
10120241112Q5       038720002374                  996353788                   OUTROS                        
10120241112Q5       038720003952                  2227913772                  RESIDENCIAL                   
10120241112Q5       038720004720                  11971611152                 CELULAR                       
10120241112Q5       038720004720                  11976873868                 CELULAR                       
10120241112Q5       038720004720                  947432276                   OUTROS                        
10120241112Q5       021130018305                  991528777                   OUTROS                        
10120241112Q5       025530003483                  75998811411                 CELULAR                       
10120241112Q5       030120077039                  21974095808                 CELULAR                       
10120241112Q5       030120077039                  974095808                   OUTROS                        
10120241112Q5       032020014573                  88981374469                 CELULAR                       
10120241112Q5       034960006452                  25139543                    OUTROS                        
10120241112Q5       034960006452                  984333871                   OUTROS                        
10120241112Q5       034960006452                  987563136                   OUTROS                        
10120241112Q5       035660018316                  991456418                   OUTROS                        
10120241112Q5       035730001894                  6436130727                  OUTROS                        
10120241112Q5       035730001894                  64999067255                 OUTROS                        
10120241112Q5       035730001894                  999058096                   OUTROS                        
10120241112Q5       035900003637                  11934852270                 CELULAR                       
10120241112Q5       035900003637                  11960242798                 CELULAR                       
10120241112Q5       035900003637                  934852270                   OUTROS                        
10120241112Q5       035900003637                  965681041                   CELULAR                       
10120241112Q5       038720003952                  997056242                   OUTROS                        
10120241112Q5       038720004720                  11971617802                 CELULAR                       
10120241112Q5       038720004720                  11988116825                 OUTROS                        
10120241112Q5       038720004720                  997634617                   OUTROS                        
10120241112Q5       021130018305                  999240701                   OUTROS                        
10120241112Q5       025530003483                  996366007                   CELULAR                       
10120241112Q5       025950068588                  970158915                   OUTROS                        
10120241112Q5       034960006452                  11987462724                 OUTROS                        
10120241112Q5       035660018316                  11973134348         0       CELULAR                       
10120241112Q5       035660018316                  974156303                   OUTROS                        
10120241112Q5       035660018316                  991875680                   OUTROS                        
10120241112Q5       035730001894                  64999552424                 OUTROS                        
10120241112Q5       035900003637                  1140045215                  COMERCIAL                     
10120241112Q5       035900003637                  11997185916                 CELULAR                       
10120241112Q5       038720004720                  13997634617                 OUTROS                        
10120241112Q5       211570012526                  71988599988         4413    CELULAR                       
10120241112Q5       211570012526                  920665229                   OUTROS                        
10120241112Q5       211570012526                  984836666                   CELULAR                       
1012024111225       021130018305                  REFF    021130018305                  02113   PORTOSUL - RS                                                                                     02113   PORTOSUL - RS                                00000000023521830000000000000000000020220407036         1                                                                                                                                                                                                                                                                                                                                                                                                                                                                                                                                                                                                            000000000000023355                                                                                                 
1012024111225       035900016474                  REFF    035900016474                  03590   REGIONAL SAO PA                                                                                   03590   REGIONAL SAO PAULO                           00000000068645280000000000000000000020240411024         1                                                                                                                                                                                                                                                                                                                                                                                                                                                                                                                                                                                                            000000000000035597                                                                                                 
1012024111225       038720002374                  FSEG    038720002374                  03872   NOVACAO COBRANC                                                                                   03872   NOVACAO COBRANCA CON                         00000000029776460000000000000000000020230307035         1                                                                                                                                                                                                                                                                                                                                                                                                                                                                                                                                                                                                            000000000000017100                                                                                                 
1012024111225       038720003759                  FSEG    038720003759                  03872   NOVACAO COBRANC                                                                                   03872   NOVACAO COBRANCA CON                         00000000005896270000000000000000000020231002036         3                                                                                                                                                                                                                                                                                                                                                                                                                                                                                                                                                                                                            000000000000029300                                                                                                 
1012024111225       025950068588                  REFF    025950068588                  02595   CORRESPONDENTE                                                                                    02595   CORRESPONDENTE CREDI                         00000000030146040000000000000000000020221109024         1                                                                                                                                                                                                                                                                                                                                                                                                                                                                                                                                                                                                            000000000000022283                                                                                                 
1012024111225       032020014573                  REFF    032020014573                  03202   CORRESPONDENTE                                                                                    03202   CORRESPONDENTE CEARA                         00000000016303480000000000000000000020221007036         1                                                                                                                                                                                                                                                                                                                                                                                                                                                                                                                                                                                                            000000000000024295                                                                                                 
1012024111225       038720001294                  FSEG    038720001294                  03872   NOVACAO COBRANC                                                                                   03872   NOVACAO COBRANCA CON                         00000000014863320000000000000000000020220929060         3                                                                                                                                                                                                                                                                                                                                                                                                                                                                                                                                                                                                            000000000000015000                                                                                                 
1012024111225       038720002706                  FSEG    038720002706                  03872   NOVACAO COBRANC                                                                                   03872   NOVACAO COBRANCA CON                         00000000009986230000000000000000000020230425022         3                                                                                                                                                                                                                                                                                                                                                                                                                                                                                                                                                                                                            000000000000012500                                                                                                 
1012024111225       030340000500                  ESPF    030340000500                  03034   BERTI VEICULOS                                                                                    00520   CORRESPONDENTE PARAN                         00000000023414030000000000000000000020221208024         1                                                                                                                                                                                                                                                                                                                                                                                                                                                                                                                                                                                                            000000000000022274                                                                                                 
1012024111225       030120077039                  PARF    030120077039                  03012   CORRESPONDENTE                                                                                    03012   CORRESPONDENTE RIO D                         00000000037044390000000000000000000020220308060         1                                                                                                                                                                                                                                                                                                                                                                                                                                                                                                                                                                                                            000000000000023211                                                                                                 
1012024111225       026640000819                  ESPF    026640000819                  02664   FERNANDO MONTEI                                                                                   02332   M R S NEGOCIOS CORRE                         00000000030454290000000000000000000020220429036         1                                                                                                                                                                                                                                                                                                                                                                                                                                                                                                                                                                                                            000000000000023204                                                                                                 
1012024111225       211040042049                  REFF    211040042049                  21104   CORRESP.  RIBEI                                                                                   21104   CORRESP.  RIBEIR?O P                         00000000006296500000000000000000000020231018036         3                                                                                                                                                                                                                                                                                                                                                                                                                                                                                                                                                                                                            000000000000042139                                                                                                 
1012024111225       035730001894                  REFF    035730001894                  03573   FRANQ DISTRIBUI                                                                                   02362   CORRESPONDENTE - SAN                         00000000013357110000000000000000000020211207048         1                                                                                                                                                                                                                                                                                                                                                                                                                                                                                                                                                                                                            000000000000021157                                                                                                 
1012024111225       038720004720                  FSEG    038720004720                  03872   NOVACAO COBRANC                                                                                   03872   NOVACAO COBRANCA CON                         00000000029614570000000000000000000020240603031         1                                                                                                                                                                                                                                                                                                                                                                                                                                                                                                                                                                                                            000000000000021600                                                                                                 
1012024111225       035900003637                  FCDC    035900003637                  03590   REGIONAL SAO PA                                                                                   03590   REGIONAL SAO PAULO                           00000000019156110000000000000000000020210607048         1                                                                                                                                                                                                                                                                                                                                                                                                                                                                                                                                                                                                            000000000000025911                                                                                                 
1012024111225       211570012526                  PARF    211570012526                  21157   CORRESPONDENTE                                                                                    21157   CORRESPONDENTE BAHIA                         00000000013939510000000000000000000020210224060         1                                                                                                                                                                                                                                                                                                                                                                                                                                                                                                                                                                                                            000000000000017102                                                                                                 
1012024111225       015180004931                  ESPF    015180004931                  01518   ROVECAR AUTOMOV                                                                                   03301   CORRESPONDENTE OSASC                         00000000008822250000000000000000000020200413060         3                                                                                                                                                                                                                                                                                                                                                                                                                                                                                                                                                                                                            000000000000014946                                                                                                 
1012024111225       025530003483                  PARF    025530003483                  02553   CORRESPONDENTE                                                                                    02553   CORRESPONDENTE - SER                         00000000008180810000000000000000000020210203048         1                                                                                                                                                                                                                                                                                                                                                                                                                                                                                                                                                                                                            000000000000022444                                                                                                 
1012024111225       038720003952                  FSEG    038720003952                  03872   NOVACAO COBRANC                                                                                   03872   NOVACAO COBRANCA CON                         00000000014987550000000000000000000020231107036         1                                                                                                                                                                                                                                                                                                                                                                                                                                                                                                                                                                                                            000000000000031400                                                                                                 
1012024111225       035660018316                  FSEG    035660018316                  03566   NOVAC?O DE DIVI                                                                                   03566   NOVAC?O DE DIVIDA CO                         00000000017132200000000000000000000020200609055         1                                                                                                                                                                                                                                                                                                                                                                                                                                                                                                                                                                                                            000000000000015100                                                                                                 
1012024111225       023790025361                  FCDC    023790025361                  02379   CORRESPONDENTE                                                                                    02379   CORRESPONDENTE - DIS                         00000000037243730000000000000000000020231107036         1                                                                                                                                                                                                                                                                                                                                                                                                                                                                                                                                                                                                            000000000000018495                                                                                                 
1012024111225       034960006452                  FCDC    034960006452                  03496   CORRESPONDENTE                                                                                    03496   CORRESPONDENTE ZONA                          00000000025369090000000000000000000020230529060         1                                                                                                                                                                                                                                                                                                                                                                                                                                                                                                                                                                                                            000000000000023696                                                                                                 
1012024111225       030120086046                  REFF    030120086046                  03012   CORRESPONDENTE                                                                                    03012   CORRESPONDENTE RIO D                         00000000019580270000000000000000000020220808036         1                                                                                                                                                                                                                                                                                                                                                                                                                                                                                                                                                                                                            000000000000022878                                                                                                 
1012024111235       021130018305                  REFF    021130018305                  2024090700000029                000000000013230100000000000000000000000000000000000000000000000000000000000000000000000000   036   1                             20240907                      
1012024111235       021130018305                  REFF    021130018305                  2024100700000030                000000000013230100000000000000000000000000000000000000000000000000000000000000000000000000   036   1                             20241007                      
1012024111235       021130018305                  REFF    021130018305                  2024110700000031                000000000013230100000000000000000000000000000000000000000000000000000000000000000000000000   036   1                             20241107                      
1012024111235       021130018305                  REFF    021130018305                  2024120700000032                000000000013230100000000000000000000000000000000000000000000000000000000000000000000000000   036   1                             20241207                      
1012024111235       021130018305                  REFF    021130018305                  2025010700000033                000000000013230100000000000000000000000000000000000000000000000000000000000000000000000000   036   1                             20250107                      
1012024111235       021130018305                  REFF    021130018305                  2025020700000034                000000000013230100000000000000000000000000000000000000000000000000000000000000000000000000   036   1                             20250207                      
1012024111235       021130018305                  REFF    021130018305                  2025030700000035                000000000013230100000000000000000000000000000000000000000000000000000000000000000000000000   036   1                             20250307                      
1012024111235       021130018305                  REFF    021130018305                  2025040700000036                000000000013230100000000000000000000000000000000000000000000000000000000000000000000000000   036   1                             20250407                      
1012024111235       022800023386                  REFF    022800023386                  2024082800000006                000000000007907900000000000000000000000000000000000000000000000000000000000000000000000000   060   1                             20240828                      
1012024111235       023790025361                  FCDC    023790025361                  2024090700000010                000000000014818500000000000000000000000000000000000000000000000000000000000000000000000000   036   1                             20240907                      
1012024111235       023790025361                  FCDC    023790025361                  2024100700000011                000000000014818500000000000000000000000000000000000000000000000000000000000000000000000000   036   1                             20241007                      
1012024111235       023790025361                  FCDC    023790025361                  2024110700000012                000000000014818500000000000000000000000000000000000000000000000000000000000000000000000000   036   1                             20241107                      
1012024111235       023790025361                  FCDC    023790025361                  2024120700000013                000000000014818500000000000000000000000000000000000000000000000000000000000000000000000000   036   1                             20241207                      
1012024111235       023790025361                  FCDC    023790025361                  2025010700000014                000000000014818500000000000000000000000000000000000000000000000000000000000000000000000000   036   1                             20250107                      
1012024111235       023790025361                  FCDC    023790025361                  2025020700000015                000000000014818500000000000000000000000000000000000000000000000000000000000000000000000000   036   1                             20250207                      
1012024111235       023790025361                  FCDC    023790025361                  2025030700000016                000000000014818500000000000000000000000000000000000000000000000000000000000000000000000000   036   1                             20250307                      
1012024111235       023790025361                  FCDC    023790025361                  2025040700000017                000000000014818500000000000000000000000000000000000000000000000000000000000000000000000000   036   1                             20250407                      
1012024111235       023790025361                  FCDC    023790025361                  2025050700000018                000000000014818500000000000000000000000000000000000000000000000000000000000000000000000000   036   1                             20250507                      
1012024111235       023790025361                  FCDC    023790025361                  2025060700000019                000000000014818500000000000000000000000000000000000000000000000000000000000000000000000000   036   1                             20250607                      
1012024111235       023790025361                  FCDC    023790025361                  2025070700000020                000000000014818500000000000000000000000000000000000000000000000000000000000000000000000000   036   1                             20250707                      
1012024111235       023790025361                  FCDC    023790025361                  2025080700000021                000000000014818500000000000000000000000000000000000000000000000000000000000000000000000000   036   1                             20250807                      
1012024111235       023790025361                  FCDC    023790025361                  2025090700000022                000000000014818500000000000000000000000000000000000000000000000000000000000000000000000000   036   1                             20250907                      
1012024111235       023790025361                  FCDC    023790025361                  2025100700000023                000000000014818500000000000000000000000000000000000000000000000000000000000000000000000000   036   1                             20251007                      
1012024111235       023790025361                  FCDC    023790025361                  2025110700000024                000000000014818500000000000000000000000000000000000000000000000000000000000000000000000000   036   1                             20251107                      
1012024111235       023790025361                  FCDC    023790025361                  2025120700000025                000000000014818500000000000000000000000000000000000000000000000000000000000000000000000000   036   1                             20251207                      
1012024111235       023790025361                  FCDC    023790025361                  2026010700000026                000000000014818500000000000000000000000000000000000000000000000000000000000000000000000000   036   1                             20260107                      
1012024111235       023790025361                  FCDC    023790025361                  2026020700000027                000000000014818500000000000000000000000000000000000000000000000000000000000000000000000000   036   1                             20260207                      
1012024111235       023790025361                  FCDC    023790025361                  2026030700000028                000000000014818500000000000000000000000000000000000000000000000000000000000000000000000000   036   1                             20260307                      
1012024111235       023790025361                  FCDC    023790025361                  2026040700000029                000000000014818500000000000000000000000000000000000000000000000000000000000000000000000000   036   1                             20260407                      
1012024111235       023790025361                  FCDC    023790025361                  2026050700000030                000000000014818500000000000000000000000000000000000000000000000000000000000000000000000000   036   1                             20260507                      
1012024111235       023790025361                  FCDC    023790025361                  2026060700000031                000000000014818500000000000000000000000000000000000000000000000000000000000000000000000000   036   1                             20260607                      
1012024111235       023790025361                  FCDC    023790025361                  2026070700000032                000000000014818500000000000000000000000000000000000000000000000000000000000000000000000000   036   1                             20260707                      
1012024111235       023790025361                  FCDC    023790025361                  2026080700000033                000000000014818500000000000000000000000000000000000000000000000000000000000000000000000000   036   1                             20260807                      
1012024111235       023790025361                  FCDC    023790025361                  2026090700000034                000000000014818500000000000000000000000000000000000000000000000000000000000000000000000000   036   1                             20260907                      
1012024111235       023790025361                  FCDC    023790025361                  2026100700000035                000000000014818500000000000000000000000000000000000000000000000000000000000000000000000000   036   1                             20261007                      
1012024111235       023790025361                  FCDC    023790025361                  2026110700000036                000000000014818500000000000000000000000000000000000000000000000000000000000000000000000000   036   1                             20261107                      
1012024111235       025530003483                  PARF    025530003483                  2024090500000043                000000000006823200000000000000000000000000000000000000000000000000000000000000000000000000   048   1                             20240905                      
1012024111235       025530003483                  PARF    025530003483                  2024100500000044                000000000006823200000000000000000000000000000000000000000000000000000000000000000000000000   048   1                             20241005                      
1012024111235       025530003483                  PARF    025530003483                  2024110500000045                000000000006823200000000000000000000000000000000000000000000000000000000000000000000000000   048   1                             20241105                      
1012024111235       025530003483                  PARF    025530003483                  2024120500000046                000000000006823200000000000000000000000000000000000000000000000000000000000000000000000000   048   1                             20241205                      
1012024111235       025530003483                  PARF    025530003483                  2025010500000047                000000000006823200000000000000000000000000000000000000000000000000000000000000000000000000   048   1                             20250105                      
1012024111235       025530003483                  PARF    025530003483                  2025020500000048                000000000006823200000000000000000000000000000000000000000000000000000000000000000000000000   048   1                             20250205                      
1012024111235       025950068588                  REFF    025950068588                  2024090700000020                000000000036077700000000000000000000000000000000000000000000000000000000000000000000000000   024   1                             20240907                      
1012024111235       025950068588                  REFF    025950068588                  2024100700000021                000000000036077700000000000000000000000000000000000000000000000000000000000000000000000000   024   1                             20241007                      
1012024111235       025950068588                  REFF    025950068588                  2024110700000022                000000000036077700000000000000000000000000000000000000000000000000000000000000000000000000   024   1                             20241107                      
1012024111235       025950068588                  REFF    025950068588                  2024120700000023                000000000036077700000000000000000000000000000000000000000000000000000000000000000000000000   024   1                             20241207                      
1012024111235       025950068588                  REFF    025950068588                  2025010700000024                000000000036077700000000000000000000000000000000000000000000000000000000000000000000000000   024   1                             20250107                      
1012024111235       026640000819                  ESPF    026640000819                  2024090700000028                000000000017197600000000000000000000000000000000000000000000000000000000000000000000000000   036   1                             20240907                      
1012024111235       026640000819                  ESPF    026640000819                  2024100700000029                000000000017197600000000000000000000000000000000000000000000000000000000000000000000000000   036   1                             20241007                      
1012024111235       026640000819                  ESPF    026640000819                  2024110700000030                000000000017197600000000000000000000000000000000000000000000000000000000000000000000000000   036   1                             20241107                      
1012024111235       026640000819                  ESPF    026640000819                  2024120700000031                000000000017197600000000000000000000000000000000000000000000000000000000000000000000000000   036   1                             20241207                      
1012024111235       026640000819                  ESPF    026640000819                  2025010700000032                000000000017197600000000000000000000000000000000000000000000000000000000000000000000000000   036   1                             20250107                      
1012024111235       026640000819                  ESPF    026640000819                  2025020700000033                000000000017197600000000000000000000000000000000000000000000000000000000000000000000000000   036   1                             20250207                      
1012024111235       026640000819                  ESPF    026640000819                  2025030700000034                000000000017197600000000000000000000000000000000000000000000000000000000000000000000000000   036   1                             20250307                      
1012024111235       026640000819                  ESPF    026640000819                  2025040700000035                000000000017197600000000000000000000000000000000000000000000000000000000000000000000000000   036   1                             20250407                      
1012024111235       026640000819                  ESPF    026640000819                  2025050700000036                000000000017197600000000000000000000000000000000000000000000000000000000000000000000000000   036   1                             20250507                      
1012024111235       030120077039                  PARF    030120077039                  2024090700000030                000000000015327800000000000000000000000000000000000000000000000000000000000000000000000000   060   1                             20240907                      
1012024111235       030120077039                  PARF    030120077039                  2024100700000031                000000000015327800000000000000000000000000000000000000000000000000000000000000000000000000   060   1                             20241007                      
1012024111235       030120077039                  PARF    030120077039                  2024110700000032                000000000015327800000000000000000000000000000000000000000000000000000000000000000000000000   060   1                             20241107                      
1012024111235       030120077039                  PARF    030120077039                  2024120700000033                000000000015327800000000000000000000000000000000000000000000000000000000000000000000000000   060   1                             20241207                      
1012024111235       030120077039                  PARF    030120077039                  2025010700000034                000000000015327800000000000000000000000000000000000000000000000000000000000000000000000000   060   1                             20250107                      
1012024111235       030120077039                  PARF    030120077039                  2025020700000035                000000000015327800000000000000000000000000000000000000000000000000000000000000000000000000   060   1                             20250207                      
1012024111235       030120077039                  PARF    030120077039                  2025030700000036                000000000015327800000000000000000000000000000000000000000000000000000000000000000000000000   060   1                             20250307                      
1012024111235       030120077039                  PARF    030120077039                  2025040700000037                000000000015327800000000000000000000000000000000000000000000000000000000000000000000000000   060   1                             20250407                      
1012024111235       030120077039                  PARF    030120077039                  2025050700000038                000000000015327800000000000000000000000000000000000000000000000000000000000000000000000000   060   1                             20250507                      
1012024111235       030120077039                  PARF    030120077039                  2025060700000039                000000000015327800000000000000000000000000000000000000000000000000000000000000000000000000   060   1                             20250607                      
1012024111235       030120077039                  PARF    030120077039                  2025070700000040                000000000015327800000000000000000000000000000000000000000000000000000000000000000000000000   060   1                             20250707                      
1012024111235       030120077039                  PARF    030120077039                  2025080700000041                000000000015327800000000000000000000000000000000000000000000000000000000000000000000000000   060   1                             20250807                      
1012024111235       030120077039                  PARF    030120077039                  2025090700000042                000000000015327800000000000000000000000000000000000000000000000000000000000000000000000000   060   1                             20250907                      
1012024111235       030120077039                  PARF    030120077039                  2025100700000043                000000000015327800000000000000000000000000000000000000000000000000000000000000000000000000   060   1                             20251007                      
1012024111235       030120077039                  PARF    030120077039                  2025110700000044                000000000015327800000000000000000000000000000000000000000000000000000000000000000000000000   060   1                             20251107                      
1012024111235       030120077039                  PARF    030120077039                  2025120700000045                000000000015327800000000000000000000000000000000000000000000000000000000000000000000000000   060   1                             20251207                      
1012024111235       030120077039                  PARF    030120077039                  2026010700000046                000000000015327800000000000000000000000000000000000000000000000000000000000000000000000000   060   1                             20260107                      
1012024111235       030120077039                  PARF    030120077039                  2026020700000047                000000000015327800000000000000000000000000000000000000000000000000000000000000000000000000   060   1                             20260207                      
1012024111235       030120077039                  PARF    030120077039                  2026030700000048                000000000015327800000000000000000000000000000000000000000000000000000000000000000000000000   060   1                             20260307                      
1012024111235       030120077039                  PARF    030120077039                  2026040700000049                000000000015327800000000000000000000000000000000000000000000000000000000000000000000000000   060   1                             20260407                      
1012024111235       030120077039                  PARF    030120077039                  2026050700000050                000000000015327800000000000000000000000000000000000000000000000000000000000000000000000000   060   1                             20260507                      
1012024111235       030120077039                  PARF    030120077039                  2026060700000051                000000000015327800000000000000000000000000000000000000000000000000000000000000000000000000   060   1                             20260607                      
1012024111235       030120077039                  PARF    030120077039                  2026070700000052                000000000015327800000000000000000000000000000000000000000000000000000000000000000000000000   060   1                             20260707                      
1012024111235       030120077039                  PARF    030120077039                  2026080700000053                000000000015327800000000000000000000000000000000000000000000000000000000000000000000000000   060   1                             20260807                      
1012024111235       030120077039                  PARF    030120077039                  2026090700000054                000000000015327800000000000000000000000000000000000000000000000000000000000000000000000000   060   1                             20260907                      
1012024111235       030120077039                  PARF    030120077039                  2026100700000055                000000000015327800000000000000000000000000000000000000000000000000000000000000000000000000   060   1                             20261007                      
1012024111235       030120077039                  PARF    030120077039                  2026110700000056                000000000015327800000000000000000000000000000000000000000000000000000000000000000000000000   060   1                             20261107                      
1012024111235       030120077039                  PARF    030120077039                  2026120700000057                000000000015327800000000000000000000000000000000000000000000000000000000000000000000000000   060   1                             20261207                      
1012024111235       030120077039                  PARF    030120077039                  2027010700000058                000000000015327800000000000000000000000000000000000000000000000000000000000000000000000000   060   1                             20270107                      
1012024111235       030120077039                  PARF    030120077039                  2027020700000059                000000000015327800000000000000000000000000000000000000000000000000000000000000000000000000   060   1                             20270207                      
1012024111235       030120077039                  PARF    030120077039                  2027030700000060                000000000015327800000000000000000000000000000000000000000000000000000000000000000000000000   060   1                             20270307                      
1012024111235       030120086046                  REFF    030120086046                  2024090700000024                000000000009337500000000000000000000000000000000000000000000000000000000000000000000000000   036   1                             20240907                      
1012024111235       030120086046                  REFF    030120086046                  2024100700000025                000000000009337500000000000000000000000000000000000000000000000000000000000000000000000000   036   1                             20241007                      
1012024111235       030120086046                  REFF    030120086046                  2024110700000026                000000000009337500000000000000000000000000000000000000000000000000000000000000000000000000   036   1                             20241107                      
1012024111235       030120086046                  REFF    030120086046                  2024120700000027                000000000009337500000000000000000000000000000000000000000000000000000000000000000000000000   036   1                             20241207                      
1012024111235       030120086046                  REFF    030120086046                  2025010700000028                000000000009337500000000000000000000000000000000000000000000000000000000000000000000000000   036   1                             20250107                      
1012024111235       030120086046                  REFF    030120086046                  2025020700000029                000000000009337500000000000000000000000000000000000000000000000000000000000000000000000000   036   1                             20250207                      
1012024111235       030120086046                  REFF    030120086046                  2025030700000030                000000000009337500000000000000000000000000000000000000000000000000000000000000000000000000   036   1                             20250307                      
1012024111235       030120086046                  REFF    030120086046                  2025040700000031                000000000009337500000000000000000000000000000000000000000000000000000000000000000000000000   036   1                             20250407                      
1012024111235       030120086046                  REFF    030120086046                  2025050700000032                000000000009337500000000000000000000000000000000000000000000000000000000000000000000000000   036   1                             20250507                      
1012024111235       030120086046                  REFF    030120086046                  2025060700000033                000000000009337500000000000000000000000000000000000000000000000000000000000000000000000000   036   1                             20250607                      
1012024111235       030120086046                  REFF    030120086046                  2025070700000034                000000000009337500000000000000000000000000000000000000000000000000000000000000000000000000   036   1                             20250707                      
1012024111235       030120086046                  REFF    030120086046                  2025080700000035                000000000009337500000000000000000000000000000000000000000000000000000000000000000000000000   036   1                             20250807                      
1012024111235       030120086046                  REFF    030120086046                  2025090700000036                000000000009337500000000000000000000000000000000000000000000000000000000000000000000000000   036   1                             20250907                      
1012024111235       030340000500                  ESPF    030340000500                  2024090700000021                000000000015045000000000000000000000000000000000000000000000000000000000000000000000000000   024   1                             20240907                      
1012024111235       030340000500                  ESPF    030340000500                  2024100700000022                000000000015045000000000000000000000000000000000000000000000000000000000000000000000000000   024   1                             20241007                      
1012024111235       030340000500                  ESPF    030340000500                  2024110700000023                000000000015045000000000000000000000000000000000000000000000000000000000000000000000000000   024   1                             20241107                      
1012024111235       030340000500                  ESPF    030340000500                  2024120700000024                000000000015045000000000000000000000000000000000000000000000000000000000000000000000000000   024   1                             20241207                      
1012024111235       032020014573                  REFF    032020014573                  2024090700000023                000000000007449100000000000000000000000000000000000000000000000000000000000000000000000000   036   1                             20240907                      
1012024111235       032020014573                  REFF    032020014573                  2024100700000024                000000000007449100000000000000000000000000000000000000000000000000000000000000000000000000   036   1                             20241007                      
1012024111235       032020014573                  REFF    032020014573                  2024110700000025                000000000007449100000000000000000000000000000000000000000000000000000000000000000000000000   036   1                             20241107                      
1012024111235       032020014573                  REFF    032020014573                  2024120700000026                000000000007449100000000000000000000000000000000000000000000000000000000000000000000000000   036   1                             20241207                      
1012024111235       032020014573                  REFF    032020014573                  2025010700000027                000000000007449100000000000000000000000000000000000000000000000000000000000000000000000000   036   1                             20250107                      
1012024111235       032020014573                  REFF    032020014573                  2025020700000028                000000000007449100000000000000000000000000000000000000000000000000000000000000000000000000   036   1                             20250207                      
1012024111235       032020014573                  REFF    032020014573                  2025030700000029                000000000007449100000000000000000000000000000000000000000000000000000000000000000000000000   036   1                             20250307                      
1012024111235       032020014573                  REFF    032020014573                  2025040700000030                000000000007449100000000000000000000000000000000000000000000000000000000000000000000000000   036   1                             20250407                      
1012024111235       032020014573                  REFF    032020014573                  2025050700000031                000000000007449100000000000000000000000000000000000000000000000000000000000000000000000000   036   1                             20250507                      
1012024111235       032020014573                  REFF    032020014573                  2025060700000032                000000000007449100000000000000000000000000000000000000000000000000000000000000000000000000   036   1                             20250607                      
1012024111235       032020014573                  REFF    032020014573                  2025070700000033                000000000007449100000000000000000000000000000000000000000000000000000000000000000000000000   036   1                             20250707                      
1012024111235       032020014573                  REFF    032020014573                  2025080700000034                000000000007449100000000000000000000000000000000000000000000000000000000000000000000000000   036   1                             20250807                      
1012024111235       032020014573                  REFF    032020014573                  2025090700000035                000000000007449100000000000000000000000000000000000000000000000000000000000000000000000000   036   1                             20250907                      
1012024111235       032020014573                  REFF    032020014573                  2025100700000036                000000000007449100000000000000000000000000000000000000000000000000000000000000000000000000   036   1                             20251007                      
1012024111235       034960006452                  FCDC    034960006452                  2024082300000015                000000000012603000000000000000000000000000000000000000000000000000000000000000000000000000   060   1                             20240823                      
1012024111235       034960006452                  FCDC    034960006452                  2024092300000016                000000000012603000000000000000000000000000000000000000000000000000000000000000000000000000   060   1                             20240923                      
1012024111235       034960006452                  FCDC    034960006452                  2024102300000017                000000000012603000000000000000000000000000000000000000000000000000000000000000000000000000   060   1                             20241023                      
1012024111235       034960006452                  FCDC    034960006452                  2024112300000018                000000000012603000000000000000000000000000000000000000000000000000000000000000000000000000   060   1                             20241123                      
1012024111235       034960006452                  FCDC    034960006452                  2024122300000019                000000000012603000000000000000000000000000000000000000000000000000000000000000000000000000   060   1                             20241223                      
