001202411152024111500000084
1012024111515       059620000203                  127314829829   ALDO DO SOCORRO PINTO DE MOURA               19680104                                                                                                                                                                                                                                                                                                                                                                                                                                       AVENIDA ARUANA                                    851                                                         TAMBORE                  BARUERI                SP06460010                                                                                          OUTRAS                        AVENIDA ARUANA                                           851                                                  TAMBORE                  BARUERI                SP06460010                            NPE                                          2024111420241121                                                                                                                                                                                                                                                                       MS                            000000000000000000        00000000R                                                            TESTE.COM@GMAL.COM                                          
1012024111515       026420009558                  100539168165   JOSE ROBERTO DE OLIVEIRA                     19840519                                                                                                                                                                                                                                                                                                                                                                                                                                       ARTHUR RAMOS DA COSTA                             22                                                          CENTRO                   SAO PEDRO DA CIPA      MT78835000                                                                                          OUTRAS                        ARTHUR RAMOS DA COSTA                                    256                                                  CENTRO                   SAO PEDRO DA CIPA      MT78835000                            NPE                                          2024050920241208                                                                                                                                                                                                                                                                       MS13555456                    000000000000000000        00000000R66999273243         999273243           996688510                                                                       
1012024111515       032690024174                  155179452600   LENICE DE SENA INCALADO                      19640713                                                                                                                                                                                                                                                                                                                                                                                                                                       R ANITA ALVARENGA                                 120                                                         VILA NOSSA SENHORA DE LOULAGOA SANTA            MG33233208                    ASSOCIACAO DE PROPRIETARIOS DE                                        GERENTE - TODAS               AV GENESCO APARECIDO DE OLIVEIRA                           1                                                  PONTAL DA LIBERDADE      LAGOA SANTA            MG33233230                            NPE                                          2023010920241208                                                                                                                                                                                                                                                                       FS0333483160                  000000000000000000        00000000R                                                                                                                        
1012024111515       032020012437                  116832108320   MARIA ALZERINA DE SOUSA SILVA                19571202                                                                                                                                                                                                                                                                                                                                                                                                                                       AV EDILZE PINHEIRO CAMPOS                         406                                                         LUZARDO VIANA            MARACANAU              CE61910020                                                                                          APOSENTADO                                                                                                                                                                                                                        NPE                                          2022121320241214                                                                                                                                                                                                                                                                       FS0476912084                  000000000000000000        00000000R85987710953         999538146           987710953           GLEDSONGERENTE@HOTMAIL.COM                                  
1012024111515       031110000368                  128233843830   ANDERSON LUIZ PEREIRA ROSA                   19810302                                                                                                                                                                                                                                                                                                                                                                                                                                       R JOSE FERNANDES TEIXEIRA ZUZA                    415                                                         VILA ROSA                CARAPICUIBA            SP06317270                                                                                          APOSENTADO                                                                                                                                                                                                                        NPE                                          2022110520241219                                                                                                                                                                                                                                                                       MS333679623                   000000000000000000        00000000R11989490342         1141847272          1141847272          LEANDROPEREIRAROSA280683@GMAIL.COM                          
1012024111515       005200029946                  103744069958   ELIANE DE ALMEIDA DA SILVA                   19811114                                                                                                                                                                                                                                                                                                                                                                                                                                       R RIO PARANA                                      186       BL 2 L 06                                         WEISSOPOLIS              PINHAIS                PR83322000                                                                                          EMPRESARIO                                                                                                                                                                                                                        NPE                                          2024042920241126                                                                                                                                                                                                                                                                       FS0446470577                  000000000000000000        00000000R                                                            ELISILVA22@GMAIL.COM                                        
1012024111515       038710001287                  111265863822   MARIA DE FATIMA RIBEIRO PINTO                19670710                                                                                                                                                                                                                                                                                                                                                                                                                                       RUA DR NELSON MOTA MELLO                          07                                                          TRES PONTES              MONTE ALEGRE DO SUL    SP13820000                                                                                          OUTRAS                        RUA DR NELSON MOTA MELLO                                  07                                                  TRES PONTES              MONTE ALEGRE DO SUL    SP13820000                            NPE                                          2023042420241127                                                                                                                                                                                                                                                                       FS219043425                   000000000000000000        00000000R998053907           999528680           19971146759         PAMELAARAUJONU@GMAIL.COM                                    
1012024111515       021130014041                  101378601025   BRUNO OLIVEIRA                               19871006                                                                                                                                                                                                                                                                                                                                                                                                                                       RUA CARLOS SILVEIRA MARTINS PACHECO               55        BL H AP 903                                       CRISTO REDENDOR          PORTO ALEGRE           RS91350300                                                                                          EMPRESARIO                    R CALDAS JUNIOR                                           20SALA 33                                           C HISTORICO              PORTO ALEGRE           RS900102605130236111                  NPE                                          2023031620241208                                                                                                                                                                                                                                                                       MS8093025172                  000000000000000000        00000000R51982152693         982152693           981937673           BRUNO.OLIVEIRA@BAHHSEGUROS.COM.BR                           
1012024111515       032340003236                  111681102463   MARCILIO COSTA DE OLIVEIRA FILHO             20020318                                                                                                                                                                                                                                                                                                                                                                                                                                       R ADERBAL MAIA PAIVA                              SN        QD 253 L295                                       P SOL                    JOAO PESSOA            PB58046527                                                                                          EMPRESARIO                    AV SENADOR JOAO LIRA                                     212SALA 186                                          JAGUARIBE                JOAO PESSOA            PB58015150                            NPE                                          2022121620241219                                                                                                                                                                                                                                                                       MS3679556                     000000000000000000        00000000R83988450000         996298336           988450000           MARCILIO.REP@GMAIL.COM                                      
1012024111515       038720001842                  135207685856   THAIS COUTINHO DA SILVA                      19910805                                                                                                                                                                                                                                                                                                                                                                                                                                       R RUA MARINA SADDI HAIDAR                         216                                                         JARDIM UMUARAMA          SAO PAULO              SP04650050                                                                                                                                                                                                                                                                                                                            NPE                                          2023031320241214                                                                                                                                                                                                                                                                       MO439625701                   000000000000000000        00000000R11963575463         996357546           21471717            THAISCOUTINS@GMAIL.COM                                      
1012024111515       035210004611                  121682626830   AMAURI DE ALBUQUERQUE MIRANDA                19800409                                                                                                                                                                                                                                                                                                                                                                                                                                       R INDEPENDENCIA                                   521       CASA                                              CIDADE NOVA              INDAIATUBA             SP13334080                                                                                          EMPRESARIO                    R CEMBIRA                                                167                                                  VILA CURUCA              SAO PAULO              SP08030050                            NPE                                          2023030920241208                                                                                                                                                                                                                                                                       MS335743778                   000000000000000000        00000000R11949571420         997447535           949571420           AMAURIMIRANDA@GMAIL.COM                                     
1012024111515       036280002672                  104705377877   MARCELO MIGUEL DE ALENCAR                    19610811                                                                                                                                                                                                                                                                                                                                                                                                                                       R ARMINDA                                         104                                                         VILA OLIMPIA             SAO PAULO              SP04545100                    ARTES SAO ARTES MOLDURAS E GRA                                        EMPRESARIO                                                                                                                                                                                                                        NPE                                          2023060920241208                                                                                                                                                                                                                                                                       MS16365720-8                  000000000000000000        00000000R11972055788         998153299           11930687586         MARCELOMALENCAR@IG.COM.BR                                   
1012024111515       038190000113                  124632538191   MARCOS ANTONIO CATULIO                       19601221                                                                                                                                                                                                                                                                                                                                                                                                                                       R DAS ACACIAS                                     SN        QD01 LT13                                         RESIDENCIAL DOS IPES     GOIANIA                GO74692200                                                                                          OUTRAS                        R DAS ACACIAS                                             SNQD01 LT13                                         RESIDENCIAL DOS IPES     GOIANIA                GO74692200                            NPE                                          2024061020241208                                                                                                                                                                                                                                                                       MS1141502                     000000000000000000        00000000R                    991562740           984157403                                                                       
1012024111515       038720000738                  193818521549   CARLOS ALBERTO BARBOSA DA COSTA              19740715                                                                                                                                                                                                                                                                                                                                                                                                                                       R DOS ANTURIOS                                    17                                                          FAZENDA GRANDE DO RETIRO SALVADOR               BA40354225                    RENCO EQUIPAMENTOS SA                                                 GERENTE - TODAS               R PARA                                                     0                                                  PITUBA                   SALVADOR               BA41830070                            NPE                                          2022120920241208                                                                                                                                                                                                                                                                       MS0573008108                  000000000000000000        00000000R981143544           996449441           32343904            CARLLOSCOSTA074@GMAIL.COM                                   
1012024111515       023790025740                  181769920110   GILSON ANTUNES DOS REIS                      19770606                                                                                                                                                                                                                                                                                                                                                                                                                                       RUA BAHIA                                         21                                                          JARDIM JOCKEI C          LUZIANIA               GO72850730                    NAO INFORMADO                                                         OUTRAS                        AV RIO BRANCO                                           1489                                                  CAMPOS ELISEOS           SAO PAULO              SP01295905                            NPE                                          2024071720241219                                                                                                                                                                                                                                                                       MS1591898SSP                  000000000000000000        00000000R                    998213320           992335252           MARCOS.ORNELLAS@LIVE.COM                                    
1012024111515       025950022472                  184031069987   CLAUDIMAR LUIS OZELAME                       19740314                                                                                                                                                                                                                                                                                                                                                                                                                                       MATO GROSSO                                       1084                                                        CENTRO                   CASCAVEL               PR85812025                                                                                          GERENTE - TODAS               R VENEZA                                                 920                                                  CASCAVEL VELHO           CASCAVEL               PR85818420                            NPE                                          2022110520241219                                                                                                                                                                                                                                                                       MS79305847                    000000000000000000        00000000R45999334345         999921478           988262811           OZELAME3@HOTMAIL.COM                                        
1012024111515       211570015695                  110573852553   JUTAIR DE CASTRO                             19561101                                                                                                                                                                                                                                                                                                                                                                                                                                       AV ANTONIO CARLOS MAGALHAES                       1962      ED BETA AP 405                                    PRQ B VISTA              SALVADOR               BA40280000                                                                                                                                                                                                                                                                                                                            NPE                                          2023011620241219                                                                                                                                                                                                                                                                       MO93600003                    000000000000000000        00000000R986017582           985544101           985544101           REINOVEICULOS@GMAIL.COM                                     
1012024111515       027560005704                  130506854841   MAURICIO DOS SANTOS                          19810403                                                                                                                                                                                                                                                                                                                                                                                                                                       R NORIVAL SOARES                                  835                                                         CIDADE SALVADOR          JACAREI                SP12312270                    N A                                                                   GERENTE - TODAS               EST DO MATO DENTRO                                      1650                                                  JARDIM NOVA MICHIGAN     SAO JOSE DOS CAMPOS    SP12225470                            NPE                                          2022121920241121                                                                                                                                                                                                                                                                       MS334508812                   000000000000000000        00000000R997135714           988592609           1144368870          W.M.AURICIO@HOTMAIL.COM                                     
1012024111515       032920002280                  100643965840   MONICA RAFFEL                                19580625                                                                                                                                                                                                                                                                                                                                                                                                                                       TV ARNALDO BRAGANCA                               32                                                          VILA BABY                SAO PAULO              SP04460030                                                                                          APOSENTADO                                                                                                                                                                                                                        NPE                                          2023020920241208                                                                                                                                                                                                                                                                       FS0297399635                  000000000000000000        00000000R11970575035         994243781           26673395            MRAFFEL@BOL.COM.BR                                          
1012024111515       050090003182                  111441485880   SANDRA CRISTINA SOUSA GONCALVES              19720219                                                                                                                                                                                                                                                                                                                                                                                                                                       R REGO BARROS                                     375       AP 112 B 2                                        JARDIM VILA FORMOSA      SAO PAULO              SP034600001140045215                                                                                OUTRAS                        R REGO BARROS                                            375AP 112 B 2                                        JARDIM VILA FORMOSA      SAO PAULO              SP03460000                            NPE                                          2023100920241208                                                                                                                                                                                                                                                                       FS                            000000000000000000        00000000R11991870801         991870801           942555524           SANDRA@CORRETORAPEDRABRUTA.COM.BR                           
1012024111515       032020018165                  191672031320   JHONNATA DE SOUSA BATISTA                    19820223                                                                                                                                                                                                                                                                                                                                                                                                                                       TRAVESSA LUCIO TORRES                             49                                                          CENTRO                   BARREIRA               CE62795000                    NAO INFORMADO                                                         GERENTE - TODAS               TRAVESSA LUCIO TORRES                                     49                                                  CENTRO                   BARREIRA               CE62795000                            NPE                                          2023110920241208                                                                                                                                                                                                                                                                       MS                            000000000000000000        00000000R85992078107         992445195           40045215                                                                        
1012024111515       053460000227                  109765552475   MOISES JOSE DE OLIVEIRA MELO JUNIOR          19920826                                                                                                                                                                                                                                                                                                                                                                                                                                       AV JOAO PAULO II                                  1048                                                        MIRUEIRA                 PAULISTA               PE53405190                                                                                                                                                                                                                                                                                                                            NPE                                          2024011720241120                                                                                                                                                                                                                                                                       MO                            000000000000000000        00000000R                    984114455           81987694253         MJUNIORJOSES@GMAIL.COM                                      
1012024111515       027120021412                  105769315865   JOSE LUIZ                                    19571016                                                                                                                                                                                                                                                                                                                                                                                                                                       RODOVIA TANCREDO NEVES                            85        CHACARA                                           FEITAL                   IBIUNA                 SP18650000                                                                                          OUTRAS                        RODOVIA TANCREDO NEVES                                    85CHACARA                                           FEITAL                   IBIUNA                 SP186500001140045215                  NPE                                          2023041120241208                                                                                                                                                                                                                                                                       MS0158605401                  000000000000000000        00000000R11972533813                                                                                                             
1012024111515       036110002490                  105096310884   ODAIR DONIZETI BALBINO                       19630828                                                                                                                                                                                                                                                                                                                                                                                                                                       R DUQUE DAOSTA                                    45        AP 82                                             RUDGE RAMOS              SAO BERNARDO DO CAMPO  SP09620050                                                                                          OUTRAS                        R DUQUE DAOSTA                                            4582                                                RUDGE RAMOS              SAO BERNARDO DO CAMPO  SP09620050                            NPE                                          2023030920241208                                                                                                                                                                                                                                                                       MS16286283                    000000000000000000        00000000R11994191796         994191796           973586787           ODAIRBALBINO@HOTMAIL.COM                                    
1012024111515       022800013127                  150837150159   MARCOS ANTONIO ALVES                         19680804                                                                                                                                                                                                                                                                                                                                                                                                                                       AV MONTE SINAI                                    SN        QD 9 LT 3                                         ALTO DA PRIMAVERA        INDIARA                GO75955000                                                                                          GERENTE - TODAS               AV MONTE SINAI                                            SN                                                  ALTO DA PRIMAVERA        INDIARA                GO75955000                            NPE                                          2023011620241219                                                                                                                                                                                                                                                                       MS1875458                     000000000000000000        00000000R64981341027         981383806           981012261           MARCOSVINIVIUSALVES@ICLOUD.COM                              
1012024111515       053160001133                  132249737819   BRUNO RAMOS DE SOUZA                         19830103                                                                                                                                                                                                                                                                                                                                                                                                                                       R PROFESSOR DOMINGOS DEL MONACO                   68                                                          JARDIM PADROEIRA         GUARATINGUETA          SP12504200                                                                                          OUTRAS                        R PROFESSOR DOMINGOS DEL MONACO                           68                                                  JARDIM PADROEIRA         GUARATINGUETA          SP12504200                            NPE                                          2023031320241214                                                                                                                                                                                                                                                                       MS334031941                   000000000000000000        00000000R                    996196881           11971549433         BRUNO@RAMOSENGENHARIA.COM.BR                                
1012024111515       050050000117                  148101462864   JOAO VICTOR DE SOUSA SILVA                   19981217                                                                                                                                                                                                                                                                                                                                                                                                                                       AV AUTONOMISTAS                                   417                                                         VL S PAULO               FERRAZ DE VASCONCELOS  SP08506500                    KIMBERLY                                                              GERENTE - TODAS               R BRASFANTA                                               96                                                  JARDIM SANTA INES        SUZANO                 SP086950651147465400                  NPE                                          2023010920241208                                                                                                                                                                                                                                                                       MS503898016                   000000000000000000        00000000R11964282363         964282363           964282363                                                                       
1012024111515       001080011795                  133978207826   MARCOS ANDRE CARVALHO DE FREITAS             19850130                                                                                                                                                                                                                                                                                                                                                                                                                                       R VALSON LOPES                                    101       AP 206 T 1                                        VILA BUTANTA             SAO PAULO              SP05360020                                                                                          EMPRESARIO                    R VALSON LOPES                                           101AP 206 T 1                                        VILA BUTANTA             SAO PAULO              SP05360020                            NPE                                          2024111120241208                                                                                                                                                                                                                                                                       MS                            000000000000000000        00000000R                                                                                                                        
1012024111515       038870002097                  131080808817   GUSTAVO RENAN SCAGLIA                        19840419                                                                                                                                                                                                                                                                                                                                                                                                                                       R LIMEIRA                                         806       BL11 AP21                                         VILA QUEIROZ             LIMEIRA                SP13485002                                                                                          OUTRAS                        R LIMEIRA                                                806BL11 AP21                                         VILA QUEIROZ             LIMEIRA                SP13485002                            NPE                                          2024111120241208                                                                                                                                                                                                                                                                       MS                            000000000000000000        00000000R                                                                                                                        
1012024111515       050210004269                  111849134634   VITOR ANANIAS LOPES                          19521015                                                                                                                                                                                                                                                                                                                                                                                                                                       R WALDOMIRO LOBO                                  1270      BL 2 AP604                                        SAO BERNARDO             BELO HORIZONTE         MG31741435                                                                                          APOSENTADO                                                                                                                                                                                                                        NPE                                          2024091620241219                                                                                                                                                                                                                                                                       MS                            000000000000000000        00000000R                    984369555           984369555                                                                       
1012024111515       023790020523                  101292477660   DANIEL ALVES PEREIRA DOCHE                   19820318                                                                                                                                                                                                                                                                                                                                                                                                                                       AL DOS TICO-TICOS                                 395                                                         VALE VERDE               RIBEIRAO DAS NEVES     MG338205703122225134          TERRATIVA MINERAIS LTDA                                               GERENTE - TODAS               R THEREZINHA BRANDAO RESENDE                             250                                                  BRAUNAS                  BELO HORIZONTE         MG31365530                            NPE                                          2023010920241106                                                                                                                                                                                                                                                                       MOMG9141168                   000000000000000000        00000000R31998979887         998979887           34638872            DANIEL.PEREIRA@TERRATIVA.COM.BR                             
1012024111515       038720001539                  137734961843   RAFAEL HESSEL                                19891112                                                                                                                                                                                                                                                                                                                                                                                                                                       LEONOR DIAS BATISTA DE OLIVEIRA                   59        CASA                                              SANTA MARIA              SALTO DE PIRAPORA      SP18160000                    N A                                                                   GERENTE - TODAS               RODOVIA CASTELLO BRANCO KM52,5                           S-NGERDAU                                            RONDA                    ARACARIGUAMA           SP18147000                            NPE                                          2023010920241208                                                                                                                                                                                                                                                                       MS0456196201                  000000000000000000        00000000R15996441878         997478400           991257089           RHESSEL01@GMAIL.COM                                         
1012024111515       026420016921                  199339358104   ELIZANDRA LEMOS DA SILVA COSTA               19760324                                                                                                                                                                                                                                                                                                                                                                                                                                       RUA TRES MARIAS                                   52                                                          CANELAS                  VARZEA GRANDE          MT78148115                                                                                          OUTRAS                        TRAVESSA 3                                                 2                                                  GOIABEIRA                CUIABA                 MT78032170                            NPE                                          2023041120241208                                                                                                                                                                                                                                                                       FS009964835                   000000000000000000        00000000R981145340           992753295           992247429           ADRIPCOSTA1938@GMAIL.COM                                    
1012024111515       035900012193                  100652412823   REINALDO ANTUNES DE CESAR                    19591128                                                                                                                                                                                                                                                                                                                                                                                                                                       GOULART DE FARIA                                  38        CASA PORT MAN                                     VILA CONSTANCA           SAO PAULO              SP02259120                    NENHUMA                                                               GERENTE - TODAS               GOULART DE FARIA                                          38CASA PORT MAN                                     VILA CONSTANCA           SAO PAULO              SP02259120                            NPE                                          2023041120241208                                                                                                                                                                                                                                                                       MS8374034X                    000000000000000000        00000000R11996982528         996982528           971381428           REINALDO.CESAR@EDP.COM                                      
1012024111515       035210004778                  115375647818   ANA MARIA DA SILVA                           19701229                                                                                                                                                                                                                                                                                                                                                                                                                                       R GIUSEPPE ANTONIO MAIOLINO                       481       B                                                 PARQUE RODRIGO BARRETO   ARUJA                  SP07417505                                                                                          OUTRAS                        R GIUSEPPE ANTONIO MAIOLINO                              481B                                                 PARQUE RODRIGO BARRETO   ARUJA                  SP07417505                            NPE                                          2023041120241208                                                                                                                                                                                                                                                                       FS245175556                   000000000000000000        00000000R11943488046         962487450           941145148           ANA997049100@GMAIL.COM                                      
1012024111515       050320002517                  105458902505   JOSENEI BATISTA DE OLIVEIRA                  19840612                                                                                                                                                                                                                                                                                                                                                                                                                                       ROD FERNAO DIAS KM925                             SN                                                          PONTE ZINCO              ITAPEVA                MG37655000                    NENHUMA                                                               GERENTE - TODAS               FERNAO DIAS                                                0                                                  PONTE ZINCO              ITAPEVA                MG37655000                            NPE                                          2024011620241219                                                                                                                                                                                                                                                                       MS1490608150                  000000000000000000        00000000R                    998843918           984239510                                                                       
1012024111515       026640001459                  123528177810   DANIEL HIDEMITSU OCHIRO                      19950311                                                                                                                                                                                                                                                                                                                                                                                                                                       R MARIA HELENA FERNANDES DIB                      11                                                          SITIO DO CAMPO           PRAIA GRANDE           SP11725260                    EDEGA BOQUEIRAO                                                       EMPRESARIO                    R PONTA PORA                                              65                                                  BOQUEIRAO                PRAIA GRANDE           SP11701020                            NPE                                          2024031120241208                                                                                                                                                                                                                                                                       MS378845585                   000000000000000000        00000000R                                                                                                                        
1012024111515       050050000628                  107398477830   MARIA IRENE DE MELO                          19650117                                                                                                                                                                                                                                                                                                                                                                                                                                       AV SETE DE SETEMBRO                               888                                                         CIPAVA                   OSASCO                 SP06065005                                                                                          APOSENTADO                                                                                                                                                                                                                        NPE                                          2023041120241208                                                                                                                                                                                                                                                                       FS18568388-5                  000000000000000000        00000000R11994014173         994838004           976318889           MARIAIRENEDEMELO1701@GMAIL.COM                              
1012024111515       036180006347                  104583861893   ELIANE ARRUDA DE NOVAES FERREIRA             19620613                                                                                                                                                                                                                                                                                                                                                                                                                                       R DOUTOR LUIZ MIGLIANO                            1870      AP 11 C                                           JARDIM CABORE            SAO PAULO              SP05711001                                                                                          APOSENTADO                                                                                                                                                                                                                        NPE                                          2024031120241208                                                                                                                                                                                                                                                                       FS103843917                   000000000000000000        00000000R                    991861077           991861077           ALINE.NOVAESFERREIRA@GMAIL.COM                              
1012024111515       027560006774                  152898512249   ANDERSON BARBOSA SIQUEIRA                    19861006                                                                                                                                                                                                                                                                                                                                                                                                                                       R VEREADOR AGUIAR FERREIRA DE SOUZA               327                                                         VILA SANTO ANDRE         DOURADOS               MS79810140                                                                                          GERENTE - TODAS               R VEREADOR AGUIAR FERREIRA DE SOUZA                      327                                                  VILA SANTO ANDRE         DOURADOS               MS79810140                            NPE                                          2022110520241208                                                                                                                                                                                                                                                                       MS834213                      000000000000000000        00000000R12981943281         999900680           30322030            SIQUEIR@GMAIL.COM                                           
1012024111515       026420013947                  160299452972   CLEUNESIO ANTONIO PROLO                      19670730                                                                                                                                                                                                                                                                                                                                                                                                                                       RUA TENENTE SILVIO MARTINS                        20                                                          CENTRO                   POCONE                 MT78175000                                                                                          OUTRAS                        RUA TENENTE SILVIO MARTINS                                20                                                  CENTRO                   POCONE                 MT78175000                            NPE                                          2023060920241208                                                                                                                                                                                                                                                                       MS0415088252                  000000000000000000        00000000R65996227731         996227731           996227731           CLEUNESIOCINE@YAHOO.COM.BR                                  
1012024111515       033760000586                  179527736820   JOAO FRANCISCO SIMOES MAIA                   19540330                                                                                                                                                                                                                                                                                                                                                                                                                                       R PASSARO PRETO                                   19                                                          ANA MARIA                SOROCABA               SP18052875                                                                                          EMPRESARIO                                                                                                                                                                                                                        NPE                                          2023121220241110                                                                                                                                                                                                                                                                       MS7796230                     000000000000000000        00000000R15991905012         997070867           991905012           JOAOFSMAIA@HOTMAIL.COM                                      
1012024111515       037060000013                  137447608807   MARCEL DE ARIMATHEA                          19901102                                                                                                                                                                                                                                                                                                                                                                                                                                       RUA QUIXA DA                                      60        AP 813                                            VILA IMBERNADA           SAO PAULO              SP03350060                                                                                          GERENTE - TODAS               R ROBERTO MEDEIROS                                       126                                                  CONJUNTO RESIDENCIAL JOSESAO PAULO              SP08253320                            NPE                                          2022120920241208                                                                                                                                                                                                                                                                       MS0459599838                  000000000000000000        00000000R11986845226         986845226           26210140            MARCELDEARIMATHEA@YAHOO.COM.BR                              
1012024111515       029010001737                  131941098800   LEANDRO COSTA GOMES CHABARIBERY CAMARGO      19841003                                                                                                                                                                                                                                                                                                                                                                                                                                       R FOLHAS CAIDAS                                   61        AP 331                                            CONJUNTO RESIDENCIAL JOSESAO PAULO              SP08253510                                                                                          OUTRAS                        R FOLHAS CAIDAS                                           61AP 331                                            CONJUNTO RESIDENCIAL JOSESAO PAULO              SP08253510                            NPE                                          2023060920241208                                                                                                                                                                                                                                                                       MS47629514                    000000000000000000        00000000R11965259730         998153060           962659761           LEDRINKS00@GMAIL.COM                                        
1012024111515       049240000172                  145595755253   CLAUDINEA DECARIS                            19750118                                                                                                                                                                                                                                                                                                                                                                                                                                       R PARAOPEBA CD LARANJEIRAS                        274       AP 104D                                           FLORES                   MANAUS                 AM69028388                                                                                          EMPRESARIO                    R SARGENTO AGUIAR                                         51                                                  FLORES                   MANAUS                 AM69028401                            NPE                                          2023111720241219                                                                                                                                                                                                                                                                       FS10733140                    000000000000000000        00000000R                    999883526           92981935517         NEA.DECARIS@OUTLOOK.COM                                     
1012024111515       055850000033                  133723062873   ELIEGEM APARECIDA BELENTANI SILVA            19841012                                                                                                                                                                                                                                                                                                                                                                                                                                       PERNAMBUCO                                        2949                                                        COESTER                  FERNANDOPOLIS          SP15603120                    NENHUMA                                                               GERENTE - TODAS               PERNAMBUCO                                              2949                                                  COESTER                  FERNANDOPOLIS          SP15603120                            NPE                                          2024021520241208                                                                                                                                                                                                                                                                       MS417311977                   000000000000000000        00000000R                                                                                                                        
1012024111515       037800000094                  108167495825   MARIA SANDRA MENEZES RODRIGUES               19691207                                                                                                                                                                                                                                                                                                                                                                                                                                       RUA OLIMPIO TEIXEIRA                              05                                                          NOVA PEDREGULHO          PEDREGULHO             SP14470000                    INDUSTRIA DE CALCADOS KISSOL L                                        GERENTE - TODAS               R IRMAOS ANTUNES                                         813                                                  JARDIM MARIA ROSA        FRANCA                 SP14405445                            NPE                                          2022110520241219                                                                                                                                                                                                                                                                       FS205993266                   000000000000000000        00000000R16992057693         992697123           37135288            CARLOSJOSERODRIGUES843@GMAIL.COM                            
1012024111515       050270002743                  109770673862   SILVIA AYUMI NABETA                          19720410                                                                                                                                                                                                                                                                                                                                                                                                                                       BRENTANO                                          401       APTO 171                                          VILA HAMBURGUESA         SAO PAULO              SP05302041                    NENHUMA                                                               GERENTE - TODAS               BRENTANO                                                 401APTO 171                                          VILA HAMBURGUESA         SAO PAULO              SP05302041                            NPE                                          2024040920241208                                                                                                                                                                                                                                                                       MS21646519                    000000000000000000        00000000R                    991003814           991003814                                                                       
1012024111515       053160007281                  136616558843   STAVROS CONSTANTINO KOIKOPOULOS              19870503                                                                                                                                                                                                                                                                                                                                                                                                                                       AV SAO JOAO                                       323       AP 114                                            JARDIM ESPLANADA         SAO JOSE DOS CAMPOS    SP12242904                    ENGEKOBE                                                              EMPRESARIO                    SAO PAULO                                                323AP 114                                            JARDIM ESPLANADA         SAO JOSE DOS CAMPOS    SP12242904                            NPE                                          2024111120241208                                                                                                                                                                                                                                                                       MS                            000000000000000000        00000000R                                                                                                                        
1012024111515       211040047717                  151906155020   MARCELO FABIANO ATAIDES SOARES               19700326                                                                                                                                                                                                                                                                                                                                                                                                                                       R BONIFACIO CALDERON                              40                                                          PASSO DAS PEDRAS         PORTO ALEGRE           RS91230170                                                                                          EMPRESARIO                    R BONIFACIO CALDERON                                      40                                                  PASSO DAS PEDRAS         PORTO ALEGRE           RS91230170                            NPE                                          2024111120241208                                                                                                                                                                                                                                                                       MS                            000000000000000000        00000000R                                                                                                                        
1012024111515       022800022103                  109565256104   CELIO RENATO FERREIRA FREITAS                19530809                                                                                                                                                                                                                                                                                                                                                                                                                                       R CASTRO ALVES                                    543                                                         CENTRO                   JATAI                  GO75800021                                                                                          OUTRAS                        R CASTRO ALVES                                           543                                                  CENTRO                   JATAI                  GO75800021                            NPE                                          2023100920241208                                                                                                                                                                                                                                                                       MS0037166422                  000000000000000000        00000000R                    999575087           996006121           LANAFF06@ICLOUD.COM                                         
1012024111515       035660023428                  100024742635   ROSILENE CRISTINA CASSEMIRO                  19730922                                                                                                                                                                                                                                                                                                                                                                                                                                       RUA CORONEL BRITO FILHO                           941                                                         GL A DE BARROS COBRA     POUSO ALEGRE           MG37554139                                                                                          OUTRAS                        R CORONEL BRITO FILHO                                    941FATIMA 1                                          BAIRRO DE FATIMA         POUSO ALEGRE           MG37554178                            NPE                                          2022111720241219                                                                                                                                                                                                                                                                       FS6969851                     000000000000000000        00000000R35999272874         999951010           12996421423         ROCASSEMIRO05@HOTMAIL.COM                                   
1012024111515       026640000546                  102811612831   MARIA AUXILIADORA SOARES                     19640506                                                                                                                                                                                                                                                                                                                                                                                                                                       AV PRESIDENTE JUSCELINO KUBSTCHECK DE OLIVEIRA    131                                                         VERA TEREZA              CAIEIRAS               SP07717210                                                                                          OUTRAS                        AV PRESIDENTE JUSCELINO KUBSTCHECK DE OLIVEIRA           131                                                  VERA TEREZA              CAIEIRAS               SP077172101142024759                  NPE                                          2023010920241208                                                                                                                                                                                                                                                                       FS18049644                    000000000000000000        00000000R11953123901         953123901           44492987            TATI.MANU.AMOR@GMAIL.COM                                    
1012024111515       038720004304                  119266214841   SANDRA MONTANHA DA SILVA                     19970522                                                                                                                                                                                                                                                                                                                                                                                                                                       R ANA LOPES CINTRA                                184                                                         CIDADE JULIA             SAO PAULO              SP04421120                    ESCOLA PARTICULAR                                                     GERENTE - TODAS               R ANA LOPES CINTRA                                       184                                                  CIDADE JULIA             SAO PAULO              SP04421120                            NPE                                          2024041620241219                                                                                                                                                                                                                                                                       FS24165938                    000000000000000000        00000000R                    977262069           977262069           SANMONTANHA@GMAIL.COM                                       
1012024111515       021980012886                  104533023436   HELANIO RODRIGUES DE OLIVEIRA                19811013                                                                                                                                                                                                                                                                                                                                                                                                                                       RUA JOSE AMORIM                                   153                                                         CENTRO                   SANTANA DO IPANEMA     AL57500000                    N A                                                                   OUTRAS                        RUA JOSE AMORIM                                          153                                                  CENTRO                   SANTANA DO IPANEMA     AL575000008232033135                  NPE                                          2022120920241208                                                                                                                                                                                                                                                                       MS0686821922                  000000000000000000        00000000R992745852           32033135            32033135            CLAUDIANOBRETENORIO16@GMAIL.COM                             
1012024111515       038710001604                  131448839807   DARLENE MARQUES ALVES                        19840404                                                                                                                                                                                                                                                                                                                                                                                                                                       R MONSENHOR EMILIO JOSE SALIM                     31                                                          JARDIM NOSSA SENHORA DAS MOGI GUACU             SP13845344                    RIOFIT ACADEMIA EIRELI ME                                             GERENTE - TODAS               R PRINCESA ISABEL                                        210                                                  VILA RICCI               MOGI GUACU             SP13844060                            NPE                                          2023091120241208                                                                                                                                                                                                                                                                       FS35160177                    000000000000000000        00000000R19996912928         996912928           996912928           DARLENE.MARQUESALVES@GMAIL.COM                              
1012024111515       025950075216                  132821535899   GLAUCIA FATIMA DE OLIVEIRA GAINO             19830911                                                                                                                                                                                                                                                                                                                                                                                                                                       AV SENADOR VERGUEIRO                              608       TORRE 1 AP174                                     CENTRO                   SAO BERNARDO DO CAMPO  SP09750000                                                                                          GERENTE - TODAS               AV SENADOR VERGUEIRO                                     608                                                  CENTRO                   SAO BERNARDO DO CAMPO  SP09750000                            NPE                                          2024061020241208                                                                                                                                                                                                                                                                       FS429555428                   000000000000000000        00000000R                    991184533           951004740           GLAUCIA009@YAHOO.COM.BR                                     
1012024111515       022800016488                  101739256182   PAULO CESAR BATISTA DOS SANTOS               19851101                                                                                                                                                                                                                                                                                                                                                                                                                                       RUA ARAGARCAS                                     SN        Q 1A LT 4                                         BELA VISTA               SAO LUIS DE MONTES BELOGO76100000                                                                                          EMPRESARIO                    AVENIDA ARAGARCAS                                        S-NQ 1 LT 4                                          BELA VISTA               SAO L M BELOS          GO76100000                            NPE                                          2023030920241208                                                                                                                                                                                                                                                                       MS0468263510                  000000000000000000        00000000R64993446958         993446958           992570840           PSANTOSCESAR@HOTMAIL.COM                                    
1012024111515       035780007275                  105636149352   EFRAIM OLIVEIRA AROUCHE DINIZ                19950922                                                                                                                                                                                                                                                                                                                                                                                                                                       TV PADRE VIEIRA                                   10                                                          PARQUE UNIVERSITARIO     SAO LUIS               MA65056070                                                                                          OUTRAS                        TV PADRE VIEIRA                                           10                                                  PARQUE UNIVERSITARIO     SAO LUIS               MA65056070                            NPE                                          2022120920241208                                                                                                                                                                                                                                                                       MS0334234120                  000000000000000000        00000000R98984633099         984633099           984633099           MARIA.REIS@DRYVE.COM.BR                                     
1012024111515       027360006200                  142645333842   MARIANA TASCA SCHMIDT JULIANI                19941124                                                                                                                                                                                                                                                                                                                                                                                                                                       R BONNARD                                         132       AP 277 BLOCO B                                    A EMPRESARIAL            BARUERI                SP06465134                    ADMINISTRADOR SOCIAL MIDIA                                                                                                                                                                                                                                                                              NPE                                          2024011020241208                                                                                                                                                                                                                                                                       FS54.176.922                  000000000000000000        00000000R11948026980         993678888           948026980           JULIANAMOREIRA2005@GMAIL.COM                                
1012024111515       055470000104                  100852448996   ROGES BRAND                                  19830704                                                                                                                                                                                                                                                                                                                                                                                                                                       RUA BAHIA                                         1769                                                        CENTRO                   MEDIANEIRA             PR85884000                                                                                          OUTRAS                        RUA BAHIA                                               1769                                                  CENTRO                   MEDIANEIRA             PR85884000                            NPE                                          2024061020241208                                                                                                                                                                                                                                                                       MS                            000000000000000000        00000000R                    999900078           4532644347          MEDIA_ROGES@GMAIL.COM                                       
1012024111515       031770007332                  181058802372   MARIA IVANIR RODRIGUES SILVA                 19770104                                                                                                                                                                                                                                                                                                                                                                                                                                       AV WILSON DE OLIVEIRA                             600       CASA                                              MELVI                    PRAIA GRANDE           SP11712010                                                                                          OUTRAS                        AV WILSON DE OLIVEIRA                                    600CASA                                              MELVI                    PRAIA GRANDE           SP11712010                            NPE                                          2023041120241208                                                                                                                                                                                                                                                                       FS525811904                   000000000000000000        00000000R13982157210         982157210           982157210           IVANY1234SILVA@GMAIL.COM                                    
1012024111515       055450000383                  126058621860   ERIKA COLOMBO                                19780630                                                                                                                                                                                                                                                                                                                                                                                                                                       R OTUSCO                                          195                                                         JARDIM IPE               SAO PAULO              SP05797430                    NAO INFORMADO                                                         GERENTE - TODAS               R OTUSCO                                                 195                                                  JARDIM IPE               SAO PAULO              SP05797430                            NPE                                          2024061020241208                                                                                                                                                                                                                                                                       FS                            000000000000000000        00000000R                    58250830            58250830            ERICOLOMBO@HOTMAIL.COM                                      
1012024111515       036900000519                  100583110924   GISLAINE SOARES DOS SANTOS                   19780617                                                                                                                                                                                                                                                                                                                                                                                                                                       R IVO FELIPIN                                     346                                                         JARDIM PRIMAVEIRA        PAICANDU               PR87140000                                                                                          OUTRAS                        R IVO FELIPIN                                            346                                                  JARDIM PRIMAVEIRA        PAICANDU               PR871400001140045215                  NPE                                          2022111420241214                                                                                                                                                                                                                                                                       FS68908914                    000000000000000000        00000000R44999357971         999357971           984149048           CONTAFINANCEIRO15@GMAIL.COM                                 
1012024111515       035170005132                  126820289855   RODRIGO DE SOUZA JACOMINI                    19791210                                                                                                                                                                                                                                                                                                                                                                                                                                       R LUIZ ANTONIO BERNO                              71                                                          PARQUE CONCEICAO II      PIRACICABA             SP13412403                    NAO INFORMADO                                                         GERENTE - TODAS               R LUIZ ANTONIO BERNO                                      71                                                  PARQUE CONCEICAO II      PIRACICABA             SP13412403                            NPE                                          2023071220241208                                                                                                                                                                                                                                                                       MS2682028985                  000000000000000000        00000000R                    981455932           15981455931                                                                     
