001202411152024111500000083
1012024111515       035900010819                  114595678703   LORENA TEIXEIRA PINTO BEZERRA                19950608                                                                                                                                                                                                                                                                                                                                                                                                                                       R NUNCIO MAREFOSIQUI                              220       AP201                                             REALENGO                 RIO DE JANEIRO         RJ2174503011931969593         MMAP DO BRASIL                                                        GERENTE - TODAS               AV ATOR JOSE WILKER                                      600LJ 262                                            JACAREPAGUA              RIO DE JANEIRO         RJ22775024                            NPE                                          2023041120520331                                                                                                                                                                                                                                                                       FS222645368                   000000000000000000        00000000R21990244444         990244444           931969593           LOOHTTEIXEIRA@GMAIL.COM                                     
1012024111515       035900008589                  117182458000101VERONICA P A PEDROSO 362333248                                                                                                                                                                                                                                                                                                                                                                                                                                                                                                                                                                                                                              113200501333495554                                                                                                              R CANDIDO RODRIGUES                                      294CS 06                                             CENTRO                   SAO VICENTE            SP11320050                            NPE                                          2023031320520401                                                                                                                                                                                                                                                                        O                            000000000000000000        00000000R13997812110                                                 VERONICA.PAP@HOTMAIL.COM                                    
1012024111515       030120048577                  107820487739   ANDREIA MARIA FELIX                          19770325                                                                                                                                                                                                                                                                                                                                                                                                                                       RUA MARATAIA                                      350       BL 01 AP 905                                      JACAREPAGUA              RIO DE JANEIRO         RJ22770190                                                                                          OUTRAS                        RUA MARATAIA                                             350BL 01 AP 905                                      JACAREPAGUA              RIO DE JANEIRO         RJ227701902126733135                  NPE                                          2024090520520322                                                                                                                                                                                                                                                                       FS0019157245                  000000000000000000        00000000R967841943           996881631           22588167            DEIAFELIX.RJ@GMAIL.COM                                      
1012024111515       038720004141                  132711488802   DEBORA LUIZA VALENTE VIEIRA                  19830608                                                                                                                                                                                                                                                                                                                                                                                                                                       R EXPEDICIONARIO FRANCISCO MOREIRA DE ALMEIDA     30                                                          PARQUE NOVA AMERICA      JACAREI                SP12306150                    GARDEN SJC                                                            GERENTE - TODAS               R NELSON CESAR DE OLIVEIRA                               470                                                  JARDIM DAS INDUSTRIAS    SAO JOSE DOS CAMPOS    SP12240220                            NPE                                          2024021420520401                                                                                                                                                                                                                                                                       FS423676520                   000000000000000000        00000000R                    999720989           39587746            DEBORAVALENTE@HOTMAIL.COM                                   
1012024111515       023620019986                  104974707990   ISABEL CRISTINA ALMEIDA BATISTA MORAIS       19750816                                                                                                                                                                                                                                                                                                                                                                                                                                       R SANTA TEREZA                                    140                                                         RIO GRANDE               PALHOCA                SC88131655                    N A                                                                   OUTRAS                        R SANTA TEREZA                                           140                                                  RIO GRANDE               PALHOCA                SC88131655                            NPE                                          2022111420520401                                                                                                                                                                                                                                                                       FS3521731                     000000000000000000        00000000R48992085342         999534929           5135179469          KENAYMORAIS2@GMAIL.COM                                      
1012024111515       049220000248                  179632840844   DELCIO ALFREDO MICHELIN                      19580312                                                                                                                                                                                                                                                                                                                                                                                                                                       R PREFEITO CLAUDIO MOACIR DE AZEVEDO              220                                                         JARDIM MARINGA           MACAE                  RJ27935435                                                                                          EMPRESARIO                    R PREFEITO CLAUDIO MOACIR DE AZEVEDO                     220                                                  JARDIM MARINGA           MACAE                  RJ27935435                            NPE                                          2024021420520401                                                                                                                                                                                                                                                                       MS                            000000000000000000        00000000R                    999868797           992382737           BOOMDEMINAS@GMAIL.COM                                       
1012024111515       026420017862                  101644605198   MONICA CRISTINA DE MOURA                     19860203                                                                                                                                                                                                                                                                                                                                                                                                                                       2                                                 14                                                          CONDOMINIO RESIDENCIAL VIANAPOLIS               GO75073132                                                                                          EMPRESARIO                    2                                                         14                                                  CONDOMINIO RESIDENCIAL VIANAPOLIS               GO75073132                            NPE                                          2023061220520401                                                                                                                                                                                                                                                                       MS5041729                     000000000000000000        00000000R62982404684         993351084           982316800           MCRISTYMOURA@GMAIL.COM                                      
1012024111515       030120056417                  101040172792   MARCELO CRISTIANO MARTINS TEIXEIRA           19720525                                                                                                                                                                                                                                                                                                                                                                                                                                       R BENJAMIN CONSTANT                               335       CASA 5                                            SANTANA                  NITEROI                RJ24110002                                                                                          APOSENTADO                                                                                                                                                                                                                        NPE                                          2022120520520325                                                                                                                                                                                                                                                                       MS085992931                   000000000000000000        00000000R21998948078         998948078           970382235           MARCELO.M9733@YAHOO.COM.BR                                  
1012024111515       027320010293                  102836592460   JOSE FRANCISCO DA SILVA                      19770210                                                                                                                                                                                                                                                                                                                                                                                                                                       R PROFESSOR AURELIANO DE MEDEIROS FILHO           15                                                          FELIPE CAMARAO           NATAL                  RN59074035                                                                                          OUTRAS                        R PROFESSOR AURELIANO DE MEDEIROS FILHO                   15                                                  FELIPE CAMARAO           NATAL                  RN59074035                            NPE                                          2023061220520401                                                                                                                                                                                                                                                                       MS0183476129                  000000000000000000        00000000R84994504964         998443213           991636724           IRAN.09KK@GMAIL.COM                                         
1012024111515       038720003939                  103221299150   MATHEUS DE CASTRO NUNES                      19910326                                                                                                                                                                                                                                                                                                                                                                                                                                       RUA ESPIRITO SANTO                                62                                                          LAGOA GRANDE             BOM JESUS DA LAPA      BA47600000                                                                                          EMPRESARIO                    PRACA A-SETOR 33                                          88                                                  FORMOSO                  BOM JESUS DA LAPA      BA47600000                            NPE                                          2023121120520401                                                                                                                                                                                                                                                                       MS2328466699                  000000000000000000        00000000R77991433546         999612344           991433546           MATHEUSTRILHA@HOTMAIL.COM                                   
1012024111515       035900005933                  131423788800   VICTOR PAULO IKEDA DE SOUZA                  19840220                                                                                                                                                                                                                                                                                                                                                                                                                                       AV ANACE                                          337       AP 607                                            JD UMARIZAL              SAO PAULO              SP05755090                                                                                                                                                                                                                                                                                                                            NPE                                          2023031320520401                                                                                                                                                                                                                                                                       MO0228958625                  000000000000000000        00000000R11980692713         980692713           11912922929         VICTORIKEDA36@GMAIL.COM                                     
1012024111515       025950074007                  129988572808   MARCIO ARAUJO                                19800604                                                                                                                                                                                                                                                                                                                                                                                                                                       AMBROSIA                                          51                                                          PARQUE GUARANI           SAO PAULO              SP08235480                    NENHUMA                                                               GERENTE - TODAS               AMBROSIA                                                  51                                                  PARQUE GUARANI           SAO PAULO              SP08235480                            NPE                                          2023121120520401                                                                                                                                                                                                                                                                       MS328407847                   000000000000000000        00000000R                    947020669           50772255                                                                        
1012024111515       026730018376                  108646574717   LUCIA ELENA DE ALMEIDA CHAFFIN               19530617                                                                                                                                                                                                                                                                                                                                                                                                                                       RUA DA APARECIDA                                  420                                                         APARECIDA                VALENCA                RJ27600000                                                                                          APOSENTADO                                                                                                                                                                                                                        NPE                                          2024031120520401                                                                                                                                                                                                                                                                       FS126597970                   000000000000000000        00000000R24999531218         999766940           24531886            NATALIASERMANO@GMAIL.COM                                    
1012024111515       035780001435                  175210100197   LARA RAYANE BARBOSA SILVA                    19940827                                                                                                                                                                                                                                                                                                                                                                                                                                       AV FRANCISCO LUZOVICO DE ALMEIDA                  0         Q 34 L 25                                         PQ DAS AMENDOEIRAS       GOIANIA                GO74780440                    GOYAS COMERCIO DE LIVROS LTDA                                         GERENTE - TODAS               AVENIDA RIO VERDE S-N QUADRA 102 - 104                    00                                                  VILA SAO TOMAZ           APARECIDA DE GOIANIA   GO749159066234169608                  NPE                                          2023011220520401                                                                                                                                                                                                                                                                       FS5727299                     000000000000000000        00000000R62991156811         995623256           991156811           LARARAYANE73@GMAIL.COM                                      
1012024111515       026730020702                  137224486892   EDSON FERREIRA BARBOSA                       19850316                                                                                                                                                                                                                                                                                                                                                                                                                                       RUA HILARIO ALVES FERREIRA                        397       CASA                                              NOSSO TETO               ITUVERAVA              SP14500000                    J A DA SILVA FILHO CONSTRUCOES                                        GERENTE - TODAS               R DURVAL DIAS DE OLIVEIRA                                259                                                  JD PRIMAVERA             ITUVERAVA              SP14500000                            NPE                                          2022121620520324                                                                                                                                                                                                                                                                       MS41619433                    000000000000000000        00000000R16992639683         999795395           974037985           NYCOLLASKAROL17@GMAIL.COM                                   
1012024111515       038840002663                  131087352843   GISELE APARECIDA DE PAULA                    19820225                                                                                                                                                                                                                                                                                                                                                                                                                                       R CAIAPOS                                         216                                                         JARDIM IGACABA           MOGI GUACU             SP13845373                    NAO INFORMADO                                                         GERENTE - TODAS               R CAIAPOS                                                216                                                  JARDIM IGACABA           MOGI GUACU             SP13845373                            NPE                                          2023121120520401                                                                                                                                                                                                                                                                       FS                            000000000000000000        00000000R                    997032113           997032113                                                                       
10120241115Q5       023620019986                  48992083886         0       CELULAR                       
10120241115Q5       025950074007                  947020669                   OUTROS                        
10120241115Q5       026420017862                  982316800                   OUTROS                        
10120241115Q5       026730018376                  992886450                   OUTROS                        
10120241115Q5       026730018376                  999531218                   OUTROS                        
10120241115Q5       026730020702                  992013331                   OUTROS                        
10120241115Q5       035900005933                  11980692713         0       CELULAR                       
10120241115Q5       035900010819                  974101648                   OUTROS                        
10120241115Q5       038720004141                  991548019                   OUTROS                        
10120241115Q5       049220000248                  992382737                   OUTROS                        
10120241115Q5       049220000248                  999868797                   OUTROS                        
10120241115Q5       023620019986                  991727686                   OUTROS                        
10120241115Q5       023620019986                  992085342                   OUTROS                        
10120241115Q5       026420017862                  991635000                   OUTROS                        
10120241115Q5       026730018376                  992760801                   OUTROS                        
10120241115Q5       026730018376                  999766940                   OUTROS                        
10120241115Q5       026730020702                  16994047156                 CELULAR                       
10120241115Q5       026730020702                  994217312                   OUTROS                        
10120241115Q5       030120048577                  964073775                   OUTROS                        
10120241115Q5       030120048577                  981652684                   OUTROS                        
10120241115Q5       035900008589                  13997812110                 CELULAR                       
10120241115Q5       035900010819                  11931969593                 RESIDENCIAL                   
10120241115Q5       038720003939                  999612344                   OUTROS                        
10120241115Q5       038720004141                  991408360                   OUTROS                        
10120241115Q5       038840002663                  1140045215                  RECADO                        
10120241115Q5       038840002663                  19997032113                 RECADO                        
10120241115Q5       049220000248                  1140045215                  RECADO                        
10120241115Q5       023620019986                  48991727686                 CELULAR                       
10120241115Q5       023620019986                  991052394                   OUTROS                        
10120241115Q5       025950074007                  50772255                    OUTROS                        
10120241115Q5       026420017862                  991730402                   OUTROS                        
10120241115Q5       027320010293                  991795678                   OUTROS                        
10120241115Q5       027320010293                  998443213                   OUTROS                        
10120241115Q5       030120056417                  21995033235                 CELULAR                       
10120241115Q5       035780001435                  995623256                   OUTROS                        
10120241115Q5       038720003939                  1140045215                  RECADO                        
10120241115Q5       038720004141                  1140045215                  RECADO                        
10120241115Q5       038720004141                  988600020                   OUTROS                        
10120241115Q5       049220000248                  22992906605                 RECADO                        
10120241115Q5       049220000248                  992906605                   OUTROS                        
10120241115Q5       023620019986                  982040421                   OUTROS                        
10120241115Q5       025950074007                  11947020669                 RECADO                        
10120241115Q5       026730018376                  24531886                    OUTROS                        
10120241115Q5       026730018376                  24974011519                 CELULAR                       
10120241115Q5       026730018376                  974011519                   OUTROS                        
10120241115Q5       026730020702                  994047156                   OUTROS                        
10120241115Q5       027320010293                  84991636724         0       CELULAR                       
10120241115Q5       027320010293                  991750458                   OUTROS                        
10120241115Q5       030120048577                  22588167                    OUTROS                        
10120241115Q5       030120048577                  984338855                   OUTROS                        
10120241115Q5       030120048577                  994963539                   OUTROS                        
10120241115Q5       035900005933                  11912922929                 OUTROS                        
10120241115Q5       035900010819                  990244444                   OUTROS                        
10120241115Q5       038720004141                  39587746                    OUTROS                        
10120241115Q5       026420017862                  62982404684                 CELULAR                       
10120241115Q5       026730018376                  2424520000                  RECADO                        
10120241115Q5       026730018376                  993007734                   OUTROS                        
10120241115Q5       026730020702                  991925600                   OUTROS                        
10120241115Q5       026730020702                  992252849                   OUTROS                        
10120241115Q5       026730020702                  999795395                   OUTROS                        
10120241115Q5       023620019986                  5135179469                  OUTROS                        
10120241115Q5       023620019986                  981397628                   OUTROS                        
10120241115Q5       026420017862                  982404684                   OUTROS                        
10120241115Q5       026420017862                  993351084                   OUTROS                        
10120241115Q5       026730018376                  992110457                   OUTROS                        
10120241115Q5       027320010293                  991636724                   OUTROS                        
10120241115Q5       030120048577                  2126733135                  COMERCIAL                     
10120241115Q5       030120056417                  970382235                   OUTROS                        
10120241115Q5       035780001435                  6234169608                  COMERCIAL                     
10120241115Q5       035780001435                  62991156811         0       CELULAR                       
10120241115Q5       035900008589                  1333495554                  RESIDENCIAL                   
10120241115Q5       035900010819                  931969593                   OUTROS                        
10120241115Q5       038720004141                  12991548019                 RECADO                        
10120241115Q5       038720004141                  981218088                   OUTROS                        
10120241115Q5       038720004141                  999720989                   OUTROS                        
10120241115Q5       038840002663                  997032113                   OUTROS                        
10120241115Q5       049220000248                  999849406                   OUTROS                        
10120241115Q5       023620019986                  48991052394         0       CELULAR                       
10120241115Q5       023620019986                  48992085342                 CELULAR                       
10120241115Q5       026730018376                  24993007734                 RECADO                        
10120241115Q5       026730020702                  16974037985                 CELULAR                       
10120241115Q5       026730020702                  974037985                   OUTROS                        
10120241115Q5       027320010293                  84994504964         0       CELULAR                       
10120241115Q5       027320010293                  994504964                   OUTROS                        
10120241115Q5       030120048577                  21982017567                 CELULAR                       
10120241115Q5       030120048577                  992419875                   OUTROS                        
10120241115Q5       030120056417                  21998948078                 CELULAR                       
10120241115Q5       030120056417                  985774941                   OUTROS                        
10120241115Q5       035780001435                  991156811                   OUTROS                        
10120241115Q5       035900005933                  11944922424                 OUTROS                        
10120241115Q5       035900010819                  21966708248         0       CELULAR                       
10120241115Q5       038720003939                  991433546                   OUTROS                        
10120241115Q5       023620019986                  51981397628                 OUTROS                        
10120241115Q5       023620019986                  992083886                   OUTROS                        
10120241115Q5       023620019986                  999534929                   OUTROS                        
10120241115Q5       026730018376                  24999531218                 CELULAR                       
10120241115Q5       026730020702                  16992639683                 CELULAR                       
10120241115Q5       030120048577                  22992419875                 CELULAR                       
10120241115Q5       030120048577                  26733135                    OUTROS                        
10120241115Q5       030120048577                  967841943                   CELULAR                       
10120241115Q5       030120048577                  982017567                   OUTROS                        
10120241115Q5       030120048577                  984312121                   OUTROS                        
10120241115Q5       030120048577                  996881631                   OUTROS                        
10120241115Q5       030120056417                  995033235                   OUTROS                        
10120241115Q5       030120056417                  998948078                   OUTROS                        
10120241115Q5       035900005933                  912922929                   OUTROS                        
10120241115Q5       035900005933                  959740076                   OUTROS                        
10120241115Q5       035900005933                  980692713                   OUTROS                        
10120241115Q5       035900010819                  21990244444                 CELULAR                       
10120241115Q5       035900010819                  966708248                   OUTROS                        
10120241115Q5       038720003939                  77991433546                 CELULAR                       
1012024111525       035900010819                  REFF    035900010819                  03590   REGIONAL SAO PA                                                                                   03590   REGIONAL SAO PAULO                           00000000011228000000000000000000000020221129024         1                                                                                                                                                                                                                                                                                                                                                                                                                                                                                                                                                                                                            000000000000025479                                                                                                 
1012024111525       035900008589                  PARJ    035900008589                  03590   REGIONAL SAO PA                                                                                   03590   REGIONAL SAO PAULO                           00000000061582960000000000000000000020220909048         1                                                                                                                                                                                                                                                                                                                                                                                                                                                                                                                                                                                                            000000000000017107                                                                                                 
1012024111525       049220000248                  REFF    049220000248                  04922   CORRESP. - R.J.                                                                                   04922   CORRESP. - R.J. INTE                         00000000041819700000000000000000000020231211036         1                                                                                                                                                                                                                                                                                                                                                                                                                                                                                                                                                                                                            000000000000027552                                                                                                 
1012024111525       038720003351                  FSEG    038720003351                  03872   NOVACAO COBRANC                                                                                   03872   NOVACAO COBRANCA CON                         00000000053245290000000000000000000020230719048         3                                                                                                                                                                                                                                                                                                                                                                                                                                                                                                                                                                                                            000000000000015400                                                                                                 
1012024111525       035780001435                  ESPF    035780001435                  03578   DRYVE TECNOLOGI                                                                                   03575   VIA UNIAO CONS E COR                         00000000008611760000000000000000000020211110036         1                                                                                                                                                                                                                                                                                                                                                                                                                                                                                                                                                                                                            000000000000023430                                                                                                 
1012024111525       038720003939                  FSEG    038720003939                  03872   NOVACAO COBRANC                                                                                   03872   NOVACAO COBRANCA CON                         00000000123410720000000000000000000020231110060         1                                                                                                                                                                                                                                                                                                                                                                                                                                                                                                                                                                                                            000000000000012700                                                                                                 
1012024111525       022800020671                  PARF    022800020671                  02280   CORRESPONDENTE                                                                                    02280   CORRESPONDENTE GOIAS                         00000000019067180000000000000000000020230315048         3                                                                                                                                                                                                                                                                                                                                                                                                                                                                                                                                                                                                            000000000000025471                                                                                                 
1012024111525       026730020702                  PARF    026730020702                  02673   CORRESPONDENTE                                                                                    02673   CORRESPONDENTE - MIN                         00000000011028450000000000000000000020210212060         1                                                                                                                                                                                                                                                                                                                                                                                                                                                                                                                                                                                                            000000000000017602                                                                                                 
1012024111525       025950074007                  REFF    025950074007                  02595   CORRESPONDENTE                                                                                    02595   CORRESPONDENTE CREDI                         00000000015244990000000000000000000020230811036         1                                                                                                                                                                                                                                                                                                                                                                                                                                                                                                                                                                                                            000000000000020268                                                                                                 
1012024111525       030120048577                  FCDC    030120048577                  03012   CORRESPONDENTE                                                                                    03012   CORRESPONDENTE RIO D                         00000000013743500000000000000000000020210204048         1                                                                                                                                                                                                                                                                                                                                                                                                                                                                                                                                                                                                            000000000000012223                                                                                                 
1012024111525       038840002663                  REFF    038840002663                  03884   CORRESPONDENTE                                                                                    03884   CORRESPONDENTE MOGI                          00000000022358780000000000000000000020231110036         1                                                                                                                                                                                                                                                                                                                                                                                                                                                                                                                                                                                                            000000000000021290                                                                                                 
1012024111525       032340003380                  FCDC    032340003380                  03234   CORRESPONDENTE                                                                                    03234   CORRESPONDENTE PARAI                         00000000069308500000000000000000000020220504048         3                                                                                                                                                                                                                                                                                                                                                                                                                                                                                                                                                                                                            000000000000019777                                                                                                 
1012024111525       038720004141                  FSEG    038720004141                  03872   NOVACAO COBRANC                                                                                   03872   NOVACAO COBRANCA CON                         00000000023230450000000000000000000020240110030         1                                                                                                                                                                                                                                                                                                                                                                                                                                                                                                                                                                                                            000000000000025200                                                                                                 
1012024111525       028620000848                  ESPF    028620000848                  02862   BANCI MULTIMARC                                                                                   02332   M R S NEGOCIOS CORRE                         00000000010681080000000000000000000020210222048         3                                                                                                                                                                                                                                                                                                                                                                                                                                                                                                                                                                                                            000000000000018890                                                                                                 
1012024111525       026730018376                  PARF    026730018376                  02673   CORRESPONDENTE                                                                                    02673   CORRESPONDENTE - MIN                         00000000003448960000000000000000000020201109048         1                                                                                                                                                                                                                                                                                                                                                                                                                                                                                                                                                                                                            000000000000017254                                                                                                 
1012024111525       027320010293                  PARF    027320010293                  02732   CORRESPONDENTE                                                                                    02732   CORRESPONDENTE - RIO                         00000000035100610000000000000000000020220511048         1                                                                                                                                                                                                                                                                                                                                                                                                                                                                                                                                                                                                            000000000000022842                                                                                                 
1012024111525       023620019986                  PARF    023620019986                  02362   CORRESPONDENTE                                                                                    02362   CORRESPONDENTE - SAN                         00000000012928820000000000000000000020201211048         1                                                                                                                                                                                                                                                                                                                                                                                                                                                                                                                                                                                                            000000000000017471                                                                                                 
1012024111525       021130017455                  PARF    021130017455                  02113   PORTOSUL - RS                                                                                     02113   PORTOSUL - RS                                00000000018153380000000000000000000020211228048         3                                                                                                                                                                                                                                                                                                                                                                                                                                                                                                                                                                                                            000000000000029057                                                                                                 
1012024111525       023790025361                  FCDC    023790025361                  02379   CORRESPONDENTE                                                                                    02379   CORRESPONDENTE - DIS                         00000000037243730000000000000000000020231107036         3                                                                                                                                                                                                                                                                                                                                                                                                                                                                                                                                                                                                            000000000000018495                                                                                                 
1012024111525       026420017862                  REFF    026420017862                  02642   CORRESPONDENTE                                                                                    02642   CORRESPONDENTE - MAT                         00000000010350710000000000000000000020230511024         1                                                                                                                                                                                                                                                                                                                                                                                                                                                                                                                                                                                                            000000000000038454                                                                                                 
1012024111525       030120056417                  PARF    030120056417                  03012   CORRESPONDENTE                                                                                    03012   CORRESPONDENTE RIO D                         00000000024362280000000000000000000020210504048         1                                                                                                                                                                                                                                                                                                                                                                                                                                                                                                                                                                                                            000000000000017663                                                                                                 
1012024111525       035900005933                  REFF    035900005933                  03590   REGIONAL SAO PA                                                                                   03590   REGIONAL SAO PAULO                           00000000021070740000000000000000000020220310048         1                                                                                                                                                                                                                                                                                                                                                                                                                                                                                                                                                                                                            000000000000019389                                                                                                 
1012024111525       038720000114                  FSEG    038720000114                  03872   NOVACAO COBRANC                                                                                   03872   NOVACAO COBRANCA CON                         00000000022381940000000000000000000020211227048         3                                                                                                                                                                                                                                                                                                                                                                                                                                                                                                                                                                                                            000000000000014500                                                                                                 
1012024111535       000830037271                  REFF    000830037271                  2024011600000010        20240930000000000009436100000000000000000000000000000000000000000000000000000000000000000005486400   024   7                            C20240116                      
1012024111535       003640032368                  FCDC    003640032368                  2024052000000014                000000000030671600000000000000000000000000000000000000000000000000000000000000000000000000   036   1                             20240520                      
1012024111535       021130018470                  REFF    021130018470                  2023042800000012        20240401000000000021415600000000000000000000000000000000000000000000000000000000000000000005391900   048   7                            C20230428                      
1012024111535       023620019986                  PARF    023620019986                  2024091000000045                000000000009578400000000000000000000000000000000000000000000000000000000000000000000000000   048   1                             20240910                      
1012024111535       023620019986                  PARF    023620019986                  2024101000000046                000000000009578400000000000000000000000000000000000000000000000000000000000000000000000000   048   1                             20241010                      
1012024111535       023620019986                  PARF    023620019986                  2024111000000047                000000000009578400000000000000000000000000000000000000000000000000000000000000000000000000   048   1                             20241110                      
1012024111535       023620019986                  PARF    023620019986                  2024121000000048                000000000009578400000000000000000000000000000000000000000000000000000000000000000000000000   048   1                             20241210                      
1012024111535       025850000471                  ESPF    025850000471                  2021012500000033        20231228000000000008651800000000000000000000000000000000000000000000000000000000000000000001854500   036   7                            C20210125                      
1012024111535       025950064913                  REFF    025950064913                  2024080200000022        20230710000000000006077300000000000000000000000000000000000000000000000000000000000000000002138200   048   7                            C20240802                      
1012024111535       025950074007                  REFF    025950074007                  2024091000000013                000000000006785800000000000000000000000000000000000000000000000000000000000000000000000000   036   1                             20240910                      
1012024111535       025950074007                  REFF    025950074007                  2024101000000014                000000000006785800000000000000000000000000000000000000000000000000000000000000000000000000   036   1                             20241010                      
1012024111535       025950074007                  REFF    025950074007                  2024111000000015                000000000006785800000000000000000000000000000000000000000000000000000000000000000000000000   036   1                             20241110                      
1012024111535       025950074007                  REFF    025950074007                  2024121000000016                000000000006785800000000000000000000000000000000000000000000000000000000000000000000000000   036   1                             20241210                      
1012024111535       025950074007                  REFF    025950074007                  2025011000000017                000000000006785800000000000000000000000000000000000000000000000000000000000000000000000000   036   1                             20250110                      
1012024111535       025950074007                  REFF    025950074007                  2025021000000018                000000000006785800000000000000000000000000000000000000000000000000000000000000000000000000   036   1                             20250210                      
1012024111535       025950074007                  REFF    025950074007                  2025031000000019                000000000006785800000000000000000000000000000000000000000000000000000000000000000000000000   036   1                             20250310                      
1012024111535       025950074007                  REFF    025950074007                  2025041000000020                000000000006785800000000000000000000000000000000000000000000000000000000000000000000000000   036   1                             20250410                      
1012024111535       025950074007                  REFF    025950074007                  2025051000000021                000000000006785800000000000000000000000000000000000000000000000000000000000000000000000000   036   1                             20250510                      
1012024111535       025950074007                  REFF    025950074007                  2025061000000022                000000000006785800000000000000000000000000000000000000000000000000000000000000000000000000   036   1                             20250610                      
1012024111535       025950074007                  REFF    025950074007                  2025071000000023                000000000006785800000000000000000000000000000000000000000000000000000000000000000000000000   036   1                             20250710                      
1012024111535       025950074007                  REFF    025950074007                  2025081000000024                000000000006785800000000000000000000000000000000000000000000000000000000000000000000000000   036   1                             20250810                      
1012024111535       025950074007                  REFF    025950074007                  2025091000000025                000000000006785800000000000000000000000000000000000000000000000000000000000000000000000000   036   1                             20250910                      
1012024111535       025950074007                  REFF    025950074007                  2025101000000026                000000000006785800000000000000000000000000000000000000000000000000000000000000000000000000   036   1                             20251010                      
1012024111535       025950074007                  REFF    025950074007                  2025111000000027                000000000006785800000000000000000000000000000000000000000000000000000000000000000000000000   036   1                             20251110                      
1012024111535       025950074007                  REFF    025950074007                  2025121000000028                000000000006785800000000000000000000000000000000000000000000000000000000000000000000000000   036   1                             20251210                      
1012024111535       025950074007                  REFF    025950074007                  2026011000000029                000000000006785800000000000000000000000000000000000000000000000000000000000000000000000000   036   1                             20260110                      
1012024111535       025950074007                  REFF    025950074007                  2026021000000030                000000000006785800000000000000000000000000000000000000000000000000000000000000000000000000   036   1                             20260210                      
1012024111535       025950074007                  REFF    025950074007                  2026031000000031                000000000006785800000000000000000000000000000000000000000000000000000000000000000000000000   036   1                             20260310                      
1012024111535       025950074007                  REFF    025950074007                  2026041000000032                000000000006785800000000000000000000000000000000000000000000000000000000000000000000000000   036   1                             20260410                      
1012024111535       025950074007                  REFF    025950074007                  2026051000000033                000000000006785800000000000000000000000000000000000000000000000000000000000000000000000000   036   1                             20260510                      
1012024111535       025950074007                  REFF    025950074007                  2026061000000034                000000000006785800000000000000000000000000000000000000000000000000000000000000000000000000   036   1                             20260610                      
1012024111535       025950074007                  REFF    025950074007                  2026071000000035                000000000006785800000000000000000000000000000000000000000000000000000000000000000000000000   036   1                             20260710                      
1012024111535       025950074007                  REFF    025950074007                  2026081000000036                000000000006785800000000000000000000000000000000000000000000000000000000000000000000000000   036   1                             20260810                      
1012024111535       026420017862                  REFF    026420017862                  2024091000000016                000000000006681700000000000000000000000000000000000000000000000000000000000000000000000000   024   1                             20240910                      
1012024111535       026420017862                  REFF    026420017862                  2024101000000017                000000000006681700000000000000000000000000000000000000000000000000000000000000000000000000   024   1                             20241010                      
1012024111535       026420017862                  REFF    026420017862                  2024111000000018                000000000006681700000000000000000000000000000000000000000000000000000000000000000000000000   024   1                             20241110                      
1012024111535       026420017862                  REFF    026420017862                  2024121000000019                000000000006681700000000000000000000000000000000000000000000000000000000000000000000000000   024   1                             20241210                      
1012024111535       026420017862                  REFF    026420017862                  2025011000000020                000000000006681700000000000000000000000000000000000000000000000000000000000000000000000000   024   1                             20250110                      
1012024111535       026420017862                  REFF    026420017862                  2025021000000021                000000000006681700000000000000000000000000000000000000000000000000000000000000000000000000   024   1                             20250210                      
1012024111535       026420017862                  REFF    026420017862                  2025031000000022                000000000006681700000000000000000000000000000000000000000000000000000000000000000000000000   024   1                             20250310                      
1012024111535       026420017862                  REFF    026420017862                  2025041000000023                000000000006681700000000000000000000000000000000000000000000000000000000000000000000000000   024   1                             20250410                      
1012024111535       026420017862                  REFF    026420017862                  2025051000000024                000000000006681700000000000000000000000000000000000000000000000000000000000000000000000000   024   1                             20250510                      
1012024111535       026730018376                  PARF    026730018376                  2024091000000046                000000000008126900000000000000000000000000000000000000000000000000000000000000000000000000   048   1                             20240910                      
1012024111535       026730018376                  PARF    026730018376                  2024101000000047                000000000008126900000000000000000000000000000000000000000000000000000000000000000000000000   048   1                             20241010                      
1012024111535       026730018376                  PARF    026730018376                  2024111000000048                000000000008126900000000000000000000000000000000000000000000000000000000000000000000000000   048   1                             20241110                      
1012024111535       026730020702                  PARF    026730020702                  2024081400000042                000000000005878400000000000000000000000000000000000000000000000000000000000000000000000000   060   1                             20240814                      
1012024111535       026730020702                  PARF    026730020702                  2024091400000043                000000000005878400000000000000000000000000000000000000000000000000000000000000000000000000   060   1                             20240914                      
1012024111535       026730020702                  PARF    026730020702                  2024111400000045                000000000005878400000000000000000000000000000000000000000000000000000000000000000000000000   060   1                             20241114                      
1012024111535       026730020702                  PARF    026730020702                  2024121400000046                000000000005878400000000000000000000000000000000000000000000000000000000000000000000000000   060   1                             20241214                      
1012024111535       026730020702                  PARF    026730020702                  2025011400000047                000000000005878400000000000000000000000000000000000000000000000000000000000000000000000000   060   1                             20250114                      
1012024111535       026730020702                  PARF    026730020702                  2025021400000048                000000000005878400000000000000000000000000000000000000000000000000000000000000000000000000   060   1                             20250214                      
1012024111535       026730020702                  PARF    026730020702                  2025031400000049                000000000005878400000000000000000000000000000000000000000000000000000000000000000000000000   060   1                             20250314                      
1012024111535       026730020702                  PARF    026730020702                  2025041400000050                000000000005878400000000000000000000000000000000000000000000000000000000000000000000000000   060   1                             20250414                      
1012024111535       026730020702                  PARF    026730020702                  2025051400000051                000000000005878400000000000000000000000000000000000000000000000000000000000000000000000000   060   1                             20250514                      
1012024111535       026730020702                  PARF    026730020702                  2025061400000052                000000000005878400000000000000000000000000000000000000000000000000000000000000000000000000   060   1                             20250614                      
1012024111535       026730020702                  PARF    026730020702                  2025071400000053                000000000005878400000000000000000000000000000000000000000000000000000000000000000000000000   060   1                             20250714                      
1012024111535       026730020702                  PARF    026730020702                  2025081400000054                000000000005878400000000000000000000000000000000000000000000000000000000000000000000000000   060   1                             20250814                      
1012024111535       026730020702                  PARF    026730020702                  2025091400000055                000000000005878400000000000000000000000000000000000000000000000000000000000000000000000000   060   1                             20250914                      
1012024111535       026730020702                  PARF    026730020702                  2025101400000056                000000000005878400000000000000000000000000000000000000000000000000000000000000000000000000   060   1                             20251014                      
1012024111535       026730020702                  PARF    026730020702                  2025111400000057                000000000005878400000000000000000000000000000000000000000000000000000000000000000000000000   060   1                             20251114                      
1012024111535       026730020702                  PARF    026730020702                  2025121400000058                000000000005878400000000000000000000000000000000000000000000000000000000000000000000000000   060   1                             20251214                      
1012024111535       026730020702                  PARF    026730020702                  2026011400000059                000000000005878400000000000000000000000000000000000000000000000000000000000000000000000000   060   1                             20260114                      
1012024111535       026730020702                  PARF    026730020702                  2026021400000060                000000000005878400000000000000000000000000000000000000000000000000000000000000000000000000   060   1                             20260214                      
1012024111535       027120020365                  PARF    027120020365                  2024030400000031        20240624000000000010531000000000000000000000000000000000000000000000000000000000000000000005873000   048   7                            C20240304                      
1012024111535       027320008129                  PARF    027320008129                  2023081100000024        20240930000000000027578600000000000000000000000000000000000000000000000000000000000000000010212200   048   7                            C20230811                      
1012024111535       027320010293                  PARF    027320010293                  2024091000000028                000000000018894800000000000000000000000000000000000000000000000000000000000000000000000000   048   1                             20240910                      
1012024111535       027320010293                  PARF    027320010293                  2024101000000029                000000000018894800000000000000000000000000000000000000000000000000000000000000000000000000   048   1                             20241010                      
1012024111535       027320010293                  PARF    027320010293                  2024111000000030                000000000018894800000000000000000000000000000000000000000000000000000000000000000000000000   048   1                             20241110                      
1012024111535       027320010293                  PARF    027320010293                  2024121000000031                000000000018894800000000000000000000000000000000000000000000000000000000000000000000000000   048   1                             20241210                      
1012024111535       027320010293                  PARF    027320010293                  2025011000000032                000000000018894800000000000000000000000000000000000000000000000000000000000000000000000000   048   1                             20250110                      
1012024111535       027320010293                  PARF    027320010293                  2025021000000033                000000000018894800000000000000000000000000000000000000000000000000000000000000000000000000   048   1                             20250210                      
1012024111535       027320010293                  PARF    027320010293                  2025031000000034                000000000018894800000000000000000000000000000000000000000000000000000000000000000000000000   048   1                             20250310                      
1012024111535       027320010293                  PARF    027320010293                  2025041000000035                000000000018894800000000000000000000000000000000000000000000000000000000000000000000000000   048   1                             20250410                      
1012024111535       027320010293                  PARF    027320010293                  2025051000000036                000000000018894800000000000000000000000000000000000000000000000000000000000000000000000000   048   1                             20250510                      
1012024111535       027320010293                  PARF    027320010293                  2025061000000037                000000000018894800000000000000000000000000000000000000000000000000000000000000000000000000   048   1                             20250610                      
1012024111535       027320010293                  PARF    027320010293                  2025071000000038                000000000018894800000000000000000000000000000000000000000000000000000000000000000000000000   048   1                             20250710                      
1012024111535       027320010293                  PARF    027320010293                  2025081000000039                000000000018894800000000000000000000000000000000000000000000000000000000000000000000000000   048   1                             20250810                      
1012024111535       027320010293                  PARF    027320010293                  2025091000000040                000000000018894800000000000000000000000000000000000000000000000000000000000000000000000000   048   1                             20250910                      
1012024111535       027320010293                  PARF    027320010293                  2025101000000041                000000000018894800000000000000000000000000000000000000000000000000000000000000000000000000   048   1                             20251010                      
1012024111535       027320010293                  PARF    027320010293                  2025111000000042                000000000018894800000000000000000000000000000000000000000000000000000000000000000000000000   048   1                             20251110                      
1012024111535       027320010293                  PARF    027320010293                  2025121000000043                000000000018894800000000000000000000000000000000000000000000000000000000000000000000000000   048   1                             20251210                      
1012024111535       027320010293                  PARF    027320010293                  2026011000000044                000000000018894800000000000000000000000000000000000000000000000000000000000000000000000000   048   1                             20260110                      
1012024111535       027320010293                  PARF    027320010293                  2026021000000045                000000000018894800000000000000000000000000000000000000000000000000000000000000000000000000   048   1                             20260210                      
1012024111535       027320010293                  PARF    027320010293                  2026031000000046                000000000018894800000000000000000000000000000000000000000000000000000000000000000000000000   048   1                             20260310                      
1012024111535       027320010293                  PARF    027320010293                  2026041000000047                000000000018894800000000000000000000000000000000000000000000000000000000000000000000000000   048   1                             20260410                      
1012024111535       027320010293                  PARF    027320010293                  2026051000000048                000000000018894800000000000000000000000000000000000000000000000000000000000000000000000000   048   1                             20260510                      
1012024111535       030120044096                  FCDC    030120044096                  2024031400000039        20240625000000000013903200000000000000000000000000000000000000000000000000000000000000000012339500   048   7                            C20240314                      
1012024111535       030120048577                  FCDC    030120048577                  2024080600000042                000000000007427800000000000000000000000000000000000000000000000000000000000000000000000000   048   1                             20240806                      
1012024111535       030120048577                  FCDC    030120048577                  2024090600000043                000000000007427800000000000000000000000000000000000000000000000000000000000000000000000000   048   1                             20240906                      
1012024111535       030120048577                  FCDC    030120048577                  2024100600000044                000000000007427800000000000000000000000000000000000000000000000000000000000000000000000000   048   1                             20241006                      
1012024111535       030120048577                  FCDC    030120048577                  2024110600000045                000000000007427800000000000000000000000000000000000000000000000000000000000000000000000000   048   1                             20241106                      
1012024111535       030120048577                  FCDC    030120048577                  2024120600000046                000000000007427800000000000000000000000000000000000000000000000000000000000000000000000000   048   1                             20241206                      
1012024111535       030120054118                  PARF    030120054118                  2024110600000043        20240930000000000012978300000000000000000000000000000000000000000000000000000000000000000000675400   060   7                            C20241106                      
1012024111535       030120056417                  PARF    030120056417                  2024090300000040                000000000014434200000000000000000000000000000000000000000000000000000000000000000000000000   048   1                             20240903                      
1012024111535       030120056417                  PARF    030120056417                  2024100300000041                000000000014434200000000000000000000000000000000000000000000000000000000000000000000000000   048   1                             20241003                      
1012024111535       030120056417                  PARF    030120056417                  2024110300000042                000000000014434200000000000000000000000000000000000000000000000000000000000000000000000000   048   1                             20241103                      
1012024111535       030120056417                  PARF    030120056417                  2024120300000043                000000000014434200000000000000000000000000000000000000000000000000000000000000000000000000   048   1                             20241203                      
1012024111535       030120056417                  PARF    030120056417                  2025010300000044                000000000014434200000000000000000000000000000000000000000000000000000000000000000000000000   048   1                             20250103                      
1012024111535       030120056417                  PARF    030120056417                  2025020300000045                000000000014434200000000000000000000000000000000000000000000000000000000000000000000000000   048   1                             20250203                      
1012024111535       030120056417                  PARF    030120056417                  2025030300000046                000000000014434200000000000000000000000000000000000000000000000000000000000000000000000000   048   1                             20250303                      
1012024111535       030120056417                  PARF    030120056417                  2025040300000047                000000000014434200000000000000000000000000000000000000000000000000000000000000000000000000   048   1                             20250403                      
1012024111535       030120056417                  PARF    030120056417                  2025050300000048                000000000014434200000000000000000000000000000000000000000000000000000000000000000000000000   048   1                             20250503                      
1012024111535       032710000421                  ESPF    032710000421                  2024101100000041        20240729000000000010389300000000000000000000000000000000000000000000000000000000000000000002030300   060   7                            C20241011                      
1012024111535       035160003067                  PARF    035160003067                  2023111200000027        20240730000000000020099400000000000000000000000000000000000000000000000000000000000000000006246300   036   7                            C20231112                      
1012024111535       035170003473                  REFF    035170003473                  2024110200000027        20241112000000000018242300000000000000000000000000000000000000000000000000000000000000000018242300   036   8                            C20241102                      
1012024111535       035780001435                  ESPF    035780001435                  2024091000000034                000000000006866500000000000000000000000000000000000000000000000000000000000000000000000000   036   1                             20240910                      
1012024111535       035780001435                  ESPF    035780001435                  2024101000000035                000000000006866500000000000000000000000000000000000000000000000000000000000000000000000000   036   1                             20241010                      
1012024111535       035780001435                  ESPF    035780001435                  2024111000000036                000000000006866500000000000000000000000000000000000000000000000000000000000000000000000000   036   1                             20241110                      
1012024111535       035900005933                  REFF    035900005933                  2024091000000030                000000000010305200000000000000000000000000000000000000000000000000000000000000000000000000   048   1                             20240910                      
1012024111535       035900005933                  REFF    035900005933                  2024101000000031                000000000010305200000000000000000000000000000000000000000000000000000000000000000000000000   048   1                             20241010                      
1012024111535       035900005933                  REFF    035900005933                  2024111000000032                000000000010305200000000000000000000000000000000000000000000000000000000000000000000000000   048   1                             20241110                      
1012024111535       035900005933                  REFF    035900005933                  2024121000000033                000000000010305200000000000000000000000000000000000000000000000000000000000000000000000000   048   1                             20241210                      
1012024111535       035900005933                  REFF    035900005933                  2025011000000034                000000000010305200000000000000000000000000000000000000000000000000000000000000000000000000   048   1                             20250110                      
1012024111535       035900005933                  REFF    035900005933                  2025021000000035                000000000010305200000000000000000000000000000000000000000000000000000000000000000000000000   048   1                             20250210                      
1012024111535       035900005933                  REFF    035900005933                  2025031000000036                000000000010305200000000000000000000000000000000000000000000000000000000000000000000000000   048   1                             20250310                      
1012024111535       035900005933                  REFF    035900005933                  2025041000000037                000000000010305200000000000000000000000000000000000000000000000000000000000000000000000000   048   1                             20250410                      
1012024111535       035900005933                  REFF    035900005933                  2025051000000038                000000000010305200000000000000000000000000000000000000000000000000000000000000000000000000   048   1                             20250510                      
1012024111535       035900005933                  REFF    035900005933                  2025061000000039                000000000010305200000000000000000000000000000000000000000000000000000000000000000000000000   048   1                             20250610                      
1012024111535       035900005933                  REFF    035900005933                  2025071000000040                000000000010305200000000000000000000000000000000000000000000000000000000000000000000000000   048   1                             20250710                      
1012024111535       035900005933                  REFF    035900005933                  2025081000000041                000000000010305200000000000000000000000000000000000000000000000000000000000000000000000000   048   1                             20250810                      
1012024111535       035900005933                  REFF    035900005933                  2025091000000042                000000000010305200000000000000000000000000000000000000000000000000000000000000000000000000   048   1                             20250910                      
1012024111535       035900005933                  REFF    035900005933                  2025101000000043                000000000010305200000000000000000000000000000000000000000000000000000000000000000000000000   048   1                             20251010                      
1012024111535       035900005933                  REFF    035900005933                  2025111000000044                000000000010305200000000000000000000000000000000000000000000000000000000000000000000000000   048   1                             20251110                      
1012024111535       035900005933                  REFF    035900005933                  2025121000000045                000000000010305200000000000000000000000000000000000000000000000000000000000000000000000000   048   1                             20251210                      
1012024111535       035900005933                  REFF    035900005933                  2026011000000046                000000000010305200000000000000000000000000000000000000000000000000000000000000000000000000   048   1                             20260110                      
1012024111535       035900005933                  REFF    035900005933                  2026021000000047                000000000010305200000000000000000000000000000000000000000000000000000000000000000000000000   048   1                             20260210                      
1012024111535       035900005933                  REFF    035900005933                  2026031000000048                000000000010305200000000000000000000000000000000000000000000000000000000000000000000000000   048   1                             20260310                      
1012024111535       035900008589                  PARJ    035900008589                  2024091000000024                000000000022888500000000000000000000000000000000000000000000000000000000000000000000000000   048   1                             20240910                      
1012024111535       035900008589                  PARJ    035900008589                  2024101000000025                000000000022888500000000000000000000000000000000000000000000000000000000000000000000000000   048   1                             20241010                      
1012024111535       035900008589                  PARJ    035900008589                  2024111000000026                000000000022888500000000000000000000000000000000000000000000000000000000000000000000000000   048   1                             20241110                      
1012024111535       035900008589                  PARJ    035900008589                  2024121000000027                000000000022888500000000000000000000000000000000000000000000000000000000000000000000000000   048   1                             20241210                      
1012024111535       035900008589                  PARJ    035900008589                  2025011000000028                000000000022888500000000000000000000000000000000000000000000000000000000000000000000000000   048   1                             20250110                      
1012024111535       035900008589                  PARJ    035900008589                  2025021000000029                000000000022888500000000000000000000000000000000000000000000000000000000000000000000000000   048   1                             20250210                      
1012024111535       035900008589                  PARJ    035900008589                  2025031000000030                000000000022888500000000000000000000000000000000000000000000000000000000000000000000000000   048   1                             20250310                      
1012024111535       035900008589                  PARJ    035900008589                  2025041000000031                000000000022888500000000000000000000000000000000000000000000000000000000000000000000000000   048   1                             20250410                      
1012024111535       035900008589                  PARJ    035900008589                  2025051000000032                000000000022888500000000000000000000000000000000000000000000000000000000000000000000000000   048   1                             20250510                      
1012024111535       035900008589                  PARJ    035900008589                  2025061000000033                000000000022888500000000000000000000000000000000000000000000000000000000000000000000000000   048   1                             20250610                      
1012024111535       035900008589                  PARJ    035900008589                  2025071000000034                000000000022888500000000000000000000000000000000000000000000000000000000000000000000000000   048   1                             20250710                      
1012024111535       035900008589                  PARJ    035900008589                  2025081000000035                000000000022888500000000000000000000000000000000000000000000000000000000000000000000000000   048   1                             20250810                      
1012024111535       035900008589                  PARJ    035900008589                  2025091000000036                000000000022888500000000000000000000000000000000000000000000000000000000000000000000000000   048   1                             20250910                      
1012024111535       035900008589                  PARJ    035900008589                  2025101000000037                000000000022888500000000000000000000000000000000000000000000000000000000000000000000000000   048   1                             20251010                      
1012024111535       035900008589                  PARJ    035900008589                  2025111000000038                000000000022888500000000000000000000000000000000000000000000000000000000000000000000000000   048   1                             20251110                      
1012024111535       035900008589                  PARJ    035900008589                  2025121000000039                000000000022888500000000000000000000000000000000000000000000000000000000000000000000000000   048   1                             20251210                      
