001202412052024120500000100
1012024120515       027320012798                  101744553483   MARIANA PAOLA CUNHA ROSADO                   19970424                                                                                                                                                                                                                                                                                                                                                                                                                                       R HERA                                            125                                                         ALTO DO SUMARE           MOSSORO                RN59632178                                                                                          OUTRAS                        R HERA                                                   125                                                  ALTO DO SUMARE           MOSSORO                RN59632178                            NPE                                          2023030220520421                                                                                                                                                                                                                                                                       FS003217555                   000000000000000000        00000000R84996231682         996231682           11930944228         MARIANAPAOLACUNHA@GMAIL.COM                                 
1012024120515       038720004707                  139728877870   ERICK BARBOSA DE OLIVEIRA                    19910702                                                                                                                                                                                                                                                                                                                                                                                                                                       R ERNESTO SALVADOR DE JESUS                       142                                                         SITIO DO CAMPO           PRAIA GRANDE           SP11725390                                                                                          OUTRAS                        R ERNESTO SALVADOR DE JESUS                              142                                                  SITIO DO CAMPO           PRAIA GRANDE           SP11725390                            NPE                                          2024053120520421                                                                                                                                                                                                                                                                       MS48205519                    000000000000000000        00000000R                    998049854           974208610                                                                       
1012024120515       050460000987                  100262888343   FRANCISCO ADRIANO DA SILVA ABREU             19850101                                                                                                                                                                                                                                                                                                                                                                                                                                       LOT VALE DO GAVIAO                                6762                                                        VALE DO GAVIAO           TERESINA               PI64069430                                                                                          OUTRAS                        VALE DO GAVIAO                                          6760BL3 AP201                                         VALE DO GAVIAO           TERESINA               PI64069430                            NPE                                          2023032020520421                                                                                                                                                                                                                                                                       MS2261947                     000000000000000000        00000000R86998290463         998290463           32157912            FRANCISCOADRIANOSABREU@HOTMAIL.COM                          
1012024120515       031340007288                  178956382204   PEDRO ALLISON NASCIMENTO CARNAUBA            19840416                                                                                                                                                                                                                                                                                                                                                                                                                                       RUA FLORIANOPOLIS                                 53        ESQ. B.HOR                                        CENTRO                   MARACANA               PA68710000                    MEGA DISTRIBUIDORA                                                    GERENTE - TODAS               AV PRESIDENTE GETULIO VARGAS                              SN                                                  IANETAMA                 CASTANHAL              PA687450009132646699                  NPE                                          2023050320520421                                                                                                                                                                                                                                                                       MS0332726879                  000000000000000000        00000000R986175586           999673003           9132509907          PEDROALLISONCEFA@GMAIL.COM                                  
1012024120515       021130021247                  145706964068   CARLOS ALBERTO FERNANDES COGO                19610121                                                                                                                                                                                                                                                                                                                                                                                                                                       R COMENDADOR RODOLFO GOMES                        504       AP. 306                                           MENINO DEUS              PORTO ALEGRE           RS90150100                                                                                          OUTRAS                        R COMENDADOR RODOLFO GOMES                               504AP. 306                                           MENINO DEUS              PORTO ALEGRE           RS90150100                            NPE                                          2023041720520420                                                                                                                                                                                                                                                                       MS9007425425                  000000000000000000        00000000R51981380056         981383407           980472404           ANAGBCOGO@GMAIL.COM                                         
1012024120515       032020006968                  102688097806   ARLETE MENDES BARRETO DE SOUZA               19581217                                                                                                                                                                                                                                                                                                                                                                                                                                       RUA QUINZE DE NOVEMBRO                            701                                                         CENTRO                   APIAI                  SP18320000                                                                                          OUTRAS                        R FRANCISCO DAS CHAGAS BARRETO LIMA                      964                                                  CAMPO DOS VELHOS         SOBRAL                 CE62030095                            NPE                                          2022110520520421                                                                                                                                                                                                                                                                       FS2004988877                  000000000000000000        00000000R15981438096         997963030           981173085           THAMIRES.BARRETO.S@HOTMAIL.COM                              
1012024120515       025530003483                  100604591586   HERACLITO VIEIRA SANTOS                      19811027                                                                                                                                                                                                                                                                                                                                                                                                                                       POVOADO MALHADA                                   40        KM 4                                              ZONA RURAL               ADUSTINA               BA48435000                                                                                          OUTRAS                        POVOADO MALHADA                                           40KM 4                                              ZONA RURAL               ADUSTINA               BA48435000                            NPE                                          2022120620520329                                                                                                                                                                                                                                                                       MS1447065                     000000000000000000        00000000R75998811411         998811411           998811411           ERAKEVIEIRA@GMAIL.COM                                       
1012024120515       051920002688                  103583547225   IGOR MILHOMEM ALENCAR                        19960526                                                                                                                                                                                                                                                                                                                                                                                                                                       AVENIDA BERNARDO SAYAO                            2         CASA                                              NOVA IMPERATRIZ          IMPERATRIZ             MA65903075                                                                                          OUTRAS                        R LONDRINA                                                SN                                                  NOVA CURITIBA            TUCUMA                 PA68385000                            NPE                                          2023073120520421                                                                                                                                                                                                                                                                       MS0793928945                  000000000000000000        00000000R94992699996         992699996           991203620           IGOR123@GMAIL.COM                                           
1012024120515       027560007869                  122157099875   GABRIELE ELIAS SANTANA NEME                  19810207                                                                                                                                                                                                                                                                                                                                                                                                                                       R ALFREDO CAMILHER DE SA                          98                                                          VILA RESENDE             CACAPAVA               SP12282250                                                                                          OUTRAS                        R ALFREDO CAMILHER DE SA                                  98                                                  VILA RESENDE             CACAPAVA               SP12282250                            NPE                                          2022110520520421                                                                                                                                                                                                                                                                       FS32484807                    000000000000000000        00000000R12997690801         997690801           12988764007         MAHALOTURISMO@YAHOO.COM.BR                                  
1012024120515       030120045600                  173281492720   EUNICE GUIMARAES BRAGANCA                    19530919                                                                                                                                                                                                                                                                                                                                                                                                                                       R PAULO SOARES                                    121                                                         SAO ROQUE                QUEIMADOS              RJ26310020                                                                                          APOSENTADO                                                                                                                                                                                                                        NPE                                          2023050320520421                                                                                                                                                                                                                                                                       FS00363127                    000000000000000000        00000000R                    21996862765         21964485821                                                                     
1012024120515       038720000450                  102770381032   LUCAS PASSAMANI                              19920330                                                                                                                                                                                                                                                                                                                                                                                                                                       RUA JOAO BIAZUS                                   910                                                         VILA LUIZA               PASSO FUNDO            RS99100000                    N A                                                                   OUTRAS                        RUA JOAO BIAZUS                                          910                                                  VILA LUIZA               PASSO FUNDO            RS99100000                            NPE                                          2022110520520414                                                                                                                                                                                                                                                                       MS0496224324                  000000000000000000        00000000R993234691           991692844           991609498           BINA_PF@HOTMAIL.COM                                         
1012024120515       038720004321                  138304922860   CAUE COSTA DANTAS                            19900407                                                                                                                                                                                                                                                                                                                                                                                                                                       CARIOCA                                           745       B                                                 VILA CARIOCA             SAO PAULO              SP04225002                    NENHUMA                                                               GERENTE - TODAS               CARIOCA                                                  745B                                                 VILA CARIOCA             SAO PAULO              SP04225002                            NPE                                          2024031820520319                                                                                                                                                                                                                                                                       MS467524816                   000000000000000000        00000000R11984916860         984916860           20636464                                                                        
1012024120515       211040028718                  141268481858   CAROLINE VITORIA MOREIRA                     20020718                                                                                                                                                                                                                                                                                                                                                                                                                                       ALBANO VIEIRA SARDINH                             44                                                          JARDIM AMALIA            LEME                   SP13610300                                                                                          OUTRAS                        R ALBANO VIEIRA SARDINHA                                  44CASA                                              JARDIM AMALIA            LEME                   SP136103001140045215                  NPE                                          2023020720520319                                                                                                                                                                                                                                                                       FS60206711X                   000000000000000000        00000000R19993478529         993478529           19989840069         CAROLINE031115@HOTMAIL.COM                                  
1012024120515       025950075302                  146013336873   ANDREZA SILVESTRE PEREIRA                    19941201                                                                                                                                                                                                                                                                                                                                                                                                                                       R MAPARIS                                         159       CASA B                                            QUINTA DA PAINEIRA       SAO PAULO              SP03152120                                                                                          OUTRAS                        R MAPARIS                                                159CASA B                                            QUINTA DA PAINEIRA       SAO PAULO              SP03152120                            NPE                                          2024040320520421                                                                                                                                                                                                                                                                       FS567949175                   000000000000000000        00000000R11980545043         980545043           980545043           ANDREZA17DEDE@GMAIL.COM                                     
1012024120515       038720003115                  105203274975   KILIAN ALVES                                 19860312                                                                                                                                                                                                                                                                                                                                                                                                                                       R PONTE SERRADA                                   751       AP 101 CX 3                                       COMASA                   JOINVILLE              SC89228270                                                                                          OUTRAS                        R PONTE SERRADA                                          751                                                  COMASA                   JOINVILLE              SC89228270                            NPE                                          2023083120520421                                                                                                                                                                                                                                                                       MS4765487                     000000000000000000        00000000R996251124           999654119           988180295                                                                       
1012024120515       021130015209                  100286468514   MAURO SERGIO SILVA DE OLIVEIRA               19760514                                                                                                                                                                                                                                                                                                                                                                                                                                       R ITAIBO                                          27                                                          JOAQUIM ROMAO            JEQUIE                 BA45200567                                                                                          OUTRAS                        R ITAIBO                                                  27                                                  JOAQUIM ROMAO            JEQUIE                 BA452005671140045215                  NPE                                          2022110520520421                                                                                                                                                                                                                                                                       MS0613985394                  000000000000000000        00000000R988251280           991030500           24400091            MAUROSERGIO45@HOTMAIL.COM                                   
10120241205Q5       021130015209                  1140045215                  COMERCIAL                     
10120241205Q5       027320012798                  84981341434                 OUTROS                        
10120241205Q5       032020006968                  15981173085                 CELULAR                       
10120241205Q5       038720003115                  997188889                   OUTROS                        
10120241205Q5       038720004321                  984916860                   OUTROS                        
10120241205Q5       038720004707                  974208610                   OUTROS                        
10120241205Q5       038720004707                  981729996                   OUTROS                        
10120241205Q5       038720004707                  998049854                   OUTROS                        
10120241205Q5       050460000987                  8632157912                  CELULAR                       
10120241205Q5       050460000987                  995855468                   OUTROS                        
10120241205Q5       051920002688                  992071513                   OUTROS                        
10120241205Q5       051920002688                  992699996                   OUTROS                        
10120241205Q5       021130015209                  73988251280         0       CELULAR                       
10120241205Q5       021130021247                  981382785                   OUTROS                        
10120241205Q5       027320012798                  996231682                   OUTROS                        
10120241205Q5       027560007869                  12997690801         0       CELULAR                       
10120241205Q5       030120045600                  21970803220                 OUTROS                        
10120241205Q5       031340007288                  9132646699                  COMERCIAL                     
10120241205Q5       032020006968                  981173085                   OUTROS                        
10120241205Q5       038720000450                  991692844                   OUTROS                        
10120241205Q5       038720004707                  13974208610                 RECADO                        
10120241205Q5       050460000987                  994218033                   OUTROS                        
10120241205Q5       050460000987                  998290463                   OUTROS                        
10120241205Q5       021130015209                  988460628                   OUTROS                        
10120241205Q5       021130021247                  51981380056         0       CELULAR                       
10120241205Q5       027320012798                  988112408                   OUTROS                        
10120241205Q5       030120045600                  21996862765                 OUTROS                        
10120241205Q5       031340007288                  91999673003                 CELULAR                       
10120241205Q5       038720003115                  47999654119                 CELULAR                       
10120241205Q5       038720003115                  988180295                   OUTROS                        
10120241205Q5       038720004321                  981106482                   OUTROS                        
10120241205Q5       038720004321                  982809092                   OUTROS                        
10120241205Q5       050460000987                  86998290463                 CELULAR                       
10120241205Q5       050460000987                  994197322                   OUTROS                        
10120241205Q5       051920002688                  991203620                   OUTROS                        
10120241205Q5       021130015209                  24400091                    OUTROS                        
10120241205Q5       021130015209                  40045215                    OUTROS                        
10120241205Q5       021130021247                  981380056                   OUTROS                        
10120241205Q5       025950075302                  980545043                   OUTROS                        
10120241205Q5       027560007869                  991285069                   OUTROS                        
10120241205Q5       027560007869                  997690801                   OUTROS                        
10120241205Q5       030120045600                  21991698689                 RECADO                        
10120241205Q5       031340007288                  9121223613                  RECADO                        
10120241205Q5       031340007288                  91988269180                 CELULAR                       
10120241205Q5       031340007288                  91999621084         0       CELULAR                       
10120241205Q5       032020006968                  981438096                   OUTROS                        
10120241205Q5       032020006968                  997217729                   OUTROS                        
10120241205Q5       038720000450                  54991692844                 CELULAR                       
10120241205Q5       038720000450                  993234691                   CELULAR                       
10120241205Q5       038720004707                  1374208610                  RECADO                        
10120241205Q5       038720004707                  991969364                   OUTROS                        
10120241205Q5       050460000987                  32157912                    OUTROS                        
10120241205Q5       051920002688                  991213029                   OUTROS                        
10120241205Q5       211040028718                  1140045215                  COMERCIAL                     
10120241205Q5       211040028718                  989840069                   OUTROS                        
10120241205Q5       021130015209                  991030500                   OUTROS                        
10120241205Q5       027560007869                  12991018097                 OUTROS                        
10120241205Q5       031340007288                  9132509907                  OUTROS                        
10120241205Q5       031340007288                  986175586                   CELULAR                       
10120241205Q5       031340007288                  988269180                   OUTROS                        
10120241205Q5       032020006968                  997682627                   OUTROS                        
10120241205Q5       038720003115                  999654119                   OUTROS                        
10120241205Q5       211040028718                  19993478529                 CELULAR                       
10120241205Q5       021130015209                  988251280                   CELULAR                       
10120241205Q5       021130021247                  981383407                   OUTROS                        
10120241205Q5       025530003483                  998811411                   OUTROS                        
10120241205Q5       025530003483                  999047120                   CELULAR                       
10120241205Q5       025950075302                  11980545043         0       CELULAR                       
10120241205Q5       027320012798                  11930944228                 OUTROS                        
10120241205Q5       027320012798                  84996231682                 CELULAR                       
10120241205Q5       027560007869                  40045215                    OUTROS                        
10120241205Q5       031340007288                  999621084                   OUTROS                        
10120241205Q5       031340007288                  999673003                   OUTROS                        
10120241205Q5       032020006968                  15981438096                 CELULAR                       
10120241205Q5       032020006968                  996388290                   OUTROS                        
10120241205Q5       038720003115                  996965522                   OUTROS                        
10120241205Q5       038720004707                  996103450                   OUTROS                        
10120241205Q5       051920002688                  94992699996         0       CELULAR                       
10120241205Q5       211040028718                  19989840069                 OUTROS                        
10120241205Q5       211040028718                  993478529                   OUTROS                        
10120241205Q5       021130021247                  980472404                   OUTROS                        
10120241205Q5       025530003483                  75998811411                 CELULAR                       
10120241205Q5       027320012798                  987958082                   OUTROS                        
10120241205Q5       027560007869                  12991285069                 CELULAR                       
10120241205Q5       030120045600                  2137649397                  RECADO                        
10120241205Q5       030120045600                  21964485821                 OUTROS                        
10120241205Q5       031340007288                  9134481479                  OUTROS                        
10120241205Q5       032020006968                  997963030                   OUTROS                        
10120241205Q5       038720000450                  991609498                   OUTROS                        
10120241205Q5       038720004321                  20636464                    OUTROS                        
10120241205Q5       050460000987                  981081290                   OUTROS                        
10120241205Q5       021130015209                  988648272                   OUTROS                        
10120241205Q5       025530003483                  996366007                   CELULAR                       
10120241205Q5       025950075302                  1140045215                  RECADO                        
10120241205Q5       027560007869                  12988764007                 OUTROS                        
10120241205Q5       038720003115                  1140045215                  RECADO                        
10120241205Q5       038720003115                  47996544119                 CELULAR                       
10120241205Q5       038720003115                  996251124                   CELULAR                       
10120241205Q5       038720003115                  996544119                   OUTROS                        
10120241205Q5       038720004321                  11984916860                 CELULAR                       
10120241205Q5       051920002688                  1140045215                  RECADO                        
1012024120525       035210008354                  REFJ    035210008354                  03521   CORRESPONDENTE                                                                                    03521   CORRESPONDENTE SUCUR                         00000000045540160000000000000000000020240826048         3                                                                                                                                                                                                                                                                                                                                                                                                                                                                                                                                                                                                            000000000000037064                                                                                                 
1012024120525       050460000987                  REFF    050460000987                  05046   CORRESPONDENTE                                                                                    05046   CORRESPONDENTE PIAUI                         00000000012737710000000000000000000020220727036         1                                                                                                                                                                                                                                                                                                                                                                                                                                                                                                                                                                                                            000000000000038032                                                                                                 
1012024120525       021130021247                  REFF    021130021247                  02113   PORTOSUL - RS                                                                                     02113   PORTOSUL - RS                                00000000037717650000000000000000000020220816036         1                                                                                                                                                                                                                                                                                                                                                                                                                                                                                                                                                                                                            000000000000021684                                                                                                 
1012024120525       022800023665                  REFF    022800023665                  02280   CORRESPONDENTE                                                                                    02280   CORRESPONDENTE GOIAS                         00000000022283690000000000000000000020240401036         3                                                                                                                                                                                                                                                                                                                                                                                                                                                                                                                                                                                                            000000000000039619                                                                                                 
1012024120525       038720003115                  FSEG    038720003115                  03872   NOVACAO COBRANC                                                                                   03872   NOVACAO COBRANCA CON                         00000000037607820000000000000000000020230530054         1                                                                                                                                                                                                                                                                                                                                                                                                                                                                                                                                                                                                            000000000000018700                                                                                                 
1012024120525       039690000235                  ESPF    039690000235                  03969   F. ROCHA EXCLUS                                                                                   03968   F ROCHA DE SOUZA COR                         00000000022229180000000000000000000020240510048         3                                                                                                                                                                                                                                                                                                                                                                                                                                                                                                                                                                                                            000000000000019943                                                                                                 
1012024120525       025530003483                  PARF    025530003483                  02553   CORRESPONDENTE                                                                                    02553   CORRESPONDENTE - SER                         00000000008180810000000000000000000020210203048         1                                                                                                                                                                                                                                                                                                                                                                                                                                                                                                                                                                                                            000000000000022444                                                                                                 
1012024120525       025950075302                  FCDC    025950075302                  02595   CORRESPONDENTE                                                                                    02595   CORRESPONDENTE CREDI                         00000000031914890000000000000000000020231030048         1                                                                                                                                                                                                                                                                                                                                                                                                                                                                                                                                                                                                            000000000000020060                                                                                                 
1012024120525       027560007869                  PARF    027560007869                  02756   CORRESPONDENTE                                                                                    02756   CORRESPONDENTE TAUBA                         00000000016604980000000000000000000020210525048         1                                                                                                                                                                                                                                                                                                                                                                                                                                                                                                                                                                                                            000000000000020851                                                                                                 
1012024120525       038720000450                  FSEG    038720000450                  03872   NOVACAO COBRANC                                                                                   03872   NOVACAO COBRANCA CON                         00000000012505670000000000000000000020220324034         1                                                                                                                                                                                                                                                                                                                                                                                                                                                                                                                                                                                                            000000000000013000                                                                                                 
1012024120525       038720004579                  FSEG    038720004579                  03872   NOVACAO COBRANC                                                                                   03872   NOVACAO COBRANCA CON                         00000000036114120000000000000000000020240326060         3                                                                                                                                                                                                                                                                                                                                                                                                                                                                                                                                                                                                            000000000000010900                                                                                                 
1012024120525       038720004707                  FSEG    038720004707                  03872   NOVACAO COBRANC                                                                                   03872   NOVACAO COBRANCA CON                         00000000027561790000000000000000000020240430024         1                                                                                                                                                                                                                                                                                                                                                                                                                                                                                                                                                                                                            000000000000009900                                                                                                 
1012024120525       051920002688                  ESPF    051920002688                  05192   V.S. AUTOMOVEIS                                                                                   02591   VANSEG CORRETORA E A                         00000000085882230000000000000000000020230630048         1                                                                                                                                                                                                                                                                                                                                                                                                                                                                                                                                                                                                            000000000000025119                                                                                                 
1012024120525       021130015209                  PARF    021130015209                  02113   PORTOSUL - RS                                                                                     02113   PORTOSUL - RS                                00000000026425040000000000000000000020210630048         1                                                                                                                                                                                                                                                                                                                                                                                                                                                                                                                                                                                                            000000000000015125                                                                                                 
1012024120525       211570012526                  PARF    211570012526                  21157   CORRESPONDENTE                                                                                    21157   CORRESPONDENTE BAHIA                         00000000013939510000000000000000000020210224060         3                                                                                                                                                                                                                                                                                                                                                                                                                                                                                                                                                                                                            000000000000017102                                                                                                 
1012024120525       027320012798                  FCDC    027320012798                  02732   CORRESPONDENTE                                                                                    02732   CORRESPONDENTE - RIO                         00000000034097200000000000000000000020221130048         1                                                                                                                                                                                                                                                                                                                                                                                                                                                                                                                                                                                                            000000000000018600                                                                                                 
1012024120525       030120045600                  PARF    030120045600                  03012   CORRESPONDENTE                                                                                    03012   CORRESPONDENTE RIO D                         00000000017153540000000000000000000020201230048         1                                                                                                                                                                                                                                                                                                                                                                                                                                                                                                                                                                                                            000000000000014226                                                                                                 
1012024120525       031340007288                  PARF    031340007288                  03134   CORRESPONDENTE                                                                                    03134   CORRESPONDENTE PARA                          00000000023962110000000000000000000020220701060         1                                                                                                                                                                                                                                                                                                                                                                                                                                                                                                                                                                                                            000000000000022530                                                                                                 
1012024120525       037810000615                  PARF    037810000615                  03781   CORRESPONDENTE                                                                                    03781   CORRESPONDENTE TRIAN                         00000000012409090000000000000000000020210819048         3                                                                                                                                                                                                                                                                                                                                                                                                                                                                                                                                                                                                            000000000000021412                                                                                                 
1012024120525       030120102143                  UTLF    030120102143                  03012   CORRESPONDENTE                                                                                    03012   CORRESPONDENTE RIO D                         00000000083912490000000000000000000020230925048         3                                                                                                                                                                                                                                                                                                                                                                                                                                                                                                                                                                                                            000000000000031403                                                                                                 
1012024120525       032020006968                  FCDC    032020006968                  03202   CORRESPONDENTE                                                                                    03202   CORRESPONDENTE CEARA                         00000000017230860000000000000000000020210223048         1                                                                                                                                                                                                                                                                                                                                                                                                                                                                                                                                                                                                            000000000000015539                                                                                                 
1012024120525       038720004321                  FSEG    038720004321                  03872   NOVACAO COBRANC                                                                                   03872   NOVACAO COBRANCA CON                         00000000047395440000000000000000000020240216012         1                                                                                                                                                                                                                                                                                                                                                                                                                                                                                                                                                                                                            000000000000021800                                                                                                 
1012024120525       211040028718                  PARF    211040028718                  21104   CORRESP.  RIBEI                                                                                   21104   CORRESP.  RIBEIR?O P                         00000000008109840000000000000000000020210831036         1                                                                                                                                                                                                                                                                                                                                                                                                                                                                                                                                                                                                            000000000000015947                                                                                                 
1012024120535       001620013876                  PARF    001620013876                  2024062000000035                000000000013308200000000000000000000000000000000000000000000000000000000000000000000000000   048   1                             20240620                      
1012024120535       001620013876                  PARF    001620013876                  2024072000000036                000000000013308200000000000000000000000000000000000000000000000000000000000000000000000000   048   1                             20240720                      
1012024120535       001620013876                  PARF    001620013876                  2024082000000037                000000000013308200000000000000000000000000000000000000000000000000000000000000000000000000   048   1                             20240820                      
1012024120535       019700001248                  ESPJ    019700001248                  2023031500000027                000000000012326800000000000017812700000000000001668200000000000000246500000000000000000000   048   1                             20230315                      
1012024120535       019700001248                  ESPJ    019700001248                  2023041500000028                000000000012326800000000000017412700000000000001540900000000000000246500000000000000000000   048   1                             20230415                      
1012024120535       019700001248                  ESPJ    019700001248                  2023081500000032                000000000012326800000000000015838300000000000001039600000000000000246500000000000000000000   048   1                             20230815                      
1012024120535       019700001248                  ESPJ    019700001248                  2023091500000033                000000000012326800000000000015438200000000000000912200000000000000246500000000000000000000   048   1                             20230915                      
1012024120535       019700001248                  ESPJ    019700001248                  2023101500000034                000000000012326800000000000015051000000000000000788900000000000000246500000000000000000000   048   1                             20231015                      
1012024120535       019700001248                  ESPJ    019700001248                  2023111500000035                000000000012326800000000000014651000000000000000661500000000000000246500000000000000000000   048   1                             20231115                      
1012024120535       019700001248                  ESPJ    019700001248                  2023121500000036                000000000012326800000000000014263900000000000000538300000000000000246500000000000000000000   048   1                             20231215                      
1012024120535       019700001248                  ESPJ    019700001248                  2024011500000037                000000000012326800000000000013863800000000000000410900000000000000246500000000000000000000   048   1                             20240115                      
1012024120535       019700001248                  ESPJ    019700001248                  2024021500000038                000000000012326800000000000013463700000000000000283500000000000000246500000000000000000000   048   1                             20240215                      
1012024120535       019700001248                  ESPJ    019700001248                  2024031500000039                000000000012326800000000000013089500000000000000164400000000000000246500000000000000000000   048   1                             20240315                      
1012024120535       019700001248                  ESPJ    019700001248                  2024041500000040                000000000012326800000000000012689500000000000000037000000000000000246500000000000000000000   048   1                             20240415                      
1012024120535       019700001248                  ESPJ    019700001248                  2024051500000041                000000000012326800000000000012147800000000000000000000000000000000000000000000000000000000   048   1                             20240515                      
1012024120535       019700001248                  ESPJ    019700001248                  2024061500000042                000000000012326800000000000011888300000000000000000000000000000000000000000000000000000000   048   1                             20240615                      
1012024120535       019700001248                  ESPJ    019700001248                  2024071500000043                000000000012326800000000000011642500000000000000000000000000000000000000000000000000000000   048   1                             20240715                      
1012024120535       019700001248                  ESPJ    019700001248                  2024081500000044                000000000012326800000000000011393800000000000000000000000000000000000000000000000000000000   048   1                             20240815                      
1012024120535       019700001248                  ESPJ    019700001248                  2024091500000045                000000000012326800000000000011150500000000000000000000000000000000000000000000000000000000   048   1                             20240915                      
1012024120535       019700001248                  ESPJ    019700001248                  2024101500000046                000000000012326800000000000010919900000000000000000000000000000000000000000000000000000000   048   1                             20241015                      
1012024120535       019700001248                  ESPJ    019700001248                  2024111500000047                000000000012326800000000000010686700000000000000000000000000000000000000000000000000000000   048   1                             20241115                      
1012024120535       019700001248                  ESPJ    019700001248                  2024121500000048                000000000012326800000000000010465700000000000000000000000000000000000000000000000000000000   048   1                             20241215                      
1012024120535       021130015209                  PARF    021130015209                  2024093000000039                000000000011887100000000000000000000000000000000000000000000000000000000000000000000000000   048   1                             20240930                      
1012024120535       021130015209                  PARF    021130015209                  2024103000000040                000000000011887100000000000000000000000000000000000000000000000000000000000000000000000000   048   1                             20241030                      
1012024120535       021130015209                  PARF    021130015209                  2024113000000041                000000000011887100000000000000000000000000000000000000000000000000000000000000000000000000   048   1                             20241130                      
1012024120535       021130015209                  PARF    021130015209                  2024123000000042                000000000011887100000000000000000000000000000000000000000000000000000000000000000000000000   048   1                             20241230                      
1012024120535       021130015209                  PARF    021130015209                  2025013000000043                000000000011887100000000000000000000000000000000000000000000000000000000000000000000000000   048   1                             20250130                      
1012024120535       021130015209                  PARF    021130015209                  2025022800000044                000000000011887100000000000000000000000000000000000000000000000000000000000000000000000000   048   1                             20250228                      
1012024120535       021130015209                  PARF    021130015209                  2025033000000045                000000000011887100000000000000000000000000000000000000000000000000000000000000000000000000   048   1                             20250330                      
1012024120535       021130015209                  PARF    021130015209                  2025043000000046                000000000011887100000000000000000000000000000000000000000000000000000000000000000000000000   048   1                             20250430                      
1012024120535       021130015209                  PARF    021130015209                  2025053000000047                000000000011887100000000000000000000000000000000000000000000000000000000000000000000000000   048   1                             20250530                      
1012024120535       021130015209                  PARF    021130015209                  2025063000000048                000000000011887100000000000000000000000000000000000000000000000000000000000000000000000000   048   1                             20250630                      
1012024120535       021130021247                  REFF    021130021247                  2024081500000023                000000000020054500000000000000000000000000000000000000000000000000000000000000000000000000   036   1                             20240815                      
1012024120535       021130021247                  REFF    021130021247                  2024091500000024                000000000020054500000000000000000000000000000000000000000000000000000000000000000000000000   036   1                             20240915                      
1012024120535       021130021247                  REFF    021130021247                  2024101500000025                000000000020054500000000000000000000000000000000000000000000000000000000000000000000000000   036   1                             20241015                      
1012024120535       021130021247                  REFF    021130021247                  2024111500000026                000000000020054500000000000000000000000000000000000000000000000000000000000000000000000000   036   1                             20241115                      
1012024120535       021130021247                  REFF    021130021247                  2024121500000027                000000000020054500000000000000000000000000000000000000000000000000000000000000000000000000   036   1                             20241215                      
1012024120535       021130021247                  REFF    021130021247                  2025011500000028                000000000020054500000000000000000000000000000000000000000000000000000000000000000000000000   036   1                             20250115                      
1012024120535       021130021247                  REFF    021130021247                  2025021500000029                000000000020054500000000000000000000000000000000000000000000000000000000000000000000000000   036   1                             20250215                      
1012024120535       021130021247                  REFF    021130021247                  2025031500000030                000000000020054500000000000000000000000000000000000000000000000000000000000000000000000000   036   1                             20250315                      
1012024120535       021130021247                  REFF    021130021247                  2025041500000031                000000000020054500000000000000000000000000000000000000000000000000000000000000000000000000   036   1                             20250415                      
1012024120535       021130021247                  REFF    021130021247                  2025051500000032                000000000020054500000000000000000000000000000000000000000000000000000000000000000000000000   036   1                             20250515                      
1012024120535       021130021247                  REFF    021130021247                  2025061500000033                000000000020054500000000000000000000000000000000000000000000000000000000000000000000000000   036   1                             20250615                      
1012024120535       021130021247                  REFF    021130021247                  2025071500000034                000000000020054500000000000000000000000000000000000000000000000000000000000000000000000000   036   1                             20250715                      
1012024120535       021130021247                  REFF    021130021247                  2025081500000035                000000000020054500000000000000000000000000000000000000000000000000000000000000000000000000   036   1                             20250815                      
1012024120535       021130021247                  REFF    021130021247                  2025091500000036                000000000020054500000000000000000000000000000000000000000000000000000000000000000000000000   036   1                             20250915                      
1012024120535       021980014526                  REFF    021980014526                  2024091800000017                000000000014841500000000000000000000000000000000000000000000000000000000000000000000000000   048   1                             20240918                      
1012024120535       023790016380                  PARF    023790016380                  2024011100000023                000000000013949100000000000000000000000000000000000000000000000000000000000000000000000000   060   1                             20240111                      
1012024120535       023790016380                  PARF    023790016380                  2024021100000024                000000000013949100000000000000000000000000000000000000000000000000000000000000000000000000   060   1                             20240211                      
1012024120535       023790016380                  PARF    023790016380                  2024031100000025                000000000013949100000000000000000000000000000000000000000000000000000000000000000000000000   060   1                             20240311                      
1012024120535       023790016380                  PARF    023790016380                  2024041100000026                000000000013949100000000000000000000000000000000000000000000000000000000000000000000000000   060   1                             20240411                      
1012024120535       023790016380                  PARF    023790016380                  2024051100000027                000000000013949100000000000000000000000000000000000000000000000000000000000000000000000000   060   1                             20240511                      
1012024120535       023790016380                  PARF    023790016380                  2024061100000028                000000000013949100000000000000000000000000000000000000000000000000000000000000000000000000   060   1                             20240611                      
1012024120535       023790016380                  PARF    023790016380                  2024071100000029                000000000013949100000000000000000000000000000000000000000000000000000000000000000000000000   060   1                             20240711                      
1012024120535       023790016380                  PARF    023790016380                  2024081100000030                000000000013949100000000000000000000000000000000000000000000000000000000000000000000000000   060   1                             20240811                      
1012024120535       023790016380                  PARF    023790016380                  2024091100000031                000000000013949100000000000000000000000000000000000000000000000000000000000000000000000000   060   1                             20240911                      
1012024120535       023790016380                  PARF    023790016380                  2024101100000032                000000000013949100000000000000000000000000000000000000000000000000000000000000000000000000   060   1                             20241011                      
1012024120535       023790016380                  PARF    023790016380                  2024111100000033                000000000013949100000000000000000000000000000000000000000000000000000000000000000000000000   060   1                             20241111                      
1012024120535       025530003483                  PARF    025530003483                  2024110500000045                000000000006823200000000000000000000000000000000000000000000000000000000000000000000000000   048   1                             20241105                      
1012024120535       025530003483                  PARF    025530003483                  2024120500000046                000000000006823200000000000000000000000000000000000000000000000000000000000000000000000000   048   1                             20241205                      
1012024120535       025530003483                  PARF    025530003483                  2025010500000047                000000000006823200000000000000000000000000000000000000000000000000000000000000000000000000   048   1                             20250105                      
1012024120535       025530003483                  PARF    025530003483                  2025020500000048                000000000006823200000000000000000000000000000000000000000000000000000000000000000000000000   048   1                             20250205                      
1012024120535       025950054673                  FCDC    025950054673                  2024082100000027                000000000019274300000000000000000000000000000000000000000000000000000000000000000000000000   060   1                             20240821                      
1012024120535       025950054673                  FCDC    025950054673                  2024092100000028                000000000019274300000000000000000000000000000000000000000000000000000000000000000000000000   060   1                             20240921                      
1012024120535       025950054673                  FCDC    025950054673                  2024102100000029                000000000019274300000000000000000000000000000000000000000000000000000000000000000000000000   060   1                             20241021                      
1012024120535       025950054673                  FCDC    025950054673                  2024112100000030                000000000019274300000000000000000000000000000000000000000000000000000000000000000000000000   060   1                             20241121                      
1012024120535       025950054673                  FCDC    025950054673                  2024122100000031                000000000019274300000000000000000000000000000000000000000000000000000000000000000000000000   060   1                             20241221                      
1012024120535       025950054673                  FCDC    025950054673                  2025012100000032                000000000019274300000000000000000000000000000000000000000000000000000000000000000000000000   060   1                             20250121                      
1012024120535       025950054673                  FCDC    025950054673                  2025022100000033                000000000019274300000000000000000000000000000000000000000000000000000000000000000000000000   060   1                             20250221                      
1012024120535       025950054673                  FCDC    025950054673                  2025032100000034                000000000019274300000000000000000000000000000000000000000000000000000000000000000000000000   060   1                             20250321                      
1012024120535       025950054673                  FCDC    025950054673                  2025042100000035                000000000019274300000000000000000000000000000000000000000000000000000000000000000000000000   060   1                             20250421                      
1012024120535       025950054673                  FCDC    025950054673                  2025052100000036                000000000019274300000000000000000000000000000000000000000000000000000000000000000000000000   060   1                             20250521                      
1012024120535       025950054673                  FCDC    025950054673                  2025062100000037                000000000019274300000000000000000000000000000000000000000000000000000000000000000000000000   060   1                             20250621                      
1012024120535       025950054673                  FCDC    025950054673                  2025072100000038                000000000019274300000000000000000000000000000000000000000000000000000000000000000000000000   060   1                             20250721                      
1012024120535       025950054673                  FCDC    025950054673                  2025082100000039                000000000019274300000000000000000000000000000000000000000000000000000000000000000000000000   060   1                             20250821                      
1012024120535       025950054673                  FCDC    025950054673                  2025092100000040                000000000019274300000000000000000000000000000000000000000000000000000000000000000000000000   060   1                             20250921                      
1012024120535       025950054673                  FCDC    025950054673                  2025102100000041                000000000019274300000000000000000000000000000000000000000000000000000000000000000000000000   060   1                             20251021                      
1012024120535       025950054673                  FCDC    025950054673                  2025112100000042                000000000019274300000000000000000000000000000000000000000000000000000000000000000000000000   060   1                             20251121                      
1012024120535       025950054673                  FCDC    025950054673                  2025122100000043                000000000019274300000000000000000000000000000000000000000000000000000000000000000000000000   060   1                             20251221                      
1012024120535       025950054673                  FCDC    025950054673                  2026012100000044                000000000019274300000000000000000000000000000000000000000000000000000000000000000000000000   060   1                             20260121                      
1012024120535       025950054673                  FCDC    025950054673                  2026022100000045                000000000019274300000000000000000000000000000000000000000000000000000000000000000000000000   060   1                             20260221                      
1012024120535       025950054673                  FCDC    025950054673                  2026032100000046                000000000019274300000000000000000000000000000000000000000000000000000000000000000000000000   060   1                             20260321                      
1012024120535       025950054673                  FCDC    025950054673                  2026042100000047                000000000019274300000000000000000000000000000000000000000000000000000000000000000000000000   060   1                             20260421                      
1012024120535       025950054673                  FCDC    025950054673                  2026052100000048                000000000019274300000000000000000000000000000000000000000000000000000000000000000000000000   060   1                             20260521                      
1012024120535       025950054673                  FCDC    025950054673                  2026062100000049                000000000019274300000000000000000000000000000000000000000000000000000000000000000000000000   060   1                             20260621                      
1012024120535       025950054673                  FCDC    025950054673                  2026072100000050                000000000019274300000000000000000000000000000000000000000000000000000000000000000000000000   060   1                             20260721                      
1012024120535       025950054673                  FCDC    025950054673                  2026082100000051                000000000019274300000000000000000000000000000000000000000000000000000000000000000000000000   060   1                             20260821                      
1012024120535       025950054673                  FCDC    025950054673                  2026092100000052                000000000019274300000000000000000000000000000000000000000000000000000000000000000000000000   060   1                             20260921                      
1012024120535       025950054673                  FCDC    025950054673                  2026102100000053                000000000019274300000000000000000000000000000000000000000000000000000000000000000000000000   060   1                             20261021                      
1012024120535       025950054673                  FCDC    025950054673                  2026112100000054                000000000019274300000000000000000000000000000000000000000000000000000000000000000000000000   060   1                             20261121                      
1012024120535       025950054673                  FCDC    025950054673                  2026122100000055                000000000019274300000000000000000000000000000000000000000000000000000000000000000000000000   060   1                             20261221                      
1012024120535       025950054673                  FCDC    025950054673                  2027012100000056                000000000019274300000000000000000000000000000000000000000000000000000000000000000000000000   060   1                             20270121                      
1012024120535       025950054673                  FCDC    025950054673                  2027022100000057                000000000019274300000000000000000000000000000000000000000000000000000000000000000000000000   060   1                             20270221                      
1012024120535       025950054673                  FCDC    025950054673                  2027032100000058                000000000019274300000000000000000000000000000000000000000000000000000000000000000000000000   060   1                             20270321                      
1012024120535       025950054673                  FCDC    025950054673                  2027042100000059                000000000019274300000000000000000000000000000000000000000000000000000000000000000000000000   060   1                             20270421                      
1012024120535       025950054673                  FCDC    025950054673                  2027052100000060                000000000019274300000000000000000000000000000000000000000000000000000000000000000000000000   060   1                             20270521                      
1012024120535       025950075302                  FCDC    025950075302                  2024093000000011                000000000012311300000000000000000000000000000000000000000000000000000000000000000000000000   048   1                             20240930                      
1012024120535       025950075302                  FCDC    025950075302                  2024103000000012                000000000012311300000000000000000000000000000000000000000000000000000000000000000000000000   048   1                             20241030                      
1012024120535       025950075302                  FCDC    025950075302                  2024113000000013                000000000012311300000000000000000000000000000000000000000000000000000000000000000000000000   048   1                             20241130                      
1012024120535       025950075302                  FCDC    025950075302                  2024123000000014                000000000012311300000000000000000000000000000000000000000000000000000000000000000000000000   048   1                             20241230                      
1012024120535       025950075302                  FCDC    025950075302                  2025013000000015                000000000012311300000000000000000000000000000000000000000000000000000000000000000000000000   048   1                             20250130                      
1012024120535       025950075302                  FCDC    025950075302                  2025022800000016                000000000012311300000000000000000000000000000000000000000000000000000000000000000000000000   048   1                             20250228                      
1012024120535       025950075302                  FCDC    025950075302                  2025033000000017                000000000012311300000000000000000000000000000000000000000000000000000000000000000000000000   048   1                             20250330                      
1012024120535       025950075302                  FCDC    025950075302                  2025043000000018                000000000012311300000000000000000000000000000000000000000000000000000000000000000000000000   048   1                             20250430                      
1012024120535       025950075302                  FCDC    025950075302                  2025053000000019                000000000012311300000000000000000000000000000000000000000000000000000000000000000000000000   048   1                             20250530                      
1012024120535       025950075302                  FCDC    025950075302                  2025063000000020                000000000012311300000000000000000000000000000000000000000000000000000000000000000000000000   048   1                             20250630                      
1012024120535       025950075302                  FCDC    025950075302                  2025073000000021                000000000012311300000000000000000000000000000000000000000000000000000000000000000000000000   048   1                             20250730                      
1012024120535       025950075302                  FCDC    025950075302                  2025083000000022                000000000012311300000000000000000000000000000000000000000000000000000000000000000000000000   048   1                             20250830                      
1012024120535       025950075302                  FCDC    025950075302                  2025093000000023                000000000012311300000000000000000000000000000000000000000000000000000000000000000000000000   048   1                             20250930                      
1012024120535       025950075302                  FCDC    025950075302                  2025103000000024                000000000012311300000000000000000000000000000000000000000000000000000000000000000000000000   048   1                             20251030                      
1012024120535       025950075302                  FCDC    025950075302                  2025113000000025                000000000012311300000000000000000000000000000000000000000000000000000000000000000000000000   048   1                             20251130                      
1012024120535       025950075302                  FCDC    025950075302                  2025123000000026                000000000012311300000000000000000000000000000000000000000000000000000000000000000000000000   048   1                             20251230                      
1012024120535       025950075302                  FCDC    025950075302                  2026013000000027                000000000012311300000000000000000000000000000000000000000000000000000000000000000000000000   048   1                             20260130                      
1012024120535       025950075302                  FCDC    025950075302                  2026022800000028                000000000012311300000000000000000000000000000000000000000000000000000000000000000000000000   048   1                             20260228                      
1012024120535       025950075302                  FCDC    025950075302                  2026033000000029                000000000012311300000000000000000000000000000000000000000000000000000000000000000000000000   048   1                             20260330                      
1012024120535       025950075302                  FCDC    025950075302                  2026043000000030                000000000012311300000000000000000000000000000000000000000000000000000000000000000000000000   048   1                             20260430                      
1012024120535       025950075302                  FCDC    025950075302                  2026053000000031                000000000012311300000000000000000000000000000000000000000000000000000000000000000000000000   048   1                             20260530                      
1012024120535       025950075302                  FCDC    025950075302                  2026063000000032                000000000012311300000000000000000000000000000000000000000000000000000000000000000000000000   048   1                             20260630                      
1012024120535       025950075302                  FCDC    025950075302                  2026073000000033                000000000012311300000000000000000000000000000000000000000000000000000000000000000000000000   048   1                             20260730                      
1012024120535       025950075302                  FCDC    025950075302                  2026083000000034                000000000012311300000000000000000000000000000000000000000000000000000000000000000000000000   048   1                             20260830                      
1012024120535       025950075302                  FCDC    025950075302                  2026093000000035                000000000012311300000000000000000000000000000000000000000000000000000000000000000000000000   048   1                             20260930                      
1012024120535       025950075302                  FCDC    025950075302                  2026103000000036                000000000012311300000000000000000000000000000000000000000000000000000000000000000000000000   048   1                             20261030                      
1012024120535       025950075302                  FCDC    025950075302                  2026113000000037                000000000012311300000000000000000000000000000000000000000000000000000000000000000000000000   048   1                             20261130                      
1012024120535       025950075302                  FCDC    025950075302                  2026123000000038                000000000012311300000000000000000000000000000000000000000000000000000000000000000000000000   048   1                             20261230                      
1012024120535       025950075302                  FCDC    025950075302                  2027013000000039                000000000012311300000000000000000000000000000000000000000000000000000000000000000000000000   048   1                             20270130                      
1012024120535       025950075302                  FCDC    025950075302                  2027022800000040                000000000012311300000000000000000000000000000000000000000000000000000000000000000000000000   048   1                             20270228                      
1012024120535       025950075302                  FCDC    025950075302                  2027033000000041                000000000012311300000000000000000000000000000000000000000000000000000000000000000000000000   048   1                             20270330                      
1012024120535       025950075302                  FCDC    025950075302                  2027043000000042                000000000012311300000000000000000000000000000000000000000000000000000000000000000000000000   048   1                             20270430                      
1012024120535       025950075302                  FCDC    025950075302                  2027053000000043                000000000012311300000000000000000000000000000000000000000000000000000000000000000000000000   048   1                             20270530                      
1012024120535       025950075302                  FCDC    025950075302                  2027063000000044                000000000012311300000000000000000000000000000000000000000000000000000000000000000000000000   048   1                             20270630                      
1012024120535       025950075302                  FCDC    025950075302                  2027073000000045                000000000012311300000000000000000000000000000000000000000000000000000000000000000000000000   048   1                             20270730                      
1012024120535       025950075302                  FCDC    025950075302                  2027083000000046                000000000012311300000000000000000000000000000000000000000000000000000000000000000000000000   048   1                             20270830                      
1012024120535       025950075302                  FCDC    025950075302                  2027093000000047                000000000012311300000000000000000000000000000000000000000000000000000000000000000000000000   048   1                             20270930                      
1012024120535       025950075302                  FCDC    025950075302                  2027103000000048                000000000012311300000000000000000000000000000000000000000000000000000000000000000000000000   048   1                             20271030                      
1012024120535       025950076850                  REFF    025950076850                  2024111100000008                000000000040834400000000000000000000000000000000000000000000000000000000000000000000000000   036   1                             20241111                      
1012024120535       026730016444                  PARF    026730016444                  2021112000000015                000000000005878300000000000000000000000000000000000000000000000000000000000000000000000000   060   1                             20211120                      
1012024120535       026730016444                  PARF    026730016444                  2021122000000016                000000000005878300000000000000000000000000000000000000000000000000000000000000000000000000   060   1                             20211220                      
1012024120535       026730016444                  PARF    026730016444                  2022012000000017                000000000005878300000000000000000000000000000000000000000000000000000000000000000000000000   060   1                             20220120                      
1012024120535       026730016444                  PARF    026730016444                  2022022000000018                000000000005878300000000000000000000000000000000000000000000000000000000000000000000000000   060   1                             20220220                      
1012024120535       026730016444                  PARF    026730016444                  2022032000000019                000000000005878300000000000000000000000000000000000000000000000000000000000000000000000000   060   1                             20220320                      
1012024120535       026730016444                  PARF    026730016444                  2022042000000020                000000000005878300000000000000000000000000000000000000000000000000000000000000000000000000   060   1                             20220420                      
1012024120535       026730016444                  PARF    026730016444                  2022052000000021                000000000005878300000000000000000000000000000000000000000000000000000000000000000000000000   060   1                             20220520                      
1012024120535       026730016444                  PARF    026730016444                  2022062000000022                000000000005878300000000000000000000000000000000000000000000000000000000000000000000000000   060   1                             20220620                      
1012024120535       026730016444                  PARF    026730016444                  2022072000000023                000000000005878300000000000000000000000000000000000000000000000000000000000000000000000000   060   1                             20220720                      
1012024120535       026730016444                  PARF    026730016444                  2022082000000024                000000000005878300000000000000000000000000000000000000000000000000000000000000000000000000   060   1                             20220820                      
1012024120535       026730016444                  PARF    026730016444                  2022092000000025                000000000005878300000000000000000000000000000000000000000000000000000000000000000000000000   060   1                             20220920                      
1012024120535       026730016444                  PARF    026730016444                  2022102000000026                000000000005878300000000000000000000000000000000000000000000000000000000000000000000000000   060   1                             20221020                      
