001202411132024111300000081
1012024111315       037820004423                  138080748845   EVERTON RODRIGUES DE CAMPOS PAULA            19890604                                                                                                                                                                                                                                                                                                                                                                                                                                       RUA FRANCISCO RIBEIRO DA SILVA                    342                                                         CENTRO                   CESARIO LANGE          SP182850001532463295          PPE INVEX ESMALTADOS PIRELLI                                          EMPRESARIO                                                                                                                                                                                                                        NPE                                          2024041020520330                                                                                                                                                                                                                                                                       MS0424080353                  000000000000000000        00000000R                    997655449           15997489021                                                                     
1012024111315       032690033836                  176339904220   DIONE SILVA DA COSTA                         19841130                                                                                                                                                                                                                                                                                                                                                                                                                                       AV NELSON PALMA TRAVASSOS                         174                                                         LOTEAMENTO CITY JARAGUA  SAO PAULO              SP02998000                    NAO INFORMADO                                                         GERENTE - TODAS               AV NELSON PALMA TRAVASSOS                                174                                                  LOTEAMENTO CITY JARAGUA  SAO PAULO              SP02998000                            NPE                                          2024090920520330                                                                                                                                                                                                                                                                       MS                            000000000000000000        00000000R                    991577161           943550772                                                                       
1012024111315       035780007166                  104509122136   VANDERLEI SANTOS PICHEK                      19920101                                                                                                                                                                                                                                                                                                                                                                                                                                       RUA COLONBIA                                      580       BAIRRO LIBERDAD                                   LIBERDADE                PEIXOTO DE AZEVEDO     MT78530000                                                                                          OUTRAS                        RUA COLONBIA                                             580BAIRRO LIBERDAD                                   LIBERDADE                PEIXOTO DE AZEVEDO     MT78530000                            NPE                                          2022120920520330                                                                                                                                                                                                                                                                       MS24210234                    000000000000000000        00000000R999574290           999924643           996320751           PICHEKV@GMAIL.COM                                           
1012024111315       036120000632                  105591064833   CARLOS EDUARDO MONEZI                        19620322                                                                                                                                                                                                                                                                                                                                                                                                                                       R RICARDO RAPP                                    37                                                          JD F GRANDE              SAO PAULO              SP04916030                                                                                                                        R HENRI DUNANT                                           972                                                  STO AMARO                SAO PAULO              SP04709111                            NPE                                          2022110520520326                                                                                                                                                                                                                                                                       MO10683145                    000000000000000000        00000000R11940016447         985553332           58317083            SIMONEMONEZI@YAHOO.COM.BR                                   
1012024111315       038720004053                  181228333068   EVERTON COSTA MORAES                         19830121                                                                                                                                                                                                                                                                                                                                                                                                                                       R SAO SILVESTRE                                   120                                                         VILA DA PEDREIRA         PORTO ALEGRE           RS90830130                    N A                                                                   OUTRAS                        R SAO SILVESTRE                                          120                                                  VILA DA PEDREIRA         PORTO ALEGRE           RS90830130                            NPE                                          2024011020520330                                                                                                                                                                                                                                                                       MS707915885                   000000000000000000        00000000R51992167635         992488772           992167635           EVERTONMORAES1121@GMAIL.COM                                 
1012024111315       050060001151                  194470049620   ENAIDE RODRIGUES NORONHA                     19610303                                                                                                                                                                                                                                                                                                                                                                                                                                       R J                                               31        CASA                                              CASTRO PIRES             TEOFILO OTONI          MG39801607                                                                                          APOSENTADO                                                                                                                                                                                                                        NPE                                          2023100520520330                                                                                                                                                                                                                                                                       FS                            000000000000000000        00000000R47997699243         997699243           918520060           ENAIDERNORONHA@GMAIL.COM                                    
1012024111315       030120054301                  116568319708   MARCIO GUILHERME DA SILVA DE OLIVEIRA        19990905                                                                                                                                                                                                                                                                                                                                                                                                                                       R ISMAEL BRAGA                                    255                                                         PACIENCIA                RIO DE JANEIRO         RJ23580160                                                                                          OUTRAS                        R ISMAEL BRAGA                                           255                                                  PACIENCIA                RIO DE JANEIRO         RJ235801601140045215                  NPE                                          2023041120520319                                                                                                                                                                                                                                                                       MS294094586                   000000000000000000        00000000R975292619           993343910           51162452                                                                        
1012024111315       030120101965                  110147211727   WAGNER FONSECA MATHIAS DE MATOS              19810118                                                                                                                                                                                                                                                                                                                                                                                                                                       R JUDITH BAHIENSE                                 27                                                          BOACU                    SAO GONCALO            RJ24467200                                                                                          EMPRESARIO                                                                                                                                                                                                                        NPE                                          2024071120520319                                                                                                                                                                                                                                                                       MS0284619193                  000000000000000000        00000000R21992169287         992169287           21987031760                                                                     
1012024111315       031340008156                  199882442153   JOSE CAVALCANTE SANTANA                      19720405                                                                                                                                                                                                                                                                                                                                                                                                                                       RUA HERCULANO JOSE DE SOUZA                       SN                                                          SETOR UNIVERSITARIO      LUCIARA                MT78660000                                                                                          OUTRAS                        RUA HERCULANO JOSE DE SOUZA                              S-N                                                  SETOR UNIVERSITARIO      LUCIARA                MT78660000                            NPE                                          2022110520520330                                                                                                                                                                                                                                                                       MS14002930                    000000000000000000        00000000R66984598297         984598297           984044985           TATIANEOLIVEIRASFA@GMAIL.COM                                
1012024111315       038720004171                  125790228801   MARCIO CARVALHO DE OLIVEIRA                  19780903                                                                                                                                                                                                                                                                                                                                                                                                                                       R CAMPOS SALES                                    47                                                          JARDIM SAPORITO          TABOAO DA SERRA        SP06783060                    OFICINA DO CHOCOLATE INDUSTRIA                                        GERENTE - TODAS               R ITAPACURAI                                              36                                                  PARAISO DO MORUMBI       SAO PAULO              SP057052401137581174                  NPE                                          2024020920520330                                                                                                                                                                                                                                                                       MS29849527                    000000000000000000        00000000R947379490           964580153           37581174                                                                        
1012024111315       022800024057                  192802176153   LUANNA BEATRIZ RODRIGUES MARQUES             19811005                                                                                                                                                                                                                                                                                                                                                                                                                                       R CRISTOVAO COLOMBO                               SN        QD87ACS 58                                        PARQUE JOAO BRAZ - CIDADEGOIANIA                GO74483190                    NAO INFORMADO                                                         GERENTE - TODAS               R CRISTOVAO COLOMBO                                       SN                                                  PARQUE JOAO BRAZ - CIDADEGOIANIA                GO74483190                            NPE                                          2024070820520330                                                                                                                                                                                                                                                                       FS                            000000000000000000        00000000R                    994092332           62985760879         LUABBIA@HOTMAIL.COM                                         
1012024111315       027560010789                  142398263819   BIANCA DOS SANTOS GARCIA LUCCI               19940525                                                                                                                                                                                                                                                                                                                                                                                                                                       R ANTONIO NOGAROTO                                243       SOBRADO                                           CENTRO                   TREMEMBE               SP12120500                                                                                          EMPRESARIO                    R JOAQUIM TAVORA                                         267                                                  CENTRO                   TREMEMBE               SP121200591236743674                  NPE                                          2023020720520319                                                                                                                                                                                                                                                                       FS407363963                   000000000000000000        00000000R12991796326         991429441           36743674            JAOANTONIA@HOTMAIL.COM                                      
1012024111315       038720002443                  138894674827   ODAIR DOS SANTOS COSTA                       19900504                                                                                                                                                                                                                                                                                                                                                                                                                                       AV JOAO STELLA                                    345                                                         RESIDENCIAL MONSENHOR ROMSAO CARLOS             SP13562530                    TECUMSEH DO BRASIL LTDA                                               GERENTE - TODAS               R RAY WESLEY HERRICK                                     700                                                  JARDIM JOCKEY CLUBE      SAO CARLOS             SP13565090                            NPE                                          2023051520520319                                                                                                                                                                                                                                                                       MS50408737                    000000000000000000        00000000R77981420146         997313916           994400707           JACIARACRUZ564@GMAIL.COM                                    
1012024111315       026980009116                  193202172891   SERGIO AVENIENTE                             19580821                                                                                                                                                                                                                                                                                                                                                                                                                                       R DAS CEREJEIRAS                                  87                                                          RESIDENCIAL VALE DAS NOGUAMERICANA              SP13474354                    NAO INFORMADO                                                         GERENTE - TODAS               R DAS CEREJEIRAS                                          87                                                  RESIDENCIAL VALE DAS NOGUAMERICANA              SP13474354                            NPE                                          2023100520520330                                                                                                                                                                                                                                                                       MS                            000000000000000000        00000000R                    993675821           1939224407          ROSANARRO@TERRA.COM.BR                                      
1012024111315       035660018431                  100477574181   ISAC CORDEIRO ALENCAR                        19810831                                                                                                                                                                                                                                                                                                                                                                                                                                       TV CSE 2 LT 18 APTO                               201       VILA DIMAS                                        TAGUATINGA SUL TAGUATINGABRASILIA               DF72025025                    N A                                                                   OUTRAS                        TV CSE 2 LT 18 APTO                                      201VILA DIMAS                                        TAGUATINGA SUL TAGUATINGABRASILIA               DF720250251140045215                  NPE                                          2023010920520330                                                                                                                                                                                                                                                                       MS1902814                     000000000000000000        00000000R61998284254         998284254           992548989           ALENCARISAC3@GMAIL.COM                                      
1012024111315       035900016474                  110547956819   JAIME RODRIGUES PINTO                        19710624                                                                                                                                                                                                                                                                                                                                                                                                                                       RUA TRAJANO REIS                                  777                                                         JARDIM DAS VERTENTES     SAO PAULO              SP05541030                                                                                          EMPRESARIO                    RUA TRAJANO REIS                                         777                                                  JARDIM DAS VERTENTES     SAO PAULO              SP05541030                            NPE                                          2024051520520329                                                                                                                                                                                                                                                                       MS                            000000000000000000        00000000R999260045           11961952313         11961952313         NANCISP13@GMAIL.COM                                         
1012024111315       026810007676                  154303966134   MARIA DE LOURDES QUEIROZ GARCIA              19481213                                                                                                                                                                                                                                                                                                                                                                                                                                       R JAMIL JORGE SALOMAO JUNIOR                      1239      CASA                                              PRQ S CARLOS             TRES LAGOAS            MS79621101                                                                                          APOSENTADO                                                                                                                                                                                                                        NPE                                          2022110520520319                                                                                                                                                                                                                                                                       FO1348171                     000000000000000000        00000000R67999772557         67981599457         67981599457         MUNDODASTINTAS.TL@HOTMAIL.COM                               
1012024111315       211900028797                  118140587702   HEDLEN JHULIA FERREIRA                       19991028                                                                                                                                                                                                                                                                                                                                                                                                                                       R LUIZ MIRANDA                                    200                                                         IBES                     VILA VELHA             ES29108750                                                                                          GERENTE - TODAS               ROD DO SOL                                              3700                                                  SAO CONRADO              VILA VELHA             ES29124060                            NPE                                          2023121520520319                                                                                                                                                                                                                                                                       FS3866661                     000000000000000000        00000000R27998815395         998815395           30599337            GERVASIONUNESPIRESJUNIOR@GMAIL.COM                          
1012024111315       021500001438                  126880682880   PAULO HENRIQUE DE MOURA                      19750615                                                                                                                                                                                                                                                                                                                                                                                                                                       R GUARA                                           131                                                         REC C I V GLEBA 2        INDAIATUBA             SP13336501                    CIMARDI COMERCIAL LTDA                                                                              ROD PAULO DE TARSO SOUZA MARTINS                          SN                                                  PRQ BANDEIRAS            INDAIATUBA             SP13336754                            NPE                                          2022122220520323                                                                                                                                                                                                                                                                       MC30.320.253                  000000000000000000        00000000R19995682327         998084781           971411623           PAULOHENRIQUEDEMOURAMOURA6@GMAIL.COM                        
1012024111315       033010005535                  126532733814   ANDRE TAKASHI BUGAN                          19750929                                                                                                                                                                                                                                                                                                                                                                                                                                       SENADOR JOSE ROBERTO LEITE PENTEADO               327                                                         LAPA                     SAO PAULO              SP05078020                                                                                          EMPRESARIO                    SENADOR JOSE ROBERTO LEITE PENTEADO                      327                                                  LAPA                     SAO PAULO              SP05078020                            NPE                                          2023110920520330                                                                                                                                                                                                                                                                       MS215855851                   000000000000000000        00000000R11980590993         991821964           11991821964         ATBUGAN@IG.COM.BR                                           
10120241113Q5       022800024057                  62985760879                 OUTROS                        
10120241113Q5       022800024057                  62994092332                 RECADO                        
10120241113Q5       026810007676                  67992646375                 CELULAR                       
10120241113Q5       033010005535                  982743940                   OUTROS                        
10120241113Q5       033010005535                  991821964                   OUTROS                        
10120241113Q5       036120000632                  11940276028                 CELULAR                       
10120241113Q5       036120000632                  970115395                   OUTROS                        
10120241113Q5       038720004171                  1146850059                  RECADO                        
10120241113Q5       038720004171                  947379490                   CELULAR                       
10120241113Q5       038720004171                  964580153                   OUTROS                        
10120241113Q5       050060001151                  995340579                   OUTROS                        
10120241113Q5       211900028797                  27988118261                 CELULAR                       
10120241113Q5       211900028797                  27998815395                 CELULAR                       
10120241113Q5       211900028797                  30599337                    OUTROS                        
10120241113Q5       021500001438                  971411623                   OUTROS                        
10120241113Q5       022800024057                  994092332                   OUTROS                        
10120241113Q5       026810007676                  999772557                   OUTROS                        
10120241113Q5       026980009116                  1939224407                  OUTROS                        
10120241113Q5       032690033836                  943550772                   OUTROS                        
10120241113Q5       035660018431                  998082935                   OUTROS                        
10120241113Q5       035780007166                  66996320751         0       CELULAR                       
10120241113Q5       035780007166                  66999768787                 CELULAR                       
10120241113Q5       035780007166                  66999924643                 CELULAR                       
10120241113Q5       035780007166                  999574290                   CELULAR                       
10120241113Q5       035900016474                  961955774                   CELULAR                       
10120241113Q5       036120000632                  58317083                    OUTROS                        
10120241113Q5       038720002443                  996020715                   OUTROS                        
10120241113Q5       038720004053                  51992488772                 RECADO                        
10120241113Q5       038720004171                  947054921                   CELULAR                       
10120241113Q5       026810007676                  991030490                   OUTROS                        
10120241113Q5       027560010789                  12991429441                 CELULAR                       
10120241113Q5       030120054301                  983091293                   OUTROS                        
10120241113Q5       030120101965                  983094657                   OUTROS                        
10120241113Q5       030120101965                  992169287                   OUTROS                        
10120241113Q5       031340008156                  984112843                   OUTROS                        
10120241113Q5       031340008156                  984598297                   OUTROS                        
10120241113Q5       032690033836                  11943550772                 RECADO                        
10120241113Q5       032690033836                  991577161                   OUTROS                        
10120241113Q5       035660018431                  998284254                   OUTROS                        
10120241113Q5       035780007166                  999246438                   OUTROS                        
10120241113Q5       036120000632                  940016447                   OUTROS                        
10120241113Q5       038720002443                  16992579711                 CELULAR                       
10120241113Q5       038720004053                  51992167635         0       CELULAR                       
10120241113Q5       038720004171                  940148874                   CELULAR                       
10120241113Q5       050060001151                  33987505299                 CELULAR                       
10120241113Q5       211900028797                  27992938448                 RECADO                        
10120241113Q5       211900028797                  988586346                   OUTROS                        
10120241113Q5       021500001438                  992115893                   OUTROS                        
10120241113Q5       026810007676                  67999772557                 CELULAR                       
10120241113Q5       026810007676                  992646375                   OUTROS                        
10120241113Q5       030120101965                  21987031760                 OUTROS                        
10120241113Q5       031340008156                  66984598297                 CELULAR                       
10120241113Q5       033010005535                  11991821964                 OUTROS                        
10120241113Q5       035780007166                  996320751                   OUTROS                        
10120241113Q5       035780007166                  999924643                   OUTROS                        
10120241113Q5       035900016474                  1147874312                  RECADO                        
10120241113Q5       036120000632                  11940016447                 CELULAR                       
10120241113Q5       037820004423                  1532466104                  RECADO                        
10120241113Q5       037820004423                  997489021                   OUTROS                        
10120241113Q5       038720002443                  16994083175                 CELULAR                       
10120241113Q5       038720002443                  16996020715                 CELULAR                       
10120241113Q5       038720002443                  16997313916         0       CELULAR                       
10120241113Q5       038720002443                  994400707                   OUTROS                        
10120241113Q5       038720004171                  37581174                    OUTROS                        
10120241113Q5       038720004171                  940718853                   OUTROS                        
10120241113Q5       050060001151                  981454060                   OUTROS                        
10120241113Q5       211900028797                  992938448                   OUTROS                        
10120241113Q5       211900028797                  998815395                   OUTROS                        
10120241113Q5       022800024057                  1140045215                  RECADO                        
10120241113Q5       030120054301                  975292619                   CELULAR                       
10120241113Q5       030120054301                  993343910                   OUTROS                        
10120241113Q5       031340008156                  984044985                   OUTROS                        
10120241113Q5       033010005535                  945102084                   OUTROS                        
10120241113Q5       035660018431                  992548989                   OUTROS                        
10120241113Q5       035900016474                  999260045                   CELULAR                       
10120241113Q5       036120000632                  940276028                   OUTROS                        
10120241113Q5       036120000632                  985553332                   OUTROS                        
10120241113Q5       037820004423                  1532463295                  RESIDENCIAL                   
10120241113Q5       037820004423                  997655449                   OUTROS                        
10120241113Q5       038720004053                  1140045215                  RECADO                        
10120241113Q5       038720004171                  1137581174                  COMERCIAL                     
10120241113Q5       050060001151                  47997699243                 CELULAR                       
10120241113Q5       050060001151                  918520060                   OUTROS                        
10120241113Q5       211900028797                  992386260                   OUTROS                        
10120241113Q5       021500001438                  19995682327         0       CELULAR                       
10120241113Q5       022800024057                  62992243020                 OUTROS                        
10120241113Q5       026810007676                  67981599457                 OUTROS                        
10120241113Q5       026980009116                  993675821                   OUTROS                        
10120241113Q5       027560010789                  12991796326                 CELULAR                       
10120241113Q5       027560010789                  36743674                    OUTROS                        
10120241113Q5       027560010789                  61981836874                 OUTROS                        
10120241113Q5       027560010789                  991429441                   OUTROS                        
10120241113Q5       030120054301                  1140045215                  COMERCIAL                     
10120241113Q5       030120054301                  21993343910                 CELULAR                       
10120241113Q5       031340008156                  66984044985         0       CELULAR                       
10120241113Q5       033010005535                  980590993                   OUTROS                        
10120241113Q5       035660018431                  61998082935                 CELULAR                       
10120241113Q5       035660018431                  61998284254         0       CELULAR                       
10120241113Q5       035900016474                  11961952313                 OUTROS                        
10120241113Q5       035900016474                  999895057                   OUTROS                        
10120241113Q5       036120000632                  964474356                   OUTROS                        
10120241113Q5       038720002443                  16993628992                 CELULAR                       
10120241113Q5       038720004171                  11964580153                 CELULAR                       
10120241113Q5       050060001151                  987032065                   OUTROS                        
10120241113Q5       021500001438                  995682327                   OUTROS                        
10120241113Q5       021500001438                  998084781                   OUTROS                        
10120241113Q5       026810007676                  67998665119                 OUTROS                        
10120241113Q5       026810007676                  991184860                   OUTROS                        
10120241113Q5       026980009116                  1140045215                  RECADO                        
10120241113Q5       026980009116                  19993675821                 RECADO                        
10120241113Q5       026980009116                  991462585                   OUTROS                        
10120241113Q5       027560010789                  1236743674                  COMERCIAL                     
10120241113Q5       030120054301                  51162452                    OUTROS                        
10120241113Q5       030120054301                  964037624                   CELULAR                       
10120241113Q5       030120101965                  1140045215                  RECADO                        
10120241113Q5       030120101965                  975418061                   OUTROS                        
10120241113Q5       035660018431                  1140045215                  COMERCIAL                     
10120241113Q5       035660018431                  61992548989         0       CELULAR                       
10120241113Q5       035780007166                  66999246438         0       CELULAR                       
10120241113Q5       037820004423                  15997489021                 OUTROS                        
10120241113Q5       038720004053                  992167635                   OUTROS                        
10120241113Q5       211900028797                  997814621                   OUTROS                        
10120241113Q5       022800024057                  992243020                   OUTROS                        
10120241113Q5       026980009116                  971562217                   OUTROS                        
10120241113Q5       030120101965                  21992169287                 CELULAR                       
10120241113Q5       031340008156                  984488660                   OUTROS                        
10120241113Q5       033010005535                  1139323125                  RECADO                        
10120241113Q5       033010005535                  11980590993                 CELULAR                       
10120241113Q5       038720002443                  1631165308                  RECADO                        
10120241113Q5       038720002443                  77981420146                 CELULAR                       
10120241113Q5       038720002443                  997313916                   OUTROS                        
10120241113Q5       038720004053                  992488772                   OUTROS                        
10120241113Q5       038720004171                  46856773                    OUTROS                        
10120241113Q5       038720004171                  963039342                   OUTROS                        
10120241113Q5       050060001151                  1140045215                  RECADO                        
10120241113Q5       050060001151                  11918520060                 CELULAR                       
10120241113Q5       050060001151                  997699243                   OUTROS                        
10120241113Q5       211900028797                  27992386260                 CELULAR                       
1012024111325       022800024057                  REFF    022800024057                  02280   CORRESPONDENTE                                                                                    02280   CORRESPONDENTE GOIAS                         00000000017767980000000000000000000020240606012         1                                                                                                                                                                                                                                                                                                                                                                                                                                                                                                                                                                                                            000000000000052188                                                                                                 
1012024111325       033010005535                  REFF    033010005535                  03301   CORRESPONDENTE                                                                                    03301   CORRESPONDENTE OSASC                         00000000053345630000000000000000000020231009036         1                                                                                                                                                                                                                                                                                                                                                                                                                                                                                                                                                                                                            000000000000026854                                                                                                 
1012024111325       027560010789                  FCDC    027560010789                  02756   CORRESPONDENTE                                                                                    02756   CORRESPONDENTE TAUBA                         00000000034218550000000000000000000020220905024         1                                                                                                                                                                                                                                                                                                                                                                                                                                                                                                                                                                                                            000000000000016783                                                                                                 
1012024111325       035900016474                  REFF    035900016474                  03590   REGIONAL SAO PA                                                                                   03590   REGIONAL SAO PAULO                           00000000068645280000000000000000000020240411024         1                                                                                                                                                                                                                                                                                                                                                                                                                                                                                                                                                                                                            000000000000035597                                                                                                 
1012024111325       037820004423                  FCDC    037820004423                  03782   CORRESPONDENTE                                                                                    03782   CORRESPONDENTE INDAI                         00000000028788090000000000000000000020240110036         1                                                                                                                                                                                                                                                                                                                                                                                                                                                                                                                                                                                                            000000000000020895                                                                                                 
1012024111325       031340008156                  FCDC    031340008156                  03134   CORRESPONDENTE                                                                                    03134   CORRESPONDENTE PARA                          00000000041780410000000000000000000020220823048         1                                                                                                                                                                                                                                                                                                                                                                                                                                                                                                                                                                                                            000000000000022917                                                                                                 
1012024111325       036120000632                  UTLF    036120000632                  03612   CORRESPONDENTE                                                                                    03612   CORRESPONDENTE SAO C                         00000000027626960000000000000000000020210204048         1                                                                                                                                                                                                                                                                                                                                                                                                                                                                                                                                                                                                            000000000000025803                                                                                                 
1012024111325       030120101965                  FCDC    030120101965                  03012   CORRESPONDENTE                                                                                    03012   CORRESPONDENTE RIO D                         00000000045201920000000000000000000020230911048         1                                                                                                                                                                                                                                                                                                                                                                                                                                                                                                                                                                                                            000000000000017658                                                                                                 
1012024111325       038720002260                  FSEG    038720002260                  03872   NOVACAO COBRANC                                                                                   03872   NOVACAO COBRANCA CON                         00000000013390660000000000000000000020230302039         3                                                                                                                                                                                                                                                                                                                                                                                                                                                                                                                                                                                                            000000000000012400                                                                                                 
1012024111325       021500001438                  CSPF    021500001438                  02150   AUTOMEC FRANCA                                                                                    02147   FISAN ADM DE BENS E                          00000000024330750000000000000000000020221021048         1                                                                                                                                                                                                                                                                                                                                                                                                                                                                                                                                                                                                            000000000000021659                                                                                                 
1012024111325       032340002662                  PARF    032340002662                  03234   CORRESPONDENTE                                                                                    03234   CORRESPONDENTE PARAI                         00000000017861160000000000000000000020210802060         3                                                                                                                                                                                                                                                                                                                                                                                                                                                                                                                                                                                                            000000000000019058                                                                                                 
1012024111325       035660018431                  FSEG    035660018431                  03566   NOVAC?O DE DIVI                                                                                   03566   NOVAC?O DE DIVIDA CO                         00000000012945350000000000000000000020200609056         1                                                                                                                                                                                                                                                                                                                                                                                                                                                                                                                                                                                                            000000000000014400                                                                                                 
1012024111325       021130026744                  REFF    021130026744                  02113   PORTOSUL - RS                                                                                     02113   PORTOSUL - RS                                00000000049433290000000000000000000020240412048         3                                                                                                                                                                                                                                                                                                                                                                                                                                                                                                                                                                                                            000000000000018957                                                                                                 
1012024111325       026810007676                  REFF    026810007676                  02681   CORRESPONDENTE                                                                                    02681   CORRESPONDENTE - MAT                         00000000016157160000000000000000000020210826048         1                                                                                                                                                                                                                                                                                                                                                                                                                                                                                                                                                                                                            000000000000020437                                                                                                 
1012024111325       038720004053                  FSEG    038720004053                  03872   NOVACAO COBRANC                                                                                   03872   NOVACAO COBRANCA CON                         00000000013796500000000000000000000020231208015         1                                                                                                                                                                                                                                                                                                                                                                                                                                                                                                                                                                                                            000000000000017100                                                                                                 
1012024111325       211900028797                  PARF    211900028797                  21190   CORRESPONDENTE                                                                                    21190   CORRESPONDENTE ESPIR                         00000000005644330000000000000000000020210413048         1                                                                                                                                                                                                                                                                                                                                                                                                                                                                                                                                                                                                            000000000000016803                                                                                                 
1012024111325       026980009116                  REFF    026980009116                  02698   CORRESPONDENTE                                                                                    02698   CORRESPONDENTE PIRAC                         00000000016421710000000000000000000020230804036         1                                                                                                                                                                                                                                                                                                                                                                                                                                                                                                                                                                                                            000000000000026801                                                                                                 
1012024111325       030120054301                  PARF    030120054301                  03012   CORRESPONDENTE                                                                                    03012   CORRESPONDENTE RIO D                         00000000013468810000000000000000000020210409048         1                                                                                                                                                                                                                                                                                                                                                                                                                                                                                                                                                                                                            000000000000014898                                                                                                 
1012024111325       038720002443                  FSEG    038720002443                  03872   NOVACAO COBRANC                                                                                   03872   NOVACAO COBRANCA CON                         00000000021304280000000000000000000020230315041         1                                                                                                                                                                                                                                                                                                                                                                                                                                                                                                                                                                                                            000000000000012000                                                                                                 
1012024111325       038720004171                  FSEG    038720004171                  03872   NOVACAO COBRANC                                                                                   03872   NOVACAO COBRANCA CON                         00000000005342380000000000000000000020240108020         1                                                                                                                                                                                                                                                                                                                                                                                                                                                                                                                                                                                                            000000000000013500                                                                                                 
1012024111325       050060001151                  REFF    050060001151                  05006   SUCURSAL CORPOR                                                                                   05006   SUCURSAL CORPORATE S                         00000000012283040000000000000000000020230804036         1                                                                                                                                                                                                                                                                                                                                                                                                                                                                                                                                                                                                            000000000000034616                                                                                                 
1012024111325       035210006464                  UTLJ    035210006464                  03521   CORRESPONDENTE                                                                                    03521   CORRESPONDENTE MORUM                         00000000047856110000000000000000000020231130060         3                                                                                                                                                                                                                                                                                                                                                                                                                                                                                                                                                                                                            000000000000019887                                                                                                 
1012024111325       027560007882                  FCDC    027560007882                  02756   CORRESPONDENTE                                                                                    02756   CORRESPONDENTE TAUBA                         00000000018965650000000000000000000020210525048         3                                                                                                                                                                                                                                                                                                                                                                                                                                                                                                                                                                                                            000000000000019434                                                                                                 
1012024111325       032690033836                  FCDC    032690033836                  03269   CORRESPONDENTE                                                                                    03269   CORRESPONDENTE MINAS                         00000000035155160000000000000000000020240807048         1                                                                                                                                                                                                                                                                                                                                                                                                                                                                                                                                                                                                            000000000000022852                                                                                                 
1012024111325       033100000121                  ESPF    033100000121                  03310   POTIER & MORAIS                                                                                   00520   CORRESPONDENTE PARAN                         00000000032389300000000000000000000020230427048         3                                                                                                                                                                                                                                                                                                                                                                                                                                                                                                                                                                                                            000000000000027303                                                                                                 
1012024111325       035780007166                  ESPF    035780007166                  03578   DRYVE TECNOLOGI                                                                                   03575   VIA UNIAO CONS E COR                         00000000031231250000000000000000000020220608048         1                                                                                                                                                                                                                                                                                                                                                                                                                                                                                                                                                                                                            000000000000023108                                                                                                 
1012024111335       000830029400                  PARF    000830029400                  2022102800000020                000000000006867400000000000000000000000000000000000000000000000000000000000000000000000000   048   3                            C20221028                      
1012024111335       000830029400                  PARF    000830029400                  2022112800000021                000000000006867400000000000000000000000000000000000000000000000000000000000000000000000000   048   3                            C20221128                      
1012024111335       000830029400                  PARF    000830029400                  2022122800000022                000000000006867400000000000000000000000000000000000000000000000000000000000000000000000000   048   3                            C20221228                      
1012024111335       000830029400                  PARF    000830029400                  2023012800000023                000000000006867400000000000000000000000000000000000000000000000000000000000000000000000000   048   3                            C20230128                      
1012024111335       000830029400                  PARF    000830029400                  2023022800000024                000000000006867400000000000000000000000000000000000000000000000000000000000000000000000000   048   3                            C20230228                      
1012024111335       000830029400                  PARF    000830029400                  2023032800000025                000000000006867400000000000000000000000000000000000000000000000000000000000000000000000000   048   3                            C20230328                      
1012024111335       000830029400                  PARF    000830029400                  2023042800000026                000000000006867400000000000000000000000000000000000000000000000000000000000000000000000000   048   3                            C20230428                      
1012024111335       000830029400                  PARF    000830029400                  2023052800000027                000000000006867400000000000000000000000000000000000000000000000000000000000000000000000000   048   3                            C20230528                      
1012024111335       000830029400                  PARF    000830029400                  2023062800000028                000000000006867400000000000000000000000000000000000000000000000000000000000000000000000000   048   3                            C20230628                      
1012024111335       000830029400                  PARF    000830029400                  2023072800000029                000000000006867400000000000000000000000000000000000000000000000000000000000000000000000000   048   3                            C20230728                      
1012024111335       000830029400                  PARF    000830029400                  2023082800000030                000000000006867400000000000000000000000000000000000000000000000000000000000000000000000000   048   3                            C20230828                      
1012024111335       000830029400                  PARF    000830029400                  2023092800000031                000000000006867400000000000000000000000000000000000000000000000000000000000000000000000000   048   3                            C20230928                      
1012024111335       000830029400                  PARF    000830029400                  2023102800000032                000000000006867400000000000000000000000000000000000000000000000000000000000000000000000000   048   3                            C20231028                      
1012024111335       000830029400                  PARF    000830029400                  2023112800000033                000000000006867400000000000000000000000000000000000000000000000000000000000000000000000000   048   3                            C20231128                      
1012024111335       000830029400                  PARF    000830029400                  2023122800000034                000000000006867400000000000000000000000000000000000000000000000000000000000000000000000000   048   3                            C20231228                      
1012024111335       000830029400                  PARF    000830029400                  2024012800000035                000000000006867400000000000000000000000000000000000000000000000000000000000000000000000000   048   3                            C20240128                      
1012024111335       000830029400                  PARF    000830029400                  2024022800000036                000000000006867400000000000000000000000000000000000000000000000000000000000000000000000000   048   3                            C20240228                      
1012024111335       000830029400                  PARF    000830029400                  2024032800000037                000000000006867400000000000000000000000000000000000000000000000000000000000000000000000000   048   3                            C20240328                      
1012024111335       000830029400                  PARF    000830029400                  2024042800000038                000000000006867400000000000000000000000000000000000000000000000000000000000000000000000000   048   3                            C20240428                      
1012024111335       000830029400                  PARF    000830029400                  2024052800000039                000000000006867400000000000000000000000000000000000000000000000000000000000000000000000000   048   3                            C20240528                      
1012024111335       000830029400                  PARF    000830029400                  2024062800000040                000000000006867400000000000000000000000000000000000000000000000000000000000000000000000000   048   3                            C20240628                      
1012024111335       000830029400                  PARF    000830029400                  2024072800000041                000000000006867400000000000000000000000000000000000000000000000000000000000000000000000000   048   3                            C20240728                      
1012024111335       000830029400                  PARF    000830029400                  2024082800000042                000000000006867400000000000000000000000000000000000000000000000000000000000000000000000000   048   3                            C20240828                      
1012024111335       000830029400                  PARF    000830029400                  2024092800000043                000000000006867400000000000000000000000000000000000000000000000000000000000000000000000000   048   3                            C20240928                      
1012024111335       000830029400                  PARF    000830029400                  2024102800000044                000000000006867400000000000000000000000000000000000000000000000000000000000000000000000000   048   3                            C20241028                      
1012024111335       000830029400                  PARF    000830029400                  2024112800000045                000000000006867400000000000000000000000000000000000000000000000000000000000000000000000000   048   3                            C20241128                      
1012024111335       000830029400                  PARF    000830029400                  2024122800000046                000000000006867400000000000000000000000000000000000000000000000000000000000000000000000000   048   3                            C20241228                      
1012024111335       000830029400                  PARF    000830029400                  2025012800000047                000000000006867400000000000000000000000000000000000000000000000000000000000000000000000000   048   3                            C20250128                      
1012024111335       000830029400                  PARF    000830029400                  2025022800000048                000000000006867400000000000000000000000000000000000000000000000000000000000000000000000000   048   3                            C20250228                      
1012024111335       000830037271                  REFF    000830037271                  2024011600000010        20240930000000000009436100000000000000000000000000000000000000000000000000000000000000000005486400   024   7                            C20240116                      
1012024111335       004110008733                  FCDC    004110008733                  2022100800000001                000000000023393100000000000000000000000000000000000000000000000000000000000000000000000000   060   3                            C20221008                      
1012024111335       004110008733                  FCDC    004110008733                  2022110800000002                000000000023393100000000000000000000000000000000000000000000000000000000000000000000000000   060   3                            C20221108                      
1012024111335       004110008733                  FCDC    004110008733                  2022120800000003                000000000023393100000000000000000000000000000000000000000000000000000000000000000000000000   060   3                            C20221208                      
1012024111335       004110008733                  FCDC    004110008733                  2023010800000004                000000000023393100000000000000000000000000000000000000000000000000000000000000000000000000   060   3                            C20230108                      
1012024111335       004110008733                  FCDC    004110008733                  2023020800000005                000000000023393100000000000000000000000000000000000000000000000000000000000000000000000000   060   3                            C20230208                      
1012024111335       004110008733                  FCDC    004110008733                  2023030800000006                000000000023393100000000000000000000000000000000000000000000000000000000000000000000000000   060   3                            C20230308                      
1012024111335       004110008733                  FCDC    004110008733                  2023040800000007                000000000023393100000000000000000000000000000000000000000000000000000000000000000000000000   060   3                            C20230408                      
1012024111335       004110008733                  FCDC    004110008733                  2023050800000008                000000000023393100000000000000000000000000000000000000000000000000000000000000000000000000   060   3                            C20230508                      
1012024111335       004110008733                  FCDC    004110008733                  2023060800000009                000000000023393100000000000000000000000000000000000000000000000000000000000000000000000000   060   3                            C20230608                      
1012024111335       004110008733                  FCDC    004110008733                  2023070800000010                000000000023393100000000000000000000000000000000000000000000000000000000000000000000000000   060   3                            C20230708                      
1012024111335       004110008733                  FCDC    004110008733                  2023080800000011                000000000023393100000000000000000000000000000000000000000000000000000000000000000000000000   060   3                            C20230808                      
1012024111335       004110008733                  FCDC    004110008733                  2023090800000012                000000000023393100000000000000000000000000000000000000000000000000000000000000000000000000   060   3                            C20230908                      
1012024111335       004110008733                  FCDC    004110008733                  2023100800000013                000000000023393100000000000000000000000000000000000000000000000000000000000000000000000000   060   3                            C20231008                      
1012024111335       004110008733                  FCDC    004110008733                  2023110800000014                000000000023393100000000000000000000000000000000000000000000000000000000000000000000000000   060   3                            C20231108                      
1012024111335       004110008733                  FCDC    004110008733                  2023120800000015                000000000023393100000000000000000000000000000000000000000000000000000000000000000000000000   060   3                            C20231208                      
1012024111335       004110008733                  FCDC    004110008733                  2024010800000016                000000000023393100000000000000000000000000000000000000000000000000000000000000000000000000   060   3                            C20240108                      
1012024111335       004110008733                  FCDC    004110008733                  2024020800000017                000000000023393100000000000000000000000000000000000000000000000000000000000000000000000000   060   3                            C20240208                      
1012024111335       004110008733                  FCDC    004110008733                  2024030800000018                000000000023393100000000000000000000000000000000000000000000000000000000000000000000000000   060   3                            C20240308                      
1012024111335       004110008733                  FCDC    004110008733                  2024040800000019                000000000023393100000000000000000000000000000000000000000000000000000000000000000000000000   060   3                            C20240408                      
1012024111335       004110008733                  FCDC    004110008733                  2024050800000020                000000000023393100000000000000000000000000000000000000000000000000000000000000000000000000   060   3                            C20240508                      
1012024111335       004110008733                  FCDC    004110008733                  2024060800000021                000000000023393100000000000000000000000000000000000000000000000000000000000000000000000000   060   3                            C20240608                      
1012024111335       004110008733                  FCDC    004110008733                  2024070800000022                000000000023393100000000000000000000000000000000000000000000000000000000000000000000000000   060   3                            C20240708                      
1012024111335       004110008733                  FCDC    004110008733                  2024080800000023                000000000023393100000000000000000000000000000000000000000000000000000000000000000000000000   060   3                            C20240808                      
1012024111335       004110008733                  FCDC    004110008733                  2024090800000024                000000000023393100000000000000000000000000000000000000000000000000000000000000000000000000   060   3                            C20240908                      
1012024111335       004110008733                  FCDC    004110008733                  2024100800000025                000000000023393100000000000000000000000000000000000000000000000000000000000000000000000000   060   3                            C20241008                      
1012024111335       004110008733                  FCDC    004110008733                  2024110800000026                000000000023393100000000000000000000000000000000000000000000000000000000000000000000000000   060   3                            C20241108                      
1012024111335       004110008733                  FCDC    004110008733                  2024120800000027                000000000023393100000000000000000000000000000000000000000000000000000000000000000000000000   060   3                            C20241208                      
1012024111335       004110008733                  FCDC    004110008733                  2025010800000028                000000000023393100000000000000000000000000000000000000000000000000000000000000000000000000   060   3                            C20250108                      
1012024111335       004110008733                  FCDC    004110008733                  2025020800000029                000000000023393100000000000000000000000000000000000000000000000000000000000000000000000000   060   3                            C20250208                      
1012024111335       004110008733                  FCDC    004110008733                  2025030800000030                000000000023393100000000000000000000000000000000000000000000000000000000000000000000000000   060   3                            C20250308                      
1012024111335       004110008733                  FCDC    004110008733                  2025040800000031                000000000023393100000000000000000000000000000000000000000000000000000000000000000000000000   060   3                            C20250408                      
1012024111335       004110008733                  FCDC    004110008733                  2025050800000032                000000000023393100000000000000000000000000000000000000000000000000000000000000000000000000   060   3                            C20250508                      
1012024111335       004110008733                  FCDC    004110008733                  2025060800000033                000000000023393100000000000000000000000000000000000000000000000000000000000000000000000000   060   3                            C20250608                      
1012024111335       004110008733                  FCDC    004110008733                  2025070800000034                000000000023393100000000000000000000000000000000000000000000000000000000000000000000000000   060   3                            C20250708                      
1012024111335       004110008733                  FCDC    004110008733                  2025080800000035                000000000023393100000000000000000000000000000000000000000000000000000000000000000000000000   060   3                            C20250808                      
1012024111335       004110008733                  FCDC    004110008733                  2025090800000036                000000000022426600000000000000000000000000000000000000000000000000000000000000000000000000   060   3                            C20250908                      
1012024111335       021130018470                  REFF    021130018470                  2023042800000012        20240401000000000021415600000000000000000000000000000000000000000000000000000000000000000005391900   048   7                            C20230428                      
1012024111335       021130020242                  PARF    021130020242                  2024070500000024                000000000021085900000000000000000000000000000000000000000000000000000000000000000000000000   036   1                             20240705                      
1012024111335       021130020242                  PARF    021130020242                  2024080500000025                000000000021085900000000000000000000000000000000000000000000000000000000000000000000000000   036   1                             20240805                      
1012024111335       021130020242                  PARF    021130020242                  2024090500000026                000000000021085900000000000000000000000000000000000000000000000000000000000000000000000000   036   1                             20240905                      
1012024111335       021130020242                  PARF    021130020242                  2024100500000027                000000000021085900000000000000000000000000000000000000000000000000000000000000000000000000   036   1                             20241005                      
1012024111335       021130020242                  PARF    021130020242                  2024110500000028                000000000021085900000000000000000000000000000000000000000000000000000000000000000000000000   036   1                             20241105                      
1012024111335       021130020242                  PARF    021130020242                  2024120500000029                000000000021085900000000000000000000000000000000000000000000000000000000000000000000000000   036   1                             20241205                      
1012024111335       021130020242                  PARF    021130020242                  2025010500000030                000000000021085900000000000000000000000000000000000000000000000000000000000000000000000000   036   1                             20250105                      
1012024111335       021130020242                  PARF    021130020242                  2025020500000031                000000000021085900000000000000000000000000000000000000000000000000000000000000000000000000   036   1                             20250205                      
1012024111335       021130020242                  PARF    021130020242                  2025030500000032                000000000021085900000000000000000000000000000000000000000000000000000000000000000000000000   036   1                             20250305                      
1012024111335       021130020242                  PARF    021130020242                  2025040500000033                000000000021085900000000000000000000000000000000000000000000000000000000000000000000000000   036   1                             20250405                      
1012024111335       021130020242                  PARF    021130020242                  2025050500000034                000000000021085900000000000000000000000000000000000000000000000000000000000000000000000000   036   1                             20250505                      
1012024111335       021130020242                  PARF    021130020242                  2025060500000035                000000000021085900000000000000000000000000000000000000000000000000000000000000000000000000   036   1                             20250605                      
1012024111335       021130020242                  PARF    021130020242                  2025070500000036                000000000021085900000000000000000000000000000000000000000000000000000000000000000000000000   036   1                             20250705                      
1012024111335       021500001438                  CSPF    021500001438                  2024082100000022                000000000008775300000000000000000000000000000000000000000000000000000000000000000000000000   048   1                             20240821                      
1012024111335       021500001438                  CSPF    021500001438                  2024092100000023                000000000008775300000000000000000000000000000000000000000000000000000000000000000000000000   048   1                             20240921                      
1012024111335       021500001438                  CSPF    021500001438                  2024102100000024                000000000008775300000000000000000000000000000000000000000000000000000000000000000000000000   048   1                             20241021                      
1012024111335       021500001438                  CSPF    021500001438                  2024112100000025                000000000008775300000000000000000000000000000000000000000000000000000000000000000000000000   048   1                             20241121                      
1012024111335       021500001438                  CSPF    021500001438                  2024122100000026                000000000008775300000000000000000000000000000000000000000000000000000000000000000000000000   048   1                             20241221                      
1012024111335       021500001438                  CSPF    021500001438                  2025012100000027                000000000008775300000000000000000000000000000000000000000000000000000000000000000000000000   048   1                             20250121                      
1012024111335       021500001438                  CSPF    021500001438                  2025022100000028                000000000008775300000000000000000000000000000000000000000000000000000000000000000000000000   048   1                             20250221                      
1012024111335       021500001438                  CSPF    021500001438                  2025032100000029                000000000008775300000000000000000000000000000000000000000000000000000000000000000000000000   048   1                             20250321                      
1012024111335       021500001438                  CSPF    021500001438                  2025042100000030                000000000008775300000000000000000000000000000000000000000000000000000000000000000000000000   048   1                             20250421                      
1012024111335       021500001438                  CSPF    021500001438                  2025052100000031                000000000008775300000000000000000000000000000000000000000000000000000000000000000000000000   048   1                             20250521                      
1012024111335       021500001438                  CSPF    021500001438                  2025062100000032                000000000008775300000000000000000000000000000000000000000000000000000000000000000000000000   048   1                             20250621                      
1012024111335       021500001438                  CSPF    021500001438                  2025072100000033                000000000008775300000000000000000000000000000000000000000000000000000000000000000000000000   048   1                             20250721                      
1012024111335       021500001438                  CSPF    021500001438                  2025082100000034                000000000008775300000000000000000000000000000000000000000000000000000000000000000000000000   048   1                             20250821                      
1012024111335       021500001438                  CSPF    021500001438                  2025092100000035                000000000008775300000000000000000000000000000000000000000000000000000000000000000000000000   048   1                             20250921                      
1012024111335       021500001438                  CSPF    021500001438                  2025102100000036                000000000008775300000000000000000000000000000000000000000000000000000000000000000000000000   048   1                             20251021                      
1012024111335       021500001438                  CSPF    021500001438                  2025112100000037                000000000008775300000000000000000000000000000000000000000000000000000000000000000000000000   048   1                             20251121                      
1012024111335       021500001438                  CSPF    021500001438                  2025122100000038                000000000008775300000000000000000000000000000000000000000000000000000000000000000000000000   048   1                             20251221                      
1012024111335       021500001438                  CSPF    021500001438                  2026012100000039                000000000008775300000000000000000000000000000000000000000000000000000000000000000000000000   048   1                             20260121                      
1012024111335       021500001438                  CSPF    021500001438                  2026022100000040                000000000008775300000000000000000000000000000000000000000000000000000000000000000000000000   048   1                             20260221                      
1012024111335       021500001438                  CSPF    021500001438                  2026032100000041                000000000008775300000000000000000000000000000000000000000000000000000000000000000000000000   048   1                             20260321                      
