001202412192024121900000009
10120241219133      34018856857                   134018856857   MARCIA DE ARAUJO PIPERNO                     19640609VASNERI ARAUJO  PIPERNO                                                                                                                                                                                                                                   00000000                                                                                                                        VASNERI ARAUJO  PIPERNO                      CATA PRETA                                        1002      BL18APTO 3                                        VILA JOAO RAMALHO        SANTO ANDRE            SP091700001144551378                                                                                CABELEIREROS MANICURES ESTETIC                                                                                                                                                                00000000                                                                         2020021120520426                                                                                                                                                                                                                                                                       FS253651245SSP20150921058     000000000000000000        00000000R11941706512         949676017           949676017                                                                       
10120241219133      92486002120                   192486002120   MONICA FRANCISCA DA CONCEICAO                19810118GERCINA FRANCISCA DA CONCEICAO                                                                                                                                                                                                                            00000000                                                                                                                                                                     QD NM 8                                           44        CONJ D                                            CEILANDIA NORTE CEI      BRASILIA               DF722100846134431000                                                                                                                                                                                                                                                                              00000000                                                                         2022091220520426                                                                                                                                                                                                                                                                       FS            20211129        000000000000000000        00000000R61984306620         984306620           982096920           MONICA.FIT@HOTMAIL.COM                                      
10120241219133      30255886837                   130255886837   TATIANE STEFAN NEGRETI ROBERTO               19830420TANIA NEGRETI ROBERTO.                       JOS CARLOS DOS SANTOS                                                                                                                                                                                        0000000011966723406                                                                                                             TANIA NEGRETI ROBERTO                        VEREADOR ABEL FERRERA                             1950      AP 24C                                            ANALIA FRANCO            SAO PAULO              SP033400001126723046          IN FOCO DO BRASIL LTDA                                                REPRESENTANTE COML            RUA PEDRO BELEGARDE                                    00386                                                  TATUAPE                  SAO PAULO              SP03401034                                                                         2014073020520426                                                                                                                                                                                                                                                                       FC426840999SSP20080630075     000000000000000000        00000000R11961999644         971091649           11971617171         TATI_ROBERTO@YAHOO.COM.BR                                   
10120241219133      30313213836                   130313213836   GEORGE ROBERTO GOMES DA SILVA                19750305MARIA DAS NEVES GOMES DA SILVA               X                                                                                                                                                                                                            00000000                                                                                                                        MARIA DAS NEVES GOMES DA SILVA               RUA NOVO HORIZONTE                                8                                                           VILA JAMIL               FERRAZ DE VASCONCELO   SP08525340                                                                                                                        RUA NOVO HORIZONTE                                         8                                                  JARDIM IPANEMA           FERRAZ DE VASCONCELO   SP08525000                                                                         2018061520520426        PARCELAMENTO DE FATURA PARA O CONTRATO:0005363800345000007 - PROPOSTAS SEM SEGURO:- PROPOSTAS COM SEGURO:                                                                                                                                                      MC325458911SSP20180430016     000000000000000000        00000000R11991966639         991966639           46775051            SILVAGEORGE35@GMAIL.COM                                     
10120241219133      29252926828                   129252926828   ERIK APARECIDO JARDIM                        19820717MARIA APARECIDA FATIMA MACIEL                                                                                                                                                                                                                             00000000                                                                                                                        MARIA APARECIDA FATIMA MACIEL                JOAO DOS SANTOS ABREU                             835       CASA 36                                           VILA ESPANHOLA           SAO PAULO              SP02566020                                                                                                                                                                                                                                                                                        00000000                                                                         2019031820520426                                                                                                                                                                                                                                                                       MC30003274SSSP20180307016     000000000000000000        00000000R                    966275716           1122087446          ERIKJARDIM@GMAIL.COM                                        
10120241219133      31265265860                   131265265860   MARCIO ADRIANO BATISTA                       19820105DORALI APARECIDA NASCIMENTO BA               X                                                                                                                                                                                                            00000000                                                                                                                        DORALI APARECIDA NASCIMENTO BA               ROD ALKINDAR M JUNQUIRA                           00000     KM36 5                                            SITIO DA MOENDA          ITATIBA                SP13252810                                                                                                                                                                                                                                                                                        00000000                                                                         2016112820520426                                                                                                                                                                                                                                                                       MS35069675SSSP20150420016     000000000000000000        00000000R11963955739         998897155           963955739                                                                       
10120241219133      39532508848                   139532508848   CAMILA RODRIGUES DE TOLEDO                   19910318MARIA DAS GRACAS OLIVEIRA                                                                                                                                                                                                                                 00000000                                                                                                                        MARIA DAS GRACAS OLIVEIRA                    SANTIAGO MAIA                                     980       CASA                                              PARQUE RESIDENCIAL V     ARARAQUARA             SP14809364                                                                                          OUTROS OUTROS                                                                                                                                                                                 00000000                                                                         2017121220520426        PARCELAMENTO DE FATURA PARA O CONTRATO:0004152740929325008 - PROPOSTAS SEM SEGURO:- PROPOSTAS COM SEGURO:                                                                                                                                                      FC476889376SSP20171004016     000000000000000000        00000000R16997645682         996202845           996202845           CAMILA-TOLEDO@LIVE.COM                                      
10120241219133      30319444880                   130319444880   LUANA MATIAS                                 19790420HELENICE MATIAS                                                                                                                                                                                                                                           00000000                                                                                                                        HELENICE MATIAS                              ANTONIO EMMERICK                                  930       APTO 03                                           VILA SAO JORGE           SAO VICENTE            SP113700001335618972                                                                                                                                                                                                                                                                              00000000                                                                         2019052920520426                                                                                                                                                                                                                                                                       FC329984445S  20120830016     000000000000000000        00000000R                    991072187           1398176358          LUANA.MATIAS@GLOBO.COM                                      
10120241219133      30520652894                   130520652894   FERNANDO RIBEIRO DAS MERCES JR               19800218LUCIA HELENA BORGES DO NASCIME                                                                                                                                                                                                                            00000000                                                                                                                        LUCIA HELENA BORGES DO NASCIME               RUA JOSE FREIRE JUNIOR                            00088     .                                                 JARDIM LAJEADO           SAO PAULO              SP080417001120536302                                                                                                                                                                                                                                                                              000000001134385313                                                               2014101620520426                                                                                                                                                                                                                                                                       MC28156140SS  20120921016     000000000000000000        00000000R913016546           970488270           1177378274          BAGNOLIJUNIOR@GMAIL.COM                                     
10120241219133      31615610820                   131615610820   LUIZ ALBERTOBRAZIL DE CARVALHO               19830530MARIA DE LOURDES V DE CARVALHO                                                                                                                                                                                                                            00000000                                                                                                                                                                     RUA BENEDITO PRESTES DE O                         66                                                          JARDIM SAO CAMILO        SOROCABA               SP180781801532399726                                                                                                                                                                                                                                                                              00000000                                                                         2022091220520426                                                                                                                                                                                                                                                                       MS            20210927        000000000000000000        00000000R15998330035         996153111           996153111           LUIZ_LAUROSANCHES@HOTMAIL.COM                               
10120241219133      32932628801                   132932628801   GISLAINE TORRES DA SILVA                     19840607APARECIDA TORRES EPIFANIO                                                                                                                                                                                                                                 00000000                                                                                                                        APARECIDA TORRES EPFANIO                     R YAYA                                            206       AP102 BL B                                        CANHEMA                  DIADEMA                SP09921260                                                                                                                                                                                                                                                                                        00000000                                                                         2018070220520426                                                                                                                                                                                                                                                                       FS34680639 2SP20110906016     000000000000000000        00000000R998440473           998789280           55880703            NANY_TORRESS@HOTMAIL.COM                                    
10120241219133      05455965565                   105455965565   ARINALDO VILAS BOAS DE ALMEIDA               19901004MARIVALDA DOS SANTOS VILAS BOA                                                                                                                                                                                                                            00000000                                                                                                                                                                     RUA OSCAR PEREIRA DE SOUZ                         28        CASA                                              URBIS                    CATU                   BA48110000                                                                                                                                                                                                                                                                                        00000000                                                                         2022081020250319                                                                                                                                                                                                                                                                       MO            20220530        000000000000000000        00000000R71996942872                                                 ARIVBOAS@HOTMAIL.COM                                        
10120241219133      29350336634                   129350336634   EDSON VIELMI NASCIMENTO                      19571130CATARINA.VIELMI NASCIMENTO                   CAMPANHA                                                                                                                                                                                                     00000000                                                                                                                        CATARINA VIELMI NASCIMENTO                   ARACUAI                                           247       .                                                 SEVILHA 2 SECAO          RIBEIRAO DAS NEVES     MG338406503136252538          NAO INFORMADO                                                                                                                                                                                                                                                       00000000                                                                         2019112220520426                                                                                                                                                                                                                                                                       MO909090SSP SP20180129016     000000000000000000        00000000R31989774215         984082952           984082952           ED_VIELMINASCIMENTO@GMAIL.COM                               
10120241219133      29734522876                   129734522876   EDUARDO COCCUZZO BUENO                       19801210ZILA COCCUZZO BUENO                                                                                                                                                                                                                                       00000000                                                                                                                        ZILA COCCUZZO BUENO                          GREGORIO BEZERRA                                  299       APTO 102                                          JARDIM PRIMAVERA         SAO PAULO              SP0481220056666620                                                                                                                                                                                                                                                                                00000000                                                                         2015081220520426                                                                                                                                                                                                                                                                       MC335014653S  20120113016     000000000000000000        00000000R969437977                                                   EDUARDO.COCCUZO@GMAIL.COM                                   
10120241219133      31918753873                   131918753873   APARECIDA ALVES BARBOZA                      19820223FRANCINEIDE ALVES BARBOZA                                                                                                                                                                                                                                 00000000                                                                                                                                                                     RUA ANTONIO ALVES DE CAMP                         92        CASA                                              LOTEAMENTO ANTONIO A     MOGI MIRIM             SP13807499                                                                                                                                                                                                                                                                                        00000000                                                                         2022081120520426                                                                                                                                                                                                                                                                       FS            20211127        000000000000000000        00000000R19981791184         981791184           981791184           CI.ALVES2302@GMAIL.COM                                      
10120241219Q33      30319444880                   1398176358                  OUTROS                        
10120241219Q33      30520652894                   970488270                   OUTROS                        
10120241219Q33      31615610820                   15998330035                 CELULAR                       
10120241219Q33      31918753873                   981791184                   OUTROS                        
10120241219Q33      32932628801                   998789280                   OUTROS                        
10120241219Q33      39532508848                   996202845                   OUTROS                        
10120241219Q33      29252926828                   941668509                   OUTROS                        
10120241219Q33      30255886837                   11961999644         0       CELULAR                       
10120241219Q33      30255886837                   971091649                   OUTROS                        
10120241219Q33      30313213836                   991966639                   OUTROS                        
10120241219Q33      30319444880                   35618972                    OUTROS                        
10120241219Q33      30520652894                   913016546                   CELULAR                       
10120241219Q33      31615610820                   1532329424                  RESIDENCIAL                   
10120241219Q33      32932628801                   55880703                    OUTROS                        
10120241219Q33      34018856857                   949676017                   OUTROS                        
10120241219Q33      39532508848                   16997313238                 CELULAR                       
10120241219Q33      39532508848                   16997645682                 CELULAR                       
10120241219Q33      29350336634                   3136252538                  RESIDENCIAL                   
10120241219Q33      29734522876                   956186120                   CELULAR                       
10120241219Q33      30255886837                   1126723046                  RESIDENCIAL                   
10120241219Q33      30319444880                   13991072187                 OUTROS                        
10120241219Q33      30520652894                   11970488270                 CELULAR                       
10120241219Q33      30520652894                   11971697926                 CELULAR                       
10120241219Q33      30520652894                   11982583760                 CELULAR                       
10120241219Q33      31615610820                   1532399726                  RESIDENCIAL                   
10120241219Q33      31615610820                   15997651845                 CELULAR                       
10120241219Q33      34018856857                   1144551378                  RESIDENCIAL                   
10120241219Q33      92486002120                   982096920                   OUTROS                        
10120241219Q33      05455965565                   71999983019                 CELULAR                       
10120241219Q33      29350336634                   984082952                   OUTROS                        
10120241219Q33      29734522876                   56666620            0       RESIDENCIAL                   
10120241219Q33      30255886837                   11976477953                 OUTROS                        
10120241219Q33      30313213836                   11991966639                 CELULAR                       
10120241219Q33      30313213836                   46775051                    OUTROS                        
10120241219Q33      32932628801                   996781864                   CELULAR                       
10120241219Q33      29252926828                   1122087446                  OUTROS                        
10120241219Q33      29734522876                   1156666620                  RESIDENCIAL                   
10120241219Q33      29734522876                   969437977           0       CELULAR                       
10120241219Q33      30319444880                   1335618972          0       RESIDENCIAL                   
10120241219Q33      30520652894                   20536302                    OUTROS                        
10120241219Q33      31265265860                   11963955739                 CELULAR                       
10120241219Q33      31265265860                   963955739                   OUTROS                        
10120241219Q33      31918753873                   19981791184                 CELULAR                       
10120241219Q33      92486002120                   6134431000                  RESIDENCIAL                   
10120241219Q33      92486002120                   61984306620                 CELULAR                       
10120241219Q33      05455965565                   71996942872                 CELULAR                       
10120241219Q33      29252926828                   966275716                   OUTROS                        
10120241219Q33      29350336634                   31989774215                 CELULAR                       
10120241219Q33      30520652894                   20535227                    OUTROS                        
10120241219Q33      30520652894                   34385313                    OUTROS                        
10120241219Q33      31265265860                   998897155                   OUTROS                        
10120241219Q33      32932628801                   958669619                   OUTROS                        
10120241219Q33      32932628801                   998440473                   CELULAR                       
10120241219Q33      29350336634                   31984082952                 CELULAR                       
10120241219Q33      29734522876                   1136592898                  RESIDENCIAL                   
10120241219Q33      30255886837                   11966723406                 REFERENCIA                    
10120241219Q33      30520652894                   1120536302                  RESIDENCIAL                   
10120241219Q33      32932628801                   975392586                   OUTROS                        
10120241219Q33      92486002120                   984306620                   OUTROS                        
10120241219Q33      30255886837                   11971617171                 OUTROS                        
10120241219Q33      30319444880                   991072187                   OUTROS                        
10120241219Q33      30520652894                   1134385313                  COMERCIAL                     
10120241219Q33      30520652894                   1177378274                  OUTROS                        
10120241219Q33      30520652894                   11960722952                 CELULAR                       
10120241219Q33      31615610820                   996153111                   OUTROS                        
10120241219Q33      34018856857                   11941706512         0       CELULAR                       
10120241219233      30319444880                   000030000004152750143887006                                                                00003000                                             00000000PORTO SEGURO                                 000000000515079600000000000750000000201208270000000000001NUMERO DO CARTAO DO TITULAR - FINAL 7121                                                                                                                                                                                                                                                                                                                                                                                                                                                                                                                                                                    000000000000000000                                                                                                 
10120241219233      31615610820                   000010000004121773381115003                                                                00001000                                             00000001PORTO SEGURO                                 000000000003763600000000000009000000202109270000000000001NUMERO DO CARTAO DO TITULAR - FINAL 5110                                                                                                                                                                                                                                                                                                                                                                                                                                                                                                                                                                    000000000000000000                                                                                                 
10120241219233      30313213836                   002010000005363800345000007                                                                00201000                                             00000000                                             000000000006929200000000000025000000201804250000000000001NUMERO DO CARTAO DO TITULAR - FINAL 0114                                                                                                                                                                                                                                                                                                                                                                                                                                                                                                                                                                    000000000000000000                                                                                                 
10120241219233      30255886837                   000010000004121770016091005                                                                00001000                                             00000000                                             000000000000000000000000000000000000200806230000000000001NUMERO DO CARTAO DO TITULAR - FINAL 1120                                                                                                                                                                                                                                                                                                                                                                                                                                                                                                                                                                    000000000000000000                                                                                                 
10120241219233      29252926828                   000020000004152740994949005                                                                00002000                                             00000000PORTO SEGURO                                 000000000061084000000000000055000000201803020000000000001NUMERO DO CARTAO DO TITULAR - FINAL 9112                                                                                                                                                                                                                                                                                                                                                                                                                                                                                                                                                                    000000000000000000                                                                                                 
10120241219233      30520652894                   000030000004152750146814007                                                                00003000                                             00000000                                             000000000000000000000000000000000000201209180000000000001NUMERO DO CARTAO DO TITULAR - FINAL 4114                                                                                                                                                                                                                                                                                                                                                                                                                                                                                                                                                                    000000000000000000                                                                                                 
10120241219233      29350336634                   002010000005363800335163005                                                                00201000                                             00000000PORTO SEGURO                                 000000000000000000000000000007000000201801250000000000001NUMERO DO CARTAO DO TITULAR - FINAL 3112                                                                                                                                                                                                                                                                                                                                                                                                                                                                                                                                                                    000000000000000000                                                                                                 
10120241219233      05455965565                   000010000004121773692241001                                                                00001000                                             00000001PORTO SEGURO                                 000000000000000000000000000006000000202205300000000000001NUMERO DO CARTAO DO TITULAR - FINAL 1118                                                                                                                                                                                                                                                                                                                                                                                                                                                                                                                                                                    000000000000000000                                                                                                 
10120241219233      31918753873                   000010000004121773094168000                                                                00001000                                             00000001PORTO SEGURO                                 000000000009499200000000000013000000202111270000000000001NUMERO DO CARTAO DO TITULAR - FINAL 8117                                                                                                                                                                                                                                                                                                                                                                                                                                                                                                                                                                    000000000000000000                                                                                                 
10120241219233      92486002120                   000010000004121773262881004                                                                00001000                                             00000001PORTO SEGURO                                 000000000011721200000000000013000000202111290000000000001NUMERO DO CARTAO DO TITULAR - FINAL 1111                                                                                                                                                                                                                                                                                                                                                                                                                                                                                                                                                                    000000000000000000                                                                                                 
10120241219233      34018856857                   000010000004121771374583005                                                                00001000                                             00000000                                             000000000031507300000000000062000000201509210000000000001NUMERO DO CARTAO DO TITULAR - FINAL 3112                                                                                                                                                                                                                                                                                                                                                                                                                                                                                                                                                                    000000000000000000                                                                                                 
10120241219233      32932628801                   000020000004152740396054008                                                                00002000                                             00000000                                             000000000442675900000000000260000000200909230000000000001NUMERO DO CARTAO DO TITULAR - FINAL 4131                                                                                                                                                                                                                                                                                                                                                                                                                                                                                                                                                                    000000000000000000                                                                                                 
10120241219233      31265265860                   000010000004121771324208000                                                                00001000                                             00000000                                             000000000006191000000000000016000000201504170000000000001NUMERO DO CARTAO DO TITULAR - FINAL 8125                                                                                                                                                                                                                                                                                                                                                                                                                                                                                                                                                                    000000000000000000                                                                                                 
10120241219233      29734522876                   000020000004152740444848005                                                                00002000                                             00000000                                             000000000263423000000000000043000000201201110000000000001NUMERO DO CARTAO DO TITULAR - FINAL 8138                                                                                                                                                                                                                                                                                                                                                                                                                                                                                                                                                                    000000000000000000                                                                                                 
10120241219233      39532508848                   000020000004152740929325008                                                                00002000                                             00000000                                             000000000000000000000000000006500000201709220000000000001NUMERO DO CARTAO DO TITULAR - FINAL 5115                                                                                                                                                                                                                                                                                                                                                                                                                                                                                                                                                                    000000000000000000                                                                                                 
10120241219333      05455965565                   000010000004121773692241001           202208100000000120220928        000000000007375000000000000000000000000000000000000000000000000008849700000000000000000000   000   1                             20220810                      
10120241219333      29252926828                   000020000004152740994949005           201903160000000120190506        000000000095779600000000000000000000000000000000000000000000000095779600000000000000000000   000   1                             20190316                      
10120241219333      29350336634                   002010000005363800335163005           201910150000000120191204        000000000001140800000000000000000000000000000000000000000000000001140800000000000000000000   000   1                             20191015                      
10120241219333      29734522876                   000020000004152740444848005           201507160000000120150907        000000000358586200000000000000000000000000000000000000000000000358586200000000000000000000   000   1                             20150716                      
10120241219333      30255886837                   000010000004121770016091005           201012200000000120150807        000000000019159000000000000000000000000000000000000000000000000019159000000000000000000000   000   1                             20101220                      
10120241219333      30313213836                   002010000005363800345000007           201806150000000120180615        000000000026533800000000000000000000000000000000000000000000000026533800000000000000000000   000   1                             20180615                      
10120241219333      30319444880                   000030000004152750143887006           201905280000000120190715        000000000856304200000000000000000000000000000000000000000000000856304200000000000000000000   000   1                             20190528                      
10120241219333      30520652894                   000030000004152750146814007           201410150000000120150804        000000000345987500000000000000000000000000000000000000000000000345987500000000000000000000   000   1                             20141015                      
10120241219333      31265265860                   000010000004121771324208000           201611260000000120170115        000000000016470100000000000000000000000000000000000000000000000016470100000000000000000000   000   1                             20161126                      
10120241219333      31615610820                   000010000004121773381115003           202209100000000120221030        000000000012084900000000000000000000000000000000000000000000000012084900000000000000000000   000   1                             20220910                      
10120241219333      31918753873                   000010000004121773094168000           202208100000000120220928        000000000015018200000000000000000000000000000000000000000000000015018200000000000000000000   000   1                             20220810                      
10120241219333      32932628801                   000020000004152740396054008           201805200000000120180520        000000000472611100000000000000000000000000000000000000000000000472611100000000000000000000   000   1                             20180520                      
10120241219333      34018856857                   000010000004121771374583005           202002100000000120200325        000000000078527900000000000000000000000000000000000000000000000078527900000000000000000000   000   1                             20200210                      
10120241219333      39532508848                   000020000004152740929325008           201710250000000120171212        000000000002966500000000000000000000000000000000000000000000000002966500000000000000000000   000   1                             20171025                      
10120241219333      92486002120                   000010000004121773262881004           202209100000000120221030        000000000016748100000000000000000000000000000000000000000000000016748100000000000000000000   000   1                             20220910                      
10120241219533      30256217882                   20241218084946EMISBOL EMISSÃO DE BOLETO ATRAVÉS DE WEBSERVICE (1ª VIA) PARA O RECEBIMENTO 49752904. VENCIMENTO: 20/12/2024 VALOR: 552,89  PARCELA: 001/001 ACORDO: 05004625                                                                                                          
10120241219533      29487455604                   20241218083617ACORDO  /AG 02/01/2025 08:36  PG 23/12/2024 08:36 (ACORDO:05004531) QTDE DE PARCELAS: 1 + 0. VALOR DA ENTRADA: 437,82. DATA DA ENTRADA: 23/12/2024. PRESTAÇÕES ENVOLVIDAS NO ACORDO: 001 DO CONTRATO 0004121770419722008. DESCONTO: 168.580,72.                        
10120241219533      58768688687                   20241218102829EMISBOL EMISSÃO DE BOLETO ATRAVÉS DE WEBSERVICE (1ª VIA) PARA O RECEBIMENTO 49759427. VENCIMENTO: 23/12/2024 VALOR: 2.237,82  PARCELA: 001/001 ACORDO: 05005233                                                                                                        
10120241219533      29554833890                   20241218113333ACORDO  /AG 02/01/2025 11:33  PG 23/12/2024 11:33 (ACORDO:05005634) QTDE DE PARCELAS: 1 + 0. VALOR DA ENTRADA: 95,86. DATA DA ENTRADA: 23/12/2024. PRESTAÇÕES ENVOLVIDAS NO ACORDO: 001 DO CONTRATO 0004121771612236002. DESCONTO: 13.456,59.                          
10120241219533      32277374857                   20241218155925ACORDO  /AG 30/12/2024 15:59  PG 20/12/2024 15:59 (ACORDO:05007196) QTDE DE PARCELAS: 1 + 0. VALOR DA ENTRADA: 173,50. DATA DA ENTRADA: 20/12/2024. PRESTAÇÕES ENVOLVIDAS NO ACORDO: 001 DO CONTRATO 0004121770777206008. DESCONTO: 52.583,47.                         
10120241219533      29554833890                   20241218113348EMISBOL EMISSÃO LOCAL DE BOLETO (2ª VIA) PARA O RECEBIMENTO 49763179. VENCIMENTO: 23/12/2024 VALOR: 95,86  PARCELA: 001/001 ACORDO: 05005634                                                                                                                           
10120241219533      32033944808                   20241218180213ACORDO  /AG 30/12/2024 18:02  PG 20/12/2024 18:02 (ACORDO:05007720) QTDE DE PARCELAS: 1 + 0. VALOR DA ENTRADA: 222,86. DATA DA ENTRADA: 20/12/2024. PRESTAÇÕES ENVOLVIDAS NO ACORDO: 001 DO CONTRATO 0004121771380399008. DESCONTO: 20.671,37.                         
10120241219533      32033944808                   20241218180215EMISBOL EMISSÃO DE BOLETO ATRAVÉS DE WEBSERVICE (1ª VIA) PARA O RECEBIMENTO 49784621. VENCIMENTO: 20/12/2024 VALOR: 222,86  PARCELA: 001/001 ACORDO: 05007720                                                                                                          
10120241219533      58768688687                   20241218102826ACORDO  /AG 02/01/2025 10:28  PG 23/12/2024 10:28 (ACORDO:05005233) QTDE DE PARCELAS: 1 + 0. VALOR DA ENTRADA: 2.237,82. DATA DA ENTRADA: 23/12/2024. PRESTAÇÕES ENVOLVIDAS NO ACORDO: 001 DO CONTRATO 0005363800133432008. DESCONTO: 216.554,89.                      
10120241219533      30256217882                   20241218084942ACORDO  /AG 30/12/2024 08:49  PG 20/12/2024 08:49 (ACORDO:05004625) QTDE DE PARCELAS: 1 + 0. VALOR DA ENTRADA: 552,89. DATA DA ENTRADA: 20/12/2024. PRESTAÇÕES ENVOLVIDAS NO ACORDO: 001 DO CONTRATO 0004121773123598003. DESCONTO: 2.404,86.                          
10120241219533      32277374857                   20241218155928EMISBOL EMISSÃO DE BOLETO ATRAVÉS DE WEBSERVICE (1ª VIA) PARA O RECEBIMENTO 49779627. VENCIMENTO: 20/12/2024 VALOR: 173,50  PARCELA: 001/001 ACORDO: 05007196                                                                                                          
10120241219533      34076894898                   20241218160240ACORDO  /AG 02/01/2025 16:02  PG 23/12/2024 16:02 (ACORDO:05007211) QTDE DE PARCELAS: 1 + 5. VALOR DA ENTRADA: 145,84. DATA DA ENTRADA: 23/12/2024. VALOR DAS DEMAIS PARCELAS: 145,84. PRESTAÇÕES ENVOLVIDAS NO ACORDO: 001 DO CONTRATO 0004121773285170005. DESCONTO: 
10120241219533      34076894898                   20241218160243EMISBOL EMISSÃO DE BOLETO ATRAVÉS DE WEBSERVICE (1ª VIA) PARA O RECEBIMENTO 49779836. VENCIMENTO: 23/12/2024 VALOR: 145,84  PARCELA: 001/006 ACORDO: 05007211                                                                                                          
10120241219533      30400672812                   20241218142038ACORDO  /AG 29/12/2024 14:20  PG 19/12/2024 14:20 (ACORDO:05006699) QTDE DE PARCELAS: 1 + 0. VALOR DA ENTRADA: 281,07. DATA DA ENTRADA: 19/12/2024. PRESTAÇÕES ENVOLVIDAS NO ACORDO: 001 DO CONTRATO 0004152741004790009. DESCONTO: 32.982,33.                         
10120241219533      29554833890                   20241218113341EMISBOL EMISSÃO DE BOLETO ATRAVÉS DE API (1ª VIA) PARA O RECEBIMENTO 49763179. VENCIMENTO: 23/12/2024 VALOR: 95,86  PARCELA: 001/001 ACORDO: 05005634                                                                                                                  
10120241219B33      05455965565                   000010000004121773692241001           % LIM PA00000000            12                              
10120241219B33      05455965565                   000010000004121773692241001           % LIM RO00000000            12                              
10120241219B33      05455965565                   000010000004121773692241001           ANORELAC0                   12                              
10120241219B33      05455965565                   000010000004121773692241001           BHV SCOR0000000000000000130012                              
10120241219B33      05455965565                   000010000004121773692241001           BLOQ1   BRANCO              12                              
10120241219B33      05455965565                   000010000004121773692241001           BLOQ2   K                   12                              
10120241219B33      05455965565                   000010000004121773692241001           CANALENTLP                  12                              
10120241219B33      05455965565                   000010000004121773692241001           CESSCARTS                   12                              
10120241219B33      05455965565                   000010000004121773692241001           CESSEFET28/06/2023          12                              
10120241219B33      05455965565                   000010000004121773692241001           CRD SCOR0000000000          12                              
10120241219B33      05455965565                   000010000004121773692241001           DESF    0                   12                              
10120241219B33      05455965565                   000010000004121773692241001           DIG CPF 65                  12                              
10120241219B33      05455965565                   000010000004121773692241001           DT INIB 18/10/2022          12                              
10120241219B33      05455965565                   000010000004121773692241001           DTA CONC30/05/2022          12                              
10120241219B33      05455965565                   000010000004121773692241001           DTVENCTO1008                12                              
10120241219B33      05455965565                   000010000004121773692241001           FLAG TARBRANCO              12                              
10120241219B33      05455965565                   000010000004121773692241001           FLAGDEBT0                   12                              
10120241219B33      05455965565                   000010000004121773692241001           FLAGSEG 1                   12                              
10120241219B33      05455965565                   000010000004121773692241001           FLAGUSO 1                   12                              
10120241219B33      05455965565                   000010000004121773692241001           FPD     S                   12                              
10120241219B33      05455965565                   000010000004121773692241001           FXBSGOON1                   12                              
10120241219B33      05455965565                   000010000004121773692241001           GR PRODU00001000            12                              
10120241219B33      05455965565                   000010000004121773692241001           MDA     0068                12                              
10120241219B33      05455965565                   000010000004121773692241001           MESRELAC4                   12                              
10120241219B33      05455965565                   000010000004121773692241001           MESULTCO3                   12                              
10120241219B33      05455965565                   000010000004121773692241001           PAG_CNABN                   12                              
10120241219B33      05455965565                   000010000004121773692241001           PCTCONTA001                 12                              
10120241219B33      05455965565                   000010000004121773692241001           PERRELAC0                   12                              
10120241219B33      05455965565                   000010000004121773692241001           PROMO   P3                  12                              
10120241219B33      05455965565                   000010000004121773692241001           QT SAQUE000                 12                              
10120241219B33      05455965565                   000010000004121773692241001           RDGCPF  96                  12                              
10120241219B33      05455965565                   000010000004121773692241001           RENDA   0,00                12                              
10120241219B33      05455965565                   000010000004121773692241001           SALDOATT885                 12                              
10120241219B33      05455965565                   000010000004121773692241001           SCORCSBA196                 12                              
10120241219B33      05455965565                   000010000004121773692241001           STA INIB5                   12                              
10120241219B33      05455965565                   000010000004121773692241001           TBNEGOC 88                  12                              
10120241219B33      05455965565                   000010000004121773692241001           TRN_INIBS                   12                              
10120241219B33      05455965565                                                         CL_SCORE99                  11                              
10120241219B33      05455965565                                                         FASECLI Y                   11                              
10120241219B33      05455965565                                                         RDG_CPF 96                  11                              
10120241219B33      05455965565                                                         RISC TOT884,97              11                              
10120241219B33      05455965565                                                         SALD TOT884,97              11                              
10120241219B33      05455965565                                                         SEGPORTON                   11                              
10120241219B33      05455965565                                                         VALR MIN884,97              11                              
10120241219B33      29252926828                   000020000004152740994949005           % LIM PA00000000            12                              
10120241219B33      29252926828                   000020000004152740994949005           % LIM RO00000000            12                              
10120241219B33      29252926828                   000020000004152740994949005           BHV SCOR0000000000000000130012                              
10120241219B33      29252926828                   000020000004152740994949005           BLOQ1   O                   12                              
10120241219B33      29252926828                   000020000004152740994949005           BLOQ2   K                   12                              
10120241219B33      29252926828                   000020000004152740994949005           CESSCARTS                   12                              
10120241219B33      29252926828                   000020000004152740994949005           CESSEFET27-JUN-23           12                              
10120241219B33      29252926828                   000020000004152740994949005           CRD SCOR0000000000          12                              
10120241219B33      29252926828                   000020000004152740994949005           CS_AMIG 310                 12                              
10120241219B33      29252926828                   000020000004152740994949005           DESF    0                   12                              
10120241219B33      29252926828                   000020000004152740994949005           DIG CPF 26                  12                              
10120241219B33      29252926828                   000020000004152740994949005           DT INIB 27/05/2019          12                              
10120241219B33      29252926828                   000020000004152740994949005           DTA CONC07/03/2018          12                              
10120241219B33      29252926828                   000020000004152740994949005           DTVENCTO1603                12                              
10120241219B33      29252926828                   000020000004152740994949005           FLAG TARBRANCO              12                              
10120241219B33      29252926828                   000020000004152740994949005           FPD     NAO                 12                              
10120241219B33      29252926828                   000020000004152740994949005           FXBSGOON1                   12                              
10120241219B33      29252926828                   000020000004152740994949005           GR PRODU00002000            12                              
10120241219B33      29252926828                   000020000004152740994949005           MDA     0361                12                              
10120241219B33      29252926828                   000020000004152740994949005           NAT OCUP02                  12                              
10120241219B33      29252926828                   000020000004152740994949005           PAG_CNABN                   12                              
10120241219B33      29252926828                   000020000004152740994949005           PCTCONTA001                 12                              
10120241219B33      29252926828                   000020000004152740994949005           PROMO   P2                  12                              
10120241219B33      29252926828                   000020000004152740994949005           QT SAQUE000                 12                              
10120241219B33      29252926828                   000020000004152740994949005           RDGCPF6792                  12                              
10120241219B33      29252926828                   000020000004152740994949005           RENDA   0,00                12                              
10120241219B33      29252926828                   000020000004152740994949005           RIS ESTA0003                12                              
10120241219B33      29252926828                   000020000004152740994949005           SALDOPL 25                  12                              
10120241219B33      29252926828                   000020000004152740994949005           SDTOTCTA9578                12                              
10120241219B33      29252926828                   000020000004152740994949005           SLD_DCAP9526                12                              
10120241219B33      29252926828                   000020000004152740994949005           SLD_NEGA9553                12                              
10120241219B33      29252926828                   000020000004152740994949005           STA INIB7                   12                              
10120241219B33      29252926828                   000020000004152740994949005           TBNEGOC 209                 12                              
10120241219B33      29252926828                   000020000004152740994949005           TRN_INIBS                   12                              
10120241219B33      29252926828                                                         CL_SCORE3                   11                              
10120241219B33      29252926828                                                         FASECLI F                   11                              
10120241219B33      29252926828                                                         FXBS_SCR1                   11                              
10120241219B33      29252926828                                                         RDG_CPF 92                  11                              
10120241219B33      29252926828                                                         RISC TOT9577,96             11                              
10120241219B33      29252926828                                                         SALD TOT9577,96             11                              
10120241219B33      29252926828                                                         VALR MIN9577,96             11                              
10120241219B33      29350336634                   002010000005363800335163005           % LIM PA00000000            12                              
10120241219B33      29350336634                   002010000005363800335163005           % LIM RO00000000            12                              
10120241219B33      29350336634                   002010000005363800335163005           BHV SCOR0000000000000000140012                              
10120241219B33      29350336634                   002010000005363800335163005           BLOQ1   A                   12                              
10120241219B33      29350336634                   002010000005363800335163005           BLOQ2   K                   12                              
10120241219B33      29350336634                   002010000005363800335163005           CESSCARTS                   12                              
10120241219B33      29350336634                   002010000005363800335163005           CESSEFET27-JUN-23           12                              
10120241219B33      29350336634                   002010000005363800335163005           CRD SCOR0000000000          12                              
10120241219B33      29350336634                   002010000005363800335163005           CS_AMIG 500                 12                              
10120241219B33      29350336634                   002010000005363800335163005           DESF    0                   12                              
10120241219B33      29350336634                   002010000005363800335163005           DIG CPF 36                  12                              
10120241219B33      29350336634                   002010000005363800335163005           DT INIB 26/12/2019          12                              
10120241219B33      29350336634                   002010000005363800335163005           DTA CONC29/01/2018          12                              
10120241219B33      29350336634                   002010000005363800335163005           DTVENCTO1510                12                              
10120241219B33      29350336634                   002010000005363800335163005           FLAG TARBRANCO              12                              
10120241219B33      29350336634                   002010000005363800335163005           FPD     NAO                 12                              
10120241219B33      29350336634                   002010000005363800335163005           FXBSGOON1                   12                              
10120241219B33      29350336634                   002010000005363800335163005           GR PRODU00201000            12                              
10120241219B33      29350336634                   002010000005363800335163005           MDA     0360                12                              
10120241219B33      29350336634                   002010000005363800335163005           NAT OCUP01                  12                              
10120241219B33      29350336634                   002010000005363800335163005           PAG_CNABN                   12                              
10120241219B33      29350336634                   002010000005363800335163005           PCTCONTA001                 12                              
10120241219B33      29350336634                   002010000005363800335163005           PROMO   P3                  12                              
10120241219B33      29350336634                   002010000005363800335163005           QT SAQUE000                 12                              
10120241219B33      29350336634                   002010000005363800335163005           RDGCPF6733                  12                              
10120241219B33      29350336634                   002010000005363800335163005           RENDA   0,00                12                              
10120241219B33      29350336634                   002010000005363800335163005           RIS ESTA0001                12                              
10120241219B33      29350336634                   002010000005363800335163005           SDTOTCTA114                 12                              
10120241219B33      29350336634                   002010000005363800335163005           SLD_DCAP0                   12                              
10120241219B33      29350336634                   002010000005363800335163005           SLD_NEGA114                 12                              
10120241219B33      29350336634                   002010000005363800335163005           STA INIB7                   12                              
10120241219B33      29350336634                   002010000005363800335163005           TBNEGOC 205                 12                              
10120241219B33      29350336634                   002010000005363800335163005           TRN_INIBS                   12                              
10120241219B33      29350336634                                                         CL_SCORE7                   11                              
10120241219B33      29350336634                                                         FASECLI B                   11                              
10120241219B33      29350336634                                                         FXBS_SCR4                   11                              
10120241219B33      29350336634                                                         RDG_CPF 33                  11                              
10120241219B33      29350336634                                                         RISC TOT114,08              11                              
10120241219B33      29350336634                                                         SALD TOT114,08              11                              
10120241219B33      29350336634                                                         VALR MIN114,08              11                              
10120241219B33      29734522876                   000020000004152740444848005           % LIM PA00000000            12                              
10120241219B33      29734522876                   000020000004152740444848005           % LIM RO00000000            12                              
10120241219B33      29734522876                   000020000004152740444848005           BHV SCOR0000000000000000500012                              
10120241219B33      29734522876                   000020000004152740444848005           BLOQ1   BRANCO              12                              
10120241219B33      29734522876                   000020000004152740444848005           BLOQ2   K                   12                              
10120241219B33      29734522876                   000020000004152740444848005           CESSCARTS                   12                              
10120241219B33      29734522876                   000020000004152740444848005           CESSEFET27-JUN-23           12                              
10120241219B33      29734522876                   000020000004152740444848005           CRD SCOR0000000000          12                              
10120241219B33      29734522876                   000020000004152740444848005           CS_AMIG 310                 12                              
10120241219B33      29734522876                   000020000004152740444848005           DESF    0                   12                              
10120241219B33      29734522876                   000020000004152740444848005           DIG CPF 22                  12                              
10120241219B33      29734522876                   000020000004152740444848005           DT IN RE16072015            12                              
10120241219B33      29734522876                   000020000004152740444848005           DT INIB 03/04/2015          12                              
10120241219B33      29734522876                   000020000004152740444848005           DTA CONC13/01/2012          12                              
10120241219B33      29734522876                   000020000004152740444848005           DTVENCTO1607                12                              
10120241219B33      29734522876                   000020000004152740444848005           FLAG TARBRANCO              12                              
10120241219B33      29734522876                   000020000004152740444848005           FPD     NAO                 12                              
10120241219B33      29734522876                   000020000004152740444848005           GR PRODU00002000            12                              
10120241219B33      29734522876                   000020000004152740444848005           MDA     0076                12                              
10120241219B33      29734522876                   000020000004152740444848005           NAT OCUP13                  12                              
10120241219B33      29734522876                   000020000004152740444848005           PCTCONTA001                 12                              
10120241219B33      29734522876                   000020000004152740444848005           PROMO   P2                  12                              
10120241219B33      29734522876                   000020000004152740444848005           QT SAQUE001                 12                              
10120241219B33      29734522876                   000020000004152740444848005           QT_QUEBR0                   12                              
10120241219B33      29734522876                   000020000004152740444848005           RDGCPF6752                  12                              
10120241219B33      29734522876                   000020000004152740444848005           RENDA   0,00                12                              
10120241219B33      29734522876                   000020000004152740444848005           RIS ESTA0003                12                              
10120241219B33      29734522876                   000020000004152740444848005           SALDO_PL0                   12                              
10120241219B33      29734522876                   000020000004152740444848005           SDTOTCTA35859               12                              
10120241219B33      29734522876                   000020000004152740444848005           SLD_BAND397                 12                              
10120241219B33      29734522876                   000020000004152740444848005           SLD_DCAP0                   12                              
10120241219B33      29734522876                   000020000004152740444848005           SLD_MASS0                   12                              
10120241219B33      29734522876                   000020000004152740444848005           SLD_OUTR0                   12                              
10120241219B33      29734522876                   000020000004152740444848005           SLD_PARC35462               12                              
10120241219B33      29734522876                   000020000004152740444848005           STA INIB7                   12                              
10120241219B33      29734522876                   000020000004152740444848005           TBNEGOC 214                 12                              
10120241219B33      29734522876                   000020000004152740444848005           TRN_INIBS                   12                              
10120241219B33      29734522876                                                         CL_SCORE4                   11                              
10120241219B33      29734522876                                                         DISTRI_XX                   11                              
10120241219B33      29734522876                                                         ENRIQUECS                   11                              
10120241219B33      29734522876                                                         FASECLI L                   11                              
10120241219B33      29734522876                                                         RDG_CPF 52                  11                              
10120241219B33      29734522876                                                         RISC TOT39702,24            11                              
10120241219B33      29734522876                                                         SALD TOT39702,24            11                              
10120241219B33      29734522876                                                         VALR MIN2734,21             11                              
10120241219B33      30255886837                   000010000004121770016091005           % LIM PA00000000            12                              
10120241219B33      30255886837                   000010000004121770016091005           % LIM RO00000000            12                              
10120241219B33      30255886837                   000010000004121770016091005           BHV SCOR0000000000000000060012                              
10120241219B33      30255886837                   000010000004121770016091005           BLOQ1   BRANCO              12                              
10120241219B33      30255886837                   000010000004121770016091005           BLOQ2   K                   12                              
10120241219B33      30255886837                   000010000004121770016091005           CESSCARTS                   12                              
10120241219B33      30255886837                   000010000004121770016091005           CESSEFET12/12/2022          12                              
10120241219B33      30255886837                   000010000004121770016091005           CRD SCOR0000000000          12                              
10120241219B33      30255886837                   000010000004121770016091005           CS_AMIG 0                   12                              
10120241219B33      30255886837                   000010000004121770016091005           DESF    0                   12                              
10120241219B33      30255886837                   000010000004121770016091005           DIG CPF 86                  12                              
10120241219B33      30255886837                   000010000004121770016091005           DT IN RE20122010            12                              
10120241219B33      30255886837                   000010000004121770016091005           DT INIB 23/01/2011          12                              
10120241219B33      30255886837                   000010000004121770016091005           DTA CONC30/06/2008          12                              
10120241219B33      30255886837                   000010000004121770016091005           DTVENCTO2012                12                              
10120241219B33      30255886837                   000010000004121770016091005           FASE    H                   12                              
10120241219B33      30255886837                   000010000004121770016091005           FLAG TARBRANCO              12                              
10120241219B33      30255886837                   000010000004121770016091005           FPD     NAO                 12                              
10120241219B33      30255886837                   000010000004121770016091005           GR PRODU00001000            12                              
10120241219B33      30255886837                   000010000004121770016091005           MDA     1696                12                              
10120241219B33      30255886837                   000010000004121770016091005           NAT OCUP02                  12                              
10120241219B33      30255886837                   000010000004121770016091005           PCTCONTA001                 12                              
10120241219B33      30255886837                   000010000004121770016091005           PROMO   P3                  12                              
10120241219B33      30255886837                   000010000004121770016091005           QT SAQUE000                 12                              
10120241219B33      30255886837                   000010000004121770016091005           QT_QUEBR1                   12                              
10120241219B33      30255886837                   000010000004121770016091005           RDGCPF6788                  12                              
10120241219B33      30255886837                   000010000004121770016091005           RENDA   0,00                12                              
10120241219B33      30255886837                   000010000004121770016091005           RIS ESTA0004                12                              
10120241219B33      30255886837                   000010000004121770016091005           SALDO_PL0                   12                              
10120241219B33      30255886837                   000010000004121770016091005           SDTOTCTA1916                12                              
10120241219B33      30255886837                   000010000004121770016091005           SLD_BAND1892                12                              
10120241219B33      30255886837                   000010000004121770016091005           SLD_DCAP0                   12                              
10120241219B33      30255886837                   000010000004121770016091005           SLD_MASS0                   12                              
10120241219B33      30255886837                   000010000004121770016091005           SLD_OUTR24                  12                              
10120241219B33      30255886837                   000010000004121770016091005           SLD_PARC0                   12                              
10120241219B33      30255886837                   000010000004121770016091005           STA INIB7                   12                              
10120241219B33      30255886837                   000010000004121770016091005           TBNEGOC 214                 12                              
10120241219B33      30255886837                   000010000004121770016091005           TRN_INIBS                   12                              
10120241219B33      30255886837                                                         CL_SCORE2                   11                              
10120241219B33      30255886837                                                         DISTRI_XX                   11                              
10120241219B33      30255886837                                                         ENRIQUECS                   11                              
10120241219B33      30255886837                                                         FASECLI L                   11                              
10120241219B33      30255886837                                                         RDG_CPF 88                  11                              
10120241219B33      30255886837                                                         RISC TOT1915,90             11                              
10120241219B33      30255886837                                                         SALD TOT1915,90             11                              
10120241219B33      30255886837                                                         VALR MIN1915,90             11                              
10120241219B33      30313213836                   002010000005363800345000007           % LIM PA00000000            12                              
10120241219B33      30313213836                   002010000005363800345000007           % LIM RO00000000            12                              
10120241219B33      30313213836                   002010000005363800345000007           BHV SCOR0000000000000000000012                              
10120241219B33      30313213836                   002010000005363800345000007           BLOQ1   BRANCO              12                              
10120241219B33      30313213836                   002010000005363800345000007           BLOQ2   K                   12                              
10120241219B33      30313213836                   002010000005363800345000007           CESSCARTS                   12                              
10120241219B33      30313213836                   002010000005363800345000007           CESSEFET27-JUN-23           12                              
10120241219B33      30313213836                   002010000005363800345000007           CRD SCOR0000000000          12                              
10120241219B33      30313213836                   002010000005363800345000007           CS_AMIG 0                   12                              
10120241219B33      30313213836                   002010000005363800345000007           DESF    0                   12                              
10120241219B33      30313213836                   002010000005363800345000007           DIG CPF 13                  12                              
10120241219B33      30313213836                   002010000005363800345000007           DT INIB 27/08/2018          12                              
10120241219B33      30313213836                   002010000005363800345000007           DTA CONC30/04/2018          12                              
10120241219B33      30313213836                   002010000005363800345000007           DTVENCTO1506                12                              
10120241219B33      30313213836                   002010000005363800345000007           FLAG TARBRANCO              12                              
10120241219B33      30313213836                   002010000005363800345000007           FPD     NAO                 12                              
10120241219B33      30313213836                   002010000005363800345000007           FXBSGOON1                   12                              
10120241219B33      30313213836                   002010000005363800345000007           GR PRODU00201000            12                              
10120241219B33      30313213836                   002010000005363800345000007           MDA     0361                12                              
10120241219B33      30313213836                   002010000005363800345000007           NAT OCUP02                  12                              
10120241219B33      30313213836                   002010000005363800345000007           PAG_CNABN                   12                              
10120241219B33      30313213836                   002010000005363800345000007           PCTCONTA001                 12                              
10120241219B33      30313213836                   002010000005363800345000007           PROMO   P3                  12                              
10120241219B33      30313213836                   002010000005363800345000007           QT SAQUE000                 12                              
10120241219B33      30313213836                   002010000005363800345000007           QTACORDO21                  12                              
10120241219B33      30313213836                   002010000005363800345000007           RDGCPF6721                  12                              
10120241219B33      30313213836                   002010000005363800345000007           RENDA   0,00                12                              
10120241219B33      30313213836                   002010000005363800345000007           RIS ESTA0003                12                              
10120241219B33      30313213836                   002010000005363800345000007           SALDOPL 1948                12                              
10120241219B33      30313213836                   002010000005363800345000007           SDTOTCTA4582                12                              
10120241219B33      30313213836                   002010000005363800345000007           SLD_DCAP4582                12                              
10120241219B33      30313213836                   002010000005363800345000007           SLD_NEGA2635                12                              
10120241219B33      30313213836                   002010000005363800345000007           STA INIB7                   12                              
10120241219B33      30313213836                   002010000005363800345000007           TBNEGOC 211                 12                              
10120241219B33      30313213836                   002010000005363800345000007           TRN_INIBS                   12                              
10120241219B33      30313213836                                                         CL_SCORE10                  11                              
10120241219B33      30313213836                                                         ENRIQUECS                   11                              
10120241219B33      30313213836                                                         FASECLI H                   11                              
10120241219B33      30313213836                                                         RDG_CPF 21                  11                              
10120241219B33      30313213836                                                         RISC TOT4582,38             11                              
10120241219B33      30313213836                                                         SALD TOT4582,38             11                              
10120241219B33      30313213836                                                         VALR MIN4582,38             11                              
10120241219B33      30319444880                   000030000004152750143887006           % LIM PA00000000            12                              
10120241219B33      30319444880                   000030000004152750143887006           % LIM RO00000000            12                              
10120241219B33      30319444880                   000030000004152750143887006           BHV SCOR0000000000000000130012                              
10120241219B33      30319444880                   000030000004152750143887006           BLOQ1   BRANCO              12                              
10120241219B33      30319444880                   000030000004152750143887006           BLOQ2   K                   12                              
10120241219B33      30319444880                   000030000004152750143887006           CESSCARTS                   12                              
10120241219B33      30319444880                   000030000004152750143887006           CESSEFET12/12/2022          12                              
10120241219B33      30319444880                   000030000004152750143887006           CRD SCOR0000000000          12                              
10120241219B33      30319444880                   000030000004152750143887006           CS_AMIG 190                 12                              
10120241219B33      30319444880                   000030000004152750143887006           DESF    0                   12                              
10120241219B33      30319444880                   000030000004152750143887006           DIG CPF 44                  12                              
10120241219B33      30319444880                   000030000004152750143887006           DT INIB 07/08/2019          12                              
10120241219B33      30319444880                   000030000004152750143887006           DTA CONC30/08/2012          12                              
10120241219B33      30319444880                   000030000004152750143887006           DTVENCTO2805                12                              
10120241219B33      30319444880                   000030000004152750143887006           FLAG TARBRANCO              12                              
10120241219B33      30319444880                   000030000004152750143887006           FPD     NAO                 12                              
10120241219B33      30319444880                   000030000004152750143887006           FXBSGOON1                   12                              
10120241219B33      30319444880                   000030000004152750143887006           GR PRODU00003000            12                              
10120241219B33      30319444880                   000030000004152750143887006           MDA     0360                12                              
10120241219B33      30319444880                   000030000004152750143887006           NAT OCUP13                  12                              
10120241219B33      30319444880                   000030000004152750143887006           PAG_CNABN                   12                              
10120241219B33      30319444880                   000030000004152750143887006           PCTCONTA001                 12                              
10120241219B33      30319444880                   000030000004152750143887006           PROMO   P5                  12                              
10120241219B33      30319444880                   000030000004152750143887006           QT SAQUE000                 12                              
10120241219B33      30319444880                   000030000004152750143887006           RDGCPF6744                  12                              
10120241219B33      30319444880                   000030000004152750143887006           RENDA   0,00                12                              
10120241219B33      30319444880                   000030000004152750143887006           RIS ESTA0003                12                              
10120241219B33      30319444880                   000030000004152750143887006           SALDOPL 263                 12                              
10120241219B33      30319444880                   000030000004152750143887006           SDTOTCTA85630               12                              
10120241219B33      30319444880                   000030000004152750143887006           SLD_DCAP85630               12                              
10120241219B33      30319444880                   000030000004152750143887006           SLD_NEGA85630               12                              
10120241219B33      30319444880                   000030000004152750143887006           STA INIB7                   12                              
10120241219B33      30319444880                   000030000004152750143887006           TBNEGOC 208                 12                              
10120241219B33      30319444880                   000030000004152750143887006           TRN_INIBS                   12                              
10120241219B33      30319444880                                                         CL_SCORE6                   11                              
10120241219B33      30319444880                                                         ENRIQUECS                   11                              
10120241219B33      30319444880                                                         FASECLI E                   11                              
10120241219B33      30319444880                                                         FXBS_SCR6                   11                              
10120241219B33      30319444880                                                         FX_PROP MEDIA               11                              
10120241219B33      30319444880                                                         RDG_CPF 44                  11                              
10120241219B33      30319444880                                                         RISC TOT85630,42            11                              
10120241219B33      30319444880                                                         SALD TOT85630,42            11                              
10120241219B33      30319444880                                                         VALR MIN85630,42            11                              
10120241219B33      30520652894                   000030000004152750146814007           % LIM PA00000000            12                              
10120241219B33      30520652894                   000030000004152750146814007           % LIM RO00000000            12                              
10120241219B33      30520652894                   000030000004152750146814007           BHV SCOR0000000000000000020012                              
10120241219B33      30520652894                   000030000004152750146814007           BLOQ1   BRANCO              12                              
