001202411142024111400000082
1012024111415       021130021179                  100023830042   OTAVIO DECIO SANTOS                          19781017                                                                                                                                                                                                                                                                                                                                                                                                                                       R SAO SIMAO                                       186                                                         BOM JESUS                PORTO ALEGRE           RS91420560                                                                                          OUTRAS                        R SAO SIMAO                                              186                                                  BOM JESUS                PORTO ALEGRE           RS91420560                            NPE                                          2023121120520331                                                                                                                                                                                                                                                                       MS0347325929                  000000000000000000        00000000R51993648256         993648256           993648256           OTAVIOD.SANTOS@GMAIL.COM                                    
1012024111415       021550001501                  136827986845   LUCAS FRIAS ZANONI                           19870907                                                                                                                                                                                                                                                                                                                                                                                                                                       R FLORIANO PEIXOTO                                3268      AP 83                                             JD SONTAG                SALTO                  SP13322150                                                                                                                        R FLORIANO PEIXOTO                                      3268                                                  JD SONTAG                SALTO                  SP13322150                            NPE                                          2023041120520331                                                                                                                                                                                                                                                                       MO34.983.151                  000000000000000000        00000000R11942652374         953038549           933485943           LUCASZANONI@GMAIL.COM                                       
1012024111415       030120055707                  108400050754   NILCEA DA CRUZ FACCO                         19580316                                                                                                                                                                                                                                                                                                                                                                                                                                       R ARISTIDES CAMPOS                                SN        LT19 QD17                                         MIRIAMBI                 SAO GONCALO            RJ24731150                                                                                          OUTRAS                        R ARISTIDES CAMPOS                                        SNLT19 QD17                                         MIRIAMBI                 SAO GONCALO            RJ247311502127454874          0       NPE                                          2022110520520319                                                                                                                                                                                                                                                                       FS062561022                   000000000000000000        00000000R21988359810         997320699           966613258           DIEGOFREIRE107@ICLOUD.COM                                   
1012024111415       035900010819                  114595678703   LORENA TEIXEIRA PINTO BEZERRA                19950608                                                                                                                                                                                                                                                                                                                                                                                                                                       R NUNCIO MAREFOSIQUI                              220       AP201                                             REALENGO                 RIO DE JANEIRO         RJ2174503011931969593         MMAP DO BRASIL                                                        GERENTE - TODAS               AV ATOR JOSE WILKER                                      600LJ 262                                            JACAREPAGUA              RIO DE JANEIRO         RJ22775024                            NPE                                          2023041120520331                                                                                                                                                                                                                                                                       FS222645368                   000000000000000000        00000000R21990244444         990244444           931969593           LOOHTTEIXEIRA@GMAIL.COM                                     
1012024111415       021980013620                  102372074865   OSVALDO VICENTE DE SOUSA                     19500816                                                                                                                                                                                                                                                                                                                                                                                                                                       R MANOEL PEREIRA MIL HOMENS                       230                                                         PARAISO                  ARACATUBA              SP16050173                                                                                                                                                                                                                                                                                                                            NPE                                          2022122620520319                                                                                                                                                                                                                                                                       MO4659014                     000000000000000000        00000000R997817048           996380678           991012106           ADRIELE.PIMENTA@PORTOSEGURO.COM.BR                          
1012024111415       053460000968                  199968100200   SAMARA LOUISE AMARAL MARQUES                 19890108                                                                                                                                                                                                                                                                                                                                                                                                                                       RUA OLIVEIRA FONSECA                              351       APT 708B                                          CAMPO GRANDE             RECIFE                 PE52040250                    NAO INFORMADO                                                         EMPRESARIO                    RUA OLIVEIRA FONSECA                                     351APT 708B                                          CAMPO GRANDE             RECIFE                 PE52040250                            NPE                                          2024051020520331                                                                                                                                                                                                                                                                       MS                            000000000000000000        00000000R                    998371883           998371883           SAMARALOUISE8@HOTMAIL.COM                                   
1012024111415       003640015131                  130237429870   JOSEFA CARDOSO DE SOUZA SILVA                19640319                                                                                                                                                                                                                                                                                                                                                                                                                                       RUA ANTONIO SERAFINO FERNANDES                    76                                                          VILA BELEM               CAFELANDIA             SP165000001437370853                                                                                OUTRAS                        RUA ANTONIO SERAFIM FERNANDES                             76                                                  VILA BELEM               CAFELANDIA             SP16500000                            NPE                                          2022110520520319                                                                                                                                                                                                                                                                       FC338148036                   000000000000000000        00000000R14997183160         998045532           14998045532         SIMONEE.RAMOS123FER@GMAIL.COM                               
1012024111415       026090009824                  112846659419   RAMON ROBERT CORREIA DO NASCIMENTO           20010120                                                                                                                                                                                                                                                                                                                                                                                                                                       R 17-A                                            68                                                          PETROPOLIS               MACEIO                 AL57062657                                                                                          OUTRAS                        R 17-A                                                    68                                                  PETROPOLIS               MACEIO                 AL57062657                            NPE                                          2023052920520319                                                                                                                                                                                                                                                                       MS0745560790                  000000000000000000        00000000R82987451080         999104651           40045215                                                                        
1012024111415       033010004117                  122324220890   ISRAEL CARLOS GOMES                          19810408                                                                                                                                                                                                                                                                                                                                                                                                                                       R JOAO AUGUSTO DA SILVEIRA                        20        CASA                                              VILA YOLANDA             OSASCO                 SP06124290                                                                                          EMPRESARIO                                                                                                                                                                                            1136099020                  NPE                                          2023051520520319                                                                                                                                                                                                                                                                       MS0534557802                  000000000000000000        00000000R11980350990         997277427           980350990           ISRAELGOME@GMAIL.COM                                        
1012024111415       035900016617                  108025226611   GABRIEL SANTOS CUNHA                         19960826                                                                                                                                                                                                                                                                                                                                                                                                                                       R VICOSA DO CEARA                                 105       APTO62                                            VILA MASCOTE             SAO PAULO              SP04363090                                                                                          GERENTE - TODAS               R VICOSA DO CEARA                                        105                                                  VILA MASCOTE             SAO PAULO              SP04363090                            NPE                                          2024061020520331                                                                                                                                                                                                                                                                       MS                            000000000000000000        00000000R                    998308014           37998043932         GABRIEL4515@HOTMAIL.COM                                     
1012024111415       037220000007                  140858589800   CAIO PEREIRA LIMA                            19930214                                                                                                                                                                                                                                                                                                                                                                                                                                       TV TULIO QUINTILIANO                              178       CASA                                              JARDIM RAPOSO TAVARES    SAO PAULO              SP05563000                                                                                          OUTRAS                        TV TULIO QUINTILIANO                                     178CASA                                              JARDIM RAPOSO TAVARES    SAO PAULO              SP05563000                            NPE                                          2022120720520319                                                                                                                                                                                                                                                                       MS49110755                    000000000000000000        00000000R11992884400         11910055260         11910055260         CAIO_LORENA@OUTLOOK.COM                                     
1012024111415       050340000507                  116834222000140SEJA S A E C DE SEGUROS LTDA                                                                                                                                                                                                                                                                                                                                                                                                                                                                                                                                                                                                                                350100703332133829                                                                                                              AV BRASIL                                               3943                                                  CENTRO                   GOVERNADOR VALADARES   MG350100703330253030                  NPE                                          2023021020520331                                                                                                                                                                                                                                                                        O                            000000000000000000        00000000R33988028000         999858881           988208881           ADMINISTRATIVO@SOLUTUS.COM.BR                               
1012024111415       032340003380                  102720482404   ERICA CELI MARTINS VASCONCELOS               19780414                                                                                                                                                                                                                                                                                                                                                                                                                                       R LUIZA BEZERRA MOTTA                             460       APT 103                                           CATOLE                   CAMPINA GRANDE         PB58410410                                                                                          EMPRESARIO                    AV ASSIS CHATEAUBRIAND                                   478                                                  LIBERDADE                CAMPINA GRANDE         PB58414060                            NPE                                          2022120720520319                                                                                                                                                                                                                                                                       FS0072433998                  000000000000000000        00000000R8330003264          999710427           987244999           VIDMETAL_@HOTMAIL.COM                                       
1012024111415       038720004073                  105863687878   JOSE EDVALDO ALVES DE SOUSA                  19600830                                                                                                                                                                                                                                                                                                                                                                                                                                       R JOAQUIM PEREIRA DOS SANTOS                      306       CASA 1                                            VILA ASSIS BRASIL        MAUA                   SP09360660                    NAO INFORMADO                                                                                                                                                                                                                                                                                           NPE                                          2024022920520324                                                                                                                                                                                                                                                                       MS                            000000000000000000        00000000R11959187119         959187119           1145444321          FERNANDADIAS_SOUSA@HOTMAIL.COM                              
1012024111415       038720001167                  101351021540   VALDIRO RAMOS ROCHA                          19810727                                                                                                                                                                                                                                                                                                                                                                                                                                       R FORTE DO CALVARIO                               326                                                         JARDIM VILA FORMOSA      SAO PAULO              SP03470005                                                                                          OUTRAS                        R FORTE DO CALVARIO                                      326                                                  JARDIM VILA FORMOSA      SAO PAULO              SP03470005                            NPE                                          2022121320520331                                                                                                                                                                                                                                                                       MS11957106                    000000000000000000        00000000R75982887413         999797345           974721882           DIOGOMANUJULIA@GMAIL.COM                                    
1012024111415       038720004980                  157963851434   LUCIENE BARBOSA LOURENCO                     19650818                                                                                                                                                                                                                                                                                                                                                                                                                                       R JOAO BATISTA MALIO                              15                                                          JARDIM SENICE            SAO PAULO              SP08141126                                                                                          OUTRAS                        R JOAO BATISTA MALIO                                      15                                                  JARDIM SENICE            SAO PAULO              SP08141126                            NPE                                          2024090920520331                                                                                                                                                                                                                                                                       FS30705424                    000000000000000000        00000000R                    970495713           947280957                                                                       
1012024111415       027360005405                  103981518306   JOSE ARILDO DE SOUZA JUNIOR                  19881026                                                                                                                                                                                                                                                                                                                                                                                                                                       ANTONIO SALES                                     14                                                          MALEITAS                 PARACURU               CE62680000                    BOTTINO E FERREIRA HOTEIS E RE                                                                      MARLIN AZUL                                             1061                                                  RUA                      AQUIRAZ                CE61700000                            NPE                                          2023072820520319                                                                                                                                                                                                                                                                       MS2006005283                  000000000000000000        00000000R85999913508         987137203           987137203           JRSOUZAFC@GMAIL.COM                                         
1012024111415       032720000342                  105300779148   BRUNO AMORIM CARVALHO                        19960207                                                                                                                                                                                                                                                                                                                                                                                                                                       QUADRA 02 CJ B1 BLOCO A                           206                                                         SOBRADINHO               BRASILIA               DF73015227                    RCS TECNOLOGIA LTDA                                                   GERENTE - TODAS               CJ SAAN QUADRA                                            SN                                                  ZONA INDUSTRIAL          BRASILIA               DF70632300                            NPE                                          2023041120520331                                                                                                                                                                                                                                                                       MO3350418                     000000000000000000        00000000R987812121           996474415           982760042           BRUNO_AMORIMMM@HOTMAIL.COM                                  
1012024111415       034960005400                  132936385890   KARINA DA SILVA PEREIRA ELIAS                19860221                                                                                                                                                                                                                                                                                                                                                                                                                                       R EURACHIO MAURICIO                               444                                                         PARQUE SAO MIGUEL        GUARULHOS              SP07260070                    CROSSRACER DO BRASIL LTDA                                             GERENTE - TODAS               R ESTRELA DO OESTE                                       124                                                  JARDIM SAO GERALDO       GUARULHOS              SP07140030                            NPE                                          2023031020520331                                                                                                                                                                                                                                                                       FS456556746                   000000000000000000        00000000R11969334466         992845875           11966380440         ANAGUIEKA@YAHOO.COM.BR                                      
1012024111415       038720003834                  131484654072   ANTONES CORREA DA SILVA                      19591124                                                                                                                                                                                                                                                                                                                                                                                                                                       R ANTONIO THOME PEREIRA                           110       TRAVESSA 2                                        METROPOL                 CRICIUMA               SC88819100                    TRANSPORTES R L G LTDA                                                GERENTE - TODAS               EST CABIRUVA                                              SN                                                  CABIRUVA                 PAVERAMA               RS95865000                            NPE                                          2023112020520331                                                                                                                                                                                                                                                                       MS0063454272                  000000000000000000        00000000R996061128           34113670            34113670            CRISTIANBARALANA@GMAIL.COM                                  
1012024111415       039690000235                  186456130930   ADRIANA APARECIDA MUNHOZ CUNHA               19711014                                                                                                                                                                                                                                                                                                                                                                                                                                       R JOAO JOSE ZATTAR                                416       CASA                                              JARDIM DAS AMERICAS      CURITIBA               PR81540340                                                                                          OUTRAS                        R JOAO JOSE ZATTAR                                       416CASA                                              JARDIM DAS AMERICAS      CURITIBA               PR81540340                            NPE                                          2024061020520331                                                                                                                                                                                                                                                                       FS                            000000000000000000        00000000R997748966           999647309           4135984441                                                                      
1012024111415       025950073374                  169793476249   SAIDI MARIANO CONCEICAO DE SOUSA             19820808                                                                                                                                                                                                                                                                                                                                                                                                                                       CJ ALDO ALMEIDA                                   1         ACAPU QD E                                        TAPANA ICOARACI          BELEM                  PA66830090                                                                                          OUTRAS                        CJ ALDO ALMEIDA                                            1ACAPU QD E                                        TAPANA ICOARACI          BELEM                  PA66830090                            NPE                                          2023081020520331                                                                                                                                                                                                                                                                       MS6979347624                  000000000000000000        00000000R987233349           984534344           984534344           SAIDISOUSA_8@HOTMAIL.COM                                    
1012024111415       036200004397                  103190752575   CLODOALDO NASCIMENTO JUNIOR                  19880531                                                                                                                                                                                                                                                                                                                                                                                                                                       ROD JORGE AMADO                                   93        PARQUE UNIVERSI                                   SALOBRINHO               ILHEUS                 BA45662200                    SP COMERCIAL DISTRIBUIDOR                                             EMPRESARIO                    R NARCISO STURLINI                                        62SALA 1105                                         CENTRO                   OSASCO                 SP06018090                            NPE                                          2023050320520319                                                                                                                                                                                                                                                                       MS1135004161                  000000000000000000        00000000R73988337409         999632368           999632368           JUNIORN.COMPRAS@GMAIL.COM                                   
1012024111415       050060001243                  103008990177   JOANA D ARKE VIEIRA DE ANDRADE               19870621                                                                                                                                                                                                                                                                                                                                                                                                                                       QR CONJUNTO B                                     17                                                          SANTA MARIA              BRASILIA               DF72545402                    NENHUMA                                                               GERENTE - TODAS               QR  CONJUNTO B                                            17                                                  SANTA MARIA              BRASILIA               DF72545402                            NPE                                          2024031520520331                                                                                                                                                                                                                                                                       MS2476331                     000000000000000000        00000000R991902241           994354899           993272744           DARKE884@GMAIL.COM                                          
1012024111415       027560004144                  136042426818   RUDYENS SOUZA MENEZES                        19861016                                                                                                                                                                                                                                                                                                                                                                                                                                       R: CÂNDIDO DAS NEVES                              286                                                         VILA ESTER               SÃO JOSÉ DOS CAMPOS    SP122616901239293346                                                                                OUTRAS                        R CANDIDO DAS NEVES                                      286                                                  VILA ESTER               SAO JOSE DOS CAMPOS    SP12221690                            NPE                                          2022110520520319                                                                                                                                                                                                                                                                       MS441009347                   000000000000000000        00000000R12988654618         981755015           981755015           DENISEROSOSJC10@GMAIL.COM                                   
1012024111415       030120056180                  112524710769   MAX DIEGO BERNARDO DOS ANJOS                 19870521                                                                                                                                                                                                                                                                                                                                                                                                                                       R ITACARE                                         SN        LT 6 QD L                                         VILA SAO JOAO            SAO JOAO DE MERITI     RJ255604802139037593          SKY SERVICES                                                          GERENTE - TODAS               AV AUTOMOVEL CLUBE                                      2100                                                  CENTRO                   SAO JOAO DE MERITI     RJ25515126                            NPE                                          2022120120520319                                                                                                                                                                                                                                                                       MS222112211                   000000000000000000        00000000R21990475306         991594499           2137521142          HECTORBERNARDO1992@GMAIL.COM                                
1012024111415       038720000636                  199593483500   TAIZA BRANDAO DA SILVA                       19800911                                                                                                                                                                                                                                                                                                                                                                                                                                       AV VANDERLEI CARVALHO                             60        V MAIS II I03                                     PEDRA DO DESCANSO        FEIRA DE SANTANA       BA44007204                                                                                          OUTRAS                        AV VANDERLEI CARVALHO                                     60V MAIS II I03                                     PEDRA DO DESCANSO        FEIRA DE SANTANA       BA44007204                            NPE                                          2023021020520331                                                                                                                                                                                                                                                                       FS703198475                   000000000000000000        00000000R75988079100         988079100           7536039565                                                                      
1012024111415       038720001880                  160298790149   CLELIA CLARA FERNANDES GONCALVES             19690918                                                                                                                                                                                                                                                                                                                                                                                                                                       Q QNM                                             6         23 CJ A                                           CEILANDIA SUL CEILANDIA  BRASILIA               DF72215231                    SECRETARIA DE ESTADO DE EDUCAC                                        GERENTE - TODAS               Q EQS                                                     17DEFENSORIA                                        ASA SUL                  BRASILIA               DF70297400                            NPE                                          2023021420520319                                                                                                                                                                                                                                                                       FS5873576                     000000000000000000        00000000R82988589342         982871476           61985430651                                                                     
1012024111415       050080000410                  130471623873   DIEGO PAULO CAVALCANTE DE ANDRADE            19820827                                                                                                                                                                                                                                                                                                                                                                                                                                       R PICINGUABA                                      54                                                          VL STA ISABEL            SAO PAULO              SP034320001135396844                                                                                SOCIO                         R PICINGUABA                                              54                                                  VL STA ISABEL            SAO PAULO              SP03432000                            NPE                                          2022110520520319                                                                                                                                                                                                                                                                       MO44984579                    000000000000000000        00000000R11985197483         985197483           11949952670         DIEGOPAULO1910@HOTMAIL.COM                                  
10120241114Q5       003640015131                  14988073431                 CELULAR                       
10120241114Q5       003640015131                  14988162970                 CELULAR                       
10120241114Q5       003640015131                  14998045532                 OUTROS                        
10120241114Q5       021130021179                  5132731311                  RECADO                        
10120241114Q5       026090009824                  82987451080                 CELULAR                       
10120241114Q5       027360005405                  85999913508                 CELULAR                       
10120241114Q5       027560004144                  12981755015                 CELULAR                       
10120241114Q5       027560004144                  12988505853                 CELULAR                       
10120241114Q5       030120055707                  2127454874          0       COMERCIAL                     
10120241114Q5       030120055707                  21966613258                 CELULAR                       
10120241114Q5       030120055707                  970156050                   OUTROS                        
10120241114Q5       030120056180                  21977263340                 CELULAR                       
10120241114Q5       030120056180                  2199159449                  OUTROS                        
10120241114Q5       032340003380                  83988084297                 CELULAR                       
10120241114Q5       033010004117                  1136099020                  COMERCIAL                     
10120241114Q5       034960005400                  969334466                   OUTROS                        
10120241114Q5       034960005400                  992845875                   OUTROS                        
10120241114Q5       035900010819                  974101648                   OUTROS                        
10120241114Q5       037220000007                  948418146                   OUTROS                        
10120241114Q5       038720000636                  7536039565                  OUTROS                        
10120241114Q5       038720001167                  981513532                   OUTROS                        
10120241114Q5       038720001167                  982888418                   OUTROS                        
10120241114Q5       038720001880                  982871476                   OUTROS                        
10120241114Q5       038720004073                  930781347                   OUTROS                        
10120241114Q5       050080000410                  11949952670                 OUTROS                        
10120241114Q5       050080000410                  11981969947                 OUTROS                        
10120241114Q5       050340000507                  3332133829                  RESIDENCIAL                   
10120241114Q5       003640015131                  14996201853                 CELULAR                       
10120241114Q5       003640015131                  988073431                   OUTROS                        
10120241114Q5       021130021179                  993648256                   OUTROS                        
10120241114Q5       021980013620                  997817048                   CELULAR                       
10120241114Q5       025950073374                  91984534344                 CELULAR                       
10120241114Q5       027360005405                  987137203                   OUTROS                        
10120241114Q5       030120056180                  21990475306                 CELULAR                       
10120241114Q5       032340003380                  8330003264                  CELULAR                       
10120241114Q5       032340003380                  83987244999         0       CELULAR                       
10120241114Q5       032720000342                  987812121                   CELULAR                       
10120241114Q5       032720000342                  996474415                   OUTROS                        
10120241114Q5       035900010819                  11931969593                 RESIDENCIAL                   
10120241114Q5       035900016617                  998308014                   OUTROS                        
10120241114Q5       038720003834                  48996554606                 CELULAR                       
10120241114Q5       050060001243                  61993272744         0       CELULAR                       
10120241114Q5       053460000968                  998371883                   OUTROS                        
10120241114Q5       021550001501                  11933485943                 CELULAR                       
10120241114Q5       027360005405                  85987137203                 CELULAR                       
10120241114Q5       027560004144                  12997091883                 CELULAR                       
10120241114Q5       027560004144                  981755015                   OUTROS                        
10120241114Q5       030120055707                  21970156050                 CELULAR                       
10120241114Q5       030120055707                  971269045                   OUTROS                        
10120241114Q5       030120055707                  982863354                   OUTROS                        
10120241114Q5       030120055707                  996664241                   OUTROS                        
10120241114Q5       030120055707                  997320699                   OUTROS                        
10120241114Q5       032340003380                  996861676                   OUTROS                        
10120241114Q5       033010004117                  11980350990                 CELULAR                       
10120241114Q5       034960005400                  966380440                   OUTROS                        
10120241114Q5       036200004397                  999632368                   OUTROS                        
10120241114Q5       038720000636                  75988079100                 CELULAR                       
10120241114Q5       038720000636                  988079100                   OUTROS                        
10120241114Q5       038720003834                  998536424                   OUTROS                        
10120241114Q5       038720003834                  998605504                   OUTROS                        
10120241114Q5       038720004980                  1140045215                  RECADO                        
10120241114Q5       038720004980                  970495713                   OUTROS                        
10120241114Q5       050340000507                  999858881                   OUTROS                        
10120241114Q5       003640015131                  998045532                   OUTROS                        
10120241114Q5       021550001501                  11942652374                 CELULAR                       
10120241114Q5       021550001501                  942652374                   OUTROS                        
10120241114Q5       021550001501                  953038549                   OUTROS                        
10120241114Q5       021980013620                  18991012106         0       CELULAR                       
10120241114Q5       025950073374                  984534344                   OUTROS                        
10120241114Q5       026090009824                  82998308395                 OUTROS                        
10120241114Q5       027560004144                  12988654618                 CELULAR                       
10120241114Q5       030120055707                  21971269045                 CELULAR                       
10120241114Q5       030120055707                  21988359810                 CELULAR                       
10120241114Q5       030120056180                  21966741580                 OUTROS                        
10120241114Q5       030120056180                  21991022008                 OUTROS                        
10120241114Q5       032340003380                  987244999                   OUTROS                        
10120241114Q5       032340003380                  999710427                   OUTROS                        
10120241114Q5       035900010819                  990244444                   OUTROS                        
10120241114Q5       037220000007                  11910055260                 OUTROS                        
10120241114Q5       037220000007                  948417655                   OUTROS                        
10120241114Q5       037220000007                  952822871                   OUTROS                        
10120241114Q5       037220000007                  963579793                   OUTROS                        
10120241114Q5       038720001880                  61985430651                 OUTROS                        
10120241114Q5       038720003834                  991937845                   CELULAR                       
10120241114Q5       039690000235                  4135984441                  OUTROS                        
10120241114Q5       039690000235                  997748966                   CELULAR                       
10120241114Q5       050080000410                  11985197483                 CELULAR                       
10120241114Q5       050340000507                  3332133827                  RESIDENCIAL                   
10120241114Q5       050340000507                  33988338881         ALEXANDRCELULAR                       
10120241114Q5       021980013620                  18996380678         0       CELULAR                       
10120241114Q5       027560004144                  12988259212                 CELULAR                       
10120241114Q5       027560004144                  12991206590                 CELULAR                       
10120241114Q5       032340003380                  988084297                   OUTROS                        
10120241114Q5       033010004117                  11978872266                 BLOQUEADO                     
10120241114Q5       034960005400                  979709748                   OUTROS                        
10120241114Q5       035900016617                  1140045215                  RECADO                        
10120241114Q5       035900016617                  998244887                   OUTROS                        
10120241114Q5       037220000007                  11948417655         0       CELULAR                       
10120241114Q5       037220000007                  948345269                   OUTROS                        
10120241114Q5       038720001167                  982887413                   OUTROS                        
10120241114Q5       038720001167                  999797345                   OUTROS                        
10120241114Q5       038720001880                  61992723666                 CELULAR                       
10120241114Q5       038720003834                  996061128                   CELULAR                       
10120241114Q5       039690000235                  999647309                   OUTROS                        
10120241114Q5       050060001243                  994354899                   OUTROS                        
10120241114Q5       050080000410                  985197483                   OUTROS                        
10120241114Q5       050340000507                  3330253030                  COMERCIAL                     
10120241114Q5       050340000507                  33999858881                 CELULAR                       
10120241114Q5       003640015131                  1437370853                  RESIDENCIAL                   
10120241114Q5       021980013620                  991012106                   OUTROS                        
10120241114Q5       021980013620                  996184672                   OUTROS                        
10120241114Q5       027360005405                  85998801150                 CELULAR                       
10120241114Q5       027560004144                  12988240981                 CELULAR                       
10120241114Q5       030120056180                  2137521142                  OUTROS                        
10120241114Q5       030120056180                  2139037593                  RESIDENCIAL                   
10120241114Q5       030120056180                  991594499                   OUTROS                        
10120241114Q5       032720000342                  982760042                   OUTROS                        
10120241114Q5       033010004117                  997277427                   OUTROS                        
10120241114Q5       034960005400                  11966380440                 OUTROS                        
10120241114Q5       035900010819                  931969593                   OUTROS                        
10120241114Q5       035900016617                  11993560101                 RECADO                        
10120241114Q5       036200004397                  11999300860         0       CELULAR                       
10120241114Q5       037220000007                  952822971                   OUTROS                        
10120241114Q5       038720001167                  981323634                   OUTROS                        
10120241114Q5       038720001167                  983524782                   OUTROS                        
10120241114Q5       038720003834                  996554606                   OUTROS                        
10120241114Q5       038720004073                  1140045215                  RECADO                        
10120241114Q5       038720004073                  1145444321                  OUTROS                        
10120241114Q5       039690000235                  41999241677                 CELULAR                       
10120241114Q5       050060001243                  991902241                   CELULAR                       
10120241114Q5       050080000410                  1135396844                  RESIDENCIAL                   
10120241114Q5       050340000507                  988208881                   OUTROS                        
10120241114Q5       003640015131                  14997183160                 CELULAR                       
10120241114Q5       003640015131                  997183160                   OUTROS                        
10120241114Q5       021980013620                  996380678                   OUTROS                        
10120241114Q5       026090009824                  40045215                    OUTROS                        
10120241114Q5       026090009824                  82999104651                 OUTROS                        
10120241114Q5       026090009824                  987451080                   OUTROS                        
10120241114Q5       026090009824                  999104651                   OUTROS                        
10120241114Q5       027360005405                  85987090613                 RECADO                        
10120241114Q5       030120055707                  21982863354                 CELULAR                       
10120241114Q5       030120055707                  985598229                   OUTROS                        
10120241114Q5       030120056180                  21991594499                 OUTROS                        
10120241114Q5       033010004117                  1140045215                  RECADO                        
10120241114Q5       035900010819                  21966708248         0       CELULAR                       
10120241114Q5       035900016617                  37998043932                 OUTROS                        
10120241114Q5       037220000007                  992884400                   OUTROS                        
10120241114Q5       038720001167                  75982887413                 CELULAR                       
10120241114Q5       038720001167                  974721882                   OUTROS                        
10120241114Q5       038720001167                  977181046                   OUTROS                        
10120241114Q5       038720001167                  983579559                   OUTROS                        
10120241114Q5       038720004073                  11959187119         0       CELULAR                       
10120241114Q5       038720004073                  959187119                   OUTROS                        
10120241114Q5       038720004980                  11970495713                 RECADO                        
10120241114Q5       038720004980                  947280957                   OUTROS                        
10120241114Q5       039690000235                  1140045215                  RECADO                        
10120241114Q5       050340000507                  33988028000                 CELULAR                       
10120241114Q5       053460000968                  81998371883                 RECADO                        
10120241114Q5       003640015131                  988162970                   OUTROS                        
10120241114Q5       021130021179                  51993648256                 CELULAR                       
10120241114Q5       021550001501                  933485943                   OUTROS                        
10120241114Q5       025950073374                  987233349                   CELULAR                       
10120241114Q5       026090009824                  1140045215                  RECADO                        
10120241114Q5       027560004144                  1239293346                  RESIDENCIAL                   
10120241114Q5       030120055707                  966613258                   OUTROS                        
10120241114Q5       030120055707                  988359810                   OUTROS                        
10120241114Q5       030120056180                  21993288685                 OUTROS                        
10120241114Q5       030120056180                  990475306                   OUTROS                        
10120241114Q5       032340003380                  988847844                   OUTROS                        
10120241114Q5       032720000342                  61982760042                 CELULAR                       
10120241114Q5       032720000342                  61996474415                 CELULAR                       
10120241114Q5       033010004117                  980350990                   OUTROS                        
10120241114Q5       033010004117                  988625331                   OUTROS                        
10120241114Q5       034960005400                  11969334466         0       CELULAR                       
10120241114Q5       035900010819                  21990244444                 CELULAR                       
10120241114Q5       035900010819                  966708248                   OUTROS                        
10120241114Q5       035900016617                  988055685                   OUTROS                        
10120241114Q5       035900016617                  993560101                   OUTROS                        
10120241114Q5       036200004397                  73988337409         0       CELULAR                       
10120241114Q5       037220000007                  11992884400                 CELULAR                       
10120241114Q5       038720001880                  74981236444                 OUTROS                        
10120241114Q5       038720001880                  82988589342                 CELULAR                       
10120241114Q5       038720003834                  34113670                    OUTROS                        
10120241114Q5       038720003834                  48998605504                 CELULAR                       
10120241114Q5       039690000235                  41999647309                 CELULAR                       
10120241114Q5       050060001243                  993272744                   OUTROS                        
1012024111425       021550001501                  CSPF    021550001501                  02155   AUTOMEC INDAIAT                                                                                   02147   FISAN ADM DE BENS E                          00000000058202080000000000000000000020230209048         1                                                                                                                                                                                                                                                                                                                                                                                                                                                                                                                                                                                                            000000000000019224                                                                                                 
1012024111425       035900010819                  REFF    035900010819                  03590   REGIONAL SAO PA                                                                                   03590   REGIONAL SAO PAULO                           00000000011228000000000000000000000020221129024         1                                                                                                                                                                                                                                                                                                                                                                                                                                                                                                                                                                                                            000000000000025479                                                                                                 
1012024111425       038720001167                  FSEG    038720001167                  03872   NOVACAO COBRANC                                                                                   03872   NOVACAO COBRANCA CON                         00000000017039050000000000000000000020220809048         1                                                                                                                                                                                                                                                                                                                                                                                                                                                                                                                                                                                                            000000000000018700                                                                                                 
1012024111425       032340003380                  FCDC    032340003380                  03234   CORRESPONDENTE                                                                                    03234   CORRESPONDENTE PARAI                         00000000069308500000000000000000000020220504048         1                                                                                                                                                                                                                                                                                                                                                                                                                                                                                                                                                                                                            000000000000019777                                                                                                 
1012024111425       027360005405                  CSPF    027360005405                  02736   YELLOW MOUNTAIN                                                                                   02736   YELLOW MOUNTAIN DIST                         00000000089913550000000000000000000020230627060         1                                                                                                                                                                                                                                                                                                                                                                                                                                                                                                                                                                                                            000000000000019623                                                                                                 
1012024111425       038720001880                  FSEG    038720001880                  03872   NOVACAO COBRANC                                                                                   03872   NOVACAO COBRANCA CON                         00000000088127060000000000000000000020230112048         1                                                                                                                                                                                                                                                                                                                                                                                                                                                                                                                                                                                                            000000000000009900                                                                                                 
1012024111425       050300002204                  REFF    050300002204                  05030   CORRESPONDENTE                                                                                    05030   CORRESPONDENTE SUCUR                         00000000008235730000000000000000000020230712036         3                                                                                                                                                                                                                                                                                                                                                                                                                                                                                                                                                                                                            000000000000035933                                                                                                 
1012024111425       037220000007                  ESPF    037220000007                  03722   PEDRO AUGUSTO D                                                                                   03301   CORRESPONDENTE OSASC                         00000000032568660000000000000000000020201228060         1                                                                                                                                                                                                                                                                                                                                                                                                                                                                                                                                                                                                            000000000000021207                                                                                                 
1012024111425       030120055707                  PARF    030120055707                  03012   CORRESPONDENTE                                                                                    03012   CORRESPONDENTE RIO D                         00000000032271870000000000000000000020210427060         1                                                                                                                                                                                                                                                                                                                                                                                                                                                                                                                                                                                                            000000000000016735                                                                                                 
1012024111425       021130021179                  REFF    021130021179                  02113   PORTOSUL - RS                                                                                     02113   PORTOSUL - RS                                00000000014096290000000000000000000020220810036         1                                                                                                                                                                                                                                                                                                                                                                                                                                                                                                                                                                                                            000000000000022270                                                                                                 
1012024111425       026090009824                  PARF    026090009824                  02609   CORRESPONDENTE                                                                                    02609   CORRESPONDENTE  ALAG                         00000000017387600000000000000000000020210928048         1                                                                                                                                                                                                                                                                                                                                                                                                                                                                                                                                                                                                            000000000000012033                                                                                                 
1012024111425       027560004144                  PARF    027560004144                  02756   CORRESPONDENTE                                                                                    02756   CORRESPONDENTE TAUBA                         00000000019027740000000000000000000020200921036         1                                                                                                                                                                                                                                                                                                                                                                                                                                                                                                                                                                                                            000000000000020624                                                                                                 
1012024111425       035900016617                  FCDC    035900016617                  03590   REGIONAL SAO PA                                                                                   03590   REGIONAL SAO PAULO                           00000000234319230000000000000000000020240510060         1                                                                                                                                                                                                                                                                                                                                                                                                                                                                                                                                                                                                            000000000000019165                                                                                                 
1012024111425       033010004117                  FCDC    033010004117                  03301   CORRESPONDENTE                                                                                    03301   CORRESPONDENTE OSASC                         00000000070450250000000000000000000020221215048         1                                                                                                                                                                                                                                                                                                                                                                                                                                                                                                                                                                                                            000000000000018063                                                                                                 
1012024111425       050080000410                  REFF    050080000410                  05008   SUCURSAL SAO PA                                                                                   05008   SUCURSAL SAO PAULO                           00000000027891760000000000000000000020211215048         1                                                                                                                                                                                                                                                                                                                                                                                                                                                                                                                                                                                                            000000000000022324                                                                                                 
1012024111425       003640015131                  PARF    003640015131                  00364   REGIONAL - SAO                                                                                    00364   REGIONAL - SAO JOSE                          00000000006706130000000000000000000020190711060         1                                                                                                                                                                                                                                                                                                                                                                                                                                                                                                                                                                                                            000000000000017700                                                                                                 
1012024111425       030120056180                  PARF    030120056180                  03012   CORRESPONDENTE                                                                                    03012   CORRESPONDENTE RIO D                         00000000017124210000000000000000000020210429048         1                                                                                                                                                                                                                                                                                                                                                                                                                                                                                                                                                                                                            000000000000013259                                                                                                 
1012024111425       021980013620                  REFF    021980013620                  02198   CORRESP.  PRESI                                                                                   02198   CORRESP.  PRESIDENTE                         00000000020659960000000000000000000020221123024         1                                                                                                                                                                                                                                                                                                                                                                                                                                                                                                                                                                                                            000000000000023092                                                                                                 
1012024111425       038720000636                  FSEG    038720000636                  03872   NOVACAO COBRANC                                                                                   03872   NOVACAO COBRANCA CON                         00000000010495930000000000000000000020220513048         1                                                                                                                                                                                                                                                                                                                                                                                                                                                                                                                                                                                                            000000000000015500                                                                                                 
1012024111425       036200004397                  REFF    036200004397                  03620   CORRESP. VITORI                                                                                   03620   CORRESP. VITORIA DA                          00000000090897400000000000000000000020221209048         1                                                                                                                                                                                                                                                                                                                                                                                                                                                                                                                                                                                                            000000000000021886                                                                                                 
1012024111425       038720003834                  FSEG    038720003834                  03872   NOVACAO COBRANC                                                                                   03872   NOVACAO COBRANCA CON                         00000000015899920000000000000000000020231017022         1                                                                                                                                                                                                                                                                                                                                                                                                                                                                                                                                                                                                            000000000000017500                                                                                                 
1012024111425       050340000507                  REFJ    050340000507                  05034   CORRESP. LESTE                                                                                    05034   CORRESP. LESTE DE MG                         00000000050322230000000000000000000020230109048         1                                                                                                                                                                                                                                                                                                                                                                                                                                                                                                                                                                                                            000000000000021900                                                                                                 
1012024111425       053460000968                  REFF    053460000968                  05346   CORRESP. PERNAM                                                                                   05346   CORRESP. PERNAMBUCO                          00000000015564190000000000000000000020240408036         1                                                                                                                                                                                                                                                                                                                                                                                                                                                                                                                                                                                                            000000000000020341                                                                                                 
1012024111425       038720004073                  FSEG    038720004073                  03872   NOVACAO COBRANC                                                                                   03872   NOVACAO COBRANCA CON                         00000000018080380000000000000000000020231212015         1                                                                                                                                                                                                                                                                                                                                                                                                                                                                                                                                                                                                            000000000000018100                                                                                                 
1012024111425       025950073374                  REFF    025950073374                  02595   CORRESPONDENTE                                                                                    02595   CORRESPONDENTE CREDI                         00000000031385640000000000000000000020230710036         1                                                                                                                                                                                                                                                                                                                                                                                                                                                                                                                                                                                                            000000000000021510                                                                                                 
1012024111425       050060001243                  REFF    050060001243                  05006   SUCURSAL CORPOR                                                                                   05006   SUCURSAL CORPORATE S                         00000000038901260000000000000000000020230904036         1                                                                                                                                                                                                                                                                                                                                                                                                                                                                                                                                                                                                            000000000000027555                                                                                                 
1012024111425       039690000235                  ESPF    039690000235                  03969   F. ROCHA EXCLUS                                                                                   03968   F ROCHA DE SOUZA COR                         00000000022229180000000000000000000020240510048         1                                                                                                                                                                                                                                                                                                                                                                                                                                                                                                                                                                                                            000000000000019943                                                                                                 
1012024111425       032720000342                  ESPF    032720000342                  03272   SMAFF BERLIM VE                                                                                   03282   SMAFF CORRETORA DE S                         00000000036886510000000000000000000020220909060         1                                                                                                                                                                                                                                                                                                                                                                                                                                                                                                                                                                                                            000000000000024529                                                                                                 
1012024111425       038720004980                  FSEG    038720004980                  03872   NOVACAO COBRANC                                                                                   03872   NOVACAO COBRANCA CON                         00000000028138610000000000000000000020240806024         1                                                                                                                                                                                                                                                                                                                                                                                                                                                                                                                                                                                                            000000000000011700                                                                                                 
1012024111425       038720001506                  FSEG    038720001506                  03872   NOVACAO COBRANC                                                                                   03872   NOVACAO COBRANCA CON                         00000000027310110000000000000000000020221214048         3                                                                                                                                                                                                                                                                                                                                                                                                                                                                                                                                                                                                            000000000000010000                                                                                                 
1012024111425       034960005400                  REFF    034960005400                  03496   CORRESPONDENTE                                                                                    03496   CORRESPONDENTE PENHA                         00000000031304330000000000000000000020221129036         1                                                                                                                                                                                                                                                                                                                                                                                                                                                                                                                                                                                                            000000000000021022                                                                                                 
1012024111435       003640015131                  PARF    003640015131                  2023061000000047                000000000005611900000000000007371900000000000000594900000000000000112200000000000000000000   060   1                             20230610                      
1012024111435       003640015131                  PARF    003640015131                  2023071000000048                000000000005611900000000000007216400000000000000538700000000000000112200000000000000000000   060   1                             20230710                      
1012024111435       003640015131                  PARF    003640015131                  2023081000000049                000000000005611900000000000007055800000000000000480800000000000000112200000000000000000000   060   1                             20230810                      
1012024111435       003640015131                  PARF    003640015131                  2023091000000050                000000000005611900000000000006895200000000000000422800000000000000112200000000000000000000   060   1                             20230910                      
1012024111435       003640015131                  PARF    003640015131                  2023101000000051                000000000005611900000000000006739700000000000000366600000000000000112200000000000000000000   060   1                             20231010                      
1012024111435       003640015131                  PARF    003640015131                  2023111000000052                000000000005611900000000000006579100000000000000308700000000000000112200000000000000000000   060   1                             20231110                      
1012024111435       003640015131                  PARF    003640015131                  2023121000000053                000000000005611900000000000006423600000000000000252500000000000000112200000000000000000000   060   1                             20231210                      
1012024111435       003640015131                  PARF    003640015131                  2024011000000054                000000000005611900000000000006262900000000000000194500000000000000112200000000000000000000   060   1                             20240110                      
1012024111435       003640015131                  PARF    003640015131                  2024021000000055                000000000005611900000000000006102400000000000000136600000000000000112200000000000000000000   060   1                             20240210                      
1012024111435       003640015131                  PARF    003640015131                  2024031000000056                000000000005611900000000000005952100000000000000082300000000000000112200000000000000000000   060   1                             20240310                      
1012024111435       003640015131                  PARF    003640015131                  2024041000000057                000000000005611900000000000005791400000000000000024300000000000000112200000000000000000000   060   1                             20240410                      
1012024111435       003640015131                  PARF    003640015131                  2024051000000058                000000000005611900000000000005557100000000000000000000000000000000000000000000000000000000   060   1                             20240510                      
1012024111435       003640015131                  PARF    003640015131                  2024061000000059                000000000005611900000000000005458700000000000000000000000000000000000000000000000000000000   060   1                             20240610                      
1012024111435       003640015131                  PARF    003640015131                  2024071000000060                000000000005611900000000000005365100000000000000000000000000000000000000000000000000000000   060   1                             20240710                      
