001202411142024111400000083
1012024111415       035170007632                  131349318850   RICARDO MARCIANO                             19810705                                                                                                                                                                                                                                                                                                                                                                                                                                       JOSE PEREIRA DE LIMA                              3         CASA 2                                            RECANTO CAMPO BELO       SAO PAULO              SP04880175                    NENHUMA                                                               EMPRESARIO                    JOSE PEREIRA DE LIMA                                       3CASA 2                                            RECANTO CAMPO BELO       SAO PAULO              SP04880175                            NPE                                          2024110820241207                                                                                                                                                                                                                                                                       MS                            000000000000000000        00000000R                                                                                                                        
1012024111415       032690033815                  108205381674   RODRIGO RODRIGUES SILVA                      19820305                                                                                                                                                                                                                                                                                                                                                                                                                                       PREFEITO ALBERTO MOURA                            1349      APTO 601 B                                        DISTRITO INDUSTRIAL      SETE LAGOAS            MG35702051                                                                                          EMPRESARIO                    PREFEITO ALBERTO MOURA                                  1349APTO 601 B                                        DISTRITO INDUSTRIAL      SETE LAGOAS            MG35702051                            NPE                                          2024110820241207                                                                                                                                                                                                                                                                       MS12131338                    000000000000000000        00000000R                                                                                                                        
1012024111415       055850000966                  136389795807   MARCEL CARVALHO PIMENTEL                     19870112                                                                                                                                                                                                                                                                                                                                                                                                                                       EDUARDO PEDRAZOLLI                                484                                                         VILA JOSE KALIL AUN      COSMOPOLIS             SP13150708                                                                                                                                                                                                                                                                                                                            NPE                                          2024110820241207                                                                                                                                                                                                                                                                       MO                            000000000000000000        00000000R                                                                                                                        
1012024111415       050320000984                  111910444677   DIOGO EVANIO DA SILVA CALADO                 19950613                                                                                                                                                                                                                                                                                                                                                                                                                                       R JOSE GUILHERME                                  364       AP 101 BL4                                        CENTRO                   OURO BRANCO            MG36490070                    FAGUNDES MINERACAO                                                    GERENTE - TODAS               R AGOSTINHO MEDICE                                        05                                                  CENTRO                   ITABIRITO              MG35450036                            NPE                                          2023010920241207                                                                                                                                                                                                                                                                       MSMG19604863                  000000000000000000        00000000R                    991338211           991338211                                                                       
1012024111415       032920003955                  116951572810   GEORGE ALBERTO GUIMARAES DE STEFANO          19751007                                                                                                                                                                                                                                                                                                                                                                                                                                       R ALMIRANTE TAMANDARE                             244       32                                                MACUCO                   SANTOS                 SP11015250                                                                                          OUTRAS                        R ALMIRANTE TAMANDARE                                    24432                                                MACUCO                   SANTOS                 SP11015250                            NPE                                          2023120420241203                                                                                                                                                                                                                                                                       MS265372483                   000000000000000000        00000000R                    997770770           974112339           GDESTEFANOG@GMAIL.COM                                       
1012024111415       036100001737                  139467372851   MARINA DIAS HERNANDES                        19900623                                                                                                                                                                                                                                                                                                                                                                                                                                       R SANTA MARIA GORETTI                             317       AP 12                                             UTINGA                   SANTO ANDRE            SP09220790                    BIZ TECNOLOGIA EM MEIOS DE PAG                                        GERENTE - TODAS               R FUNCHAL                                                203                                                  VILA OLIMPIA             SAO PAULO              SP04551060                            NPE                                          2023010920241207                                                                                                                                                                                                                                                                       FS436079424                   000000000000000000        00000000R11999799010         999799010           999799010           MARINA_HERNANDES@HOTMAIL.COM                                
1012024111415       025950050560                  178465362220   ISAQUEU SILVA COELHO                         19830418                                                                                                                                                                                                                                                                                                                                                                                                                                       AV RIO AMAZONAS                                   3336      CASA                                              ESTADOS                  FAZ.RIO GRANDE         PR83830488                                                                                          GERENTE - TODAS               AVENIDA RIO AMAZONAS                                    3336                                                  ESTADOS                  FAZENDA RIO GRANDE     PR83830469                            NPE                                          2023010920241207                                                                                                                                                                                                                                                                       MS13.428.460                  000000000000000000        00000000R41996987826         999104770           988990080           COELHOISAQUEU@GMAIL.COM                                     
1012024111415       035660023471                  107691731957   OSEIAS MACIEL QUEVEDO                        19921028                                                                                                                                                                                                                                                                                                                                                                                                                                       ARNALDO ROSA                                      210                                                         ERECHIM                  BALNEARIO ARROIO DO SILSC88914000                    N A                                                                   OUTRAS                        ARNALDO ROSA                                             210                                                  ERECHIM                  BALNEARIO ARROIO DO SILSC88914000                            NPE                                          2024040920241207                                                                                                                                                                                                                                                                       MS6971806                     000000000000000000        00000000R48996535018         998598404           991000752           PATYQUEVEDOEARIEL@GMAIL.COM                                 
1012024111415       036110002281                  104294324880   ELIZABETH HOLZHAUSEN DA MOTTA                19500713                                                                                                                                                                                                                                                                                                                                                                                                                                       EST RHODIA                                        15300     COMPL CASA 02                                     VL HOLLANDIA             CAMPINAS               SP13085000                                                                                          EMPRESARIO                    AV DOUTOR ROBERTO MOREIRA                               3700                                                  BETEL                    PAULINIA               SP13148150                            NPE                                          2023012320241124                                                                                                                                                                                                                                                                       FS5258593                     000000000000000000        00000000R19998270222         998270222           989351962           EHMOTTA@UOL.COM.BR                                          
1012024111415       022800022811                  100548302901   MORGANA SIRENA BERTO                         19730829                                                                                                                                                                                                                                                                                                                                                                                                                                       SEPS                                              712       LTC BLB AP411                                     A SUL                    BRASILIA               DF70390125                    NAO INFORMADO                                                         OUTRAS                        AV RIO BRANCO                                           1489                                                  CAMPOS ELISEOS           SAO PAULO              SP01295905                            NPE                                          2024021420241112                                                                                                                                                                                                                                                                       FS4757064                     000000000000000000        00000000R61996212252         996212252           996212252           MORGANASBERTO@HOTMAIL.COM                                   
1012024111415       027320010917                  105821558433   DIEGO TAUNAY RODRIGUES CARDOSO               19850923                                                                                                                                                                                                                                                                                                                                                                                                                                       AV MARIA LACERDA MONTENEGRO                       515                                                         NOVA PARNAMIRIM          PARNAMIRIM             RN59152600                                                                                          OUTRAS                        AV MARIA LACERDA MONTENEGRO                              515                                                  NOVA PARNAMIRIM          PARNAMIRIM             RN59152600                            NPE                                          2022110820241207                                                                                                                                                                                                                                                                       MS002210130                   000000000000000000        00000000R84999650114         999650114           999039978           DIEGOTAUNAY@HOTMAIL.COM                                     
1012024111415       030120092784                  112179285701   ISABELLE DE OLIVEIRA ALCANTARA               19930828                                                                                                                                                                                                                                                                                                                                                                                                                                       R DANIEL BARRETO DOS SANTOS                       11        CASA 6                                            VARGEM PEQUENA           RIO DE JANEIRO         RJ22783560                                                                                          OUTRAS                        R DANIEL BARRETO DOS SANTOS                               11CASA 6                                            VARGEM PEQUENA           RIO DE JANEIRO         RJ22783560                            NPE                                          2023011620241207                                                                                                                                                                                                                                                                       FS111327326                   000000000000000000        00000000R21996969667         996969667           21973030754         MEDVET.ISA@ICLOUD.COM                                       
1012024111415       021130026767                  102971803988   FRANCISCO JOSE MATTEI                        19801012                                                                                                                                                                                                                                                                                                                                                                                                                                       AV BRASILIA                                       5474      APTO 82 C                                         N MUNDO                  CURITIBA               PR81020010                                                                                                                                                                                                                                                                                                                            NPE                                          2024080520241203                                                                                                                                                                                                                                                                       MC75124465                    000000000000000000        00000000R                    984938868           984938868           FRANCISCO@GMAIL.COM                                         
1012024111415       031770004340                  104350948406   EDNALDO HELENO DA SILVA                      19810517                                                                                                                                                                                                                                                                                                                                                                                                                                       R SANTA JULIA                                     1417                                                        VILA DOS PESCADORES      CUBATAO                SP11531010                                                                                          APOSENTADO                                                                                                                                                                                                                        NPE                                          2024102920241127                                                                                                                                                                                                                                                                       MS7129691                     000000000000000000        00000000R                                                            FLAVIALIMA.0107@GMAIL.COM                                   
1012024111415       053160006687                  126410452810   FABIANA LEME DE SIQUEIRA                     19761011                                                                                                                                                                                                                                                                                                                                                                                                                                       AV ELIDIA PIRES DE SIQUEIRA                       186                                                         JARDIM LEBLON            JACAREI                SP12315451                                                                                          OUTRAS                        AV ELIDIA PIRES DE SIQUEIRA                              186                                                  JARDIM LEBLON            JACAREI                SP12315451                            NPE                                          2024110820241207                                                                                                                                                                                                                                                                       FS                            000000000000000000        00000000R                                                                                                                        
1012024111415       036100006046                  127166758805   DEBORA NONATO DA COSTA                       19790226                                                                                                                                                                                                                                                                                                                                                                                                                                       RIBEIRAO PONTE BAIXA                              7         CASA                                              PARQUE SANTO AMARO       SAO PAULO              SP04932160                    NENHUMA                                                               EMPRESARIO                    RIBEIRAO PONTE BAIXA                                       7CASA                                              PARQUE SANTO AMARO       SAO PAULO              SP04932160                            NPE                                          2024110820241207                                                                                                                                                                                                                                                                       MS                            000000000000000000        00000000R                                                                                                                        
1012024111415       035900017943                  187772795815   WALDELICE ZANGIROLAMO                        19500609                                                                                                                                                                                                                                                                                                                                                                                                                                       R COLOMBINA                                       143       AP 42                                             JD BONFIGLIOLI           SAO PAULO              SP05593010                                                                                                                                                                                                                                                                                                                            NPE                                          2024102420241207                                                                                                                                                                                                                                                                       FO                            000000000000000000        00000000R                    997965693           997101369           WALDELICEZ@GMAIL.COM                                        
1012024111415       050200000987                  101042210462   PAULA FERNANDA DE SANTANA DIAS               19810919                                                                                                                                                                                                                                                                                                                                                                                                                                       R CENTO E NOVENTA E SETE                          116                                                         CAETES I                 ABREU E LIMA           PE53530490                                                                                          OUTRAS                        R CENTO E NOVENTA E SETE                                 116                                                  CAETES I                 ABREU E LIMA           PE53530490                            NPE                                          2022110520241207                                                                                                                                                                                                                                                                       FS5928623                     000000000000000000        00000000R81987776577         988887580           986638989           FERNANDA.MARQUINHOS@HOTMAIL.COM                             
1012024111415       038720001063                  100556022157   FRANSCISCA ALVES DA CRUZ                     19700911                                                                                                                                                                                                                                                                                                                                                                                                                                       ESTRADA RURAL                                     SN        SITIO BOM JESUS                                   ZONA RURAL               NOVA LACERDA           MT78243000                    N A                                                                   GERENTE - TODAS               ESTRADA RURAL                                              0SITIO                                             ZONA RURAL               NOVA LACERDA           MT782430001140045215                  NPE                                          2023010920241207                                                                                                                                                                                                                                                                       FS13634887                    000000000000000000        00000000R65992326149         992326149           992326149                                                                       
1012024111415       027560006786                  142329305826   MATHEUS DA SILVA GARCIA                      19920228                                                                                                                                                                                                                                                                                                                                                                                                                                       RUA BENEDITO LINO                                 254                                                         FREI GALVAO              POTIM                  SP12525000                    HOTEL RAINHA DO BRASIL                                                GERENTE - TODAS               RUA ISSAC FERREIRA DA ENCARNACAO                         501                                                  PONTE ALTA               APARECIDA              SP125700001231041010                  NPE                                          2022121320241213                                                                                                                                                                                                                                                                       MS0607207102                  000000000000000000        00000000R12991913781         992042998           31041010            SOUSATHAIS827@GMAIL.COM                                     
1012024111415       034630001344                  198204947100   LEONEL BENITES                               19830516                                                                                                                                                                                                                                                                                                                                                                                                                                       R PACOTI                                          89                                                          JARDIM VIDA NOVA         CAMPO GRANDE           MS79017781                    M M MOVEIS INDUSTRIAIS                                                GERENTE - TODAS               R SANTO AUGUSTO                                         1226                                                  JARDIM VIDA NOVA         CAMPO GRANDE           MS79017778                            NPE                                          2023041120241207                                                                                                                                                                                                                                                                       MS1356403                     000000000000000000        00000000R67993344807         993344807           981094473           LEONELFORTES@HOTMAIL.COM                                    
1012024111415       038720002840                  154893500597   JOSE RAIMUNDO SOUZA DOS SANTOS               19691222                                                                                                                                                                                                                                                                                                                                                                                                                                       RUA BARAO DE COREGIPE                             01                                                          BAIXA DE AREIA           CONDE                  BA48003000                                                                                          GERENTE - TODAS               RUA BARAO DE COREGIPE                                     01                                                  BAIXA DE AREIA           CONDE                  BA48003000                            NPE                                          2023051520241217                                                                                                                                                                                                                                                                       MS0246285967                  000000000000000000        00000000R71981726078         999668225           981726078           GILSOUSA07@YAHOO.COM.BR                                     
1012024111415       021130025659                  149041010068   CHRISTINA BORDINI XAVIER                     19670608                                                                                                                                                                                                                                                                                                                                                                                                                                       R DELFIM MARIO PADUA PEIXOTO                      600       AP 602 T1                                         BALN STA CLARA           ITAJAI                 SC88306813                                                                                          OUTRAS                        INAIA                                                      5                                                  LOTEAMENTO ALPHAVILLE CAMCAMPINAS               SP13098333                            NPE                                          2024010920241207                                                                                                                                                                                                                                                                       MS9016814627                  000000000000000000        00000000R                    981631106           981631106           NHOCHRIS@GMAIL.COM                                          
1012024111415       050460002130                  166252326372   BENEDITA ALVES DE ABREU MARANHAO             19811223                                                                                                                                                                                                                                                                                                                                                                                                                                       R VINTE E NOVE DE FEVEREIRO                       505                                                         AGUA MINERAL             TERESINA               PI64006692                                                                                          OUTRAS                        R VINTE E NOVE DE FEVEREIRO                              505                                                  AGUA MINERAL             TERESINA               PI64006692                            NPE                                          2024010920241207                                                                                                                                                                                                                                                                       FS2036195                     000000000000000000        00000000R86988761347         995782484           988081948           BENEDITAARAUJO973@GMAIL.COM                                 
1012024111415       027120025889                  101944962875   JOSE BENEDITO DA ROSA                        19610328                                                                                                                                                                                                                                                                                                                                                                                                                                       R JOAQUIM ALVES CARDOSO                           45                                                          VISTA ALEGRE             CAMPOS DO JORDAO       SP12460000                    FORUM DE CAMPOS DO JORDAO                                             GERENTE - TODAS               AV DR JANUARIO MIRAGLIA                                 1200FORUM                                             ABERNESSIA               CAMPOS DO JORDAO       SP124609711236622120                  NPE                                          2022110520241207                                                                                                                                                                                                                                                                       MS0175091694                  000000000000000000        00000000R12997775423         997775423           997725179           LIRIODOCAMPO.VIDROS@GMAIL.COM                               
1012024111415       035160004896                  176246230300   DANNYNEIDE MARIA LOPES SILVA                 19760326                                                                                                                                                                                                                                                                                                                                                                                                                                       RUA GUSTAVO BARBOSA                               504       CASA                                              CENTRO                   CHAPADINHA             MA65500000                    PREFEITURA MUNICIPAL DE CHAPAD                                        GERENTE - TODAS               AV PRESIDENTE VARGAS                                     310                                                  CENTRO                   CHAPADINHA             MA65500000                            NPE                                          2023010920241207                                                                                                                                                                                                                                                                       FS0000545959                  000000000000000000        00000000R98991560393         992425212           9834714320          DANNYNEIDE16@GMAIL.COM                                      
1012024111415       211040044732                  100265892147   PABLO RORIZ CLEMENTE                         19800615                                                                                                                                                                                                                                                                                                                                                                                                                                       R JOSE GOMES DE PAULA                             160                                                         VILA SAO JORGE           ANAPOLIS               GO75044230                                                                                          OUTRAS                        R JOSE GOMES DE PAULA                                    160                                                  VILA SAO JORGE           ANAPOLIS               GO75044230                            NPE                                          2024040920241207                                                                                                                                                                                                                                                                       MS                            000000000000000000        00000000R                                                            PABLORORIZ@BOL.COM.BR                                       
1012024111415       053160001148                  103069037844   APARECIDA DE OLIVEIRA DA SILVA               19551204                                                                                                                                                                                                                                                                                                                                                                                                                                       R FREI INOCENCIO                                  88                                                          VILA IRACEMA             SAO JOSE DOS CAMPOS    SP12228150                                                                                          APOSENTADO                                                                                                                                                                                                                        NPE                                          2023010920241207                                                                                                                                                                                                                                                                       FS0433910713                  000000000000000000        00000000R12988887117         988887117           12981847490         ERK_CS@HOTMAIL.COM.BR                                       
1012024111415       038870000991                  126327796850   HIDEKI KATIKI                                19770824                                                                                                                                                                                                                                                                                                                                                                                                                                       DONA AVELINA                                      383                                                         VILA MARIANA             SAO PAULO              SP04111010                                                                                          OUTRAS                        DONA AVELINA                                             383                                                  VILA MARIANA             SAO PAULO              SP04111010                            NPE                                          2023102320241125                                                                                                                                                                                                                                                                       MS165133727                   000000000000000000        00000000R11974008190         993816897           974008190           TKATIKI@GMAIL.COM                                           
1012024111415       050270000401                  127810146807   ANA PAULA FONTES DO NASCIMENTO               19801118                                                                                                                                                                                                                                                                                                                                                                                                                                       R ENGENHEIRA AMALIA PEROLA CASSAB                 415       AP 104 BL1                                        PARQUE MUNHOZ            SAO PAULO              SP05782360                                                                                          GERENTE - TODAS               R ENGENHEIRA AMALIA PEROLA CASSAB                        415                                                  PARQUE MUNHOZ            SAO PAULO              SP05782360                            NPE                                          2024020820241207                                                                                                                                                                                                                                                                       FS0188509611                  000000000000000000        00000000R11980886133         980886133           980886133           ANA_FN@HOTMAIL.COM                                          
1012024111415       026810012818                  112592457801   JEFERSON ROBERTO BONATO                      19680405                                                                                                                                                                                                                                                                                                                                                                                                                                       ALAMEDA DAS ORQUIDEAS                             518                                                         PARANOA 2                PANORAMA               SP179800006732724705                                                                                EMPRESARIO                    WANDERLEIA CLAUDIA DE OLIVEIRA CUICE                      45NAO INFORMADO                                     PORTO BELLO RESIDENCE    PRESIDENTE PRUDENTE    SP19024431                            NPE                                          2023041120241207                                                                                                                                                                                                                                                                       MS19815529SS                  000000000000000000        00000000R67996794791         999871765           988185989           IRIDOLOGOJBONATO@GMAIL.COM                                  
1012024111415       036290008858                  106360773813   ENIO ALVES GARCIA                            19620926                                                                                                                                                                                                                                                                                                                                                                                                                                       R SANTA ANTILA                                    07                                                          CIDADE VARGAS            SAO PAULO              SP04319100                    NAO INFORMADO                                                         GERENTE - TODAS               R SANTA ANTILA                                            07                                                  CIDADE VARGAS            SAO PAULO              SP04319100                            NPE                                          2023100920241207                                                                                                                                                                                                                                                                       MS                            000000000000000000        00000000R987218867           999138537           934707861           ENEVICGARCIA@GMAIL.COM                                      
1012024111415       021130022637                  142475945087   MARIA FILOMENA DE SOUZA                      19610201                                                                                                                                                                                                                                                                                                                                                                                                                                       R FREDERICO OTAVIO DOMINGUES BARBOSA              50        504 B                                             SAO SEBASTIAO            PORTO ALEGRE           RS91060295                                                                                          APOSENTADO                                                                                                                                                                                                                        NPE                                          2023051520241218                                                                                                                                                                                                                                                                       FS0165000262                  000000000000000000        00000000R51991102246         991102246           33916253            MENA.SOUZA@GMAIL.COM                                        
1012024111415       027320007748                  105446779436   JACKSON LIMA DA SILVA                        19840613                                                                                                                                                                                                                                                                                                                                                                                                                                       R SAO LUIZ                                        16                                                          PAJUCARA                 NATAL                  RN59133381                                                                                          OUTRAS                        R SAO LUIZ                                                16                                                  PAJUCARA                 NATAL                  RN591333811140045215                  NPE                                          2023041120241207                                                                                                                                                                                                                                                                       MS2282045                     000000000000000000        00000000R84991278723                                                                                                             
1012024111415       038720003913                  106412082190   CECILLIA ANDRADE FERNANDES                   19991222                                                                                                                                                                                                                                                                                                                                                                                                                                       Q QN                                              8E        CASA 20                                           RIACHO FUNDO II          BRASILIA               DF71880166                    J. E. S COMERCIO DE MATERIAIS                                         GERENTE - TODAS               R ADE CONJUNTO                                            21LOJA 1                                            A D ECONOMICO A CLARAS   BRASILIA               DF71989600                            NPE                                          2024030820241207                                                                                                                                                                                                                                                                       FS3489231                     000000000000000000        00000000R                    992202587           985329028                                                                       
1012024111415       055470000461                  104472747910   MOACIR ABBA DE SOUZA FILHO                   19830219                                                                                                                                                                                                                                                                                                                                                                                                                                       R AMAZONAS                                        691       AP 54                                             AGUA VERDE               CURITIBA               PR80610030                                                                                          EMPRESARIO                    R AMAZONAS                                               691                                                  AGUA VERDE               CURITIBA               PR80610030                            NPE                                          2024070820241207                                                                                                                                                                                                                                                                       MS                            000000000000000000        00000000R                    41985058271         4132436333                                                                      
1012024111415       030910000101                  127918902890   JOAO CARLOS DE SOUZA MOREIRA JUNIOR          19781204                                                                                                                                                                                                                                                                                                                                                                                                                                       R SERRA DOS GRADAUS                               177                                                         JARDIM ROSEMARY          ITAPEVI                SP06657530                                                                                          OUTRAS                        R SERRA DOS GRADAUS                                      177                                                  JARDIM ROSEMARY          ITAPEVI                SP066575301140045215                  NPE                                          2023010920241207                                                                                                                                                                                                                                                                       MS323819011                   000000000000000000        00000000R11940629711                                                 ADRIMOREIRA177@GMAIL.COM                                    
1012024111415       055450000345                  181216246815   RITA CONCEICAO O LANZA COSTA MICHELIN        19540524                                                                                                                                                                                                                                                                                                                                                                                                                                       R MARQUES DE VALENCA                              399                                                         ALTO DA MOOCA            SAO PAULO              SP03182040                                                                                          APOSENTADO                                                                                                                                                                                                                        NPE                                          2024070820241207                                                                                                                                                                                                                                                                       FS                            000000000000000000        00000000R                                                                                                                        
1012024111415       030120092803                  151033712787   MONICA MARIA DE BARCELOS                     19590316                                                                                                                                                                                                                                                                                                                                                                                                                                       PC ADVOGADO HELENO CLAUDIO FRAGOSO                16        APT 202                                           BARRA DA TIJUCA          RIO DE JANEIRO         RJ22793078                                                                                          EMPRESARIO                    RUA QUINZE DE NOVEMBRO                                     8LJ 361                                            CENTRO                   NITEROI                RJ24020125                            NPE                                          2023020820241207                                                                                                                                                                                                                                                                       FS121698                      000000000000000000        00000000R21974041697         997506655           2124330215          ARRANJOSNIT5@GMAIL.COM                                      
1012024111415       035210004090                  134750380563   DANIEL JOSE DE SANTANA                       19650918                                                                                                                                                                                                                                                                                                                                                                                                                                       R CANDIDO FONTOURA                                575       401 D                                             JARDIM BOA VISTA ZONA OESSAO PAULO              SP05583070                                                                                          OUTRAS                        R CANDIDO FONTOURA                                       575401 D                                             JARDIM BOA VISTA ZONA OESSAO PAULO              SP05583070                            NPE                                          2022120820241207                                                                                                                                                                                                                                                                       MS0192654545                  000000000000000000        00000000R11940089844         940089844           940089844           DANIELJOSEDESANTANA@YAHOO.COM.BR                            
1012024111415       023620040310                  124840351953   JONATHAN RAYMUNDO BUDAL                      19550616                                                                                                                                                                                                                                                                                                                                                                                                                                       R PRIMEIRO DE MAIO                                251                                                         BOA VISTA                JOINVILLE              SC89206020                                                                                          OUTRAS                        R PRIMEIRO DE MAIO                                       251                                                  BOA VISTA                JOINVILLE              SC89206020                            NPE                                          2023081520241214                                                                                                                                                                                                                                                                       MS2484035195                  000000000000000000        00000000R47999369995         999713377           32073808            MCARMONIEHUES@HOTMAIL.COM                                   
1012024111415       049210000041                  119072865863   MARCO ANTONIO MACHADO                        19780312                                                                                                                                                                                                                                                                                                                                                                                                                                       R PALMAS                                          274                                                         LOTEAMENTO SERRA DOS CRISVARZEA PAULISTA        SP13227145                                                                                          OUTRAS                        R PALMAS                                                 274                                                  LOTEAMENTO SERRA DOS CRISVARZEA PAULISTA        SP13227145                            NPE                                          2023101020241207                                                                                                                                                                                                                                                                       MS                            000000000000000000        00000000R                    971859328           971859328           DEBORAC.SAVIO@GMAIL.COM                                     
1012024111415       021980015012                  101503557855   TEREZINHA APARECIDA SANTANA ZANOTI           19650127                                                                                                                                                                                                                                                                                                                                                                                                                                       RUA FLAUZINA LIBERATA DE JESUS                    771                                                         JARDIM PAULISTA          ASSIS                  SP19815020                                                                                          EMPRESARIO                    RUA FLAUZINA LIBERATA DE JESUS                           771                                                  JARDIM PAULISTA          ASSIS                  SP19815020                            NPE                                          2023090820241207                                                                                                                                                                                                                                                                       MS                            000000000000000000        00000000R                                                                                                                        
1012024111415       211040041897                  174789821820   ALDO PIRES DAMASCENO                         19520501                                                                                                                                                                                                                                                                                                                                                                                                                                       RUA 20                                            125                                                         JD TEIXEIRA              ORLANDIA               SP14620000                                                                                          OUTRAS                        RUA 20                                                   125                                                  JD TEIXEIRA              ORLANDIA               SP14620000                            NPE                                          2024061020241213                                                                                                                                                                                                                                                                       MS                            000000000000000000        00000000R                    999777666           1637262362          ECOSSTA00@HOTMAIL.COM                                       
1012024111415       055460000238                  193176279000   RENATA SOARES CAPAVERDE                      19740828                                                                                                                                                                                                                                                                                                                                                                                                                                       R ENGENHEIRO UBATUBA DE FARIA                     157                                                         SARANDI                  PORTO ALEGRE           RS91130070                                                                                          EMPRESARIO                    R ENGENHEIRO UBATUBA DE FARIA                            157                                                  SARANDI                  PORTO ALEGRE           RS91130070                            NPE                                          2024080820241207                                                                                                                                                                                                                                                                       FS                            000000000000000000        00000000R                    51999880847         51981352877                                                                     
1012024111415       000830036308                  190480546800   CARLOS ALBERTO MACHADO                       19550908                                                                                                                                                                                                                                                                                                                                                                                                                                       R GUILHERME JERONIMO KLOSTERNECHT                 42        AP 31 BL 2                                        JARDIM CAPELINHA         SAO PAULO              SP05850190                                                                                          APOSENTADO                                                                                                                                                                                                                        NPE                                          2023090820241207                                                                                                                                                                                                                                                                       MS77935865                    000000000000000000        00000000R11981947096         981947096           937784945           CAMACHADO2001@YAHOO.COM.BR                                  
1012024111415       036290001731                  101285202805   ANTONIO OLIVIERI NETO                        19590806                                                                                                                                                                                                                                                                                                                                                                                                                                       R DOMINGOS PIRES BRITO                            321       CASA                                              VILA CENTRAL             SAO PAULO              SP03262030                                                                                          APOSENTADO                                                                                                                                                                                                                        NPE                                          2023010920241207                                                                                                                                                                                                                                                                       MS77533392                    000000000000000000        00000000R997089318           994735949           947626886           BELOTTO1959@GMAIL.COM                                       
1012024111415       211040034971                  140782889875   RODOLFO SARTORI FERNANDES                    19921125                                                                                                                                                                                                                                                                                                                                                                                                                                       R JOAO FACCHINI                                   247                                                         PARQUE JATIBAIA SOUSAS   CAMPINAS               SP13104020                                                                                          OUTRAS                        R JOAO FACCHINI                                          247                                                  PARQUE JATIBAIA SOUSAS   CAMPINAS               SP13104020                            NPE                                          2023020820241207                                                                                                                                                                                                                                                                       MS0554938831                  000000000000000000        00000000R17997538175         997538175           997538175           RODOLFOSARTORI.CRIAR@GMAIL.COM                              
1012024111415       038360000584                  181570430187   MIRIAM DA SILVA SANTOS                       19760920                                                                                                                                                                                                                                                                                                                                                                                                                                       PC MONTE CASTELO                                  503                                                         MTE CASTELO              CAMPO GRANDE           MS79011541                                                                                                                        PC MONTE CASTELO                                         503                                                  MTE CASTELO              CAMPO GRANDE           MS79011541                            NPE                                          2023041120241207                                                                                                                                                                                                                                                                       FO988241                      000000000000000000        00000000R67999642266         999642266           992106876           MIR_APT@HOTMAIL.COM                                         
1012024111415       055020000101                  113111093824   EVANETE MARIA DE BRITO DELGADO               19660430                                                                                                                                                                                                                                                                                                                                                                                                                                       JORGE DE OLIVEIRA MARQUES                         748                                                         CENTRO                   GASTAO VIDIGAL         SP15330000                    NENHUMA                                                               GERENTE - TODAS               JORGE DE OLIVEIRA MARQUES                                748                                                  CENTRO                   GASTAO VIDIGAL         SP15330000                            NPE                                          2024070820241207                                                                                                                                                                                                                                                                       MS156232613                   000000000000000000        00000000R                                                                                                                        
1012024111415       053460001368                  106494610455   WENDER JOSE DE SOUSA                         19861003                                                                                                                                                                                                                                                                                                                                                                                                                                       R MARIA T DOURADO                                 31                                                          CAPIBARIBE               SAO LOURENCO DA MATA   PE54740640                                                                                          EMPRESARIO                    R MARIA T DOURADO                                         31                                                  CAPIBARIBE               SAO LOURENCO DA MATA   PE54740640                            NPE                                          2024070820241207                                                                                                                                                                                                                                                                       MS                            000000000000000000        00000000R                                                            WENDERJ.SOUSA@GMAIL.COM                                     
1012024111415       211570026040                  197756431553   JAVAN RODRIGUES DOS SANTOS                   19830127                                                                                                                                                                                                                                                                                                                                                                                                                                       5A AV BOA VISTA                                   555       BL 1304                                           BOA VISTA                VITORIA DA CONQUISTA   BA45026700                                                                                          EMPRESARIO                                                                                                                                                                                                                        NPE                                          2024070820241207                                                                                                                                                                                                                                                                       MS                            000000000000000000        00000000R                                                            JAVANRODRIGUES@ICLOUD.COM                                   
1012024111415       005200025526                  140147878934   PAULO GONCALVES DOS SANTOS                   19590502                                                                                                                                                                                                                                                                                                                                                                                                                                       R RUY FONSECA ITIBERE DA CUNHA                    671                                                         C INDUSTRIAL             CURITIBA               PR81170265                                                                                          APOSENTADO                                                                                                                                                                                                                        NPE                                          2022120820241207                                                                                                                                                                                                                                                                       MS300045211                   000000000000000000        00000000R41987142183         997408926           987142183                                                                       
1012024111415       035210001566                  138674993818   DIJALMA FIGUEIREDO DE SOUSA JUNIOR           19900530                                                                                                                                                                                                                                                                                                                                                                                                                                       R EUGENIO PRADEZ                                  264       CASA                                              JD PIRACUAMA             SAO PAULO              SP05763340                                                                                          GERENTE - TODAS               R GOMES DE CARVALHO                                     1005                                                  VILA OLIMPIA             SAO PAULO              SP045470011140045215                  NPE                                          2023011620241218                                                                                                                                                                                                                                                                       MS0445853640                  000000000000000000        00000000R11999090209         999090209           11978758066         DIJALMASOUSA.CONSULTOR@GMAIL.COM                            
1012024111415       021130020607                  103424746932   LUCAS MOREIRA MANSUR                         19810814                                                                                                                                                                                                                                                                                                                                                                                                                                       JULIETA MARON RAMOS                               375       1 ANDAR                                           SANTA RITA               ITAJUIPE               BA45630000                                                                                          OUTRAS                        JULIETA MARON RAMOS                                      375                                                  CENTRO                   ITAJUIPE               BA456300001140045215                  NPE                                          2024091620241218                                                                                                                                                                                                                                                                       MS0265112106                  000000000000000000        00000000R73991543318         991543318           991543318           LUMOMANSUR@GMAIL.COM                                        
1012024111415       027360006201                  101715407199   BRUNA FRANCIELLY MACIEL MELO                 19930608                                                                                                                                                                                                                                                                                                                                                                                                                                       SANTA CATARINA                                    151       QD 23D LOTE 05                                    SETOR PADRE ELIGIO       ITAUCU                 GO75450000                    CIC CONTABILIDADE                                                                                   RUA MIGUEL FREIRE                                         45                                                  CENTRO                   ITAUCU                 GO75450000                            NPE                                          2024010920241207                                                                                                                                                                                                                                                                       FS5.711.295                   000000000000000000        00000000R62991678654         991678654           991678654           CLEIA_CICCONTABILIDADE@HOTMAIL.COM                          
1012024111415       036280000368                  190865332800   CLAUDINEI HENRIQUE DOS SANTOS                19520422                                                                                                                                                                                                                                                                                                                                                                                                                                       R LUZIA HELLMEISTER JURADO                        42                                                          JARDIM SAINT MORITZ      TABOAO DA SERRA        SP06787620                                                                                          OUTRAS                        R LUZIA HELLMEISTER JURADO                                42                                                  JARDIM SAINT MORITZ      TABOAO DA SERRA        SP06787620                            NPE                                          2022110820241207                                                                                                                                                                                                                                                                       MS10500648                    000000000000000000        00000000R1140045215          984455895           40045215            MARIAAPP432@GMAIL.COM                                       
1012024111415       035210003964                  132191967809   MARINA VITORETTI BITTANCOURT                 19850904                                                                                                                                                                                                                                                                                                                                                                                                                                       R DECIO VILARES                                   41                                                          JD PAULISTA              GUARULHOS              SP07083191                                                                                          OUTRAS                        R DECIO VILARES                                           41                                                  JD PAULISTA              GUARULHOS              SP07083191                            NPE                                          2022121320241213                                                                                                                                                                                                                                                                       FS28132820                    000000000000000000        00000000R                    989613930           1124514377          MARINA@CFAMORIM.COM.BR                                      
1012024111415       038090000787                  102300529912   LUCIANE MONTEIRO AZEVEDO                     19790322                                                                                                                                                                                                                                                                                                                                                                                                                                       R MARECHAL FLORIANO PEIXOTO                       969       AP 01                                             TRIANON                  GUARAPUAVA             PR850122404236223496                                                                                GERENTE - TODAS               R MARECHAL FLORIANO PEIXOTO                              969                                                  TRIANON                  GUARAPUAVA             PR85012240                            NPE                                          2022120820241207                                                                                                                                                                                                                                                                       FS64845853                    000000000000000000        00000000R42999773381         999773381           36230500            LUMONTEIROAZEVEDO@GMAIL.COM                                 
1012024111415       036110002002                  129707787856   ROSANA GONCALVES SOTTILO                     19810516                                                                                                                                                                                                                                                                                                                                                                                                                                       R TITO                                            535       APTO 221C                                         VILA ROMANA              SAO PAULO              SP050510001136868539                                                                                EMPRESARIO                    AV DOUTOR ALBERTO JACKSON BYINGTON                      1777                                                  INDUSTRIAL ANHANGUERA    OSASCO                 SP06276000                            NPE                                          2023020820241207                                                                                                                                                                                                                                                                       FS290965755                   000000000000000000        00000000R11971588873         978029240           11978029240         RO.GONCALVESS@HOTMAIL.COM                                   
1012024111415       023790024748                  171495177149   GILVANILDA ARAUJO DE SOUSA                   19811029                                                                                                                                                                                                                                                                                                                                                                                                                                       QR                                                29        QR404 CJ 12 CS                                    S NORTE                  SAMAMBAIA              DF72318113                                                                                          SOCIO                                                                                                                                                                                                                             NPE                                          2024070820241207                                                                                                                                                                                                                                                                       FO2158569                     000000000000000000        00000000R                    999353907           985101362           GIL.SOUSA29@HOTMAIL.COM                                     
1012024111415       023570001458                  128719028873   FRANCISLEI CARLOS DE LIMA                    19810109                                                                                                                                                                                                                                                                                                                                                                                                                                       R CAETANO TEIXEIRA                                490                                                         JARDIM VIRGINIA BIANCA   SAO PAULO              SP02355270                                                                                          OUTRAS                        R CAETANO TEIXEIRA                                       490                                                  JARDIM VIRGINIA BIANCA   SAO PAULO              SP02355270                            NPE                                          2023041120241207                                                                                                                                                                                                                                                                       MS32547979                    000000000000000000        00000000R11947386052         988378230           947386052                                                                       
1012024111415       033010004016                  131797609823   ANDREIA SILVA PIMENTEL RODRIGUES             19821005                                                                                                                                                                                                                                                                                                                                                                                                                                       R BAIANOPOLIS                                     62                                                          JARDIM ANSALCA           GUARULHOS              SP072411201124129687          E.E. PROF. MARIA APARECIDA ROD                                        GERENTE - TODAS               R BERILO                                                  72                                                  CIDADE PARQUE BRASILIA   GUARULHOS              SP07243100                            NPE                                          2023021520241218                                                                                                                                                                                                                                                                       FS0408311127                  000000000000000000        00000000R11982927049         982927049           982927049           ANDREIA.PRDS@GMAIL.COM                                      
1012024111415       036280002469                  124846529843   ELISA MAXIMIANO DE OLIVEIRA VENTURI          19750818                                                                                                                                                                                                                                                                                                                                                                                                                                       R BRUNO VELOSO                                    257       APTO 2701                                         BOA VIAGEM               RECIFE                 PE51021280                                                                                          EMPRESARIO                                                                                                                                                                                                                        NPE                                          2023041120241207                                                                                                                                                                                                                                                                       FS0247929861                  000000000000000000        00000000R81982252712         982252712           982252712           ELISAVENTURI@TERRA.COM.BR                                   
1012024111415       027360003936                  137808166871   LUCIANO FERREIRA SCUDELER                    19870520                                                                                                                                                                                                                                                                                                                                                                                                                                       R SUICA                                           218                                                         JARDIM CELANI            SALTO                  SP13326140                                                                                                                                                                                                                                                                                                                            NPE                                          2022120820241207                                                                                                                                                                                                                                                                       MS409.321.18                  000000000000000000        00000000R11995344541         995344541           40214638            LFCENTRALDOGESSO@GMAIL.COM                                  
