001202412182024121800000111
1012024121815       050330000405                  108507148697   MARCIO VALERIO DA SILVA                      19830529                                                                                                                                                                                                                                                                                                                                                                                                                                       RUA SEBASTIAO BERNARDES                           20                                                          CENTRO                   LAGOA DOURADA          MG36345000                                                                                          EMPRESARIO                    RUA SEBASTIAO BERNARDES                                   20                                                  CENTRO                   LAGOA DOURADA          MG36345000                            NPE                                          2023111320520504                                                                                                                                                                                                                                                                       MSMG13553084                  000000000000000000        00000000R32999292905         999292905           999292905           MARCINHOSOMLD@GMAIL.COM                                     
1012024121815       025530003251                  115910834860   SEDIVALDO SILVA SANTOS                       19730609                                                                                                                                                                                                                                                                                                                                                                                                                                       AV JOSE DAVID DOS SANTOS                          1961                                                        SANTA RITA               TOBIAS BARRETO         SE493000001330213208                                                                                OUTRAS                        AV JOSE DAVID DOS SANTOS                                1965                                                  SANTA RITA               TOBIAS BARRETO         SE493000001333014451                  NPE                                          2022121320520319                                                                                                                                                                                                                                                                       MS0243368730                  000000000000000000        00000000R79996262038         13996764226         13996764226         SEDIVALDO46@GMAIL.COM                                       
1012024121815       050210003532                  107854407983   CARLOS FERNANDO MELO                         19930925                                                                                                                                                                                                                                                                                                                                                                                                                                       R VEREADOR ELSON RENATO DOS SANTOS                11        AP 102                                            NOSSA SENHORA DAS GRACAS NAVEGANTES             SC88371214                                                                                          OUTRAS                        R VEREADOR ELSON RENATO DOS SANTOS                        11AP 102                                            NOSSA SENHORA DAS GRACAS NAVEGANTES             SC88371214                            NPE                                          2024061020520504                                                                                                                                                                                                                                                                       MS                            000000000000000000        00000000R                    999700070           42984246123         CARLOSMELOPS@OUTLOOCK.COM                                   
1012024121815       211570023123                  184477547587   OSMAR DE SOUZA CRUZ                          19870810                                                                                                                                                                                                                                                                                                                                                                                                                                       PC AMADO BAHIA                                    74        CASA                                              CENTRO                   MATA DE SAO JOAO       BA48280000                                                                                          GERENTE - TODAS               AMADO BAHIA                                               74CASA  AN                                          CENTRO                   MATA DE SAO JOA        BA48280000                            NPE                                          2023110920520504                                                                                                                                                                                                                                                                       MS1140680625                  000000000000000000        00000000R                                                            OSMAR.S.CRUZ@GMAIL.COM                                      
1012024121815       023790019869                  101284857107   PAULO BOTTI CANDIOTA                         19871009                                                                                                                                                                                                                                                                                                                                                                                                                                       COND VILLAGE ALVORADA I                           16        RUA C                                             SETOR HABITACIONAL JARDIMBRASILIA               DF71680358                    ORLANDO E PAULO ADVOGADOS ASSO                                        ADVO                          COND VILLAGE ALVORADA I                                   16RUA C                                             SETOR HABITACIONAL JARDIMBRASILIA               DF71680358                            NPE                                          2022120720520319                                                                                                                                                                                                                                                                       MO2335936                     000000000000000000        00000000R61999792894         999792894           991078661           FELIPEDINIZ.V6@GMAIL.COM                                    
1012024121815       005390015000                  108160701640   ALEXANDRE BARBOSA DA SILVA                   19880808                                                                                                                                                                                                                                                                                                                                                                                                                                       R BUENOPOLIS                                      90                                                          FAZ CASTRO               RIBEIRAO DAS NEVES     MG33826027                                                                                                                                                                                                                                                                                                                            NPE                                          2023081520520504                                                                                                                                                                                                                                                                       MOMG7982494                   000000000000000000        00000000R31994498464         994498464           989129482           ALEXANDREBIRO1988@GMAIL.COM                                 
1012024121815       022800021074                  101565900189   GRACIELE HELENA RODRIGUES                    19850719                                                                                                                                                                                                                                                                                                                                                                                                                                       R HOLDRADO DA FONSECA                             601                                                         LOTEAMENTO SANTA TEREZINHCATALAO                GO75709490                                                                                          OUTRAS                        R HOLDRADO DA FONSECA                                    601                                                  LOTEAMENTO SANTA TEREZINHCATALAO                GO75709490                            NPE                                          2023051520520504                                                                                                                                                                                                                                                                       FS0156590018                  000000000000000000        00000000R64999479387         999479387           992406810           GRACIELEHR@HOTMAIL.COM                                      
1012024121815       032020013033                  126059797334   ANA MARIA CUSTODIO DIAS                      19670831                                                                                                                                                                                                                                                                                                                                                                                                                                       RUA JOSE DE ALENCAR                               32                                                          CENTRO                   ARNEIROZ               CE63670000                    06748297000154                                                        GERENTE - TODAS               RUA JOSE DE ALENCAR                                       15                                                  CENTRO                   ARNEIROZ               CE636700008834192024                  NPE                                          2022121420520504                                                                                                                                                                                                                                                                       FS0146262818                  000000000000000000        00000000R85999669072         999669072           996156258           DRA.ANAMARIACD@GMAIL.COM                                    
1012024121815       035160001325                  161043106308   ANDRE MIRANDA DE SA                          19990223                                                                                                                                                                                                                                                                                                                                                                                                                                       R CORONEL LISBOA                                  22                                                          VILA FIQUENE             IMPERATRIZ             MA65912600                                                                                          OUTRAS                        R CORONEL LISBOA                                          22                                                  VILA FIQUENE             IMPERATRIZ             MA659126001140045215                  NPE                                          2023031620520504                                                                                                                                                                                                                                                                       MS4441173201                  000000000000000000        00000000R99991070295         991070295           984663912                                                                       
1012024121815       038720004814                  136680403898   CARLOS HENRIQUE GOMES DE ALMEIDA             19880108                                                                                                                                                                                                                                                                                                                                                                                                                                       R GUARANI                                         18                                                          JARDIM BELA VISTA        GUARULHOS              SP07273480                                                                                          GERENTE - TODAS               R GUARANI                                                 18                                                  JARDIM BELA VISTA        GUARULHOS              SP07273480                            NPE                                          2024071520520504                                                                                                                                                                                                                                                                       MS560531862                   000000000000000000        00000000R33988921558         988921558           1124987043                                                                      
1012024121815       211570015013                  109568301534   GERALDO DEODATO DOS SANTOS                   19521115                                                                                                                                                                                                                                                          00000000                                                                                                                        INOCENCIA MARIA DA CONCEICAO                 R JERONIMO                                        18                                                          A BRANCA                 SALVADOR               BA41412340                                                                                                                                                                                                                                                                                        00000000                                                                         2022110720520326                                                                                                                                                                                                                                                                         789776901                   000000000000000000        00000000R71983927785         998392778           983927785           MARCELOSANTANADOSSANTOS@HOTMAIL.COM                         
1012024121815       050200002345                  101027903452   MARCOS FERNANDES DE OLIVEIRA                 19801207                                                                                                                                                                                                                                                                                                                                                                                                                                       RUA CAETES                                        46        A                                                 SANTO AMARO              RECIFE                 PE50110748                                                                                          OUTRAS                        R CAETES                                                  46                                                  SANTO AMARO              RECIFE                 PE50110748                            NPE                                          2022121420520504                                                                                                                                                                                                                                                                       MS50025736                    000000000000000000        00000000R992851696           999730312           985040393           DANIEL.VILAR2012@GMAIL.COM                                  
1012024121815       211040020529                  108787060620   CHRISTIANO SANTOS DE PAULA                   19871222                                                                                                                                                                                                                                                                                                                                                                                                                                       RUA ORLANDO LAURIA                                45        CASA                                              ROSENTINA                SAO SEBASTIAO DO PARAISMG37950000                    PORT SYSTEM                                                           GERENTE - TODAS               RUA DELFIM MOREIRA                                      1808COMERCIO                                          CENTRO                   SAO SEBASTIAO DO PARAISMG379500003535315236                  NPE                                          2023051520520504                                                                                                                                                                                                                                                                       MS14595160                    000000000000000000        00000000R                    998444474           988222695           CHRISTIANOPAULA@GMAIL.COM                                   
1012024121815       023790013711                  125422235000100ARGOS A E C DE SEGUROS EIRELI                                                                                                                                                                                                                                                                                                                                                                                                                                                               RUA COPAIBA LOTE 1                                1                                                           AGUAS CLARAS             BRASILIA               DF71919540                                                                                                                        Q QUADRA 204 LOTE 2 SALA                                 233                                                  SUL AGUAS CLARAS         BRASILIA               DF71939540                            NPE                                          2022120720520426                                                                                                                                                                                                                                                                        O                            000000000000000000        00000000R992760443           996344500           996344500           CHARLES@ARGOSSEGUROS.COM.BR                                 
10120241218Q5       023790013711                  992760443                   CELULAR                       
10120241218Q5       023790019869                  61999611522         0       CELULAR                       
10120241218Q5       023790019869                  61999792894         0       CELULAR                       
10120241218Q5       023790019869                  991078661                   OUTROS                        
10120241218Q5       023790019869                  991753774                   OUTROS                        
10120241218Q5       025530003251                  13996764226                 OUTROS                        
10120241218Q5       035160001325                  984690461                   OUTROS                        
10120241218Q5       035160001325                  991070295                   OUTROS                        
10120241218Q5       038720004814                  1124987043                  OUTROS                        
10120241218Q5       038720004814                  966547888                   OUTROS                        
10120241218Q5       050210003532                  42984246123                 OUTROS                        
10120241218Q5       005390015000                  31989129482                 CELULAR                       
10120241218Q5       005390015000                  994498464                   OUTROS                        
10120241218Q5       022800021074                  992406810                   OUTROS                        
10120241218Q5       022800021074                  999479387                   OUTROS                        
10120241218Q5       023790019869                  61991753774                 CELULAR                       
10120241218Q5       023790019869                  991393329                   OUTROS                        
10120241218Q5       023790019869                  999792894                   OUTROS                        
10120241218Q5       025530003251                  1333014451                  COMERCIAL                     
10120241218Q5       211040020529                  3591558947                  RECADO                        
10120241218Q5       211040020529                  35991558947                 RECADO                        
10120241218Q5       211040020529                  988222695                   OUTROS                        
10120241218Q5       211570015013                  71983927785                 CELULAR                       
10120241218Q5       211570015013                  71988471022                 CELULAR                       
10120241218Q5       211570015013                  988471022                   OUTROS                        
10120241218Q5       211570015013                  991099324                   OUTROS                        
10120241218Q5       005390015000                  989129482                   OUTROS                        
10120241218Q5       022800021074                  64999479387                 CELULAR                       
10120241218Q5       023790013711                  996344500                   OUTROS                        
10120241218Q5       023790019869                  992729861                   OUTROS                        
10120241218Q5       023790019869                  995567943                   OUTROS                        
10120241218Q5       035160001325                  1140045215                  COMERCIAL                     
10120241218Q5       035160001325                  99984663912                 CELULAR                       
10120241218Q5       050200002345                  991603338                   OUTROS                        
10120241218Q5       050200002345                  991652191                   OUTROS                        
10120241218Q5       050210003532                  42999490361                 RECADO                        
10120241218Q5       050330000405                  999292905                   OUTROS                        
10120241218Q5       211040020529                  998444474                   OUTROS                        
10120241218Q5       211570015013                  998392778                   OUTROS                        
10120241218Q5       022800021074                  11999443005                 BLOQUEADO                     
10120241218Q5       023790019869                  61998635469         0       CELULAR                       
10120241218Q5       023790019869                  995972934                   OUTROS                        
10120241218Q5       035160001325                  984663912                   OUTROS                        
10120241218Q5       050200002345                  81985040393                 CELULAR                       
10120241218Q5       050200002345                  985040393                   OUTROS                        
10120241218Q5       050200002345                  992783732                   OUTROS                        
10120241218Q5       050210003532                  1140045215                  RECADO                        
10120241218Q5       050210003532                  999490361                   OUTROS                        
10120241218Q5       005390015000                  31994498464         0       CELULAR                       
10120241218Q5       022800021074                  1140045215                  RECADO                        
10120241218Q5       022800021074                  999443005                   OUTROS                        
10120241218Q5       032020013033                  8834192024                  COMERCIAL                     
10120241218Q5       032020013033                  996156258                   OUTROS                        
10120241218Q5       035160001325                  99991070295                 CELULAR                       
10120241218Q5       050200002345                  81991603338                 CELULAR                       
10120241218Q5       050330000405                  1140045215                  RECADO                        
10120241218Q5       050330000405                  32999292905         0       CELULAR                       
10120241218Q5       211040020529                  991558947                   OUTROS                        
10120241218Q5       211570015013                  983927785                   OUTROS                        
10120241218Q5       211570015013                  986394833                   OUTROS                        
10120241218Q5       022800021074                  64999443005                 BLOQUEADO                     
10120241218Q5       023790019869                  6132266869                  CELULAR                       
10120241218Q5       023790019869                  61999614224         0       CELULAR                       
10120241218Q5       025530003251                  79996262038                 CELULAR                       
10120241218Q5       032020013033                  85999669072                 CELULAR                       
10120241218Q5       035160001325                  984848265                   OUTROS                        
10120241218Q5       038720004814                  988921558                   OUTROS                        
10120241218Q5       211570015013                  71991099324                 CELULAR                       
10120241218Q5       023790019869                  61991078661                 CELULAR                       
10120241218Q5       050200002345                  992851696                   CELULAR                       
10120241218Q5       050200002345                  999730312                   OUTROS                        
10120241218Q5       050210003532                  984246123                   OUTROS                        
10120241218Q5       050210003532                  999700070                   OUTROS                        
10120241218Q5       211570023123                  71996301905                 RECADO                        
10120241218Q5       022800021074                  11999479387                 CELULAR                       
10120241218Q5       023790013711                  61992760443                 CELULAR                       
10120241218Q5       025530003251                  1330213208                  RESIDENCIAL                   
10120241218Q5       032020013033                  999669072                   OUTROS                        
10120241218Q5       038720004814                  11968782599                 CELULAR                       
10120241218Q5       038720004814                  33988921558                 CELULAR                       
10120241218Q5       050200002345                  51999730312                 CELULAR                       
10120241218Q5       050200002345                  998546873                   OUTROS                        
10120241218Q5       050210003532                  42999700070                 OUTROS                        
10120241218Q5       211040020529                  3535315236                  COMERCIAL                     
1012024121825       026420017924                  PARF    026420017924                  02642   CORRESPONDENTE                                                                                    02642   CORRESPONDENTE - MAT                         00000000018423520000000000000000000020230516036         3                                                                                                                                                                                                                                                                                                                                                                                                                                                                                                                                                                                                            000000000000026686                                                                                                 
1012024121825       025490011359                  PARF    025490011359                  02549   CORRESPONDENTE                                                                                    02549   CORRESPONDENTE  PERN                         00000000016713020000000000000000000020210311048         3                                                                                                                                                                                                                                                                                                                                                                                                                                                                                                                                                                                                            000000000000014091                                                                                                 
1012024121825       022800022191                  REFF    022800022191                  02280   CORRESPONDENTE                                                                                    02280   CORRESPONDENTE GOIAS                         00000000012048320000000000000000000020230811036         3                                                                                                                                                                                                                                                                                                                                                                                                                                                                                                                                                                                                            000000000000034621                                                                                                 
1012024121825       022800021074                  REFF    022800021074                  02280   CORRESPONDENTE                                                                                    02280   CORRESPONDENTE GOIAS                         00000000012069010000000000000000000020230413048         1                                                                                                                                                                                                                                                                                                                                                                                                                                                                                                                                                                                                            000000000000037595                                                                                                 
1012024121825       032690025018                  REFF    032690025018                  03269   CORRESPONDENTE                                                                                    03269   CORRESPONDENTE MINAS                         00000000013015810000000000000000000020220914036         3                                                                                                                                                                                                                                                                                                                                                                                                                                                                                                                                                                                                            000000000000026738                                                                                                 
1012024121825       023790019869                  PARF    023790019869                  02379   CORRESPONDENTE                                                                                    02379   CORRESPONDENTE - DIS                         00000000061693720000000000000000000020220817048         1                                                                                                                                                                                                                                                                                                                                                                                                                                                                                                                                                                                                            000000000000022434                                                                                                 
1012024121825       050200002345                  FCDC    050200002345                  05020   CORRESPONDENTE                                                                                    05020   CORRESPONDENTE PERNA                         00000000039346300000000000000000000020220613048         1                                                                                                                                                                                                                                                                                                                                                                                                                                                                                                                                                                                                            000000000000024392                                                                                                 
1012024121825       211040020529                  PARF    211040020529                  21104   CORRESP.  RIBEI                                                                                   21104   CORRESP.  RIBEIR?O P                         00000000006256410000000000000000000020200713060         1                                                                                                                                                                                                                                                                                                                                                                                                                                                                                                                                                                                                            000000000000017295                                                                                                 
1012024121825       038720004814                  FSEG    038720004814                  03872   NOVACAO COBRANC                                                                                   03872   NOVACAO COBRANCA CON                         00000000005895040000000000000000000020240613012         1                                                                                                                                                                                                                                                                                                                                                                                                                                                                                                                                                                                                            000000000000015700                                                                                                 
1012024121825       005390015000                  UTLF    005390015000                  00539   PORTOSEG - MOGI                                                                                   00539   PORTOSEG - MOGI MIRI                         00000000121053890000000000000000000020230613060         1                                                                                                                                                                                                                                                                                                                                                                                                                                                                                                                                                                                                            000000000000029841                                                                                                 
1012024121825       035160001325                  PARF    035160001325                  03516   CORRESPONDENTE                                                                                    03516   CORRESPONDENTE MARAN                         00000000010461360000000000000000000020210211048         1                                                                                                                                                                                                                                                                                                                                                                                                                                                                                                                                                                                                            000000000000016537                                                                                                 
1012024121825       050210003532                  FCDC    050210003532                  05021   CORRESPONDENTE                                                                                    05021   CORRESPONDENTE GUARU                         00000000039967030000000000000000000020240409036         1                                                                                                                                                                                                                                                                                                                                                                                                                                                                                                                                                                                                            000000000000018550                                                                                                 
1012024121825       211570023123                  REFF    211570023123                  21157   CORRESPONDENTE                                                                                    21157   CORRESPONDENTE BAHIA                         00000000018096320000000000000000000020230508036         1                                                                                                                                                                                                                                                                                                                                                                                                                                                                                                                                                                                                            000000000000021491                                                                                                 
1012024121825       005200028377                  REFF    005200028377                  00520   CORRESPONDENTE                                                                                    00520   CORRESPONDENTE PARAN                         00000000007504150000000000000000000020230310024         3                                                                                                                                                                                                                                                                                                                                                                                                                                                                                                                                                                                                            000000000000038439                                                                                                 
1012024121825       023790013711                  PARJ    023790013711                  02379   CORRESPONDENTE                                                                                    02379   CORRESPONDENTE - DIS                         00000000016693060000000000000000000020210705060         1                                                                                                                                                                                                                                                                                                                                                                                                                                                                                                                                                                                                            000000000000017200                                                                                                 
1012024121825       038720001132                  FSEG    038720001132                  03872   NOVACAO COBRANC                                                                                   03872   NOVACAO COBRANCA CON                         00000000031528550000000000000000000020220801060         3                                                                                                                                                                                                                                                                                                                                                                                                                                                                                                                                                                                                            000000000000017300                                                                                                 
1012024121825       025530003251                  PARF    025530003251                  02553   CORRESPONDENTE                                                                                    02553   CORRESPONDENTE - SER                         00000000007234640000000000000000000020201111036         1                                                                                                                                                                                                                                                                                                                                                                                                                                                                                                                                                                                                            000000000000014001                                                                                                 
1012024121825       032020013033                  REFF    032020013033                  03202   CORRESPONDENTE                                                                                    03202   CORRESPONDENTE CEARA                         00000000025340970000000000000000000020220715036         1                                                                                                                                                                                                                                                                                                                                                                                                                                                                                                                                                                                                            000000000000022887                                                                                                 
1012024121825       211570015013                  FCDC    211570015013                                                                                                                                                                                 00000000000000000000000000000000000020210805000         1                                                                                                                                                                                                                                                                                                                                                                                                                                                                                                                                                                                                            000000000000000000                                                                                                 
1012024121825       211570013007                  FCDC    211570013007                  21157   CORRESPONDENTE                                                                                    21157   CORRESPONDENTE BAHIA                         00000000032072920000000000000000000020210311048         3                                                                                                                                                                                                                                                                                                                                                                                                                                                                                                                                                                                                            000000000000013936                                                                                                 
1012024121825       050330000405                  PARF    050330000405                  05033   CORRESP. JUIZ D                                                                                   05033   CORRESP. JUIZ DE FOR                         00000000015614190000000000000000000020220812036         1                                                                                                                                                                                                                                                                                                                                                                                                                                                                                                                                                                                                            000000000000023196                                                                                                 
1012024121835       000830034830                  REFF    000830034830                  2024092400000025                000000000006191100000000000000000000000000000000000000000000000000000000000000000000000000   048   1                             20240924                      
1012024121835       000830034830                  REFF    000830034830                  2024102400000026                000000000006191100000000000000000000000000000000000000000000000000000000000000000000000000   048   1                             20241024                      
1012024121835       000830037271                  REFF    000830037271                  2024011600000010        20240930000000000009436100000000000000000000000000000000000000000000000000000000000000000005486400   024   7                            C20240116                      
1012024121835       005390015000                  UTLF    005390015000                  2024101300000016                000000000045171700000000000000000000000000000000000000000000000000000000000000000000000000   060   1                             20241013                      
1012024121835       005390015000                  UTLF    005390015000                  2024111300000017                000000000045171700000000000000000000000000000000000000000000000000000000000000000000000000   060   1                             20241113                      
1012024121835       005390015000                  UTLF    005390015000                  2024121300000018                000000000045171700000000000000000000000000000000000000000000000000000000000000000000000000   060   1                             20241213                      
1012024121835       005390015000                  UTLF    005390015000                  2025011300000019                000000000045171700000000000000000000000000000000000000000000000000000000000000000000000000   060   1                             20250113                      
1012024121835       005390015000                  UTLF    005390015000                  2025021300000020                000000000045171700000000000000000000000000000000000000000000000000000000000000000000000000   060   1                             20250213                      
1012024121835       005390015000                  UTLF    005390015000                  2025031300000021                000000000045171700000000000000000000000000000000000000000000000000000000000000000000000000   060   1                             20250313                      
1012024121835       005390015000                  UTLF    005390015000                  2025041300000022                000000000045171700000000000000000000000000000000000000000000000000000000000000000000000000   060   1                             20250413                      
1012024121835       005390015000                  UTLF    005390015000                  2025051300000023                000000000045171700000000000000000000000000000000000000000000000000000000000000000000000000   060   1                             20250513                      
1012024121835       005390015000                  UTLF    005390015000                  2025061300000024                000000000045171700000000000000000000000000000000000000000000000000000000000000000000000000   060   1                             20250613                      
1012024121835       005390015000                  UTLF    005390015000                  2025071300000025                000000000045171700000000000000000000000000000000000000000000000000000000000000000000000000   060   1                             20250713                      
1012024121835       005390015000                  UTLF    005390015000                  2025081300000026                000000000045171700000000000000000000000000000000000000000000000000000000000000000000000000   060   1                             20250813                      
1012024121835       005390015000                  UTLF    005390015000                  2025091300000027                000000000045171700000000000000000000000000000000000000000000000000000000000000000000000000   060   1                             20250913                      
1012024121835       005390015000                  UTLF    005390015000                  2025101300000028                000000000045171700000000000000000000000000000000000000000000000000000000000000000000000000   060   1                             20251013                      
1012024121835       005390015000                  UTLF    005390015000                  2025111300000029                000000000045171700000000000000000000000000000000000000000000000000000000000000000000000000   060   1                             20251113                      
1012024121835       005390015000                  UTLF    005390015000                  2025121300000030                000000000045171700000000000000000000000000000000000000000000000000000000000000000000000000   060   1                             20251213                      
1012024121835       005390015000                  UTLF    005390015000                  2026011300000031                000000000045171700000000000000000000000000000000000000000000000000000000000000000000000000   060   1                             20260113                      
1012024121835       005390015000                  UTLF    005390015000                  2026021300000032                000000000045171700000000000000000000000000000000000000000000000000000000000000000000000000   060   1                             20260213                      
1012024121835       005390015000                  UTLF    005390015000                  2026031300000033                000000000045171700000000000000000000000000000000000000000000000000000000000000000000000000   060   1                             20260313                      
1012024121835       005390015000                  UTLF    005390015000                  2026041300000034                000000000045171700000000000000000000000000000000000000000000000000000000000000000000000000   060   1                             20260413                      
1012024121835       005390015000                  UTLF    005390015000                  2026051300000035                000000000045171700000000000000000000000000000000000000000000000000000000000000000000000000   060   1                             20260513                      
1012024121835       005390015000                  UTLF    005390015000                  2026061300000036                000000000045171700000000000000000000000000000000000000000000000000000000000000000000000000   060   1                             20260613                      
1012024121835       005390015000                  UTLF    005390015000                  2026071300000037                000000000045171700000000000000000000000000000000000000000000000000000000000000000000000000   060   1                             20260713                      
1012024121835       005390015000                  UTLF    005390015000                  2026081300000038                000000000045171700000000000000000000000000000000000000000000000000000000000000000000000000   060   1                             20260813                      
1012024121835       005390015000                  UTLF    005390015000                  2026091300000039                000000000045171700000000000000000000000000000000000000000000000000000000000000000000000000   060   1                             20260913                      
1012024121835       005390015000                  UTLF    005390015000                  2026101300000040                000000000045171700000000000000000000000000000000000000000000000000000000000000000000000000   060   1                             20261013                      
1012024121835       005390015000                  UTLF    005390015000                  2026111300000041                000000000045171700000000000000000000000000000000000000000000000000000000000000000000000000   060   1                             20261113                      
1012024121835       005390015000                  UTLF    005390015000                  2026121300000042                000000000045171700000000000000000000000000000000000000000000000000000000000000000000000000   060   1                             20261213                      
1012024121835       005390015000                  UTLF    005390015000                  2027011300000043                000000000045171700000000000000000000000000000000000000000000000000000000000000000000000000   060   1                             20270113                      
1012024121835       005390015000                  UTLF    005390015000                  2027021300000044                000000000045171700000000000000000000000000000000000000000000000000000000000000000000000000   060   1                             20270213                      
1012024121835       005390015000                  UTLF    005390015000                  2027031300000045                000000000045171700000000000000000000000000000000000000000000000000000000000000000000000000   060   1                             20270313                      
1012024121835       005390015000                  UTLF    005390015000                  2027041300000046                000000000045171700000000000000000000000000000000000000000000000000000000000000000000000000   060   1                             20270413                      
1012024121835       005390015000                  UTLF    005390015000                  2027051300000047                000000000045171700000000000000000000000000000000000000000000000000000000000000000000000000   060   1                             20270513                      
1012024121835       005390015000                  UTLF    005390015000                  2027061300000048                000000000045171700000000000000000000000000000000000000000000000000000000000000000000000000   060   1                             20270613                      
1012024121835       005390015000                  UTLF    005390015000                  2027071300000049                000000000045171700000000000000000000000000000000000000000000000000000000000000000000000000   060   1                             20270713                      
1012024121835       005390015000                  UTLF    005390015000                  2027081300000050                000000000045171700000000000000000000000000000000000000000000000000000000000000000000000000   060   1                             20270813                      
1012024121835       005390015000                  UTLF    005390015000                  2027091300000051                000000000045171700000000000000000000000000000000000000000000000000000000000000000000000000   060   1                             20270913                      
1012024121835       005390015000                  UTLF    005390015000                  2027101300000052                000000000045171700000000000000000000000000000000000000000000000000000000000000000000000000   060   1                             20271013                      
1012024121835       005390015000                  UTLF    005390015000                  2027111300000053                000000000045171700000000000000000000000000000000000000000000000000000000000000000000000000   060   1                             20271113                      
1012024121835       005390015000                  UTLF    005390015000                  2027121300000054                000000000045171700000000000000000000000000000000000000000000000000000000000000000000000000   060   1                             20271213                      
1012024121835       005390015000                  UTLF    005390015000                  2028011300000055                000000000045171700000000000000000000000000000000000000000000000000000000000000000000000000   060   1                             20280113                      
1012024121835       005390015000                  UTLF    005390015000                  2028021300000056                000000000045171700000000000000000000000000000000000000000000000000000000000000000000000000   060   1                             20280213                      
1012024121835       005390015000                  UTLF    005390015000                  2028031300000057                000000000045171700000000000000000000000000000000000000000000000000000000000000000000000000   060   1                             20280313                      
1012024121835       005390015000                  UTLF    005390015000                  2028041300000058                000000000045171700000000000000000000000000000000000000000000000000000000000000000000000000   060   1                             20280413                      
1012024121835       005390015000                  UTLF    005390015000                  2028051300000059                000000000045171700000000000000000000000000000000000000000000000000000000000000000000000000   060   1                             20280513                      
1012024121835       005390015000                  UTLF    005390015000                  2028061300000060                000000000045171700000000000000000000000000000000000000000000000000000000000000000000000000   060   1                             20280613                      
1012024121835       021130016370                  PARF    021130016370                  2024081700000035                000000000008104200000000000000000000000000000000000000000000000000000000000000000000000000   048   1                             20240817                      
1012024121835       021130016370                  PARF    021130016370                  2024091700000036                000000000008104200000000000000000000000000000000000000000000000000000000000000000000000000   048   1                             20240917                      
1012024121835       021130016370                  PARF    021130016370                  2024101700000037                000000000008104200000000000000000000000000000000000000000000000000000000000000000000000000   048   1                             20241017                      
1012024121835       021130016370                  PARF    021130016370                  2024111700000038                000000000008104200000000000000000000000000000000000000000000000000000000000000000000000000   048   1                             20241117                      
1012024121835       021130016370                  PARF    021130016370                  2024121700000039                000000000008104200000000000000000000000000000000000000000000000000000000000000000000000000   048   1                             20241217                      
1012024121835       021130016370                  PARF    021130016370                  2025011700000040                000000000008104200000000000000000000000000000000000000000000000000000000000000000000000000   048   1                             20250117                      
1012024121835       021130016370                  PARF    021130016370                  2025021700000041                000000000008104200000000000000000000000000000000000000000000000000000000000000000000000000   048   1                             20250217                      
1012024121835       021130016370                  PARF    021130016370                  2025031700000042                000000000008104200000000000000000000000000000000000000000000000000000000000000000000000000   048   1                             20250317                      
1012024121835       021130016370                  PARF    021130016370                  2025041700000043                000000000008104200000000000000000000000000000000000000000000000000000000000000000000000000   048   1                             20250417                      
1012024121835       021130016370                  PARF    021130016370                  2025051700000044                000000000008104200000000000000000000000000000000000000000000000000000000000000000000000000   048   1                             20250517                      
1012024121835       021130016370                  PARF    021130016370                  2025061700000045                000000000008104200000000000000000000000000000000000000000000000000000000000000000000000000   048   1                             20250617                      
1012024121835       021130016370                  PARF    021130016370                  2025071700000046                000000000008104200000000000000000000000000000000000000000000000000000000000000000000000000   048   1                             20250717                      
1012024121835       021130016370                  PARF    021130016370                  2025081700000047                000000000008104200000000000000000000000000000000000000000000000000000000000000000000000000   048   1                             20250817                      
1012024121835       021130016370                  PARF    021130016370                  2025091700000048                000000000008104200000000000000000000000000000000000000000000000000000000000000000000000000   048   1                             20250917                      
1012024121835       021130018470                  REFF    021130018470                  2023042800000012        20240401000000000021415600000000000000000000000000000000000000000000000000000000000000000005391900   048   7                            C20230428                      
1012024121835       021820003197                  ESPF    021820003197                  2024091300000043                000000000016673500000000000000000000000000000000000000000000000000000000000000000000000000   060   1                             20240913                      
1012024121835       021820003197                  ESPF    021820003197                  2024111300000045                000000000016673500000000000000000000000000000000000000000000000000000000000000000000000000   060   1                             20241113                      
1012024121835       022800021074                  REFF    022800021074                  2024101300000018                000000000005476500000000000000000000000000000000000000000000000000000000000000000000000000   048   1                             20241013                      
1012024121835       022800021074                  REFF    022800021074                  2024111300000019                000000000005476500000000000000000000000000000000000000000000000000000000000000000000000000   048   1                             20241113                      
1012024121835       022800021074                  REFF    022800021074                  2024121300000020                000000000005476500000000000000000000000000000000000000000000000000000000000000000000000000   048   1                             20241213                      
1012024121835       022800021074                  REFF    022800021074                  2025011300000021                000000000005476500000000000000000000000000000000000000000000000000000000000000000000000000   048   1                             20250113                      
1012024121835       022800021074                  REFF    022800021074                  2025021300000022                000000000005476500000000000000000000000000000000000000000000000000000000000000000000000000   048   1                             20250213                      
1012024121835       022800021074                  REFF    022800021074                  2025031300000023                000000000005476500000000000000000000000000000000000000000000000000000000000000000000000000   048   1                             20250313                      
1012024121835       022800021074                  REFF    022800021074                  2025041300000024                000000000005476500000000000000000000000000000000000000000000000000000000000000000000000000   048   1                             20250413                      
1012024121835       022800021074                  REFF    022800021074                  2025051300000025                000000000005476500000000000000000000000000000000000000000000000000000000000000000000000000   048   1                             20250513                      
1012024121835       022800021074                  REFF    022800021074                  2025061300000026                000000000005476500000000000000000000000000000000000000000000000000000000000000000000000000   048   1                             20250613                      
1012024121835       022800021074                  REFF    022800021074                  2025071300000027                000000000005476500000000000000000000000000000000000000000000000000000000000000000000000000   048   1                             20250713                      
1012024121835       022800021074                  REFF    022800021074                  2025081300000028                000000000005476500000000000000000000000000000000000000000000000000000000000000000000000000   048   1                             20250813                      
1012024121835       022800021074                  REFF    022800021074                  2025091300000029                000000000005476500000000000000000000000000000000000000000000000000000000000000000000000000   048   1                             20250913                      
1012024121835       022800021074                  REFF    022800021074                  2025101300000030                000000000005476500000000000000000000000000000000000000000000000000000000000000000000000000   048   1                             20251013                      
1012024121835       022800021074                  REFF    022800021074                  2025111300000031                000000000005476500000000000000000000000000000000000000000000000000000000000000000000000000   048   1                             20251113                      
1012024121835       022800021074                  REFF    022800021074                  2025121300000032                000000000005476500000000000000000000000000000000000000000000000000000000000000000000000000   048   1                             20251213                      
1012024121835       022800021074                  REFF    022800021074                  2026011300000033                000000000005476500000000000000000000000000000000000000000000000000000000000000000000000000   048   1                             20260113                      
1012024121835       022800021074                  REFF    022800021074                  2026021300000034                000000000005476500000000000000000000000000000000000000000000000000000000000000000000000000   048   1                             20260213                      
1012024121835       022800021074                  REFF    022800021074                  2026031300000035                000000000005476500000000000000000000000000000000000000000000000000000000000000000000000000   048   1                             20260313                      
1012024121835       022800021074                  REFF    022800021074                  2026041300000036                000000000005476500000000000000000000000000000000000000000000000000000000000000000000000000   048   1                             20260413                      
1012024121835       022800021074                  REFF    022800021074                  2026051300000037                000000000005476500000000000000000000000000000000000000000000000000000000000000000000000000   048   1                             20260513                      
1012024121835       022800021074                  REFF    022800021074                  2026061300000038                000000000005476500000000000000000000000000000000000000000000000000000000000000000000000000   048   1                             20260613                      
1012024121835       022800021074                  REFF    022800021074                  2026071300000039                000000000005476500000000000000000000000000000000000000000000000000000000000000000000000000   048   1                             20260713                      
1012024121835       022800021074                  REFF    022800021074                  2026081300000040                000000000005476500000000000000000000000000000000000000000000000000000000000000000000000000   048   1                             20260813                      
1012024121835       022800021074                  REFF    022800021074                  2026091300000041                000000000005476500000000000000000000000000000000000000000000000000000000000000000000000000   048   1                             20260913                      
1012024121835       022800021074                  REFF    022800021074                  2026101300000042                000000000005476500000000000000000000000000000000000000000000000000000000000000000000000000   048   1                             20261013                      
1012024121835       022800021074                  REFF    022800021074                  2026111300000043                000000000005476500000000000000000000000000000000000000000000000000000000000000000000000000   048   1                             20261113                      
1012024121835       022800021074                  REFF    022800021074                  2026121300000044                000000000005476500000000000000000000000000000000000000000000000000000000000000000000000000   048   1                             20261213                      
1012024121835       022800021074                  REFF    022800021074                  2027011300000045                000000000005476500000000000000000000000000000000000000000000000000000000000000000000000000   048   1                             20270113                      
1012024121835       022800021074                  REFF    022800021074                  2027021300000046                000000000005476500000000000000000000000000000000000000000000000000000000000000000000000000   048   1                             20270213                      
1012024121835       022800021074                  REFF    022800021074                  2027031300000047                000000000005476500000000000000000000000000000000000000000000000000000000000000000000000000   048   1                             20270313                      
1012024121835       022800021074                  REFF    022800021074                  2027041300000048                000000000005476500000000000000000000000000000000000000000000000000000000000000000000000000   048   1                             20270413                      
1012024121835       023620029348                  FCDC    023620029348                  2024121400000032        20241216000000000021373500000000000000000000000000000000000000000000000000000000000000000021373500   060   8                            C20241214                      
1012024121835       023790013711                  PARJ    023790013711                  2024100500000039                000000000007381900000000000000000000000000000000000000000000000000000000000000000000000000   060   1                             20241005                      
1012024121835       023790013711                  PARJ    023790013711                  2024110500000040                000000000007381900000000000000000000000000000000000000000000000000000000000000000000000000   060   1                             20241105                      
1012024121835       023790013711                  PARJ    023790013711                  2024120500000041                000000000007381900000000000000000000000000000000000000000000000000000000000000000000000000   060   1                             20241205                      
1012024121835       023790013711                  PARJ    023790013711                  2025010500000042                000000000007381900000000000000000000000000000000000000000000000000000000000000000000000000   060   1                             20250105                      
1012024121835       023790013711                  PARJ    023790013711                  2025020500000043                000000000007381900000000000000000000000000000000000000000000000000000000000000000000000000   060   1                             20250205                      
1012024121835       023790013711                  PARJ    023790013711                  2025030500000044                000000000007381900000000000000000000000000000000000000000000000000000000000000000000000000   060   1                             20250305                      
1012024121835       023790013711                  PARJ    023790013711                  2025040500000045                000000000007381900000000000000000000000000000000000000000000000000000000000000000000000000   060   1                             20250405                      
1012024121835       023790013711                  PARJ    023790013711                  2025050500000046                000000000007381900000000000000000000000000000000000000000000000000000000000000000000000000   060   1                             20250505                      
1012024121835       023790013711                  PARJ    023790013711                  2025060500000047                000000000007381900000000000000000000000000000000000000000000000000000000000000000000000000   060   1                             20250605                      
1012024121835       023790013711                  PARJ    023790013711                  2025070500000048                000000000007381900000000000000000000000000000000000000000000000000000000000000000000000000   060   1                             20250705                      
1012024121835       023790013711                  PARJ    023790013711                  2025080500000049                000000000007381900000000000000000000000000000000000000000000000000000000000000000000000000   060   1                             20250805                      
1012024121835       023790013711                  PARJ    023790013711                  2025090500000050                000000000007381900000000000000000000000000000000000000000000000000000000000000000000000000   060   1                             20250905                      
1012024121835       023790013711                  PARJ    023790013711                  2025100500000051                000000000007381900000000000000000000000000000000000000000000000000000000000000000000000000   060   1                             20251005                      
1012024121835       023790013711                  PARJ    023790013711                  2025110500000052                000000000007381900000000000000000000000000000000000000000000000000000000000000000000000000   060   1                             20251105                      
1012024121835       023790013711                  PARJ    023790013711                  2025120500000053                000000000007381900000000000000000000000000000000000000000000000000000000000000000000000000   060   1                             20251205                      
1012024121835       023790013711                  PARJ    023790013711                  2026010500000054                000000000007381900000000000000000000000000000000000000000000000000000000000000000000000000   060   1                             20260105                      
1012024121835       023790013711                  PARJ    023790013711                  2026020500000055                000000000007381900000000000000000000000000000000000000000000000000000000000000000000000000   060   1                             20260205                      
1012024121835       023790013711                  PARJ    023790013711                  2026030500000056                000000000007381900000000000000000000000000000000000000000000000000000000000000000000000000   060   1                             20260305                      
1012024121835       023790013711                  PARJ    023790013711                  2026040500000057                000000000007381900000000000000000000000000000000000000000000000000000000000000000000000000   060   1                             20260405                      
1012024121835       023790013711                  PARJ    023790013711                  2026050500000058                000000000007381900000000000000000000000000000000000000000000000000000000000000000000000000   060   1                             20260505                      
1012024121835       023790013711                  PARJ    023790013711                  2026060500000059                000000000007381900000000000000000000000000000000000000000000000000000000000000000000000000   060   1                             20260605                      
1012024121835       023790013711                  PARJ    023790013711                  2026070500000060                000000000007381900000000000000000000000000000000000000000000000000000000000000000000000000   060   1                             20260705                      
1012024121835       023790019869                  PARF    023790019869                  2024031600000019                000000000023425100000000000024830600000000000000288900000000000000468500000000000000000000   048   1                             20240316                      
1012024121835       023790019869                  PARF    023790019869                  2024041600000020                000000000023425100000000000024045600000000000000046900000000000000468500000000000000000000   048   1                             20240416                      
1012024121835       023790019869                  PARF    023790019869                  2024051600000021                000000000023425100000000000023018300000000000000000000000000000000000000000000000000000000   048   1                             20240516                      
1012024121835       023790019869                  PARF    023790019869                  2024061600000022                000000000023425100000000000022503400000000000000000000000000000000000000000000000000000000   048   1                             20240616                      
1012024121835       023790019869                  PARF    023790019869                  2024071600000023                000000000023425100000000000022016000000000000000000000000000000000000000000000000000000000   048   1                             20240716                      
1012024121835       023790019869                  PARF    023790019869                  2024081600000024                000000000023425100000000000021523500000000000000000000000000000000000000000000000000000000   048   1                             20240816                      
1012024121835       023790019869                  PARF    023790019869                  2024091600000025                000000000023425100000000000021042000000000000000000000000000000000000000000000000000000000   048   1                             20240916                      
1012024121835       023790019869                  PARF    023790019869                  2024101600000026                000000000023425100000000000020586300000000000000000000000000000000000000000000000000000000   048   1                             20241016                      
1012024121835       023790019869                  PARF    023790019869                  2024111600000027                000000000023425100000000000020125800000000000000000000000000000000000000000000000000000000   048   1                             20241116                      
1012024121835       023790019869                  PARF    023790019869                  2024121600000028                000000000023425100000000000019690000000000000000000000000000000000000000000000000000000000   048   1                             20241216                      
1012024121835       023790019869                  PARF    023790019869                  2025011600000029                000000000023425100000000000019249500000000000000000000000000000000000000000000000000000000   048   1                             20250116                      
1012024121835       023790019869                  PARF    023790019869                  2025021600000030                000000000023425100000000000018818900000000000000000000000000000000000000000000000000000000   048   1                             20250216                      
1012024121835       023790019869                  PARF    023790019869                  2025031600000031                000000000023425100000000000018438200000000000000000000000000000000000000000000000000000000   048   1                             20250316                      
1012024121835       023790019869                  PARF    023790019869                  2025041600000032                000000000023425100000000000018025700000000000000000000000000000000000000000000000000000000   048   1                             20250416                      
1012024121835       023790019869                  PARF    023790019869                  2025051600000033                000000000023425100000000000017635400000000000000000000000000000000000000000000000000000000   048   1                             20250516                      
1012024121835       023790019869                  PARF    023790019869                  2025061600000034                000000000023425100000000000017240900000000000000000000000000000000000000000000000000000000   048   1                             20250616                      
1012024121835       023790019869                  PARF    023790019869                  2025071600000035                000000000023425100000000000016867500000000000000000000000000000000000000000000000000000000   048   1                             20250716                      
1012024121835       023790019869                  PARF    023790019869                  2025081600000036                000000000023425100000000000016490200000000000000000000000000000000000000000000000000000000   048   1                             20250816                      
1012024121835       023790019869                  PARF    023790019869                  2025091600000037                000000000023425100000000000016121300000000000000000000000000000000000000000000000000000000   048   1                             20250916                      
1012024121835       023790019869                  PARF    023790019869                  2025101600000038                000000000023425100000000000015772100000000000000000000000000000000000000000000000000000000   048   1                             20251016                      
1012024121835       023790019869                  PARF    023790019869                  2025111600000039                000000000023425100000000000015419300000000000000000000000000000000000000000000000000000000   048   1                             20251116                      
1012024121835       023790019869                  PARF    023790019869                  2025121600000040                000000000023425100000000000015085400000000000000000000000000000000000000000000000000000000   048   1                             20251216                      
1012024121835       023790019869                  PARF    023790019869                  2026011600000041                000000000023425100000000000014747900000000000000000000000000000000000000000000000000000000   048   1                             20260116                      
1012024121835       023790019869                  PARF    023790019869                  2026021600000042                000000000023425100000000000014418000000000000000000000000000000000000000000000000000000000   048   1                             20260216                      
1012024121835       023790019869                  PARF    023790019869                  2026031600000043                000000000023425100000000000014126400000000000000000000000000000000000000000000000000000000   048   1                             20260316                      
1012024121835       023790019869                  PARF    023790019869                  2026041600000044                000000000023425100000000000013810300000000000000000000000000000000000000000000000000000000   048   1                             20260416                      
1012024121835       023790019869                  PARF    023790019869                  2026051600000045                000000000023425100000000000013511300000000000000000000000000000000000000000000000000000000   048   1                             20260516                      
1012024121835       023790019869                  PARF    023790019869                  2026061600000046                000000000023425100000000000013209000000000000000000000000000000000000000000000000000000000   048   1                             20260616                      
1012024121835       023790019869                  PARF    023790019869                  2026071600000047                000000000023425100000000000012922900000000000000000000000000000000000000000000000000000000   048   1                             20260716                      
1012024121835       023790019869                  PARF    023790019869                  2026081600000048                000000000023425100000000000012633800000000000000000000000000000000000000000000000000000000   048   1                             20260816                      
1012024121835       023790020391                  PARF    023790020391                  2024092400000025                000000000016114900000000000000000000000000000000000000000000000000000000000000000000000000   048   1                             20240924                      
1012024121835       023790020391                  PARF    023790020391                  2024102400000026                000000000016114900000000000000000000000000000000000000000000000000000000000000000000000000   048   1                             20241024                      
1012024121835       025490006224                  FCDC    025490006224                  2024080300000053                000000000011548200000000000000000000000000000000000000000000000000000000000000000000000000   060   1                             20240803                      
1012024121835       025490006224                  FCDC    025490006224                  2024090300000054                000000000011548200000000000000000000000000000000000000000000000000000000000000000000000000   060   1                             20240903                      
1012024121835       025490006224                  FCDC    025490006224                  2024100300000055                000000000011548200000000000000000000000000000000000000000000000000000000000000000000000000   060   1                             20241003                      
1012024121835       025490006224                  FCDC    025490006224                  2024110300000056                000000000011548200000000000000000000000000000000000000000000000000000000000000000000000000   060   1                             20241103                      
1012024121835       025490006224                  FCDC    025490006224                  2024120300000057                000000000011548200000000000000000000000000000000000000000000000000000000000000000000000000   060   1                             20241203                      
1012024121835       025490006224                  FCDC    025490006224                  2025010300000058                000000000011548200000000000000000000000000000000000000000000000000000000000000000000000000   060   1                             20250103                      
1012024121835       025490006224                  FCDC    025490006224                  2025020300000059                000000000011548200000000000000000000000000000000000000000000000000000000000000000000000000   060   1                             20250203                      
1012024121835       025490006224                  FCDC    025490006224                  2025030300000060                000000000011548200000000000000000000000000000000000000000000000000000000000000000000000000   060   1                             20250303                      
1012024121835       025530003251                  PARF    025530003251                  2023111100000036                000000000009204600000000000010589000000000000000500100000000000000184100000000000000000000   036   1                             20231111                      
1012024121835       025850000471                  ESPF    025850000471                  2021012500000033        20231228000000000008651800000000000000000000000000000000000000000000000000000000000000000001854500   036   7                            C20210125                      
1012024121835       025950032887                  FCDC    025950032887                  2024041700000038                000000000006440000000000000000000000000000000000000000000000000000000000000000000000000000   048   3                            C20240417                      
1012024121835       025950032887                  FCDC    025950032887                  2024051700000039                000000000006440000000000000000000000000000000000000000000000000000000000000000000000000000   048   3                            C20240517                      
1012024121835       025950032887                  FCDC    025950032887                  2024061700000040                000000000006440000000000000000000000000000000000000000000000000000000000000000000000000000   048   3                            C20240617                      
1012024121835       025950032887                  FCDC    025950032887                  2024071700000041                000000000006440000000000000000000000000000000000000000000000000000000000000000000000000000   048   3                            C20240717                      
1012024121835       025950032887                  FCDC    025950032887                  2024081700000042                000000000006440000000000000000000000000000000000000000000000000000000000000000000000000000   048   3                            C20240817                      
1012024121835       025950032887                  FCDC    025950032887                  2024091700000043                000000000006440000000000000000000000000000000000000000000000000000000000000000000000000000   048   3                            C20240917                      
1012024121835       025950032887                  FCDC    025950032887                  2024101700000044                000000000006440000000000000000000000000000000000000000000000000000000000000000000000000000   048   3                            C20241017                      
1012024121835       025950032887                  FCDC    025950032887                  2024111700000045                000000000006440000000000000000000000000000000000000000000000000000000000000000000000000000   048   3                            C20241117                      
1012024121835       025950032887                  FCDC    025950032887                  2024121700000046                000000000006440000000000000000000000000000000000000000000000000000000000000000000000000000   048   3                            C20241217                      
1012024121835       025950032887                  FCDC    025950032887                  2025011700000047                000000000006440000000000000000000000000000000000000000000000000000000000000000000000000000   048   3                            C20250117                      
