001202411182024111800000085
1012024111815       022800022191                  193364822115   LAILA XAVIER FARIA                           19810927                                                                                                                                                                                                                                                                                                                                                                                                                                       CAMBURIU                                          326                                                         JD EUROPA                CANARANA               MT78640000                    NENHUMA                                                               GERENTE - TODAS               CAMBURIU                                                 326                                                  JD EUROPA                CANARANA               MT78640000                            NPE                                          2023121520520404                                                                                                                                                                                                                                                                       MS4283304                     000000000000000000        00000000R66984039263         984039263           984039263           LAILA_FARIA@HOTMAIL.COM                                     
1012024111815       032020006436                  135811684304   ARIOSVALDO ALVES DA SILVA                    19670905                                                                                                                                                                                                                                                                                                                                                                                                                                       AV PROFESSOR JOSE ARTHUR DE CARVALHO              2200      BL 4 AP 202                                       LAGOA REDONDA            FORTALEZA              CE60831370                                                                                          OUTRAS                        AV PROFESSOR JOSE ARTHUR DE CARVALHO                    2200BL 4 AP 202                                       LAGOA REDONDA            FORTALEZA              CE608313701140045215                  NPE                                          2023021420520404                                                                                                                                                                                                                                                                       MS9901000122                  000000000000000000        00000000R85986336128         985825468           985825468           ARYALVES2020@OUTLOOK.COM                                    
1012024111815       032690012773                  112419928601   BRUNA QUEIROZ DE OLIVEIRA SOUZA              19941004                                                                                                                                                                                                                                                                                                                                                                                                                                       R OTAVIANO RODRIGUES DE SOUZA                     412                                                         CONJUNTO JATOBA BARREIRO BELO HORIZONTE         MG30664630                                                                                          OUTRAS                        R OTAVIANO RODRIGUES DE SOUZA                            413                                                  CONJUNTO JATOBA BARREIRO BELO HORIZONTE         MG306646303135351020                  NPE                                          2022121320520404                                                                                                                                                                                                                                                                       FS0681716476                  000000000000000000        00000000R973255747           3133362401          3133362401          BKBRUNA16@GMAIL.COM                                         
1012024111815       036420000009                  113241188817   SONIA DIAS DA SILVA SANTOS                   19680527                                                                                                                                                                                                                                                                                                                                                                                                                                       R JOAO ZELTNER                                    41                                                          PARQUE MARIA HELENA      SAO PAULO              SP05855280                    MARIA ALICE SA                                                        GERENTE - TODAS               AV PROFESSOR OSCAR CAMPIGLIA                             484                                                  PARQUE IPE               SAO PAULO              SP057622301158412104                  NPE                                          2022111420520404                                                                                                                                                                                                                                                                       FS212414616                   000000000000000000        00000000R11959650568         959650568           58412104            SYMON.PETER12@GMAIL.COM                                     
1012024111815       022800005202                  102484258119   LARA SILVA JAYME                             19880131                                                                                                                                                                                                                                                                                                                                                                                                                                       TRAVESSA MAJOR POMPEU, QD 158 LT 0                64        POUSADA MANDALA                                   SETOR CENTRAL            PIRENOPOLIS            GO72980000                    PREFEITURA MUNICIPAL DE PIRENO                                        GERENTE - TODAS               PREFEITURA MUNICIPAL DE PIRENOPOLIS                       SN                                                  SETOR CENTRAL            PIRENOPOLIS            GO72980000                            NPE                                          2023081520520404                                                                                                                                                                                                                                                                       FS0482688225                  000000000000000000        00000000R                    991451874           33312852                                                                        
1012024111815       050270003285                  128661815819   RICARDO ANTUNES DE CAMARGO                   19800626                                                                                                                                                                                                                                                                                                                                                                                                                                       AV MARECHAL JOAO BATISTA MASCARENHAS MORAES       1640                                                        SAO PEDRO                OSASCO                 SP06172280                    CTRENS CAMPANHIA DE MANUTANCAO                                        GERENTE - TODAS               R TABAPUA                                                 10                                                  ITAIM BIBI               SAO PAULO              SP04533010                            NPE                                          2024091620520404                                                                                                                                                                                                                                                                       MC32132930                    000000000000000000        00000000R                    987843575           953934215                                                                       
1012024111815       022800023556                  180317650149   WELBER CARVALHO CAMARGO                      19770606                                                                                                                                                                                                                                                                                                                                                                                                                                       RUA PSJ 7                                         SN        QD 05 LT 07                                       PARQUE SAO JERONIMO      ANAPOLIS               GO75097045                                                                                          EMPRESARIO                    RUA PSJ 7                                                 SNQD 05 LT 07                                       PARQUE SAO JERONIMO      ANAPOLIS               GO75097045                            NPE                                          2024041520520404                                                                                                                                                                                                                                                                       MS3500171                     000000000000000000        00000000R983242479           994532464           62933114632         WELBER.CAMARGO77@HOTMAIL.COM                                
1012024111815       038720003417                  108200817601   MAGDIEL LOPES RUAS                           19860720                                                                                                                                                                                                                                                                                                                                                                                                                                       R DETALHES                                        135                                                         MORADAS DA LAPINHA       LAGOA SANTA            MG33231560                                                                                          OUTRAS                        R DETALHES                                               135                                                  MORADAS DA LAPINHA       LAGOA SANTA            MG33231560                            NPE                                          2023092220520404                                                                                                                                                                                                                                                                       MS12140148                    000000000000000000        00000000R31997133319         997133319           31999103873         NOVAESBRENDA36@GMAIL.COM                                    
1012024111815       023790021174                  159685301204   NEUSIRENE PEREIRA DE O RIBEIRO               19771004                                                                                                                                                                                                                                                                                                                                                                                                                                       QUADRA ARNO 31 ALAMEDA 05 N 34 QI 08 LT 33        SN        AC NEUSIRENE                                      ST NORDESTE              PALMAS                 TO77001266                    W4 LOCACOES DE MAQUINAS E EQUI                                        EMPRESARIO                    Q ARSO 42 ALAMEDA                                         16415 SUL ALAMEDA                                   PLANO DIRETOR SUL        PALMAS                 TO77015619                            NPE                                          2023061520520404                                                                                                                                                                                                                                                                       FS929.579                     000000000000000000        00000000R                    992309472           984592789           WILSONPALMAS10@GMAIL.COM                                    
1012024111815       211570026595                  113378422491   CICERO FERNANDES DOS SANTOS                  19530310                                                                                                                                                                                                                                                                                                                                                                                                                                       RUA OITO DO CANAL                                 23                                                          GLEBA A                  CAMACARI               BA42807580                                                                                          APOSENTADO                                                                                                                                                                                                                        NPE                                          2024092020520404                                                                                                                                                                                                                                                                       MS                            000000000000000000        00000000R                    988439668           988439668                                                                       
1012024111815       211040029990                  148786489100   LUIZ ANTONIO PREZA DA COSTA                  19690807                                                                                                                                                                                                                                                                                                                                                                                                                                       R PASSO FUNDO                                     SN        CS 07                                             MORADA DA SERRA          CUIABA                 MT780550956536421105          COMANDO GERAL DA POLICIA MILIT                                        APOSENTADO                                                                                                                                                                                                                        NPE                                          2022110520520404                                                                                                                                                                                                                                                                       MS0086112642                  000000000000000000        00000000R65999068850         33136419            33136419            NEIASPIF@GMAIL.COM                                          
1012024111815       211040045719                  106155177651   DIEGO PEREIRA BARBOSA                        19830221                                                                                                                                                                                                                                                                                                                                                                                                                                       R NIGERIA                                         133                                                         LARANJEIRAS              UBERLANDIA             MG38410312                                                                                          GERENTE - TODAS               R NIGERIA                                                133                                                  LARANJEIRAS              UBERLANDIA             MG38410312                            NPE                                          2024070820520404                                                                                                                                                                                                                                                                       MS                            000000000000000000        00000000R992225161           992780210           992780210                                                                       
1012024111815       051920003609                  191050006291   ANTONIA MARIA SABINA DA SILVA GONCALVES      19871007                                                                                                                                                                                                                                                                                                                                                                                                                                       RUA CLARA NUNES                                   323                                                         GUANABARA                PARAUAPEBAS            PA68515000                    STILUS CABELEIREIRO                                                   GERENTE - TODAS               RUA CLARA NUNES                                          324                                                  GUANABARA                PARAUAPEBAS            PA68515000                            NPE                                          2024031520520404                                                                                                                                                                                                                                                                       FS5700640                     000000000000000000        00000000R999795060           999720555           9137312621                                                                      
1012024111815       026690000133                  103173423000100COMERCIAL NOVA TOBIAS LTDA                                                                                                                                                                                                                                                                                                                                                                                                                                                                                                                                                                                                                                  03176001                                                                                                                        R TOBIAS BARRETO                                        1066                                                  AT MOOCA                 SAO PAULO              SP03176001                            NPE                                          2023031620520404                                                                                                                                                                                                                                                                        O                            000000000000000000        00000000R940376705           940376717           940376717           COMERCIALNOVATOBIAS@HOTMAIL.COM                             
1012024111815       038710000064                  100407557709   CLAUDIA CARLA C DE F FERNANDES LOUREIRO      19710325                                                                                                                                                                                                                                                                                                                                                                                                                                       R BOM JESUS DO ITABAPUANA                         594                                                         RECREIO                  RIO DAS OSTRAS         RJ288953862227607572                                                                                OUTROS ESTABELE               R BOM JESUS DO ITABAPUANA                                594                                                  RECREIO                  RIO DAS OSTRAS         RJ288953861140043030                  NPE                                          2022110520520404                                                                                                                                                                                                                                                                       FD111111111                   000000000000000000        00000000R992849037           998685821           27607572            CLAUDIACARLA26@GMAIL.COM                                    
1012024111815       022800013074                  105850168109   FELLIPY MATHEUS ALVES NORATO                 20030306                                                                                                                                                                                                                                                                                                                                                                                                                                       R 15 DE OUTUBRO                                   SN        Q12 L9-14                                         SETOR ESTRELA DALVA      GOIANIA                GO74475312                    KMCOR ADM E CORRETORA DE SEGUR                                        GERENTE - TODAS               AV GOIAS                                                  SNQD43LT23                                          SETOR URIAS MAGALHAES    GOIANIA                GO745652506239262106          0       NPE                                          2022111420520404                                                                                                                                                                                                                                                                       MS0759297070                  000000000000000000        00000000R62995758238         39262106            39262106            FABIOBATISTADACRUZ18@GMAIL.COM                              
1012024111815       026980009403                  108328289717   EMERSON SANTANA SANTOS                       19770724                                                                                                                                                                                                                                                                                                                                                                                                                                       EST DO LAMEIRAO                                   37 ANTONIO                                                  SANTISSIMO               RIO DE JANEIRO         RJ23092031                                                                                          MOTORISTA                                                                                                                                                                                                                         NPE                                          2023121120520404                                                                                                                                                                                                                                                                       MS114895212                   000000000000000000        00000000R21993344386         993344386           971664603           SANTANAEMERSON211@GMAIL.COM                                 
1012024111815       038720002352                  151139952234   ANDREIA CRISTINA CORDEIRO CHAGAS             19790224                                                                                                                                                                                                                                                                                                                                                                                                                                       R AMANCIO DE MIRANDA                              111                                                         EDUCANDOS                MANAUS                 AM69070000                    CONDOMINIO DO EDIFICIO TROPICA                                        GERENTE - TODAS               AV CORONEL TEIXEIRA                                     1320                                                  PONTA NEGRA              MANAUS                 AM69037000                            NPE                                          2023051520520404                                                                                                                                                                                                                                                                       FS0253223620                  000000000000000000        00000000R92981786933         994017717           30880753            JUDICELIO@HOTMAIL.COM                                       
1012024111815       023790005760                  103972057326   JOELMA PEREIRA DA SILVA                      19881118                                                                                                                                                                                                                                                                                                                                                                                                                                       Q QUADRA 202 CONJUNTO 61 LOTE                     31                                                          DEL LAGO II ITAPOA       BRASILIA               DF71593050                                                                                          EMPRESARIO                                                                                                                                                                                                                        NPE                                          2022110520520319                                                                                                                                                                                                                                                                       FS3138156                     000000000000000000        00000000R61993424401         994022345           981836209           JOELMAFLO@GMAIL.COM                                         
1012024111815       035170001431                  137562891842   LUCIANE LUCIA JANUARIO                       19900401                                                                                                                                                                                                                                                                                                                                                                                                                                       V PED TADOLINI                                    25                                                          FAZENDA DA JUTA          SAO PAULO              SP039773831121533461                                                                                OUTRAS                        V PED TADOLINI                                            25                                                  FAZENDA DA JUTA          SAO PAULO              SP03977383                            NPE                                          2022110520520404                                                                                                                                                                                                                                                                       FS329133950                   000000000000000000        00000000R986665675           947927266           20172456            DAN871504@GMAIL.COM                                         
1012024111815       036180004739                  100609148664   NEILA GOMES DA SILVA CADORE                  19760419                                                                                                                                                                                                                                                                                                                                                                                                                                       AV AMERICO ATTIE                                  61        APTO 103                                          MANSOUR                  UBERLANDIA             MG38414505                    NAO INFORMADO                                                         GERENTE - TODAS               AV AMERICO ATTIE                                          61                                                  MANSOUR                  UBERLANDIA             MG38414505                            NPE                                          2023061220520404                                                                                                                                                                                                                                                                       FS0060914866                  000000000000000000        00000000R34997713763         999148457           32171673            ANDREIAGOMES1995@ICLOUD.COM                                 
1012024111815       038720001417                  113147585433   ISLAN FERNANDES DE LIMA                      19970605                                                                                                                                                                                                                                                                                                                                                                                                                                       RUA TOCANTINS                                     475                                                         CENTRO                   JACIARA                MT78820000                                                                                          OUTRAS                        RUA TOCANTINS                                            475                                                  CENTRO                   JACIARA                MT78820000                            NPE                                          2022120520520404                                                                                                                                                                                                                                                                       MS10036128                    000000000000000000        00000000R66999091293         999091293           981354876           ISLAN-FERNANDES@HOTMAIL.COM                                 
1012024111815       021980014448                  140602732875   DOUGLAS ELISEU MATOS CORREIA DA SILVA        19910129                                                                                                                                                                                                                                                                                                                                                                                                                                       R BENEDECTO SPINARDI                              321                                                         CENTRO                   ASSIS                  SP19814050                                                                                          OUTRAS                        R BENEDECTO SPINARDI                                     321                                                  CENTRO                   ASSIS                  SP19814050                            NPE                                          2023081520520404                                                                                                                                                                                                                                                                       MS4060273287                  000000000000000000        00000000R89997054631         997054631           1833212085          ELISEUCORREIA29@GMAIL.COM                                   
1012024111815       038720001269                  130465432808   MARCIO LUIZ NUNES                            19820228                                                                                                                                                                                                                                                                                                                                                                                                                                       JOANA DOS SANTOS VIEIRA                           57                                                          ORLANDO FONSECA          PONTAL                 SP14180000                                                                                          GERENTE - TODAS               AV. MARIA LIDIA NEVES SPINOLA                           1305                                                  BELA VISTA               PONTAL                 SP14180000                            NPE                                          2022111420520404                                                                                                                                                                                                                                                                       MS403394211                   000000000000000000        00000000R16982141630         988728890           982141630           MARCIOLUIZNUNES192@GMAIL.COM                                
1012024111815       022800008701                  101643052110   JHONATAS JOSE BATISTA                        19850203                                                                                                                                                                                                                                                                                                                                                                                                                                       R F4                                              SN        AP1 TORRE4 QD3                                    RESIDENCIAL FLORIDA      GOIANIA                GO74371203                    N A                                                                   OUTRAS                        R F4                                                        AP1 TORRE4 QD3                                    RESIDENCIAL FLORIDA      GOIANIA                GO743712036232894036                  NPE                                          2023021420520404                                                                                                                                                                                                                                                                       MS4595258                     000000000000000000        00000000R62996543643         996543643           996543643           DJDETON@HOTMAIL.COM                                         
10120241118Q5       021980014448                  89997054631                 CELULAR                       
10120241118Q5       022800005202                  1140045215                  RECADO                        
10120241118Q5       022800008701                  62996543643                 CELULAR                       
10120241118Q5       022800013074                  986273500                   OUTROS                        
10120241118Q5       023790005760                  994022345                   OUTROS                        
10120241118Q5       026980009403                  977308794                   OUTROS                        
10120241118Q5       026980009403                  986922228                   OUTROS                        
10120241118Q5       032690012773                  3133362401                  OUTROS                        
10120241118Q5       032690012773                  31973509507                 OUTROS                        
10120241118Q5       032690012773                  31975127927                 CELULAR                       
10120241118Q5       032690012773                  31988678461                 OUTROS                        
10120241118Q5       035170001431                  11947927266                 CELULAR                       
10120241118Q5       036420000009                  58412104                    OUTROS                        
10120241118Q5       038720001269                  16988728890                 CELULAR                       
10120241118Q5       038720002352                  1140045215                  RECADO                        
10120241118Q5       038720002352                  92981786933                 CELULAR                       
10120241118Q5       038720002352                  981786933                   OUTROS                        
10120241118Q5       051920003609                  9137312621                  OUTROS                        
10120241118Q5       051920003609                  9433564261                  OUTROS                        
10120241118Q5       051920003609                  999720555                   OUTROS                        
10120241118Q5       211040029990                  36421105                    OUTROS                        
10120241118Q5       211040029990                  992331215                   OUTROS                        
10120241118Q5       021980014448                  1140045215                  RECADO                        
10120241118Q5       021980014448                  18997054631                 RECADO                        
10120241118Q5       021980014448                  33212076                    OUTROS                        
10120241118Q5       022800005202                  62991451874                 RECADO                        
10120241118Q5       022800008701                  996543643                   OUTROS                        
10120241118Q5       022800023556                  983242479                   CELULAR                       
10120241118Q5       026980009403                  972771539                   OUTROS                        
10120241118Q5       032690012773                  975127927                   OUTROS                        
10120241118Q5       036180004739                  992368297                   OUTROS                        
10120241118Q5       036420000009                  1158412104                  COMERCIAL                     
10120241118Q5       036420000009                  952299934                   OUTROS                        
10120241118Q5       036420000009                  959650568                   OUTROS                        
10120241118Q5       038720001417                  981354876                   OUTROS                        
10120241118Q5       038720002352                  30880753                    OUTROS                        
10120241118Q5       038720002352                  994017717                   OUTROS                        
10120241118Q5       211040029990                  65993192205                 CELULAR                       
10120241118Q5       022800008701                  6232894036                  COMERCIAL                     
10120241118Q5       023790005760                  981836209                   OUTROS                        
10120241118Q5       023790005760                  994353744                   CELULAR                       
10120241118Q5       026690000133                  11940376717         0       CELULAR                       
10120241118Q5       032020006436                  1140045215                  COMERCIAL                     
10120241118Q5       032690012773                  973255747                   CELULAR                       
10120241118Q5       036180004739                  997713763                   OUTROS                        
10120241118Q5       038710000064                  997579844                   OUTROS                        
10120241118Q5       038720001269                  982141630                   OUTROS                        
10120241118Q5       038720002352                  991958284                   OUTROS                        
10120241118Q5       050270003285                  985598855                   OUTROS                        
10120241118Q5       051920003609                  92999793661                 OUTROS                        
10120241118Q5       051920003609                  999795060                   CELULAR                       
10120241118Q5       211040045719                  1140045215                  RECADO                        
10120241118Q5       211040045719                  34992780210                 CELULAR                       
10120241118Q5       021980014448                  997054631                   OUTROS                        
10120241118Q5       022800013074                  62986273500                 CELULAR                       
10120241118Q5       026980009403                  21971664603                 CELULAR                       
10120241118Q5       026980009403                  971664603                   OUTROS                        
10120241118Q5       032690012773                  975783585                   OUTROS                        
10120241118Q5       035170001431                  20172456                    OUTROS                        
10120241118Q5       035170001431                  947927266                   OUTROS                        
10120241118Q5       036180004739                  984066190                   OUTROS                        
10120241118Q5       038710000064                  2227607572                  RESIDENCIAL                   
10120241118Q5       038710000064                  992849037                   CELULAR                       
10120241118Q5       038720001269                  16982141630                 CELULAR                       
10120241118Q5       038720003417                  31997133319                 CELULAR                       
10120241118Q5       038720003417                  31999103873                 OUTROS                        
10120241118Q5       050270003285                  1198559885                  RECADO                        
10120241118Q5       211040029990                  33136419                    OUTROS                        
10120241118Q5       211040029990                  6536421105                  RESIDENCIAL                   
10120241118Q5       211040029990                  65999068850                 CELULAR                       
10120241118Q5       211040029990                  981358818                   OUTROS                        
10120241118Q5       211040045719                  992780210                   OUTROS                        
10120241118Q5       022800023556                  62981123957                 RECADO                        
10120241118Q5       026690000133                  940376717                   OUTROS                        
10120241118Q5       026980009403                  993344386                   OUTROS                        
10120241118Q5       032020006436                  85984004034                 CELULAR                       
10120241118Q5       032690012773                  3133473489                  OUTROS                        
10120241118Q5       032690012773                  3135351020                  COMERCIAL                     
10120241118Q5       032690012773                  31975337418                 OUTROS                        
10120241118Q5       035170001431                  947268452                   OUTROS                        
10120241118Q5       036180004739                  34992368297                 CELULAR                       
10120241118Q5       036180004739                  34997713763         0       CELULAR                       
10120241118Q5       036180004739                  991368968                   OUTROS                        
10120241118Q5       038710000064                  1140043030                  COMERCIAL                     
10120241118Q5       038710000064                  22998685821                 CELULAR                       
10120241118Q5       038710000064                  40043030                    OUTROS                        
10120241118Q5       038720001269                  988728890                   OUTROS                        
10120241118Q5       038720001417                  999091293                   OUTROS                        
10120241118Q5       051920003609                  1140045215                  RECADO                        
10120241118Q5       051920003609                  92996517909                 OUTROS                        
10120241118Q5       051920003609                  94981440664                 CELULAR                       
10120241118Q5       051920003609                  984269219                   CELULAR                       
10120241118Q5       211040029990                  999068850                   OUTROS                        
10120241118Q5       211040029990                  999228851                   OUTROS                        
10120241118Q5       211570026595                  988439668                   OUTROS                        
10120241118Q5       021980014448                  18996969286         0       CELULAR                       
10120241118Q5       021980014448                  996969286                   OUTROS                        
10120241118Q5       022800013074                  39262106                    OUTROS                        
10120241118Q5       022800022191                  984039263                   OUTROS                        
10120241118Q5       022800023556                  62933114632                 OUTROS                        
10120241118Q5       022800023556                  62994532464                 OUTROS                        
10120241118Q5       022800023556                  994532464                   OUTROS                        
10120241118Q5       023790005760                  61993424401                 CELULAR                       
10120241118Q5       023790021174                  63984592789                 RECADO                        
10120241118Q5       023790021174                  984592789                   OUTROS                        
10120241118Q5       023790021174                  992309472                   OUTROS                        
10120241118Q5       026690000133                  940376705                   CELULAR                       
10120241118Q5       032020006436                  85985825468         0       CELULAR                       
10120241118Q5       032020006436                  85986336128                 CELULAR                       
10120241118Q5       032690012773                  31988819384                 CELULAR                       
10120241118Q5       035170001431                  1121533461                  RESIDENCIAL                   
10120241118Q5       035170001431                  11947268452                 CELULAR                       
10120241118Q5       035170001431                  986665675                   CELULAR                       
10120241118Q5       038710000064                  27607572                    OUTROS                        
10120241118Q5       038710000064                  997625159                   OUTROS                        
10120241118Q5       038720001417                  66999091293         0       CELULAR                       
10120241118Q5       051920003609                  981440664                   OUTROS                        
10120241118Q5       211040029990                  993192205                   OUTROS                        
10120241118Q5       211570026595                  71992305896                 RECADO                        
10120241118Q5       021980014448                  1833212085                  OUTROS                        
10120241118Q5       022800005202                  62996514611                 OUTROS                        
10120241118Q5       022800013074                  6239262106          0       COMERCIAL                     
10120241118Q5       022800013074                  62995758238                 CELULAR                       
10120241118Q5       022800023556                  62982852979                 OUTROS                        
10120241118Q5       026690000133                  11940376705         0       CELULAR                       
10120241118Q5       026980009403                  983723201                   OUTROS                        
10120241118Q5       032690012773                  31975783585                 OUTROS                        
10120241118Q5       036180004739                  32171673                    OUTROS                        
10120241118Q5       036180004739                  999148457                   OUTROS                        
10120241118Q5       038710000064                  22997625159         0       CELULAR                       
10120241118Q5       038710000064                  998685821                   OUTROS                        
10120241118Q5       038720001417                  66981354876         0       CELULAR                       
10120241118Q5       050270003285                  11985598855                 RECADO                        
10120241118Q5       211040045719                  992225161                   CELULAR                       
10120241118Q5       021980014448                  1833224986                  OUTROS                        
10120241118Q5       022800005202                  33312852                    OUTROS                        
10120241118Q5       022800005202                  33313745                    OUTROS                        
10120241118Q5       022800005202                  991451874                   OUTROS                        
10120241118Q5       022800013074                  995758238                   OUTROS                        
10120241118Q5       022800022191                  66984039263         0       CELULAR                       
10120241118Q5       022800023556                  981123957                   OUTROS                        
10120241118Q5       023790005760                  993424401                   OUTROS                        
10120241118Q5       026980009403                  21993344386                 CELULAR                       
10120241118Q5       032020006436                  985825468                   OUTROS                        
10120241118Q5       032690012773                  31993505470                 OUTROS                        
10120241118Q5       036180004739                  1140045215                  RECADO                        
10120241118Q5       036180004739                  21972972868                 CELULAR                       
10120241118Q5       036180004739                  972972868                   OUTROS                        
10120241118Q5       036180004739                  998773763                   OUTROS                        
10120241118Q5       036420000009                  11952299934         0       CELULAR                       
10120241118Q5       036420000009                  11959650568                 CELULAR                       
10120241118Q5       038720003417                  997133319                   OUTROS                        
10120241118Q5       050270003285                  953934215                   OUTROS                        
10120241118Q5       050270003285                  987843575                   OUTROS                        
1012024111825       036420000009                  ESPF    036420000009                  03642   F. VANIA MULTIM                                                                                   03301   CORRESPONDENTE OSASC                         00000000033411410000000000000000000020220211048         1                                                                                                                                                                                                                                                                                                                                                                                                                                                                                                                                                                                                            000000000000017757                                                                                                 
1012024111825       211570026595                  FCDC    211570026595                  21157   CORRESPONDENTE                                                                                    21157   CORRESPONDENTE BAHIA                         00000000053084570000000000000000000020240812048         1                                                                                                                                                                                                                                                                                                                                                                                                                                                                                                                                                                                                            000000000000017989                                                                                                 
1012024111825       211040029990                  FCDC    211040029990                  21104   CORRESP.  RIBEI                                                                                   21104   CORRESP.  RIBEIR?O P                         00000000019310350000000000000000000020211213036         1                                                                                                                                                                                                                                                                                                                                                                                                                                                                                                                                                                                                            000000000000022116                                                                                                 
1012024111825       022800013074                  PARF    022800013074                  02280   CORRESPONDENTE                                                                                    02280   CORRESPONDENTE GOIAS                         00000000010727870000000000000000000020210713048         1                                                                                                                                                                                                                                                                                                                                                                                                                                                                                                                                                                                                            000000000000013000                                                                                                 
1012024111825       023790005760                  FCDC    023790005760                  02379   CORRESPONDENTE                                                                                    02379   CORRESPONDENTE - DIS                         00000000011481910000000000000000000020200515060         1                                                                                                                                                                                                                                                                                                                                                                                                                                                                                                                                                                                                            000000000000022372                                                                                                 
1012024111825       050270003285                  REFF    050270003285                  05027   CORRESP SUCURSA                                                                                   05027   CORRESP SUCURSAL ARC                         00000000017442170000000000000000000020240730024         1                                                                                                                                                                                                                                                                                                                                                                                                                                                                                                                                                                                                            000000000000046635                                                                                                 
1012024111825       036180004739                  REFF    036180004739                  03618   CORRESP. SANTAN                                                                                   03618   CORRESP. SANTANA                             00000000019061160000000000000000000020230411036         1                                                                                                                                                                                                                                                                                                                                                                                                                                                                                                                                                                                                            000000000000035858                                                                                                 
1012024111825       022800005202                  PARF    022800005202                  02280   CORRESPONDENTE                                                                                    02280   CORRESPONDENTE GOIAS                         00000000004886040000000000000000000020191213060         1                                                                                                                                                                                                                                                                                                                                                                                                                                                                                                                                                                                                            000000000000015467                                                                                                 
1012024111825       038720001417                  FSEG    038720001417                  03872   NOVACAO COBRANC                                                                                   03872   NOVACAO COBRANCA CON                         00000000019189860000000000000000000020221104048         1                                                                                                                                                                                                                                                                                                                                                                                                                                                                                                                                                                                                            000000000000010000                                                                                                 
1012024111825       051920003609                  ESPF    051920003609                  05192   V.S. AUTOMOVEIS                                                                                   02591   VANSEG CORRETORA E A                         00000000030913160000000000000000000020230912048         1                                                                                                                                                                                                                                                                                                                                                                                                                                                                                                                                                                                                            000000000000024942                                                                                                 
1012024111825       022800022191                  REFF    022800022191                  02280   CORRESPONDENTE                                                                                    02280   CORRESPONDENTE GOIAS                         00000000012048320000000000000000000020230811036         1                                                                                                                                                                                                                                                                                                                                                                                                                                                                                                                                                                                                            000000000000034621                                                                                                 
1012024111825       026690000133                  UTLJ    026690000133                  02669   HENRIQUE AUTOMO                                                                                   02330   ALFREDO MORETTI JUNI                         00000000014894940000000000000000000020210113048         1                                                                                                                                                                                                                                                                                                                                                                                                                                                                                                                                                                                                            000000000000018942                                                                                                 
1012024111825       038720003417                  FSEG    038720003417                  03872   NOVACAO COBRANC                                                                                   03872   NOVACAO COBRANCA CON                         00000000023031700000000000000000000020230821027         1                                                                                                                                                                                                                                                                                                                                                                                                                                                                                                                                                                                                            000000000000017400                                                                                                 
1012024111825       032690012773                  PARF    032690012773                  03269   CORRESPONDENTE                                                                                    03269   CORRESPONDENTE MINAS                         00000000024339610000000000000000000020210312060         1                                                                                                                                                                                                                                                                                                                                                                                                                                                                                                                                                                                                            000000000000013142                                                                                                 
1012024111825       022800008701                  FCDC    022800008701                  02280   CORRESPONDENTE                                                                                    02280   CORRESPONDENTE GOIAS                         00000000017012590000000000000000000020201112060         1                                                                                                                                                                                                                                                                                                                                                                                                                                                                                                                                                                                                            000000000000014370                                                                                                 
1012024111825       038720002352                  FSEG    038720002352                  03872   NOVACAO COBRANC                                                                                   03872   NOVACAO COBRANCA CON                         00000000016497610000000000000000000020230314022         1                                                                                                                                                                                                                                                                                                                                                                                                                                                                                                                                                                                                            000000000000008000                                                                                                 
1012024111825       038710000064                  FSEG    038710000064                  03871   NOVACAO COBRANC                                                                                   03871   NOVACAO COBRANCA  AM                         00000000017604050000000000000000000020211029048         1                                                                                                                                                                                                                                                                                                                                                                                                                                                                                                                                                                                                            000000000000009900                                                                                                 
1012024111825       038720001269                  FSEG    038720001269                  03872   NOVACAO COBRANC                                                                                   03872   NOVACAO COBRANCA CON                         00000000007852030000000000000000000020221014024         1                                                                                                                                                                                                                                                                                                                                                                                                                                                                                                                                                                                                            000000000000011000                                                                                                 
1012024111825       211040045719                  FCDC    211040045719                  21104   CORRESP.  RIBEI                                                                                   21104   CORRESP.  RIBEIR?O P                         00000000050764110000000000000000000020240508048         1                                                                                                                                                                                                                                                                                                                                                                                                                                                                                                                                                                                                            000000000000017981                                                                                                 
1012024111825       023790021174                  PARF    023790021174                  02379   CORRESPONDENTE                                                                                    02379   CORRESPONDENTE - DIS                         00000000042299200000000000000000000020221014024         1                                                                                                                                                                                                                                                                                                                                                                                                                                                                                                                                                                                                            000000000000020733                                                                                                 
1012024111825       022800023556                  REFF    022800023556                  02280   CORRESPONDENTE                                                                                    02280   CORRESPONDENTE GOIAS                         00000000012636220000000000000000000020240313036         1                                                                                                                                                                                                                                                                                                                                                                                                                                                                                                                                                                                                            000000000000042247                                                                                                 
1012024111825       021980014448                  REFF    021980014448                  02198   CORRESP.  PRESI                                                                                   02198   CORRESP.  PRESIDENTE                         00000000036750420000000000000000000020230412048         1                                                                                                                                                                                                                                                                                                                                                                                                                                                                                                                                                                                                            000000000000027002                                                                                                 
1012024111825       035170001431                  FCDC    035170001431                  03517   CORRESPONDENTE                                                                                    03517   CORRESPONDENTE TATUA                         00000000026441620000000000000000000020210212060         1                                                                                                                                                                                                                                                                                                                                                                                                                                                                                                                                                                                                            000000000000020586                                                                                                 
1012024111825       026980009403                  UTLF    026980009403                  02698   CORRESPONDENTE                                                                                    02698   CORRESPONDENTE PIRAC                         00000000120483840000000000000000000020231107048         1                                                                                                                                                                                                                                                                                                                                                                                                                                                                                                                                                                                                            000000000000030800                                                                                                 
1012024111825       032020006436                  PARF    032020006436                  03202   CORRESPONDENTE                                                                                    03202   CORRESPONDENTE CEARA                         00000000007250590000000000000000000020210112048         1                                                                                                                                                                                                                                                                                                                                                                                                                                                                                                                                                                                                            000000000000016691                                                                                                 
1012024111835       021980014448                  REFF    021980014448                  2024091200000017                000000000015389400000000000000000000000000000000000000000000000000000000000000000000000000   048   1                             20240912                      
1012024111835       021980014448                  REFF    021980014448                  2024101200000018                000000000015389400000000000000000000000000000000000000000000000000000000000000000000000000   048   1                             20241012                      
1012024111835       021980014448                  REFF    021980014448                  2024111200000019                000000000015389400000000000000000000000000000000000000000000000000000000000000000000000000   048   1                             20241112                      
1012024111835       021980014448                  REFF    021980014448                  2024121200000020                000000000015389400000000000000000000000000000000000000000000000000000000000000000000000000   048   1                             20241212                      
1012024111835       021980014448                  REFF    021980014448                  2025011200000021                000000000015389400000000000000000000000000000000000000000000000000000000000000000000000000   048   1                             20250112                      
1012024111835       021980014448                  REFF    021980014448                  2025021200000022                000000000015389400000000000000000000000000000000000000000000000000000000000000000000000000   048   1                             20250212                      
1012024111835       021980014448                  REFF    021980014448                  2025031200000023                000000000015389400000000000000000000000000000000000000000000000000000000000000000000000000   048   1                             20250312                      
1012024111835       021980014448                  REFF    021980014448                  2025041200000024                000000000015389400000000000000000000000000000000000000000000000000000000000000000000000000   048   1                             20250412                      
1012024111835       021980014448                  REFF    021980014448                  2025051200000025                000000000015389400000000000000000000000000000000000000000000000000000000000000000000000000   048   1                             20250512                      
1012024111835       021980014448                  REFF    021980014448                  2025061200000026                000000000015389400000000000000000000000000000000000000000000000000000000000000000000000000   048   1                             20250612                      
1012024111835       021980014448                  REFF    021980014448                  2025071200000027                000000000015389400000000000000000000000000000000000000000000000000000000000000000000000000   048   1                             20250712                      
1012024111835       021980014448                  REFF    021980014448                  2025081200000028                000000000015389400000000000000000000000000000000000000000000000000000000000000000000000000   048   1                             20250812                      
1012024111835       021980014448                  REFF    021980014448                  2025091200000029                000000000015389400000000000000000000000000000000000000000000000000000000000000000000000000   048   1                             20250912                      
1012024111835       021980014448                  REFF    021980014448                  2025101200000030                000000000015389400000000000000000000000000000000000000000000000000000000000000000000000000   048   1                             20251012                      
1012024111835       021980014448                  REFF    021980014448                  2025111200000031                000000000015389400000000000000000000000000000000000000000000000000000000000000000000000000   048   1                             20251112                      
1012024111835       021980014448                  REFF    021980014448                  2025121200000032                000000000015389400000000000000000000000000000000000000000000000000000000000000000000000000   048   1                             20251212                      
1012024111835       021980014448                  REFF    021980014448                  2026011200000033                000000000015389400000000000000000000000000000000000000000000000000000000000000000000000000   048   1                             20260112                      
1012024111835       021980014448                  REFF    021980014448                  2026021200000034                000000000015389400000000000000000000000000000000000000000000000000000000000000000000000000   048   1                             20260212                      
1012024111835       021980014448                  REFF    021980014448                  2026031200000035                000000000015389400000000000000000000000000000000000000000000000000000000000000000000000000   048   1                             20260312                      
1012024111835       021980014448                  REFF    021980014448                  2026041200000036                000000000015389400000000000000000000000000000000000000000000000000000000000000000000000000   048   1                             20260412                      
1012024111835       021980014448                  REFF    021980014448                  2026051200000037                000000000015389400000000000000000000000000000000000000000000000000000000000000000000000000   048   1                             20260512                      
1012024111835       021980014448                  REFF    021980014448                  2026061200000038                000000000015389400000000000000000000000000000000000000000000000000000000000000000000000000   048   1                             20260612                      
1012024111835       021980014448                  REFF    021980014448                  2026071200000039                000000000015389400000000000000000000000000000000000000000000000000000000000000000000000000   048   1                             20260712                      
1012024111835       021980014448                  REFF    021980014448                  2026081200000040                000000000015389400000000000000000000000000000000000000000000000000000000000000000000000000   048   1                             20260812                      
1012024111835       021980014448                  REFF    021980014448                  2026091200000041                000000000015389400000000000000000000000000000000000000000000000000000000000000000000000000   048   1                             20260912                      
1012024111835       021980014448                  REFF    021980014448                  2026101200000042                000000000015389400000000000000000000000000000000000000000000000000000000000000000000000000   048   1                             20261012                      
1012024111835       021980014448                  REFF    021980014448                  2026111200000043                000000000015389400000000000000000000000000000000000000000000000000000000000000000000000000   048   1                             20261112                      
1012024111835       021980014448                  REFF    021980014448                  2026121200000044                000000000015389400000000000000000000000000000000000000000000000000000000000000000000000000   048   1                             20261212                      
1012024111835       021980014448                  REFF    021980014448                  2027011200000045                000000000015389400000000000000000000000000000000000000000000000000000000000000000000000000   048   1                             20270112                      
1012024111835       021980014448                  REFF    021980014448                  2027021200000046                000000000015389400000000000000000000000000000000000000000000000000000000000000000000000000   048   1                             20270212                      
1012024111835       021980014448                  REFF    021980014448                  2027031200000047                000000000015389400000000000000000000000000000000000000000000000000000000000000000000000000   048   1                             20270312                      
1012024111835       021980014448                  REFF    021980014448                  2027041200000048                000000000015389400000000000000000000000000000000000000000000000000000000000000000000000000   048   1                             20270412                      
1012024111835       022800005202                  PARF    022800005202                  2024091300000057                000000000006365800000000000000000000000000000000000000000000000000000000000000000000000000   060   1                             20240913                      
1012024111835       022800005202                  PARF    022800005202                  2024121300000060                000000000006365800000000000000000000000000000000000000000000000000000000000000000000000000   060   1                             20241213                      
1012024111835       022800008701                  FCDC    022800008701                  2024091200000046                000000000009219100000000000000000000000000000000000000000000000000000000000000000000000000   060   1                             20240912                      
1012024111835       022800008701                  FCDC    022800008701                  2024101200000047                000000000009219100000000000000000000000000000000000000000000000000000000000000000000000000   060   1                             20241012                      
1012024111835       022800008701                  FCDC    022800008701                  2024111200000048                000000000009219100000000000000000000000000000000000000000000000000000000000000000000000000   060   1                             20241112                      
1012024111835       022800008701                  FCDC    022800008701                  2024121200000049                000000000009219100000000000000000000000000000000000000000000000000000000000000000000000000   060   1                             20241212                      
1012024111835       022800008701                  FCDC    022800008701                  2025011200000050                000000000009219100000000000000000000000000000000000000000000000000000000000000000000000000   060   1                             20250112                      
1012024111835       022800008701                  FCDC    022800008701                  2025021200000051                000000000009219100000000000000000000000000000000000000000000000000000000000000000000000000   060   1                             20250212                      
1012024111835       022800008701                  FCDC    022800008701                  2025031200000052                000000000009219100000000000000000000000000000000000000000000000000000000000000000000000000   060   1                             20250312                      
1012024111835       022800008701                  FCDC    022800008701                  2025041200000053                000000000009219100000000000000000000000000000000000000000000000000000000000000000000000000   060   1                             20250412                      
1012024111835       022800008701                  FCDC    022800008701                  2025051200000054                000000000009219100000000000000000000000000000000000000000000000000000000000000000000000000   060   1                             20250512                      
1012024111835       022800008701                  FCDC    022800008701                  2025061200000055                000000000009219100000000000000000000000000000000000000000000000000000000000000000000000000   060   1                             20250612                      
1012024111835       022800008701                  FCDC    022800008701                  2025071200000056                000000000009219100000000000000000000000000000000000000000000000000000000000000000000000000   060   1                             20250712                      
1012024111835       022800008701                  FCDC    022800008701                  2025081200000057                000000000009219100000000000000000000000000000000000000000000000000000000000000000000000000   060   1                             20250812                      
1012024111835       022800008701                  FCDC    022800008701                  2025091200000058                000000000009219100000000000000000000000000000000000000000000000000000000000000000000000000   060   1                             20250912                      
1012024111835       022800008701                  FCDC    022800008701                  2025101200000059                000000000009219100000000000000000000000000000000000000000000000000000000000000000000000000   060   1                             20251012                      
1012024111835       022800008701                  FCDC    022800008701                  2025111200000060                000000000009219100000000000000000000000000000000000000000000000000000000000000000000000000   060   1                             20251112                      
1012024111835       022800012573                  PARF    022800012573                  2024081600000038                000000000014452900000000000000000000000000000000000000000000000000000000000000000000000000   048   1                             20240816                      
1012024111835       022800012573                  PARF    022800012573                  2024091600000039                000000000014452900000000000000000000000000000000000000000000000000000000000000000000000000   048   1                             20240916                      
1012024111835       022800013074                  PARF    022800013074                  2024091200000038                000000000004878100000000000000000000000000000000000000000000000000000000000000000000000000   048   1                             20240912                      
1012024111835       022800013074                  PARF    022800013074                  2024101200000039                000000000004878100000000000000000000000000000000000000000000000000000000000000000000000000   048   1                             20241012                      
1012024111835       022800013074                  PARF    022800013074                  2024111200000040                000000000004878100000000000000000000000000000000000000000000000000000000000000000000000000   048   1                             20241112                      
1012024111835       022800013074                  PARF    022800013074                  2024121200000041                000000000004878100000000000000000000000000000000000000000000000000000000000000000000000000   048   1                             20241212                      
1012024111835       022800013074                  PARF    022800013074                  2025011200000042                000000000004878100000000000000000000000000000000000000000000000000000000000000000000000000   048   1                             20250112                      
1012024111835       022800013074                  PARF    022800013074                  2025021200000043                000000000004878100000000000000000000000000000000000000000000000000000000000000000000000000   048   1                             20250212                      
1012024111835       022800013074                  PARF    022800013074                  2025031200000044                000000000004878100000000000000000000000000000000000000000000000000000000000000000000000000   048   1                             20250312                      
1012024111835       022800013074                  PARF    022800013074                  2025041200000045                000000000004878100000000000000000000000000000000000000000000000000000000000000000000000000   048   1                             20250412                      
1012024111835       022800013074                  PARF    022800013074                  2025051200000046                000000000004878100000000000000000000000000000000000000000000000000000000000000000000000000   048   1                             20250512                      
1012024111835       022800013074                  PARF    022800013074                  2025061200000047                000000000004878100000000000000000000000000000000000000000000000000000000000000000000000000   048   1                             20250612                      
1012024111835       022800013074                  PARF    022800013074                  2025071200000048                000000000004878100000000000000000000000000000000000000000000000000000000000000000000000000   048   1                             20250712                      
1012024111835       022800022191                  REFF    022800022191                  2024091200000013                000000000007213700000000000000000000000000000000000000000000000000000000000000000000000000   036   1                             20240912                      
1012024111835       022800022191                  REFF    022800022191                  2024101200000014                000000000007213700000000000000000000000000000000000000000000000000000000000000000000000000   036   1                             20241012                      
1012024111835       022800022191                  REFF    022800022191                  2024111200000015                000000000007213700000000000000000000000000000000000000000000000000000000000000000000000000   036   1                             20241112                      
1012024111835       022800022191                  REFF    022800022191                  2024121200000016                000000000007213700000000000000000000000000000000000000000000000000000000000000000000000000   036   1                             20241212                      
1012024111835       022800022191                  REFF    022800022191                  2025011200000017                000000000007213700000000000000000000000000000000000000000000000000000000000000000000000000   036   1                             20250112                      
1012024111835       022800022191                  REFF    022800022191                  2025021200000018                000000000007213700000000000000000000000000000000000000000000000000000000000000000000000000   036   1                             20250212                      
1012024111835       022800022191                  REFF    022800022191                  2025031200000019                000000000007213700000000000000000000000000000000000000000000000000000000000000000000000000   036   1                             20250312                      
1012024111835       022800022191                  REFF    022800022191                  2025041200000020                000000000007213700000000000000000000000000000000000000000000000000000000000000000000000000   036   1                             20250412                      
